{
	"Crypto-side-main/ds-auth.sol": {
		"DSAuth": {
			"abi": [
				{
					"inputs": [],
					"stateMutability": "nonpayable",
					"type": "constructor"
				},
				{
					"anonymous": false,
					"inputs": [
						{
							"indexed": true,
							"internalType": "address",
							"name": "authority",
							"type": "address"
						}
					],
					"name": "LogSetAuthority",
					"type": "event"
				},
				{
					"anonymous": false,
					"inputs": [
						{
							"indexed": true,
							"internalType": "address",
							"name": "owner",
							"type": "address"
						}
					],
					"name": "LogSetOwner",
					"type": "event"
				},
				{
					"inputs": [],
					"name": "authority",
					"outputs": [
						{
							"internalType": "contract DSAuthority",
							"name": "",
							"type": "address"
						}
					],
					"stateMutability": "view",
					"type": "function"
				},
				{
					"inputs": [
						{
							"internalType": "address",
							"name": "src",
							"type": "address"
						},
						{
							"internalType": "bytes4",
							"name": "sig",
							"type": "bytes4"
						}
					],
					"name": "isAuthorized",
					"outputs": [
						{
							"internalType": "bool",
							"name": "",
							"type": "bool"
						}
					],
					"stateMutability": "view",
					"type": "function"
				},
				{
					"inputs": [],
					"name": "owner",
					"outputs": [
						{
							"internalType": "address",
							"name": "",
							"type": "address"
						}
					],
					"stateMutability": "view",
					"type": "function"
				},
				{
					"inputs": [
						{
							"internalType": "contract DSAuthority",
							"name": "authority_",
							"type": "address"
						}
					],
					"name": "setAuthority",
					"outputs": [],
					"stateMutability": "nonpayable",
					"type": "function"
				},
				{
					"inputs": [
						{
							"internalType": "address",
							"name": "owner_",
							"type": "address"
						}
					],
					"name": "setOwner",
					"outputs": [],
					"stateMutability": "nonpayable",
					"type": "function"
				}
			],
			"devdoc": {
				"kind": "dev",
				"methods": {},
				"version": 1
			},
			"evm": {
				"assembly": "    /* \"Crypto-side-main/ds-auth.sol\":966:1975  contract DSAuth is DSAuthEvents {... */\n  mstore(0x40, 0x80)\n    /* \"Crypto-side-main/ds-auth.sol\":1073:1167  constructor() public {... */\n  callvalue\n  dup1\n  iszero\n  tag_1\n  jumpi\n  0x00\n  dup1\n  revert\ntag_1:\n  pop\n    /* \"Crypto-side-main/ds-auth.sol\":1104:1109  owner */\n  0x01\n    /* \"Crypto-side-main/ds-auth.sol\":1104:1122  owner = msg.sender */\n  dup1\n  sload\n  not(sub(shl(0xa0, 0x01), 0x01))\n  and\n    /* \"Crypto-side-main/ds-auth.sol\":1112:1122  msg.sender */\n  caller\n    /* \"Crypto-side-main/ds-auth.sol\":1104:1122  owner = msg.sender */\n  swap1\n  dup2\n  or\n  swap1\n  swap2\n  sstore\n    /* \"Crypto-side-main/ds-auth.sol\":1137:1160  LogSetOwner(msg.sender) */\n  mload(0x40)\n  0xce241d7ca1f669fee44b6fc00b8eba2df3bb514eed0f6f668f8f89096e81ed94\n  swap1\n    /* \"Crypto-side-main/ds-auth.sol\":1104:1109  owner */\n  0x00\n  swap1\n    /* \"Crypto-side-main/ds-auth.sol\":1137:1160  LogSetOwner(msg.sender) */\n  log2\n    /* \"Crypto-side-main/ds-auth.sol\":966:1975  contract DSAuth is DSAuthEvents {... */\n  dataSize(sub_0)\n  dup1\n  dataOffset(sub_0)\n  0x00\n  codecopy\n  0x00\n  return\nstop\n\nsub_0: assembly {\n        /* \"Crypto-side-main/ds-auth.sol\":966:1975  contract DSAuth is DSAuthEvents {... */\n      mstore(0x40, 0x80)\n      callvalue\n      dup1\n      iszero\n      tag_1\n      jumpi\n      0x00\n      dup1\n      revert\n    tag_1:\n      pop\n      jumpi(tag_2, lt(calldatasize, 0x04))\n      shr(0xe0, calldataload(0x00))\n      dup1\n      0x13af4035\n      eq\n      tag_3\n      jumpi\n      dup1\n      0x7a9e5e4b\n      eq\n      tag_4\n      jumpi\n      dup1\n      0x8da5cb5b\n      eq\n      tag_5\n      jumpi\n      dup1\n      0xbf7e214f\n      eq\n      tag_6\n      jumpi\n      dup1\n      0xd9972b96\n      eq\n      tag_7\n      jumpi\n    tag_2:\n      0x00\n      dup1\n      revert\n        /* \"Crypto-side-main/ds-auth.sol\":1173:1303  function setOwner(address owner_)... */\n    tag_3:\n      tag_8\n      tag_9\n      calldatasize\n      0x04\n      tag_10\n      jump\t// in\n    tag_9:\n      tag_11\n      jump\t// in\n    tag_8:\n      stop\n        /* \"Crypto-side-main/ds-auth.sol\":1309:1476  function setAuthority(DSAuthority authority_)... */\n    tag_4:\n      tag_8\n      tag_13\n      calldatasize\n      0x04\n      tag_10\n      jump\t// in\n    tag_13:\n      tag_15\n      jump\t// in\n        /* \"Crypto-side-main/ds-auth.sol\":1040:1066  address      public  owner */\n    tag_5:\n      sload(0x01)\n      tag_16\n      swap1\n      sub(shl(0xa0, 0x01), 0x01)\n      and\n      dup2\n      jump\n    tag_16:\n      mload(0x40)\n      sub(shl(0xa0, 0x01), 0x01)\n        /* \"#utility.yul\":837:869   */\n      swap1\n      swap2\n      and\n        /* \"#utility.yul\":819:870   */\n      dup2\n      mstore\n        /* \"#utility.yul\":807:809   */\n      0x20\n        /* \"#utility.yul\":792:810   */\n      add\n        /* \"Crypto-side-main/ds-auth.sol\":1040:1066  address      public  owner */\n    tag_18:\n      mload(0x40)\n      dup1\n      swap2\n      sub\n      swap1\n      return\n        /* \"Crypto-side-main/ds-auth.sol\":1004:1034  DSAuthority  public  authority */\n    tag_6:\n      sload(0x00)\n      tag_16\n      swap1\n      sub(shl(0xa0, 0x01), 0x01)\n      and\n      dup2\n      jump\n        /* \"Crypto-side-main/ds-auth.sol\":1596:1973  function isAuthorized(address src, bytes4 sig) public view returns (bool) {... */\n    tag_7:\n      tag_24\n      tag_25\n      calldatasize\n      0x04\n      tag_26\n      jump\t// in\n    tag_25:\n      tag_27\n      jump\t// in\n    tag_24:\n      mload(0x40)\n        /* \"#utility.yul\":1707:1721   */\n      swap1\n      iszero\n        /* \"#utility.yul\":1700:1722   */\n      iszero\n        /* \"#utility.yul\":1682:1723   */\n      dup2\n      mstore\n        /* \"#utility.yul\":1670:1672   */\n      0x20\n        /* \"#utility.yul\":1655:1673   */\n      add\n        /* \"Crypto-side-main/ds-auth.sol\":1596:1973  function isAuthorized(address src, bytes4 sig) public view returns (bool) {... */\n      tag_18\n        /* \"#utility.yul\":1542:1729   */\n      jump\n        /* \"Crypto-side-main/ds-auth.sol\":1173:1303  function setOwner(address owner_)... */\n    tag_11:\n        /* \"Crypto-side-main/ds-auth.sol\":1514:1547  isAuthorized(msg.sender, msg.sig) */\n      tag_31\n        /* \"Crypto-side-main/ds-auth.sol\":1527:1537  msg.sender */\n      caller\n        /* \"Crypto-side-main/ds-auth.sol\":1539:1546  msg.sig */\n      and(not(sub(shl(0xe0, 0x01), 0x01)), calldataload(0x00))\n        /* \"Crypto-side-main/ds-auth.sol\":1514:1526  isAuthorized */\n      tag_27\n        /* \"Crypto-side-main/ds-auth.sol\":1514:1547  isAuthorized(msg.sender, msg.sig) */\n      jump\t// in\n    tag_31:\n        /* \"Crypto-side-main/ds-auth.sol\":1506:1572  require(isAuthorized(msg.sender, msg.sig), \"ds-auth-unauthorized\") */\n      tag_32\n      jumpi\n      mload(0x40)\n      shl(0xe5, 0x461bcd)\n      dup2\n      mstore\n        /* \"#utility.yul\":1936:1938   */\n      0x20\n        /* \"Crypto-side-main/ds-auth.sol\":1506:1572  require(isAuthorized(msg.sender, msg.sig), \"ds-auth-unauthorized\") */\n      0x04\n      dup3\n      add\n        /* \"#utility.yul\":1918:1939   */\n      mstore\n        /* \"#utility.yul\":1975:1977   */\n      0x14\n        /* \"#utility.yul\":1955:1973   */\n      0x24\n      dup3\n      add\n        /* \"#utility.yul\":1948:1978   */\n      mstore\n      shl(0x62, 0x191ccb585d5d1a0b5d5b985d5d1a1bdc9a5e9959)\n        /* \"#utility.yul\":1994:2012   */\n      0x44\n      dup3\n      add\n        /* \"#utility.yul\":1987:2037   */\n      mstore\n        /* \"#utility.yul\":2054:2072   */\n      0x64\n      add\n        /* \"Crypto-side-main/ds-auth.sol\":1506:1572  require(isAuthorized(msg.sender, msg.sig), \"ds-auth-unauthorized\") */\n    tag_33:\n      mload(0x40)\n      dup1\n      swap2\n      sub\n      swap1\n      revert\n    tag_32:\n        /* \"Crypto-side-main/ds-auth.sol\":1249:1254  owner */\n      0x01\n        /* \"Crypto-side-main/ds-auth.sol\":1249:1263  owner = owner_ */\n      dup1\n      sload\n      not(sub(shl(0xa0, 0x01), 0x01))\n      and\n      sub(shl(0xa0, 0x01), 0x01)\n      dup4\n      and\n      swap1\n      dup2\n      or\n      swap1\n      swap2\n      sstore\n        /* \"Crypto-side-main/ds-auth.sol\":1278:1296  LogSetOwner(owner) */\n      mload(0x40)\n      0xce241d7ca1f669fee44b6fc00b8eba2df3bb514eed0f6f668f8f89096e81ed94\n      swap1\n      0x00\n      swap1\n      log2\n        /* \"Crypto-side-main/ds-auth.sol\":1173:1303  function setOwner(address owner_)... */\n      pop\n      jump\t// out\n        /* \"Crypto-side-main/ds-auth.sol\":1309:1476  function setAuthority(DSAuthority authority_)... */\n    tag_15:\n        /* \"Crypto-side-main/ds-auth.sol\":1514:1547  isAuthorized(msg.sender, msg.sig) */\n      tag_37\n        /* \"Crypto-side-main/ds-auth.sol\":1527:1537  msg.sender */\n      caller\n        /* \"Crypto-side-main/ds-auth.sol\":1539:1546  msg.sig */\n      and(not(sub(shl(0xe0, 0x01), 0x01)), calldataload(0x00))\n        /* \"Crypto-side-main/ds-auth.sol\":1514:1526  isAuthorized */\n      tag_27\n        /* \"Crypto-side-main/ds-auth.sol\":1514:1547  isAuthorized(msg.sender, msg.sig) */\n      jump\t// in\n    tag_37:\n        /* \"Crypto-side-main/ds-auth.sol\":1506:1572  require(isAuthorized(msg.sender, msg.sig), \"ds-auth-unauthorized\") */\n      tag_38\n      jumpi\n      mload(0x40)\n      shl(0xe5, 0x461bcd)\n      dup2\n      mstore\n        /* \"#utility.yul\":1936:1938   */\n      0x20\n        /* \"Crypto-side-main/ds-auth.sol\":1506:1572  require(isAuthorized(msg.sender, msg.sig), \"ds-auth-unauthorized\") */\n      0x04\n      dup3\n      add\n        /* \"#utility.yul\":1918:1939   */\n      mstore\n        /* \"#utility.yul\":1975:1977   */\n      0x14\n        /* \"#utility.yul\":1955:1973   */\n      0x24\n      dup3\n      add\n        /* \"#utility.yul\":1948:1978   */\n      mstore\n      shl(0x62, 0x191ccb585d5d1a0b5d5b985d5d1a1bdc9a5e9959)\n        /* \"#utility.yul\":1994:2012   */\n      0x44\n      dup3\n      add\n        /* \"#utility.yul\":1987:2037   */\n      mstore\n        /* \"#utility.yul\":2054:2072   */\n      0x64\n      add\n        /* \"Crypto-side-main/ds-auth.sol\":1506:1572  require(isAuthorized(msg.sender, msg.sig), \"ds-auth-unauthorized\") */\n      tag_33\n        /* \"#utility.yul\":1734:2078   */\n      jump\n        /* \"Crypto-side-main/ds-auth.sol\":1506:1572  require(isAuthorized(msg.sender, msg.sig), \"ds-auth-unauthorized\") */\n    tag_38:\n        /* \"Crypto-side-main/ds-auth.sol\":1397:1406  authority */\n      0x00\n        /* \"Crypto-side-main/ds-auth.sol\":1397:1419  authority = authority_ */\n      dup1\n      sload\n      not(sub(shl(0xa0, 0x01), 0x01))\n      and\n      sub(shl(0xa0, 0x01), 0x01)\n      dup4\n      and\n      swap1\n      dup2\n      or\n      dup3\n      sstore\n        /* \"Crypto-side-main/ds-auth.sol\":1434:1469  LogSetAuthority(address(authority)) */\n      mload(0x40)\n        /* \"Crypto-side-main/ds-auth.sol\":1397:1419  authority = authority_ */\n      swap1\n      swap2\n        /* \"Crypto-side-main/ds-auth.sol\":1434:1469  LogSetAuthority(address(authority)) */\n      0x1abebea81bfa2637f28358c371278fb15ede7ea8dd28d2e03b112ff6d936ada4\n      swap2\n      log2\n        /* \"Crypto-side-main/ds-auth.sol\":1309:1476  function setAuthority(DSAuthority authority_)... */\n      pop\n      jump\t// out\n        /* \"Crypto-side-main/ds-auth.sol\":1596:1973  function isAuthorized(address src, bytes4 sig) public view returns (bool) {... */\n    tag_27:\n        /* \"Crypto-side-main/ds-auth.sol\":1664:1668  bool */\n      0x00\n        /* \"Crypto-side-main/ds-auth.sol\":1699:1703  this */\n      address\n      sub(shl(0xa0, 0x01), 0x01)\n        /* \"Crypto-side-main/ds-auth.sol\":1684:1704  src == address(this) */\n      dup5\n      and\n      sub\n        /* \"Crypto-side-main/ds-auth.sol\":1680:1967  if (src == address(this)) {... */\n      tag_42\n      jumpi\n      pop\n        /* \"Crypto-side-main/ds-auth.sol\":1727:1731  true */\n      0x01\n        /* \"Crypto-side-main/ds-auth.sol\":1720:1731  return true */\n      jump(tag_47)\n        /* \"Crypto-side-main/ds-auth.sol\":1680:1967  if (src == address(this)) {... */\n    tag_42:\n        /* \"Crypto-side-main/ds-auth.sol\":1759:1764  owner */\n      sload(0x01)\n      sub(shl(0xa0, 0x01), 0x01)\n      swap1\n      dup2\n      and\n        /* \"Crypto-side-main/ds-auth.sol\":1752:1764  src == owner */\n      swap1\n      dup5\n      and\n      sub\n        /* \"Crypto-side-main/ds-auth.sol\":1748:1967  if (src == owner) {... */\n      tag_44\n      jumpi\n      pop\n        /* \"Crypto-side-main/ds-auth.sol\":1787:1791  true */\n      0x01\n        /* \"Crypto-side-main/ds-auth.sol\":1780:1791  return true */\n      jump(tag_47)\n        /* \"Crypto-side-main/ds-auth.sol\":1748:1967  if (src == owner) {... */\n    tag_44:\n        /* \"Crypto-side-main/ds-auth.sol\":1845:1846  0 */\n      0x00\n        /* \"Crypto-side-main/ds-auth.sol\":1812:1821  authority */\n      sload\n      sub(shl(0xa0, 0x01), 0x01)\n      and\n        /* \"Crypto-side-main/ds-auth.sol\":1808:1967  if (authority == DSAuthority(address(0))) {... */\n      tag_46\n      jumpi\n      pop\n        /* \"Crypto-side-main/ds-auth.sol\":1871:1876  false */\n      0x00\n        /* \"Crypto-side-main/ds-auth.sol\":1864:1876  return false */\n      jump(tag_47)\n        /* \"Crypto-side-main/ds-auth.sol\":1808:1967  if (authority == DSAuthority(address(0))) {... */\n    tag_46:\n        /* \"Crypto-side-main/ds-auth.sol\":1914:1923  authority */\n      sload(0x00)\n        /* \"Crypto-side-main/ds-auth.sol\":1914:1956  authority.canCall(src, address(this), sig) */\n      mload(0x40)\n      shl(0xe0, 0xb7009613)\n      dup2\n      mstore\n      sub(shl(0xa0, 0x01), 0x01)\n        /* \"#utility.yul\":2339:2354   */\n      dup6\n      dup2\n      and\n        /* \"Crypto-side-main/ds-auth.sol\":1914:1956  authority.canCall(src, address(this), sig) */\n      0x04\n      dup4\n      add\n        /* \"#utility.yul\":2321:2355   */\n      mstore\n        /* \"Crypto-side-main/ds-auth.sol\":1945:1949  this */\n      address\n        /* \"#utility.yul\":2371:2389   */\n      0x24\n      dup4\n      add\n        /* \"#utility.yul\":2364:2407   */\n      mstore\n      not(sub(shl(0xe0, 0x01), 0x01))\n        /* \"#utility.yul\":2443:2476   */\n      dup6\n      and\n        /* \"#utility.yul\":2423:2441   */\n      0x44\n      dup4\n      add\n        /* \"#utility.yul\":2416:2477   */\n      mstore\n        /* \"Crypto-side-main/ds-auth.sol\":1914:1923  authority */\n      swap1\n      swap2\n      and\n      swap1\n        /* \"Crypto-side-main/ds-auth.sol\":1914:1931  authority.canCall */\n      0xb7009613\n      swap1\n        /* \"#utility.yul\":2256:2274   */\n      0x64\n      add\n        /* \"Crypto-side-main/ds-auth.sol\":1914:1956  authority.canCall(src, address(this), sig) */\n      0x20\n      mload(0x40)\n      dup1\n      dup4\n      sub\n      dup2\n      dup7\n      gas\n      staticcall\n      iszero\n      dup1\n      iszero\n      tag_51\n      jumpi\n      returndatasize\n      0x00\n      dup1\n      returndatacopy\n      revert(0x00, returndatasize)\n    tag_51:\n      pop\n      pop\n      pop\n      pop\n      mload(0x40)\n      returndatasize\n      not(0x1f)\n      0x1f\n      dup3\n      add\n      and\n      dup3\n      add\n      dup1\n      0x40\n      mstore\n      pop\n      dup2\n      add\n      swap1\n      tag_52\n      swap2\n      swap1\n      tag_53\n      jump\t// in\n    tag_52:\n        /* \"Crypto-side-main/ds-auth.sol\":1907:1956  return authority.canCall(src, address(this), sig) */\n      swap1\n      pop\n        /* \"Crypto-side-main/ds-auth.sol\":1808:1967  if (authority == DSAuthority(address(0))) {... */\n    tag_47:\n        /* \"Crypto-side-main/ds-auth.sol\":1596:1973  function isAuthorized(address src, bytes4 sig) public view returns (bool) {... */\n      swap3\n      swap2\n      pop\n      pop\n      jump\t// out\n        /* \"#utility.yul\":14:145   */\n    tag_54:\n      sub(shl(0xa0, 0x01), 0x01)\n        /* \"#utility.yul\":89:120   */\n      dup2\n      and\n        /* \"#utility.yul\":79:121   */\n      dup2\n      eq\n        /* \"#utility.yul\":69:139   */\n      tag_57\n      jumpi\n        /* \"#utility.yul\":135:136   */\n      0x00\n        /* \"#utility.yul\":132:133   */\n      dup1\n        /* \"#utility.yul\":125:137   */\n      revert\n        /* \"#utility.yul\":69:139   */\n    tag_57:\n        /* \"#utility.yul\":14:145   */\n      pop\n      jump\t// out\n        /* \"#utility.yul\":150:397   */\n    tag_10:\n        /* \"#utility.yul\":209:215   */\n      0x00\n        /* \"#utility.yul\":262:264   */\n      0x20\n        /* \"#utility.yul\":250:259   */\n      dup3\n        /* \"#utility.yul\":241:248   */\n      dup5\n        /* \"#utility.yul\":237:260   */\n      sub\n        /* \"#utility.yul\":233:265   */\n      slt\n        /* \"#utility.yul\":230:282   */\n      iszero\n      tag_59\n      jumpi\n        /* \"#utility.yul\":278:279   */\n      0x00\n        /* \"#utility.yul\":275:276   */\n      dup1\n        /* \"#utility.yul\":268:280   */\n      revert\n        /* \"#utility.yul\":230:282   */\n    tag_59:\n        /* \"#utility.yul\":317:326   */\n      dup2\n        /* \"#utility.yul\":304:327   */\n      calldataload\n        /* \"#utility.yul\":336:367   */\n      tag_60\n        /* \"#utility.yul\":361:366   */\n      dup2\n        /* \"#utility.yul\":336:367   */\n      tag_54\n      jump\t// in\n    tag_60:\n        /* \"#utility.yul\":386:391   */\n      swap4\n        /* \"#utility.yul\":150:397   */\n      swap3\n      pop\n      pop\n      pop\n      jump\t// out\n        /* \"#utility.yul\":1108:1537   */\n    tag_26:\n        /* \"#utility.yul\":1175:1181   */\n      0x00\n        /* \"#utility.yul\":1183:1189   */\n      dup1\n        /* \"#utility.yul\":1236:1238   */\n      0x40\n        /* \"#utility.yul\":1224:1233   */\n      dup4\n        /* \"#utility.yul\":1215:1222   */\n      dup6\n        /* \"#utility.yul\":1211:1234   */\n      sub\n        /* \"#utility.yul\":1207:1239   */\n      slt\n        /* \"#utility.yul\":1204:1256   */\n      iszero\n      tag_67\n      jumpi\n        /* \"#utility.yul\":1252:1253   */\n      0x00\n        /* \"#utility.yul\":1249:1250   */\n      dup1\n        /* \"#utility.yul\":1242:1254   */\n      revert\n        /* \"#utility.yul\":1204:1256   */\n    tag_67:\n        /* \"#utility.yul\":1291:1300   */\n      dup3\n        /* \"#utility.yul\":1278:1301   */\n      calldataload\n        /* \"#utility.yul\":1310:1341   */\n      tag_68\n        /* \"#utility.yul\":1335:1340   */\n      dup2\n        /* \"#utility.yul\":1310:1341   */\n      tag_54\n      jump\t// in\n    tag_68:\n        /* \"#utility.yul\":1360:1365   */\n      swap2\n      pop\n        /* \"#utility.yul\":1417:1419   */\n      0x20\n        /* \"#utility.yul\":1402:1420   */\n      dup4\n      add\n        /* \"#utility.yul\":1389:1421   */\n      calldataload\n      not(sub(shl(0xe0, 0x01), 0x01))\n        /* \"#utility.yul\":1452:1486   */\n      dup2\n      and\n        /* \"#utility.yul\":1440:1487   */\n      dup2\n      eq\n        /* \"#utility.yul\":1430:1505   */\n      tag_69\n      jumpi\n        /* \"#utility.yul\":1501:1502   */\n      0x00\n        /* \"#utility.yul\":1498:1499   */\n      dup1\n        /* \"#utility.yul\":1491:1503   */\n      revert\n        /* \"#utility.yul\":1430:1505   */\n    tag_69:\n        /* \"#utility.yul\":1524:1531   */\n      dup1\n        /* \"#utility.yul\":1514:1531   */\n      swap2\n      pop\n      pop\n        /* \"#utility.yul\":1108:1537   */\n      swap3\n      pop\n      swap3\n      swap1\n      pop\n      jump\t// out\n        /* \"#utility.yul\":2488:2765   */\n    tag_53:\n        /* \"#utility.yul\":2555:2561   */\n      0x00\n        /* \"#utility.yul\":2608:2610   */\n      0x20\n        /* \"#utility.yul\":2596:2605   */\n      dup3\n        /* \"#utility.yul\":2587:2594   */\n      dup5\n        /* \"#utility.yul\":2583:2606   */\n      sub\n        /* \"#utility.yul\":2579:2611   */\n      slt\n        /* \"#utility.yul\":2576:2628   */\n      iszero\n      tag_74\n      jumpi\n        /* \"#utility.yul\":2624:2625   */\n      0x00\n        /* \"#utility.yul\":2621:2622   */\n      dup1\n        /* \"#utility.yul\":2614:2626   */\n      revert\n        /* \"#utility.yul\":2576:2628   */\n    tag_74:\n        /* \"#utility.yul\":2656:2665   */\n      dup2\n        /* \"#utility.yul\":2650:2666   */\n      mload\n        /* \"#utility.yul\":2709:2714   */\n      dup1\n        /* \"#utility.yul\":2702:2715   */\n      iszero\n        /* \"#utility.yul\":2695:2716   */\n      iszero\n        /* \"#utility.yul\":2688:2693   */\n      dup2\n        /* \"#utility.yul\":2685:2717   */\n      eq\n        /* \"#utility.yul\":2675:2735   */\n      tag_60\n      jumpi\n        /* \"#utility.yul\":2731:2732   */\n      0x00\n        /* \"#utility.yul\":2728:2729   */\n      dup1\n        /* \"#utility.yul\":2721:2733   */\n      revert\n\n    auxdata: 0xa26469706673582212204043148f1e6d8e039fba68c92a877dff73a62420d894fa3f405f99bcf896455a64736f6c63430008170033\n}\n",
				"bytecode": {
					"linkReferences": {},
					"object": "608060405234801561000f575f80fd5b50600180546001600160a01b031916339081179091556040517fce241d7ca1f669fee44b6fc00b8eba2df3bb514eed0f6f668f8f89096e81ed94905f90a26103d38061005a5f395ff3fe608060405234801561000f575f80fd5b5060043610610055575f3560e01c806313af4035146100595780637a9e5e4b1461006e5780638da5cb5b14610081578063bf7e214f146100b1578063d9972b96146100c3575b5f80fd5b61006c610067366004610319565b6100e6565b005b61006c61007c366004610319565b61018c565b600154610094906001600160a01b031681565b6040516001600160a01b0390911681526020015b60405180910390f35b5f54610094906001600160a01b031681565b6100d66100d136600461033b565b61022b565b60405190151581526020016100a8565b6100fb335f356001600160e01b03191661022b565b6101435760405162461bcd60e51b8152602060048201526014602482015273191ccb585d5d1a0b5d5b985d5d1a1bdc9a5e995960621b60448201526064015b60405180910390fd5b600180546001600160a01b0319166001600160a01b0383169081179091556040517fce241d7ca1f669fee44b6fc00b8eba2df3bb514eed0f6f668f8f89096e81ed94905f90a250565b6101a1335f356001600160e01b03191661022b565b6101e45760405162461bcd60e51b8152602060048201526014602482015273191ccb585d5d1a0b5d5b985d5d1a1bdc9a5e995960621b604482015260640161013a565b5f80546001600160a01b0319166001600160a01b038316908117825560405190917f1abebea81bfa2637f28358c371278fb15ede7ea8dd28d2e03b112ff6d936ada491a250565b5f306001600160a01b03841603610244575060016102fc565b6001546001600160a01b0390811690841603610262575060016102fc565b5f546001600160a01b031661027857505f6102fc565b5f5460405163b700961360e01b81526001600160a01b0385811660048301523060248301526001600160e01b0319851660448301529091169063b700961390606401602060405180830381865afa1580156102d5573d5f803e3d5ffd5b505050506040513d601f19601f820116820180604052508101906102f9919061037e565b90505b92915050565b6001600160a01b0381168114610316575f80fd5b50565b5f60208284031215610329575f80fd5b813561033481610302565b9392505050565b5f806040838503121561034c575f80fd5b823561035781610302565b915060208301356001600160e01b031981168114610373575f80fd5b809150509250929050565b5f6020828403121561038e575f80fd5b81518015158114610334575f80fdfea26469706673582212204043148f1e6d8e039fba68c92a877dff73a62420d894fa3f405f99bcf896455a64736f6c63430008170033",
					"opcodes": "PUSH1 0x80 PUSH1 0x40 MSTORE CALLVALUE DUP1 ISZERO PUSH2 0xF JUMPI PUSH0 DUP1 REVERT JUMPDEST POP PUSH1 0x1 DUP1 SLOAD PUSH1 0x1 PUSH1 0x1 PUSH1 0xA0 SHL SUB NOT AND CALLER SWAP1 DUP2 OR SWAP1 SWAP2 SSTORE PUSH1 0x40 MLOAD PUSH32 0xCE241D7CA1F669FEE44B6FC00B8EBA2DF3BB514EED0F6F668F8F89096E81ED94 SWAP1 PUSH0 SWAP1 LOG2 PUSH2 0x3D3 DUP1 PUSH2 0x5A PUSH0 CODECOPY PUSH0 RETURN INVALID PUSH1 0x80 PUSH1 0x40 MSTORE CALLVALUE DUP1 ISZERO PUSH2 0xF JUMPI PUSH0 DUP1 REVERT JUMPDEST POP PUSH1 0x4 CALLDATASIZE LT PUSH2 0x55 JUMPI PUSH0 CALLDATALOAD PUSH1 0xE0 SHR DUP1 PUSH4 0x13AF4035 EQ PUSH2 0x59 JUMPI DUP1 PUSH4 0x7A9E5E4B EQ PUSH2 0x6E JUMPI DUP1 PUSH4 0x8DA5CB5B EQ PUSH2 0x81 JUMPI DUP1 PUSH4 0xBF7E214F EQ PUSH2 0xB1 JUMPI DUP1 PUSH4 0xD9972B96 EQ PUSH2 0xC3 JUMPI JUMPDEST PUSH0 DUP1 REVERT JUMPDEST PUSH2 0x6C PUSH2 0x67 CALLDATASIZE PUSH1 0x4 PUSH2 0x319 JUMP JUMPDEST PUSH2 0xE6 JUMP JUMPDEST STOP JUMPDEST PUSH2 0x6C PUSH2 0x7C CALLDATASIZE PUSH1 0x4 PUSH2 0x319 JUMP JUMPDEST PUSH2 0x18C JUMP JUMPDEST PUSH1 0x1 SLOAD PUSH2 0x94 SWAP1 PUSH1 0x1 PUSH1 0x1 PUSH1 0xA0 SHL SUB AND DUP2 JUMP JUMPDEST PUSH1 0x40 MLOAD PUSH1 0x1 PUSH1 0x1 PUSH1 0xA0 SHL SUB SWAP1 SWAP2 AND DUP2 MSTORE PUSH1 0x20 ADD JUMPDEST PUSH1 0x40 MLOAD DUP1 SWAP2 SUB SWAP1 RETURN JUMPDEST PUSH0 SLOAD PUSH2 0x94 SWAP1 PUSH1 0x1 PUSH1 0x1 PUSH1 0xA0 SHL SUB AND DUP2 JUMP JUMPDEST PUSH2 0xD6 PUSH2 0xD1 CALLDATASIZE PUSH1 0x4 PUSH2 0x33B JUMP JUMPDEST PUSH2 0x22B JUMP JUMPDEST PUSH1 0x40 MLOAD SWAP1 ISZERO ISZERO DUP2 MSTORE PUSH1 0x20 ADD PUSH2 0xA8 JUMP JUMPDEST PUSH2 0xFB CALLER PUSH0 CALLDATALOAD PUSH1 0x1 PUSH1 0x1 PUSH1 0xE0 SHL SUB NOT AND PUSH2 0x22B JUMP JUMPDEST PUSH2 0x143 JUMPI PUSH1 0x40 MLOAD PUSH3 0x461BCD PUSH1 0xE5 SHL DUP2 MSTORE PUSH1 0x20 PUSH1 0x4 DUP3 ADD MSTORE PUSH1 0x14 PUSH1 0x24 DUP3 ADD MSTORE PUSH20 0x191CCB585D5D1A0B5D5B985D5D1A1BDC9A5E9959 PUSH1 0x62 SHL PUSH1 0x44 DUP3 ADD MSTORE PUSH1 0x64 ADD JUMPDEST PUSH1 0x40 MLOAD DUP1 SWAP2 SUB SWAP1 REVERT JUMPDEST PUSH1 0x1 DUP1 SLOAD PUSH1 0x1 PUSH1 0x1 PUSH1 0xA0 SHL SUB NOT AND PUSH1 0x1 PUSH1 0x1 PUSH1 0xA0 SHL SUB DUP4 AND SWAP1 DUP2 OR SWAP1 SWAP2 SSTORE PUSH1 0x40 MLOAD PUSH32 0xCE241D7CA1F669FEE44B6FC00B8EBA2DF3BB514EED0F6F668F8F89096E81ED94 SWAP1 PUSH0 SWAP1 LOG2 POP JUMP JUMPDEST PUSH2 0x1A1 CALLER PUSH0 CALLDATALOAD PUSH1 0x1 PUSH1 0x1 PUSH1 0xE0 SHL SUB NOT AND PUSH2 0x22B JUMP JUMPDEST PUSH2 0x1E4 JUMPI PUSH1 0x40 MLOAD PUSH3 0x461BCD PUSH1 0xE5 SHL DUP2 MSTORE PUSH1 0x20 PUSH1 0x4 DUP3 ADD MSTORE PUSH1 0x14 PUSH1 0x24 DUP3 ADD MSTORE PUSH20 0x191CCB585D5D1A0B5D5B985D5D1A1BDC9A5E9959 PUSH1 0x62 SHL PUSH1 0x44 DUP3 ADD MSTORE PUSH1 0x64 ADD PUSH2 0x13A JUMP JUMPDEST PUSH0 DUP1 SLOAD PUSH1 0x1 PUSH1 0x1 PUSH1 0xA0 SHL SUB NOT AND PUSH1 0x1 PUSH1 0x1 PUSH1 0xA0 SHL SUB DUP4 AND SWAP1 DUP2 OR DUP3 SSTORE PUSH1 0x40 MLOAD SWAP1 SWAP2 PUSH32 0x1ABEBEA81BFA2637F28358C371278FB15EDE7EA8DD28D2E03B112FF6D936ADA4 SWAP2 LOG2 POP JUMP JUMPDEST PUSH0 ADDRESS PUSH1 0x1 PUSH1 0x1 PUSH1 0xA0 SHL SUB DUP5 AND SUB PUSH2 0x244 JUMPI POP PUSH1 0x1 PUSH2 0x2FC JUMP JUMPDEST PUSH1 0x1 SLOAD PUSH1 0x1 PUSH1 0x1 PUSH1 0xA0 SHL SUB SWAP1 DUP2 AND SWAP1 DUP5 AND SUB PUSH2 0x262 JUMPI POP PUSH1 0x1 PUSH2 0x2FC JUMP JUMPDEST PUSH0 SLOAD PUSH1 0x1 PUSH1 0x1 PUSH1 0xA0 SHL SUB AND PUSH2 0x278 JUMPI POP PUSH0 PUSH2 0x2FC JUMP JUMPDEST PUSH0 SLOAD PUSH1 0x40 MLOAD PUSH4 0xB7009613 PUSH1 0xE0 SHL DUP2 MSTORE PUSH1 0x1 PUSH1 0x1 PUSH1 0xA0 SHL SUB DUP6 DUP2 AND PUSH1 0x4 DUP4 ADD MSTORE ADDRESS PUSH1 0x24 DUP4 ADD MSTORE PUSH1 0x1 PUSH1 0x1 PUSH1 0xE0 SHL SUB NOT DUP6 AND PUSH1 0x44 DUP4 ADD MSTORE SWAP1 SWAP2 AND SWAP1 PUSH4 0xB7009613 SWAP1 PUSH1 0x64 ADD PUSH1 0x20 PUSH1 0x40 MLOAD DUP1 DUP4 SUB DUP2 DUP7 GAS STATICCALL ISZERO DUP1 ISZERO PUSH2 0x2D5 JUMPI RETURNDATASIZE PUSH0 DUP1 RETURNDATACOPY RETURNDATASIZE PUSH0 REVERT JUMPDEST POP POP POP POP PUSH1 0x40 MLOAD RETURNDATASIZE PUSH1 0x1F NOT PUSH1 0x1F DUP3 ADD AND DUP3 ADD DUP1 PUSH1 0x40 MSTORE POP DUP2 ADD SWAP1 PUSH2 0x2F9 SWAP2 SWAP1 PUSH2 0x37E JUMP JUMPDEST SWAP1 POP JUMPDEST SWAP3 SWAP2 POP POP JUMP JUMPDEST PUSH1 0x1 PUSH1 0x1 PUSH1 0xA0 SHL SUB DUP2 AND DUP2 EQ PUSH2 0x316 JUMPI PUSH0 DUP1 REVERT JUMPDEST POP JUMP JUMPDEST PUSH0 PUSH1 0x20 DUP3 DUP5 SUB SLT ISZERO PUSH2 0x329 JUMPI PUSH0 DUP1 REVERT JUMPDEST DUP2 CALLDATALOAD PUSH2 0x334 DUP2 PUSH2 0x302 JUMP JUMPDEST SWAP4 SWAP3 POP POP POP JUMP JUMPDEST PUSH0 DUP1 PUSH1 0x40 DUP4 DUP6 SUB SLT ISZERO PUSH2 0x34C JUMPI PUSH0 DUP1 REVERT JUMPDEST DUP3 CALLDATALOAD PUSH2 0x357 DUP2 PUSH2 0x302 JUMP JUMPDEST SWAP2 POP PUSH1 0x20 DUP4 ADD CALLDATALOAD PUSH1 0x1 PUSH1 0x1 PUSH1 0xE0 SHL SUB NOT DUP2 AND DUP2 EQ PUSH2 0x373 JUMPI PUSH0 DUP1 REVERT JUMPDEST DUP1 SWAP2 POP POP SWAP3 POP SWAP3 SWAP1 POP JUMP JUMPDEST PUSH0 PUSH1 0x20 DUP3 DUP5 SUB SLT ISZERO PUSH2 0x38E JUMPI PUSH0 DUP1 REVERT JUMPDEST DUP2 MLOAD DUP1 ISZERO ISZERO DUP2 EQ PUSH2 0x334 JUMPI PUSH0 DUP1 REVERT INVALID LOG2 PUSH5 0x6970667358 0x22 SLT KECCAK256 BLOCKHASH NUMBER EQ DUP16 0x1E PUSH14 0x8E039FBA68C92A877DFF73A62420 0xD8 SWAP5 STATICCALL EXTCODEHASH BLOCKHASH PUSH0 SWAP10 0xBC 0xF8 SWAP7 GASLIMIT GAS PUSH5 0x736F6C6343 STOP ADDMOD OR STOP CALLER "
				},
				"gasEstimates": {
					"creation": {
						"codeDepositCost": "195800",
						"executionCost": "25622",
						"totalCost": "221422"
					},
					"external": {
						"authority()": "2368",
						"isAuthorized(address,bytes4)": "infinite",
						"owner()": "2347",
						"setAuthority(address)": "infinite",
						"setOwner(address)": "infinite"
					}
				},
				"methodIdentifiers": {
					"authority()": "bf7e214f",
					"isAuthorized(address,bytes4)": "d9972b96",
					"owner()": "8da5cb5b",
					"setAuthority(address)": "7a9e5e4b",
					"setOwner(address)": "13af4035"
				}
			},
			"storageLayout": {
				"storage": [
					{
						"astId": 217,
						"contract": "Crypto-side-main/ds-auth.sol:DSAuth",
						"label": "authority",
						"offset": 0,
						"slot": "0",
						"type": "t_contract(DSAuthority)203"
					},
					{
						"astId": 219,
						"contract": "Crypto-side-main/ds-auth.sol:DSAuth",
						"label": "owner",
						"offset": 0,
						"slot": "1",
						"type": "t_address"
					}
				],
				"types": {
					"t_address": {
						"encoding": "inplace",
						"label": "address",
						"numberOfBytes": "20"
					},
					"t_contract(DSAuthority)203": {
						"encoding": "inplace",
						"label": "contract DSAuthority",
						"numberOfBytes": "20"
					}
				}
			},
			"userdoc": {
				"kind": "user",
				"methods": {},
				"version": 1
			}
		}
	}
}