{
	"Crypto-side-main/stop.sol": {
		"DSStop": {
			"abi": [
				{
					"anonymous": true,
					"inputs": [
						{
							"indexed": true,
							"internalType": "bytes4",
							"name": "sig",
							"type": "bytes4"
						},
						{
							"indexed": true,
							"internalType": "address",
							"name": "guy",
							"type": "address"
						},
						{
							"indexed": true,
							"internalType": "bytes32",
							"name": "foo",
							"type": "bytes32"
						},
						{
							"indexed": true,
							"internalType": "bytes32",
							"name": "bar",
							"type": "bytes32"
						},
						{
							"indexed": false,
							"internalType": "uint256",
							"name": "wad",
							"type": "uint256"
						},
						{
							"indexed": false,
							"internalType": "bytes",
							"name": "fax",
							"type": "bytes"
						}
					],
					"name": "LogNote",
					"type": "event"
				},
				{
					"anonymous": false,
					"inputs": [
						{
							"indexed": true,
							"internalType": "address",
							"name": "authority",
							"type": "address"
						}
					],
					"name": "LogSetAuthority",
					"type": "event"
				},
				{
					"anonymous": false,
					"inputs": [
						{
							"indexed": true,
							"internalType": "address",
							"name": "owner",
							"type": "address"
						}
					],
					"name": "LogSetOwner",
					"type": "event"
				},
				{
					"inputs": [],
					"name": "authority",
					"outputs": [
						{
							"internalType": "contract DSAuthority",
							"name": "",
							"type": "address"
						}
					],
					"stateMutability": "view",
					"type": "function"
				},
				{
					"inputs": [
						{
							"internalType": "address",
							"name": "src",
							"type": "address"
						},
						{
							"internalType": "bytes4",
							"name": "sig",
							"type": "bytes4"
						}
					],
					"name": "isAuthorized",
					"outputs": [
						{
							"internalType": "bool",
							"name": "",
							"type": "bool"
						}
					],
					"stateMutability": "view",
					"type": "function"
				},
				{
					"inputs": [],
					"name": "owner",
					"outputs": [
						{
							"internalType": "address",
							"name": "",
							"type": "address"
						}
					],
					"stateMutability": "view",
					"type": "function"
				},
				{
					"inputs": [
						{
							"internalType": "contract DSAuthority",
							"name": "authority_",
							"type": "address"
						}
					],
					"name": "setAuthority",
					"outputs": [],
					"stateMutability": "nonpayable",
					"type": "function"
				},
				{
					"inputs": [
						{
							"internalType": "address",
							"name": "owner_",
							"type": "address"
						}
					],
					"name": "setOwner",
					"outputs": [],
					"stateMutability": "nonpayable",
					"type": "function"
				},
				{
					"inputs": [],
					"name": "start",
					"outputs": [],
					"stateMutability": "payable",
					"type": "function"
				},
				{
					"inputs": [],
					"name": "stop",
					"outputs": [],
					"stateMutability": "payable",
					"type": "function"
				},
				{
					"inputs": [],
					"name": "stopped",
					"outputs": [
						{
							"internalType": "bool",
							"name": "",
							"type": "bool"
						}
					],
					"stateMutability": "view",
					"type": "function"
				}
			],
			"devdoc": {
				"kind": "dev",
				"methods": {},
				"version": 1
			},
			"evm": {
				"assembly": "    /* \"Crypto-side-main/stop.sol\":838:1128  contract DSStop is DSNote, DSAuth {... */\n  mstore(0x40, 0x80)\n  callvalue\n  dup1\n  iszero\n  tag_1\n  jumpi\n  0x00\n  dup1\n  revert\ntag_1:\n  pop\n    /* \"Crypto-side-main/ds-auth.sol\":1104:1109  owner */\n  0x01\n    /* \"Crypto-side-main/ds-auth.sol\":1104:1122  owner = msg.sender */\n  dup1\n  sload\n  not(sub(shl(0xa0, 0x01), 0x01))\n  and\n    /* \"Crypto-side-main/ds-auth.sol\":1112:1122  msg.sender */\n  caller\n    /* \"Crypto-side-main/ds-auth.sol\":1104:1122  owner = msg.sender */\n  swap1\n  dup2\n  or\n  swap1\n  swap2\n  sstore\n    /* \"Crypto-side-main/ds-auth.sol\":1137:1160  LogSetOwner(msg.sender) */\n  mload(0x40)\n  0xce241d7ca1f669fee44b6fc00b8eba2df3bb514eed0f6f668f8f89096e81ed94\n  swap1\n    /* \"Crypto-side-main/ds-auth.sol\":1104:1109  owner */\n  0x00\n  swap1\n    /* \"Crypto-side-main/ds-auth.sol\":1137:1160  LogSetOwner(msg.sender) */\n  log2\n    /* \"Crypto-side-main/stop.sol\":838:1128  contract DSStop is DSNote, DSAuth {... */\n  dataSize(sub_0)\n  dup1\n  dataOffset(sub_0)\n  0x00\n  codecopy\n  0x00\n  return\nstop\n\nsub_0: assembly {\n        /* \"Crypto-side-main/stop.sol\":838:1128  contract DSStop is DSNote, DSAuth {... */\n      mstore(0x40, 0x80)\n      jumpi(tag_1, lt(calldatasize, 0x04))\n      shr(0xe0, calldataload(0x00))\n      dup1\n      0x8da5cb5b\n      gt\n      tag_10\n      jumpi\n      dup1\n      0x8da5cb5b\n      eq\n      tag_6\n      jumpi\n      dup1\n      0xbe9a6555\n      eq\n      tag_7\n      jumpi\n      dup1\n      0xbf7e214f\n      eq\n      tag_8\n      jumpi\n      dup1\n      0xd9972b96\n      eq\n      tag_9\n      jumpi\n      0x00\n      dup1\n      revert\n    tag_10:\n      dup1\n      0x07da68f5\n      eq\n      tag_2\n      jumpi\n      dup1\n      0x13af4035\n      eq\n      tag_3\n      jumpi\n      dup1\n      0x75f12b21\n      eq\n      tag_4\n      jumpi\n      dup1\n      0x7a9e5e4b\n      eq\n      tag_5\n      jumpi\n    tag_1:\n      0x00\n      dup1\n      revert\n        /* \"Crypto-side-main/stop.sol\":974:1046  function stop() public auth payable note {... */\n    tag_2:\n      tag_11\n      tag_12\n      jump\t// in\n    tag_11:\n      stop\n        /* \"Crypto-side-main/ds-auth.sol\":1173:1303  function setOwner(address owner_)... */\n    tag_3:\n      callvalue\n      dup1\n      iszero\n      tag_13\n      jumpi\n      0x00\n      dup1\n      revert\n    tag_13:\n      pop\n      tag_11\n      tag_15\n      calldatasize\n      0x04\n      tag_16\n      jump\t// in\n    tag_15:\n      tag_17\n      jump\t// in\n        /* \"Crypto-side-main/stop.sol\":879:898  bool public stopped */\n    tag_4:\n      callvalue\n      dup1\n      iszero\n      tag_18\n      jumpi\n      0x00\n      dup1\n      revert\n    tag_18:\n      pop\n      sload(0x01)\n      tag_19\n      swap1\n      shl(0xa0, 0x01)\n      swap1\n      div\n      0xff\n      and\n      dup2\n      jump\n    tag_19:\n      mload(0x40)\n        /* \"#utility.yul\":567:581   */\n      swap1\n      iszero\n        /* \"#utility.yul\":560:582   */\n      iszero\n        /* \"#utility.yul\":542:583   */\n      dup2\n      mstore\n        /* \"#utility.yul\":530:532   */\n      0x20\n        /* \"#utility.yul\":515:533   */\n      add\n        /* \"Crypto-side-main/stop.sol\":879:898  bool public stopped */\n    tag_21:\n      mload(0x40)\n      dup1\n      swap2\n      sub\n      swap1\n      return\n        /* \"Crypto-side-main/ds-auth.sol\":1309:1476  function setAuthority(DSAuthority authority_)... */\n    tag_5:\n      callvalue\n      dup1\n      iszero\n      tag_23\n      jumpi\n      0x00\n      dup1\n      revert\n    tag_23:\n      pop\n      tag_11\n      tag_25\n      calldatasize\n      0x04\n      tag_16\n      jump\t// in\n    tag_25:\n      tag_27\n      jump\t// in\n        /* \"Crypto-side-main/ds-auth.sol\":1040:1066  address      public  owner */\n    tag_6:\n      callvalue\n      dup1\n      iszero\n      tag_28\n      jumpi\n      0x00\n      dup1\n      revert\n    tag_28:\n      pop\n      sload(0x01)\n      tag_29\n      swap1\n      sub(shl(0xa0, 0x01), 0x01)\n      and\n      dup2\n      jump\n    tag_29:\n      mload(0x40)\n      sub(shl(0xa0, 0x01), 0x01)\n        /* \"#utility.yul\":1029:1061   */\n      swap1\n      swap2\n      and\n        /* \"#utility.yul\":1011:1062   */\n      dup2\n      mstore\n        /* \"#utility.yul\":999:1001   */\n      0x20\n        /* \"#utility.yul\":984:1002   */\n      add\n        /* \"Crypto-side-main/ds-auth.sol\":1040:1066  address      public  owner */\n      tag_21\n        /* \"#utility.yul\":865:1068   */\n      jump\n        /* \"Crypto-side-main/stop.sol\":1051:1125  function start() public auth payable note {... */\n    tag_7:\n      tag_11\n      tag_34\n      jump\t// in\n        /* \"Crypto-side-main/ds-auth.sol\":1004:1034  DSAuthority  public  authority */\n    tag_8:\n      callvalue\n      dup1\n      iszero\n      tag_35\n      jumpi\n      0x00\n      dup1\n      revert\n    tag_35:\n      pop\n      sload(0x00)\n      tag_29\n      swap1\n      sub(shl(0xa0, 0x01), 0x01)\n      and\n      dup2\n      jump\n        /* \"Crypto-side-main/ds-auth.sol\":1596:1973  function isAuthorized(address src, bytes4 sig) public view returns (bool) {... */\n    tag_9:\n      callvalue\n      dup1\n      iszero\n      tag_40\n      jumpi\n      0x00\n      dup1\n      revert\n    tag_40:\n      pop\n      tag_19\n      tag_42\n      calldatasize\n      0x04\n      tag_43\n      jump\t// in\n    tag_42:\n      tag_44\n      jump\t// in\n        /* \"Crypto-side-main/stop.sol\":974:1046  function stop() public auth payable note {... */\n    tag_12:\n        /* \"Crypto-side-main/ds-auth.sol\":1514:1547  isAuthorized(msg.sender, msg.sig) */\n      tag_47\n        /* \"Crypto-side-main/ds-auth.sol\":1527:1537  msg.sender */\n      caller\n        /* \"Crypto-side-main/ds-auth.sol\":1539:1546  msg.sig */\n      and(not(sub(shl(0xe0, 0x01), 0x01)), calldataload(0x00))\n        /* \"Crypto-side-main/ds-auth.sol\":1514:1526  isAuthorized */\n      tag_44\n        /* \"Crypto-side-main/ds-auth.sol\":1514:1547  isAuthorized(msg.sender, msg.sig) */\n      jump\t// in\n    tag_47:\n        /* \"Crypto-side-main/ds-auth.sol\":1506:1572  require(isAuthorized(msg.sender, msg.sig), \"ds-auth-unauthorized\") */\n      tag_48\n      jumpi\n      mload(0x40)\n      shl(0xe5, 0x461bcd)\n      dup2\n      mstore\n      0x04\n      add\n      tag_49\n      swap1\n      tag_50\n      jump\t// in\n    tag_49:\n      mload(0x40)\n      dup1\n      swap2\n      sub\n      swap1\n      revert\n    tag_48:\n        /* \"Crypto-side-main/note.sol\":1152:1211  LogNote(msg.sig, msg.sender, foo, bar, msg.value, msg.data) */\n      mload(0x40)\n        /* \"Crypto-side-main/note.sol\":1089:1090  4 */\n      0x04\n        /* \"Crypto-side-main/note.sol\":1076:1091  calldataload(4) */\n      calldataload\n      swap1\n        /* \"Crypto-side-main/note.sol\":1124:1126  36 */\n      0x24\n        /* \"Crypto-side-main/note.sol\":1111:1127  calldataload(36) */\n      calldataload\n      swap1\n      dup2\n      swap1\n        /* \"Crypto-side-main/note.sol\":1076:1091  calldataload(4) */\n      dup4\n      swap1\n        /* \"Crypto-side-main/note.sol\":1169:1179  msg.sender */\n      caller\n      swap1\n        /* \"Crypto-side-main/note.sol\":1003:1014  bytes32 foo */\n      0x00\n        /* \"Crypto-side-main/note.sol\":1160:1167  msg.sig */\n      dup1\n      calldataload\n      not(sub(shl(0xe0, 0x01), 0x01))\n      and\n      swap2\n        /* \"Crypto-side-main/note.sol\":1152:1211  LogNote(msg.sig, msg.sender, foo, bar, msg.value, msg.data) */\n      tag_52\n      swap2\n        /* \"Crypto-side-main/note.sol\":1191:1200  msg.value */\n      callvalue\n      swap2\n        /* \"Crypto-side-main/note.sol\":1202:1210  msg.data */\n      calldatasize\n      swap1\n        /* \"Crypto-side-main/note.sol\":1152:1211  LogNote(msg.sig, msg.sender, foo, bar, msg.value, msg.data) */\n      tag_53\n      jump\t// in\n    tag_52:\n      mload(0x40)\n      dup1\n      swap2\n      sub\n      swap1\n      log4\n      pop\n      pop\n        /* \"Crypto-side-main/stop.sol\":1035:1039  true */\n      0x01\n        /* \"Crypto-side-main/stop.sol\":1025:1039  stopped = true */\n      dup1\n      sload\n      not(shl(0xa0, 0xff))\n      and\n      shl(0xa0, 0x01)\n      or\n      swap1\n      sstore\n        /* \"Crypto-side-main/stop.sol\":974:1046  function stop() public auth payable note {... */\n      jump\t// out\n        /* \"Crypto-side-main/ds-auth.sol\":1173:1303  function setOwner(address owner_)... */\n    tag_17:\n        /* \"Crypto-side-main/ds-auth.sol\":1514:1547  isAuthorized(msg.sender, msg.sig) */\n      tag_56\n        /* \"Crypto-side-main/ds-auth.sol\":1527:1537  msg.sender */\n      caller\n        /* \"Crypto-side-main/ds-auth.sol\":1539:1546  msg.sig */\n      and(not(sub(shl(0xe0, 0x01), 0x01)), calldataload(0x00))\n        /* \"Crypto-side-main/ds-auth.sol\":1514:1526  isAuthorized */\n      tag_44\n        /* \"Crypto-side-main/ds-auth.sol\":1514:1547  isAuthorized(msg.sender, msg.sig) */\n      jump\t// in\n    tag_56:\n        /* \"Crypto-side-main/ds-auth.sol\":1506:1572  require(isAuthorized(msg.sender, msg.sig), \"ds-auth-unauthorized\") */\n      tag_57\n      jumpi\n      mload(0x40)\n      shl(0xe5, 0x461bcd)\n      dup2\n      mstore\n      0x04\n      add\n      tag_49\n      swap1\n      tag_50\n      jump\t// in\n    tag_57:\n        /* \"Crypto-side-main/ds-auth.sol\":1249:1254  owner */\n      0x01\n        /* \"Crypto-side-main/ds-auth.sol\":1249:1263  owner = owner_ */\n      dup1\n      sload\n      not(sub(shl(0xa0, 0x01), 0x01))\n      and\n      sub(shl(0xa0, 0x01), 0x01)\n      dup4\n      and\n      swap1\n      dup2\n      or\n      swap1\n      swap2\n      sstore\n        /* \"Crypto-side-main/ds-auth.sol\":1278:1296  LogSetOwner(owner) */\n      mload(0x40)\n      0xce241d7ca1f669fee44b6fc00b8eba2df3bb514eed0f6f668f8f89096e81ed94\n      swap1\n      0x00\n      swap1\n      log2\n        /* \"Crypto-side-main/ds-auth.sol\":1173:1303  function setOwner(address owner_)... */\n      pop\n      jump\t// out\n        /* \"Crypto-side-main/ds-auth.sol\":1309:1476  function setAuthority(DSAuthority authority_)... */\n    tag_27:\n        /* \"Crypto-side-main/ds-auth.sol\":1514:1547  isAuthorized(msg.sender, msg.sig) */\n      tag_61\n        /* \"Crypto-side-main/ds-auth.sol\":1527:1537  msg.sender */\n      caller\n        /* \"Crypto-side-main/ds-auth.sol\":1539:1546  msg.sig */\n      and(not(sub(shl(0xe0, 0x01), 0x01)), calldataload(0x00))\n        /* \"Crypto-side-main/ds-auth.sol\":1514:1526  isAuthorized */\n      tag_44\n        /* \"Crypto-side-main/ds-auth.sol\":1514:1547  isAuthorized(msg.sender, msg.sig) */\n      jump\t// in\n    tag_61:\n        /* \"Crypto-side-main/ds-auth.sol\":1506:1572  require(isAuthorized(msg.sender, msg.sig), \"ds-auth-unauthorized\") */\n      tag_62\n      jumpi\n      mload(0x40)\n      shl(0xe5, 0x461bcd)\n      dup2\n      mstore\n      0x04\n      add\n      tag_49\n      swap1\n      tag_50\n      jump\t// in\n    tag_62:\n        /* \"Crypto-side-main/ds-auth.sol\":1397:1406  authority */\n      0x00\n        /* \"Crypto-side-main/ds-auth.sol\":1397:1419  authority = authority_ */\n      dup1\n      sload\n      not(sub(shl(0xa0, 0x01), 0x01))\n      and\n      sub(shl(0xa0, 0x01), 0x01)\n      dup4\n      and\n      swap1\n      dup2\n      or\n      dup3\n      sstore\n        /* \"Crypto-side-main/ds-auth.sol\":1434:1469  LogSetAuthority(address(authority)) */\n      mload(0x40)\n        /* \"Crypto-side-main/ds-auth.sol\":1397:1419  authority = authority_ */\n      swap1\n      swap2\n        /* \"Crypto-side-main/ds-auth.sol\":1434:1469  LogSetAuthority(address(authority)) */\n      0x1abebea81bfa2637f28358c371278fb15ede7ea8dd28d2e03b112ff6d936ada4\n      swap2\n      log2\n        /* \"Crypto-side-main/ds-auth.sol\":1309:1476  function setAuthority(DSAuthority authority_)... */\n      pop\n      jump\t// out\n        /* \"Crypto-side-main/stop.sol\":1051:1125  function start() public auth payable note {... */\n    tag_34:\n        /* \"Crypto-side-main/ds-auth.sol\":1514:1547  isAuthorized(msg.sender, msg.sig) */\n      tag_66\n        /* \"Crypto-side-main/ds-auth.sol\":1527:1537  msg.sender */\n      caller\n        /* \"Crypto-side-main/ds-auth.sol\":1539:1546  msg.sig */\n      and(not(sub(shl(0xe0, 0x01), 0x01)), calldataload(0x00))\n        /* \"Crypto-side-main/ds-auth.sol\":1514:1526  isAuthorized */\n      tag_44\n        /* \"Crypto-side-main/ds-auth.sol\":1514:1547  isAuthorized(msg.sender, msg.sig) */\n      jump\t// in\n    tag_66:\n        /* \"Crypto-side-main/ds-auth.sol\":1506:1572  require(isAuthorized(msg.sender, msg.sig), \"ds-auth-unauthorized\") */\n      tag_67\n      jumpi\n      mload(0x40)\n      shl(0xe5, 0x461bcd)\n      dup2\n      mstore\n      0x04\n      add\n      tag_49\n      swap1\n      tag_50\n      jump\t// in\n    tag_67:\n        /* \"Crypto-side-main/note.sol\":1152:1211  LogNote(msg.sig, msg.sender, foo, bar, msg.value, msg.data) */\n      mload(0x40)\n        /* \"Crypto-side-main/note.sol\":1089:1090  4 */\n      0x04\n        /* \"Crypto-side-main/note.sol\":1076:1091  calldataload(4) */\n      calldataload\n      swap1\n        /* \"Crypto-side-main/note.sol\":1124:1126  36 */\n      0x24\n        /* \"Crypto-side-main/note.sol\":1111:1127  calldataload(36) */\n      calldataload\n      swap1\n      dup2\n      swap1\n        /* \"Crypto-side-main/note.sol\":1076:1091  calldataload(4) */\n      dup4\n      swap1\n        /* \"Crypto-side-main/note.sol\":1169:1179  msg.sender */\n      caller\n      swap1\n        /* \"Crypto-side-main/note.sol\":1003:1014  bytes32 foo */\n      0x00\n        /* \"Crypto-side-main/note.sol\":1160:1167  msg.sig */\n      dup1\n      calldataload\n      not(sub(shl(0xe0, 0x01), 0x01))\n      and\n      swap2\n        /* \"Crypto-side-main/note.sol\":1152:1211  LogNote(msg.sig, msg.sender, foo, bar, msg.value, msg.data) */\n      tag_70\n      swap2\n        /* \"Crypto-side-main/note.sol\":1191:1200  msg.value */\n      callvalue\n      swap2\n        /* \"Crypto-side-main/note.sol\":1202:1210  msg.data */\n      calldatasize\n      swap1\n        /* \"Crypto-side-main/note.sol\":1152:1211  LogNote(msg.sig, msg.sender, foo, bar, msg.value, msg.data) */\n      tag_53\n      jump\t// in\n    tag_70:\n      mload(0x40)\n      dup1\n      swap2\n      sub\n      swap1\n      log4\n      pop\n      pop\n        /* \"Crypto-side-main/stop.sol\":1103:1110  stopped */\n      0x01\n        /* \"Crypto-side-main/stop.sol\":1103:1118  stopped = false */\n      dup1\n      sload\n      not(shl(0xa0, 0xff))\n      and\n      swap1\n      sstore\n        /* \"Crypto-side-main/stop.sol\":1051:1125  function start() public auth payable note {... */\n      jump\t// out\n        /* \"Crypto-side-main/ds-auth.sol\":1596:1973  function isAuthorized(address src, bytes4 sig) public view returns (bool) {... */\n    tag_44:\n        /* \"Crypto-side-main/ds-auth.sol\":1664:1668  bool */\n      0x00\n        /* \"Crypto-side-main/ds-auth.sol\":1699:1703  this */\n      address\n      sub(shl(0xa0, 0x01), 0x01)\n        /* \"Crypto-side-main/ds-auth.sol\":1684:1704  src == address(this) */\n      dup5\n      and\n      sub\n        /* \"Crypto-side-main/ds-auth.sol\":1680:1967  if (src == address(this)) {... */\n      tag_73\n      jumpi\n      pop\n        /* \"Crypto-side-main/ds-auth.sol\":1727:1731  true */\n      0x01\n        /* \"Crypto-side-main/ds-auth.sol\":1720:1731  return true */\n      jump(tag_78)\n        /* \"Crypto-side-main/ds-auth.sol\":1680:1967  if (src == address(this)) {... */\n    tag_73:\n        /* \"Crypto-side-main/ds-auth.sol\":1759:1764  owner */\n      sload(0x01)\n      sub(shl(0xa0, 0x01), 0x01)\n      swap1\n      dup2\n      and\n        /* \"Crypto-side-main/ds-auth.sol\":1752:1764  src == owner */\n      swap1\n      dup5\n      and\n      sub\n        /* \"Crypto-side-main/ds-auth.sol\":1748:1967  if (src == owner) {... */\n      tag_75\n      jumpi\n      pop\n        /* \"Crypto-side-main/ds-auth.sol\":1787:1791  true */\n      0x01\n        /* \"Crypto-side-main/ds-auth.sol\":1780:1791  return true */\n      jump(tag_78)\n        /* \"Crypto-side-main/ds-auth.sol\":1748:1967  if (src == owner) {... */\n    tag_75:\n        /* \"Crypto-side-main/ds-auth.sol\":1845:1846  0 */\n      0x00\n        /* \"Crypto-side-main/ds-auth.sol\":1812:1821  authority */\n      sload\n      sub(shl(0xa0, 0x01), 0x01)\n      and\n        /* \"Crypto-side-main/ds-auth.sol\":1808:1967  if (authority == DSAuthority(address(0))) {... */\n      tag_77\n      jumpi\n      pop\n        /* \"Crypto-side-main/ds-auth.sol\":1871:1876  false */\n      0x00\n        /* \"Crypto-side-main/ds-auth.sol\":1864:1876  return false */\n      jump(tag_78)\n        /* \"Crypto-side-main/ds-auth.sol\":1808:1967  if (authority == DSAuthority(address(0))) {... */\n    tag_77:\n        /* \"Crypto-side-main/ds-auth.sol\":1914:1923  authority */\n      sload(0x00)\n        /* \"Crypto-side-main/ds-auth.sol\":1914:1956  authority.canCall(src, address(this), sig) */\n      mload(0x40)\n      shl(0xe0, 0xb7009613)\n      dup2\n      mstore\n      sub(shl(0xa0, 0x01), 0x01)\n        /* \"#utility.yul\":2803:2818   */\n      dup6\n      dup2\n      and\n        /* \"Crypto-side-main/ds-auth.sol\":1914:1956  authority.canCall(src, address(this), sig) */\n      0x04\n      dup4\n      add\n        /* \"#utility.yul\":2785:2819   */\n      mstore\n        /* \"Crypto-side-main/ds-auth.sol\":1945:1949  this */\n      address\n        /* \"#utility.yul\":2835:2853   */\n      0x24\n      dup4\n      add\n        /* \"#utility.yul\":2828:2871   */\n      mstore\n      not(sub(shl(0xe0, 0x01), 0x01))\n        /* \"#utility.yul\":2907:2940   */\n      dup6\n      and\n        /* \"#utility.yul\":2887:2905   */\n      0x44\n      dup4\n      add\n        /* \"#utility.yul\":2880:2941   */\n      mstore\n        /* \"Crypto-side-main/ds-auth.sol\":1914:1923  authority */\n      swap1\n      swap2\n      and\n      swap1\n        /* \"Crypto-side-main/ds-auth.sol\":1914:1931  authority.canCall */\n      0xb7009613\n      swap1\n        /* \"#utility.yul\":2720:2738   */\n      0x64\n      add\n        /* \"Crypto-side-main/ds-auth.sol\":1914:1956  authority.canCall(src, address(this), sig) */\n      0x20\n      mload(0x40)\n      dup1\n      dup4\n      sub\n      dup2\n      dup7\n      gas\n      staticcall\n      iszero\n      dup1\n      iszero\n      tag_82\n      jumpi\n      returndatasize\n      0x00\n      dup1\n      returndatacopy\n      revert(0x00, returndatasize)\n    tag_82:\n      pop\n      pop\n      pop\n      pop\n      mload(0x40)\n      returndatasize\n      not(0x1f)\n      0x1f\n      dup3\n      add\n      and\n      dup3\n      add\n      dup1\n      0x40\n      mstore\n      pop\n      dup2\n      add\n      swap1\n      tag_83\n      swap2\n      swap1\n      tag_84\n      jump\t// in\n    tag_83:\n        /* \"Crypto-side-main/ds-auth.sol\":1907:1956  return authority.canCall(src, address(this), sig) */\n      swap1\n      pop\n        /* \"Crypto-side-main/ds-auth.sol\":1808:1967  if (authority == DSAuthority(address(0))) {... */\n    tag_78:\n        /* \"Crypto-side-main/ds-auth.sol\":1596:1973  function isAuthorized(address src, bytes4 sig) public view returns (bool) {... */\n      swap3\n      swap2\n      pop\n      pop\n      jump\t// out\n        /* \"#utility.yul\":14:145   */\n    tag_85:\n      sub(shl(0xa0, 0x01), 0x01)\n        /* \"#utility.yul\":89:120   */\n      dup2\n      and\n        /* \"#utility.yul\":79:121   */\n      dup2\n      eq\n        /* \"#utility.yul\":69:139   */\n      tag_88\n      jumpi\n        /* \"#utility.yul\":135:136   */\n      0x00\n        /* \"#utility.yul\":132:133   */\n      dup1\n        /* \"#utility.yul\":125:137   */\n      revert\n        /* \"#utility.yul\":69:139   */\n    tag_88:\n        /* \"#utility.yul\":14:145   */\n      pop\n      jump\t// out\n        /* \"#utility.yul\":150:397   */\n    tag_16:\n        /* \"#utility.yul\":209:215   */\n      0x00\n        /* \"#utility.yul\":262:264   */\n      0x20\n        /* \"#utility.yul\":250:259   */\n      dup3\n        /* \"#utility.yul\":241:248   */\n      dup5\n        /* \"#utility.yul\":237:260   */\n      sub\n        /* \"#utility.yul\":233:265   */\n      slt\n        /* \"#utility.yul\":230:282   */\n      iszero\n      tag_90\n      jumpi\n        /* \"#utility.yul\":278:279   */\n      0x00\n        /* \"#utility.yul\":275:276   */\n      dup1\n        /* \"#utility.yul\":268:280   */\n      revert\n        /* \"#utility.yul\":230:282   */\n    tag_90:\n        /* \"#utility.yul\":317:326   */\n      dup2\n        /* \"#utility.yul\":304:327   */\n      calldataload\n        /* \"#utility.yul\":336:367   */\n      tag_91\n        /* \"#utility.yul\":361:366   */\n      dup2\n        /* \"#utility.yul\":336:367   */\n      tag_85\n      jump\t// in\n    tag_91:\n        /* \"#utility.yul\":386:391   */\n      swap4\n        /* \"#utility.yul\":150:397   */\n      swap3\n      pop\n      pop\n      pop\n      jump\t// out\n        /* \"#utility.yul\":1300:1729   */\n    tag_43:\n        /* \"#utility.yul\":1367:1373   */\n      0x00\n        /* \"#utility.yul\":1375:1381   */\n      dup1\n        /* \"#utility.yul\":1428:1430   */\n      0x40\n        /* \"#utility.yul\":1416:1425   */\n      dup4\n        /* \"#utility.yul\":1407:1414   */\n      dup6\n        /* \"#utility.yul\":1403:1426   */\n      sub\n        /* \"#utility.yul\":1399:1431   */\n      slt\n        /* \"#utility.yul\":1396:1448   */\n      iszero\n      tag_99\n      jumpi\n        /* \"#utility.yul\":1444:1445   */\n      0x00\n        /* \"#utility.yul\":1441:1442   */\n      dup1\n        /* \"#utility.yul\":1434:1446   */\n      revert\n        /* \"#utility.yul\":1396:1448   */\n    tag_99:\n        /* \"#utility.yul\":1483:1492   */\n      dup3\n        /* \"#utility.yul\":1470:1493   */\n      calldataload\n        /* \"#utility.yul\":1502:1533   */\n      tag_100\n        /* \"#utility.yul\":1527:1532   */\n      dup2\n        /* \"#utility.yul\":1502:1533   */\n      tag_85\n      jump\t// in\n    tag_100:\n        /* \"#utility.yul\":1552:1557   */\n      swap2\n      pop\n        /* \"#utility.yul\":1609:1611   */\n      0x20\n        /* \"#utility.yul\":1594:1612   */\n      dup4\n      add\n        /* \"#utility.yul\":1581:1613   */\n      calldataload\n      not(sub(shl(0xe0, 0x01), 0x01))\n        /* \"#utility.yul\":1644:1678   */\n      dup2\n      and\n        /* \"#utility.yul\":1632:1679   */\n      dup2\n      eq\n        /* \"#utility.yul\":1622:1697   */\n      tag_101\n      jumpi\n        /* \"#utility.yul\":1693:1694   */\n      0x00\n        /* \"#utility.yul\":1690:1691   */\n      dup1\n        /* \"#utility.yul\":1683:1695   */\n      revert\n        /* \"#utility.yul\":1622:1697   */\n    tag_101:\n        /* \"#utility.yul\":1716:1723   */\n      dup1\n        /* \"#utility.yul\":1706:1723   */\n      swap2\n      pop\n      pop\n        /* \"#utility.yul\":1300:1729   */\n      swap3\n      pop\n      swap3\n      swap1\n      pop\n      jump\t// out\n        /* \"#utility.yul\":1734:2078   */\n    tag_50:\n        /* \"#utility.yul\":1936:1938   */\n      0x20\n        /* \"#utility.yul\":1918:1939   */\n      dup1\n      dup3\n      mstore\n        /* \"#utility.yul\":1975:1977   */\n      0x14\n        /* \"#utility.yul\":1955:1973   */\n      swap1\n      dup3\n      add\n        /* \"#utility.yul\":1948:1978   */\n      mstore\n      shl(0x62, 0x191ccb585d5d1a0b5d5b985d5d1a1bdc9a5e9959)\n        /* \"#utility.yul\":2009:2011   */\n      0x40\n        /* \"#utility.yul\":1994:2012   */\n      dup3\n      add\n        /* \"#utility.yul\":1987:2037   */\n      mstore\n        /* \"#utility.yul\":2069:2071   */\n      0x60\n        /* \"#utility.yul\":2054:2072   */\n      add\n      swap1\n        /* \"#utility.yul\":1734:2078   */\n      jump\t// out\n        /* \"#utility.yul\":2083:2542   */\n    tag_53:\n        /* \"#utility.yul\":2268:2274   */\n      dup4\n        /* \"#utility.yul\":2257:2266   */\n      dup2\n        /* \"#utility.yul\":2250:2275   */\n      mstore\n        /* \"#utility.yul\":2311:2313   */\n      0x40\n        /* \"#utility.yul\":2306:2308   */\n      0x20\n        /* \"#utility.yul\":2295:2304   */\n      dup3\n        /* \"#utility.yul\":2291:2309   */\n      add\n        /* \"#utility.yul\":2284:2314   */\n      mstore\n        /* \"#utility.yul\":2350:2356   */\n      dup2\n        /* \"#utility.yul\":2345:2347   */\n      0x40\n        /* \"#utility.yul\":2334:2343   */\n      dup3\n        /* \"#utility.yul\":2330:2348   */\n      add\n        /* \"#utility.yul\":2323:2357   */\n      mstore\n        /* \"#utility.yul\":2407:2413   */\n      dup2\n        /* \"#utility.yul\":2399:2405   */\n      dup4\n        /* \"#utility.yul\":2394:2396   */\n      0x60\n        /* \"#utility.yul\":2383:2392   */\n      dup4\n        /* \"#utility.yul\":2379:2397   */\n      add\n        /* \"#utility.yul\":2366:2414   */\n      calldatacopy\n        /* \"#utility.yul\":2463:2464   */\n      0x00\n        /* \"#utility.yul\":2434:2456   */\n      dup2\n      dup4\n      add\n        /* \"#utility.yul\":2458:2460   */\n      0x60\n        /* \"#utility.yul\":2430:2461   */\n      swap1\n      dup2\n      add\n        /* \"#utility.yul\":2423:2465   */\n      swap2\n      swap1\n      swap2\n      mstore\n        /* \"#utility.yul\":2526:2528   */\n      0x1f\n        /* \"#utility.yul\":2505:2520   */\n      swap1\n      swap3\n      add\n      not(0x1f)\n        /* \"#utility.yul\":2501:2530   */\n      and\n        /* \"#utility.yul\":2486:2531   */\n      add\n        /* \"#utility.yul\":2482:2536   */\n      add\n      swap3\n        /* \"#utility.yul\":2083:2542   */\n      swap2\n      pop\n      pop\n      jump\t// out\n        /* \"#utility.yul\":2952:3229   */\n    tag_84:\n        /* \"#utility.yul\":3019:3025   */\n      0x00\n        /* \"#utility.yul\":3072:3074   */\n      0x20\n        /* \"#utility.yul\":3060:3069   */\n      dup3\n        /* \"#utility.yul\":3051:3058   */\n      dup5\n        /* \"#utility.yul\":3047:3070   */\n      sub\n        /* \"#utility.yul\":3043:3075   */\n      slt\n        /* \"#utility.yul\":3040:3092   */\n      iszero\n      tag_106\n      jumpi\n        /* \"#utility.yul\":3088:3089   */\n      0x00\n        /* \"#utility.yul\":3085:3086   */\n      dup1\n        /* \"#utility.yul\":3078:3090   */\n      revert\n        /* \"#utility.yul\":3040:3092   */\n    tag_106:\n        /* \"#utility.yul\":3120:3129   */\n      dup2\n        /* \"#utility.yul\":3114:3130   */\n      mload\n        /* \"#utility.yul\":3173:3178   */\n      dup1\n        /* \"#utility.yul\":3166:3179   */\n      iszero\n        /* \"#utility.yul\":3159:3180   */\n      iszero\n        /* \"#utility.yul\":3152:3157   */\n      dup2\n        /* \"#utility.yul\":3149:3181   */\n      eq\n        /* \"#utility.yul\":3139:3199   */\n      tag_91\n      jumpi\n        /* \"#utility.yul\":3195:3196   */\n      0x00\n        /* \"#utility.yul\":3192:3193   */\n      dup1\n        /* \"#utility.yul\":3185:3197   */\n      revert\n\n    auxdata: 0xa2646970667358221220ddb94bada76891fcf4af6264c24a9008ae6321e3afa9f77ab3d31328451f2c6a64736f6c63430008170033\n}\n",
				"bytecode": {
					"linkReferences": {},
					"object": "608060405234801561000f575f80fd5b50600180546001600160a01b031916339081179091556040517fce241d7ca1f669fee44b6fc00b8eba2df3bb514eed0f6f668f8f89096e81ed94905f90a261056e8061005a5f395ff3fe608060405260043610610079575f3560e01c80638da5cb5b1161004c5780638da5cb5b146100fa578063be9a655514610131578063bf7e214f14610139578063d9972b9614610157575f80fd5b806307da68f51461007d57806313af40351461008757806375f12b21146100a65780637a9e5e4b146100db575b5f80fd5b610085610176565b005b348015610092575f80fd5b506100856100a1366004610451565b6101fb565b3480156100b1575f80fd5b506001546100c690600160a01b900460ff1681565b60405190151581526020015b60405180910390f35b3480156100e6575f80fd5b506100856100f5366004610451565b610275565b348015610105575f80fd5b50600154610119906001600160a01b031681565b6040516001600160a01b0390911681526020016100d2565b6100856102ed565b348015610144575f80fd5b505f54610119906001600160a01b031681565b348015610162575f80fd5b506100c6610171366004610473565b610363565b61018b335f356001600160e01b031916610363565b6101b05760405162461bcd60e51b81526004016101a7906104b6565b60405180910390fd5b60405160043590602435908190839033905f80356001600160e01b031916916101dc91349136906104e4565b60405180910390a450506001805460ff60a01b1916600160a01b179055565b610210335f356001600160e01b031916610363565b61022c5760405162461bcd60e51b81526004016101a7906104b6565b600180546001600160a01b0319166001600160a01b0383169081179091556040517fce241d7ca1f669fee44b6fc00b8eba2df3bb514eed0f6f668f8f89096e81ed94905f90a250565b61028a335f356001600160e01b031916610363565b6102a65760405162461bcd60e51b81526004016101a7906104b6565b5f80546001600160a01b0319166001600160a01b038316908117825560405190917f1abebea81bfa2637f28358c371278fb15ede7ea8dd28d2e03b112ff6d936ada491a250565b610302335f356001600160e01b031916610363565b61031e5760405162461bcd60e51b81526004016101a7906104b6565b60405160043590602435908190839033905f80356001600160e01b0319169161034a91349136906104e4565b60405180910390a450506001805460ff60a01b19169055565b5f306001600160a01b0384160361037c57506001610434565b6001546001600160a01b039081169084160361039a57506001610434565b5f546001600160a01b03166103b057505f610434565b5f5460405163b700961360e01b81526001600160a01b0385811660048301523060248301526001600160e01b0319851660448301529091169063b700961390606401602060405180830381865afa15801561040d573d5f803e3d5ffd5b505050506040513d601f19601f820116820180604052508101906104319190610519565b90505b92915050565b6001600160a01b038116811461044e575f80fd5b50565b5f60208284031215610461575f80fd5b813561046c8161043a565b9392505050565b5f8060408385031215610484575f80fd5b823561048f8161043a565b915060208301356001600160e01b0319811681146104ab575f80fd5b809150509250929050565b602080825260149082015273191ccb585d5d1a0b5d5b985d5d1a1bdc9a5e995960621b604082015260600190565b83815260406020820152816040820152818360608301375f818301606090810191909152601f909201601f1916010192915050565b5f60208284031215610529575f80fd5b8151801515811461046c575f80fdfea2646970667358221220ddb94bada76891fcf4af6264c24a9008ae6321e3afa9f77ab3d31328451f2c6a64736f6c63430008170033",
					"opcodes": "PUSH1 0x80 PUSH1 0x40 MSTORE CALLVALUE DUP1 ISZERO PUSH2 0xF JUMPI PUSH0 DUP1 REVERT JUMPDEST POP PUSH1 0x1 DUP1 SLOAD PUSH1 0x1 PUSH1 0x1 PUSH1 0xA0 SHL SUB NOT AND CALLER SWAP1 DUP2 OR SWAP1 SWAP2 SSTORE PUSH1 0x40 MLOAD PUSH32 0xCE241D7CA1F669FEE44B6FC00B8EBA2DF3BB514EED0F6F668F8F89096E81ED94 SWAP1 PUSH0 SWAP1 LOG2 PUSH2 0x56E DUP1 PUSH2 0x5A PUSH0 CODECOPY PUSH0 RETURN INVALID PUSH1 0x80 PUSH1 0x40 MSTORE PUSH1 0x4 CALLDATASIZE LT PUSH2 0x79 JUMPI PUSH0 CALLDATALOAD PUSH1 0xE0 SHR DUP1 PUSH4 0x8DA5CB5B GT PUSH2 0x4C JUMPI DUP1 PUSH4 0x8DA5CB5B EQ PUSH2 0xFA JUMPI DUP1 PUSH4 0xBE9A6555 EQ PUSH2 0x131 JUMPI DUP1 PUSH4 0xBF7E214F EQ PUSH2 0x139 JUMPI DUP1 PUSH4 0xD9972B96 EQ PUSH2 0x157 JUMPI PUSH0 DUP1 REVERT JUMPDEST DUP1 PUSH4 0x7DA68F5 EQ PUSH2 0x7D JUMPI DUP1 PUSH4 0x13AF4035 EQ PUSH2 0x87 JUMPI DUP1 PUSH4 0x75F12B21 EQ PUSH2 0xA6 JUMPI DUP1 PUSH4 0x7A9E5E4B EQ PUSH2 0xDB JUMPI JUMPDEST PUSH0 DUP1 REVERT JUMPDEST PUSH2 0x85 PUSH2 0x176 JUMP JUMPDEST STOP JUMPDEST CALLVALUE DUP1 ISZERO PUSH2 0x92 JUMPI PUSH0 DUP1 REVERT JUMPDEST POP PUSH2 0x85 PUSH2 0xA1 CALLDATASIZE PUSH1 0x4 PUSH2 0x451 JUMP JUMPDEST PUSH2 0x1FB JUMP JUMPDEST CALLVALUE DUP1 ISZERO PUSH2 0xB1 JUMPI PUSH0 DUP1 REVERT JUMPDEST POP PUSH1 0x1 SLOAD PUSH2 0xC6 SWAP1 PUSH1 0x1 PUSH1 0xA0 SHL SWAP1 DIV PUSH1 0xFF AND DUP2 JUMP JUMPDEST PUSH1 0x40 MLOAD SWAP1 ISZERO ISZERO DUP2 MSTORE PUSH1 0x20 ADD JUMPDEST PUSH1 0x40 MLOAD DUP1 SWAP2 SUB SWAP1 RETURN JUMPDEST CALLVALUE DUP1 ISZERO PUSH2 0xE6 JUMPI PUSH0 DUP1 REVERT JUMPDEST POP PUSH2 0x85 PUSH2 0xF5 CALLDATASIZE PUSH1 0x4 PUSH2 0x451 JUMP JUMPDEST PUSH2 0x275 JUMP JUMPDEST CALLVALUE DUP1 ISZERO PUSH2 0x105 JUMPI PUSH0 DUP1 REVERT JUMPDEST POP PUSH1 0x1 SLOAD PUSH2 0x119 SWAP1 PUSH1 0x1 PUSH1 0x1 PUSH1 0xA0 SHL SUB AND DUP2 JUMP JUMPDEST PUSH1 0x40 MLOAD PUSH1 0x1 PUSH1 0x1 PUSH1 0xA0 SHL SUB SWAP1 SWAP2 AND DUP2 MSTORE PUSH1 0x20 ADD PUSH2 0xD2 JUMP JUMPDEST PUSH2 0x85 PUSH2 0x2ED JUMP JUMPDEST CALLVALUE DUP1 ISZERO PUSH2 0x144 JUMPI PUSH0 DUP1 REVERT JUMPDEST POP PUSH0 SLOAD PUSH2 0x119 SWAP1 PUSH1 0x1 PUSH1 0x1 PUSH1 0xA0 SHL SUB AND DUP2 JUMP JUMPDEST CALLVALUE DUP1 ISZERO PUSH2 0x162 JUMPI PUSH0 DUP1 REVERT JUMPDEST POP PUSH2 0xC6 PUSH2 0x171 CALLDATASIZE PUSH1 0x4 PUSH2 0x473 JUMP JUMPDEST PUSH2 0x363 JUMP JUMPDEST PUSH2 0x18B CALLER PUSH0 CALLDATALOAD PUSH1 0x1 PUSH1 0x1 PUSH1 0xE0 SHL SUB NOT AND PUSH2 0x363 JUMP JUMPDEST PUSH2 0x1B0 JUMPI PUSH1 0x40 MLOAD PUSH3 0x461BCD PUSH1 0xE5 SHL DUP2 MSTORE PUSH1 0x4 ADD PUSH2 0x1A7 SWAP1 PUSH2 0x4B6 JUMP JUMPDEST PUSH1 0x40 MLOAD DUP1 SWAP2 SUB SWAP1 REVERT JUMPDEST PUSH1 0x40 MLOAD PUSH1 0x4 CALLDATALOAD SWAP1 PUSH1 0x24 CALLDATALOAD SWAP1 DUP2 SWAP1 DUP4 SWAP1 CALLER SWAP1 PUSH0 DUP1 CALLDATALOAD PUSH1 0x1 PUSH1 0x1 PUSH1 0xE0 SHL SUB NOT AND SWAP2 PUSH2 0x1DC SWAP2 CALLVALUE SWAP2 CALLDATASIZE SWAP1 PUSH2 0x4E4 JUMP JUMPDEST PUSH1 0x40 MLOAD DUP1 SWAP2 SUB SWAP1 LOG4 POP POP PUSH1 0x1 DUP1 SLOAD PUSH1 0xFF PUSH1 0xA0 SHL NOT AND PUSH1 0x1 PUSH1 0xA0 SHL OR SWAP1 SSTORE JUMP JUMPDEST PUSH2 0x210 CALLER PUSH0 CALLDATALOAD PUSH1 0x1 PUSH1 0x1 PUSH1 0xE0 SHL SUB NOT AND PUSH2 0x363 JUMP JUMPDEST PUSH2 0x22C JUMPI PUSH1 0x40 MLOAD PUSH3 0x461BCD PUSH1 0xE5 SHL DUP2 MSTORE PUSH1 0x4 ADD PUSH2 0x1A7 SWAP1 PUSH2 0x4B6 JUMP JUMPDEST PUSH1 0x1 DUP1 SLOAD PUSH1 0x1 PUSH1 0x1 PUSH1 0xA0 SHL SUB NOT AND PUSH1 0x1 PUSH1 0x1 PUSH1 0xA0 SHL SUB DUP4 AND SWAP1 DUP2 OR SWAP1 SWAP2 SSTORE PUSH1 0x40 MLOAD PUSH32 0xCE241D7CA1F669FEE44B6FC00B8EBA2DF3BB514EED0F6F668F8F89096E81ED94 SWAP1 PUSH0 SWAP1 LOG2 POP JUMP JUMPDEST PUSH2 0x28A CALLER PUSH0 CALLDATALOAD PUSH1 0x1 PUSH1 0x1 PUSH1 0xE0 SHL SUB NOT AND PUSH2 0x363 JUMP JUMPDEST PUSH2 0x2A6 JUMPI PUSH1 0x40 MLOAD PUSH3 0x461BCD PUSH1 0xE5 SHL DUP2 MSTORE PUSH1 0x4 ADD PUSH2 0x1A7 SWAP1 PUSH2 0x4B6 JUMP JUMPDEST PUSH0 DUP1 SLOAD PUSH1 0x1 PUSH1 0x1 PUSH1 0xA0 SHL SUB NOT AND PUSH1 0x1 PUSH1 0x1 PUSH1 0xA0 SHL SUB DUP4 AND SWAP1 DUP2 OR DUP3 SSTORE PUSH1 0x40 MLOAD SWAP1 SWAP2 PUSH32 0x1ABEBEA81BFA2637F28358C371278FB15EDE7EA8DD28D2E03B112FF6D936ADA4 SWAP2 LOG2 POP JUMP JUMPDEST PUSH2 0x302 CALLER PUSH0 CALLDATALOAD PUSH1 0x1 PUSH1 0x1 PUSH1 0xE0 SHL SUB NOT AND PUSH2 0x363 JUMP JUMPDEST PUSH2 0x31E JUMPI PUSH1 0x40 MLOAD PUSH3 0x461BCD PUSH1 0xE5 SHL DUP2 MSTORE PUSH1 0x4 ADD PUSH2 0x1A7 SWAP1 PUSH2 0x4B6 JUMP JUMPDEST PUSH1 0x40 MLOAD PUSH1 0x4 CALLDATALOAD SWAP1 PUSH1 0x24 CALLDATALOAD SWAP1 DUP2 SWAP1 DUP4 SWAP1 CALLER SWAP1 PUSH0 DUP1 CALLDATALOAD PUSH1 0x1 PUSH1 0x1 PUSH1 0xE0 SHL SUB NOT AND SWAP2 PUSH2 0x34A SWAP2 CALLVALUE SWAP2 CALLDATASIZE SWAP1 PUSH2 0x4E4 JUMP JUMPDEST PUSH1 0x40 MLOAD DUP1 SWAP2 SUB SWAP1 LOG4 POP POP PUSH1 0x1 DUP1 SLOAD PUSH1 0xFF PUSH1 0xA0 SHL NOT AND SWAP1 SSTORE JUMP JUMPDEST PUSH0 ADDRESS PUSH1 0x1 PUSH1 0x1 PUSH1 0xA0 SHL SUB DUP5 AND SUB PUSH2 0x37C JUMPI POP PUSH1 0x1 PUSH2 0x434 JUMP JUMPDEST PUSH1 0x1 SLOAD PUSH1 0x1 PUSH1 0x1 PUSH1 0xA0 SHL SUB SWAP1 DUP2 AND SWAP1 DUP5 AND SUB PUSH2 0x39A JUMPI POP PUSH1 0x1 PUSH2 0x434 JUMP JUMPDEST PUSH0 SLOAD PUSH1 0x1 PUSH1 0x1 PUSH1 0xA0 SHL SUB AND PUSH2 0x3B0 JUMPI POP PUSH0 PUSH2 0x434 JUMP JUMPDEST PUSH0 SLOAD PUSH1 0x40 MLOAD PUSH4 0xB7009613 PUSH1 0xE0 SHL DUP2 MSTORE PUSH1 0x1 PUSH1 0x1 PUSH1 0xA0 SHL SUB DUP6 DUP2 AND PUSH1 0x4 DUP4 ADD MSTORE ADDRESS PUSH1 0x24 DUP4 ADD MSTORE PUSH1 0x1 PUSH1 0x1 PUSH1 0xE0 SHL SUB NOT DUP6 AND PUSH1 0x44 DUP4 ADD MSTORE SWAP1 SWAP2 AND SWAP1 PUSH4 0xB7009613 SWAP1 PUSH1 0x64 ADD PUSH1 0x20 PUSH1 0x40 MLOAD DUP1 DUP4 SUB DUP2 DUP7 GAS STATICCALL ISZERO DUP1 ISZERO PUSH2 0x40D JUMPI RETURNDATASIZE PUSH0 DUP1 RETURNDATACOPY RETURNDATASIZE PUSH0 REVERT JUMPDEST POP POP POP POP PUSH1 0x40 MLOAD RETURNDATASIZE PUSH1 0x1F NOT PUSH1 0x1F DUP3 ADD AND DUP3 ADD DUP1 PUSH1 0x40 MSTORE POP DUP2 ADD SWAP1 PUSH2 0x431 SWAP2 SWAP1 PUSH2 0x519 JUMP JUMPDEST SWAP1 POP JUMPDEST SWAP3 SWAP2 POP POP JUMP JUMPDEST PUSH1 0x1 PUSH1 0x1 PUSH1 0xA0 SHL SUB DUP2 AND DUP2 EQ PUSH2 0x44E JUMPI PUSH0 DUP1 REVERT JUMPDEST POP JUMP JUMPDEST PUSH0 PUSH1 0x20 DUP3 DUP5 SUB SLT ISZERO PUSH2 0x461 JUMPI PUSH0 DUP1 REVERT JUMPDEST DUP2 CALLDATALOAD PUSH2 0x46C DUP2 PUSH2 0x43A JUMP JUMPDEST SWAP4 SWAP3 POP POP POP JUMP JUMPDEST PUSH0 DUP1 PUSH1 0x40 DUP4 DUP6 SUB SLT ISZERO PUSH2 0x484 JUMPI PUSH0 DUP1 REVERT JUMPDEST DUP3 CALLDATALOAD PUSH2 0x48F DUP2 PUSH2 0x43A JUMP JUMPDEST SWAP2 POP PUSH1 0x20 DUP4 ADD CALLDATALOAD PUSH1 0x1 PUSH1 0x1 PUSH1 0xE0 SHL SUB NOT DUP2 AND DUP2 EQ PUSH2 0x4AB JUMPI PUSH0 DUP1 REVERT JUMPDEST DUP1 SWAP2 POP POP SWAP3 POP SWAP3 SWAP1 POP JUMP JUMPDEST PUSH1 0x20 DUP1 DUP3 MSTORE PUSH1 0x14 SWAP1 DUP3 ADD MSTORE PUSH20 0x191CCB585D5D1A0B5D5B985D5D1A1BDC9A5E9959 PUSH1 0x62 SHL PUSH1 0x40 DUP3 ADD MSTORE PUSH1 0x60 ADD SWAP1 JUMP JUMPDEST DUP4 DUP2 MSTORE PUSH1 0x40 PUSH1 0x20 DUP3 ADD MSTORE DUP2 PUSH1 0x40 DUP3 ADD MSTORE DUP2 DUP4 PUSH1 0x60 DUP4 ADD CALLDATACOPY PUSH0 DUP2 DUP4 ADD PUSH1 0x60 SWAP1 DUP2 ADD SWAP2 SWAP1 SWAP2 MSTORE PUSH1 0x1F SWAP1 SWAP3 ADD PUSH1 0x1F NOT AND ADD ADD SWAP3 SWAP2 POP POP JUMP JUMPDEST PUSH0 PUSH1 0x20 DUP3 DUP5 SUB SLT ISZERO PUSH2 0x529 JUMPI PUSH0 DUP1 REVERT JUMPDEST DUP2 MLOAD DUP1 ISZERO ISZERO DUP2 EQ PUSH2 0x46C JUMPI PUSH0 DUP1 REVERT INVALID LOG2 PUSH5 0x6970667358 0x22 SLT KECCAK256 0xDD 0xB9 0x4B 0xAD 0xA7 PUSH9 0x91FCF4AF6264C24A90 ADDMOD 0xAE PUSH4 0x21E3AFA9 0xF7 PUSH27 0xB3D31328451F2C6A64736F6C634300081700330000000000000000 "
				},
				"gasEstimates": {
					"creation": {
						"codeDepositCost": "278000",
						"executionCost": "25702",
						"totalCost": "303702"
					},
					"external": {
						"authority()": "2379",
						"isAuthorized(address,bytes4)": "infinite",
						"owner()": "2336",
						"setAuthority(address)": "infinite",
						"setOwner(address)": "infinite",
						"start()": "infinite",
						"stop()": "infinite",
						"stopped()": "2360"
					}
				},
				"methodIdentifiers": {
					"authority()": "bf7e214f",
					"isAuthorized(address,bytes4)": "d9972b96",
					"owner()": "8da5cb5b",
					"setAuthority(address)": "7a9e5e4b",
					"setOwner(address)": "13af4035",
					"start()": "be9a6555",
					"stop()": "07da68f5",
					"stopped()": "75f12b21"
				}
			},
			"storageLayout": {
				"storage": [
					{
						"astId": 217,
						"contract": "Crypto-side-main/stop.sol:DSStop",
						"label": "authority",
						"offset": 0,
						"slot": "0",
						"type": "t_contract(DSAuthority)203"
					},
					{
						"astId": 219,
						"contract": "Crypto-side-main/stop.sol:DSStop",
						"label": "owner",
						"offset": 0,
						"slot": "1",
						"type": "t_address"
					},
					{
						"astId": 1100,
						"contract": "Crypto-side-main/stop.sol:DSStop",
						"label": "stopped",
						"offset": 20,
						"slot": "1",
						"type": "t_bool"
					}
				],
				"types": {
					"t_address": {
						"encoding": "inplace",
						"label": "address",
						"numberOfBytes": "20"
					},
					"t_bool": {
						"encoding": "inplace",
						"label": "bool",
						"numberOfBytes": "1"
					},
					"t_contract(DSAuthority)203": {
						"encoding": "inplace",
						"label": "contract DSAuthority",
						"numberOfBytes": "20"
					}
				}
			},
			"userdoc": {
				"kind": "user",
				"methods": {},
				"version": 1
			}
		}
	}
}