{
	"Crypto-side-main/stake.sol": {
		"BCKSavingsAccount": {
			"abi": [
				{
					"inputs": [
						{
							"internalType": "address",
							"name": "_bck",
							"type": "address"
						},
						{
							"internalType": "address",
							"name": "_esBCKGOV",
							"type": "address"
						}
					],
					"stateMutability": "nonpayable",
					"type": "constructor"
				},
				{
					"anonymous": false,
					"inputs": [
						{
							"indexed": true,
							"internalType": "address",
							"name": "from",
							"type": "address"
						},
						{
							"indexed": false,
							"internalType": "uint256",
							"name": "value",
							"type": "uint256"
						}
					],
					"name": "BCKGOVDistributed",
					"type": "event"
				},
				{
					"anonymous": false,
					"inputs": [
						{
							"indexed": true,
							"internalType": "address",
							"name": "authority",
							"type": "address"
						}
					],
					"name": "LogSetAuthority",
					"type": "event"
				},
				{
					"anonymous": false,
					"inputs": [
						{
							"indexed": true,
							"internalType": "address",
							"name": "owner",
							"type": "address"
						}
					],
					"name": "LogSetOwner",
					"type": "event"
				},
				{
					"inputs": [
						{
							"internalType": "address",
							"name": "_owner",
							"type": "address"
						}
					],
					"name": "accumulativeInterestOf",
					"outputs": [
						{
							"internalType": "uint256",
							"name": "",
							"type": "uint256"
						}
					],
					"stateMutability": "view",
					"type": "function"
				},
				{
					"inputs": [
						{
							"internalType": "address",
							"name": "_tokenAddress",
							"type": "address"
						}
					],
					"name": "addExcessToken",
					"outputs": [],
					"stateMutability": "nonpayable",
					"type": "function"
				},
				{
					"inputs": [],
					"name": "authority",
					"outputs": [
						{
							"internalType": "contract DSAuthority",
							"name": "",
							"type": "address"
						}
					],
					"stateMutability": "view",
					"type": "function"
				},
				{
					"inputs": [
						{
							"internalType": "address",
							"name": "",
							"type": "address"
						}
					],
					"name": "balances",
					"outputs": [
						{
							"internalType": "uint256",
							"name": "",
							"type": "uint256"
						}
					],
					"stateMutability": "view",
					"type": "function"
				},
				{
					"inputs": [],
					"name": "bck",
					"outputs": [
						{
							"internalType": "contract ERC20",
							"name": "",
							"type": "address"
						}
					],
					"stateMutability": "view",
					"type": "function"
				},
				{
					"inputs": [],
					"name": "currentdistrbutedBCKGOV",
					"outputs": [
						{
							"internalType": "uint256",
							"name": "",
							"type": "uint256"
						}
					],
					"stateMutability": "view",
					"type": "function"
				},
				{
					"inputs": [
						{
							"internalType": "uint256",
							"name": "_amount",
							"type": "uint256"
						}
					],
					"name": "depositBCK",
					"outputs": [],
					"stateMutability": "nonpayable",
					"type": "function"
				},
				{
					"inputs": [
						{
							"internalType": "uint256",
							"name": "_amount",
							"type": "uint256"
						}
					],
					"name": "distributeBCKGOV",
					"outputs": [],
					"stateMutability": "nonpayable",
					"type": "function"
				},
				{
					"inputs": [],
					"name": "esBCKGOV",
					"outputs": [
						{
							"internalType": "contract ERC20",
							"name": "",
							"type": "address"
						}
					],
					"stateMutability": "view",
					"type": "function"
				},
				{
					"inputs": [
						{
							"internalType": "address",
							"name": "_user",
							"type": "address"
						}
					],
					"name": "excessBCKGOVTest",
					"outputs": [
						{
							"internalType": "address[]",
							"name": "",
							"type": "address[]"
						},
						{
							"internalType": "uint256[]",
							"name": "",
							"type": "uint256[]"
						},
						{
							"internalType": "uint256",
							"name": "",
							"type": "uint256"
						}
					],
					"stateMutability": "view",
					"type": "function"
				},
				{
					"inputs": [
						{
							"internalType": "uint256",
							"name": "",
							"type": "uint256"
						}
					],
					"name": "excessTokens",
					"outputs": [
						{
							"internalType": "contract DSToken",
							"name": "",
							"type": "address"
						}
					],
					"stateMutability": "view",
					"type": "function"
				},
				{
					"inputs": [
						{
							"internalType": "address",
							"name": "src",
							"type": "address"
						},
						{
							"internalType": "bytes4",
							"name": "sig",
							"type": "bytes4"
						}
					],
					"name": "isAuthorized",
					"outputs": [
						{
							"internalType": "bool",
							"name": "",
							"type": "bool"
						}
					],
					"stateMutability": "view",
					"type": "function"
				},
				{
					"inputs": [],
					"name": "owner",
					"outputs": [
						{
							"internalType": "address",
							"name": "",
							"type": "address"
						}
					],
					"stateMutability": "view",
					"type": "function"
				},
				{
					"inputs": [
						{
							"internalType": "contract DSAuthority",
							"name": "authority_",
							"type": "address"
						}
					],
					"name": "setAuthority",
					"outputs": [],
					"stateMutability": "nonpayable",
					"type": "function"
				},
				{
					"inputs": [
						{
							"internalType": "address",
							"name": "owner_",
							"type": "address"
						}
					],
					"name": "setOwner",
					"outputs": [],
					"stateMutability": "nonpayable",
					"type": "function"
				},
				{
					"inputs": [],
					"name": "totalDeposits",
					"outputs": [
						{
							"internalType": "uint256",
							"name": "",
							"type": "uint256"
						}
					],
					"stateMutability": "view",
					"type": "function"
				},
				{
					"inputs": [],
					"name": "totalDistributed",
					"outputs": [
						{
							"internalType": "uint256",
							"name": "",
							"type": "uint256"
						}
					],
					"stateMutability": "view",
					"type": "function"
				},
				{
					"inputs": [
						{
							"internalType": "uint256",
							"name": "_amount",
							"type": "uint256"
						}
					],
					"name": "withdrawBCK",
					"outputs": [],
					"stateMutability": "nonpayable",
					"type": "function"
				},
				{
					"inputs": [],
					"name": "withdrawInterest",
					"outputs": [],
					"stateMutability": "nonpayable",
					"type": "function"
				},
				{
					"inputs": [
						{
							"internalType": "address",
							"name": "_owner",
							"type": "address"
						}
					],
					"name": "withdrawableInterestOf",
					"outputs": [
						{
							"internalType": "uint256",
							"name": "",
							"type": "uint256"
						}
					],
					"stateMutability": "view",
					"type": "function"
				},
				{
					"inputs": [
						{
							"internalType": "address",
							"name": "",
							"type": "address"
						}
					],
					"name": "withdrawnInterest",
					"outputs": [
						{
							"internalType": "uint256",
							"name": "",
							"type": "uint256"
						}
					],
					"stateMutability": "view",
					"type": "function"
				}
			],
			"devdoc": {
				"kind": "dev",
				"methods": {},
				"version": 1
			},
			"evm": {
				"assembly": "    /* \"Crypto-side-main/stake.sol\":232:5163  contract BCKSavingsAccount is DSAuth {... */\n  mstore(0x40, 0x80)\n    /* \"Crypto-side-main/stake.sol\":859:996  constructor(address _bck, address _esBCKGOV) public {... */\n  callvalue\n  dup1\n  iszero\n  tag_1\n  jumpi\n  0x00\n  dup1\n  revert\ntag_1:\n  pop\n  mload(0x40)\n  sub(codesize, bytecodeSize)\n  dup1\n  bytecodeSize\n  dup4\n  codecopy\n  dup2\n  add\n  0x40\n  dup2\n  swap1\n  mstore\n  tag_2\n  swap2\n  tag_3\n  jump\t// in\ntag_2:\n    /* \"Crypto-side-main/ds-auth.sol\":1104:1109  owner */\n  0x01\n    /* \"Crypto-side-main/ds-auth.sol\":1104:1122  owner = msg.sender */\n  dup1\n  sload\n  not(sub(shl(0xa0, 0x01), 0x01))\n  and\n    /* \"Crypto-side-main/ds-auth.sol\":1112:1122  msg.sender */\n  caller\n    /* \"Crypto-side-main/ds-auth.sol\":1104:1122  owner = msg.sender */\n  swap1\n  dup2\n  or\n  swap1\n  swap2\n  sstore\n    /* \"Crypto-side-main/ds-auth.sol\":1137:1160  LogSetOwner(msg.sender) */\n  mload(0x40)\n  0xce241d7ca1f669fee44b6fc00b8eba2df3bb514eed0f6f668f8f89096e81ed94\n  swap1\n    /* \"Crypto-side-main/ds-auth.sol\":1104:1109  owner */\n  0x00\n  swap1\n    /* \"Crypto-side-main/ds-auth.sol\":1137:1160  LogSetOwner(msg.sender) */\n  log2\n    /* \"Crypto-side-main/stake.sol\":917:920  bck */\n  0x02\n    /* \"Crypto-side-main/stake.sol\":917:934  bck = ERC20(_bck) */\n  dup1\n  sload\n  sub(shl(0xa0, 0x01), 0x01)\n  swap4\n  dup5\n  and\n  not(sub(shl(0xa0, 0x01), 0x01))\n  swap2\n  dup3\n  and\n  or\n  swap1\n  swap2\n  sstore\n  0x01\n    /* \"Crypto-side-main/stake.sol\":940:958  owner = msg.sender */\n  dup1\n  sload\n  dup3\n  and\n    /* \"Crypto-side-main/stake.sol\":948:958  msg.sender */\n  caller\n    /* \"Crypto-side-main/stake.sol\":940:958  owner = msg.sender */\n  or\n  swap1\n  sstore\n    /* \"Crypto-side-main/stake.sol\":964:972  esBCKGOV */\n  0x03\n    /* \"Crypto-side-main/stake.sol\":964:991  esBCKGOV = ERC20(_esBCKGOV) */\n  dup1\n  sload\n  swap3\n  swap1\n  swap4\n  and\n  swap2\n  and\n  or\n  swap1\n  sstore\n    /* \"Crypto-side-main/stake.sol\":232:5163  contract BCKSavingsAccount is DSAuth {... */\n  jump(tag_10)\n    /* \"#utility.yul\":14:191   */\ntag_9:\n    /* \"#utility.yul\":93:106   */\n  dup1\n  mload\n  sub(shl(0xa0, 0x01), 0x01)\n    /* \"#utility.yul\":135:166   */\n  dup2\n  and\n    /* \"#utility.yul\":125:167   */\n  dup2\n  eq\n    /* \"#utility.yul\":115:185   */\n  tag_12\n  jumpi\n    /* \"#utility.yul\":181:182   */\n  0x00\n    /* \"#utility.yul\":178:179   */\n  dup1\n    /* \"#utility.yul\":171:183   */\n  revert\n    /* \"#utility.yul\":115:185   */\ntag_12:\n    /* \"#utility.yul\":14:191   */\n  swap2\n  swap1\n  pop\n  jump\t// out\n    /* \"#utility.yul\":196:489   */\ntag_3:\n    /* \"#utility.yul\":275:281   */\n  0x00\n    /* \"#utility.yul\":283:289   */\n  dup1\n    /* \"#utility.yul\":336:338   */\n  0x40\n    /* \"#utility.yul\":324:333   */\n  dup4\n    /* \"#utility.yul\":315:322   */\n  dup6\n    /* \"#utility.yul\":311:334   */\n  sub\n    /* \"#utility.yul\":307:339   */\n  slt\n    /* \"#utility.yul\":304:356   */\n  iszero\n  tag_14\n  jumpi\n    /* \"#utility.yul\":352:353   */\n  0x00\n    /* \"#utility.yul\":349:350   */\n  dup1\n    /* \"#utility.yul\":342:354   */\n  revert\n    /* \"#utility.yul\":304:356   */\ntag_14:\n    /* \"#utility.yul\":375:415   */\n  tag_15\n    /* \"#utility.yul\":405:414   */\n  dup4\n    /* \"#utility.yul\":375:415   */\n  tag_9\n  jump\t// in\ntag_15:\n    /* \"#utility.yul\":365:415   */\n  swap2\n  pop\n    /* \"#utility.yul\":434:483   */\n  tag_16\n    /* \"#utility.yul\":479:481   */\n  0x20\n    /* \"#utility.yul\":468:477   */\n  dup5\n    /* \"#utility.yul\":464:482   */\n  add\n    /* \"#utility.yul\":434:483   */\n  tag_9\n  jump\t// in\ntag_16:\n    /* \"#utility.yul\":424:483   */\n  swap1\n  pop\n    /* \"#utility.yul\":196:489   */\n  swap3\n  pop\n  swap3\n  swap1\n  pop\n  jump\t// out\ntag_10:\n    /* \"Crypto-side-main/stake.sol\":232:5163  contract BCKSavingsAccount is DSAuth {... */\n  dataSize(sub_0)\n  dup1\n  dataOffset(sub_0)\n  0x00\n  codecopy\n  0x00\n  return\nstop\n\nsub_0: assembly {\n        /* \"Crypto-side-main/stake.sol\":232:5163  contract BCKSavingsAccount is DSAuth {... */\n      mstore(0x40, 0x80)\n      callvalue\n      dup1\n      iszero\n      tag_1\n      jumpi\n      0x00\n      dup1\n      revert\n    tag_1:\n      pop\n      jumpi(tag_2, lt(calldatasize, 0x04))\n      shr(0xe0, calldataload(0x00))\n      dup1\n      0x86ed7d82\n      gt\n      tag_24\n      jumpi\n      dup1\n      0xa1ef92eb\n      gt\n      tag_25\n      jumpi\n      dup1\n      0xa1ef92eb\n      eq\n      tag_18\n      jumpi\n      dup1\n      0xb35874cb\n      eq\n      tag_19\n      jumpi\n      dup1\n      0xbf7e214f\n      eq\n      tag_20\n      jumpi\n      dup1\n      0xcb6b0200\n      eq\n      tag_21\n      jumpi\n      dup1\n      0xd9972b96\n      eq\n      tag_22\n      jumpi\n      dup1\n      0xefca2eed\n      eq\n      tag_23\n      jumpi\n      0x00\n      dup1\n      revert\n    tag_25:\n      dup1\n      0x86ed7d82\n      eq\n      tag_13\n      jumpi\n      dup1\n      0x8da5cb5b\n      eq\n      tag_14\n      jumpi\n      dup1\n      0x9778dd2b\n      eq\n      tag_15\n      jumpi\n      dup1\n      0x9ddf0293\n      eq\n      tag_16\n      jumpi\n      dup1\n      0x9e5be1d0\n      eq\n      tag_17\n      jumpi\n      0x00\n      dup1\n      revert\n    tag_24:\n      dup1\n      0x5246fb2d\n      gt\n      tag_26\n      jumpi\n      dup1\n      0x5246fb2d\n      eq\n      tag_8\n      jumpi\n      dup1\n      0x6bd62306\n      eq\n      tag_9\n      jumpi\n      dup1\n      0x71c21934\n      eq\n      tag_10\n      jumpi\n      dup1\n      0x7a9e5e4b\n      eq\n      tag_11\n      jumpi\n      dup1\n      0x7d882097\n      eq\n      tag_12\n      jumpi\n      0x00\n      dup1\n      revert\n    tag_26:\n      dup1\n      0x63750c\n      eq\n      tag_3\n      jumpi\n      dup1\n      0x0f90c97b\n      eq\n      tag_4\n      jumpi\n      dup1\n      0x13af4035\n      eq\n      tag_5\n      jumpi\n      dup1\n      0x27e235e3\n      eq\n      tag_6\n      jumpi\n      dup1\n      0x39beb7a1\n      eq\n      tag_7\n      jumpi\n    tag_2:\n      0x00\n      dup1\n      revert\n        /* \"Crypto-side-main/stake.sol\":3038:3791  function withdrawInterest() public {... */\n    tag_3:\n      tag_27\n      tag_28\n      jump\t// in\n    tag_27:\n      stop\n        /* \"Crypto-side-main/stake.sol\":3794:3952  function withdrawableInterestOf(address _owner) public view returns(uint256) {... */\n    tag_4:\n      tag_29\n      tag_30\n      calldatasize\n      0x04\n      tag_31\n      jump\t// in\n    tag_30:\n      tag_32\n      jump\t// in\n    tag_29:\n      mload(0x40)\n        /* \"#utility.yul\":548:573   */\n      swap1\n      dup2\n      mstore\n        /* \"#utility.yul\":536:538   */\n      0x20\n        /* \"#utility.yul\":521:539   */\n      add\n        /* \"Crypto-side-main/stake.sol\":3794:3952  function withdrawableInterestOf(address _owner) public view returns(uint256) {... */\n    tag_33:\n      mload(0x40)\n      dup1\n      swap2\n      sub\n      swap1\n      return\n        /* \"Crypto-side-main/ds-auth.sol\":1173:1303  function setOwner(address owner_)... */\n    tag_5:\n      tag_27\n      tag_36\n      calldatasize\n      0x04\n      tag_31\n      jump\t// in\n    tag_36:\n      tag_37\n      jump\t// in\n        /* \"Crypto-side-main/stake.sol\":714:757  mapping(address => uint256) public balances */\n    tag_6:\n      tag_29\n      tag_39\n      calldatasize\n      0x04\n      tag_31\n      jump\t// in\n    tag_39:\n      mstore(0x20, 0x0a)\n      0x00\n      swap1\n      dup2\n      mstore\n      0x40\n      swap1\n      keccak256\n      sload\n      dup2\n      jump\n        /* \"Crypto-side-main/stake.sol\":515:553  uint256 public currentdistrbutedBCKGOV */\n    tag_7:\n      tag_29\n      sload(0x06)\n      dup2\n      jump\n        /* \"Crypto-side-main/stake.sol\":360:381  ERC20 public esBCKGOV */\n    tag_8:\n      sload(0x03)\n      tag_45\n      swap1\n      sub(shl(0xa0, 0x01), 0x01)\n      and\n      dup2\n      jump\n    tag_45:\n      mload(0x40)\n      sub(shl(0xa0, 0x01), 0x01)\n        /* \"#utility.yul\":762:794   */\n      swap1\n      swap2\n      and\n        /* \"#utility.yul\":744:795   */\n      dup2\n      mstore\n        /* \"#utility.yul\":732:734   */\n      0x20\n        /* \"#utility.yul\":717:735   */\n      add\n        /* \"Crypto-side-main/stake.sol\":360:381  ERC20 public esBCKGOV */\n      tag_33\n        /* \"#utility.yul\":584:801   */\n      jump\n        /* \"Crypto-side-main/stake.sol\":4041:4921  function excessBCKGOVTest(address _user) public view returns (address[] memory, uint256[] memory, uint) {... */\n    tag_9:\n      tag_49\n      tag_50\n      calldatasize\n      0x04\n      tag_31\n      jump\t// in\n    tag_50:\n      tag_51\n      jump\t// in\n    tag_49:\n      mload(0x40)\n      tag_33\n      swap4\n      swap3\n      swap2\n      swap1\n      tag_53\n      jump\t// in\n        /* \"Crypto-side-main/stake.sol\":340:356  ERC20 public bck */\n    tag_10:\n      sload(0x02)\n      tag_45\n      swap1\n      sub(shl(0xa0, 0x01), 0x01)\n      and\n      dup2\n      jump\n        /* \"Crypto-side-main/ds-auth.sol\":1309:1476  function setAuthority(DSAuthority authority_)... */\n    tag_11:\n      tag_27\n      tag_58\n      calldatasize\n      0x04\n      tag_31\n      jump\t// in\n    tag_58:\n      tag_60\n      jump\t// in\n        /* \"Crypto-side-main/stake.sol\":761:789  uint256 public totalDeposits */\n    tag_12:\n      tag_29\n      sload(0x0b)\n      dup2\n      jump\n        /* \"Crypto-side-main/stake.sol\":385:414  DSToken[] public excessTokens */\n    tag_13:\n      tag_45\n      tag_65\n      calldatasize\n      0x04\n      tag_66\n      jump\t// in\n    tag_65:\n      tag_67\n      jump\t// in\n        /* \"Crypto-side-main/ds-auth.sol\":1040:1066  address      public  owner */\n    tag_14:\n      sload(0x01)\n      tag_45\n      swap1\n      sub(shl(0xa0, 0x01), 0x01)\n      and\n      dup2\n      jump\n        /* \"Crypto-side-main/stake.sol\":4927:5161  function accumulativeInterestOf(address _owner) public view returns(uint256) {... */\n    tag_15:\n      tag_29\n      tag_75\n      calldatasize\n      0x04\n      tag_31\n      jump\t// in\n    tag_75:\n      tag_76\n      jump\t// in\n        /* \"Crypto-side-main/stake.sol\":2279:3034  function distributeBCKGOV(uint256 _amount) public {... */\n    tag_16:\n      tag_27\n      tag_79\n      calldatasize\n      0x04\n      tag_66\n      jump\t// in\n    tag_79:\n      tag_80\n      jump\t// in\n        /* \"Crypto-side-main/stake.sol\":1170:1692  function depositBCK(uint256 _amount) public {... */\n    tag_17:\n      tag_27\n      tag_82\n      calldatasize\n      0x04\n      tag_66\n      jump\t// in\n    tag_82:\n      tag_83\n      jump\t// in\n        /* \"Crypto-side-main/stake.sol\":657:709  mapping(address => uint256) public withdrawnInterest */\n    tag_18:\n      tag_29\n      tag_85\n      calldatasize\n      0x04\n      tag_31\n      jump\t// in\n    tag_85:\n      mstore(0x20, 0x09)\n      0x00\n      swap1\n      dup2\n      mstore\n      0x40\n      swap1\n      keccak256\n      sload\n      dup2\n      jump\n        /* \"Crypto-side-main/stake.sol\":1696:2275  function withdrawBCK(uint256 _amount) public {... */\n    tag_19:\n      tag_27\n      tag_89\n      calldatasize\n      0x04\n      tag_66\n      jump\t// in\n    tag_89:\n      tag_90\n      jump\t// in\n        /* \"Crypto-side-main/ds-auth.sol\":1004:1034  DSAuthority  public  authority */\n    tag_20:\n      sload(0x00)\n      tag_45\n      swap1\n      sub(shl(0xa0, 0x01), 0x01)\n      and\n      dup2\n      jump\n        /* \"Crypto-side-main/stake.sol\":999:1166  function addExcessToken(address _tokenAddress) external auth {... */\n    tag_21:\n      tag_27\n      tag_96\n      calldatasize\n      0x04\n      tag_31\n      jump\t// in\n    tag_96:\n      tag_97\n      jump\t// in\n        /* \"Crypto-side-main/ds-auth.sol\":1596:1973  function isAuthorized(address src, bytes4 sig) public view returns (bool) {... */\n    tag_22:\n      tag_98\n      tag_99\n      calldatasize\n      0x04\n      tag_100\n      jump\t// in\n    tag_99:\n      tag_101\n      jump\t// in\n    tag_98:\n      mload(0x40)\n        /* \"#utility.yul\":3775:3789   */\n      swap1\n      iszero\n        /* \"#utility.yul\":3768:3790   */\n      iszero\n        /* \"#utility.yul\":3750:3791   */\n      dup2\n      mstore\n        /* \"#utility.yul\":3738:3740   */\n      0x20\n        /* \"#utility.yul\":3723:3741   */\n      add\n        /* \"Crypto-side-main/ds-auth.sol\":1596:1973  function isAuthorized(address src, bytes4 sig) public view returns (bool) {... */\n      tag_33\n        /* \"#utility.yul\":3610:3797   */\n      jump\n        /* \"Crypto-side-main/stake.sol\":557:585  uint public totalDistributed */\n    tag_23:\n      tag_29\n      sload(0x07)\n      dup2\n      jump\n        /* \"Crypto-side-main/stake.sol\":3038:3791  function withdrawInterest() public {... */\n    tag_28:\n        /* \"Crypto-side-main/stake.sol\":3079:3108  uint256 _withdrawableInterest */\n      0x00\n        /* \"Crypto-side-main/stake.sol\":3111:3145  withdrawableInterestOf(msg.sender) */\n      tag_108\n        /* \"Crypto-side-main/stake.sol\":3134:3144  msg.sender */\n      caller\n        /* \"Crypto-side-main/stake.sol\":3111:3133  withdrawableInterestOf */\n      tag_32\n        /* \"Crypto-side-main/stake.sol\":3111:3145  withdrawableInterestOf(msg.sender) */\n      jump\t// in\n    tag_108:\n        /* \"Crypto-side-main/stake.sol\":3079:3145  uint256 _withdrawableInterest = withdrawableInterestOf(msg.sender) */\n      swap1\n      pop\n        /* \"Crypto-side-main/stake.sol\":3160:3185  _withdrawableInterest > 0 */\n      dup1\n      iszero\n        /* \"Crypto-side-main/stake.sol\":3156:3787  if (_withdrawableInterest > 0) {... */\n      tag_147\n      jumpi\n        /* \"Crypto-side-main/stake.sol\":3199:3205  uint i */\n      0x00\n        /* \"Crypto-side-main/stake.sol\":3194:3565  for (uint i = 0; i < excessTokens.length; i++) {... */\n    tag_110:\n        /* \"Crypto-side-main/stake.sol\":3215:3227  excessTokens */\n      0x04\n        /* \"Crypto-side-main/stake.sol\":3215:3234  excessTokens.length */\n      sload\n        /* \"Crypto-side-main/stake.sol\":3211:3234  i < excessTokens.length */\n      dup2\n      lt\n        /* \"Crypto-side-main/stake.sol\":3194:3565  for (uint i = 0; i < excessTokens.length; i++) {... */\n      iszero\n      tag_111\n      jumpi\n        /* \"Crypto-side-main/stake.sol\":3255:3281  uint256 excessTokenBalance */\n      0x00\n        /* \"Crypto-side-main/stake.sol\":3284:3296  excessTokens */\n      0x04\n        /* \"Crypto-side-main/stake.sol\":3297:3298  i */\n      dup3\n        /* \"Crypto-side-main/stake.sol\":3284:3299  excessTokens[i] */\n      dup2\n      sload\n      dup2\n      lt\n      tag_114\n      jumpi\n      tag_114\n      tag_115\n      jump\t// in\n    tag_114:\n      0x00\n      swap2\n      dup3\n      mstore\n      0x20\n      swap1\n      swap2\n      keccak256\n      add\n      sload\n        /* \"Crypto-side-main/stake.sol\":3284:3324  excessTokens[i].balanceOf(address(this)) */\n      mload(0x40)\n      shl(0xe0, 0x70a08231)\n      dup2\n      mstore\n        /* \"Crypto-side-main/stake.sol\":3318:3322  this */\n      address\n        /* \"Crypto-side-main/stake.sol\":3284:3324  excessTokens[i].balanceOf(address(this)) */\n      0x04\n      dup3\n      add\n        /* \"#utility.yul\":744:795   */\n      mstore\n      sub(shl(0xa0, 0x01), 0x01)\n        /* \"Crypto-side-main/stake.sol\":3284:3299  excessTokens[i] */\n      swap1\n      swap2\n      and\n      swap1\n        /* \"Crypto-side-main/stake.sol\":3284:3309  excessTokens[i].balanceOf */\n      0x70a08231\n      swap1\n        /* \"#utility.yul\":717:735   */\n      0x24\n      add\n        /* \"Crypto-side-main/stake.sol\":3284:3324  excessTokens[i].balanceOf(address(this)) */\n      0x20\n      mload(0x40)\n      dup1\n      dup4\n      sub\n      dup2\n      dup7\n      gas\n      staticcall\n      iszero\n      dup1\n      iszero\n      tag_119\n      jumpi\n      returndatasize\n      0x00\n      dup1\n      returndatacopy\n      revert(0x00, returndatasize)\n    tag_119:\n      pop\n      pop\n      pop\n      pop\n      mload(0x40)\n      returndatasize\n      not(0x1f)\n      0x1f\n      dup3\n      add\n      and\n      dup3\n      add\n      dup1\n      0x40\n      mstore\n      pop\n      dup2\n      add\n      swap1\n      tag_120\n      swap2\n      swap1\n      tag_121\n      jump\t// in\n    tag_120:\n        /* \"Crypto-side-main/stake.sol\":3255:3324  uint256 excessTokenBalance = excessTokens[i].balanceOf(address(this)) */\n      swap1\n      pop\n        /* \"Crypto-side-main/stake.sol\":3338:3362  uint256 excessDistribute */\n      0x00\n        /* \"Crypto-side-main/stake.sol\":3411:3434  currentdistrbutedBCKGOV */\n      sload(0x06)\n        /* \"Crypto-side-main/stake.sol\":3387:3408  _withdrawableInterest */\n      dup5\n        /* \"Crypto-side-main/stake.sol\":3387:3434  _withdrawableInterest / currentdistrbutedBCKGOV */\n      tag_122\n      swap2\n      swap1\n      tag_123\n      jump\t// in\n    tag_122:\n        /* \"Crypto-side-main/stake.sol\":3365:3435  excessTokenBalance * (_withdrawableInterest / currentdistrbutedBCKGOV) */\n      tag_124\n      swap1\n        /* \"Crypto-side-main/stake.sol\":3365:3383  excessTokenBalance */\n      dup4\n        /* \"Crypto-side-main/stake.sol\":3365:3435  excessTokenBalance * (_withdrawableInterest / currentdistrbutedBCKGOV) */\n      tag_125\n      jump\t// in\n    tag_124:\n        /* \"Crypto-side-main/stake.sol\":3338:3435  uint256 excessDistribute = excessTokenBalance * (_withdrawableInterest / currentdistrbutedBCKGOV) */\n      swap1\n      pop\n        /* \"Crypto-side-main/stake.sol\":3457:3469  excessTokens */\n      0x04\n        /* \"Crypto-side-main/stake.sol\":3470:3471  i */\n      dup4\n        /* \"Crypto-side-main/stake.sol\":3457:3472  excessTokens[i] */\n      dup2\n      sload\n      dup2\n      lt\n      tag_127\n      jumpi\n      tag_127\n      tag_115\n      jump\t// in\n    tag_127:\n      0x00\n      swap2\n      dup3\n      mstore\n      0x20\n      swap1\n      swap2\n      keccak256\n      add\n      sload\n        /* \"Crypto-side-main/stake.sol\":3457:3530  excessTokens[i].transferFrom(address(this), msg.sender, excessDistribute) */\n      mload(0x40)\n      shl(0xe0, 0x23b872dd)\n      dup2\n      mstore\n        /* \"Crypto-side-main/stake.sol\":3494:3498  this */\n      address\n        /* \"Crypto-side-main/stake.sol\":3457:3530  excessTokens[i].transferFrom(address(this), msg.sender, excessDistribute) */\n      0x04\n      dup3\n      add\n        /* \"#utility.yul\":4890:4924   */\n      mstore\n        /* \"Crypto-side-main/stake.sol\":3501:3511  msg.sender */\n      caller\n        /* \"#utility.yul\":4940:4958   */\n      0x24\n      dup3\n      add\n        /* \"#utility.yul\":4933:4976   */\n      mstore\n        /* \"#utility.yul\":4992:5010   */\n      0x44\n      dup2\n      add\n        /* \"#utility.yul\":4985:5019   */\n      dup4\n      swap1\n      mstore\n      sub(shl(0xa0, 0x01), 0x01)\n        /* \"Crypto-side-main/stake.sol\":3457:3472  excessTokens[i] */\n      swap1\n      swap2\n      and\n      swap1\n        /* \"Crypto-side-main/stake.sol\":3457:3485  excessTokens[i].transferFrom */\n      0x23b872dd\n      swap1\n        /* \"#utility.yul\":4825:4843   */\n      0x64\n      add\n        /* \"Crypto-side-main/stake.sol\":3457:3530  excessTokens[i].transferFrom(address(this), msg.sender, excessDistribute) */\n      0x20\n      mload(0x40)\n      dup1\n      dup4\n      sub\n      dup2\n      0x00\n      dup8\n      gas\n      call\n      iszero\n      dup1\n      iszero\n      tag_132\n      jumpi\n      returndatasize\n      0x00\n      dup1\n      returndatacopy\n      revert(0x00, returndatasize)\n    tag_132:\n      pop\n      pop\n      pop\n      pop\n      mload(0x40)\n      returndatasize\n      not(0x1f)\n      0x1f\n      dup3\n      add\n      and\n      dup3\n      add\n      dup1\n      0x40\n      mstore\n      pop\n      dup2\n      add\n      swap1\n      tag_133\n      swap2\n      swap1\n      tag_134\n      jump\t// in\n    tag_133:\n        /* \"Crypto-side-main/stake.sol\":3449:3556  require(excessTokens[i].transferFrom(address(this), msg.sender, excessDistribute), \"Token transfer failed\") */\n      tag_135\n      jumpi\n      mload(0x40)\n      shl(0xe5, 0x461bcd)\n      dup2\n      mstore\n        /* \"#utility.yul\":5514:5516   */\n      0x20\n        /* \"Crypto-side-main/stake.sol\":3449:3556  require(excessTokens[i].transferFrom(address(this), msg.sender, excessDistribute), \"Token transfer failed\") */\n      0x04\n      dup3\n      add\n        /* \"#utility.yul\":5496:5517   */\n      mstore\n        /* \"#utility.yul\":5553:5555   */\n      0x15\n        /* \"#utility.yul\":5533:5551   */\n      0x24\n      dup3\n      add\n        /* \"#utility.yul\":5526:5556   */\n      mstore\n      shl(0x5a, 0x151bdad95b881d1c985b9cd9995c8819985a5b1959)\n        /* \"#utility.yul\":5572:5590   */\n      0x44\n      dup3\n      add\n        /* \"#utility.yul\":5565:5616   */\n      mstore\n        /* \"#utility.yul\":5633:5651   */\n      0x64\n      add\n        /* \"Crypto-side-main/stake.sol\":3449:3556  require(excessTokens[i].transferFrom(address(this), msg.sender, excessDistribute), \"Token transfer failed\") */\n    tag_136:\n      mload(0x40)\n      dup1\n      swap2\n      sub\n      swap1\n      revert\n    tag_135:\n      pop\n      pop\n        /* \"Crypto-side-main/stake.sol\":3236:3239  i++ */\n      0x01\n      add\n        /* \"Crypto-side-main/stake.sol\":3194:3565  for (uint i = 0; i < excessTokens.length; i++) {... */\n      jump(tag_110)\n    tag_111:\n      pop\n        /* \"Crypto-side-main/stake.sol\":3591:3601  msg.sender */\n      caller\n        /* \"Crypto-side-main/stake.sol\":3573:3602  withdrawnInterest[msg.sender] */\n      0x00\n      swap1\n      dup2\n      mstore\n        /* \"Crypto-side-main/stake.sol\":3573:3590  withdrawnInterest */\n      0x09\n        /* \"Crypto-side-main/stake.sol\":3573:3602  withdrawnInterest[msg.sender] */\n      0x20\n      mstore\n      0x40\n      dup2\n      keccak256\n        /* \"Crypto-side-main/stake.sol\":3573:3629  withdrawnInterest[msg.sender] += (_withdrawableInterest) */\n      dup1\n      sload\n        /* \"Crypto-side-main/stake.sol\":3607:3628  _withdrawableInterest */\n      dup4\n      swap3\n        /* \"Crypto-side-main/stake.sol\":3573:3602  withdrawnInterest[msg.sender] */\n      swap1\n        /* \"Crypto-side-main/stake.sol\":3573:3629  withdrawnInterest[msg.sender] += (_withdrawableInterest) */\n      tag_138\n      swap1\n        /* \"Crypto-side-main/stake.sol\":3607:3628  _withdrawableInterest */\n      dup5\n      swap1\n        /* \"Crypto-side-main/stake.sol\":3573:3629  withdrawnInterest[msg.sender] += (_withdrawableInterest) */\n      tag_139\n      jump\t// in\n    tag_138:\n      swap3\n      pop\n      pop\n      dup2\n      swap1\n      sstore\n      pop\n        /* \"Crypto-side-main/stake.sol\":3665:3686  _withdrawableInterest */\n      dup1\n        /* \"Crypto-side-main/stake.sol\":3637:3660  currentdistrbutedBCKGOV */\n      0x06\n      0x00\n        /* \"Crypto-side-main/stake.sol\":3637:3687  currentdistrbutedBCKGOV -= (_withdrawableInterest) */\n      dup3\n      dup3\n      sload\n      tag_140\n      swap2\n      swap1\n      tag_141\n      jump\t// in\n    tag_140:\n      swap1\n      swap2\n      sstore\n      pop\n      pop\n        /* \"Crypto-side-main/stake.sol\":3703:3711  esBCKGOV */\n      sload(0x03)\n        /* \"Crypto-side-main/stake.sol\":3703:3755  esBCKGOV.transfer(msg.sender, _withdrawableInterest) */\n      mload(0x40)\n      shl(0xe0, 0xa9059cbb)\n      dup2\n      mstore\n        /* \"Crypto-side-main/stake.sol\":3721:3731  msg.sender */\n      caller\n        /* \"Crypto-side-main/stake.sol\":3703:3755  esBCKGOV.transfer(msg.sender, _withdrawableInterest) */\n      0x04\n      dup3\n      add\n        /* \"#utility.yul\":6099:6150   */\n      mstore\n        /* \"#utility.yul\":6166:6184   */\n      0x24\n      dup2\n      add\n        /* \"#utility.yul\":6159:6193   */\n      dup4\n      swap1\n      mstore\n      sub(shl(0xa0, 0x01), 0x01)\n        /* \"Crypto-side-main/stake.sol\":3703:3711  esBCKGOV */\n      swap1\n      swap2\n      and\n      swap1\n        /* \"Crypto-side-main/stake.sol\":3703:3720  esBCKGOV.transfer */\n      0xa9059cbb\n      swap1\n        /* \"#utility.yul\":6072:6090   */\n      0x44\n      add\n        /* \"Crypto-side-main/stake.sol\":3703:3755  esBCKGOV.transfer(msg.sender, _withdrawableInterest) */\n      0x20\n      mload(0x40)\n      dup1\n      dup4\n      sub\n      dup2\n      0x00\n      dup8\n      gas\n      call\n      iszero\n      dup1\n      iszero\n      tag_145\n      jumpi\n      returndatasize\n      0x00\n      dup1\n      returndatacopy\n      revert(0x00, returndatasize)\n    tag_145:\n      pop\n      pop\n      pop\n      pop\n      mload(0x40)\n      returndatasize\n      not(0x1f)\n      0x1f\n      dup3\n      add\n      and\n      dup3\n      add\n      dup1\n      0x40\n      mstore\n      pop\n      dup2\n      add\n      swap1\n      tag_146\n      swap2\n      swap1\n      tag_134\n      jump\t// in\n    tag_146:\n        /* \"Crypto-side-main/stake.sol\":3695:3780  require(esBCKGOV.transfer(msg.sender, _withdrawableInterest), \"USDC transfer failed\") */\n      tag_147\n      jumpi\n      mload(0x40)\n      shl(0xe5, 0x461bcd)\n      dup2\n      mstore\n        /* \"#utility.yul\":6406:6408   */\n      0x20\n        /* \"Crypto-side-main/stake.sol\":3695:3780  require(esBCKGOV.transfer(msg.sender, _withdrawableInterest), \"USDC transfer failed\") */\n      0x04\n      dup3\n      add\n        /* \"#utility.yul\":6388:6409   */\n      mstore\n        /* \"#utility.yul\":6445:6447   */\n      0x14\n        /* \"#utility.yul\":6425:6443   */\n      0x24\n      dup3\n      add\n        /* \"#utility.yul\":6418:6448   */\n      mstore\n      shl(0x62, 0x1554d110c81d1c985b9cd9995c8819985a5b1959)\n        /* \"#utility.yul\":6464:6482   */\n      0x44\n      dup3\n      add\n        /* \"#utility.yul\":6457:6507   */\n      mstore\n        /* \"#utility.yul\":6524:6542   */\n      0x64\n      add\n        /* \"Crypto-side-main/stake.sol\":3695:3780  require(esBCKGOV.transfer(msg.sender, _withdrawableInterest), \"USDC transfer failed\") */\n      tag_136\n        /* \"#utility.yul\":6204:6548   */\n      jump\n        /* \"Crypto-side-main/stake.sol\":3695:3780  require(esBCKGOV.transfer(msg.sender, _withdrawableInterest), \"USDC transfer failed\") */\n    tag_147:\n        /* \"Crypto-side-main/stake.sol\":3073:3791  {... */\n      pop\n        /* \"Crypto-side-main/stake.sol\":3038:3791  function withdrawInterest() public {... */\n      jump\t// out\n        /* \"Crypto-side-main/stake.sol\":3794:3952  function withdrawableInterestOf(address _owner) public view returns(uint256) {... */\n    tag_32:\n      sub(shl(0xa0, 0x01), 0x01)\n        /* \"Crypto-side-main/stake.sol\":3923:3948  withdrawnInterest[_owner] */\n      dup2\n      and\n        /* \"Crypto-side-main/stake.sol\":3862:3869  uint256 */\n      0x00\n        /* \"Crypto-side-main/stake.sol\":3923:3948  withdrawnInterest[_owner] */\n      swap1\n      dup2\n      mstore\n        /* \"Crypto-side-main/stake.sol\":3923:3940  withdrawnInterest */\n      0x09\n        /* \"Crypto-side-main/stake.sol\":3923:3948  withdrawnInterest[_owner] */\n      0x20\n      mstore\n      0x40\n      dup2\n      keccak256\n      sload\n        /* \"Crypto-side-main/stake.sol\":3888:3949  accumulativeInterestOf(_owner).sub(withdrawnInterest[_owner]) */\n      tag_151\n      swap1\n        /* \"Crypto-side-main/stake.sol\":3888:3918  accumulativeInterestOf(_owner) */\n      tag_152\n        /* \"Crypto-side-main/stake.sol\":3941:3947  _owner */\n      dup5\n        /* \"Crypto-side-main/stake.sol\":3888:3910  accumulativeInterestOf */\n      tag_76\n        /* \"Crypto-side-main/stake.sol\":3888:3918  accumulativeInterestOf(_owner) */\n      jump\t// in\n    tag_152:\n        /* \"Crypto-side-main/stake.sol\":3888:3922  accumulativeInterestOf(_owner).sub */\n      swap1\n      tag_153\n        /* \"Crypto-side-main/stake.sol\":3888:3949  accumulativeInterestOf(_owner).sub(withdrawnInterest[_owner]) */\n      jump\t// in\n    tag_151:\n        /* \"Crypto-side-main/stake.sol\":3881:3949  return accumulativeInterestOf(_owner).sub(withdrawnInterest[_owner]) */\n      swap3\n        /* \"Crypto-side-main/stake.sol\":3794:3952  function withdrawableInterestOf(address _owner) public view returns(uint256) {... */\n      swap2\n      pop\n      pop\n      jump\t// out\n        /* \"Crypto-side-main/ds-auth.sol\":1173:1303  function setOwner(address owner_)... */\n    tag_37:\n        /* \"Crypto-side-main/ds-auth.sol\":1514:1547  isAuthorized(msg.sender, msg.sig) */\n      tag_155\n        /* \"Crypto-side-main/ds-auth.sol\":1527:1537  msg.sender */\n      caller\n        /* \"Crypto-side-main/ds-auth.sol\":1539:1546  msg.sig */\n      and(not(sub(shl(0xe0, 0x01), 0x01)), calldataload(0x00))\n        /* \"Crypto-side-main/ds-auth.sol\":1514:1526  isAuthorized */\n      tag_101\n        /* \"Crypto-side-main/ds-auth.sol\":1514:1547  isAuthorized(msg.sender, msg.sig) */\n      jump\t// in\n    tag_155:\n        /* \"Crypto-side-main/ds-auth.sol\":1506:1572  require(isAuthorized(msg.sender, msg.sig), \"ds-auth-unauthorized\") */\n      tag_156\n      jumpi\n      mload(0x40)\n      shl(0xe5, 0x461bcd)\n      dup2\n      mstore\n      0x04\n      add\n      tag_136\n      swap1\n      tag_158\n      jump\t// in\n    tag_156:\n        /* \"Crypto-side-main/ds-auth.sol\":1249:1254  owner */\n      0x01\n        /* \"Crypto-side-main/ds-auth.sol\":1249:1263  owner = owner_ */\n      dup1\n      sload\n      not(sub(shl(0xa0, 0x01), 0x01))\n      and\n      sub(shl(0xa0, 0x01), 0x01)\n      dup4\n      and\n      swap1\n      dup2\n      or\n      swap1\n      swap2\n      sstore\n        /* \"Crypto-side-main/ds-auth.sol\":1278:1296  LogSetOwner(owner) */\n      mload(0x40)\n      0xce241d7ca1f669fee44b6fc00b8eba2df3bb514eed0f6f668f8f89096e81ed94\n      swap1\n      0x00\n      swap1\n      log2\n        /* \"Crypto-side-main/ds-auth.sol\":1173:1303  function setOwner(address owner_)... */\n      pop\n      jump\t// out\n        /* \"Crypto-side-main/stake.sol\":4041:4921  function excessBCKGOVTest(address _user) public view returns (address[] memory, uint256[] memory, uint) {... */\n    tag_51:\n        /* \"Crypto-side-main/stake.sol\":4103:4119  address[] memory */\n      0x60\n        /* \"Crypto-side-main/stake.sol\":4121:4137  uint256[] memory */\n      dup1\n        /* \"Crypto-side-main/stake.sol\":4139:4143  uint */\n      0x00\n        /* \"Crypto-side-main/stake.sol\":4189:4190  0 */\n      dup1\n        /* \"Crypto-side-main/stake.sol\":4163:4186  currentdistrbutedBCKGOV */\n      sload(0x06)\n        /* \"Crypto-side-main/stake.sol\":4163:4190  currentdistrbutedBCKGOV > 0 */\n      gt\n        /* \"Crypto-side-main/stake.sol\":4155:4241  require(currentdistrbutedBCKGOV > 0, \"THERE IS NO esBCKGOV INTEREST LEFT TO WITHDRAW\") */\n      tag_161\n      jumpi\n      mload(0x40)\n      shl(0xe5, 0x461bcd)\n      dup2\n      mstore\n        /* \"#utility.yul\":7104:7106   */\n      0x20\n        /* \"Crypto-side-main/stake.sol\":4155:4241  require(currentdistrbutedBCKGOV > 0, \"THERE IS NO esBCKGOV INTEREST LEFT TO WITHDRAW\") */\n      0x04\n      dup3\n      add\n        /* \"#utility.yul\":7086:7107   */\n      mstore\n        /* \"#utility.yul\":7143:7145   */\n      0x2e\n        /* \"#utility.yul\":7123:7141   */\n      0x24\n      dup3\n      add\n        /* \"#utility.yul\":7116:7146   */\n      mstore\n        /* \"#utility.yul\":7182:7216   */\n      0x5448455245204953204e4f20657342434b474f5620494e544552455354204c45\n        /* \"#utility.yul\":7162:7180   */\n      0x44\n      dup3\n      add\n        /* \"#utility.yul\":7155:7217   */\n      mstore\n      shl(0x90, 0x465420544f205749544844524157)\n        /* \"#utility.yul\":7233:7251   */\n      0x64\n      dup3\n      add\n        /* \"#utility.yul\":7226:7270   */\n      mstore\n        /* \"#utility.yul\":7287:7306   */\n      0x84\n      add\n        /* \"Crypto-side-main/stake.sol\":4155:4241  require(currentdistrbutedBCKGOV > 0, \"THERE IS NO esBCKGOV INTEREST LEFT TO WITHDRAW\") */\n      tag_136\n        /* \"#utility.yul\":6902:7312   */\n      jump\n        /* \"Crypto-side-main/stake.sol\":4155:4241  require(currentdistrbutedBCKGOV > 0, \"THERE IS NO esBCKGOV INTEREST LEFT TO WITHDRAW\") */\n    tag_161:\n        /* \"Crypto-side-main/stake.sol\":4251:4279  uint256 withdrawableInterest */\n      0x00\n        /* \"Crypto-side-main/stake.sol\":4282:4311  withdrawableInterestOf(_user) */\n      tag_164\n        /* \"Crypto-side-main/stake.sol\":4305:4310  _user */\n      dup6\n        /* \"Crypto-side-main/stake.sol\":4282:4304  withdrawableInterestOf */\n      tag_32\n        /* \"Crypto-side-main/stake.sol\":4282:4311  withdrawableInterestOf(_user) */\n      jump\t// in\n    tag_164:\n        /* \"Crypto-side-main/stake.sol\":4369:4381  excessTokens */\n      0x04\n        /* \"Crypto-side-main/stake.sol\":4369:4388  excessTokens.length */\n      sload\n        /* \"Crypto-side-main/stake.sol\":4251:4311  uint256 withdrawableInterest = withdrawableInterestOf(_user) */\n      swap1\n      swap2\n      pop\n        /* \"Crypto-side-main/stake.sol\":4321:4352  address[] memory tokenAddresses */\n      0x00\n      swap1\n        /* \"Crypto-side-main/stake.sol\":4355:4389  new address[](excessTokens.length) */\n      0xffffffffffffffff\n      dup2\n      gt\n      iszero\n      tag_166\n      jumpi\n      tag_166\n      tag_167\n      jump\t// in\n    tag_166:\n      mload(0x40)\n      swap1\n      dup1\n      dup3\n      mstore\n      dup1\n      0x20\n      mul\n      0x20\n      add\n      dup3\n      add\n      0x40\n      mstore\n      dup1\n      iszero\n      tag_168\n      jumpi\n      dup2\n      0x20\n      add\n      0x20\n      dup3\n      mul\n      dup1\n      calldatasize\n      dup4\n      calldatacopy\n      add\n      swap1\n      pop\n    tag_168:\n      pop\n        /* \"Crypto-side-main/stake.sol\":4452:4464  excessTokens */\n      0x04\n        /* \"Crypto-side-main/stake.sol\":4452:4471  excessTokens.length */\n      sload\n        /* \"Crypto-side-main/stake.sol\":4321:4389  address[] memory tokenAddresses = new address[](excessTokens.length) */\n      swap1\n      swap2\n      pop\n        /* \"Crypto-side-main/stake.sol\":4399:4435  uint256[] memory withdrawableAmounts */\n      0x00\n      swap1\n        /* \"Crypto-side-main/stake.sol\":4438:4472  new uint256[](excessTokens.length) */\n      0xffffffffffffffff\n      dup2\n      gt\n      iszero\n      tag_170\n      jumpi\n      tag_170\n      tag_167\n      jump\t// in\n    tag_170:\n      mload(0x40)\n      swap1\n      dup1\n      dup3\n      mstore\n      dup1\n      0x20\n      mul\n      0x20\n      add\n      dup3\n      add\n      0x40\n      mstore\n      dup1\n      iszero\n      tag_171\n      jumpi\n      dup2\n      0x20\n      add\n      0x20\n      dup3\n      mul\n      dup1\n      calldatasize\n      dup4\n      calldatacopy\n      add\n      swap1\n      pop\n    tag_171:\n      pop\n        /* \"Crypto-side-main/stake.sol\":4399:4472  uint256[] memory withdrawableAmounts = new uint256[](excessTokens.length) */\n      swap1\n      pop\n        /* \"Crypto-side-main/stake.sol\":4488:4494  uint i */\n      0x00\n        /* \"Crypto-side-main/stake.sol\":4483:4839  for (uint i = 0; i < excessTokens.length; i++) {... */\n    tag_172:\n        /* \"Crypto-side-main/stake.sol\":4504:4516  excessTokens */\n      0x04\n        /* \"Crypto-side-main/stake.sol\":4504:4523  excessTokens.length */\n      sload\n        /* \"Crypto-side-main/stake.sol\":4500:4523  i < excessTokens.length */\n      dup2\n      lt\n        /* \"Crypto-side-main/stake.sol\":4483:4839  for (uint i = 0; i < excessTokens.length; i++) {... */\n      iszero\n      tag_173\n      jumpi\n        /* \"Crypto-side-main/stake.sol\":4572:4584  excessTokens */\n      0x04\n        /* \"Crypto-side-main/stake.sol\":4585:4586  i */\n      dup2\n        /* \"Crypto-side-main/stake.sol\":4572:4587  excessTokens[i] */\n      dup2\n      sload\n      dup2\n      lt\n      tag_176\n      jumpi\n      tag_176\n      tag_115\n      jump\t// in\n    tag_176:\n      swap1\n      0x00\n      mstore\n      keccak256(0x00, 0x20)\n      add\n      0x00\n      swap1\n      sload\n      swap1\n      0x0100\n      exp\n      swap1\n      div\n      sub(shl(0xa0, 0x01), 0x01)\n      and\n        /* \"Crypto-side-main/stake.sol\":4544:4558  tokenAddresses */\n      dup4\n        /* \"Crypto-side-main/stake.sol\":4559:4560  i */\n      dup3\n        /* \"Crypto-side-main/stake.sol\":4544:4561  tokenAddresses[i] */\n      dup2\n      mload\n      dup2\n      lt\n      tag_179\n      jumpi\n      tag_179\n      tag_115\n      jump\t// in\n    tag_179:\n      0x20\n      mul\n      0x20\n      add\n      add\n        /* \"Crypto-side-main/stake.sol\":4544:4588  tokenAddresses[i] = address(excessTokens[i]) */\n      swap1\n      sub(shl(0xa0, 0x01), 0x01)\n      and\n      swap1\n      dup2\n      sub(shl(0xa0, 0x01), 0x01)\n      and\n      dup2\n      mstore\n      pop\n      pop\n        /* \"Crypto-side-main/stake.sol\":4602:4628  uint256 excessTokenBalance */\n      0x00\n        /* \"Crypto-side-main/stake.sol\":4631:4643  excessTokens */\n      0x04\n        /* \"Crypto-side-main/stake.sol\":4644:4645  i */\n      dup3\n        /* \"Crypto-side-main/stake.sol\":4631:4646  excessTokens[i] */\n      dup2\n      sload\n      dup2\n      lt\n      tag_181\n      jumpi\n      tag_181\n      tag_115\n      jump\t// in\n    tag_181:\n      0x00\n      swap2\n      dup3\n      mstore\n      0x20\n      swap1\n      swap2\n      keccak256\n      add\n      sload\n        /* \"Crypto-side-main/stake.sol\":4631:4671  excessTokens[i].balanceOf(address(this)) */\n      mload(0x40)\n      shl(0xe0, 0x70a08231)\n      dup2\n      mstore\n        /* \"Crypto-side-main/stake.sol\":4665:4669  this */\n      address\n        /* \"Crypto-side-main/stake.sol\":4631:4671  excessTokens[i].balanceOf(address(this)) */\n      0x04\n      dup3\n      add\n        /* \"#utility.yul\":744:795   */\n      mstore\n      sub(shl(0xa0, 0x01), 0x01)\n        /* \"Crypto-side-main/stake.sol\":4631:4646  excessTokens[i] */\n      swap1\n      swap2\n      and\n      swap1\n        /* \"Crypto-side-main/stake.sol\":4631:4656  excessTokens[i].balanceOf */\n      0x70a08231\n      swap1\n        /* \"#utility.yul\":717:735   */\n      0x24\n      add\n        /* \"Crypto-side-main/stake.sol\":4631:4671  excessTokens[i].balanceOf(address(this)) */\n      0x20\n      mload(0x40)\n      dup1\n      dup4\n      sub\n      dup2\n      dup7\n      gas\n      staticcall\n      iszero\n      dup1\n      iszero\n      tag_185\n      jumpi\n      returndatasize\n      0x00\n      dup1\n      returndatacopy\n      revert(0x00, returndatasize)\n    tag_185:\n      pop\n      pop\n      pop\n      pop\n      mload(0x40)\n      returndatasize\n      not(0x1f)\n      0x1f\n      dup3\n      add\n      and\n      dup3\n      add\n      dup1\n      0x40\n      mstore\n      pop\n      dup2\n      add\n      swap1\n      tag_186\n      swap2\n      swap1\n      tag_121\n      jump\t// in\n    tag_186:\n        /* \"Crypto-side-main/stake.sol\":4602:4671  uint256 excessTokenBalance = excessTokens[i].balanceOf(address(this)) */\n      swap1\n      pop\n        /* \"Crypto-side-main/stake.sol\":4685:4705  uint256 rebaseAmount */\n      0x00\n        /* \"Crypto-side-main/stake.sol\":4753:4776  currentdistrbutedBCKGOV */\n      sload(0x06)\n        /* \"Crypto-side-main/stake.sol\":4730:4750  withdrawableInterest */\n      dup7\n        /* \"Crypto-side-main/stake.sol\":4730:4776  withdrawableInterest / currentdistrbutedBCKGOV */\n      tag_187\n      swap2\n      swap1\n      tag_123\n      jump\t// in\n    tag_187:\n        /* \"Crypto-side-main/stake.sol\":4708:4777  excessTokenBalance * (withdrawableInterest / currentdistrbutedBCKGOV) */\n      tag_188\n      swap1\n        /* \"Crypto-side-main/stake.sol\":4708:4726  excessTokenBalance */\n      dup4\n        /* \"Crypto-side-main/stake.sol\":4708:4777  excessTokenBalance * (withdrawableInterest / currentdistrbutedBCKGOV) */\n      tag_125\n      jump\t// in\n    tag_188:\n        /* \"Crypto-side-main/stake.sol\":4685:4777  uint256 rebaseAmount = excessTokenBalance * (withdrawableInterest / currentdistrbutedBCKGOV) */\n      swap1\n      pop\n        /* \"Crypto-side-main/stake.sol\":4816:4828  rebaseAmount */\n      dup1\n        /* \"Crypto-side-main/stake.sol\":4791:4810  withdrawableAmounts */\n      dup5\n        /* \"Crypto-side-main/stake.sol\":4811:4812  i */\n      dup5\n        /* \"Crypto-side-main/stake.sol\":4791:4813  withdrawableAmounts[i] */\n      dup2\n      mload\n      dup2\n      lt\n      tag_190\n      jumpi\n      tag_190\n      tag_115\n      jump\t// in\n    tag_190:\n      0x20\n      swap1\n      dup2\n      mul\n      swap2\n      swap1\n      swap2\n      add\n      add\n        /* \"Crypto-side-main/stake.sol\":4791:4828  withdrawableAmounts[i] = rebaseAmount */\n      mstore\n      pop\n      pop\n        /* \"Crypto-side-main/stake.sol\":4525:4528  i++ */\n      0x01\n      add\n        /* \"Crypto-side-main/stake.sol\":4483:4839  for (uint i = 0; i < excessTokens.length; i++) {... */\n      jump(tag_172)\n    tag_173:\n      pop\n        /* \"Crypto-side-main/stake.sol\":4856:4870  tokenAddresses */\n      swap1\n      swap7\n      swap1\n      swap6\n      pop\n        /* \"Crypto-side-main/stake.sol\":4893:4913  withdrawableInterest */\n      swap1\n      swap4\n      pop\n        /* \"Crypto-side-main/stake.sol\":4041:4921  function excessBCKGOVTest(address _user) public view returns (address[] memory, uint256[] memory, uint) {... */\n      swap2\n      pop\n      pop\n      jump\t// out\n        /* \"Crypto-side-main/ds-auth.sol\":1309:1476  function setAuthority(DSAuthority authority_)... */\n    tag_60:\n        /* \"Crypto-side-main/ds-auth.sol\":1514:1547  isAuthorized(msg.sender, msg.sig) */\n      tag_192\n        /* \"Crypto-side-main/ds-auth.sol\":1527:1537  msg.sender */\n      caller\n        /* \"Crypto-side-main/ds-auth.sol\":1539:1546  msg.sig */\n      and(not(sub(shl(0xe0, 0x01), 0x01)), calldataload(0x00))\n        /* \"Crypto-side-main/ds-auth.sol\":1514:1526  isAuthorized */\n      tag_101\n        /* \"Crypto-side-main/ds-auth.sol\":1514:1547  isAuthorized(msg.sender, msg.sig) */\n      jump\t// in\n    tag_192:\n        /* \"Crypto-side-main/ds-auth.sol\":1506:1572  require(isAuthorized(msg.sender, msg.sig), \"ds-auth-unauthorized\") */\n      tag_193\n      jumpi\n      mload(0x40)\n      shl(0xe5, 0x461bcd)\n      dup2\n      mstore\n      0x04\n      add\n      tag_136\n      swap1\n      tag_158\n      jump\t// in\n    tag_193:\n        /* \"Crypto-side-main/ds-auth.sol\":1397:1406  authority */\n      0x00\n        /* \"Crypto-side-main/ds-auth.sol\":1397:1419  authority = authority_ */\n      dup1\n      sload\n      not(sub(shl(0xa0, 0x01), 0x01))\n      and\n      sub(shl(0xa0, 0x01), 0x01)\n      dup4\n      and\n      swap1\n      dup2\n      or\n      dup3\n      sstore\n        /* \"Crypto-side-main/ds-auth.sol\":1434:1469  LogSetAuthority(address(authority)) */\n      mload(0x40)\n        /* \"Crypto-side-main/ds-auth.sol\":1397:1419  authority = authority_ */\n      swap1\n      swap2\n        /* \"Crypto-side-main/ds-auth.sol\":1434:1469  LogSetAuthority(address(authority)) */\n      0x1abebea81bfa2637f28358c371278fb15ede7ea8dd28d2e03b112ff6d936ada4\n      swap2\n      log2\n        /* \"Crypto-side-main/ds-auth.sol\":1309:1476  function setAuthority(DSAuthority authority_)... */\n      pop\n      jump\t// out\n        /* \"Crypto-side-main/stake.sol\":385:414  DSToken[] public excessTokens */\n    tag_67:\n      0x04\n      dup2\n      dup2\n      sload\n      dup2\n      lt\n      tag_196\n      jumpi\n      0x00\n      dup1\n      revert\n    tag_196:\n      0x00\n      swap2\n      dup3\n      mstore\n      0x20\n      swap1\n      swap2\n      keccak256\n      add\n      sload\n      sub(shl(0xa0, 0x01), 0x01)\n      and\n      swap1\n      pop\n      dup2\n      jump\t// out\n        /* \"Crypto-side-main/stake.sol\":4927:5161  function accumulativeInterestOf(address _owner) public view returns(uint256) {... */\n    tag_76:\n      sub(shl(0xa0, 0x01), 0x01)\n        /* \"Crypto-side-main/stake.sol\":5091:5127  magnifiedInterestCorrections[_owner] */\n      dup2\n      and\n        /* \"Crypto-side-main/stake.sol\":4995:5002  uint256 */\n      0x00\n        /* \"Crypto-side-main/stake.sol\":5091:5127  magnifiedInterestCorrections[_owner] */\n      swap1\n      dup2\n      mstore\n        /* \"Crypto-side-main/stake.sol\":5091:5119  magnifiedInterestCorrections */\n      0x08\n        /* \"Crypto-side-main/stake.sol\":5091:5127  magnifiedInterestCorrections[_owner] */\n      0x20\n      swap1\n      dup2\n      mstore\n      0x40\n      dup1\n      dup4\n      keccak256\n      sload\n        /* \"Crypto-side-main/stake.sol\":5047:5055  balances */\n      0x0a\n        /* \"Crypto-side-main/stake.sol\":5047:5063  balances[_owner] */\n      swap1\n      swap3\n      mstore\n      dup3\n      keccak256\n      sload\n        /* \"Crypto-side-main/stake.sol\":5017:5042  magnifiedInterestPerShare */\n      sload(0x05)\n      shl(0x80, 0x01)\n        /* \"Crypto-side-main/stake.sol\":459:465  2**128 */\n      swap3\n        /* \"Crypto-side-main/stake.sol\":5017:5144  magnifiedInterestPerShare.mul(balances[_owner]).toInt256Safe()... */\n      tag_199\n      swap3\n        /* \"Crypto-side-main/stake.sol\":5017:5128  magnifiedInterestPerShare.mul(balances[_owner]).toInt256Safe()... */\n      tag_200\n      swap3\n        /* \"Crypto-side-main/stake.sol\":5017:5079  magnifiedInterestPerShare.mul(balances[_owner]).toInt256Safe() */\n      tag_201\n      swap2\n        /* \"Crypto-side-main/stake.sol\":5017:5064  magnifiedInterestPerShare.mul(balances[_owner]) */\n      tag_202\n      swap2\n        /* \"Crypto-side-main/stake.sol\":5017:5042  magnifiedInterestPerShare */\n      swap1\n        /* \"Crypto-side-main/stake.sol\":5017:5046  magnifiedInterestPerShare.mul */\n      tag_203\n        /* \"Crypto-side-main/stake.sol\":5017:5064  magnifiedInterestPerShare.mul(balances[_owner]) */\n      jump\t// in\n    tag_202:\n        /* \"Crypto-side-main/stake.sol\":5017:5077  magnifiedInterestPerShare.mul(balances[_owner]).toInt256Safe */\n      tag_204\n        /* \"Crypto-side-main/stake.sol\":5017:5079  magnifiedInterestPerShare.mul(balances[_owner]).toInt256Safe() */\n      jump\t// in\n    tag_201:\n        /* \"Crypto-side-main/stake.sol\":5017:5090  magnifiedInterestPerShare.mul(balances[_owner]).toInt256Safe()... */\n      swap1\n      tag_205\n        /* \"Crypto-side-main/stake.sol\":5017:5128  magnifiedInterestPerShare.mul(balances[_owner]).toInt256Safe()... */\n      jump\t// in\n    tag_200:\n        /* \"Crypto-side-main/stake.sol\":5017:5142  magnifiedInterestPerShare.mul(balances[_owner]).toInt256Safe()... */\n      tag_206\n        /* \"Crypto-side-main/stake.sol\":5017:5144  magnifiedInterestPerShare.mul(balances[_owner]).toInt256Safe()... */\n      jump\t// in\n    tag_199:\n        /* \"Crypto-side-main/stake.sol\":5017:5156  magnifiedInterestPerShare.mul(balances[_owner]).toInt256Safe()... */\n      tag_151\n      swap2\n      swap1\n      tag_123\n      jump\t// in\n        /* \"Crypto-side-main/stake.sol\":2279:3034  function distributeBCKGOV(uint256 _amount) public {... */\n    tag_80:\n        /* \"Crypto-side-main/stake.sol\":2406:2414  esBCKGOV */\n      sload(0x03)\n        /* \"Crypto-side-main/stake.sol\":2406:2436  esBCKGOV.balanceOf(msg.sender) */\n      mload(0x40)\n      shl(0xe0, 0x70a08231)\n      dup2\n      mstore\n        /* \"Crypto-side-main/stake.sol\":2425:2435  msg.sender */\n      caller\n        /* \"Crypto-side-main/stake.sol\":2406:2436  esBCKGOV.balanceOf(msg.sender) */\n      0x04\n      dup3\n      add\n        /* \"#utility.yul\":744:795   */\n      mstore\n        /* \"Crypto-side-main/stake.sol\":2377:2403  uint256 ownerBCKGOVBalance */\n      0x00\n      swap2\n      sub(shl(0xa0, 0x01), 0x01)\n        /* \"Crypto-side-main/stake.sol\":2406:2414  esBCKGOV */\n      and\n      swap1\n        /* \"Crypto-side-main/stake.sol\":2406:2424  esBCKGOV.balanceOf */\n      0x70a08231\n      swap1\n        /* \"#utility.yul\":717:735   */\n      0x24\n      add\n        /* \"Crypto-side-main/stake.sol\":2406:2436  esBCKGOV.balanceOf(msg.sender) */\n      0x20\n      mload(0x40)\n      dup1\n      dup4\n      sub\n      dup2\n      dup7\n      gas\n      staticcall\n      iszero\n      dup1\n      iszero\n      tag_211\n      jumpi\n      returndatasize\n      0x00\n      dup1\n      returndatacopy\n      revert(0x00, returndatasize)\n    tag_211:\n      pop\n      pop\n      pop\n      pop\n      mload(0x40)\n      returndatasize\n      not(0x1f)\n      0x1f\n      dup3\n      add\n      and\n      dup3\n      add\n      dup1\n      0x40\n      mstore\n      pop\n      dup2\n      add\n      swap1\n      tag_212\n      swap2\n      swap1\n      tag_121\n      jump\t// in\n    tag_212:\n        /* \"Crypto-side-main/stake.sol\":2377:2436  uint256 ownerBCKGOVBalance = esBCKGOV.balanceOf(msg.sender) */\n      swap1\n      pop\n        /* \"Crypto-side-main/stake.sol\":2472:2479  _amount */\n      dup2\n        /* \"Crypto-side-main/stake.sol\":2450:2468  ownerBCKGOVBalance */\n      dup2\n        /* \"Crypto-side-main/stake.sol\":2450:2479  ownerBCKGOVBalance >= _amount */\n      lt\n      iszero\n        /* \"Crypto-side-main/stake.sol\":2442:2519  require(ownerBCKGOVBalance >= _amount, \"Owner has insufficient USDC balance\") */\n      tag_213\n      jumpi\n      mload(0x40)\n      shl(0xe5, 0x461bcd)\n      dup2\n      mstore\n        /* \"#utility.yul\":7651:7653   */\n      0x20\n        /* \"Crypto-side-main/stake.sol\":2442:2519  require(ownerBCKGOVBalance >= _amount, \"Owner has insufficient USDC balance\") */\n      0x04\n      dup3\n      add\n        /* \"#utility.yul\":7633:7654   */\n      mstore\n        /* \"#utility.yul\":7690:7692   */\n      0x23\n        /* \"#utility.yul\":7670:7688   */\n      0x24\n      dup3\n      add\n        /* \"#utility.yul\":7663:7693   */\n      mstore\n        /* \"#utility.yul\":7729:7763   */\n      0x4f776e65722068617320696e73756666696369656e7420555344432062616c61\n        /* \"#utility.yul\":7709:7727   */\n      0x44\n      dup3\n      add\n        /* \"#utility.yul\":7702:7764   */\n      mstore\n      shl(0xe8, 0x6e6365)\n        /* \"#utility.yul\":7780:7798   */\n      0x64\n      dup3\n      add\n        /* \"#utility.yul\":7773:7806   */\n      mstore\n        /* \"#utility.yul\":7823:7842   */\n      0x84\n      add\n        /* \"Crypto-side-main/stake.sol\":2442:2519  require(ownerBCKGOVBalance >= _amount, \"Owner has insufficient USDC balance\") */\n      tag_136\n        /* \"#utility.yul\":7449:7848   */\n      jump\n        /* \"Crypto-side-main/stake.sol\":2442:2519  require(ownerBCKGOVBalance >= _amount, \"Owner has insufficient USDC balance\") */\n    tag_213:\n        /* \"Crypto-side-main/stake.sol\":2579:2592  totalDeposits */\n      sload(0x0b)\n        /* \"Crypto-side-main/stake.sol\":2579:2596  totalDeposits > 0 */\n      iszero\n        /* \"Crypto-side-main/stake.sol\":2575:2739  if (totalDeposits > 0) {... */\n      tag_216\n      jumpi\n        /* \"Crypto-side-main/stake.sol\":2708:2721  totalDeposits */\n      sload(0x0b)\n        /* \"Crypto-side-main/stake.sol\":2636:2732  magnifiedInterestPerShare.add(... */\n      tag_217\n      swap1\n        /* \"Crypto-side-main/stake.sol\":2679:2722  (_amount).mul(magnitude).div(totalDeposits) */\n      tag_218\n      swap1\n        /* \"Crypto-side-main/stake.sol\":2679:2703  (_amount).mul(magnitude) */\n      tag_219\n        /* \"Crypto-side-main/stake.sol\":2680:2687  _amount */\n      dup6\n      shl(0x80, 0x01)\n        /* \"Crypto-side-main/stake.sol\":2679:2692  (_amount).mul */\n      tag_203\n        /* \"Crypto-side-main/stake.sol\":2679:2703  (_amount).mul(magnitude) */\n      jump\t// in\n    tag_219:\n        /* \"Crypto-side-main/stake.sol\":2679:2707  (_amount).mul(magnitude).div */\n      swap1\n      tag_220\n        /* \"Crypto-side-main/stake.sol\":2679:2722  (_amount).mul(magnitude).div(totalDeposits) */\n      jump\t// in\n    tag_218:\n        /* \"Crypto-side-main/stake.sol\":2636:2661  magnifiedInterestPerShare */\n      sload(0x05)\n      swap1\n        /* \"Crypto-side-main/stake.sol\":2636:2665  magnifiedInterestPerShare.add */\n      tag_221\n        /* \"Crypto-side-main/stake.sol\":2636:2732  magnifiedInterestPerShare.add(... */\n      jump\t// in\n    tag_217:\n        /* \"Crypto-side-main/stake.sol\":2608:2633  magnifiedInterestPerShare */\n      0x05\n        /* \"Crypto-side-main/stake.sol\":2608:2732  magnifiedInterestPerShare = magnifiedInterestPerShare.add(... */\n      sstore\n        /* \"Crypto-side-main/stake.sol\":2575:2739  if (totalDeposits > 0) {... */\n    tag_216:\n        /* \"Crypto-side-main/stake.sol\":2772:2779  _amount */\n      dup2\n        /* \"Crypto-side-main/stake.sol\":2745:2768  currentdistrbutedBCKGOV */\n      0x06\n      0x00\n        /* \"Crypto-side-main/stake.sol\":2745:2779  currentdistrbutedBCKGOV += _amount */\n      dup3\n      dup3\n      sload\n      tag_222\n      swap2\n      swap1\n      tag_139\n      jump\t// in\n    tag_222:\n      swap3\n      pop\n      pop\n      dup2\n      swap1\n      sstore\n      pop\n        /* \"Crypto-side-main/stake.sol\":2806:2813  _amount */\n      dup2\n        /* \"Crypto-side-main/stake.sol\":2786:2802  totalDistributed */\n      0x07\n      0x00\n        /* \"Crypto-side-main/stake.sol\":2786:2813  totalDistributed += _amount */\n      dup3\n      dup3\n      sload\n      tag_223\n      swap2\n      swap1\n      tag_139\n      jump\t// in\n    tag_223:\n      swap1\n      swap2\n      sstore\n      pop\n      pop\n        /* \"Crypto-side-main/stake.sol\":2897:2935  BCKGOVDistributed(msg.sender, _amount) */\n      mload(0x40)\n        /* \"#utility.yul\":548:573   */\n      dup3\n      dup2\n      mstore\n        /* \"Crypto-side-main/stake.sol\":2915:2925  msg.sender */\n      caller\n      swap1\n        /* \"Crypto-side-main/stake.sol\":2897:2935  BCKGOVDistributed(msg.sender, _amount) */\n      0x04c03fe3ea6a2027470af10696e6e65a7eae16de0bd8ecf5f6d33b776de097a3\n      swap1\n        /* \"#utility.yul\":536:538   */\n      0x20\n        /* \"#utility.yul\":521:539   */\n      add\n        /* \"Crypto-side-main/stake.sol\":2897:2935  BCKGOVDistributed(msg.sender, _amount) */\n      mload(0x40)\n      dup1\n      swap2\n      sub\n      swap1\n      log2\n        /* \"Crypto-side-main/stake.sol\":2949:2957  esBCKGOV */\n      sload(0x03)\n        /* \"Crypto-side-main/stake.sol\":2949:3006  esBCKGOV.transferFrom(msg.sender, address(this), _amount) */\n      mload(0x40)\n      shl(0xe0, 0x23b872dd)\n      dup2\n      mstore\n        /* \"Crypto-side-main/stake.sol\":2971:2981  msg.sender */\n      caller\n        /* \"Crypto-side-main/stake.sol\":2949:3006  esBCKGOV.transferFrom(msg.sender, address(this), _amount) */\n      0x04\n      dup3\n      add\n        /* \"#utility.yul\":4890:4924   */\n      mstore\n        /* \"Crypto-side-main/stake.sol\":2991:2995  this */\n      address\n        /* \"#utility.yul\":4940:4958   */\n      0x24\n      dup3\n      add\n        /* \"#utility.yul\":4933:4976   */\n      mstore\n        /* \"#utility.yul\":4992:5010   */\n      0x44\n      dup2\n      add\n        /* \"#utility.yul\":4985:5019   */\n      dup5\n      swap1\n      mstore\n      sub(shl(0xa0, 0x01), 0x01)\n        /* \"Crypto-side-main/stake.sol\":2949:2957  esBCKGOV */\n      swap1\n      swap2\n      and\n      swap1\n        /* \"Crypto-side-main/stake.sol\":2949:2970  esBCKGOV.transferFrom */\n      0x23b872dd\n      swap1\n        /* \"#utility.yul\":4825:4843   */\n      0x64\n      add\n        /* \"Crypto-side-main/stake.sol\":2949:3006  esBCKGOV.transferFrom(msg.sender, address(this), _amount) */\n      0x20\n      mload(0x40)\n      dup1\n      dup4\n      sub\n      dup2\n      0x00\n      dup8\n      gas\n      call\n      iszero\n      dup1\n      iszero\n      tag_227\n      jumpi\n      returndatasize\n      0x00\n      dup1\n      returndatacopy\n      revert(0x00, returndatasize)\n    tag_227:\n      pop\n      pop\n      pop\n      pop\n      mload(0x40)\n      returndatasize\n      not(0x1f)\n      0x1f\n      dup3\n      add\n      and\n      dup3\n      add\n      dup1\n      0x40\n      mstore\n      pop\n      dup2\n      add\n      swap1\n      tag_228\n      swap2\n      swap1\n      tag_134\n      jump\t// in\n    tag_228:\n        /* \"Crypto-side-main/stake.sol\":2941:3031  require(esBCKGOV.transferFrom(msg.sender, address(this), _amount), \"USDC transfer failed\") */\n      tag_229\n      jumpi\n      mload(0x40)\n      shl(0xe5, 0x461bcd)\n      dup2\n      mstore\n        /* \"#utility.yul\":6406:6408   */\n      0x20\n        /* \"Crypto-side-main/stake.sol\":2941:3031  require(esBCKGOV.transferFrom(msg.sender, address(this), _amount), \"USDC transfer failed\") */\n      0x04\n      dup3\n      add\n        /* \"#utility.yul\":6388:6409   */\n      mstore\n        /* \"#utility.yul\":6445:6447   */\n      0x14\n        /* \"#utility.yul\":6425:6443   */\n      0x24\n      dup3\n      add\n        /* \"#utility.yul\":6418:6448   */\n      mstore\n      shl(0x62, 0x1554d110c81d1c985b9cd9995c8819985a5b1959)\n        /* \"#utility.yul\":6464:6482   */\n      0x44\n      dup3\n      add\n        /* \"#utility.yul\":6457:6507   */\n      mstore\n        /* \"#utility.yul\":6524:6542   */\n      0x64\n      add\n        /* \"Crypto-side-main/stake.sol\":2941:3031  require(esBCKGOV.transferFrom(msg.sender, address(this), _amount), \"USDC transfer failed\") */\n      tag_136\n        /* \"#utility.yul\":6204:6548   */\n      jump\n        /* \"Crypto-side-main/stake.sol\":2941:3031  require(esBCKGOV.transferFrom(msg.sender, address(this), _amount), \"USDC transfer failed\") */\n    tag_229:\n        /* \"Crypto-side-main/stake.sol\":2329:3034  {... */\n      pop\n        /* \"Crypto-side-main/stake.sol\":2279:3034  function distributeBCKGOV(uint256 _amount) public {... */\n      pop\n      jump\t// out\n        /* \"Crypto-side-main/stake.sol\":1170:1692  function depositBCK(uint256 _amount) public {... */\n    tag_83:\n        /* \"Crypto-side-main/stake.sol\":1228:1231  bck */\n      sload(0x02)\n        /* \"Crypto-side-main/stake.sol\":1228:1280  bck.transferFrom(msg.sender, address(this), _amount) */\n      mload(0x40)\n      shl(0xe0, 0x23b872dd)\n      dup2\n      mstore\n        /* \"Crypto-side-main/stake.sol\":1245:1255  msg.sender */\n      caller\n        /* \"Crypto-side-main/stake.sol\":1228:1280  bck.transferFrom(msg.sender, address(this), _amount) */\n      0x04\n      dup3\n      add\n        /* \"#utility.yul\":4890:4924   */\n      mstore\n        /* \"Crypto-side-main/stake.sol\":1265:1269  this */\n      address\n        /* \"#utility.yul\":4940:4958   */\n      0x24\n      dup3\n      add\n        /* \"#utility.yul\":4933:4976   */\n      mstore\n        /* \"#utility.yul\":4992:5010   */\n      0x44\n      dup2\n      add\n        /* \"#utility.yul\":4985:5019   */\n      dup4\n      swap1\n      mstore\n      sub(shl(0xa0, 0x01), 0x01)\n        /* \"Crypto-side-main/stake.sol\":1228:1231  bck */\n      swap1\n      swap2\n      and\n      swap1\n        /* \"Crypto-side-main/stake.sol\":1228:1244  bck.transferFrom */\n      0x23b872dd\n      swap1\n        /* \"#utility.yul\":4825:4843   */\n      0x64\n      add\n        /* \"Crypto-side-main/stake.sol\":1228:1280  bck.transferFrom(msg.sender, address(this), _amount) */\n      0x20\n      mload(0x40)\n      dup1\n      dup4\n      sub\n      dup2\n      0x00\n      dup8\n      gas\n      call\n      iszero\n      dup1\n      iszero\n      tag_234\n      jumpi\n      returndatasize\n      0x00\n      dup1\n      returndatacopy\n      revert(0x00, returndatasize)\n    tag_234:\n      pop\n      pop\n      pop\n      pop\n      mload(0x40)\n      returndatasize\n      not(0x1f)\n      0x1f\n      dup3\n      add\n      and\n      dup3\n      add\n      dup1\n      0x40\n      mstore\n      pop\n      dup2\n      add\n      swap1\n      tag_235\n      swap2\n      swap1\n      tag_134\n      jump\t// in\n    tag_235:\n        /* \"Crypto-side-main/stake.sol\":1220:1304  require(bck.transferFrom(msg.sender, address(this), _amount), \"BCK transfer failed\") */\n      tag_236\n      jumpi\n      mload(0x40)\n      shl(0xe5, 0x461bcd)\n      dup2\n      mstore\n        /* \"#utility.yul\":8055:8057   */\n      0x20\n        /* \"Crypto-side-main/stake.sol\":1220:1304  require(bck.transferFrom(msg.sender, address(this), _amount), \"BCK transfer failed\") */\n      0x04\n      dup3\n      add\n        /* \"#utility.yul\":8037:8058   */\n      mstore\n        /* \"#utility.yul\":8094:8096   */\n      0x13\n        /* \"#utility.yul\":8074:8092   */\n      0x24\n      dup3\n      add\n        /* \"#utility.yul\":8067:8097   */\n      mstore\n      shl(0x6a, 0x1090d2c81d1c985b9cd9995c8819985a5b1959)\n        /* \"#utility.yul\":8113:8131   */\n      0x44\n      dup3\n      add\n        /* \"#utility.yul\":8106:8155   */\n      mstore\n        /* \"#utility.yul\":8172:8190   */\n      0x64\n      add\n        /* \"Crypto-side-main/stake.sol\":1220:1304  require(bck.transferFrom(msg.sender, address(this), _amount), \"BCK transfer failed\") */\n      tag_136\n        /* \"#utility.yul\":7853:8196   */\n      jump\n        /* \"Crypto-side-main/stake.sol\":1220:1304  require(bck.transferFrom(msg.sender, address(this), _amount), \"BCK transfer failed\") */\n    tag_236:\n        /* \"Crypto-side-main/stake.sol\":1505:1617  magnifiedInterestCorrections[msg.sender]... */\n      tag_239\n        /* \"Crypto-side-main/stake.sol\":1560:1615  (magnifiedInterestPerShare.mul(_amount)).toInt256Safe() */\n      tag_240\n        /* \"Crypto-side-main/stake.sol\":1561:1599  magnifiedInterestPerShare.mul(_amount) */\n      tag_202\n        /* \"Crypto-side-main/stake.sol\":1591:1598  _amount */\n      dup4\n        /* \"Crypto-side-main/stake.sol\":1561:1586  magnifiedInterestPerShare */\n      sload(0x05)\n        /* \"Crypto-side-main/stake.sol\":1561:1590  magnifiedInterestPerShare.mul */\n      tag_203\n      swap1\n        /* \"Crypto-side-main/stake.sol\":1561:1599  magnifiedInterestPerShare.mul(_amount) */\n      swap2\n      swap1\n      0xffffffff\n      and\n      jump\t// in\n        /* \"Crypto-side-main/stake.sol\":1560:1615  (magnifiedInterestPerShare.mul(_amount)).toInt256Safe() */\n    tag_240:\n        /* \"Crypto-side-main/stake.sol\":1534:1544  msg.sender */\n      caller\n        /* \"Crypto-side-main/stake.sol\":1505:1545  magnifiedInterestCorrections[msg.sender] */\n      0x00\n      swap1\n      dup2\n      mstore\n        /* \"Crypto-side-main/stake.sol\":1505:1533  magnifiedInterestCorrections */\n      0x08\n        /* \"Crypto-side-main/stake.sol\":1505:1545  magnifiedInterestCorrections[msg.sender] */\n      0x20\n      mstore\n      0x40\n      swap1\n      keccak256\n      sload\n      swap1\n        /* \"Crypto-side-main/stake.sol\":1505:1558  magnifiedInterestCorrections[msg.sender]... */\n      tag_242\n        /* \"Crypto-side-main/stake.sol\":1505:1617  magnifiedInterestCorrections[msg.sender]... */\n      jump\t// in\n    tag_239:\n        /* \"Crypto-side-main/stake.sol\":1491:1501  msg.sender */\n      caller\n        /* \"Crypto-side-main/stake.sol\":1462:1502  magnifiedInterestCorrections[msg.sender] */\n      0x00\n      swap1\n      dup2\n      mstore\n        /* \"Crypto-side-main/stake.sol\":1462:1490  magnifiedInterestCorrections */\n      0x08\n        /* \"Crypto-side-main/stake.sol\":1462:1502  magnifiedInterestCorrections[msg.sender] */\n      0x20\n      swap1\n      dup2\n      mstore\n      0x40\n      dup1\n      dup4\n      keccak256\n        /* \"Crypto-side-main/stake.sol\":1462:1617  magnifiedInterestCorrections[msg.sender] = magnifiedInterestCorrections[msg.sender]... */\n      swap4\n      swap1\n      swap4\n      sstore\n        /* \"Crypto-side-main/stake.sol\":1624:1632  balances */\n      0x0a\n        /* \"Crypto-side-main/stake.sol\":1624:1644  balances[msg.sender] */\n      swap1\n      mstore\n      swap1\n      dup2\n      keccak256\n        /* \"Crypto-side-main/stake.sol\":1624:1657  balances[msg.sender] += (_amount) */\n      dup1\n      sload\n        /* \"Crypto-side-main/stake.sol\":1649:1656  _amount */\n      dup4\n      swap3\n        /* \"Crypto-side-main/stake.sol\":1462:1502  magnifiedInterestCorrections[msg.sender] */\n      swap1\n        /* \"Crypto-side-main/stake.sol\":1624:1657  balances[msg.sender] += (_amount) */\n      tag_243\n      swap1\n        /* \"Crypto-side-main/stake.sol\":1649:1656  _amount */\n      dup5\n      swap1\n        /* \"Crypto-side-main/stake.sol\":1624:1657  balances[msg.sender] += (_amount) */\n      tag_139\n      jump\t// in\n    tag_243:\n      swap3\n      pop\n      pop\n      dup2\n      swap1\n      sstore\n      pop\n        /* \"Crypto-side-main/stake.sol\":1681:1688  _amount */\n      dup1\n        /* \"Crypto-side-main/stake.sol\":1663:1676  totalDeposits */\n      0x0b\n      0x00\n        /* \"Crypto-side-main/stake.sol\":1663:1689  totalDeposits += (_amount) */\n      dup3\n      dup3\n      sload\n      tag_244\n      swap2\n      swap1\n      tag_139\n      jump\t// in\n    tag_244:\n      swap1\n      swap2\n      sstore\n      pop\n      pop\n      pop\n        /* \"Crypto-side-main/stake.sol\":1170:1692  function depositBCK(uint256 _amount) public {... */\n      jump\t// out\n        /* \"Crypto-side-main/stake.sol\":1696:2275  function withdrawBCK(uint256 _amount) public {... */\n    tag_90:\n        /* \"Crypto-side-main/stake.sol\":1764:1774  msg.sender */\n      caller\n        /* \"Crypto-side-main/stake.sol\":1755:1775  balances[msg.sender] */\n      0x00\n      swap1\n      dup2\n      mstore\n        /* \"Crypto-side-main/stake.sol\":1755:1763  balances */\n      0x0a\n        /* \"Crypto-side-main/stake.sol\":1755:1775  balances[msg.sender] */\n      0x20\n      mstore\n      0x40\n      swap1\n      keccak256\n      sload\n        /* \"Crypto-side-main/stake.sol\":1755:1786  balances[msg.sender] >= _amount */\n      dup2\n      gt\n      iszero\n        /* \"Crypto-side-main/stake.sol\":1747:1815  require(balances[msg.sender] >= _amount, \"Insufficient BCK balance\") */\n      tag_246\n      jumpi\n      mload(0x40)\n      shl(0xe5, 0x461bcd)\n      dup2\n      mstore\n        /* \"#utility.yul\":8403:8405   */\n      0x20\n        /* \"Crypto-side-main/stake.sol\":1747:1815  require(balances[msg.sender] >= _amount, \"Insufficient BCK balance\") */\n      0x04\n      dup3\n      add\n        /* \"#utility.yul\":8385:8406   */\n      mstore\n        /* \"#utility.yul\":8442:8444   */\n      0x18\n        /* \"#utility.yul\":8422:8440   */\n      0x24\n      dup3\n      add\n        /* \"#utility.yul\":8415:8445   */\n      mstore\n        /* \"#utility.yul\":8481:8507   */\n      0x496e73756666696369656e742042434b2062616c616e63650000000000000000\n        /* \"#utility.yul\":8461:8479   */\n      0x44\n      dup3\n      add\n        /* \"#utility.yul\":8454:8508   */\n      mstore\n        /* \"#utility.yul\":8525:8543   */\n      0x64\n      add\n        /* \"Crypto-side-main/stake.sol\":1747:1815  require(balances[msg.sender] >= _amount, \"Insufficient BCK balance\") */\n      tag_136\n        /* \"#utility.yul\":8201:8549   */\n      jump\n        /* \"Crypto-side-main/stake.sol\":1747:1815  require(balances[msg.sender] >= _amount, \"Insufficient BCK balance\") */\n    tag_246:\n        /* \"Crypto-side-main/stake.sol\":2017:2129  magnifiedInterestCorrections[msg.sender]... */\n      tag_249\n        /* \"Crypto-side-main/stake.sol\":2072:2127  (magnifiedInterestPerShare.mul(_amount)).toInt256Safe() */\n      tag_250\n        /* \"Crypto-side-main/stake.sol\":2073:2111  magnifiedInterestPerShare.mul(_amount) */\n      tag_202\n        /* \"Crypto-side-main/stake.sol\":2103:2110  _amount */\n      dup4\n        /* \"Crypto-side-main/stake.sol\":2073:2098  magnifiedInterestPerShare */\n      sload(0x05)\n        /* \"Crypto-side-main/stake.sol\":2073:2102  magnifiedInterestPerShare.mul */\n      tag_203\n      swap1\n        /* \"Crypto-side-main/stake.sol\":2073:2111  magnifiedInterestPerShare.mul(_amount) */\n      swap2\n      swap1\n      0xffffffff\n      and\n      jump\t// in\n        /* \"Crypto-side-main/stake.sol\":2072:2127  (magnifiedInterestPerShare.mul(_amount)).toInt256Safe() */\n    tag_250:\n        /* \"Crypto-side-main/stake.sol\":2046:2056  msg.sender */\n      caller\n        /* \"Crypto-side-main/stake.sol\":2017:2057  magnifiedInterestCorrections[msg.sender] */\n      0x00\n      swap1\n      dup2\n      mstore\n        /* \"Crypto-side-main/stake.sol\":2017:2045  magnifiedInterestCorrections */\n      0x08\n        /* \"Crypto-side-main/stake.sol\":2017:2057  magnifiedInterestCorrections[msg.sender] */\n      0x20\n      mstore\n      0x40\n      swap1\n      keccak256\n      sload\n      swap1\n        /* \"Crypto-side-main/stake.sol\":2017:2070  magnifiedInterestCorrections[msg.sender]... */\n      tag_205\n        /* \"Crypto-side-main/stake.sol\":2017:2129  magnifiedInterestCorrections[msg.sender]... */\n      jump\t// in\n    tag_249:\n        /* \"Crypto-side-main/stake.sol\":2003:2013  msg.sender */\n      caller\n        /* \"Crypto-side-main/stake.sol\":1974:2014  magnifiedInterestCorrections[msg.sender] */\n      0x00\n      swap1\n      dup2\n      mstore\n        /* \"Crypto-side-main/stake.sol\":1974:2002  magnifiedInterestCorrections */\n      0x08\n        /* \"Crypto-side-main/stake.sol\":1974:2014  magnifiedInterestCorrections[msg.sender] */\n      0x20\n      swap1\n      dup2\n      mstore\n      0x40\n      dup1\n      dup4\n      keccak256\n        /* \"Crypto-side-main/stake.sol\":1974:2129  magnifiedInterestCorrections[msg.sender] = magnifiedInterestCorrections[msg.sender]... */\n      swap4\n      swap1\n      swap4\n      sstore\n        /* \"Crypto-side-main/stake.sol\":2136:2144  balances */\n      0x0a\n        /* \"Crypto-side-main/stake.sol\":2136:2156  balances[msg.sender] */\n      swap1\n      mstore\n      swap1\n      dup2\n      keccak256\n        /* \"Crypto-side-main/stake.sol\":2136:2169  balances[msg.sender] -= (_amount) */\n      dup1\n      sload\n        /* \"Crypto-side-main/stake.sol\":2161:2168  _amount */\n      dup4\n      swap3\n        /* \"Crypto-side-main/stake.sol\":1974:2014  magnifiedInterestCorrections[msg.sender] */\n      swap1\n        /* \"Crypto-side-main/stake.sol\":2136:2169  balances[msg.sender] -= (_amount) */\n      tag_252\n      swap1\n        /* \"Crypto-side-main/stake.sol\":2161:2168  _amount */\n      dup5\n      swap1\n        /* \"Crypto-side-main/stake.sol\":2136:2169  balances[msg.sender] -= (_amount) */\n      tag_141\n      jump\t// in\n    tag_252:\n      swap3\n      pop\n      pop\n      dup2\n      swap1\n      sstore\n      pop\n        /* \"Crypto-side-main/stake.sol\":2193:2200  _amount */\n      dup1\n        /* \"Crypto-side-main/stake.sol\":2175:2188  totalDeposits */\n      0x0b\n      0x00\n        /* \"Crypto-side-main/stake.sol\":2175:2201  totalDeposits -= (_amount) */\n      dup3\n      dup3\n      sload\n      tag_253\n      swap2\n      swap1\n      tag_141\n      jump\t// in\n    tag_253:\n      swap1\n      swap2\n      sstore\n      pop\n      pop\n        /* \"Crypto-side-main/stake.sol\":2215:2218  bck */\n      sload(0x02)\n        /* \"Crypto-side-main/stake.sol\":2215:2248  bck.transfer(msg.sender, _amount) */\n      mload(0x40)\n      shl(0xe0, 0xa9059cbb)\n      dup2\n      mstore\n        /* \"Crypto-side-main/stake.sol\":2228:2238  msg.sender */\n      caller\n        /* \"Crypto-side-main/stake.sol\":2215:2248  bck.transfer(msg.sender, _amount) */\n      0x04\n      dup3\n      add\n        /* \"#utility.yul\":6099:6150   */\n      mstore\n        /* \"#utility.yul\":6166:6184   */\n      0x24\n      dup2\n      add\n        /* \"#utility.yul\":6159:6193   */\n      dup4\n      swap1\n      mstore\n      sub(shl(0xa0, 0x01), 0x01)\n        /* \"Crypto-side-main/stake.sol\":2215:2218  bck */\n      swap1\n      swap2\n      and\n      swap1\n        /* \"Crypto-side-main/stake.sol\":2215:2227  bck.transfer */\n      0xa9059cbb\n      swap1\n        /* \"#utility.yul\":6072:6090   */\n      0x44\n      add\n        /* \"Crypto-side-main/stake.sol\":2215:2248  bck.transfer(msg.sender, _amount) */\n      0x20\n      mload(0x40)\n      dup1\n      dup4\n      sub\n      dup2\n      0x00\n      dup8\n      gas\n      call\n      iszero\n      dup1\n      iszero\n      tag_256\n      jumpi\n      returndatasize\n      0x00\n      dup1\n      returndatacopy\n      revert(0x00, returndatasize)\n    tag_256:\n      pop\n      pop\n      pop\n      pop\n      mload(0x40)\n      returndatasize\n      not(0x1f)\n      0x1f\n      dup3\n      add\n      and\n      dup3\n      add\n      dup1\n      0x40\n      mstore\n      pop\n      dup2\n      add\n      swap1\n      tag_257\n      swap2\n      swap1\n      tag_134\n      jump\t// in\n    tag_257:\n        /* \"Crypto-side-main/stake.sol\":2207:2272  require(bck.transfer(msg.sender, _amount), \"BCK transfer failed\") */\n      tag_147\n      jumpi\n      mload(0x40)\n      shl(0xe5, 0x461bcd)\n      dup2\n      mstore\n        /* \"#utility.yul\":8055:8057   */\n      0x20\n        /* \"Crypto-side-main/stake.sol\":2207:2272  require(bck.transfer(msg.sender, _amount), \"BCK transfer failed\") */\n      0x04\n      dup3\n      add\n        /* \"#utility.yul\":8037:8058   */\n      mstore\n        /* \"#utility.yul\":8094:8096   */\n      0x13\n        /* \"#utility.yul\":8074:8092   */\n      0x24\n      dup3\n      add\n        /* \"#utility.yul\":8067:8097   */\n      mstore\n      shl(0x6a, 0x1090d2c81d1c985b9cd9995c8819985a5b1959)\n        /* \"#utility.yul\":8113:8131   */\n      0x44\n      dup3\n      add\n        /* \"#utility.yul\":8106:8155   */\n      mstore\n        /* \"#utility.yul\":8172:8190   */\n      0x64\n      add\n        /* \"Crypto-side-main/stake.sol\":2207:2272  require(bck.transfer(msg.sender, _amount), \"BCK transfer failed\") */\n      tag_136\n        /* \"#utility.yul\":7853:8196   */\n      jump\n        /* \"Crypto-side-main/stake.sol\":999:1166  function addExcessToken(address _tokenAddress) external auth {... */\n    tag_97:\n        /* \"Crypto-side-main/ds-auth.sol\":1514:1547  isAuthorized(msg.sender, msg.sig) */\n      tag_261\n        /* \"Crypto-side-main/ds-auth.sol\":1527:1537  msg.sender */\n      caller\n        /* \"Crypto-side-main/ds-auth.sol\":1539:1546  msg.sig */\n      and(not(sub(shl(0xe0, 0x01), 0x01)), calldataload(0x00))\n        /* \"Crypto-side-main/ds-auth.sol\":1514:1526  isAuthorized */\n      tag_101\n        /* \"Crypto-side-main/ds-auth.sol\":1514:1547  isAuthorized(msg.sender, msg.sig) */\n      jump\t// in\n    tag_261:\n        /* \"Crypto-side-main/ds-auth.sol\":1506:1572  require(isAuthorized(msg.sender, msg.sig), \"ds-auth-unauthorized\") */\n      tag_262\n      jumpi\n      mload(0x40)\n      shl(0xe5, 0x461bcd)\n      dup2\n      mstore\n      0x04\n      add\n      tag_136\n      swap1\n      tag_158\n      jump\t// in\n    tag_262:\n        /* \"Crypto-side-main/stake.sol\":1101:1109  esBCKGOV */\n      sload(0x03)\n      sub(shl(0xa0, 0x01), 0x01)\n      swap1\n      dup2\n      and\n        /* \"Crypto-side-main/stake.sol\":1076:1110  _tokenAddress != address(esBCKGOV) */\n      swap1\n      dup3\n      and\n      sub\n        /* \"Crypto-side-main/stake.sol\":1068:1112  require(_tokenAddress != address(esBCKGOV) ) */\n      tag_265\n      jumpi\n      0x00\n      dup1\n      revert\n    tag_265:\n        /* \"Crypto-side-main/stake.sol\":1122:1134  excessTokens */\n      0x04\n        /* \"Crypto-side-main/stake.sol\":1122:1163  excessTokens.push(DSToken(_tokenAddress)) */\n      dup1\n      sload\n      0x01\n      dup2\n      add\n      dup3\n      sstore\n      0x00\n      swap2\n      swap1\n      swap2\n      mstore\n      0x8a35acfbc15ff81a39ae7d344fd709f28e8600b4aa8c65c6b64bfe7fe36bd19b\n      add\n      dup1\n      sload\n      not(sub(shl(0xa0, 0x01), 0x01))\n      and\n      sub(shl(0xa0, 0x01), 0x01)\n      swap3\n      swap1\n      swap3\n      and\n      swap2\n      swap1\n      swap2\n      or\n      swap1\n      sstore\n        /* \"Crypto-side-main/stake.sol\":999:1166  function addExcessToken(address _tokenAddress) external auth {... */\n      jump\t// out\n        /* \"Crypto-side-main/ds-auth.sol\":1596:1973  function isAuthorized(address src, bytes4 sig) public view returns (bool) {... */\n    tag_101:\n        /* \"Crypto-side-main/ds-auth.sol\":1664:1668  bool */\n      0x00\n        /* \"Crypto-side-main/ds-auth.sol\":1699:1703  this */\n      address\n      sub(shl(0xa0, 0x01), 0x01)\n        /* \"Crypto-side-main/ds-auth.sol\":1684:1704  src == address(this) */\n      dup5\n      and\n      sub\n        /* \"Crypto-side-main/ds-auth.sol\":1680:1967  if (src == address(this)) {... */\n      tag_268\n      jumpi\n      pop\n        /* \"Crypto-side-main/ds-auth.sol\":1727:1731  true */\n      0x01\n        /* \"Crypto-side-main/ds-auth.sol\":1720:1731  return true */\n      jump(tag_151)\n        /* \"Crypto-side-main/ds-auth.sol\":1680:1967  if (src == address(this)) {... */\n    tag_268:\n        /* \"Crypto-side-main/ds-auth.sol\":1759:1764  owner */\n      sload(0x01)\n      sub(shl(0xa0, 0x01), 0x01)\n      swap1\n      dup2\n      and\n        /* \"Crypto-side-main/ds-auth.sol\":1752:1764  src == owner */\n      swap1\n      dup5\n      and\n      sub\n        /* \"Crypto-side-main/ds-auth.sol\":1748:1967  if (src == owner) {... */\n      tag_270\n      jumpi\n      pop\n        /* \"Crypto-side-main/ds-auth.sol\":1787:1791  true */\n      0x01\n        /* \"Crypto-side-main/ds-auth.sol\":1780:1791  return true */\n      jump(tag_151)\n        /* \"Crypto-side-main/ds-auth.sol\":1748:1967  if (src == owner) {... */\n    tag_270:\n        /* \"Crypto-side-main/ds-auth.sol\":1845:1846  0 */\n      0x00\n        /* \"Crypto-side-main/ds-auth.sol\":1812:1821  authority */\n      sload\n      sub(shl(0xa0, 0x01), 0x01)\n      and\n        /* \"Crypto-side-main/ds-auth.sol\":1808:1967  if (authority == DSAuthority(address(0))) {... */\n      tag_272\n      jumpi\n      pop\n        /* \"Crypto-side-main/ds-auth.sol\":1871:1876  false */\n      0x00\n        /* \"Crypto-side-main/ds-auth.sol\":1864:1876  return false */\n      jump(tag_151)\n        /* \"Crypto-side-main/ds-auth.sol\":1808:1967  if (authority == DSAuthority(address(0))) {... */\n    tag_272:\n        /* \"Crypto-side-main/ds-auth.sol\":1914:1923  authority */\n      sload(0x00)\n        /* \"Crypto-side-main/ds-auth.sol\":1914:1956  authority.canCall(src, address(this), sig) */\n      mload(0x40)\n      shl(0xe0, 0xb7009613)\n      dup2\n      mstore\n      sub(shl(0xa0, 0x01), 0x01)\n        /* \"#utility.yul\":8810:8825   */\n      dup6\n      dup2\n      and\n        /* \"Crypto-side-main/ds-auth.sol\":1914:1956  authority.canCall(src, address(this), sig) */\n      0x04\n      dup4\n      add\n        /* \"#utility.yul\":8792:8826   */\n      mstore\n        /* \"Crypto-side-main/ds-auth.sol\":1945:1949  this */\n      address\n        /* \"#utility.yul\":8842:8860   */\n      0x24\n      dup4\n      add\n        /* \"#utility.yul\":8835:8878   */\n      mstore\n      not(sub(shl(0xe0, 0x01), 0x01))\n        /* \"#utility.yul\":8914:8947   */\n      dup6\n      and\n        /* \"#utility.yul\":8894:8912   */\n      0x44\n      dup4\n      add\n        /* \"#utility.yul\":8887:8948   */\n      mstore\n        /* \"Crypto-side-main/ds-auth.sol\":1914:1923  authority */\n      swap1\n      swap2\n      and\n      swap1\n        /* \"Crypto-side-main/ds-auth.sol\":1914:1931  authority.canCall */\n      0xb7009613\n      swap1\n        /* \"#utility.yul\":8727:8745   */\n      0x64\n      add\n        /* \"Crypto-side-main/ds-auth.sol\":1914:1956  authority.canCall(src, address(this), sig) */\n      0x20\n      mload(0x40)\n      dup1\n      dup4\n      sub\n      dup2\n      dup7\n      gas\n      staticcall\n      iszero\n      dup1\n      iszero\n      tag_277\n      jumpi\n      returndatasize\n      0x00\n      dup1\n      returndatacopy\n      revert(0x00, returndatasize)\n    tag_277:\n      pop\n      pop\n      pop\n      pop\n      mload(0x40)\n      returndatasize\n      not(0x1f)\n      0x1f\n      dup3\n      add\n      and\n      dup3\n      add\n      dup1\n      0x40\n      mstore\n      pop\n      dup2\n      add\n      swap1\n      tag_278\n      swap2\n      swap1\n      tag_134\n      jump\t// in\n    tag_278:\n        /* \"Crypto-side-main/ds-auth.sol\":1907:1956  return authority.canCall(src, address(this), sig) */\n      swap4\n        /* \"Crypto-side-main/ds-auth.sol\":1596:1973  function isAuthorized(address src, bytes4 sig) public view returns (bool) {... */\n      swap3\n      pop\n      pop\n      pop\n      jump\t// out\n        /* \"Crypto-side-main/Safemathuint2.sol\":914:1024  function sub(uint256 a, uint256 b) internal pure returns (uint256) {... */\n    tag_153:\n        /* \"Crypto-side-main/Safemathuint2.sol\":972:979  uint256 */\n      0x00\n        /* \"Crypto-side-main/Safemathuint2.sol\":999:1000  a */\n      dup3\n        /* \"Crypto-side-main/Safemathuint2.sol\":994:995  b */\n      dup3\n        /* \"Crypto-side-main/Safemathuint2.sol\":994:1000  b <= a */\n      gt\n      iszero\n        /* \"Crypto-side-main/Safemathuint2.sol\":987:1001  assert(b <= a) */\n      tag_281\n      jumpi\n      tag_281\n      tag_282\n      jump\t// in\n    tag_281:\n        /* \"Crypto-side-main/Safemathuint2.sol\":1014:1019  a - b */\n      tag_278\n        /* \"Crypto-side-main/Safemathuint2.sol\":1018:1019  b */\n      dup3\n        /* \"Crypto-side-main/Safemathuint2.sol\":1014:1015  a */\n      dup5\n        /* \"Crypto-side-main/Safemathuint2.sol\":1014:1019  a - b */\n      tag_141\n      jump\t// in\n        /* \"Crypto-side-main/Safemathuint2.sol\":281:448  function mul(uint256 a, uint256 b) internal pure returns (uint256 c) {... */\n    tag_203:\n        /* \"Crypto-side-main/Safemathuint2.sol\":339:348  uint256 c */\n      0x00\n        /* \"Crypto-side-main/Safemathuint2.sol\":360:361  a */\n      dup3\n        /* \"Crypto-side-main/Safemathuint2.sol\":365:366  0 */\n      0x00\n        /* \"Crypto-side-main/Safemathuint2.sol\":360:366  a == 0 */\n      sub\n        /* \"Crypto-side-main/Safemathuint2.sol\":356:391  if (a == 0) {... */\n      tag_285\n      jumpi\n      pop\n        /* \"Crypto-side-main/Safemathuint2.sol\":383:384  0 */\n      0x00\n        /* \"Crypto-side-main/Safemathuint2.sol\":376:384  return 0 */\n      jump(tag_151)\n        /* \"Crypto-side-main/Safemathuint2.sol\":356:391  if (a == 0) {... */\n    tag_285:\n        /* \"Crypto-side-main/Safemathuint2.sol\":400:405  a * b */\n      tag_286\n        /* \"Crypto-side-main/Safemathuint2.sol\":404:405  b */\n      dup3\n        /* \"Crypto-side-main/Safemathuint2.sol\":400:401  a */\n      dup5\n        /* \"Crypto-side-main/Safemathuint2.sol\":400:405  a * b */\n      tag_125\n      jump\t// in\n    tag_286:\n        /* \"Crypto-side-main/Safemathuint2.sol\":396:405  c = a * b */\n      swap1\n      pop\n        /* \"Crypto-side-main/Safemathuint2.sol\":427:428  b */\n      dup2\n        /* \"Crypto-side-main/Safemathuint2.sol\":418:423  c / a */\n      tag_287\n        /* \"Crypto-side-main/Safemathuint2.sol\":422:423  a */\n      dup5\n        /* \"Crypto-side-main/Safemathuint2.sol\":396:405  c = a * b */\n      dup4\n        /* \"Crypto-side-main/Safemathuint2.sol\":418:423  c / a */\n      tag_123\n      jump\t// in\n    tag_287:\n        /* \"Crypto-side-main/Safemathuint2.sol\":418:428  c / a == b */\n      eq\n        /* \"Crypto-side-main/Safemathuint2.sol\":411:429  assert(c / a == b) */\n      tag_151\n      jumpi\n      tag_151\n      tag_282\n      jump\t// in\n        /* \"Crypto-side-main/Safemathuint2.sol\":146:276  function toInt256Safe(uint256 a) internal pure returns (int256) {... */\n    tag_204:\n        /* \"Crypto-side-main/Safemathuint2.sol\":202:208  int256 */\n      0x00\n        /* \"Crypto-side-main/Safemathuint2.sol\":234:235  a */\n      dup2\n        /* \"Crypto-side-main/Safemathuint2.sol\":250:256  b >= 0 */\n      dup2\n      dup2\n      slt\n      iszero\n        /* \"Crypto-side-main/Safemathuint2.sol\":242:257  require(b >= 0) */\n      tag_151\n      jumpi\n      0x00\n      dup1\n      revert\n        /* \"Crypto-side-main/SafemathInt2.sol\":1103:1261  function add(int256 a, int256 b) internal pure returns (int256) {... */\n    tag_205:\n        /* \"Crypto-side-main/SafemathInt2.sol\":1159:1165  int256 */\n      0x00\n      dup1\n        /* \"Crypto-side-main/SafemathInt2.sol\":1184:1189  a + b */\n      tag_293\n        /* \"Crypto-side-main/SafemathInt2.sol\":1188:1189  b */\n      dup4\n        /* \"Crypto-side-main/SafemathInt2.sol\":1184:1185  a */\n      dup6\n        /* \"Crypto-side-main/SafemathInt2.sol\":1184:1189  a + b */\n      tag_294\n      jump\t// in\n    tag_293:\n        /* \"Crypto-side-main/SafemathInt2.sol\":1173:1189  int256 c = a + b */\n      swap1\n      pop\n        /* \"Crypto-side-main/SafemathInt2.sol\":1209:1210  0 */\n      0x00\n        /* \"Crypto-side-main/SafemathInt2.sol\":1204:1205  b */\n      dup4\n        /* \"Crypto-side-main/SafemathInt2.sol\":1204:1210  b >= 0 */\n      slt\n      iszero\n        /* \"Crypto-side-main/SafemathInt2.sol\":1204:1220  b >= 0 && c >= a */\n      dup1\n      iszero\n      tag_295\n      jumpi\n      pop\n        /* \"Crypto-side-main/SafemathInt2.sol\":1219:1220  a */\n      dup4\n        /* \"Crypto-side-main/SafemathInt2.sol\":1214:1215  c */\n      dup2\n        /* \"Crypto-side-main/SafemathInt2.sol\":1214:1220  c >= a */\n      slt\n      iszero\n        /* \"Crypto-side-main/SafemathInt2.sol\":1204:1220  b >= 0 && c >= a */\n    tag_295:\n        /* \"Crypto-side-main/SafemathInt2.sol\":1203:1241  (b >= 0 && c >= a) || (b < 0 && c < a) */\n      dup1\n      tag_297\n      jumpi\n      pop\n        /* \"Crypto-side-main/SafemathInt2.sol\":1230:1231  0 */\n      0x00\n        /* \"Crypto-side-main/SafemathInt2.sol\":1226:1227  b */\n      dup4\n        /* \"Crypto-side-main/SafemathInt2.sol\":1226:1231  b < 0 */\n      slt\n        /* \"Crypto-side-main/SafemathInt2.sol\":1226:1240  b < 0 && c < a */\n      dup1\n      iszero\n      tag_297\n      jumpi\n      pop\n        /* \"Crypto-side-main/SafemathInt2.sol\":1239:1240  a */\n      dup4\n        /* \"Crypto-side-main/SafemathInt2.sol\":1235:1236  c */\n      dup2\n        /* \"Crypto-side-main/SafemathInt2.sol\":1235:1240  c < a */\n      slt\n        /* \"Crypto-side-main/SafemathInt2.sol\":1226:1240  b < 0 && c < a */\n    tag_297:\n        /* \"Crypto-side-main/SafemathInt2.sol\":1195:1242  require((b >= 0 && c >= a) || (b < 0 && c < a)) */\n      tag_278\n      jumpi\n      0x00\n      dup1\n      revert\n        /* \"Crypto-side-main/SafemathInt2.sol\":1265:1379  function toUint256Safe(int256 a) internal pure returns (uint256) {... */\n    tag_206:\n        /* \"Crypto-side-main/SafemathInt2.sol\":1321:1328  uint256 */\n      0x00\n        /* \"Crypto-side-main/SafemathInt2.sol\":1349:1350  0 */\n      dup1\n        /* \"Crypto-side-main/SafemathInt2.sol\":1344:1345  a */\n      dup3\n        /* \"Crypto-side-main/SafemathInt2.sol\":1344:1350  a >= 0 */\n      slt\n      iszero\n        /* \"Crypto-side-main/SafemathInt2.sol\":1336:1351  require(a >= 0) */\n      tag_300\n      jumpi\n      0x00\n      dup1\n      revert\n    tag_300:\n      pop\n        /* \"Crypto-side-main/SafemathInt2.sol\":1372:1373  a */\n      swap1\n        /* \"Crypto-side-main/SafemathInt2.sol\":1265:1379  function toUint256Safe(int256 a) internal pure returns (uint256) {... */\n      jump\t// out\n        /* \"Crypto-side-main/Safemathuint2.sol\":530:802  function div(uint256 a, uint256 b) internal pure returns (uint256) {... */\n    tag_220:\n        /* \"Crypto-side-main/Safemathuint2.sol\":588:595  uint256 */\n      0x00\n        /* \"Crypto-side-main/Safemathuint2.sol\":792:797  a / b */\n      tag_278\n        /* \"Crypto-side-main/Safemathuint2.sol\":796:797  b */\n      dup3\n        /* \"Crypto-side-main/Safemathuint2.sol\":792:793  a */\n      dup5\n        /* \"Crypto-side-main/Safemathuint2.sol\":792:797  a / b */\n      tag_123\n      jump\t// in\n        /* \"Crypto-side-main/Safemathuint2.sol\":1086:1209  function add(uint256 a, uint256 b) internal pure returns (uint256 c) {... */\n    tag_221:\n        /* \"Crypto-side-main/Safemathuint2.sol\":1144:1153  uint256 c */\n      0x00\n        /* \"Crypto-side-main/Safemathuint2.sol\":1165:1170  a + b */\n      tag_304\n        /* \"Crypto-side-main/Safemathuint2.sol\":1169:1170  b */\n      dup3\n        /* \"Crypto-side-main/Safemathuint2.sol\":1165:1166  a */\n      dup5\n        /* \"Crypto-side-main/Safemathuint2.sol\":1165:1170  a + b */\n      tag_139\n      jump\t// in\n    tag_304:\n        /* \"Crypto-side-main/Safemathuint2.sol\":1161:1170  c = a + b */\n      swap1\n      pop\n        /* \"Crypto-side-main/Safemathuint2.sol\":1188:1189  a */\n      dup3\n        /* \"Crypto-side-main/Safemathuint2.sol\":1183:1184  c */\n      dup2\n        /* \"Crypto-side-main/Safemathuint2.sol\":1183:1189  c >= a */\n      lt\n      iszero\n        /* \"Crypto-side-main/Safemathuint2.sol\":1176:1190  assert(c >= a) */\n      tag_151\n      jumpi\n      tag_151\n      tag_282\n      jump\t// in\n        /* \"Crypto-side-main/SafemathInt2.sol\":950:1099  function sub(int256 a, int256 b) internal pure returns (int256) {... */\n    tag_242:\n        /* \"Crypto-side-main/SafemathInt2.sol\":1006:1012  int256 */\n      0x00\n        /* \"Crypto-side-main/SafemathInt2.sol\":1034:1035  0 */\n      dup1\n        /* \"Crypto-side-main/SafemathInt2.sol\":1029:1030  b */\n      dup3\n        /* \"Crypto-side-main/SafemathInt2.sol\":1029:1035  b >= 0 */\n      slt\n      iszero\n        /* \"Crypto-side-main/SafemathInt2.sol\":1029:1049  b >= 0 && a - b <= a */\n      dup1\n      iszero\n      tag_308\n      jumpi\n      pop\n        /* \"Crypto-side-main/SafemathInt2.sol\":1048:1049  a */\n      dup3\n        /* \"Crypto-side-main/SafemathInt2.sol\":1039:1044  a - b */\n      tag_309\n        /* \"Crypto-side-main/SafemathInt2.sol\":1043:1044  b */\n      dup4\n        /* \"Crypto-side-main/SafemathInt2.sol\":1048:1049  a */\n      dup3\n        /* \"Crypto-side-main/SafemathInt2.sol\":1039:1044  a - b */\n      tag_310\n      jump\t// in\n    tag_309:\n        /* \"Crypto-side-main/SafemathInt2.sol\":1039:1049  a - b <= a */\n      sgt\n      iszero\n        /* \"Crypto-side-main/SafemathInt2.sol\":1029:1049  b >= 0 && a - b <= a */\n    tag_308:\n        /* \"Crypto-side-main/SafemathInt2.sol\":1028:1074  (b >= 0 && a - b <= a) || (b < 0 && a - b > a) */\n      dup1\n      tag_312\n      jumpi\n      pop\n        /* \"Crypto-side-main/SafemathInt2.sol\":1059:1060  0 */\n      0x00\n        /* \"Crypto-side-main/SafemathInt2.sol\":1055:1056  b */\n      dup3\n        /* \"Crypto-side-main/SafemathInt2.sol\":1055:1060  b < 0 */\n      slt\n        /* \"Crypto-side-main/SafemathInt2.sol\":1055:1073  b < 0 && a - b > a */\n      dup1\n      iszero\n      tag_312\n      jumpi\n      pop\n        /* \"Crypto-side-main/SafemathInt2.sol\":1072:1073  a */\n      dup3\n        /* \"Crypto-side-main/SafemathInt2.sol\":1064:1069  a - b */\n      tag_313\n        /* \"Crypto-side-main/SafemathInt2.sol\":1068:1069  b */\n      dup4\n        /* \"Crypto-side-main/SafemathInt2.sol\":1072:1073  a */\n      dup3\n        /* \"Crypto-side-main/SafemathInt2.sol\":1064:1069  a - b */\n      tag_310\n      jump\t// in\n    tag_313:\n        /* \"Crypto-side-main/SafemathInt2.sol\":1064:1073  a - b > a */\n      sgt\n        /* \"Crypto-side-main/SafemathInt2.sol\":1055:1073  b < 0 && a - b > a */\n    tag_312:\n        /* \"Crypto-side-main/SafemathInt2.sol\":1020:1075  require((b >= 0 && a - b <= a) || (b < 0 && a - b > a)) */\n      tag_314\n      jumpi\n      0x00\n      dup1\n      revert\n    tag_314:\n        /* \"Crypto-side-main/SafemathInt2.sol\":1089:1094  a - b */\n      tag_278\n        /* \"Crypto-side-main/SafemathInt2.sol\":1093:1094  b */\n      dup3\n        /* \"Crypto-side-main/SafemathInt2.sol\":1089:1090  a */\n      dup5\n        /* \"Crypto-side-main/SafemathInt2.sol\":1089:1094  a - b */\n      tag_310\n      jump\t// in\n        /* \"#utility.yul\":14:145   */\n    tag_316:\n      sub(shl(0xa0, 0x01), 0x01)\n        /* \"#utility.yul\":89:120   */\n      dup2\n      and\n        /* \"#utility.yul\":79:121   */\n      dup2\n      eq\n        /* \"#utility.yul\":69:139   */\n      tag_147\n      jumpi\n        /* \"#utility.yul\":135:136   */\n      0x00\n        /* \"#utility.yul\":132:133   */\n      dup1\n        /* \"#utility.yul\":125:137   */\n      revert\n        /* \"#utility.yul\":150:397   */\n    tag_31:\n        /* \"#utility.yul\":209:215   */\n      0x00\n        /* \"#utility.yul\":262:264   */\n      0x20\n        /* \"#utility.yul\":250:259   */\n      dup3\n        /* \"#utility.yul\":241:248   */\n      dup5\n        /* \"#utility.yul\":237:260   */\n      sub\n        /* \"#utility.yul\":233:265   */\n      slt\n        /* \"#utility.yul\":230:282   */\n      iszero\n      tag_322\n      jumpi\n        /* \"#utility.yul\":278:279   */\n      0x00\n        /* \"#utility.yul\":275:276   */\n      dup1\n        /* \"#utility.yul\":268:280   */\n      revert\n        /* \"#utility.yul\":230:282   */\n    tag_322:\n        /* \"#utility.yul\":317:326   */\n      dup2\n        /* \"#utility.yul\":304:327   */\n      calldataload\n        /* \"#utility.yul\":336:367   */\n      tag_278\n        /* \"#utility.yul\":361:366   */\n      dup2\n        /* \"#utility.yul\":336:367   */\n      tag_316\n      jump\t// in\n        /* \"#utility.yul\":806:2056   */\n    tag_53:\n        /* \"#utility.yul\":1102:1104   */\n      0x60\n        /* \"#utility.yul\":1114:1135   */\n      dup1\n      dup3\n      mstore\n        /* \"#utility.yul\":1184:1197   */\n      dup5\n      mload\n        /* \"#utility.yul\":1087:1105   */\n      swap1\n      dup3\n      add\n        /* \"#utility.yul\":1206:1228   */\n      dup2\n      swap1\n      mstore\n        /* \"#utility.yul\":1054:1058   */\n      0x00\n      swap1\n        /* \"#utility.yul\":1282:1286   */\n      0x20\n      swap1\n        /* \"#utility.yul\":1259:1262   */\n      0x80\n        /* \"#utility.yul\":1244:1263   */\n      dup5\n      add\n      swap1\n        /* \"#utility.yul\":1309:1324   */\n      dup3\n      dup9\n      add\n        /* \"#utility.yul\":1054:1058   */\n      dup5\n        /* \"#utility.yul\":1352:1547   */\n    tag_327:\n        /* \"#utility.yul\":1366:1372   */\n      dup3\n        /* \"#utility.yul\":1363:1364   */\n      dup2\n        /* \"#utility.yul\":1360:1373   */\n      lt\n        /* \"#utility.yul\":1352:1547   */\n      iszero\n      tag_329\n      jumpi\n        /* \"#utility.yul\":1431:1444   */\n      dup2\n      mload\n      sub(shl(0xa0, 0x01), 0x01)\n        /* \"#utility.yul\":1427:1466   */\n      and\n        /* \"#utility.yul\":1415:1467   */\n      dup5\n      mstore\n        /* \"#utility.yul\":1487:1499   */\n      swap3\n      dup5\n      add\n      swap3\n        /* \"#utility.yul\":1522:1537   */\n      swap1\n      dup5\n      add\n      swap1\n        /* \"#utility.yul\":1463:1464   */\n      0x01\n        /* \"#utility.yul\":1381:1390   */\n      add\n        /* \"#utility.yul\":1352:1547   */\n      jump(tag_327)\n    tag_329:\n      pop\n      pop\n      pop\n        /* \"#utility.yul\":1583:1602   */\n      dup4\n      dup2\n      sub\n        /* \"#utility.yul\":1563:1581   */\n      dup3\n      dup6\n      add\n        /* \"#utility.yul\":1556:1603   */\n      mstore\n        /* \"#utility.yul\":1653:1666   */\n      dup6\n      mload\n        /* \"#utility.yul\":1675:1696   */\n      dup1\n      dup3\n      mstore\n        /* \"#utility.yul\":1751:1766   */\n      dup7\n      dup4\n      add\n      swap2\n        /* \"#utility.yul\":1714:1726   */\n      dup4\n      add\n      swap1\n        /* \"#utility.yul\":1786:1787   */\n      0x00\n        /* \"#utility.yul\":1796:1985   */\n    tag_330:\n        /* \"#utility.yul\":1812:1820   */\n      dup2\n        /* \"#utility.yul\":1807:1810   */\n      dup2\n        /* \"#utility.yul\":1804:1821   */\n      lt\n        /* \"#utility.yul\":1796:1985   */\n      iszero\n      tag_332\n      jumpi\n        /* \"#utility.yul\":1881:1896   */\n      dup4\n      mload\n        /* \"#utility.yul\":1867:1897   */\n      dup4\n      mstore\n        /* \"#utility.yul\":1958:1975   */\n      swap3\n      dup5\n      add\n      swap3\n        /* \"#utility.yul\":1919:1933   */\n      swap2\n      dup5\n      add\n      swap2\n        /* \"#utility.yul\":1840:1841   */\n      0x01\n        /* \"#utility.yul\":1831:1842   */\n      add\n        /* \"#utility.yul\":1796:1985   */\n      jump(tag_330)\n    tag_332:\n        /* \"#utility.yul\":1800:1803   */\n      pop\n      pop\n        /* \"#utility.yul\":2002:2007   */\n      dup1\n        /* \"#utility.yul\":1994:2007   */\n      swap4\n      pop\n      pop\n      pop\n      pop\n        /* \"#utility.yul\":2043:2049   */\n      dup3\n        /* \"#utility.yul\":2038:2040   */\n      0x40\n        /* \"#utility.yul\":2027:2036   */\n      dup4\n        /* \"#utility.yul\":2023:2041   */\n      add\n        /* \"#utility.yul\":2016:2050   */\n      mstore\n        /* \"#utility.yul\":806:2056   */\n      swap5\n      swap4\n      pop\n      pop\n      pop\n      pop\n      jump\t// out\n        /* \"#utility.yul\":2332:2512   */\n    tag_66:\n        /* \"#utility.yul\":2391:2397   */\n      0x00\n        /* \"#utility.yul\":2444:2446   */\n      0x20\n        /* \"#utility.yul\":2432:2441   */\n      dup3\n        /* \"#utility.yul\":2423:2430   */\n      dup5\n        /* \"#utility.yul\":2419:2442   */\n      sub\n        /* \"#utility.yul\":2415:2447   */\n      slt\n        /* \"#utility.yul\":2412:2464   */\n      iszero\n      tag_337\n      jumpi\n        /* \"#utility.yul\":2460:2461   */\n      0x00\n        /* \"#utility.yul\":2457:2458   */\n      dup1\n        /* \"#utility.yul\":2450:2462   */\n      revert\n        /* \"#utility.yul\":2412:2464   */\n    tag_337:\n      pop\n        /* \"#utility.yul\":2483:2506   */\n      calldataload\n      swap2\n        /* \"#utility.yul\":2332:2512   */\n      swap1\n      pop\n      jump\t// out\n        /* \"#utility.yul\":3176:3605   */\n    tag_100:\n        /* \"#utility.yul\":3243:3249   */\n      0x00\n        /* \"#utility.yul\":3251:3257   */\n      dup1\n        /* \"#utility.yul\":3304:3306   */\n      0x40\n        /* \"#utility.yul\":3292:3301   */\n      dup4\n        /* \"#utility.yul\":3283:3290   */\n      dup6\n        /* \"#utility.yul\":3279:3302   */\n      sub\n        /* \"#utility.yul\":3275:3307   */\n      slt\n        /* \"#utility.yul\":3272:3324   */\n      iszero\n      tag_342\n      jumpi\n        /* \"#utility.yul\":3320:3321   */\n      0x00\n        /* \"#utility.yul\":3317:3318   */\n      dup1\n        /* \"#utility.yul\":3310:3322   */\n      revert\n        /* \"#utility.yul\":3272:3324   */\n    tag_342:\n        /* \"#utility.yul\":3359:3368   */\n      dup3\n        /* \"#utility.yul\":3346:3369   */\n      calldataload\n        /* \"#utility.yul\":3378:3409   */\n      tag_343\n        /* \"#utility.yul\":3403:3408   */\n      dup2\n        /* \"#utility.yul\":3378:3409   */\n      tag_316\n      jump\t// in\n    tag_343:\n        /* \"#utility.yul\":3428:3433   */\n      swap2\n      pop\n        /* \"#utility.yul\":3485:3487   */\n      0x20\n        /* \"#utility.yul\":3470:3488   */\n      dup4\n      add\n        /* \"#utility.yul\":3457:3489   */\n      calldataload\n      not(sub(shl(0xe0, 0x01), 0x01))\n        /* \"#utility.yul\":3520:3554   */\n      dup2\n      and\n        /* \"#utility.yul\":3508:3555   */\n      dup2\n      eq\n        /* \"#utility.yul\":3498:3573   */\n      tag_344\n      jumpi\n        /* \"#utility.yul\":3569:3570   */\n      0x00\n        /* \"#utility.yul\":3566:3567   */\n      dup1\n        /* \"#utility.yul\":3559:3571   */\n      revert\n        /* \"#utility.yul\":3498:3573   */\n    tag_344:\n        /* \"#utility.yul\":3592:3599   */\n      dup1\n        /* \"#utility.yul\":3582:3599   */\n      swap2\n      pop\n      pop\n        /* \"#utility.yul\":3176:3605   */\n      swap3\n      pop\n      swap3\n      swap1\n      pop\n      jump\t// out\n        /* \"#utility.yul\":3802:3929   */\n    tag_115:\n        /* \"#utility.yul\":3863:3873   */\n      0x4e487b71\n        /* \"#utility.yul\":3858:3861   */\n      0xe0\n        /* \"#utility.yul\":3854:3874   */\n      shl\n        /* \"#utility.yul\":3851:3852   */\n      0x00\n        /* \"#utility.yul\":3844:3875   */\n      mstore\n        /* \"#utility.yul\":3894:3898   */\n      0x32\n        /* \"#utility.yul\":3891:3892   */\n      0x04\n        /* \"#utility.yul\":3884:3899   */\n      mstore\n        /* \"#utility.yul\":3918:3922   */\n      0x24\n        /* \"#utility.yul\":3915:3916   */\n      0x00\n        /* \"#utility.yul\":3908:3923   */\n      revert\n        /* \"#utility.yul\":3934:4118   */\n    tag_121:\n        /* \"#utility.yul\":4004:4010   */\n      0x00\n        /* \"#utility.yul\":4057:4059   */\n      0x20\n        /* \"#utility.yul\":4045:4054   */\n      dup3\n        /* \"#utility.yul\":4036:4043   */\n      dup5\n        /* \"#utility.yul\":4032:4055   */\n      sub\n        /* \"#utility.yul\":4028:4060   */\n      slt\n        /* \"#utility.yul\":4025:4077   */\n      iszero\n      tag_348\n      jumpi\n        /* \"#utility.yul\":4073:4074   */\n      0x00\n        /* \"#utility.yul\":4070:4071   */\n      dup1\n        /* \"#utility.yul\":4063:4075   */\n      revert\n        /* \"#utility.yul\":4025:4077   */\n    tag_348:\n      pop\n        /* \"#utility.yul\":4096:4112   */\n      mload\n      swap2\n        /* \"#utility.yul\":3934:4118   */\n      swap1\n      pop\n      jump\t// out\n        /* \"#utility.yul\":4123:4250   */\n    tag_317:\n        /* \"#utility.yul\":4184:4194   */\n      0x4e487b71\n        /* \"#utility.yul\":4179:4182   */\n      0xe0\n        /* \"#utility.yul\":4175:4195   */\n      shl\n        /* \"#utility.yul\":4172:4173   */\n      0x00\n        /* \"#utility.yul\":4165:4196   */\n      mstore\n        /* \"#utility.yul\":4215:4219   */\n      0x11\n        /* \"#utility.yul\":4212:4213   */\n      0x04\n        /* \"#utility.yul\":4205:4220   */\n      mstore\n        /* \"#utility.yul\":4239:4243   */\n      0x24\n        /* \"#utility.yul\":4236:4237   */\n      0x00\n        /* \"#utility.yul\":4229:4244   */\n      revert\n        /* \"#utility.yul\":4255:4472   */\n    tag_123:\n        /* \"#utility.yul\":4295:4296   */\n      0x00\n        /* \"#utility.yul\":4321:4322   */\n      dup3\n        /* \"#utility.yul\":4311:4443   */\n      tag_351\n      jumpi\n        /* \"#utility.yul\":4365:4375   */\n      0x4e487b71\n        /* \"#utility.yul\":4360:4363   */\n      0xe0\n        /* \"#utility.yul\":4356:4376   */\n      shl\n        /* \"#utility.yul\":4353:4354   */\n      0x00\n        /* \"#utility.yul\":4346:4377   */\n      mstore\n        /* \"#utility.yul\":4400:4404   */\n      0x12\n        /* \"#utility.yul\":4397:4398   */\n      0x04\n        /* \"#utility.yul\":4390:4405   */\n      mstore\n        /* \"#utility.yul\":4428:4432   */\n      0x24\n        /* \"#utility.yul\":4425:4426   */\n      0x00\n        /* \"#utility.yul\":4418:4433   */\n      revert\n        /* \"#utility.yul\":4311:4443   */\n    tag_351:\n      pop\n        /* \"#utility.yul\":4457:4466   */\n      div\n      swap1\n        /* \"#utility.yul\":4255:4472   */\n      jump\t// out\n        /* \"#utility.yul\":4477:4645   */\n    tag_125:\n        /* \"#utility.yul\":4550:4559   */\n      dup1\n      dup3\n      mul\n        /* \"#utility.yul\":4581:4590   */\n      dup2\n      iszero\n        /* \"#utility.yul\":4598:4613   */\n      dup3\n      dup3\n      div\n        /* \"#utility.yul\":4592:4614   */\n      dup5\n      eq\n        /* \"#utility.yul\":4578:4615   */\n      or\n        /* \"#utility.yul\":4568:4639   */\n      tag_151\n      jumpi\n        /* \"#utility.yul\":4619:4637   */\n      tag_151\n      tag_317\n      jump\t// in\n        /* \"#utility.yul\":5030:5307   */\n    tag_134:\n        /* \"#utility.yul\":5097:5103   */\n      0x00\n        /* \"#utility.yul\":5150:5152   */\n      0x20\n        /* \"#utility.yul\":5138:5147   */\n      dup3\n        /* \"#utility.yul\":5129:5136   */\n      dup5\n        /* \"#utility.yul\":5125:5148   */\n      sub\n        /* \"#utility.yul\":5121:5153   */\n      slt\n        /* \"#utility.yul\":5118:5170   */\n      iszero\n      tag_357\n      jumpi\n        /* \"#utility.yul\":5166:5167   */\n      0x00\n        /* \"#utility.yul\":5163:5164   */\n      dup1\n        /* \"#utility.yul\":5156:5168   */\n      revert\n        /* \"#utility.yul\":5118:5170   */\n    tag_357:\n        /* \"#utility.yul\":5198:5207   */\n      dup2\n        /* \"#utility.yul\":5192:5208   */\n      mload\n        /* \"#utility.yul\":5251:5256   */\n      dup1\n        /* \"#utility.yul\":5244:5257   */\n      iszero\n        /* \"#utility.yul\":5237:5258   */\n      iszero\n        /* \"#utility.yul\":5230:5235   */\n      dup2\n        /* \"#utility.yul\":5227:5259   */\n      eq\n        /* \"#utility.yul\":5217:5277   */\n      tag_278\n      jumpi\n        /* \"#utility.yul\":5273:5274   */\n      0x00\n        /* \"#utility.yul\":5270:5271   */\n      dup1\n        /* \"#utility.yul\":5263:5275   */\n      revert\n        /* \"#utility.yul\":5662:5787   */\n    tag_139:\n        /* \"#utility.yul\":5727:5736   */\n      dup1\n      dup3\n      add\n        /* \"#utility.yul\":5748:5758   */\n      dup1\n      dup3\n      gt\n        /* \"#utility.yul\":5745:5781   */\n      iszero\n      tag_151\n      jumpi\n        /* \"#utility.yul\":5761:5779   */\n      tag_151\n      tag_317\n      jump\t// in\n        /* \"#utility.yul\":5792:5920   */\n    tag_141:\n        /* \"#utility.yul\":5859:5868   */\n      dup2\n      dup2\n      sub\n        /* \"#utility.yul\":5880:5891   */\n      dup2\n      dup2\n      gt\n        /* \"#utility.yul\":5877:5914   */\n      iszero\n      tag_151\n      jumpi\n        /* \"#utility.yul\":5894:5912   */\n      tag_151\n      tag_317\n      jump\t// in\n        /* \"#utility.yul\":6553:6897   */\n    tag_158:\n        /* \"#utility.yul\":6755:6757   */\n      0x20\n        /* \"#utility.yul\":6737:6758   */\n      dup1\n      dup3\n      mstore\n        /* \"#utility.yul\":6794:6796   */\n      0x14\n        /* \"#utility.yul\":6774:6792   */\n      swap1\n      dup3\n      add\n        /* \"#utility.yul\":6767:6797   */\n      mstore\n      shl(0x62, 0x191ccb585d5d1a0b5d5b985d5d1a1bdc9a5e9959)\n        /* \"#utility.yul\":6828:6830   */\n      0x40\n        /* \"#utility.yul\":6813:6831   */\n      dup3\n      add\n        /* \"#utility.yul\":6806:6856   */\n      mstore\n        /* \"#utility.yul\":6888:6890   */\n      0x60\n        /* \"#utility.yul\":6873:6891   */\n      add\n      swap1\n        /* \"#utility.yul\":6553:6897   */\n      jump\t// out\n        /* \"#utility.yul\":7317:7444   */\n    tag_167:\n        /* \"#utility.yul\":7378:7388   */\n      0x4e487b71\n        /* \"#utility.yul\":7373:7376   */\n      0xe0\n        /* \"#utility.yul\":7369:7389   */\n      shl\n        /* \"#utility.yul\":7366:7367   */\n      0x00\n        /* \"#utility.yul\":7359:7390   */\n      mstore\n        /* \"#utility.yul\":7409:7413   */\n      0x41\n        /* \"#utility.yul\":7406:7407   */\n      0x04\n        /* \"#utility.yul\":7399:7414   */\n      mstore\n        /* \"#utility.yul\":7433:7437   */\n      0x24\n        /* \"#utility.yul\":7430:7431   */\n      0x00\n        /* \"#utility.yul\":7423:7438   */\n      revert\n        /* \"#utility.yul\":8959:9086   */\n    tag_282:\n        /* \"#utility.yul\":9020:9030   */\n      0x4e487b71\n        /* \"#utility.yul\":9015:9018   */\n      0xe0\n        /* \"#utility.yul\":9011:9031   */\n      shl\n        /* \"#utility.yul\":9008:9009   */\n      0x00\n        /* \"#utility.yul\":9001:9032   */\n      mstore\n        /* \"#utility.yul\":9051:9055   */\n      0x01\n        /* \"#utility.yul\":9048:9049   */\n      0x04\n        /* \"#utility.yul\":9041:9056   */\n      mstore\n        /* \"#utility.yul\":9075:9079   */\n      0x24\n        /* \"#utility.yul\":9072:9073   */\n      0x00\n        /* \"#utility.yul\":9065:9080   */\n      revert\n        /* \"#utility.yul\":9091:9307   */\n    tag_294:\n        /* \"#utility.yul\":9155:9164   */\n      dup1\n      dup3\n      add\n        /* \"#utility.yul\":9183:9194   */\n      dup3\n      dup2\n      slt\n        /* \"#utility.yul\":9130:9133   */\n      0x00\n        /* \"#utility.yul\":9213:9222   */\n      dup4\n      slt\n        /* \"#utility.yul\":9241:9251   */\n      dup1\n      iszero\n        /* \"#utility.yul\":9237:9256   */\n      dup3\n      and\n        /* \"#utility.yul\":9266:9276   */\n      dup3\n      iszero\n        /* \"#utility.yul\":9258:9277   */\n      dup3\n      and\n        /* \"#utility.yul\":9234:9278   */\n      or\n        /* \"#utility.yul\":9231:9301   */\n      iszero\n      tag_378\n      jumpi\n        /* \"#utility.yul\":9281:9299   */\n      tag_378\n      tag_317\n      jump\t// in\n    tag_378:\n        /* \"#utility.yul\":9231:9301   */\n      pop\n      pop\n        /* \"#utility.yul\":9091:9307   */\n      swap3\n      swap2\n      pop\n      pop\n      jump\t// out\n        /* \"#utility.yul\":9312:9512   */\n    tag_310:\n        /* \"#utility.yul\":9378:9387   */\n      dup2\n      dup2\n      sub\n        /* \"#utility.yul\":9351:9355   */\n      0x00\n        /* \"#utility.yul\":9406:9415   */\n      dup4\n      slt\n        /* \"#utility.yul\":9434:9444   */\n      dup1\n      iszero\n        /* \"#utility.yul\":9446:9458   */\n      dup4\n      dup4\n      sgt\n        /* \"#utility.yul\":9430:9459   */\n      and\n        /* \"#utility.yul\":9469:9481   */\n      dup4\n      dup4\n      slt\n        /* \"#utility.yul\":9461:9482   */\n      dup3\n      and\n        /* \"#utility.yul\":9427:9483   */\n      or\n        /* \"#utility.yul\":9424:9506   */\n      iszero\n      tag_381\n      jumpi\n        /* \"#utility.yul\":9486:9504   */\n      tag_381\n      tag_317\n      jump\t// in\n    tag_381:\n        /* \"#utility.yul\":9424:9506   */\n      pop\n        /* \"#utility.yul\":9312:9512   */\n      swap3\n      swap2\n      pop\n      pop\n      jump\t// out\n\n    auxdata: 0xa264697066735822122035665ac0e4acf08254555c31ee7f481fcf4734280398ac84f93d05308906d63364736f6c63430008170033\n}\n",
				"bytecode": {
					"linkReferences": {},
					"object": "608060405234801561000f575f80fd5b5060405161149f38038061149f83398101604081905261002e916100c1565b600180546001600160a01b031916339081179091556040517fce241d7ca1f669fee44b6fc00b8eba2df3bb514eed0f6f668f8f89096e81ed94905f90a2600280546001600160a01b039384166001600160a01b03199182161790915560018054821633179055600380549290931691161790556100f2565b80516001600160a01b03811681146100bc575f80fd5b919050565b5f80604083850312156100d2575f80fd5b6100db836100a6565b91506100e9602084016100a6565b90509250929050565b6113a0806100ff5f395ff3fe608060405234801561000f575f80fd5b5060043610610131575f3560e01c806386ed7d82116100b4578063a1ef92eb11610079578063a1ef92eb1461027b578063b35874cb1461029a578063bf7e214f146102ad578063cb6b0200146102bf578063d9972b96146102d2578063efca2eed146102f5575f80fd5b806386ed7d821461021c5780638da5cb5b1461022f5780639778dd2b146102425780639ddf0293146102555780639e5be1d014610268575f80fd5b80635246fb2d116100fa5780635246fb2d146101a05780636bd62306146101cb57806371c21934146101ed5780637a9e5e4b146102005780637d88209714610213575f80fd5b806263750c146101355780630f90c97b1461013f57806313af40351461016557806327e235e31461017857806339beb7a114610197575b5f80fd5b61013d6102fe565b005b61015261014d36600461110d565b610599565b6040519081526020015b60405180910390f35b61013d61017336600461110d565b6105ca565b61015261018636600461110d565b600a6020525f908152604090205481565b61015260065481565b6003546101b3906001600160a01b031681565b6040516001600160a01b03909116815260200161015c565b6101de6101d936600461110d565b610644565b60405161015c93929190611128565b6002546101b3906001600160a01b031681565b61013d61020e36600461110d565b610895565b610152600b5481565b6101b361022a3660046111b3565b61090d565b6001546101b3906001600160a01b031681565b61015261025036600461110d565b610935565b61013d6102633660046111b3565b610991565b61013d6102763660046111b3565b610baf565b61015261028936600461110d565b60096020525f908152604090205481565b61013d6102a83660046111b3565b610ce5565b5f546101b3906001600160a01b031681565b61013d6102cd36600461110d565b610e70565b6102e56102e03660046111ca565b610f0c565b604051901515815260200161015c565b61015260075481565b5f61030833610599565b90508015610596575f5b6004548110156104a5575f600482815481106103305761033061120d565b5f918252602090912001546040516370a0823160e01b81523060048201526001600160a01b03909116906370a0823190602401602060405180830381865afa15801561037e573d5f803e3d5ffd5b505050506040513d601f19601f820116820180604052508101906103a29190611221565b90505f600654846103b3919061124c565b6103bd908361126b565b9050600483815481106103d2576103d261120d565b5f918252602090912001546040516323b872dd60e01b8152306004820152336024820152604481018390526001600160a01b03909116906323b872dd906064016020604051808303815f875af115801561042e573d5f803e3d5ffd5b505050506040513d601f19601f820116820180604052508101906104529190611282565b61049b5760405162461bcd60e51b8152602060048201526015602482015274151bdad95b881d1c985b9cd9995c8819985a5b1959605a1b60448201526064015b60405180910390fd5b5050600101610312565b50335f90815260096020526040812080548392906104c49084906112a1565b925050819055508060065f8282546104dc91906112b4565b909155505060035460405163a9059cbb60e01b8152336004820152602481018390526001600160a01b039091169063a9059cbb906044016020604051808303815f875af115801561052f573d5f803e3d5ffd5b505050506040513d601f19601f820116820180604052508101906105539190611282565b6105965760405162461bcd60e51b81526020600482015260146024820152731554d110c81d1c985b9cd9995c8819985a5b195960621b6044820152606401610492565b50565b6001600160a01b0381165f908152600960205260408120546105c4906105be84610935565b90610fe1565b92915050565b6105df335f356001600160e01b031916610f0c565b6105fb5760405162461bcd60e51b8152600401610492906112c7565b600180546001600160a01b0319166001600160a01b0383169081179091556040517fce241d7ca1f669fee44b6fc00b8eba2df3bb514eed0f6f668f8f89096e81ed94905f90a250565b6060805f80600654116106b05760405162461bcd60e51b815260206004820152602e60248201527f5448455245204953204e4f20657342434b474f5620494e544552455354204c4560448201526d465420544f20574954484452415760901b6064820152608401610492565b5f6106ba85610599565b6004549091505f9067ffffffffffffffff8111156106da576106da6112f5565b604051908082528060200260200182016040528015610703578160200160208202803683370190505b506004549091505f9067ffffffffffffffff811115610724576107246112f5565b60405190808252806020026020018201604052801561074d578160200160208202803683370190505b5090505f5b600454811015610887576004818154811061076f5761076f61120d565b905f5260205f20015f9054906101000a90046001600160a01b031683828151811061079c5761079c61120d565b60200260200101906001600160a01b031690816001600160a01b0316815250505f600482815481106107d0576107d061120d565b5f918252602090912001546040516370a0823160e01b81523060048201526001600160a01b03909116906370a0823190602401602060405180830381865afa15801561081e573d5f803e3d5ffd5b505050506040513d601f19601f820116820180604052508101906108429190611221565b90505f60065486610853919061124c565b61085d908361126b565b9050808484815181106108725761087261120d565b60209081029190910101525050600101610752565b509096909550909350915050565b6108aa335f356001600160e01b031916610f0c565b6108c65760405162461bcd60e51b8152600401610492906112c7565b5f80546001600160a01b0319166001600160a01b038316908117825560405190917f1abebea81bfa2637f28358c371278fb15ede7ea8dd28d2e03b112ff6d936ada491a250565b6004818154811061091c575f80fd5b5f918252602090912001546001600160a01b0316905081565b6001600160a01b0381165f90815260086020908152604080832054600a909252822054600554600160801b92610987926109829261097c916109779190610ffc565b61102f565b9061103d565b611077565b6105c4919061124c565b6003546040516370a0823160e01b81523360048201525f916001600160a01b0316906370a0823190602401602060405180830381865afa1580156109d7573d5f803e3d5ffd5b505050506040513d601f19601f820116820180604052508101906109fb9190611221565b905081811015610a595760405162461bcd60e51b815260206004820152602360248201527f4f776e65722068617320696e73756666696369656e7420555344432062616c616044820152626e636560e81b6064820152608401610492565b600b5415610a8d57600b54610a8990610a8090610a7a85600160801b610ffc565b90611088565b60055490611093565b6005555b8160065f828254610a9e91906112a1565b925050819055508160075f828254610ab691906112a1565b909155505060405182815233907f04c03fe3ea6a2027470af10696e6e65a7eae16de0bd8ecf5f6d33b776de097a39060200160405180910390a26003546040516323b872dd60e01b8152336004820152306024820152604481018490526001600160a01b03909116906323b872dd906064016020604051808303815f875af1158015610b44573d5f803e3d5ffd5b505050506040513d601f19601f82011682018060405250810190610b689190611282565b610bab5760405162461bcd60e51b81526020600482015260146024820152731554d110c81d1c985b9cd9995c8819985a5b195960621b6044820152606401610492565b5050565b6002546040516323b872dd60e01b8152336004820152306024820152604481018390526001600160a01b03909116906323b872dd906064016020604051808303815f875af1158015610c03573d5f803e3d5ffd5b505050506040513d601f19601f82011682018060405250810190610c279190611282565b610c695760405162461bcd60e51b81526020600482015260136024820152721090d2c81d1c985b9cd9995c8819985a5b1959606a1b6044820152606401610492565b610c99610c8461097783600554610ffc90919063ffffffff16565b335f90815260086020526040902054906110b0565b335f90815260086020908152604080832093909355600a90529081208054839290610cc59084906112a1565b9250508190555080600b5f828254610cdd91906112a1565b909155505050565b335f908152600a6020526040902054811115610d435760405162461bcd60e51b815260206004820152601860248201527f496e73756666696369656e742042434b2062616c616e636500000000000000006044820152606401610492565b610d73610d5e61097783600554610ffc90919063ffffffff16565b335f908152600860205260409020549061103d565b335f90815260086020908152604080832093909355600a90529081208054839290610d9f9084906112b4565b9250508190555080600b5f828254610db791906112b4565b909155505060025460405163a9059cbb60e01b8152336004820152602481018390526001600160a01b039091169063a9059cbb906044016020604051808303815f875af1158015610e0a573d5f803e3d5ffd5b505050506040513d601f19601f82011682018060405250810190610e2e9190611282565b6105965760405162461bcd60e51b81526020600482015260136024820152721090d2c81d1c985b9cd9995c8819985a5b1959606a1b6044820152606401610492565b610e85335f356001600160e01b031916610f0c565b610ea15760405162461bcd60e51b8152600401610492906112c7565b6003546001600160a01b0390811690821603610ebb575f80fd5b600480546001810182555f919091527f8a35acfbc15ff81a39ae7d344fd709f28e8600b4aa8c65c6b64bfe7fe36bd19b0180546001600160a01b0319166001600160a01b0392909216919091179055565b5f306001600160a01b03841603610f25575060016105c4565b6001546001600160a01b0390811690841603610f43575060016105c4565b5f546001600160a01b0316610f5957505f6105c4565b5f5460405163b700961360e01b81526001600160a01b0385811660048301523060248301526001600160e01b0319851660448301529091169063b700961390606401602060405180830381865afa158015610fb6573d5f803e3d5ffd5b505050506040513d601f19601f82011682018060405250810190610fda9190611282565b9392505050565b5f82821115610ff257610ff2611309565b610fda82846112b4565b5f825f0361100b57505f6105c4565b611015828461126b565b905081611022848361124c565b146105c4576105c4611309565b5f81818112156105c4575f80fd5b5f80611049838561131d565b90505f831215801561105b5750838112155b8061106f57505f8312801561106f57508381125b610fda575f80fd5b5f80821215611084575f80fd5b5090565b5f610fda828461124c565b5f61109e82846112a1565b9050828110156105c4576105c4611309565b5f8082121580156110ca5750826110c78382611344565b13155b806110e757505f821280156110e75750826110e58382611344565b135b6110ef575f80fd5b610fda8284611344565b6001600160a01b0381168114610596575f80fd5b5f6020828403121561111d575f80fd5b8135610fda816110f9565b606080825284519082018190525f906020906080840190828801845b828110156111695781516001600160a01b031684529284019290840190600101611144565b505050838103828501528551808252868301918301905f5b8181101561119d57835183529284019291840191600101611181565b5050809350505050826040830152949350505050565b5f602082840312156111c3575f80fd5b5035919050565b5f80604083850312156111db575f80fd5b82356111e6816110f9565b915060208301356001600160e01b031981168114611202575f80fd5b809150509250929050565b634e487b7160e01b5f52603260045260245ffd5b5f60208284031215611231575f80fd5b5051919050565b634e487b7160e01b5f52601160045260245ffd5b5f8261126657634e487b7160e01b5f52601260045260245ffd5b500490565b80820281158282048414176105c4576105c4611238565b5f60208284031215611292575f80fd5b81518015158114610fda575f80fd5b808201808211156105c4576105c4611238565b818103818111156105c4576105c4611238565b602080825260149082015273191ccb585d5d1a0b5d5b985d5d1a1bdc9a5e995960621b604082015260600190565b634e487b7160e01b5f52604160045260245ffd5b634e487b7160e01b5f52600160045260245ffd5b8082018281125f83128015821682158216171561133c5761133c611238565b505092915050565b8181035f83128015838313168383128216171561136357611363611238565b509291505056fea264697066735822122035665ac0e4acf08254555c31ee7f481fcf4734280398ac84f93d05308906d63364736f6c63430008170033",
					"opcodes": "PUSH1 0x80 PUSH1 0x40 MSTORE CALLVALUE DUP1 ISZERO PUSH2 0xF JUMPI PUSH0 DUP1 REVERT JUMPDEST POP PUSH1 0x40 MLOAD PUSH2 0x149F CODESIZE SUB DUP1 PUSH2 0x149F DUP4 CODECOPY DUP2 ADD PUSH1 0x40 DUP2 SWAP1 MSTORE PUSH2 0x2E SWAP2 PUSH2 0xC1 JUMP JUMPDEST PUSH1 0x1 DUP1 SLOAD PUSH1 0x1 PUSH1 0x1 PUSH1 0xA0 SHL SUB NOT AND CALLER SWAP1 DUP2 OR SWAP1 SWAP2 SSTORE PUSH1 0x40 MLOAD PUSH32 0xCE241D7CA1F669FEE44B6FC00B8EBA2DF3BB514EED0F6F668F8F89096E81ED94 SWAP1 PUSH0 SWAP1 LOG2 PUSH1 0x2 DUP1 SLOAD PUSH1 0x1 PUSH1 0x1 PUSH1 0xA0 SHL SUB SWAP4 DUP5 AND PUSH1 0x1 PUSH1 0x1 PUSH1 0xA0 SHL SUB NOT SWAP2 DUP3 AND OR SWAP1 SWAP2 SSTORE PUSH1 0x1 DUP1 SLOAD DUP3 AND CALLER OR SWAP1 SSTORE PUSH1 0x3 DUP1 SLOAD SWAP3 SWAP1 SWAP4 AND SWAP2 AND OR SWAP1 SSTORE PUSH2 0xF2 JUMP JUMPDEST DUP1 MLOAD PUSH1 0x1 PUSH1 0x1 PUSH1 0xA0 SHL SUB DUP2 AND DUP2 EQ PUSH2 0xBC JUMPI PUSH0 DUP1 REVERT JUMPDEST SWAP2 SWAP1 POP JUMP JUMPDEST PUSH0 DUP1 PUSH1 0x40 DUP4 DUP6 SUB SLT ISZERO PUSH2 0xD2 JUMPI PUSH0 DUP1 REVERT JUMPDEST PUSH2 0xDB DUP4 PUSH2 0xA6 JUMP JUMPDEST SWAP2 POP PUSH2 0xE9 PUSH1 0x20 DUP5 ADD PUSH2 0xA6 JUMP JUMPDEST SWAP1 POP SWAP3 POP SWAP3 SWAP1 POP JUMP JUMPDEST PUSH2 0x13A0 DUP1 PUSH2 0xFF PUSH0 CODECOPY PUSH0 RETURN INVALID PUSH1 0x80 PUSH1 0x40 MSTORE CALLVALUE DUP1 ISZERO PUSH2 0xF JUMPI PUSH0 DUP1 REVERT JUMPDEST POP PUSH1 0x4 CALLDATASIZE LT PUSH2 0x131 JUMPI PUSH0 CALLDATALOAD PUSH1 0xE0 SHR DUP1 PUSH4 0x86ED7D82 GT PUSH2 0xB4 JUMPI DUP1 PUSH4 0xA1EF92EB GT PUSH2 0x79 JUMPI DUP1 PUSH4 0xA1EF92EB EQ PUSH2 0x27B JUMPI DUP1 PUSH4 0xB35874CB EQ PUSH2 0x29A JUMPI DUP1 PUSH4 0xBF7E214F EQ PUSH2 0x2AD JUMPI DUP1 PUSH4 0xCB6B0200 EQ PUSH2 0x2BF JUMPI DUP1 PUSH4 0xD9972B96 EQ PUSH2 0x2D2 JUMPI DUP1 PUSH4 0xEFCA2EED EQ PUSH2 0x2F5 JUMPI PUSH0 DUP1 REVERT JUMPDEST DUP1 PUSH4 0x86ED7D82 EQ PUSH2 0x21C JUMPI DUP1 PUSH4 0x8DA5CB5B EQ PUSH2 0x22F JUMPI DUP1 PUSH4 0x9778DD2B EQ PUSH2 0x242 JUMPI DUP1 PUSH4 0x9DDF0293 EQ PUSH2 0x255 JUMPI DUP1 PUSH4 0x9E5BE1D0 EQ PUSH2 0x268 JUMPI PUSH0 DUP1 REVERT JUMPDEST DUP1 PUSH4 0x5246FB2D GT PUSH2 0xFA JUMPI DUP1 PUSH4 0x5246FB2D EQ PUSH2 0x1A0 JUMPI DUP1 PUSH4 0x6BD62306 EQ PUSH2 0x1CB JUMPI DUP1 PUSH4 0x71C21934 EQ PUSH2 0x1ED JUMPI DUP1 PUSH4 0x7A9E5E4B EQ PUSH2 0x200 JUMPI DUP1 PUSH4 0x7D882097 EQ PUSH2 0x213 JUMPI PUSH0 DUP1 REVERT JUMPDEST DUP1 PUSH3 0x63750C EQ PUSH2 0x135 JUMPI DUP1 PUSH4 0xF90C97B EQ PUSH2 0x13F JUMPI DUP1 PUSH4 0x13AF4035 EQ PUSH2 0x165 JUMPI DUP1 PUSH4 0x27E235E3 EQ PUSH2 0x178 JUMPI DUP1 PUSH4 0x39BEB7A1 EQ PUSH2 0x197 JUMPI JUMPDEST PUSH0 DUP1 REVERT JUMPDEST PUSH2 0x13D PUSH2 0x2FE JUMP JUMPDEST STOP JUMPDEST PUSH2 0x152 PUSH2 0x14D CALLDATASIZE PUSH1 0x4 PUSH2 0x110D JUMP JUMPDEST PUSH2 0x599 JUMP JUMPDEST PUSH1 0x40 MLOAD SWAP1 DUP2 MSTORE PUSH1 0x20 ADD JUMPDEST PUSH1 0x40 MLOAD DUP1 SWAP2 SUB SWAP1 RETURN JUMPDEST PUSH2 0x13D PUSH2 0x173 CALLDATASIZE PUSH1 0x4 PUSH2 0x110D JUMP JUMPDEST PUSH2 0x5CA JUMP JUMPDEST PUSH2 0x152 PUSH2 0x186 CALLDATASIZE PUSH1 0x4 PUSH2 0x110D JUMP JUMPDEST PUSH1 0xA PUSH1 0x20 MSTORE PUSH0 SWAP1 DUP2 MSTORE PUSH1 0x40 SWAP1 KECCAK256 SLOAD DUP2 JUMP JUMPDEST PUSH2 0x152 PUSH1 0x6 SLOAD DUP2 JUMP JUMPDEST PUSH1 0x3 SLOAD PUSH2 0x1B3 SWAP1 PUSH1 0x1 PUSH1 0x1 PUSH1 0xA0 SHL SUB AND DUP2 JUMP JUMPDEST PUSH1 0x40 MLOAD PUSH1 0x1 PUSH1 0x1 PUSH1 0xA0 SHL SUB SWAP1 SWAP2 AND DUP2 MSTORE PUSH1 0x20 ADD PUSH2 0x15C JUMP JUMPDEST PUSH2 0x1DE PUSH2 0x1D9 CALLDATASIZE PUSH1 0x4 PUSH2 0x110D JUMP JUMPDEST PUSH2 0x644 JUMP JUMPDEST PUSH1 0x40 MLOAD PUSH2 0x15C SWAP4 SWAP3 SWAP2 SWAP1 PUSH2 0x1128 JUMP JUMPDEST PUSH1 0x2 SLOAD PUSH2 0x1B3 SWAP1 PUSH1 0x1 PUSH1 0x1 PUSH1 0xA0 SHL SUB AND DUP2 JUMP JUMPDEST PUSH2 0x13D PUSH2 0x20E CALLDATASIZE PUSH1 0x4 PUSH2 0x110D JUMP JUMPDEST PUSH2 0x895 JUMP JUMPDEST PUSH2 0x152 PUSH1 0xB SLOAD DUP2 JUMP JUMPDEST PUSH2 0x1B3 PUSH2 0x22A CALLDATASIZE PUSH1 0x4 PUSH2 0x11B3 JUMP JUMPDEST PUSH2 0x90D JUMP JUMPDEST PUSH1 0x1 SLOAD PUSH2 0x1B3 SWAP1 PUSH1 0x1 PUSH1 0x1 PUSH1 0xA0 SHL SUB AND DUP2 JUMP JUMPDEST PUSH2 0x152 PUSH2 0x250 CALLDATASIZE PUSH1 0x4 PUSH2 0x110D JUMP JUMPDEST PUSH2 0x935 JUMP JUMPDEST PUSH2 0x13D PUSH2 0x263 CALLDATASIZE PUSH1 0x4 PUSH2 0x11B3 JUMP JUMPDEST PUSH2 0x991 JUMP JUMPDEST PUSH2 0x13D PUSH2 0x276 CALLDATASIZE PUSH1 0x4 PUSH2 0x11B3 JUMP JUMPDEST PUSH2 0xBAF JUMP JUMPDEST PUSH2 0x152 PUSH2 0x289 CALLDATASIZE PUSH1 0x4 PUSH2 0x110D JUMP JUMPDEST PUSH1 0x9 PUSH1 0x20 MSTORE PUSH0 SWAP1 DUP2 MSTORE PUSH1 0x40 SWAP1 KECCAK256 SLOAD DUP2 JUMP JUMPDEST PUSH2 0x13D PUSH2 0x2A8 CALLDATASIZE PUSH1 0x4 PUSH2 0x11B3 JUMP JUMPDEST PUSH2 0xCE5 JUMP JUMPDEST PUSH0 SLOAD PUSH2 0x1B3 SWAP1 PUSH1 0x1 PUSH1 0x1 PUSH1 0xA0 SHL SUB AND DUP2 JUMP JUMPDEST PUSH2 0x13D PUSH2 0x2CD CALLDATASIZE PUSH1 0x4 PUSH2 0x110D JUMP JUMPDEST PUSH2 0xE70 JUMP JUMPDEST PUSH2 0x2E5 PUSH2 0x2E0 CALLDATASIZE PUSH1 0x4 PUSH2 0x11CA JUMP JUMPDEST PUSH2 0xF0C JUMP JUMPDEST PUSH1 0x40 MLOAD SWAP1 ISZERO ISZERO DUP2 MSTORE PUSH1 0x20 ADD PUSH2 0x15C JUMP JUMPDEST PUSH2 0x152 PUSH1 0x7 SLOAD DUP2 JUMP JUMPDEST PUSH0 PUSH2 0x308 CALLER PUSH2 0x599 JUMP JUMPDEST SWAP1 POP DUP1 ISZERO PUSH2 0x596 JUMPI PUSH0 JUMPDEST PUSH1 0x4 SLOAD DUP2 LT ISZERO PUSH2 0x4A5 JUMPI PUSH0 PUSH1 0x4 DUP3 DUP2 SLOAD DUP2 LT PUSH2 0x330 JUMPI PUSH2 0x330 PUSH2 0x120D JUMP JUMPDEST PUSH0 SWAP2 DUP3 MSTORE PUSH1 0x20 SWAP1 SWAP2 KECCAK256 ADD SLOAD PUSH1 0x40 MLOAD PUSH4 0x70A08231 PUSH1 0xE0 SHL DUP2 MSTORE ADDRESS PUSH1 0x4 DUP3 ADD MSTORE PUSH1 0x1 PUSH1 0x1 PUSH1 0xA0 SHL SUB SWAP1 SWAP2 AND SWAP1 PUSH4 0x70A08231 SWAP1 PUSH1 0x24 ADD PUSH1 0x20 PUSH1 0x40 MLOAD DUP1 DUP4 SUB DUP2 DUP7 GAS STATICCALL ISZERO DUP1 ISZERO PUSH2 0x37E JUMPI RETURNDATASIZE PUSH0 DUP1 RETURNDATACOPY RETURNDATASIZE PUSH0 REVERT JUMPDEST POP POP POP POP PUSH1 0x40 MLOAD RETURNDATASIZE PUSH1 0x1F NOT PUSH1 0x1F DUP3 ADD AND DUP3 ADD DUP1 PUSH1 0x40 MSTORE POP DUP2 ADD SWAP1 PUSH2 0x3A2 SWAP2 SWAP1 PUSH2 0x1221 JUMP JUMPDEST SWAP1 POP PUSH0 PUSH1 0x6 SLOAD DUP5 PUSH2 0x3B3 SWAP2 SWAP1 PUSH2 0x124C JUMP JUMPDEST PUSH2 0x3BD SWAP1 DUP4 PUSH2 0x126B JUMP JUMPDEST SWAP1 POP PUSH1 0x4 DUP4 DUP2 SLOAD DUP2 LT PUSH2 0x3D2 JUMPI PUSH2 0x3D2 PUSH2 0x120D JUMP JUMPDEST PUSH0 SWAP2 DUP3 MSTORE PUSH1 0x20 SWAP1 SWAP2 KECCAK256 ADD SLOAD PUSH1 0x40 MLOAD PUSH4 0x23B872DD PUSH1 0xE0 SHL DUP2 MSTORE ADDRESS PUSH1 0x4 DUP3 ADD MSTORE CALLER PUSH1 0x24 DUP3 ADD MSTORE PUSH1 0x44 DUP2 ADD DUP4 SWAP1 MSTORE PUSH1 0x1 PUSH1 0x1 PUSH1 0xA0 SHL SUB SWAP1 SWAP2 AND SWAP1 PUSH4 0x23B872DD SWAP1 PUSH1 0x64 ADD PUSH1 0x20 PUSH1 0x40 MLOAD DUP1 DUP4 SUB DUP2 PUSH0 DUP8 GAS CALL ISZERO DUP1 ISZERO PUSH2 0x42E JUMPI RETURNDATASIZE PUSH0 DUP1 RETURNDATACOPY RETURNDATASIZE PUSH0 REVERT JUMPDEST POP POP POP POP PUSH1 0x40 MLOAD RETURNDATASIZE PUSH1 0x1F NOT PUSH1 0x1F DUP3 ADD AND DUP3 ADD DUP1 PUSH1 0x40 MSTORE POP DUP2 ADD SWAP1 PUSH2 0x452 SWAP2 SWAP1 PUSH2 0x1282 JUMP JUMPDEST PUSH2 0x49B JUMPI PUSH1 0x40 MLOAD PUSH3 0x461BCD PUSH1 0xE5 SHL DUP2 MSTORE PUSH1 0x20 PUSH1 0x4 DUP3 ADD MSTORE PUSH1 0x15 PUSH1 0x24 DUP3 ADD MSTORE PUSH21 0x151BDAD95B881D1C985B9CD9995C8819985A5B1959 PUSH1 0x5A SHL PUSH1 0x44 DUP3 ADD MSTORE PUSH1 0x64 ADD JUMPDEST PUSH1 0x40 MLOAD DUP1 SWAP2 SUB SWAP1 REVERT JUMPDEST POP POP PUSH1 0x1 ADD PUSH2 0x312 JUMP JUMPDEST POP CALLER PUSH0 SWAP1 DUP2 MSTORE PUSH1 0x9 PUSH1 0x20 MSTORE PUSH1 0x40 DUP2 KECCAK256 DUP1 SLOAD DUP4 SWAP3 SWAP1 PUSH2 0x4C4 SWAP1 DUP5 SWAP1 PUSH2 0x12A1 JUMP JUMPDEST SWAP3 POP POP DUP2 SWAP1 SSTORE POP DUP1 PUSH1 0x6 PUSH0 DUP3 DUP3 SLOAD PUSH2 0x4DC SWAP2 SWAP1 PUSH2 0x12B4 JUMP JUMPDEST SWAP1 SWAP2 SSTORE POP POP PUSH1 0x3 SLOAD PUSH1 0x40 MLOAD PUSH4 0xA9059CBB PUSH1 0xE0 SHL DUP2 MSTORE CALLER PUSH1 0x4 DUP3 ADD MSTORE PUSH1 0x24 DUP2 ADD DUP4 SWAP1 MSTORE PUSH1 0x1 PUSH1 0x1 PUSH1 0xA0 SHL SUB SWAP1 SWAP2 AND SWAP1 PUSH4 0xA9059CBB SWAP1 PUSH1 0x44 ADD PUSH1 0x20 PUSH1 0x40 MLOAD DUP1 DUP4 SUB DUP2 PUSH0 DUP8 GAS CALL ISZERO DUP1 ISZERO PUSH2 0x52F JUMPI RETURNDATASIZE PUSH0 DUP1 RETURNDATACOPY RETURNDATASIZE PUSH0 REVERT JUMPDEST POP POP POP POP PUSH1 0x40 MLOAD RETURNDATASIZE PUSH1 0x1F NOT PUSH1 0x1F DUP3 ADD AND DUP3 ADD DUP1 PUSH1 0x40 MSTORE POP DUP2 ADD SWAP1 PUSH2 0x553 SWAP2 SWAP1 PUSH2 0x1282 JUMP JUMPDEST PUSH2 0x596 JUMPI PUSH1 0x40 MLOAD PUSH3 0x461BCD PUSH1 0xE5 SHL DUP2 MSTORE PUSH1 0x20 PUSH1 0x4 DUP3 ADD MSTORE PUSH1 0x14 PUSH1 0x24 DUP3 ADD MSTORE PUSH20 0x1554D110C81D1C985B9CD9995C8819985A5B1959 PUSH1 0x62 SHL PUSH1 0x44 DUP3 ADD MSTORE PUSH1 0x64 ADD PUSH2 0x492 JUMP JUMPDEST POP JUMP JUMPDEST PUSH1 0x1 PUSH1 0x1 PUSH1 0xA0 SHL SUB DUP2 AND PUSH0 SWAP1 DUP2 MSTORE PUSH1 0x9 PUSH1 0x20 MSTORE PUSH1 0x40 DUP2 KECCAK256 SLOAD PUSH2 0x5C4 SWAP1 PUSH2 0x5BE DUP5 PUSH2 0x935 JUMP JUMPDEST SWAP1 PUSH2 0xFE1 JUMP JUMPDEST SWAP3 SWAP2 POP POP JUMP JUMPDEST PUSH2 0x5DF CALLER PUSH0 CALLDATALOAD PUSH1 0x1 PUSH1 0x1 PUSH1 0xE0 SHL SUB NOT AND PUSH2 0xF0C JUMP JUMPDEST PUSH2 0x5FB JUMPI PUSH1 0x40 MLOAD PUSH3 0x461BCD PUSH1 0xE5 SHL DUP2 MSTORE PUSH1 0x4 ADD PUSH2 0x492 SWAP1 PUSH2 0x12C7 JUMP JUMPDEST PUSH1 0x1 DUP1 SLOAD PUSH1 0x1 PUSH1 0x1 PUSH1 0xA0 SHL SUB NOT AND PUSH1 0x1 PUSH1 0x1 PUSH1 0xA0 SHL SUB DUP4 AND SWAP1 DUP2 OR SWAP1 SWAP2 SSTORE PUSH1 0x40 MLOAD PUSH32 0xCE241D7CA1F669FEE44B6FC00B8EBA2DF3BB514EED0F6F668F8F89096E81ED94 SWAP1 PUSH0 SWAP1 LOG2 POP JUMP JUMPDEST PUSH1 0x60 DUP1 PUSH0 DUP1 PUSH1 0x6 SLOAD GT PUSH2 0x6B0 JUMPI PUSH1 0x40 MLOAD PUSH3 0x461BCD PUSH1 0xE5 SHL DUP2 MSTORE PUSH1 0x20 PUSH1 0x4 DUP3 ADD MSTORE PUSH1 0x2E PUSH1 0x24 DUP3 ADD MSTORE PUSH32 0x5448455245204953204E4F20657342434B474F5620494E544552455354204C45 PUSH1 0x44 DUP3 ADD MSTORE PUSH14 0x465420544F205749544844524157 PUSH1 0x90 SHL PUSH1 0x64 DUP3 ADD MSTORE PUSH1 0x84 ADD PUSH2 0x492 JUMP JUMPDEST PUSH0 PUSH2 0x6BA DUP6 PUSH2 0x599 JUMP JUMPDEST PUSH1 0x4 SLOAD SWAP1 SWAP2 POP PUSH0 SWAP1 PUSH8 0xFFFFFFFFFFFFFFFF DUP2 GT ISZERO PUSH2 0x6DA JUMPI PUSH2 0x6DA PUSH2 0x12F5 JUMP JUMPDEST PUSH1 0x40 MLOAD SWAP1 DUP1 DUP3 MSTORE DUP1 PUSH1 0x20 MUL PUSH1 0x20 ADD DUP3 ADD PUSH1 0x40 MSTORE DUP1 ISZERO PUSH2 0x703 JUMPI DUP2 PUSH1 0x20 ADD PUSH1 0x20 DUP3 MUL DUP1 CALLDATASIZE DUP4 CALLDATACOPY ADD SWAP1 POP JUMPDEST POP PUSH1 0x4 SLOAD SWAP1 SWAP2 POP PUSH0 SWAP1 PUSH8 0xFFFFFFFFFFFFFFFF DUP2 GT ISZERO PUSH2 0x724 JUMPI PUSH2 0x724 PUSH2 0x12F5 JUMP JUMPDEST PUSH1 0x40 MLOAD SWAP1 DUP1 DUP3 MSTORE DUP1 PUSH1 0x20 MUL PUSH1 0x20 ADD DUP3 ADD PUSH1 0x40 MSTORE DUP1 ISZERO PUSH2 0x74D JUMPI DUP2 PUSH1 0x20 ADD PUSH1 0x20 DUP3 MUL DUP1 CALLDATASIZE DUP4 CALLDATACOPY ADD SWAP1 POP JUMPDEST POP SWAP1 POP PUSH0 JUMPDEST PUSH1 0x4 SLOAD DUP2 LT ISZERO PUSH2 0x887 JUMPI PUSH1 0x4 DUP2 DUP2 SLOAD DUP2 LT PUSH2 0x76F JUMPI PUSH2 0x76F PUSH2 0x120D JUMP JUMPDEST SWAP1 PUSH0 MSTORE PUSH1 0x20 PUSH0 KECCAK256 ADD PUSH0 SWAP1 SLOAD SWAP1 PUSH2 0x100 EXP SWAP1 DIV PUSH1 0x1 PUSH1 0x1 PUSH1 0xA0 SHL SUB AND DUP4 DUP3 DUP2 MLOAD DUP2 LT PUSH2 0x79C JUMPI PUSH2 0x79C PUSH2 0x120D JUMP JUMPDEST PUSH1 0x20 MUL PUSH1 0x20 ADD ADD SWAP1 PUSH1 0x1 PUSH1 0x1 PUSH1 0xA0 SHL SUB AND SWAP1 DUP2 PUSH1 0x1 PUSH1 0x1 PUSH1 0xA0 SHL SUB AND DUP2 MSTORE POP POP PUSH0 PUSH1 0x4 DUP3 DUP2 SLOAD DUP2 LT PUSH2 0x7D0 JUMPI PUSH2 0x7D0 PUSH2 0x120D JUMP JUMPDEST PUSH0 SWAP2 DUP3 MSTORE PUSH1 0x20 SWAP1 SWAP2 KECCAK256 ADD SLOAD PUSH1 0x40 MLOAD PUSH4 0x70A08231 PUSH1 0xE0 SHL DUP2 MSTORE ADDRESS PUSH1 0x4 DUP3 ADD MSTORE PUSH1 0x1 PUSH1 0x1 PUSH1 0xA0 SHL SUB SWAP1 SWAP2 AND SWAP1 PUSH4 0x70A08231 SWAP1 PUSH1 0x24 ADD PUSH1 0x20 PUSH1 0x40 MLOAD DUP1 DUP4 SUB DUP2 DUP7 GAS STATICCALL ISZERO DUP1 ISZERO PUSH2 0x81E JUMPI RETURNDATASIZE PUSH0 DUP1 RETURNDATACOPY RETURNDATASIZE PUSH0 REVERT JUMPDEST POP POP POP POP PUSH1 0x40 MLOAD RETURNDATASIZE PUSH1 0x1F NOT PUSH1 0x1F DUP3 ADD AND DUP3 ADD DUP1 PUSH1 0x40 MSTORE POP DUP2 ADD SWAP1 PUSH2 0x842 SWAP2 SWAP1 PUSH2 0x1221 JUMP JUMPDEST SWAP1 POP PUSH0 PUSH1 0x6 SLOAD DUP7 PUSH2 0x853 SWAP2 SWAP1 PUSH2 0x124C JUMP JUMPDEST PUSH2 0x85D SWAP1 DUP4 PUSH2 0x126B JUMP JUMPDEST SWAP1 POP DUP1 DUP5 DUP5 DUP2 MLOAD DUP2 LT PUSH2 0x872 JUMPI PUSH2 0x872 PUSH2 0x120D JUMP JUMPDEST PUSH1 0x20 SWAP1 DUP2 MUL SWAP2 SWAP1 SWAP2 ADD ADD MSTORE POP POP PUSH1 0x1 ADD PUSH2 0x752 JUMP JUMPDEST POP SWAP1 SWAP7 SWAP1 SWAP6 POP SWAP1 SWAP4 POP SWAP2 POP POP JUMP JUMPDEST PUSH2 0x8AA CALLER PUSH0 CALLDATALOAD PUSH1 0x1 PUSH1 0x1 PUSH1 0xE0 SHL SUB NOT AND PUSH2 0xF0C JUMP JUMPDEST PUSH2 0x8C6 JUMPI PUSH1 0x40 MLOAD PUSH3 0x461BCD PUSH1 0xE5 SHL DUP2 MSTORE PUSH1 0x4 ADD PUSH2 0x492 SWAP1 PUSH2 0x12C7 JUMP JUMPDEST PUSH0 DUP1 SLOAD PUSH1 0x1 PUSH1 0x1 PUSH1 0xA0 SHL SUB NOT AND PUSH1 0x1 PUSH1 0x1 PUSH1 0xA0 SHL SUB DUP4 AND SWAP1 DUP2 OR DUP3 SSTORE PUSH1 0x40 MLOAD SWAP1 SWAP2 PUSH32 0x1ABEBEA81BFA2637F28358C371278FB15EDE7EA8DD28D2E03B112FF6D936ADA4 SWAP2 LOG2 POP JUMP JUMPDEST PUSH1 0x4 DUP2 DUP2 SLOAD DUP2 LT PUSH2 0x91C JUMPI PUSH0 DUP1 REVERT JUMPDEST PUSH0 SWAP2 DUP3 MSTORE PUSH1 0x20 SWAP1 SWAP2 KECCAK256 ADD SLOAD PUSH1 0x1 PUSH1 0x1 PUSH1 0xA0 SHL SUB AND SWAP1 POP DUP2 JUMP JUMPDEST PUSH1 0x1 PUSH1 0x1 PUSH1 0xA0 SHL SUB DUP2 AND PUSH0 SWAP1 DUP2 MSTORE PUSH1 0x8 PUSH1 0x20 SWAP1 DUP2 MSTORE PUSH1 0x40 DUP1 DUP4 KECCAK256 SLOAD PUSH1 0xA SWAP1 SWAP3 MSTORE DUP3 KECCAK256 SLOAD PUSH1 0x5 SLOAD PUSH1 0x1 PUSH1 0x80 SHL SWAP3 PUSH2 0x987 SWAP3 PUSH2 0x982 SWAP3 PUSH2 0x97C SWAP2 PUSH2 0x977 SWAP2 SWAP1 PUSH2 0xFFC JUMP JUMPDEST PUSH2 0x102F JUMP JUMPDEST SWAP1 PUSH2 0x103D JUMP JUMPDEST PUSH2 0x1077 JUMP JUMPDEST PUSH2 0x5C4 SWAP2 SWAP1 PUSH2 0x124C JUMP JUMPDEST PUSH1 0x3 SLOAD PUSH1 0x40 MLOAD PUSH4 0x70A08231 PUSH1 0xE0 SHL DUP2 MSTORE CALLER PUSH1 0x4 DUP3 ADD MSTORE PUSH0 SWAP2 PUSH1 0x1 PUSH1 0x1 PUSH1 0xA0 SHL SUB AND SWAP1 PUSH4 0x70A08231 SWAP1 PUSH1 0x24 ADD PUSH1 0x20 PUSH1 0x40 MLOAD DUP1 DUP4 SUB DUP2 DUP7 GAS STATICCALL ISZERO DUP1 ISZERO PUSH2 0x9D7 JUMPI RETURNDATASIZE PUSH0 DUP1 RETURNDATACOPY RETURNDATASIZE PUSH0 REVERT JUMPDEST POP POP POP POP PUSH1 0x40 MLOAD RETURNDATASIZE PUSH1 0x1F NOT PUSH1 0x1F DUP3 ADD AND DUP3 ADD DUP1 PUSH1 0x40 MSTORE POP DUP2 ADD SWAP1 PUSH2 0x9FB SWAP2 SWAP1 PUSH2 0x1221 JUMP JUMPDEST SWAP1 POP DUP2 DUP2 LT ISZERO PUSH2 0xA59 JUMPI PUSH1 0x40 MLOAD PUSH3 0x461BCD PUSH1 0xE5 SHL DUP2 MSTORE PUSH1 0x20 PUSH1 0x4 DUP3 ADD MSTORE PUSH1 0x23 PUSH1 0x24 DUP3 ADD MSTORE PUSH32 0x4F776E65722068617320696E73756666696369656E7420555344432062616C61 PUSH1 0x44 DUP3 ADD MSTORE PUSH3 0x6E6365 PUSH1 0xE8 SHL PUSH1 0x64 DUP3 ADD MSTORE PUSH1 0x84 ADD PUSH2 0x492 JUMP JUMPDEST PUSH1 0xB SLOAD ISZERO PUSH2 0xA8D JUMPI PUSH1 0xB SLOAD PUSH2 0xA89 SWAP1 PUSH2 0xA80 SWAP1 PUSH2 0xA7A DUP6 PUSH1 0x1 PUSH1 0x80 SHL PUSH2 0xFFC JUMP JUMPDEST SWAP1 PUSH2 0x1088 JUMP JUMPDEST PUSH1 0x5 SLOAD SWAP1 PUSH2 0x1093 JUMP JUMPDEST PUSH1 0x5 SSTORE JUMPDEST DUP2 PUSH1 0x6 PUSH0 DUP3 DUP3 SLOAD PUSH2 0xA9E SWAP2 SWAP1 PUSH2 0x12A1 JUMP JUMPDEST SWAP3 POP POP DUP2 SWAP1 SSTORE POP DUP2 PUSH1 0x7 PUSH0 DUP3 DUP3 SLOAD PUSH2 0xAB6 SWAP2 SWAP1 PUSH2 0x12A1 JUMP JUMPDEST SWAP1 SWAP2 SSTORE POP POP PUSH1 0x40 MLOAD DUP3 DUP2 MSTORE CALLER SWAP1 PUSH32 0x4C03FE3EA6A2027470AF10696E6E65A7EAE16DE0BD8ECF5F6D33B776DE097A3 SWAP1 PUSH1 0x20 ADD PUSH1 0x40 MLOAD DUP1 SWAP2 SUB SWAP1 LOG2 PUSH1 0x3 SLOAD PUSH1 0x40 MLOAD PUSH4 0x23B872DD PUSH1 0xE0 SHL DUP2 MSTORE CALLER PUSH1 0x4 DUP3 ADD MSTORE ADDRESS PUSH1 0x24 DUP3 ADD MSTORE PUSH1 0x44 DUP2 ADD DUP5 SWAP1 MSTORE PUSH1 0x1 PUSH1 0x1 PUSH1 0xA0 SHL SUB SWAP1 SWAP2 AND SWAP1 PUSH4 0x23B872DD SWAP1 PUSH1 0x64 ADD PUSH1 0x20 PUSH1 0x40 MLOAD DUP1 DUP4 SUB DUP2 PUSH0 DUP8 GAS CALL ISZERO DUP1 ISZERO PUSH2 0xB44 JUMPI RETURNDATASIZE PUSH0 DUP1 RETURNDATACOPY RETURNDATASIZE PUSH0 REVERT JUMPDEST POP POP POP POP PUSH1 0x40 MLOAD RETURNDATASIZE PUSH1 0x1F NOT PUSH1 0x1F DUP3 ADD AND DUP3 ADD DUP1 PUSH1 0x40 MSTORE POP DUP2 ADD SWAP1 PUSH2 0xB68 SWAP2 SWAP1 PUSH2 0x1282 JUMP JUMPDEST PUSH2 0xBAB JUMPI PUSH1 0x40 MLOAD PUSH3 0x461BCD PUSH1 0xE5 SHL DUP2 MSTORE PUSH1 0x20 PUSH1 0x4 DUP3 ADD MSTORE PUSH1 0x14 PUSH1 0x24 DUP3 ADD MSTORE PUSH20 0x1554D110C81D1C985B9CD9995C8819985A5B1959 PUSH1 0x62 SHL PUSH1 0x44 DUP3 ADD MSTORE PUSH1 0x64 ADD PUSH2 0x492 JUMP JUMPDEST POP POP JUMP JUMPDEST PUSH1 0x2 SLOAD PUSH1 0x40 MLOAD PUSH4 0x23B872DD PUSH1 0xE0 SHL DUP2 MSTORE CALLER PUSH1 0x4 DUP3 ADD MSTORE ADDRESS PUSH1 0x24 DUP3 ADD MSTORE PUSH1 0x44 DUP2 ADD DUP4 SWAP1 MSTORE PUSH1 0x1 PUSH1 0x1 PUSH1 0xA0 SHL SUB SWAP1 SWAP2 AND SWAP1 PUSH4 0x23B872DD SWAP1 PUSH1 0x64 ADD PUSH1 0x20 PUSH1 0x40 MLOAD DUP1 DUP4 SUB DUP2 PUSH0 DUP8 GAS CALL ISZERO DUP1 ISZERO PUSH2 0xC03 JUMPI RETURNDATASIZE PUSH0 DUP1 RETURNDATACOPY RETURNDATASIZE PUSH0 REVERT JUMPDEST POP POP POP POP PUSH1 0x40 MLOAD RETURNDATASIZE PUSH1 0x1F NOT PUSH1 0x1F DUP3 ADD AND DUP3 ADD DUP1 PUSH1 0x40 MSTORE POP DUP2 ADD SWAP1 PUSH2 0xC27 SWAP2 SWAP1 PUSH2 0x1282 JUMP JUMPDEST PUSH2 0xC69 JUMPI PUSH1 0x40 MLOAD PUSH3 0x461BCD PUSH1 0xE5 SHL DUP2 MSTORE PUSH1 0x20 PUSH1 0x4 DUP3 ADD MSTORE PUSH1 0x13 PUSH1 0x24 DUP3 ADD MSTORE PUSH19 0x1090D2C81D1C985B9CD9995C8819985A5B1959 PUSH1 0x6A SHL PUSH1 0x44 DUP3 ADD MSTORE PUSH1 0x64 ADD PUSH2 0x492 JUMP JUMPDEST PUSH2 0xC99 PUSH2 0xC84 PUSH2 0x977 DUP4 PUSH1 0x5 SLOAD PUSH2 0xFFC SWAP1 SWAP2 SWAP1 PUSH4 0xFFFFFFFF AND JUMP JUMPDEST CALLER PUSH0 SWAP1 DUP2 MSTORE PUSH1 0x8 PUSH1 0x20 MSTORE PUSH1 0x40 SWAP1 KECCAK256 SLOAD SWAP1 PUSH2 0x10B0 JUMP JUMPDEST CALLER PUSH0 SWAP1 DUP2 MSTORE PUSH1 0x8 PUSH1 0x20 SWAP1 DUP2 MSTORE PUSH1 0x40 DUP1 DUP4 KECCAK256 SWAP4 SWAP1 SWAP4 SSTORE PUSH1 0xA SWAP1 MSTORE SWAP1 DUP2 KECCAK256 DUP1 SLOAD DUP4 SWAP3 SWAP1 PUSH2 0xCC5 SWAP1 DUP5 SWAP1 PUSH2 0x12A1 JUMP JUMPDEST SWAP3 POP POP DUP2 SWAP1 SSTORE POP DUP1 PUSH1 0xB PUSH0 DUP3 DUP3 SLOAD PUSH2 0xCDD SWAP2 SWAP1 PUSH2 0x12A1 JUMP JUMPDEST SWAP1 SWAP2 SSTORE POP POP POP JUMP JUMPDEST CALLER PUSH0 SWAP1 DUP2 MSTORE PUSH1 0xA PUSH1 0x20 MSTORE PUSH1 0x40 SWAP1 KECCAK256 SLOAD DUP2 GT ISZERO PUSH2 0xD43 JUMPI PUSH1 0x40 MLOAD PUSH3 0x461BCD PUSH1 0xE5 SHL DUP2 MSTORE PUSH1 0x20 PUSH1 0x4 DUP3 ADD MSTORE PUSH1 0x18 PUSH1 0x24 DUP3 ADD MSTORE PUSH32 0x496E73756666696369656E742042434B2062616C616E63650000000000000000 PUSH1 0x44 DUP3 ADD MSTORE PUSH1 0x64 ADD PUSH2 0x492 JUMP JUMPDEST PUSH2 0xD73 PUSH2 0xD5E PUSH2 0x977 DUP4 PUSH1 0x5 SLOAD PUSH2 0xFFC SWAP1 SWAP2 SWAP1 PUSH4 0xFFFFFFFF AND JUMP JUMPDEST CALLER PUSH0 SWAP1 DUP2 MSTORE PUSH1 0x8 PUSH1 0x20 MSTORE PUSH1 0x40 SWAP1 KECCAK256 SLOAD SWAP1 PUSH2 0x103D JUMP JUMPDEST CALLER PUSH0 SWAP1 DUP2 MSTORE PUSH1 0x8 PUSH1 0x20 SWAP1 DUP2 MSTORE PUSH1 0x40 DUP1 DUP4 KECCAK256 SWAP4 SWAP1 SWAP4 SSTORE PUSH1 0xA SWAP1 MSTORE SWAP1 DUP2 KECCAK256 DUP1 SLOAD DUP4 SWAP3 SWAP1 PUSH2 0xD9F SWAP1 DUP5 SWAP1 PUSH2 0x12B4 JUMP JUMPDEST SWAP3 POP POP DUP2 SWAP1 SSTORE POP DUP1 PUSH1 0xB PUSH0 DUP3 DUP3 SLOAD PUSH2 0xDB7 SWAP2 SWAP1 PUSH2 0x12B4 JUMP JUMPDEST SWAP1 SWAP2 SSTORE POP POP PUSH1 0x2 SLOAD PUSH1 0x40 MLOAD PUSH4 0xA9059CBB PUSH1 0xE0 SHL DUP2 MSTORE CALLER PUSH1 0x4 DUP3 ADD MSTORE PUSH1 0x24 DUP2 ADD DUP4 SWAP1 MSTORE PUSH1 0x1 PUSH1 0x1 PUSH1 0xA0 SHL SUB SWAP1 SWAP2 AND SWAP1 PUSH4 0xA9059CBB SWAP1 PUSH1 0x44 ADD PUSH1 0x20 PUSH1 0x40 MLOAD DUP1 DUP4 SUB DUP2 PUSH0 DUP8 GAS CALL ISZERO DUP1 ISZERO PUSH2 0xE0A JUMPI RETURNDATASIZE PUSH0 DUP1 RETURNDATACOPY RETURNDATASIZE PUSH0 REVERT JUMPDEST POP POP POP POP PUSH1 0x40 MLOAD RETURNDATASIZE PUSH1 0x1F NOT PUSH1 0x1F DUP3 ADD AND DUP3 ADD DUP1 PUSH1 0x40 MSTORE POP DUP2 ADD SWAP1 PUSH2 0xE2E SWAP2 SWAP1 PUSH2 0x1282 JUMP JUMPDEST PUSH2 0x596 JUMPI PUSH1 0x40 MLOAD PUSH3 0x461BCD PUSH1 0xE5 SHL DUP2 MSTORE PUSH1 0x20 PUSH1 0x4 DUP3 ADD MSTORE PUSH1 0x13 PUSH1 0x24 DUP3 ADD MSTORE PUSH19 0x1090D2C81D1C985B9CD9995C8819985A5B1959 PUSH1 0x6A SHL PUSH1 0x44 DUP3 ADD MSTORE PUSH1 0x64 ADD PUSH2 0x492 JUMP JUMPDEST PUSH2 0xE85 CALLER PUSH0 CALLDATALOAD PUSH1 0x1 PUSH1 0x1 PUSH1 0xE0 SHL SUB NOT AND PUSH2 0xF0C JUMP JUMPDEST PUSH2 0xEA1 JUMPI PUSH1 0x40 MLOAD PUSH3 0x461BCD PUSH1 0xE5 SHL DUP2 MSTORE PUSH1 0x4 ADD PUSH2 0x492 SWAP1 PUSH2 0x12C7 JUMP JUMPDEST PUSH1 0x3 SLOAD PUSH1 0x1 PUSH1 0x1 PUSH1 0xA0 SHL SUB SWAP1 DUP2 AND SWAP1 DUP3 AND SUB PUSH2 0xEBB JUMPI PUSH0 DUP1 REVERT JUMPDEST PUSH1 0x4 DUP1 SLOAD PUSH1 0x1 DUP2 ADD DUP3 SSTORE PUSH0 SWAP2 SWAP1 SWAP2 MSTORE PUSH32 0x8A35ACFBC15FF81A39AE7D344FD709F28E8600B4AA8C65C6B64BFE7FE36BD19B ADD DUP1 SLOAD PUSH1 0x1 PUSH1 0x1 PUSH1 0xA0 SHL SUB NOT AND PUSH1 0x1 PUSH1 0x1 PUSH1 0xA0 SHL SUB SWAP3 SWAP1 SWAP3 AND SWAP2 SWAP1 SWAP2 OR SWAP1 SSTORE JUMP JUMPDEST PUSH0 ADDRESS PUSH1 0x1 PUSH1 0x1 PUSH1 0xA0 SHL SUB DUP5 AND SUB PUSH2 0xF25 JUMPI POP PUSH1 0x1 PUSH2 0x5C4 JUMP JUMPDEST PUSH1 0x1 SLOAD PUSH1 0x1 PUSH1 0x1 PUSH1 0xA0 SHL SUB SWAP1 DUP2 AND SWAP1 DUP5 AND SUB PUSH2 0xF43 JUMPI POP PUSH1 0x1 PUSH2 0x5C4 JUMP JUMPDEST PUSH0 SLOAD PUSH1 0x1 PUSH1 0x1 PUSH1 0xA0 SHL SUB AND PUSH2 0xF59 JUMPI POP PUSH0 PUSH2 0x5C4 JUMP JUMPDEST PUSH0 SLOAD PUSH1 0x40 MLOAD PUSH4 0xB7009613 PUSH1 0xE0 SHL DUP2 MSTORE PUSH1 0x1 PUSH1 0x1 PUSH1 0xA0 SHL SUB DUP6 DUP2 AND PUSH1 0x4 DUP4 ADD MSTORE ADDRESS PUSH1 0x24 DUP4 ADD MSTORE PUSH1 0x1 PUSH1 0x1 PUSH1 0xE0 SHL SUB NOT DUP6 AND PUSH1 0x44 DUP4 ADD MSTORE SWAP1 SWAP2 AND SWAP1 PUSH4 0xB7009613 SWAP1 PUSH1 0x64 ADD PUSH1 0x20 PUSH1 0x40 MLOAD DUP1 DUP4 SUB DUP2 DUP7 GAS STATICCALL ISZERO DUP1 ISZERO PUSH2 0xFB6 JUMPI RETURNDATASIZE PUSH0 DUP1 RETURNDATACOPY RETURNDATASIZE PUSH0 REVERT JUMPDEST POP POP POP POP PUSH1 0x40 MLOAD RETURNDATASIZE PUSH1 0x1F NOT PUSH1 0x1F DUP3 ADD AND DUP3 ADD DUP1 PUSH1 0x40 MSTORE POP DUP2 ADD SWAP1 PUSH2 0xFDA SWAP2 SWAP1 PUSH2 0x1282 JUMP JUMPDEST SWAP4 SWAP3 POP POP POP JUMP JUMPDEST PUSH0 DUP3 DUP3 GT ISZERO PUSH2 0xFF2 JUMPI PUSH2 0xFF2 PUSH2 0x1309 JUMP JUMPDEST PUSH2 0xFDA DUP3 DUP5 PUSH2 0x12B4 JUMP JUMPDEST PUSH0 DUP3 PUSH0 SUB PUSH2 0x100B JUMPI POP PUSH0 PUSH2 0x5C4 JUMP JUMPDEST PUSH2 0x1015 DUP3 DUP5 PUSH2 0x126B JUMP JUMPDEST SWAP1 POP DUP2 PUSH2 0x1022 DUP5 DUP4 PUSH2 0x124C JUMP JUMPDEST EQ PUSH2 0x5C4 JUMPI PUSH2 0x5C4 PUSH2 0x1309 JUMP JUMPDEST PUSH0 DUP2 DUP2 DUP2 SLT ISZERO PUSH2 0x5C4 JUMPI PUSH0 DUP1 REVERT JUMPDEST PUSH0 DUP1 PUSH2 0x1049 DUP4 DUP6 PUSH2 0x131D JUMP JUMPDEST SWAP1 POP PUSH0 DUP4 SLT ISZERO DUP1 ISZERO PUSH2 0x105B JUMPI POP DUP4 DUP2 SLT ISZERO JUMPDEST DUP1 PUSH2 0x106F JUMPI POP PUSH0 DUP4 SLT DUP1 ISZERO PUSH2 0x106F JUMPI POP DUP4 DUP2 SLT JUMPDEST PUSH2 0xFDA JUMPI PUSH0 DUP1 REVERT JUMPDEST PUSH0 DUP1 DUP3 SLT ISZERO PUSH2 0x1084 JUMPI PUSH0 DUP1 REVERT JUMPDEST POP SWAP1 JUMP JUMPDEST PUSH0 PUSH2 0xFDA DUP3 DUP5 PUSH2 0x124C JUMP JUMPDEST PUSH0 PUSH2 0x109E DUP3 DUP5 PUSH2 0x12A1 JUMP JUMPDEST SWAP1 POP DUP3 DUP2 LT ISZERO PUSH2 0x5C4 JUMPI PUSH2 0x5C4 PUSH2 0x1309 JUMP JUMPDEST PUSH0 DUP1 DUP3 SLT ISZERO DUP1 ISZERO PUSH2 0x10CA JUMPI POP DUP3 PUSH2 0x10C7 DUP4 DUP3 PUSH2 0x1344 JUMP JUMPDEST SGT ISZERO JUMPDEST DUP1 PUSH2 0x10E7 JUMPI POP PUSH0 DUP3 SLT DUP1 ISZERO PUSH2 0x10E7 JUMPI POP DUP3 PUSH2 0x10E5 DUP4 DUP3 PUSH2 0x1344 JUMP JUMPDEST SGT JUMPDEST PUSH2 0x10EF JUMPI PUSH0 DUP1 REVERT JUMPDEST PUSH2 0xFDA DUP3 DUP5 PUSH2 0x1344 JUMP JUMPDEST PUSH1 0x1 PUSH1 0x1 PUSH1 0xA0 SHL SUB DUP2 AND DUP2 EQ PUSH2 0x596 JUMPI PUSH0 DUP1 REVERT JUMPDEST PUSH0 PUSH1 0x20 DUP3 DUP5 SUB SLT ISZERO PUSH2 0x111D JUMPI PUSH0 DUP1 REVERT JUMPDEST DUP2 CALLDATALOAD PUSH2 0xFDA DUP2 PUSH2 0x10F9 JUMP JUMPDEST PUSH1 0x60 DUP1 DUP3 MSTORE DUP5 MLOAD SWAP1 DUP3 ADD DUP2 SWAP1 MSTORE PUSH0 SWAP1 PUSH1 0x20 SWAP1 PUSH1 0x80 DUP5 ADD SWAP1 DUP3 DUP9 ADD DUP5 JUMPDEST DUP3 DUP2 LT ISZERO PUSH2 0x1169 JUMPI DUP2 MLOAD PUSH1 0x1 PUSH1 0x1 PUSH1 0xA0 SHL SUB AND DUP5 MSTORE SWAP3 DUP5 ADD SWAP3 SWAP1 DUP5 ADD SWAP1 PUSH1 0x1 ADD PUSH2 0x1144 JUMP JUMPDEST POP POP POP DUP4 DUP2 SUB DUP3 DUP6 ADD MSTORE DUP6 MLOAD DUP1 DUP3 MSTORE DUP7 DUP4 ADD SWAP2 DUP4 ADD SWAP1 PUSH0 JUMPDEST DUP2 DUP2 LT ISZERO PUSH2 0x119D JUMPI DUP4 MLOAD DUP4 MSTORE SWAP3 DUP5 ADD SWAP3 SWAP2 DUP5 ADD SWAP2 PUSH1 0x1 ADD PUSH2 0x1181 JUMP JUMPDEST POP POP DUP1 SWAP4 POP POP POP POP DUP3 PUSH1 0x40 DUP4 ADD MSTORE SWAP5 SWAP4 POP POP POP POP JUMP JUMPDEST PUSH0 PUSH1 0x20 DUP3 DUP5 SUB SLT ISZERO PUSH2 0x11C3 JUMPI PUSH0 DUP1 REVERT JUMPDEST POP CALLDATALOAD SWAP2 SWAP1 POP JUMP JUMPDEST PUSH0 DUP1 PUSH1 0x40 DUP4 DUP6 SUB SLT ISZERO PUSH2 0x11DB JUMPI PUSH0 DUP1 REVERT JUMPDEST DUP3 CALLDATALOAD PUSH2 0x11E6 DUP2 PUSH2 0x10F9 JUMP JUMPDEST SWAP2 POP PUSH1 0x20 DUP4 ADD CALLDATALOAD PUSH1 0x1 PUSH1 0x1 PUSH1 0xE0 SHL SUB NOT DUP2 AND DUP2 EQ PUSH2 0x1202 JUMPI PUSH0 DUP1 REVERT JUMPDEST DUP1 SWAP2 POP POP SWAP3 POP SWAP3 SWAP1 POP JUMP JUMPDEST PUSH4 0x4E487B71 PUSH1 0xE0 SHL PUSH0 MSTORE PUSH1 0x32 PUSH1 0x4 MSTORE PUSH1 0x24 PUSH0 REVERT JUMPDEST PUSH0 PUSH1 0x20 DUP3 DUP5 SUB SLT ISZERO PUSH2 0x1231 JUMPI PUSH0 DUP1 REVERT JUMPDEST POP MLOAD SWAP2 SWAP1 POP JUMP JUMPDEST PUSH4 0x4E487B71 PUSH1 0xE0 SHL PUSH0 MSTORE PUSH1 0x11 PUSH1 0x4 MSTORE PUSH1 0x24 PUSH0 REVERT JUMPDEST PUSH0 DUP3 PUSH2 0x1266 JUMPI PUSH4 0x4E487B71 PUSH1 0xE0 SHL PUSH0 MSTORE PUSH1 0x12 PUSH1 0x4 MSTORE PUSH1 0x24 PUSH0 REVERT JUMPDEST POP DIV SWAP1 JUMP JUMPDEST DUP1 DUP3 MUL DUP2 ISZERO DUP3 DUP3 DIV DUP5 EQ OR PUSH2 0x5C4 JUMPI PUSH2 0x5C4 PUSH2 0x1238 JUMP JUMPDEST PUSH0 PUSH1 0x20 DUP3 DUP5 SUB SLT ISZERO PUSH2 0x1292 JUMPI PUSH0 DUP1 REVERT JUMPDEST DUP2 MLOAD DUP1 ISZERO ISZERO DUP2 EQ PUSH2 0xFDA JUMPI PUSH0 DUP1 REVERT JUMPDEST DUP1 DUP3 ADD DUP1 DUP3 GT ISZERO PUSH2 0x5C4 JUMPI PUSH2 0x5C4 PUSH2 0x1238 JUMP JUMPDEST DUP2 DUP2 SUB DUP2 DUP2 GT ISZERO PUSH2 0x5C4 JUMPI PUSH2 0x5C4 PUSH2 0x1238 JUMP JUMPDEST PUSH1 0x20 DUP1 DUP3 MSTORE PUSH1 0x14 SWAP1 DUP3 ADD MSTORE PUSH20 0x191CCB585D5D1A0B5D5B985D5D1A1BDC9A5E9959 PUSH1 0x62 SHL PUSH1 0x40 DUP3 ADD MSTORE PUSH1 0x60 ADD SWAP1 JUMP JUMPDEST PUSH4 0x4E487B71 PUSH1 0xE0 SHL PUSH0 MSTORE PUSH1 0x41 PUSH1 0x4 MSTORE PUSH1 0x24 PUSH0 REVERT JUMPDEST PUSH4 0x4E487B71 PUSH1 0xE0 SHL PUSH0 MSTORE PUSH1 0x1 PUSH1 0x4 MSTORE PUSH1 0x24 PUSH0 REVERT JUMPDEST DUP1 DUP3 ADD DUP3 DUP2 SLT PUSH0 DUP4 SLT DUP1 ISZERO DUP3 AND DUP3 ISZERO DUP3 AND OR ISZERO PUSH2 0x133C JUMPI PUSH2 0x133C PUSH2 0x1238 JUMP JUMPDEST POP POP SWAP3 SWAP2 POP POP JUMP JUMPDEST DUP2 DUP2 SUB PUSH0 DUP4 SLT DUP1 ISZERO DUP4 DUP4 SGT AND DUP4 DUP4 SLT DUP3 AND OR ISZERO PUSH2 0x1363 JUMPI PUSH2 0x1363 PUSH2 0x1238 JUMP JUMPDEST POP SWAP3 SWAP2 POP POP JUMP INVALID LOG2 PUSH5 0x6970667358 0x22 SLT KECCAK256 CALLDATALOAD PUSH7 0x5AC0E4ACF08254 SSTORE 0x5C BALANCE 0xEE PUSH32 0x481FCF4734280398AC84F93D05308906D63364736F6C63430008170033000000 "
				},
				"gasEstimates": {
					"creation": {
						"codeDepositCost": "1004800",
						"executionCost": "infinite",
						"totalCost": "infinite"
					},
					"external": {
						"accumulativeInterestOf(address)": "infinite",
						"addExcessToken(address)": "infinite",
						"authority()": "2401",
						"balances(address)": "2589",
						"bck()": "2403",
						"currentdistrbutedBCKGOV()": "2395",
						"depositBCK(uint256)": "infinite",
						"distributeBCKGOV(uint256)": "infinite",
						"esBCKGOV()": "2359",
						"excessBCKGOVTest(address)": "infinite",
						"excessTokens(uint256)": "4634",
						"isAuthorized(address,bytes4)": "infinite",
						"owner()": "2381",
						"setAuthority(address)": "infinite",
						"setOwner(address)": "infinite",
						"totalDeposits()": "2394",
						"totalDistributed()": "2415",
						"withdrawBCK(uint256)": "infinite",
						"withdrawInterest()": "infinite",
						"withdrawableInterestOf(address)": "infinite",
						"withdrawnInterest(address)": "2521"
					}
				},
				"methodIdentifiers": {
					"accumulativeInterestOf(address)": "9778dd2b",
					"addExcessToken(address)": "cb6b0200",
					"authority()": "bf7e214f",
					"balances(address)": "27e235e3",
					"bck()": "71c21934",
					"currentdistrbutedBCKGOV()": "39beb7a1",
					"depositBCK(uint256)": "9e5be1d0",
					"distributeBCKGOV(uint256)": "9ddf0293",
					"esBCKGOV()": "5246fb2d",
					"excessBCKGOVTest(address)": "6bd62306",
					"excessTokens(uint256)": "86ed7d82",
					"isAuthorized(address,bytes4)": "d9972b96",
					"owner()": "8da5cb5b",
					"setAuthority(address)": "7a9e5e4b",
					"setOwner(address)": "13af4035",
					"totalDeposits()": "7d882097",
					"totalDistributed()": "efca2eed",
					"withdrawBCK(uint256)": "b35874cb",
					"withdrawInterest()": "0063750c",
					"withdrawableInterestOf(address)": "0f90c97b",
					"withdrawnInterest(address)": "a1ef92eb"
				}
			},
			"storageLayout": {
				"storage": [
					{
						"astId": 557,
						"contract": "Crypto-side-main/stake.sol:BCKSavingsAccount",
						"label": "authority",
						"offset": 0,
						"slot": "0",
						"type": "t_contract(DSAuthority)543"
					},
					{
						"astId": 559,
						"contract": "Crypto-side-main/stake.sol:BCKSavingsAccount",
						"label": "owner",
						"offset": 0,
						"slot": "1",
						"type": "t_address"
					},
					{
						"astId": 1448,
						"contract": "Crypto-side-main/stake.sol:BCKSavingsAccount",
						"label": "bck",
						"offset": 0,
						"slot": "2",
						"type": "t_contract(ERC20)1085"
					},
					{
						"astId": 1451,
						"contract": "Crypto-side-main/stake.sol:BCKSavingsAccount",
						"label": "esBCKGOV",
						"offset": 0,
						"slot": "3",
						"type": "t_contract(ERC20)1085"
					},
					{
						"astId": 1455,
						"contract": "Crypto-side-main/stake.sol:BCKSavingsAccount",
						"label": "excessTokens",
						"offset": 0,
						"slot": "4",
						"type": "t_array(t_contract(DSToken)1013)dyn_storage"
					},
					{
						"astId": 1462,
						"contract": "Crypto-side-main/stake.sol:BCKSavingsAccount",
						"label": "magnifiedInterestPerShare",
						"offset": 0,
						"slot": "5",
						"type": "t_uint256"
					},
					{
						"astId": 1464,
						"contract": "Crypto-side-main/stake.sol:BCKSavingsAccount",
						"label": "currentdistrbutedBCKGOV",
						"offset": 0,
						"slot": "6",
						"type": "t_uint256"
					},
					{
						"astId": 1466,
						"contract": "Crypto-side-main/stake.sol:BCKSavingsAccount",
						"label": "totalDistributed",
						"offset": 0,
						"slot": "7",
						"type": "t_uint256"
					},
					{
						"astId": 1470,
						"contract": "Crypto-side-main/stake.sol:BCKSavingsAccount",
						"label": "magnifiedInterestCorrections",
						"offset": 0,
						"slot": "8",
						"type": "t_mapping(t_address,t_int256)"
					},
					{
						"astId": 1474,
						"contract": "Crypto-side-main/stake.sol:BCKSavingsAccount",
						"label": "withdrawnInterest",
						"offset": 0,
						"slot": "9",
						"type": "t_mapping(t_address,t_uint256)"
					},
					{
						"astId": 1478,
						"contract": "Crypto-side-main/stake.sol:BCKSavingsAccount",
						"label": "balances",
						"offset": 0,
						"slot": "10",
						"type": "t_mapping(t_address,t_uint256)"
					},
					{
						"astId": 1480,
						"contract": "Crypto-side-main/stake.sol:BCKSavingsAccount",
						"label": "totalDeposits",
						"offset": 0,
						"slot": "11",
						"type": "t_uint256"
					}
				],
				"types": {
					"t_address": {
						"encoding": "inplace",
						"label": "address",
						"numberOfBytes": "20"
					},
					"t_array(t_contract(DSToken)1013)dyn_storage": {
						"base": "t_contract(DSToken)1013",
						"encoding": "dynamic_array",
						"label": "contract DSToken[]",
						"numberOfBytes": "32"
					},
					"t_contract(DSAuthority)543": {
						"encoding": "inplace",
						"label": "contract DSAuthority",
						"numberOfBytes": "20"
					},
					"t_contract(DSToken)1013": {
						"encoding": "inplace",
						"label": "contract DSToken",
						"numberOfBytes": "20"
					},
					"t_contract(ERC20)1085": {
						"encoding": "inplace",
						"label": "contract ERC20",
						"numberOfBytes": "20"
					},
					"t_int256": {
						"encoding": "inplace",
						"label": "int256",
						"numberOfBytes": "32"
					},
					"t_mapping(t_address,t_int256)": {
						"encoding": "mapping",
						"key": "t_address",
						"label": "mapping(address => int256)",
						"numberOfBytes": "32",
						"value": "t_int256"
					},
					"t_mapping(t_address,t_uint256)": {
						"encoding": "mapping",
						"key": "t_address",
						"label": "mapping(address => uint256)",
						"numberOfBytes": "32",
						"value": "t_uint256"
					},
					"t_uint256": {
						"encoding": "inplace",
						"label": "uint256",
						"numberOfBytes": "32"
					}
				}
			},
			"userdoc": {
				"kind": "user",
				"methods": {},
				"version": 1
			}
		}
	}
}