{
	"data": {
		"bytecode": {
			"linkReferences": {},
			"object": "6080604052600b805460ff60a01b1916905534801561001c575f80fd5b50600180546001600160a01b031916339081179091556040517fce241d7ca1f669fee44b6fc00b8eba2df3bb514eed0f6f668f8f89096e81ed94905f90a2600180546001600160a01b03191633179055619e49806100795f395ff3fe608060405234801562000010575f80fd5b5060043610620001c4575f3560e01c806379502c551162000107578063bf7e214f116200009f578063d9972b961162000077578063d9972b961462000388578063e25fe17514620003b0578063e451753714620003d8578063fe3f85fd14620003ec575f80fd5b8063bf7e214f1462000354578063ce6b4aa91462000367578063d4abc9f7146200037e575f80fd5b806390a067f111620000df57806390a067f11462000312578063931f5534146200031c578063b1cb72181462000333578063be28f5db146200034a575f80fd5b806379502c5514620002dd5780637a9e5e4b14620002e75780638da5cb5b14620002fe575f80fd5b8063458efde3116200017b5780635246fb2d11620001535780635246fb2d146200028d57806357f2bc7814620002a1578063689da08e14620002b557806371c2193414620002c9575f80fd5b8063458efde3146200025b57806347c6f442146200026f57806350a7755e1462000283575f80fd5b80630725bc7514620001c85780630a79a03e14620001f957806313af4035146200020d57806317520e47146200022657806318ee85d4146200023d5780634011fec11462000251575b5f80fd5b600a54620001dc906001600160a01b031681565b6040516001600160a01b0390911681526020015b60405180910390f35b600554620001dc906001600160a01b031681565b620002246200021e366004620021b8565b62000403565b005b620001dc62000237366004620021dd565b6200048b565b600754620001dc906001600160a01b031681565b6200022462000568565b600954620001dc906001600160a01b031681565b600854620001dc906001600160a01b031681565b620001dc62000729565b600454620001dc906001600160a01b031681565b600654620001dc906001600160a01b031681565b600b54620001dc906001600160a01b031681565b600254620001dc906001600160a01b031681565b62000224620007ea565b62000224620002f8366004620021b8565b62000afb565b600154620001dc906001600160a01b031681565b6200022462000b78565b620001dc6200032d36600462002219565b62001b4d565b620001dc620003443660046200227b565b62001c3f565b6200022462001d27565b5f54620001dc906001600160a01b031681565b620001dc62000378366004620021dd565b62001ede565b620001dc62001f25565b6200039f62000399366004620022ca565b62001f6a565b6040519015158152602001620001f0565b600b54620003c590600160a01b900460ff1681565b60405160ff9091168152602001620001f0565b600354620001dc906001600160a01b031681565b620001dc620003fd3660046200231a565b6200203d565b6200041a335f356001600160e01b03191662001f6a565b620004425760405162461bcd60e51b81526004016200043990620023cf565b60405180910390fd5b600180546001600160a01b0319166001600160a01b0383169081179091556040517fce241d7ca1f669fee44b6fc00b8eba2df3bb514eed0f6f668f8f89096e81ed94905f90a250565b5f620004a3335f356001600160e01b03191662001f6a565b620004c25760405162461bcd60e51b81526004016200043990620023cf565b8282604051620004d2906200213e565b6001600160a01b03928316815291166020820152604001604051809103905ff08015801562000503573d5f803e3d5ffd5b506001546040516313af403560e01b81526001600160a01b0391821660048201529192508216906313af4035906024015f604051808303815f87803b1580156200054b575f80fd5b505af11580156200055e573d5f803e3d5ffd5b5050505092915050565b6200057f335f356001600160e01b03191662001f6a565b6200059e5760405162461bcd60e51b81526004016200043990620023cf565b600b54600160a01b900460ff16600114620005b7575f80fd5b6002546001600160a01b0316620005cc575f80fd5b6003546001600160a01b0316620005e1575f80fd5b6004546001600160a01b0316620005f6575f80fd5b6006546001600160a01b03166200060b575f80fd5b60035460025460015462000630926001600160a01b0390811692811691168062001b4d565b600780546001600160a01b0319166001600160a01b03928316179055600554600454620006629291821691166200048b565b600880546001600160a01b0319166001600160a01b039283161790556005546004546200069492918216911662001ede565b600980546001600160a01b0319166001600160a01b03928316179055600254600354600454620006cd9392831692918216911662001c3f565b600a80546001600160a01b0319166001600160a01b0392909216919091179055600b8054600191906014906200070f908490600160a01b900460ff16620023fd565b92506101000a81548160ff021916908360ff160217905550565b5f62000741335f356001600160e01b03191662001f6a565b620007605760405162461bcd60e51b81526004016200043990620023cf565b6040516200076e906200214c565b604051809103905ff08015801562000788573d5f803e3d5ffd5b506001546040516313af403560e01b81526001600160a01b0391821660048201529192508216906313af4035906024015f604051808303815f87803b158015620007d0575f80fd5b505af1158015620007e3573d5f803e3d5ffd5b5050505090565b62000801335f356001600160e01b03191662001f6a565b620008205760405162461bcd60e51b81526004016200043990620023cf565b600b54600160a01b900460ff1660021462000839575f80fd5b60075460085460405163432da56560e01b81526001600160a01b03918216600482015291169063432da565906024015f604051808303815f87803b15801562000880575f80fd5b505af115801562000893573d5f803e3d5ffd5b5050600754600654604051630179f98360e61b81526001600160a01b03918216600482015291169250635e7e60c091506024015f604051808303815f87803b158015620008de575f80fd5b505af1158015620008f1573d5f803e3d5ffd5b5050600754604051630a91bbc560e31b81526107d0600482015260146024820152604b60448201526001600160a01b03909116925063548dde2891506064015f604051808303815f87803b15801562000948575f80fd5b505af11580156200095b573d5f803e3d5ffd5b5050600854600754604051630b4ed52d60e01b81526001600160a01b03918216600482015291169250630b4ed52d91506024015f604051808303815f87803b158015620009a6575f80fd5b505af1158015620009b9573d5f803e3d5ffd5b505060085460405163912d218360e01b815268056bc75e2d6310000060048201526001600160a01b03909116925063912d218391506024015f604051808303815f87803b15801562000a09575f80fd5b505af115801562000a1c573d5f803e3d5ffd5b50506008546006546040516313c6b7c160e31b81526001600160a01b03918216600482015291169250639e35be0891506024015f604051808303815f87803b15801562000a67575f80fd5b505af115801562000a7a573d5f803e3d5ffd5b50506009546040516323401c9160e21b8152603260048201526001600160a01b039091169250638d00724491506024015b5f604051808303815f87803b15801562000ac3575f80fd5b505af115801562000ad6573d5f803e3d5ffd5b505050506001600b60148282829054906101000a900460ff166200070f9190620023fd565b62000b12335f356001600160e01b03191662001f6a565b62000b315760405162461bcd60e51b81526004016200043990620023cf565b5f80546001600160a01b0319166001600160a01b038316908117825560405190917f1abebea81bfa2637f28358c371278fb15ede7ea8dd28d2e03b112ff6d936ada491a250565b62000b8f335f356001600160e01b03191662001f6a565b62000bae5760405162461bcd60e51b81526004016200043990620023cf565b600b54600160a01b900460ff1660031462000bc7575f80fd5b5f546001600160a01b031662000bdb575f80fd5b62000be562000729565b600b80546001600160a01b0319166001600160a01b03928316908117909155600254604051637a9e5e4b60e01b8152600481019290925290911690637a9e5e4b906024015f604051808303815f87803b15801562000c41575f80fd5b505af115801562000c54573d5f803e3d5ffd5b5050600354600b54604051637a9e5e4b60e01b81526001600160a01b03918216600482015291169250637a9e5e4b91506024015f604051808303815f87803b15801562000c9f575f80fd5b505af115801562000cb2573d5f803e3d5ffd5b505060048054600b54604051637a9e5e4b60e01b81526001600160a01b0391821693810193909352169250637a9e5e4b91506024015f604051808303815f87803b15801562000cff575f80fd5b505af115801562000d12573d5f803e3d5ffd5b5050600554600b54604051637a9e5e4b60e01b81526001600160a01b03918216600482015291169250637a9e5e4b91506024015f604051808303815f87803b15801562000d5d575f80fd5b505af115801562000d70573d5f803e3d5ffd5b5050600654600b54604051637a9e5e4b60e01b81526001600160a01b03918216600482015291169250637a9e5e4b91506024015f604051808303815f87803b15801562000dbb575f80fd5b505af115801562000dce573d5f803e3d5ffd5b5050600754600b54604051637a9e5e4b60e01b81526001600160a01b03918216600482015291169250637a9e5e4b91506024015f604051808303815f87803b15801562000e19575f80fd5b505af115801562000e2c573d5f803e3d5ffd5b5050600854600b54604051637a9e5e4b60e01b81526001600160a01b03918216600482015291169250637a9e5e4b91506024015f604051808303815f87803b15801562000e77575f80fd5b505af115801562000e8a573d5f803e3d5ffd5b5050600954600b54604051637a9e5e4b60e01b81526001600160a01b03918216600482015291169250637a9e5e4b91506024015f604051808303815f87803b15801562000ed5575f80fd5b505af115801562000ee8573d5f803e3d5ffd5b5050600a54600b54604051637a9e5e4b60e01b81526001600160a01b03918216600482015291169250637a9e5e4b91506024015f604051808303815f87803b15801562000f33575f80fd5b505af115801562000f46573d5f803e3d5ffd5b5050600b546007546002546040805180820190915260158152746d696e7428616464726573732c75696e743235362960581b60208201526001600160a01b03938416955063bfc019c6945091831692169062000fa2906200210d565b6040518463ffffffff1660e01b815260040162000fc29392919062002423565b5f604051808303815f87803b15801562000fda575f80fd5b505af115801562000fed573d5f803e3d5ffd5b5050600b546007546002546040805180820190915260158152746275726e28616464726573732c75696e743235362960581b60208201526001600160a01b03938416955063bfc019c6945091831692169062001049906200210d565b6040518463ffffffff1660e01b8152600401620010699392919062002423565b5f604051808303815f87803b15801562001081575f80fd5b505af115801562001094573d5f803e3d5ffd5b5050600b546007546008546040805160608101909152602d8082526001600160a01b03948516965063bfc019c695509284169390911691620010e0919062009de760208301396200210d565b6040518463ffffffff1660e01b8152600401620011009392919062002423565b5f604051808303815f87803b15801562001118575f80fd5b505af11580156200112b573d5f803e3d5ffd5b5050600b546007546008546040805160608101909152602c8082526001600160a01b03948516965063bfc019c69550928416939091169162001177919062009dbb60208301396200210d565b6040518463ffffffff1660e01b8152600401620011979392919062002423565b5f604051808303815f87803b158015620011af575f80fd5b505af1158015620011c2573d5f803e3d5ffd5b5050600b5460075460085460408051808201909152601d81527f676c6f62616c73686172657361646428616464726573732c75696e742900000060208201526001600160a01b03938416955063bfc019c6945091831692169062001226906200210d565b6040518463ffffffff1660e01b8152600401620012469392919062002423565b5f604051808303815f87803b1580156200125e575f80fd5b505af115801562001271573d5f803e3d5ffd5b5050600b5460075460085460408051808201909152601d81527f676c6f62616c73686172657373756228616464726573732c75696e742900000060208201526001600160a01b03938416955063bfc019c69450918316921690620012d5906200210d565b6040518463ffffffff1660e01b8152600401620012f59392919062002423565b5f604051808303815f87803b1580156200130d575f80fd5b505af115801562001320573d5f803e3d5ffd5b5050600b5460075460085460408051808201909152601e81527f676c6f62616c62616c616e636561646428616464726573732c75696e7429000060208201526001600160a01b03938416955063bfc019c6945091831692169062001384906200210d565b6040518463ffffffff1660e01b8152600401620013a49392919062002423565b5f604051808303815f87803b158015620013bc575f80fd5b505af1158015620013cf573d5f803e3d5ffd5b5050600b5460075460085460408051808201909152601e81527f676c6f62616c62616c616e636573756228616464726573732c75696e7429000060208201526001600160a01b03938416955063bfc019c6945091831692169062001433906200210d565b6040518463ffffffff1660e01b8152600401620014539392919062002423565b5f604051808303815f87803b1580156200146b575f80fd5b505af11580156200147e573d5f803e3d5ffd5b5050600b5460075460085460408051808201909152601b81527f676c6f62616c746f74616c6465706f7369746164642875696e7429000000000060208201526001600160a01b03938416955063bfc019c69450918316921690620014e2906200210d565b6040518463ffffffff1660e01b8152600401620015029392919062002423565b5f604051808303815f87803b1580156200151a575f80fd5b505af11580156200152d573d5f803e3d5ffd5b5050600b5460075460085460408051808201909152601b81527f676c6f62616c746f74616c6465706f7369747375622875696e7429000000000060208201526001600160a01b03938416955063bfc019c6945091831692169062001591906200210d565b6040518463ffffffff1660e01b8152600401620015b19392919062002423565b5f604051808303815f87803b158015620015c9575f80fd5b505af1158015620015dc573d5f803e3d5ffd5b5050600b546009546005546040805180820190915260158152746d696e7428616464726573732c75696e743235362960581b60208201526001600160a01b03938416955063bfc019c6945091831692169062001638906200210d565b6040518463ffffffff1660e01b8152600401620016589392919062002423565b5f604051808303815f87803b15801562001670575f80fd5b505af115801562001683573d5f803e3d5ffd5b5050600b546009546005546040805180820190915260158152746275726e28616464726573732c75696e743235362960581b60208201526001600160a01b03938416955063bfc019c69450918316921690620016df906200210d565b6040518463ffffffff1660e01b8152600401620016ff9392919062002423565b5f604051808303815f87803b15801562001717575f80fd5b505af11580156200172a573d5f803e3d5ffd5b5050600b546009546004546040805180820190915260158152746d696e7428616464726573732c75696e743235362960581b60208201526001600160a01b03938416955063bfc019c6945091831692169062001786906200210d565b6040518463ffffffff1660e01b8152600401620017a69392919062002423565b5f604051808303815f87803b158015620017be575f80fd5b505af1158015620017d1573d5f803e3d5ffd5b5050600b546009546004546040805180820190915260158152746275726e28616464726573732c75696e743235362960581b60208201526001600160a01b03938416955063bfc019c694509183169216906200182d906200210d565b6040518463ffffffff1660e01b81526004016200184d9392919062002423565b5f604051808303815f87803b15801562001865575f80fd5b505af115801562001878573d5f803e3d5ffd5b5050600b546008546005546040805180820190915260158152746d696e7428616464726573732c75696e743235362960581b60208201526001600160a01b03938416955063bfc019c69450918316921690620018d4906200210d565b6040518463ffffffff1660e01b8152600401620018f49392919062002423565b5f604051808303815f87803b1580156200190c575f80fd5b505af11580156200191f573d5f803e3d5ffd5b5050600b546008546005546040805180820190915260158152746275726e28616464726573732c75696e743235362960581b60208201526001600160a01b03938416955063bfc019c694509183169216906200197b906200210d565b6040518463ffffffff1660e01b81526004016200199b9392919062002423565b5f604051808303815f87803b158015620019b3575f80fd5b505af1158015620019c6573d5f803e3d5ffd5b5050600b546008546004546040805180820190915260158152746d696e7428616464726573732c75696e743235362960581b60208201526001600160a01b03938416955063bfc019c6945091831692169062001a22906200210d565b6040518463ffffffff1660e01b815260040162001a429392919062002423565b5f604051808303815f87803b15801562001a5a575f80fd5b505af115801562001a6d573d5f803e3d5ffd5b5050600b546008546004546040805180820190915260158152746275726e28616464726573732c75696e743235362960581b60208201526001600160a01b03938416955063bfc019c6945091831692169062001ac9906200210d565b6040518463ffffffff1660e01b815260040162001ae99392919062002423565b5f604051808303815f87803b15801562001b01575f80fd5b505af115801562001b14573d5f803e3d5ffd5b5050600b546001546040516313af403560e01b81526001600160a01b039182166004820152911692506313af4035915060240162000aab565b5f62001b65335f356001600160e01b03191662001f6a565b62001b845760405162461bcd60e51b81526004016200043990620023cf565b8484848460405162001b96906200215a565b6001600160a01b039485168152928416602084015290831660408301529091166060820152608001604051809103905ff08015801562001bd8573d5f803e3d5ffd5b506001546040516313af403560e01b81526001600160a01b0391821660048201529192508216906313af4035906024015f604051808303815f87803b15801562001c20575f80fd5b505af115801562001c33573d5f803e3d5ffd5b50505050949350505050565b5f62001c57335f356001600160e01b03191662001f6a565b62001c765760405162461bcd60e51b81526004016200043990620023cf565b83838360405162001c879062002168565b6001600160a01b03938416815291831660208301529091166040820152606001604051809103905ff08015801562001cc1573d5f803e3d5ffd5b506001546040516313af403560e01b81526001600160a01b0391821660048201529192508216906313af4035906024015f604051808303815f87803b15801562001d09575f80fd5b505af115801562001d1c573d5f803e3d5ffd5b505050509392505050565b62001d3e335f356001600160e01b03191662001f6a565b62001d5d5760405162461bcd60e51b81526004016200043990620023cf565b600b54600160a01b900460ff161562001d74575f80fd5b62001d9a6040518060400160405280600381526020016242434b60e81b8152506200203d565b600280546001600160a01b0319166001600160a01b0392909216919091179055604080518082019091526004815263195554d160e21b602082015262001de0906200203d565b600380546001600160a01b0319166001600160a01b039290921691909117905560408051808201909152600881526732b9a121a5a3a7ab60c11b602082015262001e2a906200203d565b600480546001600160a01b0319166001600160a01b03929092169190911790556040805180820190915260068152652121a5a3a7ab60d11b602082015262001e72906200203d565b600580546001600160a01b0319166001600160a01b039290921691909117905562001e9c62001f25565b600680546001600160a01b0319166001600160a01b0392909216919091179055600b8054600191906014906200070f908490600160a01b900460ff16620023fd565b5f62001ef6335f356001600160e01b03191662001f6a565b62001f155760405162461bcd60e51b81526004016200043990620023cf565b8282604051620004d29062002176565b5f62001f3d335f356001600160e01b03191662001f6a565b62001f5c5760405162461bcd60e51b81526004016200043990620023cf565b6040516200076e9062002184565b5f306001600160a01b0384160362001f855750600162002037565b6001546001600160a01b039081169084160362001fa55750600162002037565b5f546001600160a01b031662001fbd57505f62002037565b5f5460405163b700961360e01b81526001600160a01b039091169063b70096139062001ff29086903090879060040162002423565b602060405180830381865afa1580156200200e573d5f803e3d5ffd5b505050506040513d601f19601f8201168201806040525081019062002034919062002450565b90505b92915050565b5f62002055335f356001600160e01b03191662001f6a565b620020745760405162461bcd60e51b81526004016200043990620023cf565b81604051620020839062002192565b6200208f919062002495565b604051809103905ff080158015620020a9573d5f803e3d5ffd5b506001546040516313af403560e01b81526001600160a01b0391821660048201529192508216906313af4035906024015f604051808303815f87803b158015620020f1575f80fd5b505af115801562002104573d5f803e3d5ffd5b50505050919050565b5f81604051602001620021219190620024c9565b604051602081830303815290604052805190602001209050919050565b6116f480620024e783390190565b610b2c8062003bdb83390190565b611b1a806200470783390190565b6110e9806200622183390190565b610d5d806200730a83390190565b6108ff806200806783390190565b611455806200896683390190565b6001600160a01b0381168114620021b5575f80fd5b50565b5f60208284031215620021c9575f80fd5b8135620021d681620021a0565b9392505050565b5f8060408385031215620021ef575f80fd5b8235620021fc81620021a0565b915060208301356200220e81620021a0565b809150509250929050565b5f805f80608085870312156200222d575f80fd5b84356200223a81620021a0565b935060208501356200224c81620021a0565b925060408501356200225e81620021a0565b915060608501356200227081620021a0565b939692955090935050565b5f805f606084860312156200228e575f80fd5b83356200229b81620021a0565b92506020840135620022ad81620021a0565b91506040840135620022bf81620021a0565b809150509250925092565b5f8060408385031215620022dc575f80fd5b8235620022e981620021a0565b915060208301356001600160e01b0319811681146200220e575f80fd5b634e487b7160e01b5f52604160045260245ffd5b5f602082840312156200232b575f80fd5b813567ffffffffffffffff8082111562002343575f80fd5b818401915084601f83011262002357575f80fd5b8135818111156200236c576200236c62002306565b604051601f8201601f19908116603f0116810190838211818310171562002397576200239762002306565b81604052828152876020848701011115620023b0575f80fd5b826020860160208301375f928101602001929092525095945050505050565b602080825260149082015273191ccb585d5d1a0b5d5b985d5d1a1bdc9a5e995960621b604082015260600190565b60ff81811683821601908111156200203757634e487b7160e01b5f52601160045260245ffd5b6001600160a01b0393841681529190921660208201526001600160e01b0319909116604082015260600190565b5f6020828403121562002461575f80fd5b81518015158114620021d6575f80fd5b5f5b838110156200248d57818101518382015260200162002473565b50505f910152565b602081525f8251806020840152620024b581604085016020870162002471565b601f01601f19169190910160400192915050565b5f8251620024dc81846020870162002471565b919091019291505056fe608060405234801561000f575f80fd5b50604051620016f4380380620016f4833981016040819052610030916100c9565b600180546001600160a01b031916339081179091556040517fce241d7ca1f669fee44b6fc00b8eba2df3bb514eed0f6f668f8f89096e81ed94905f90a2600380546001600160a01b039384166001600160a01b03199182161790915560048054929093169181169190911790915560018054909116331790556100fa565b80516001600160a01b03811681146100c4575f80fd5b919050565b5f80604083850312156100da575f80fd5b6100e3836100ae565b91506100f1602084016100ae565b90509250929050565b6115ec80620001085f395ff3fe608060405234801561000f575f80fd5b50600436106101d0575f3560e01c80637d882097116100fe578063a05f99061161009e578063bf7e214f1161006e578063bf7e214f14610417578063c44ec8b514610429578063d9972b961461043c578063eea3fcb41461044f575f80fd5b8063a05f9906146103d3578063a1ef92eb146103e6578063b28e602014610405578063b7c9c3c11461040e575f80fd5b8063912d2183116100d9578063912d2183146103875780639778dd2b1461039a5780639ddf0293146103ad5780639e35be08146103c0575f80fd5b80637d882097146103585780638da5cb5b146103615780638e4d4f6914610374575f80fd5b806327e235e311610174578063695173101161014457806369517310146102ef5780636e8abfb71461031f5780637a9e5e4b146103325780637b73372614610345575f80fd5b806327e235e31461027b578063284e4b961461029a5780635b8c25cd146102bd57806365791b96146102d0575f80fd5b80630f90c97b116101af5780630f90c97b14610221578063136100f41461024257806313af40351461025557806317a2ada814610268575f80fd5b806263750c146101d45780630b4ed52d146101de5780630ca94f70146101f1575b5f80fd5b6101dc610458565b005b6101dc6101ec3660046113b4565b61053e565b600254610204906001600160a01b031681565b6040516001600160a01b0390911681526020015b60405180910390f35b61023461022f3660046113b4565b610591565b604051908152602001610218565b6101dc6102503660046113cf565b6105c2565b6101dc6102633660046113b4565b6106bb565b600354610204906001600160a01b031681565b6102346102893660046113b4565b600a6020525f908152604090205481565b6102ad6102a83660046113b4565b610735565b6040519015158152602001610218565b6101dc6102cb3660046113e6565b6107fc565b6102346102de3660046113b4565b60076020525f908152604090205481565b6103026102fd3660046113b4565b610890565b604080519315158452602084019290925290820152606001610218565b600454610204906001600160a01b031681565b6101dc6103403660046113b4565b6108d8565b6101dc6103533660046113e6565b610950565b610234600b5481565b600154610204906001600160a01b031681565b6101dc6103823660046113b4565b6109bf565b6101dc6103953660046113cf565b610cb1565b6102346103a83660046113b4565b610ce7565b6101dc6103bb3660046113cf565b610d9c565b6101dc6103ce3660046113b4565b610fde565b600c54610204906001600160a01b031681565b6102346103f43660046113b4565b60086020525f908152604090205481565b61023460095481565b61023460055481565b5f54610204906001600160a01b031681565b6101dc6104373660046113cf565b611031565b6102ad61044a366004611410565b6111b3565b61023460065481565b5f61046233610591565b9050801561053b57335f908152600860205260409020546104839082611288565b335f908152600860205260409020556006546104a0908290611467565b6006556004805460405163a9059cbb60e01b81523392810192909252602482018390526001600160a01b03169063a9059cbb906044016020604051808303815f875af11580156104f2573d5f803e3d5ffd5b505050506040513d601f19601f82011682018060405250810190610516919061147a565b61053b5760405162461bcd60e51b815260040161053290611499565b60405180910390fd5b50565b610553335f356001600160e01b0319166111b3565b61056f5760405162461bcd60e51b8152600401610532906114c7565b600280546001600160a01b0319166001600160a01b0392909216919091179055565b6001600160a01b0381165f908152600860205260408120546105bc906105b684610ce7565b906112a5565b92915050565b335f908152600a60205260409020548111156106205760405162461bcd60e51b815260206004820152601860248201527f496e73756666696369656e742042434b2062616c616e636500000000000000006044820152606401610532565b335f908152600a602052604090205461063990826112a5565b335f908152600a6020526040902055600b5461065590826112a5565b600b55600480546040516340c10f1960e01b81523392810192909252602482018390526001600160a01b0316906340c10f19906044015f604051808303815f87803b1580156106a2575f80fd5b505af11580156106b4573d5f803e3d5ffd5b5050505050565b6106d0335f356001600160e01b0319166111b3565b6106ec5760405162461bcd60e51b8152600401610532906114c7565b600180546001600160a01b0319166001600160a01b0383169081179091556040517fce241d7ca1f669fee44b6fc00b8eba2df3bb514eed0f6f668f8f89096e81ed94905f90a250565b600c5460405163673e156160e11b81526001600160a01b0383811660048301525f92839291169063ce7c2ac290602401602060405180830381865afa158015610780573d5f803e3d5ffd5b505050506040513d601f19601f820116820180604052508101906107a491906114f5565b90506009548110156107b857505f92915050565b5f6107d06103e86107ca8460196112c0565b906112f3565b335f908152600a60205260409020549091506105dc826107f083836112c0565b10159695505050505050565b610811335f356001600160e01b0319166111b3565b61082d5760405162461bcd60e51b8152600401610532906114c7565b5f61084b610846836005546112c090919063ffffffff16565b6112fe565b6001600160a01b0384165f90815260076020526040902054909150610870908261130c565b6001600160a01b039093165f908152600760205260409020929092555050565b5f805f8061089d85610735565b90505f6108a986610591565b90505f6108b78260026112f3565b90508282846108c657826108c8565b5f5b9550955095505050509193909250565b6108ed335f356001600160e01b0319166111b3565b6109095760405162461bcd60e51b8152600401610532906114c7565b5f80546001600160a01b0319166001600160a01b038316908117825560405190917f1abebea81bfa2637f28358c371278fb15ede7ea8dd28d2e03b112ff6d936ada491a250565b610965335f356001600160e01b0319166111b3565b6109815760405162461bcd60e51b8152600401610532906114c7565b5f61099a610846836005546112c090919063ffffffff16565b6001600160a01b0384165f908152600760205260409020549091506108709082611355565b6109c881610735565b15610a155760405162461bcd60e51b815260206004820152601e60248201527f55736572206d65657473207374616b696e6720726571756972656d656e7400006044820152606401610532565b5f610a1f82610591565b90505f610a2d60028361150c565b6003546040516323b872dd60e01b8152336004820152306024820152604481018390529192506001600160a01b0316906323b872dd906064016020604051808303815f875af1158015610a82573d5f803e3d5ffd5b505050506040513d601f19601f82011682018060405250810190610aa6919061147a565b610ae85760405162461bcd60e51b81526020600482015260136024820152721090d2c81d1c985b9cd9995c8819985a5b1959606a1b6044820152606401610532565b5f610af48260056112f3565b90505f610b018284611467565b600354604051632770a7eb60e21b8152306004820152602481018390529192506001600160a01b031690639dc29fac906044015f604051808303815f87803b158015610b4b575f80fd5b505af1158015610b5d573d5f803e3d5ffd5b50506003546001546040516323b872dd60e01b81523060048201526001600160a01b03918216602482015260448101879052911692506323b872dd91506064016020604051808303815f875af1158015610bb9573d5f803e3d5ffd5b505050506040513d601f19601f82011682018060405250810190610bdd919061147a565b506004805460405163a9059cbb60e01b81523392810192909252602482018690526001600160a01b03169063a9059cbb906044016020604051808303815f875af1158015610c2d573d5f803e3d5ffd5b505050506040513d601f19601f82011682018060405250810190610c51919061147a565b610c6d5760405162461bcd60e51b815260040161053290611499565b6001600160a01b0385165f90815260086020526040902054610c8f9085611288565b6001600160a01b039095165f9081526008602052604090209490945550505050565b610cc6335f356001600160e01b0319166111b3565b610ce25760405162461bcd60e51b8152600401610532906114c7565b600955565b6001600160a01b038181165f8181526007602052604080822054600c54915163673e156160e11b815260048101949094529193600160801b93610d9293610d8d939092610d8792610846929091169063ce7c2ac290602401602060405180830381865afa158015610d5a573d5f803e3d5ffd5b505050506040513d601f19601f82011682018060405250810190610d7e91906114f5565b600554906112c0565b90611355565b61138f565b6105bc919061150c565b600480546040516370a0823160e01b815233928101929092525f916001600160a01b03909116906370a0823190602401602060405180830381865afa158015610de7573d5f803e3d5ffd5b505050506040513d601f19601f82011682018060405250810190610e0b91906114f5565b905081811015610e695760405162461bcd60e51b815260206004820152602360248201527f4f776e65722068617320696e73756666696369656e7420555344432062616c616044820152626e636560e81b6064820152608401610532565b600c5460408051635e07b86960e01b815290515f926001600160a01b031691635e07b8699160048083019260209291908290030181865afa158015610eb0573d5f803e3d5ffd5b505050506040513d601f19601f82011682018060405250810190610ed491906114f5565b90508015610efe57610efa610ef1826107ca86600160801b6112c0565b60055490611288565b6005555b82600654610f0c919061152b565b60065560405183815233907feabeb68bc82e6816f4dd3b51f8e2524ae7e215f1e6de273af003a3e788b743039060200160405180910390a2600480546040516323b872dd60e01b81523392810192909252306024830152604482018590526001600160a01b0316906323b872dd906064016020604051808303815f875af1158015610f99573d5f803e3d5ffd5b505050506040513d601f19601f82011682018060405250810190610fbd919061147a565b610fd95760405162461bcd60e51b815260040161053290611499565b505050565b610ff3335f356001600160e01b0319166111b3565b61100f5760405162461bcd60e51b8152600401610532906114c7565b600c80546001600160a01b0319166001600160a01b0392909216919091179055565b600c5460405163673e156160e11b81523360048201525f916001600160a01b03169063ce7c2ac290602401602060405180830381865afa158015611077573d5f803e3d5ffd5b505050506040513d601f19601f8201168201806040525081019061109b91906114f5565b116111185760405162461bcd60e51b815260206004820152604160248201527f596f75206e65656420746f206d696e742042434b206669727374206265666f7260448201527f65207375626d697474696e6720666f722042434b476f7620656d697373696f6e6064820152607360f81b608482015260a401610532565b600354604051632770a7eb60e21b8152336004820152602481018390526001600160a01b0390911690639dc29fac906044015f604051808303815f87803b158015611161575f80fd5b505af1158015611173573d5f803e3d5ffd5b5050335f908152600a60205260409020546111919250905082611288565b335f908152600a6020526040902055600b546111ad9082611288565b600b5550565b5f306001600160a01b038416036111cc575060016105bc565b6001546001600160a01b03908116908416036111ea575060016105bc565b5f546001600160a01b031661120057505f6105bc565b5f5460405163b700961360e01b81526001600160a01b0385811660048301523060248301526001600160e01b0319851660448301529091169063b700961390606401602060405180830381865afa15801561125d573d5f803e3d5ffd5b505050506040513d601f19601f82011682018060405250810190611281919061147a565b9392505050565b5f611293828461152b565b9050828110156105bc576105bc61153e565b5f828211156112b6576112b661153e565b6112818284611467565b5f825f036112cf57505f6105bc565b6112d98284611552565b9050816112e6848361150c565b146105bc576105bc61153e565b5f611281828461150c565b5f81818112156105bc575f80fd5b5f8082121580156113265750826113238382611569565b13155b8061134357505f821280156113435750826113418382611569565b135b61134b575f80fd5b6112818284611569565b5f80611361838561158f565b90505f83121580156113735750838112155b8061138757505f8312801561138757508381125b611281575f80fd5b5f8082121561139c575f80fd5b5090565b6001600160a01b038116811461053b575f80fd5b5f602082840312156113c4575f80fd5b8135611281816113a0565b5f602082840312156113df575f80fd5b5035919050565b5f80604083850312156113f7575f80fd5b8235611402816113a0565b946020939093013593505050565b5f8060408385031215611421575f80fd5b823561142c816113a0565b915060208301356001600160e01b031981168114611448575f80fd5b809150509250929050565b634e487b7160e01b5f52601160045260245ffd5b818103818111156105bc576105bc611453565b5f6020828403121561148a575f80fd5b81518015158114611281575f80fd5b6020808252601490820152731554d110c81d1c985b9cd9995c8819985a5b195960621b604082015260600190565b602080825260149082015273191ccb585d5d1a0b5d5b985d5d1a1bdc9a5e995960621b604082015260600190565b5f60208284031215611505575f80fd5b5051919050565b5f8261152657634e487b7160e01b5f52601260045260245ffd5b500490565b808201808211156105bc576105bc611453565b634e487b7160e01b5f52600160045260245ffd5b80820281158282048414176105bc576105bc611453565b8181035f83128015838313168383128216171561158857611588611453565b5092915050565b8082018281125f8312801582168215821617156115ae576115ae611453565b50509291505056fea26469706673582212205a88f0909a376a8fa665cc731f0a24ba366fa553c16d3637f262b0e905ee124d64736f6c63430008170033608060405234801561000f575f80fd5b50600180546001600160a01b031916339081179091556040517fce241d7ca1f669fee44b6fc00b8eba2df3bb514eed0f6f668f8f89096e81ed94905f90a2610ad28061005a5f395ff3fe608060405234801561000f575f80fd5b50600436106100e5575f3560e01c8063b700961311610088578063d9972b9611610063578063d9972b96146101f1578063ec7ded0f14610204578063f268fdfb14610217578063fe0d0a291461022a575f80fd5b8063b7009613146101a9578063bf7e214f146101cc578063bfc019c6146101de575f80fd5b80638da5cb5b116100c35780638da5cb5b146101245780638f38d8cc146101545780639c21e90914610180578063a8542f6614610193575f80fd5b806313af4035146100e957806359eb527b146100fe5780637a9e5e4b14610111575b5f80fd5b6100fc6100f736600461084f565b61023d565b005b6100fc61010c36600461088d565b6102c0565b6100fc61011f36600461084f565b610353565b600154610137906001600160a01b031681565b6040516001600160a01b0390911681526020015b60405180910390f35b6101676101623660046108d3565b6103cb565b6040516001600160e01b0319909116815260200161014b565b6100fc61018e36600461097e565b6103fa565b61019b5f1981565b60405190815260200161014b565b6101bc6101b736600461097e565b610424565b604051901515815260200161014b565b5f54610137906001600160a01b031681565b6100fc6101ec36600461097e565b61062c565b6101bc6101ff3660046109b9565b610651565b6100fc6102123660046109ec565b610728565b6100fc6102253660046109ec565b610767565b6100fc61023836600461088d565b6107a2565b610252335f356001600160e01b031916610651565b6102775760405162461bcd60e51b815260040161026e90610a23565b60405180910390fd5b600180546001600160a01b0319166001600160a01b0383169081179091556040517fce241d7ca1f669fee44b6fc00b8eba2df3bb514eed0f6f668f8f89096e81ed94905f90a250565b6102d5335f356001600160e01b031916610651565b6102f15760405162461bcd60e51b815260040161026e90610a23565b5f83815260026020908152604080832085845282528083206001600160e01b031985168085529252808320805460ff19169055519091849186917f95ba64c95d85e67ac83a0476c4a62ac2cf8ab2d0407545b8c9d79c3eefa6282991a4505050565b610368335f356001600160e01b031916610651565b6103845760405162461bcd60e51b815260040161026e90610a23565b5f80546001600160a01b0319166001600160a01b038316908117825560405190917f1abebea81bfa2637f28358c371278fb15ede7ea8dd28d2e03b112ff6d936ada491a250565b5f816040516020016103dd9190610a51565b604051602081830303815290604052805190602001209050919050565b61041f8360601b6001600160601b0319168360601b6001600160601b031916836102c0565b505050565b6bffffffffffffffffffffffff19606084811b82165f8181526002602090815260408083209488901b9095168083529381528482206001600160e01b03198716835290529283205490919060ff168061049e57505f82815260026020908152604080832084845282528083205f19845290915290205460ff165b806104d457505f8281526002602090815260408083205f19845282528083206001600160e01b03198816845290915290205460ff165b806104fd57505f8281526002602090815260408083205f198452825280832090915290205460ff165b8061054957505f8181527f38b5b2ceac7637132d27514ffcf440b705287635075af7b8bd5adcaa6a4cc5bb602090815260408083206001600160e01b03198816845290915290205460ff165b8061058c57505f8181527f38b5b2ceac7637132d27514ffcf440b705287635075af7b8bd5adcaa6a4cc5bb602090815260408083205f19845290915290205460ff165b806105ce57506001600160e01b031984165f9081527f47fa60fbc027ac3984ea309688a33182f4193c478b40ba8d294eb2cd3ddc4d97602052604090205460ff165b8061062257505f195f527f47fa60fbc027ac3984ea309688a33182f4193c478b40ba8d294eb2cd3ddc4d976020527ff423d1317b37667cd26005728bffa7c8b0499e133951fcf8e814d4fc5f4c98f65460ff165b9695505050505050565b61041f8360601b6001600160601b0319168360601b6001600160601b031916836107a2565b5f306001600160a01b0384160361066a57506001610722565b6001546001600160a01b039081169084160361068857506001610722565b5f546001600160a01b031661069e57505f610722565b5f5460405163b700961360e01b81526001600160a01b0385811660048301523060248301526001600160e01b0319851660448301529091169063b700961390606401602060405180830381865afa1580156106fb573d5f803e3d5ffd5b505050506040513d601f19601f8201168201806040525081019061071f9190610a7d565b90505b92915050565b61076382826101ec604051806040016040528060158152602001746275726e28616464726573732c75696e743235362960581b8152506103cb565b5050565b61076382826101ec604051806040016040528060158152602001746d696e7428616464726573732c75696e743235362960581b8152506103cb565b6107b7335f356001600160e01b031916610651565b6107d35760405162461bcd60e51b815260040161026e90610a23565b5f83815260026020908152604080832085845282528083206001600160e01b031985168085529252808320805460ff19166001179055519091849186917f6f50375045128971c5469d343039ba7b8e30a5b190453737b28bda6f7a30677191a4505050565b6001600160a01b038116811461084c575f80fd5b50565b5f6020828403121561085f575f80fd5b813561086a81610838565b9392505050565b80356001600160e01b031981168114610888575f80fd5b919050565b5f805f6060848603121561089f575f80fd5b83359250602084013591506108b660408501610871565b90509250925092565b634e487b7160e01b5f52604160045260245ffd5b5f602082840312156108e3575f80fd5b813567ffffffffffffffff808211156108fa575f80fd5b818401915084601f83011261090d575f80fd5b81358181111561091f5761091f6108bf565b604051601f8201601f19908116603f01168101908382118183101715610947576109476108bf565b8160405282815287602084870101111561095f575f80fd5b826020860160208301375f928101602001929092525095945050505050565b5f805f60608486031215610990575f80fd5b833561099b81610838565b925060208401356109ab81610838565b91506108b660408501610871565b5f80604083850312156109ca575f80fd5b82356109d581610838565b91506109e360208401610871565b90509250929050565b5f80604083850312156109fd575f80fd5b8235610a0881610838565b91506020830135610a1881610838565b809150509250929050565b602080825260149082015273191ccb585d5d1a0b5d5b985d5d1a1bdc9a5e995960621b604082015260600190565b5f82515f5b81811015610a705760208186018101518583015201610a56565b505f920191825250919050565b5f60208284031215610a8d575f80fd5b8151801515811461086a575f80fdfea2646970667358221220a8e04935567854ff0ed8a792545c983704825c30c8f94591df12192c645951c264736f6c63430008170033608060405234801562000010575f80fd5b5060405162001b1a38038062001b1a8339810160408190526200003391620000e0565b600180546001600160a01b031916339081179091556040517fce241d7ca1f669fee44b6fc00b8eba2df3bb514eed0f6f668f8f89096e81ed94905f90a2600280546001600160a01b039586166001600160a01b03199182161790915560038054948616948216949094179093556005805492851692841692909217909155600480549190931691161790556200013a565b80516001600160a01b0381168114620000db575f80fd5b919050565b5f805f8060808587031215620000f4575f80fd5b620000ff85620000c4565b93506200010f60208601620000c4565b92506200011f60408601620000c4565b91506200012f60608601620000c4565b905092959194509250565b6119d280620001485f395ff3fe6080604052600436106101fc575f3560e01c806382e56cf811610113578063c31245251161009d578063d99b54a61161006d578063d99b54a614610597578063e02b2d07146105c2578063e3d670d7146105d7578063f3dac98014610602578063fdd2937e14610617575f80fd5b8063c3124525146104ff578063ce7c2ac21461051e578063cfbf661c14610549578063d9972b9614610568575f80fd5b8063a64c8d83116100e3578063a64c8d831461047a578063a9d75b2b14610499578063aedd5f22146104b8578063bf7e214f146104cd578063c264a063146104eb575f80fd5b806382e56cf81461041257806389f4624c146104275780638ce744261461043c5780638da5cb5b1461045b575f80fd5b8063450dd5d111610194578063696666ed11610164578063696666ed1461038b5780636a6c91f9146103a057806371c21934146103bf5780637a9e5e4b146103de5780637b480eff146103fd575f80fd5b8063450dd5d114610324578063548dde28146103395780635e07b869146103585780635e7e60c01461036c575f80fd5b8063299657da116101cf578063299657da146102905780632c754a03146102a35780633455c30b146102da578063432da56514610305575f80fd5b806313af40351461020057806317d145a2146102215780631877bb5c1461024957806328d122f81461027d575b5f80fd5b34801561020b575f80fd5b5061021f61021a366004611770565b61062c565b005b34801561022c575f80fd5b5061023660065481565b6040519081526020015b60405180910390f35b348015610254575f80fd5b50610236610263366004611770565b6001600160a01b03165f908152600d602052604090205490565b61021f61028b36600461178b565b6106af565b61021f61029e36600461178b565b610bb2565b3480156102ae575f80fd5b506014546102c2906001600160a01b031681565b6040516001600160a01b039091168152602001610240565b3480156102e5575f80fd5b506102366102f4366004611770565b600f6020525f908152604090205481565b348015610310575f80fd5b5061021f61031f366004611770565b611026565b34801561032f575f80fd5b5061023660125481565b348015610344575f80fd5b5061021f6103533660046117a2565b611079565b348015610363575f80fd5b50600654610236565b348015610377575f80fd5b5061021f610386366004611770565b6110dd565b348015610396575f80fd5b5061023660135481565b3480156103ab575f80fd5b506005546102c2906001600160a01b031681565b3480156103ca575f80fd5b506003546102c2906001600160a01b031681565b3480156103e9575f80fd5b5061021f6103f8366004611770565b611130565b348015610408575f80fd5b5061023660115481565b34801561041d575f80fd5b50610236600c5481565b348015610432575f80fd5b50610236600a5481565b348015610447575f80fd5b506004546102c2906001600160a01b031681565b348015610466575f80fd5b506001546102c2906001600160a01b031681565b348015610485575f80fd5b50610236610494366004611770565b6111a8565b3480156104a4575f80fd5b506002546102c2906001600160a01b031681565b3480156104c3575f80fd5b5061023660095481565b3480156104d8575f80fd5b505f546102c2906001600160a01b031681565b3480156104f6575f80fd5b5061021f6111d0565b34801561050a575f80fd5b506015546102c2906001600160a01b031681565b348015610529575f80fd5b50610236610538366004611770565b600d6020525f908152604090205481565b348015610554575f80fd5b50610236610563366004611770565b611296565b348015610573575f80fd5b506105876105823660046117cb565b6112ed565b6040519015158152602001610240565b3480156105a2575f80fd5b506102366105b1366004611770565b600b6020525f908152604090205481565b3480156105cd575f80fd5b5061023660105481565b3480156105e2575f80fd5b506102366105f1366004611770565b600e6020525f908152604090205481565b34801561060d575f80fd5b5061023660085481565b348015610622575f80fd5b5061023660075481565b610641335f356001600160e01b0319166112ed565b6106665760405162461bcd60e51b815260040161065d9061180e565b60405180910390fd5b600180546001600160a01b0319166001600160a01b0383169081179091556040517fce241d7ca1f669fee44b6fc00b8eba2df3bb514eed0f6f668f8f89096e81ed94905f90a250565b60405160043590602435908190839033905f80356001600160e01b031916916106db913491369061183c565b60405180910390a46106eb6113c2565b6003546040516370a0823160e01b815233600482015284916001600160a01b0316906370a0823190602401602060405180830381865afa158015610731573d5f803e3d5ffd5b505050506040513d601f19601f820116820180604052508101906107559190611871565b10156107a35760405162461bcd60e51b815260206004820152601d60248201527f796f75206861766520696e73756666696369656e742062616c616e6365000000604482015260640161065d565b5f601154846107b2919061189c565b6002546040516370a0823160e01b815230600482015291925082916001600160a01b03909116906370a0823190602401602060405180830381865afa1580156107fd573d5f803e3d5ffd5b505050506040513d601f19601f820116820180604052508101906108219190611871565b101561086f5760405162461bcd60e51b815260206004820152601d60248201527f796f75206861766520696e73756666696369656e742062616c616e6365000000604482015260640161065d565b60065461087c90826113cc565b60065560075461088c90856113cc565b600755335f908152600d60205260409020546108a890826113cc565b335f908152600d6020908152604080832093909355600e905220546108cd90856113cc565b335f818152600e60205260409081902092909255601554915163e617810760e01b81526004810191909152602481018390526001600160a01b039091169063e6178107906044015f604051808303815f87803b15801561092b575f80fd5b505af115801561093d573d5f803e3d5ffd5b505060155460405163d574b4c960e01b8152336004820152602481018890526001600160a01b03909116925063d574b4c991506044015f604051808303815f87803b15801561098a575f80fd5b505af115801561099c573d5f803e3d5ffd5b5050601554604051630d59b75960e31b8152600481018590526001600160a01b039091169250636acdbac891506024015f604051808303815f87803b1580156109e3575f80fd5b505af11580156109f5573d5f803e3d5ffd5b50505050610a2e610a19610a1483600a546113e790919063ffffffff16565b61141a565b335f908152600b602052604090205490611428565b335f818152600b602052604090819020929092556014549151633db99b9360e11b81526004810191909152602481018390526001600160a01b0390911690637b733726906044015f604051808303815f87803b158015610a8c575f80fd5b505af1158015610a9e573d5f803e3d5ffd5b5050600354604051632770a7eb60e21b8152336004820152602481018890526001600160a01b039091169250639dc29fac91506044015f604051808303815f87803b158015610aeb575f80fd5b505af1158015610afd573d5f803e3d5ffd5b50506002546040516323b872dd60e01b81526001600160a01b0390911692506323b872dd9150610b35903090339086906004016118b3565b6020604051808303815f875af1158015610b51573d5f803e3d5ffd5b505050506040513d601f19601f82011682018060405250810190610b7591906118d7565b5060405184815233907f920bb94eb3842a728db98228c375ff6b00c5bc5a54fac6736155517a0a20a61a906020015b60405180910390a250505050565b60405160043590602435908190839033905f80356001600160e01b03191691610bde913491369061183c565b60405180910390a4610bee6113c2565b6002546040516370a0823160e01b815233600482015284916001600160a01b0316906370a0823190602401602060405180830381865afa158015610c34573d5f803e3d5ffd5b505050506040513d601f19601f82011682018060405250810190610c589190611871565b1015610c9d5760405162461bcd60e51b8152602060048201526014602482015273496e73756666696369656e742062616c616e636560601b604482015260640161065d565b6002546040516323b872dd60e01b81526001600160a01b03909116906323b872dd90610cd1903390309088906004016118b3565b6020604051808303815f875af1158015610ced573d5f803e3d5ffd5b505050506040513d601f19601f82011682018060405250810190610d1191906118d7565b610d4f5760405162461bcd60e51b815260206004820152600f60248201526e151c985b9cd9995c8819985a5b1959608a1b604482015260640161065d565b5f60105484610d5e919061189c565b600654909150610d6e9085611462565b600655600754610d7e9082611462565b600755335f908152600d6020526040902054610d9a9085611462565b335f908152600d6020908152604080832093909355600e90522054610dbf9082611462565b335f818152600e60205260409081902092909255601554915163163cafdf60e11b81526004810191909152602481018690526001600160a01b0390911690632c795fbe906044015f604051808303815f87803b158015610e1d575f80fd5b505af1158015610e2f573d5f803e3d5ffd5b505060155460405163f7e4f3a560e01b8152336004820152602481018590526001600160a01b03909116925063f7e4f3a591506044015f604051808303815f87803b158015610e7c575f80fd5b505af1158015610e8e573d5f803e3d5ffd5b505060155460405163660b1a4d60e01b8152600481018890526001600160a01b03909116925063660b1a4d91506024015f604051808303815f87803b158015610ed5575f80fd5b505af1158015610ee7573d5f803e3d5ffd5b50505050610f1b610f06610a1486600a546113e790919063ffffffff16565b335f908152600b60205260409020549061147f565b335f818152600b602052604090819020929092556014549151635b8c25cd60e01b81526004810191909152602481018690526001600160a01b0390911690635b8c25cd906044015f604051808303815f87803b158015610f79575f80fd5b505af1158015610f8b573d5f803e3d5ffd5b50506003546040516340c10f1960e01b8152336004820152602481018590526001600160a01b0390911692506340c10f1991506044015f604051808303815f87803b158015610fd8575f80fd5b505af1158015610fea573d5f803e3d5ffd5b505060408051878152602081018590523393507f73a19dd210f1a7f902193214c0ee91dd35ee5b4d920cba8d519eca65a7b488ca925001610ba4565b61103b335f356001600160e01b0319166112ed565b6110575760405162461bcd60e51b815260040161065d9061180e565b601480546001600160a01b0319166001600160a01b0392909216919091179055565b61108e335f356001600160e01b0319166112ed565b6110aa5760405162461bcd60e51b815260040161065d9061180e565b6110b66103e8846118f6565b6010556110c5836103e86118f6565b6011556110d36064836118f6565b6012556008555050565b6110f2335f356001600160e01b0319166112ed565b61110e5760405162461bcd60e51b815260040161065d9061180e565b601580546001600160a01b0319166001600160a01b0392909216919091179055565b611145335f356001600160e01b0319166112ed565b6111615760405162461bcd60e51b815260040161065d9061180e565b5f80546001600160a01b0319166001600160a01b038316908117825560405190917f1abebea81bfa2637f28358c371278fb15ede7ea8dd28d2e03b112ff6d936ada491a250565b335f908152600f60205260408120546111ca906111c484611296565b906113cc565b92915050565b6111d86113c2565b5f6111e2336111a8565b9050801561129357335f908152600f602052604081208054839290611208908490611915565b909155505060095461121a90826113cc565b6009556002546040516323b872dd60e01b81526001600160a01b03909116906323b872dd90611251903090339086906004016118b3565b6020604051808303815f875af115801561126d573d5f803e3d5ffd5b505050506040513d601f19601f8201168201806040525081019061129191906118d7565b505b50565b6001600160a01b0381165f908152600b6020908152604080832054600d909252822054600a546111ca92600160801b926112e7926112e292916112dc91610a14916113e7565b90611428565b6114c8565b906114d9565b5f306001600160a01b03841603611306575060016111ca565b6001546001600160a01b0390811690841603611324575060016111ca565b5f546001600160a01b031661133a57505f6111ca565b5f5460405163b700961360e01b81526001600160a01b0385811660048301523060248301526001600160e01b0319851660448301529091169063b700961390606401602060405180830381865afa158015611397573d5f803e3d5ffd5b505050506040513d601f19601f820116820180604052508101906113bb91906118d7565b9392505050565b6113ca6114e4565b565b5f828211156113dd576113dd611928565b6113bb828461193c565b5f825f036113f657505f6111ca565b611400828461189c565b90508161140d84836118f6565b146111ca576111ca611928565b5f81818112156111ca575f80fd5b5f80611434838561194f565b90505f83121580156114465750838112155b8061145a57505f8312801561145a57508381125b6113bb575f80fd5b5f61146d8284611915565b9050828110156111ca576111ca611928565b5f8082121580156114995750826114968382611976565b13155b806114b657505f821280156114b65750826114b48382611976565b135b6114be575f80fd5b6113bb8284611976565b5f808212156114d5575f80fd5b5090565b5f6113bb82846118f6565b6006546002546040516370a0823160e01b81523060048201525f926115599290916001600160a01b03909116906370a0823190602401602060405180830381865afa158015611535573d5f803e3d5ffd5b505050506040513d601f19601f820116820180604052508101906111c49190611871565b9050805f036115655750565b5f60095482611574919061193c565b9050805f03611581575050565b5f606460085483611592919061189c565b61159c91906118f6565b90508060095f8282546115af9190611915565b9091555050600654156115e2576006546115de906115d5906112e784600160801b6113e7565b600a5490611462565b600a555b5f6115ed828461193c565b90505f60646012546115ff91906118f6565b611609908361189c565b90508060135f82825461161c9190611915565b909155505f905061162d828461193c565b6002546005546040516323b872dd60e01b81529293506001600160a01b03918216926323b872dd9261166892309291169087906004016118b3565b6020604051808303815f875af1158015611684573d5f803e3d5ffd5b505050506040513d601f19601f820116820180604052508101906116a891906118d7565b50600254600480546040516323b872dd60e01b81526001600160a01b03938416936323b872dd936116e09330939216918791016118b3565b6020604051808303815f875af11580156116fc573d5f803e3d5ffd5b505050506040513d601f19601f8201168201806040525081019061172091906118d7565b506040518281527fddc9c30275a04c48091f24199f9c405765de34d979d6847f5b9798a57232d2e59060200160405180910390a1505050505050565b6001600160a01b0381168114611293575f80fd5b5f60208284031215611780575f80fd5b81356113bb8161175c565b5f6020828403121561179b575f80fd5b5035919050565b5f805f606084860312156117b4575f80fd5b505081359360208301359350604090920135919050565b5f80604083850312156117dc575f80fd5b82356117e78161175c565b915060208301356001600160e01b031981168114611803575f80fd5b809150509250929050565b602080825260149082015273191ccb585d5d1a0b5d5b985d5d1a1bdc9a5e995960621b604082015260600190565b83815260406020820152816040820152818360608301375f818301606090810191909152601f909201601f1916010192915050565b5f60208284031215611881575f80fd5b5051919050565b634e487b7160e01b5f52601160045260245ffd5b80820281158282048414176111ca576111ca611888565b6001600160a01b039384168152919092166020820152604081019190915260600190565b5f602082840312156118e7575f80fd5b815180151581146113bb575f80fd5b5f8261191057634e487b7160e01b5f52601260045260245ffd5b500490565b808201808211156111ca576111ca611888565b634e487b7160e01b5f52600160045260245ffd5b818103818111156111ca576111ca611888565b8082018281125f83128015821682158216171561196e5761196e611888565b505092915050565b8181035f83128015838313168383128216171561199557611995611888565b509291505056fea2646970667358221220a0bd40cdabfe1e3529ea3c6121001bfd949afda9fab027b65a8a5062e979931e64736f6c63430008170033608060405234801561000f575f80fd5b506040516110e93803806110e983398101604081905261002e916100d2565b600180546001600160a01b031916339081179091556040517fce241d7ca1f669fee44b6fc00b8eba2df3bb514eed0f6f668f8f89096e81ed94905f90a2600280546001600160a01b039485166001600160a01b03199182161790915560048054938516938216939093179092556001805483163317905560038054919093169116179055610112565b80516001600160a01b03811681146100cd575f80fd5b919050565b5f805f606084860312156100e4575f80fd5b6100ed846100b7565b92506100fb602085016100b7565b9150610109604085016100b7565b90509250925092565b610fca8061011f5f395ff3fe608060405234801561000f575f80fd5b506004361061011b575f3560e01c80637d882097116100a9578063a1ef92eb1161006e578063a1ef92eb14610243578063b35874cb14610262578063bf7e214f14610275578063d9972b9614610287578063f00f64ec146102aa575f80fd5b80637d882097146101ee5780638da5cb5b146101f75780639778dd2b1461020a5780639ddf02931461021d5780639e5be1d014610230575f80fd5b806339beb7a1116100ef57806339beb7a1146101815780633e413bee1461018a5780635246fb2d146101b557806371c21934146101c85780637a9e5e4b146101db575f80fd5b806263750c1461011f5780630f90c97b1461012957806313af40351461014f57806327e235e314610162575b5f80fd5b6101276102b2565b005b61013c610137366004610e18565b61050e565b6040519081526020015b60405180910390f35b61012761015d366004610e18565b61053f565b61013c610170366004610e18565b60096020525f908152604090205481565b61013c60065481565b60045461019d906001600160a01b031681565b6040516001600160a01b039091168152602001610146565b60035461019d906001600160a01b031681565b60025461019d906001600160a01b031681565b6101276101e9366004610e18565b6105e0565b61013c600a5481565b60015461019d906001600160a01b031681565b61013c610218366004610e18565b61067f565b61012761022b366004610e33565b6106db565b61012761023e366004610e33565b61085a565b61013c610251366004610e18565b60086020525f908152604090205481565b610127610270366004610e33565b61098b565b5f5461019d906001600160a01b031681565b61029a610295366004610e4a565b610b11565b6040519015158152602001610146565b61013c610be6565b5f6102bc3361050e565b9050801561050b57335f908152600860205260409020546102dd9082610cec565b335f90815260086020526040808220929092556004805492516370a0823160e01b8152309181019190915290916001600160a01b0316906370a0823190602401602060405180830381865afa158015610338573d5f803e3d5ffd5b505050506040513d601f19601f8201168201806040525081019061035c9190610e8d565b90508015610442575f600654836103739190610eb8565b61037d9083610ed7565b6004805460405163a9059cbb60e01b81523392810192909252602482018390529192506001600160a01b039091169063a9059cbb906044016020604051808303815f875af11580156103d1573d5f803e3d5ffd5b505050506040513d601f19601f820116820180604052508101906103f59190610eee565b61043d5760405162461bcd60e51b81526020600482015260146024820152731554d110c81d1c985b9cd9995c8819985a5b195960621b60448201526064015b60405180910390fd5b505050565b816006546104509190610f0d565b60065560035460405163a9059cbb60e01b8152336004820152602481018490526001600160a01b039091169063a9059cbb906044015b6020604051808303815f875af11580156104a2573d5f803e3d5ffd5b505050506040513d601f19601f820116820180604052508101906104c69190610eee565b6105095760405162461bcd60e51b81526020600482015260146024820152731554d110c81d1c985b9cd9995c8819985a5b195960621b6044820152606401610434565b505b50565b6001600160a01b0381165f90815260086020526040812054610539906105338461067f565b90610d09565b92915050565b610554335f356001600160e01b031916610b11565b6105975760405162461bcd60e51b8152602060048201526014602482015273191ccb585d5d1a0b5d5b985d5d1a1bdc9a5e995960621b6044820152606401610434565b600180546001600160a01b0319166001600160a01b0383169081179091556040517fce241d7ca1f669fee44b6fc00b8eba2df3bb514eed0f6f668f8f89096e81ed94905f90a250565b6105f5335f356001600160e01b031916610b11565b6106385760405162461bcd60e51b8152602060048201526014602482015273191ccb585d5d1a0b5d5b985d5d1a1bdc9a5e995960621b6044820152606401610434565b5f80546001600160a01b0319166001600160a01b038316908117825560405190917f1abebea81bfa2637f28358c371278fb15ede7ea8dd28d2e03b112ff6d936ada491a250565b6001600160a01b0381165f908152600760209081526040808320546009909252822054600554600160801b926106d1926106cc926106c6916106c19190610d24565b610d57565b90610d65565b610d9f565b6105399190610eb8565b6003546040516370a0823160e01b81523360048201525f916001600160a01b0316906370a0823190602401602060405180830381865afa158015610721573d5f803e3d5ffd5b505050506040513d601f19601f820116820180604052508101906107459190610e8d565b9050818110156107a35760405162461bcd60e51b815260206004820152602360248201527f4f776e65722068617320696e73756666696369656e7420555344432062616c616044820152626e636560e81b6064820152608401610434565b600a54156107d757600a546107d3906107ca906107c485600160801b610d24565b90610db0565b60055490610cec565b6005555b816006546107e59190610f20565b60065560405182815233907f04c03fe3ea6a2027470af10696e6e65a7eae16de0bd8ecf5f6d33b776de097a39060200160405180910390a26003546040516323b872dd60e01b8152336004820152306024820152604481018490526001600160a01b03909116906323b872dd90606401610486565b6002546040516323b872dd60e01b8152336004820152306024820152604481018390526001600160a01b03909116906323b872dd906064016020604051808303815f875af11580156108ae573d5f803e3d5ffd5b505050506040513d601f19601f820116820180604052508101906108d29190610eee565b6109145760405162461bcd60e51b81526020600482015260136024820152721090d2c81d1c985b9cd9995c8819985a5b1959606a1b6044820152606401610434565b61094461092f6106c183600554610d2490919063ffffffff16565b335f9081526007602052604090205490610dbb565b335f908152600760209081526040808320939093556009905220546109699082610cec565b335f90815260096020526040902055600a546109859082610cec565b600a5550565b335f908152600960205260409020548111156109e95760405162461bcd60e51b815260206004820152601860248201527f496e73756666696369656e742042434b2062616c616e636500000000000000006044820152606401610434565b610a19610a046106c183600554610d2490919063ffffffff16565b335f9081526007602052604090205490610d65565b335f90815260076020908152604080832093909355600990522054610a3e9082610d09565b335f90815260096020526040902055600a54610a5a9082610d09565b600a5560025460405163a9059cbb60e01b8152336004820152602481018390526001600160a01b039091169063a9059cbb906044016020604051808303815f875af1158015610aab573d5f803e3d5ffd5b505050506040513d601f19601f82011682018060405250810190610acf9190610eee565b61050b5760405162461bcd60e51b81526020600482015260136024820152721090d2c81d1c985b9cd9995c8819985a5b1959606a1b6044820152606401610434565b5f306001600160a01b03841603610b2a57506001610539565b6001546001600160a01b0390811690841603610b4857506001610539565b5f546001600160a01b0316610b5e57505f610539565b5f5460405163b700961360e01b81526001600160a01b0385811660048301523060248301526001600160e01b0319851660448301529091169063b700961390606401602060405180830381865afa158015610bbb573d5f803e3d5ffd5b505050506040513d601f19601f82011682018060405250810190610bdf9190610eee565b9392505050565b5f8060065411610c4f5760405162461bcd60e51b815260206004820152602e60248201527f5448455245204953204e4f20657342434b474f5620494e544552455354204c4560448201526d465420544f20574954484452415760901b6064820152608401610434565b5f610c593361050e565b600480546040516370a0823160e01b815230928101929092529192505f916001600160a01b0316906370a0823190602401602060405180830381865afa158015610ca5573d5f803e3d5ffd5b505050506040513d601f19601f82011682018060405250810190610cc99190610e8d565b90505f60065483610cda9190610eb8565b610ce49083610ed7565b949350505050565b5f610cf78284610f20565b90508281101561053957610539610f33565b5f82821115610d1a57610d1a610f33565b610bdf8284610f0d565b5f825f03610d3357505f610539565b610d3d8284610ed7565b905081610d4a8483610eb8565b1461053957610539610f33565b5f8181811215610539575f80fd5b5f80610d718385610f47565b90505f8312158015610d835750838112155b80610d9757505f83128015610d9757508381125b610bdf575f80fd5b5f80821215610dac575f80fd5b5090565b5f610bdf8284610eb8565b5f808212158015610dd5575082610dd28382610f6e565b13155b80610df257505f82128015610df2575082610df08382610f6e565b135b610dfa575f80fd5b610bdf8284610f6e565b6001600160a01b038116811461050b575f80fd5b5f60208284031215610e28575f80fd5b8135610bdf81610e04565b5f60208284031215610e43575f80fd5b5035919050565b5f8060408385031215610e5b575f80fd5b8235610e6681610e04565b915060208301356001600160e01b031981168114610e82575f80fd5b809150509250929050565b5f60208284031215610e9d575f80fd5b5051919050565b634e487b7160e01b5f52601160045260245ffd5b5f82610ed257634e487b7160e01b5f52601260045260245ffd5b500490565b808202811582820484141761053957610539610ea4565b5f60208284031215610efe575f80fd5b81518015158114610bdf575f80fd5b8181038181111561053957610539610ea4565b8082018082111561053957610539610ea4565b634e487b7160e01b5f52600160045260245ffd5b8082018281125f831280158216821582161715610f6657610f66610ea4565b505092915050565b8181035f831280158383131683831282161715610f8d57610f8d610ea4565b509291505056fea26469706673582212209cd40707453986b33a232026f3aeb1146b4d511808e3921ceb1377fca47778fc64736f6c63430008170033608060405234801561000f575f80fd5b50604051610d5d380380610d5d83398101604081905261002e916100b7565b600180546001600160a01b031916339081179091556040517fce241d7ca1f669fee44b6fc00b8eba2df3bb514eed0f6f668f8f89096e81ed94905f90a2600280546001600160a01b039384166001600160a01b031991821617909155600380549290931691161790556100e8565b80516001600160a01b03811681146100b2575f80fd5b919050565b5f80604083850312156100c8575f80fd5b6100d18361009c565b91506100df6020840161009c565b90509250929050565b610c68806100f55f395ff3fe608060405234801561000f575f80fd5b5060043610610111575f3560e01c80638d0072441161009e578063b77cf9c61161006e578063b77cf9c614610233578063bf7e214f14610252578063d9972b9614610264578063e12f3a6114610287578063e5fcd6cd1461029a575f80fd5b80638d007244146101e75780638da5cb5b146101fa5780639117734d1461020d578063b6b55f2514610220575f80fd5b80631f76d9ed116100e45780631f76d9ed1461019157806320e49559146101a457806328d1a98e146101c35780634e71d92d146101cc5780637a9e5e4b146101d4575f80fd5b806313af403514610115578063144d79411461012a578063189cffa6146101475780631e1f633e14610166575b5f80fd5b610128610123366004610b00565b6102a2565b005b610134621a5e0081565b6040519081526020015b60405180910390f35b610134610155366004610b00565b60056020525f908152604090205481565b600254610179906001600160a01b031681565b6040516001600160a01b03909116815260200161013e565b61013461019f366004610b00565b610325565b6101346101b2366004610b00565b60066020525f908152604090205481565b61013460045481565b610128610396565b6101286101e2366004610b00565b6104a0565b6101286101f5366004610b1b565b610518565b600154610179906001600160a01b031681565b600354610179906001600160a01b031681565b61012861022e366004610b1b565b61055b565b610134610241366004610b00565b60076020525f908152604090205481565b5f54610179906001600160a01b031681565b610277610272366004610b32565b610645565b604051901515815260200161013e565b610134610295366004610b00565b61071a565b6101286107fa565b6102b7335f356001600160e01b031916610645565b6102dc5760405162461bcd60e51b81526004016102d390610b75565b60405180910390fd5b600180546001600160a01b0319166001600160a01b0383169081179091556040517fce241d7ca1f669fee44b6fc00b8eba2df3bb514eed0f6f668f8f89096e81ed94905f90a250565b6001600160a01b0381165f9081526005602052604081205442101561038f576001600160a01b0382165f90815260056020526040902054610367904290610bb7565b6001600160a01b0383165f908152600660205260409020546103899190610bca565b92915050565b505f919050565b5f6103a03361071a565b90505f81116103f15760405162461bcd60e51b815260206004820181905260248201527f4e6f20746f6b656e7320617661696c61626c6520666f7220636c61696d696e6760448201526064016102d3565b6003546040516340c10f1960e01b8152336004820152602481018390526001600160a01b03909116906340c10f19906044015f604051808303815f87803b15801561043a575f80fd5b505af115801561044c573d5f803e3d5ffd5b5050335f8181526007602052604090819020429055519092507fd8138f8a3f377c5259ca548e70e4c2de94f129f5a11036a15b69513cba2b426a91506104959084815260200190565b60405180910390a250565b6104b5335f356001600160e01b031916610645565b6104d15760405162461bcd60e51b81526004016102d390610b75565b5f80546001600160a01b0319166001600160a01b038316908117825560405190917f1abebea81bfa2637f28358c371278fb15ede7ea8dd28d2e03b112ff6d936ada491a250565b61052d335f356001600160e01b031916610645565b6105495760405162461bcd60e51b81526004016102d390610b75565b6064811115610556575f80fd5b600455565b5f81116105aa5760405162461bcd60e51b815260206004820152601d60248201527f416d6f756e74206d7573742062652067726561746572207468616e203000000060448201526064016102d3565b600254604051632770a7eb60e21b8152336004820152602481018390526001600160a01b0390911690639dc29fac906044015f604051808303815f87803b1580156105f3575f80fd5b505af1158015610605573d5f803e3d5ffd5b5050505061061333826109da565b60405181815233907f2da466a7b24304f47e87fa2e1e5a81b9831ce54fec19055ce277ca2f39ba42c490602001610495565b5f306001600160a01b0384160361065e57506001610389565b6001546001600160a01b039081169084160361067c57506001610389565b5f546001600160a01b031661069257505f610389565b5f5460405163b700961360e01b81526001600160a01b0385811660048301523060248301526001600160e01b0319851660448301529091169063b700961390606401602060405180830381865afa1580156106ef573d5f803e3d5ffd5b505050506040513d601f19601f820116820180604052508101906107139190610be1565b9392505050565b6001600160a01b0381165f908152600760209081526040808320546005909252822054111561038f576001600160a01b0382165f9081526005602052604081205442116107aa576001600160a01b0383165f908152600760205260409020546107839042610bb7565b6001600160a01b0384165f908152600660205260409020546107a59190610bca565b610713565b6001600160a01b0383165f908152600760209081526040808320546005909252909120546107d89190610bb7565b6001600160a01b0384165f908152600660205260409020546107139190610bca565b5f61080433610325565b90505f6108103361071a565b90505f61081d8284610c00565b90505f6064600454856108309190610bca565b61083a9190610c13565b6002546001546040516340c10f1960e01b81526001600160a01b0391821660048201526024810184905292935016906340c10f19906044015f604051808303815f87803b158015610889575f80fd5b505af115801561089b573d5f803e3d5ffd5b5050335f81815260066020908152604080832083905560059091528082209190915560035490516340c10f1960e01b81526004810192909252602482018790526001600160a01b031692506340c10f1991506044015f604051808303815f87803b158015610907575f80fd5b505af1158015610919573d5f803e3d5ffd5b50506003546001600160a01b031691506340c10f1990503361093b8488610bb7565b6040516001600160e01b031960e085901b1681526001600160a01b03909216600483015260248201526044015f604051808303815f87803b15801561097e575f80fd5b505af1158015610990573d5f803e3d5ffd5b503392507ffc4d02bb581c359a34845de6fe225e6d1ae5abce6c7e6ae741880554e6f7d99591506109c390508385610bb7565b60405190815260200160405180910390a250505050565b6001600160a01b0382165f90815260056020526040902054421015610a9b576001600160a01b0382165f908152600560205260408120548290610a1e904290610bb7565b6001600160a01b0385165f90815260066020526040902054610a409190610bca565b610a4a9190610c00565b9050610a59621a5e0082610c13565b6001600160a01b0384165f90815260066020526040902055610a7e621a5e0042610c00565b6001600160a01b0384165f90815260056020526040902055505050565b610aa8621a5e0082610c13565b6001600160a01b0383165f90815260066020526040902055610acd621a5e0042610c00565b6001600160a01b0383165f908152600560205260409020555050565b6001600160a01b0381168114610afd575f80fd5b50565b5f60208284031215610b10575f80fd5b813561071381610ae9565b5f60208284031215610b2b575f80fd5b5035919050565b5f8060408385031215610b43575f80fd5b8235610b4e81610ae9565b915060208301356001600160e01b031981168114610b6a575f80fd5b809150509250929050565b602080825260149082015273191ccb585d5d1a0b5d5b985d5d1a1bdc9a5e995960621b604082015260600190565b634e487b7160e01b5f52601160045260245ffd5b8181038181111561038957610389610ba3565b808202811582820484141761038957610389610ba3565b5f60208284031215610bf1575f80fd5b81518015158114610713575f80fd5b8082018082111561038957610389610ba3565b5f82610c2d57634e487b7160e01b5f52601260045260245ffd5b50049056fea264697066735822122066be6ec630e4eb90723225cd400dc16de943f028762f07f63c6f6402d98323e764736f6c63430008170033608060405234801561000f575f80fd5b50600180546001600160a01b031916339081179091556040517fce241d7ca1f669fee44b6fc00b8eba2df3bb514eed0f6f668f8f89096e81ed94905f90a26108a58061005a5f395ff3fe608060405234801561000f575f80fd5b5060043610610106575f3560e01c8063ae3eb3041161009e578063d574b4c91161006e578063d574b4c91461022e578063d9972b9614610241578063e3d670d714610264578063e61781071461028c578063f7e4f3a51461029f575f80fd5b8063ae3eb304146101cc578063b34c8caf146101d5578063bf7e214f146101f4578063ce7c2ac214610206575f80fd5b80636acdbac8116100d95780636acdbac81461015c5780636ebcf6071461016f5780637a9e5e4b1461018e5780638da5cb5b146101a1575f80fd5b806313af40351461010a5780632c795fbe1461011f5780635e07b86914610132578063660b1a4d14610149575b5f80fd5b61011d610118366004610742565b6102b2565b005b61011d61012d366004610764565b610335565b6004545b6040519081526020015b60405180910390f35b61011d61015736600461078e565b6103d5565b61011d61016a36600461078e565b610452565b61013661017d366004610742565b60036020525f908152604090205481565b61011d61019c366004610742565b610494565b6001546101b4906001600160a01b031681565b6040516001600160a01b039091168152602001610140565b61013660045481565b6101366101e3366004610742565b60026020525f908152604090205481565b5f546101b4906001600160a01b031681565b610136610214366004610742565b6001600160a01b03165f9081526002602052604090205490565b61011d61023c366004610764565b61050c565b61025461024f3660046107a5565b6105a4565b6040519015158152602001610140565b610136610272366004610742565b6001600160a01b03165f9081526003602052604090205490565b61011d61029a366004610764565b61067b565b61011d6102ad366004610764565b6106d3565b6102c7335f356001600160e01b0319166105a4565b6102ec5760405162461bcd60e51b81526004016102e3906107e8565b60405180910390fd5b600180546001600160a01b0319166001600160a01b0383169081179091556040517fce241d7ca1f669fee44b6fc00b8eba2df3bb514eed0f6f668f8f89096e81ed94905f90a250565b61034a335f356001600160e01b0319166105a4565b6103665760405162461bcd60e51b81526004016102e3906107e8565b6001600160a01b0382165f908152600260205260408120805483929061038d90849061082a565b90915550506040518181526001600160a01b038316907fe6382c9ed5c0c33bb05042f73cf6cbe9cb25639f9a711e094ee563bc9cb80e2c906020015b60405180910390a25050565b6103ea335f356001600160e01b0319166105a4565b6104065760405162461bcd60e51b81526004016102e3906107e8565b8060045f828254610417919061082a565b90915550506040518181527f8f8beec7c09513a4066b76964ff338179905ff1a3cc184dbabe9620b02440b989060200160405180910390a150565b610467335f356001600160e01b0319166105a4565b6104835760405162461bcd60e51b81526004016102e3906107e8565b8060045f828254610417919061083d565b6104a9335f356001600160e01b0319166105a4565b6104c55760405162461bcd60e51b81526004016102e3906107e8565b5f80546001600160a01b0319166001600160a01b038316908117825560405190917f1abebea81bfa2637f28358c371278fb15ede7ea8dd28d2e03b112ff6d936ada491a250565b610521335f356001600160e01b0319166105a4565b61053d5760405162461bcd60e51b81526004016102e3906107e8565b6001600160a01b0382165f908152600360205260408120805483929061056490849061083d565b90915550506040518181526001600160a01b038316907fe895b14dadff94ae19d7bf2c3b60ae7cb147933b709f768b9d76ae16b545e835906020016103c9565b5f306001600160a01b038416036105bd57506001610675565b6001546001600160a01b03908116908416036105db57506001610675565b5f546001600160a01b03166105f157505f610675565b5f5460405163b700961360e01b81526001600160a01b0385811660048301523060248301526001600160e01b0319851660448301529091169063b700961390606401602060405180830381865afa15801561064e573d5f803e3d5ffd5b505050506040513d601f19601f820116820180604052508101906106729190610850565b90505b92915050565b610690335f356001600160e01b0319166105a4565b6106ac5760405162461bcd60e51b81526004016102e3906107e8565b6001600160a01b0382165f908152600260205260408120805483929061038d90849061083d565b6106e8335f356001600160e01b0319166105a4565b6107045760405162461bcd60e51b81526004016102e3906107e8565b6001600160a01b0382165f908152600360205260408120805483929061056490849061082a565b6001600160a01b038116811461073f575f80fd5b50565b5f60208284031215610752575f80fd5b813561075d8161072b565b9392505050565b5f8060408385031215610775575f80fd5b82356107808161072b565b946020939093013593505050565b5f6020828403121561079e575f80fd5b5035919050565b5f80604083850312156107b6575f80fd5b82356107c18161072b565b915060208301356001600160e01b0319811681146107dd575f80fd5b809150509250929050565b602080825260149082015273191ccb585d5d1a0b5d5b985d5d1a1bdc9a5e995960621b604082015260600190565b634e487b7160e01b5f52601160045260245ffd5b8082018082111561067557610675610816565b8181038181111561067557610675610816565b5f60208284031215610860575f80fd5b8151801515811461075d575f80fdfea2646970667358221220739386da1a07447e109645fd8c4f4c9c5f3722af6b7796910ee2d1168836c5cb64736f6c634300081700336080604052601260065534801562000015575f80fd5b5060405162001455380380620014558339810160408190526200003891620000ae565b335f81815260016020526040808220829055818055600480546001600160a01b03191684179055517fce241d7ca1f669fee44b6fc00b8eba2df3bb514eed0f6f668f8f89096e81ed949190a2600562000092828262000206565b5050620002d2565b634e487b7160e01b5f52604160045260245ffd5b5f6020808385031215620000c0575f80fd5b82516001600160401b0380821115620000d7575f80fd5b818501915085601f830112620000eb575f80fd5b8151818111156200010057620001006200009a565b604051601f8201601f19908116603f011681019083821181831017156200012b576200012b6200009a565b81604052828152888684870101111562000143575f80fd5b5f93505b8284101562000166578484018601518185018701529285019262000147565b5f86848301015280965050505050505092915050565b600181811c908216806200019157607f821691505b602082108103620001b057634e487b7160e01b5f52602260045260245ffd5b50919050565b601f8211156200020157805f5260205f20601f840160051c81016020851015620001dd5750805b601f840160051c820191505b81811015620001fe575f8155600101620001e9565b50505b505050565b81516001600160401b038111156200022257620002226200009a565b6200023a816200023384546200017c565b84620001b6565b602080601f83116001811462000270575f8415620002585750858301515b5f19600386901b1c1916600185901b178555620002ca565b5f85815260208120601f198616915b82811015620002a0578886015182559484019460019091019084016200027f565b5085821015620002be57878501515f19600388901b60f8161c191681555b505060018460011b0185555b505050505050565b61117580620002e05f395ff3fe60806040526004361061017b575f3560e01c806395d89b41116100cd578063be9a655511610087578063d9972b9611610062578063d9972b961461042f578063daea85c51461044e578063dd62ed3e1461046d578063f2d5d56b146104b1575f80fd5b8063be9a6555146103e9578063bf7e214f146103f1578063c47f002714610410575f80fd5b806395d89b411461033a5780639dc29fac1461034e578063a0712d681461036d578063a9059cbb1461038c578063b753a98c146103ab578063bb35783b146103ca575f80fd5b8063313ce5671161013857806370a082311161011357806370a082311461029057806375f12b21146102c45780637a9e5e4b146102e45780638da5cb5b14610303575f80fd5b8063313ce5671461023d57806340c10f191461025257806342966c6814610271575f80fd5b806306fdde031461017f57806307da68f5146101a9578063095ea7b3146101b357806313af4035146101e257806318160ddd1461020157806323b872dd1461021e575b5f80fd5b34801561018a575f80fd5b506101936104d0565b6040516101a09190610d11565b60405180910390f35b6101b161055c565b005b3480156101be575f80fd5b506101d26101cd366004610d71565b6105e1565b60405190151581526020016101a0565b3480156101ed575f80fd5b506101b16101fc366004610d9b565b61060c565b34801561020c575f80fd5b505f545b6040519081526020016101a0565b348015610229575f80fd5b506101d2610238366004610dbd565b610686565b348015610248575f80fd5b5061021060065481565b34801561025d575f80fd5b506101b161026c366004610d71565b6107e8565b34801561027c575f80fd5b506101b161028b366004610dfb565b6108be565b34801561029b575f80fd5b506102106102aa366004610d9b565b6001600160a01b03165f9081526001602052604090205490565b3480156102cf575f80fd5b506004546101d290600160a01b900460ff1681565b3480156102ef575f80fd5b506101b16102fe366004610d9b565b6108cb565b34801561030e575f80fd5b50600454610322906001600160a01b031681565b6040516001600160a01b0390911681526020016101a0565b348015610345575f80fd5b50610193610945565b348015610359575f80fd5b506101b1610368366004610d71565b610952565b348015610378575f80fd5b506101b1610387366004610dfb565b610ab3565b348015610397575f80fd5b506101d26103a6366004610d71565b610abd565b3480156103b6575f80fd5b506101b16103c5366004610d71565b610ac9565b3480156103d5575f80fd5b506101b16103e4366004610dbd565b610ad9565b6101b1610aea565b3480156103fc575f80fd5b50600354610322906001600160a01b031681565b34801561041b575f80fd5b506101b161042a366004610e26565b610b60565b34801561043a575f80fd5b506101d2610449366004610ed1565b610ba1565b348015610459575f80fd5b506101d2610468366004610d9b565b610c78565b348015610478575f80fd5b50610210610487366004610f14565b6001600160a01b039182165f90815260026020908152604080832093909416825291909152205490565b3480156104bc575f80fd5b506101b16104cb366004610d71565b610c9b565b600780546104dd90610f40565b80601f016020809104026020016040519081016040528092919081815260200182805461050990610f40565b80156105545780601f1061052b57610100808354040283529160200191610554565b820191905f5260205f20905b81548152906001019060200180831161053757829003601f168201915b505050505081565b610571335f356001600160e01b031916610ba1565b6105965760405162461bcd60e51b815260040161058d90610f78565b60405180910390fd5b60405160043590602435908190839033905f80356001600160e01b031916916105c29134913690610fa6565b60405180910390a450506004805460ff60a01b1916600160a01b179055565b6004545f90600160a01b900460ff16156105f9575f80fd5b6106038383610ca6565b90505b92915050565b610621335f356001600160e01b031916610ba1565b61063d5760405162461bcd60e51b815260040161058d90610f78565b600480546001600160a01b0319166001600160a01b0383169081179091556040517fce241d7ca1f669fee44b6fc00b8eba2df3bb514eed0f6f668f8f89096e81ed94905f90a250565b6004545f90600160a01b900460ff161561069e575f80fd5b6001600160a01b03841633148015906106da57506001600160a01b0384165f9081526002602090815260408083203384529091529020545f1914155b15610731576001600160a01b0384165f90815260026020908152604080832033845290915290205461070d908390610fef565b6001600160a01b0385165f9081526002602090815260408083203384529091529020555b6001600160a01b0384165f90815260016020526040902054610754908390610fef565b6001600160a01b038086165f908152600160205260408082209390935590851681522054610783908390611002565b6001600160a01b038085165f8181526001602052604090819020939093559151908616907fddf252ad1be2c89b69c2b068fc378daa952ba7f163c4a11628f55a4df523b3ef906107d69086815260200190565b60405180910390a35060019392505050565b6107fd335f356001600160e01b031916610ba1565b6108195760405162461bcd60e51b815260040161058d90610f78565b600454600160a01b900460ff161561082f575f80fd5b6001600160a01b0382165f90815260016020526040902054610852908290611002565b6001600160a01b0383165f9081526001602052604081209190915554610879908290611002565b5f556040518181526001600160a01b038316907f0f6798a560793a54c3bcfe86a93cde1e73087d944c0ea20544137d4121396885906020015b60405180910390a25050565b6108c83382610952565b50565b6108e0335f356001600160e01b031916610ba1565b6108fc5760405162461bcd60e51b815260040161058d90610f78565b600380546001600160a01b0319166001600160a01b0383169081179091556040517f1abebea81bfa2637f28358c371278fb15ede7ea8dd28d2e03b112ff6d936ada4905f90a250565b600580546104dd90610f40565b610967335f356001600160e01b031916610ba1565b6109835760405162461bcd60e51b815260040161058d90610f78565b600454600160a01b900460ff1615610999575f80fd5b6001600160a01b03821633148015906109d557506001600160a01b0382165f9081526002602090815260408083203384529091529020545f1914155b15610a2c576001600160a01b0382165f908152600260209081526040808320338452909152902054610a08908290610fef565b6001600160a01b0383165f9081526002602090815260408083203384529091529020555b6001600160a01b0382165f90815260016020526040902054610a4f908290610fef565b6001600160a01b0383165f9081526001602052604081209190915554610a76908290610fef565b5f556040518181526001600160a01b038316907fcc16f5dbb4873280815c1ee09dbd06736cffcc184412cf7a71a0fdb75d397ca5906020016108b2565b6108c833826107e8565b5f610603338484610686565b610ad4338383610686565b505050565b610ae4838383610686565b50505050565b610aff335f356001600160e01b031916610ba1565b610b1b5760405162461bcd60e51b815260040161058d90610f78565b60405160043590602435908190839033905f80356001600160e01b03191691610b479134913690610fa6565b60405180910390a450506004805460ff60a01b19169055565b610b75335f356001600160e01b031916610ba1565b610b915760405162461bcd60e51b815260040161058d90610f78565b6007610b9d8282611060565b5050565b5f306001600160a01b03841603610bba57506001610606565b6004546001600160a01b0390811690841603610bd857506001610606565b6003546001600160a01b0316610bef57505f610606565b60035460405163b700961360e01b81526001600160a01b0385811660048301523060248301526001600160e01b0319851660448301529091169063b700961390606401602060405180830381865afa158015610c4d573d5f803e3d5ffd5b505050506040513d601f19601f82011682018060405250810190610c719190611120565b9050610606565b6004545f90600160a01b900460ff1615610c90575f80fd5b610606825f19610ca6565b610ad4823383610686565b335f8181526002602090815260408083206001600160a01b038716808552925280832085905551919290917f8c5be1e5ebec7d5bd14f71427d1e84f3dd0314c0f7b2291e5b200ac8c7c3b92590610d009086815260200190565b60405180910390a350600192915050565b5f602080835283518060208501525f5b81811015610d3d57858101830151858201604001528201610d21565b505f604082860101526040601f19601f8301168501019250505092915050565b6001600160a01b03811681146108c8575f80fd5b5f8060408385031215610d82575f80fd5b8235610d8d81610d5d565b946020939093013593505050565b5f60208284031215610dab575f80fd5b8135610db681610d5d565b9392505050565b5f805f60608486031215610dcf575f80fd5b8335610dda81610d5d565b92506020840135610dea81610d5d565b929592945050506040919091013590565b5f60208284031215610e0b575f80fd5b5035919050565b634e487b7160e01b5f52604160045260245ffd5b5f60208284031215610e36575f80fd5b813567ffffffffffffffff80821115610e4d575f80fd5b818401915084601f830112610e60575f80fd5b813581811115610e7257610e72610e12565b604051601f8201601f19908116603f01168101908382118183101715610e9a57610e9a610e12565b81604052828152876020848701011115610eb2575f80fd5b826020860160208301375f928101602001929092525095945050505050565b5f8060408385031215610ee2575f80fd5b8235610eed81610d5d565b915060208301356001600160e01b031981168114610f09575f80fd5b809150509250929050565b5f8060408385031215610f25575f80fd5b8235610f3081610d5d565b91506020830135610f0981610d5d565b600181811c90821680610f5457607f821691505b602082108103610f7257634e487b7160e01b5f52602260045260245ffd5b50919050565b602080825260149082015273191ccb585d5d1a0b5d5b985d5d1a1bdc9a5e995960621b604082015260600190565b83815260406020820152816040820152818360608301375f818301606090810191909152601f909201601f1916010192915050565b634e487b7160e01b5f52601160045260245ffd5b8181038181111561060657610606610fdb565b8082018082111561060657610606610fdb565b601f821115610ad457805f5260205f20601f840160051c8101602085101561103a5750805b601f840160051c820191505b81811015611059575f8155600101611046565b5050505050565b815167ffffffffffffffff81111561107a5761107a610e12565b61108e816110888454610f40565b84611015565b602080601f8311600181146110c1575f84156110aa5750858301515b5f19600386901b1c1916600185901b178555611118565b5f85815260208120601f198616915b828110156110ef578886015182559484019460019091019084016110d0565b508582101561110c57878501515f19600388901b60f8161c191681555b505060018460011b0185555b505050505050565b5f60208284031215611130575f80fd5b81518015158114610db6575f80fdfea26469706673582212200f30a38e5500d432814e098c258a6dc472baf2161c0c5debb49adf79e6b8af4364736f6c63430008170033757064617465496e746572657374436f7272656374696f6e7361646428616464726573732c75696e74323536757064617465496e746572657374436f7272656374696f6e7373756228616464726573732c75696e7432353629a264697066735822122073d0af57f287c81687a647725b8ef172248c16b06c196d175f7cf8173b7a17b164736f6c63430008170033",
			"opcodes": "PUSH1 0x80 PUSH1 0x40 MSTORE PUSH1 0xB DUP1 SLOAD PUSH1 0xFF PUSH1 0xA0 SHL NOT AND SWAP1 SSTORE CALLVALUE DUP1 ISZERO PUSH2 0x1C JUMPI PUSH0 DUP1 REVERT JUMPDEST POP PUSH1 0x1 DUP1 SLOAD PUSH1 0x1 PUSH1 0x1 PUSH1 0xA0 SHL SUB NOT AND CALLER SWAP1 DUP2 OR SWAP1 SWAP2 SSTORE PUSH1 0x40 MLOAD PUSH32 0xCE241D7CA1F669FEE44B6FC00B8EBA2DF3BB514EED0F6F668F8F89096E81ED94 SWAP1 PUSH0 SWAP1 LOG2 PUSH1 0x1 DUP1 SLOAD PUSH1 0x1 PUSH1 0x1 PUSH1 0xA0 SHL SUB NOT AND CALLER OR SWAP1 SSTORE PUSH2 0x9E49 DUP1 PUSH2 0x79 PUSH0 CODECOPY PUSH0 RETURN INVALID PUSH1 0x80 PUSH1 0x40 MSTORE CALLVALUE DUP1 ISZERO PUSH3 0x10 JUMPI PUSH0 DUP1 REVERT JUMPDEST POP PUSH1 0x4 CALLDATASIZE LT PUSH3 0x1C4 JUMPI PUSH0 CALLDATALOAD PUSH1 0xE0 SHR DUP1 PUSH4 0x79502C55 GT PUSH3 0x107 JUMPI DUP1 PUSH4 0xBF7E214F GT PUSH3 0x9F JUMPI DUP1 PUSH4 0xD9972B96 GT PUSH3 0x77 JUMPI DUP1 PUSH4 0xD9972B96 EQ PUSH3 0x388 JUMPI DUP1 PUSH4 0xE25FE175 EQ PUSH3 0x3B0 JUMPI DUP1 PUSH4 0xE4517537 EQ PUSH3 0x3D8 JUMPI DUP1 PUSH4 0xFE3F85FD EQ PUSH3 0x3EC JUMPI PUSH0 DUP1 REVERT JUMPDEST DUP1 PUSH4 0xBF7E214F EQ PUSH3 0x354 JUMPI DUP1 PUSH4 0xCE6B4AA9 EQ PUSH3 0x367 JUMPI DUP1 PUSH4 0xD4ABC9F7 EQ PUSH3 0x37E JUMPI PUSH0 DUP1 REVERT JUMPDEST DUP1 PUSH4 0x90A067F1 GT PUSH3 0xDF JUMPI DUP1 PUSH4 0x90A067F1 EQ PUSH3 0x312 JUMPI DUP1 PUSH4 0x931F5534 EQ PUSH3 0x31C JUMPI DUP1 PUSH4 0xB1CB7218 EQ PUSH3 0x333 JUMPI DUP1 PUSH4 0xBE28F5DB EQ PUSH3 0x34A JUMPI PUSH0 DUP1 REVERT JUMPDEST DUP1 PUSH4 0x79502C55 EQ PUSH3 0x2DD JUMPI DUP1 PUSH4 0x7A9E5E4B EQ PUSH3 0x2E7 JUMPI DUP1 PUSH4 0x8DA5CB5B EQ PUSH3 0x2FE JUMPI PUSH0 DUP1 REVERT JUMPDEST DUP1 PUSH4 0x458EFDE3 GT PUSH3 0x17B JUMPI DUP1 PUSH4 0x5246FB2D GT PUSH3 0x153 JUMPI DUP1 PUSH4 0x5246FB2D EQ PUSH3 0x28D JUMPI DUP1 PUSH4 0x57F2BC78 EQ PUSH3 0x2A1 JUMPI DUP1 PUSH4 0x689DA08E EQ PUSH3 0x2B5 JUMPI DUP1 PUSH4 0x71C21934 EQ PUSH3 0x2C9 JUMPI PUSH0 DUP1 REVERT JUMPDEST DUP1 PUSH4 0x458EFDE3 EQ PUSH3 0x25B JUMPI DUP1 PUSH4 0x47C6F442 EQ PUSH3 0x26F JUMPI DUP1 PUSH4 0x50A7755E EQ PUSH3 0x283 JUMPI PUSH0 DUP1 REVERT JUMPDEST DUP1 PUSH4 0x725BC75 EQ PUSH3 0x1C8 JUMPI DUP1 PUSH4 0xA79A03E EQ PUSH3 0x1F9 JUMPI DUP1 PUSH4 0x13AF4035 EQ PUSH3 0x20D JUMPI DUP1 PUSH4 0x17520E47 EQ PUSH3 0x226 JUMPI DUP1 PUSH4 0x18EE85D4 EQ PUSH3 0x23D JUMPI DUP1 PUSH4 0x4011FEC1 EQ PUSH3 0x251 JUMPI JUMPDEST PUSH0 DUP1 REVERT JUMPDEST PUSH1 0xA SLOAD PUSH3 0x1DC SWAP1 PUSH1 0x1 PUSH1 0x1 PUSH1 0xA0 SHL SUB AND DUP2 JUMP JUMPDEST PUSH1 0x40 MLOAD PUSH1 0x1 PUSH1 0x1 PUSH1 0xA0 SHL SUB SWAP1 SWAP2 AND DUP2 MSTORE PUSH1 0x20 ADD JUMPDEST PUSH1 0x40 MLOAD DUP1 SWAP2 SUB SWAP1 RETURN JUMPDEST PUSH1 0x5 SLOAD PUSH3 0x1DC SWAP1 PUSH1 0x1 PUSH1 0x1 PUSH1 0xA0 SHL SUB AND DUP2 JUMP JUMPDEST PUSH3 0x224 PUSH3 0x21E CALLDATASIZE PUSH1 0x4 PUSH3 0x21B8 JUMP JUMPDEST PUSH3 0x403 JUMP JUMPDEST STOP JUMPDEST PUSH3 0x1DC PUSH3 0x237 CALLDATASIZE PUSH1 0x4 PUSH3 0x21DD JUMP JUMPDEST PUSH3 0x48B JUMP JUMPDEST PUSH1 0x7 SLOAD PUSH3 0x1DC SWAP1 PUSH1 0x1 PUSH1 0x1 PUSH1 0xA0 SHL SUB AND DUP2 JUMP JUMPDEST PUSH3 0x224 PUSH3 0x568 JUMP JUMPDEST PUSH1 0x9 SLOAD PUSH3 0x1DC SWAP1 PUSH1 0x1 PUSH1 0x1 PUSH1 0xA0 SHL SUB AND DUP2 JUMP JUMPDEST PUSH1 0x8 SLOAD PUSH3 0x1DC SWAP1 PUSH1 0x1 PUSH1 0x1 PUSH1 0xA0 SHL SUB AND DUP2 JUMP JUMPDEST PUSH3 0x1DC PUSH3 0x729 JUMP JUMPDEST PUSH1 0x4 SLOAD PUSH3 0x1DC SWAP1 PUSH1 0x1 PUSH1 0x1 PUSH1 0xA0 SHL SUB AND DUP2 JUMP JUMPDEST PUSH1 0x6 SLOAD PUSH3 0x1DC SWAP1 PUSH1 0x1 PUSH1 0x1 PUSH1 0xA0 SHL SUB AND DUP2 JUMP JUMPDEST PUSH1 0xB SLOAD PUSH3 0x1DC SWAP1 PUSH1 0x1 PUSH1 0x1 PUSH1 0xA0 SHL SUB AND DUP2 JUMP JUMPDEST PUSH1 0x2 SLOAD PUSH3 0x1DC SWAP1 PUSH1 0x1 PUSH1 0x1 PUSH1 0xA0 SHL SUB AND DUP2 JUMP JUMPDEST PUSH3 0x224 PUSH3 0x7EA JUMP JUMPDEST PUSH3 0x224 PUSH3 0x2F8 CALLDATASIZE PUSH1 0x4 PUSH3 0x21B8 JUMP JUMPDEST PUSH3 0xAFB JUMP JUMPDEST PUSH1 0x1 SLOAD PUSH3 0x1DC SWAP1 PUSH1 0x1 PUSH1 0x1 PUSH1 0xA0 SHL SUB AND DUP2 JUMP JUMPDEST PUSH3 0x224 PUSH3 0xB78 JUMP JUMPDEST PUSH3 0x1DC PUSH3 0x32D CALLDATASIZE PUSH1 0x4 PUSH3 0x2219 JUMP JUMPDEST PUSH3 0x1B4D JUMP JUMPDEST PUSH3 0x1DC PUSH3 0x344 CALLDATASIZE PUSH1 0x4 PUSH3 0x227B JUMP JUMPDEST PUSH3 0x1C3F JUMP JUMPDEST PUSH3 0x224 PUSH3 0x1D27 JUMP JUMPDEST PUSH0 SLOAD PUSH3 0x1DC SWAP1 PUSH1 0x1 PUSH1 0x1 PUSH1 0xA0 SHL SUB AND DUP2 JUMP JUMPDEST PUSH3 0x1DC PUSH3 0x378 CALLDATASIZE PUSH1 0x4 PUSH3 0x21DD JUMP JUMPDEST PUSH3 0x1EDE JUMP JUMPDEST PUSH3 0x1DC PUSH3 0x1F25 JUMP JUMPDEST PUSH3 0x39F PUSH3 0x399 CALLDATASIZE PUSH1 0x4 PUSH3 0x22CA JUMP JUMPDEST PUSH3 0x1F6A JUMP JUMPDEST PUSH1 0x40 MLOAD SWAP1 ISZERO ISZERO DUP2 MSTORE PUSH1 0x20 ADD PUSH3 0x1F0 JUMP JUMPDEST PUSH1 0xB SLOAD PUSH3 0x3C5 SWAP1 PUSH1 0x1 PUSH1 0xA0 SHL SWAP1 DIV PUSH1 0xFF AND DUP2 JUMP JUMPDEST PUSH1 0x40 MLOAD PUSH1 0xFF SWAP1 SWAP2 AND DUP2 MSTORE PUSH1 0x20 ADD PUSH3 0x1F0 JUMP JUMPDEST PUSH1 0x3 SLOAD PUSH3 0x1DC SWAP1 PUSH1 0x1 PUSH1 0x1 PUSH1 0xA0 SHL SUB AND DUP2 JUMP JUMPDEST PUSH3 0x1DC PUSH3 0x3FD CALLDATASIZE PUSH1 0x4 PUSH3 0x231A JUMP JUMPDEST PUSH3 0x203D JUMP JUMPDEST PUSH3 0x41A CALLER PUSH0 CALLDATALOAD PUSH1 0x1 PUSH1 0x1 PUSH1 0xE0 SHL SUB NOT AND PUSH3 0x1F6A JUMP JUMPDEST PUSH3 0x442 JUMPI PUSH1 0x40 MLOAD PUSH3 0x461BCD PUSH1 0xE5 SHL DUP2 MSTORE PUSH1 0x4 ADD PUSH3 0x439 SWAP1 PUSH3 0x23CF JUMP JUMPDEST PUSH1 0x40 MLOAD DUP1 SWAP2 SUB SWAP1 REVERT JUMPDEST PUSH1 0x1 DUP1 SLOAD PUSH1 0x1 PUSH1 0x1 PUSH1 0xA0 SHL SUB NOT AND PUSH1 0x1 PUSH1 0x1 PUSH1 0xA0 SHL SUB DUP4 AND SWAP1 DUP2 OR SWAP1 SWAP2 SSTORE PUSH1 0x40 MLOAD PUSH32 0xCE241D7CA1F669FEE44B6FC00B8EBA2DF3BB514EED0F6F668F8F89096E81ED94 SWAP1 PUSH0 SWAP1 LOG2 POP JUMP JUMPDEST PUSH0 PUSH3 0x4A3 CALLER PUSH0 CALLDATALOAD PUSH1 0x1 PUSH1 0x1 PUSH1 0xE0 SHL SUB NOT AND PUSH3 0x1F6A JUMP JUMPDEST PUSH3 0x4C2 JUMPI PUSH1 0x40 MLOAD PUSH3 0x461BCD PUSH1 0xE5 SHL DUP2 MSTORE PUSH1 0x4 ADD PUSH3 0x439 SWAP1 PUSH3 0x23CF JUMP JUMPDEST DUP3 DUP3 PUSH1 0x40 MLOAD PUSH3 0x4D2 SWAP1 PUSH3 0x213E JUMP JUMPDEST PUSH1 0x1 PUSH1 0x1 PUSH1 0xA0 SHL SUB SWAP3 DUP4 AND DUP2 MSTORE SWAP2 AND PUSH1 0x20 DUP3 ADD MSTORE PUSH1 0x40 ADD PUSH1 0x40 MLOAD DUP1 SWAP2 SUB SWAP1 PUSH0 CREATE DUP1 ISZERO DUP1 ISZERO PUSH3 0x503 JUMPI RETURNDATASIZE PUSH0 DUP1 RETURNDATACOPY RETURNDATASIZE PUSH0 REVERT JUMPDEST POP PUSH1 0x1 SLOAD PUSH1 0x40 MLOAD PUSH4 0x13AF4035 PUSH1 0xE0 SHL DUP2 MSTORE PUSH1 0x1 PUSH1 0x1 PUSH1 0xA0 SHL SUB SWAP2 DUP3 AND PUSH1 0x4 DUP3 ADD MSTORE SWAP2 SWAP3 POP DUP3 AND SWAP1 PUSH4 0x13AF4035 SWAP1 PUSH1 0x24 ADD PUSH0 PUSH1 0x40 MLOAD DUP1 DUP4 SUB DUP2 PUSH0 DUP8 DUP1 EXTCODESIZE ISZERO DUP1 ISZERO PUSH3 0x54B JUMPI PUSH0 DUP1 REVERT JUMPDEST POP GAS CALL ISZERO DUP1 ISZERO PUSH3 0x55E JUMPI RETURNDATASIZE PUSH0 DUP1 RETURNDATACOPY RETURNDATASIZE PUSH0 REVERT JUMPDEST POP POP POP POP SWAP3 SWAP2 POP POP JUMP JUMPDEST PUSH3 0x57F CALLER PUSH0 CALLDATALOAD PUSH1 0x1 PUSH1 0x1 PUSH1 0xE0 SHL SUB NOT AND PUSH3 0x1F6A JUMP JUMPDEST PUSH3 0x59E JUMPI PUSH1 0x40 MLOAD PUSH3 0x461BCD PUSH1 0xE5 SHL DUP2 MSTORE PUSH1 0x4 ADD PUSH3 0x439 SWAP1 PUSH3 0x23CF JUMP JUMPDEST PUSH1 0xB SLOAD PUSH1 0x1 PUSH1 0xA0 SHL SWAP1 DIV PUSH1 0xFF AND PUSH1 0x1 EQ PUSH3 0x5B7 JUMPI PUSH0 DUP1 REVERT JUMPDEST PUSH1 0x2 SLOAD PUSH1 0x1 PUSH1 0x1 PUSH1 0xA0 SHL SUB AND PUSH3 0x5CC JUMPI PUSH0 DUP1 REVERT JUMPDEST PUSH1 0x3 SLOAD PUSH1 0x1 PUSH1 0x1 PUSH1 0xA0 SHL SUB AND PUSH3 0x5E1 JUMPI PUSH0 DUP1 REVERT JUMPDEST PUSH1 0x4 SLOAD PUSH1 0x1 PUSH1 0x1 PUSH1 0xA0 SHL SUB AND PUSH3 0x5F6 JUMPI PUSH0 DUP1 REVERT JUMPDEST PUSH1 0x6 SLOAD PUSH1 0x1 PUSH1 0x1 PUSH1 0xA0 SHL SUB AND PUSH3 0x60B JUMPI PUSH0 DUP1 REVERT JUMPDEST PUSH1 0x3 SLOAD PUSH1 0x2 SLOAD PUSH1 0x1 SLOAD PUSH3 0x630 SWAP3 PUSH1 0x1 PUSH1 0x1 PUSH1 0xA0 SHL SUB SWAP1 DUP2 AND SWAP3 DUP2 AND SWAP2 AND DUP1 PUSH3 0x1B4D JUMP JUMPDEST PUSH1 0x7 DUP1 SLOAD PUSH1 0x1 PUSH1 0x1 PUSH1 0xA0 SHL SUB NOT AND PUSH1 0x1 PUSH1 0x1 PUSH1 0xA0 SHL SUB SWAP3 DUP4 AND OR SWAP1 SSTORE PUSH1 0x5 SLOAD PUSH1 0x4 SLOAD PUSH3 0x662 SWAP3 SWAP2 DUP3 AND SWAP2 AND PUSH3 0x48B JUMP JUMPDEST PUSH1 0x8 DUP1 SLOAD PUSH1 0x1 PUSH1 0x1 PUSH1 0xA0 SHL SUB NOT AND PUSH1 0x1 PUSH1 0x1 PUSH1 0xA0 SHL SUB SWAP3 DUP4 AND OR SWAP1 SSTORE PUSH1 0x5 SLOAD PUSH1 0x4 SLOAD PUSH3 0x694 SWAP3 SWAP2 DUP3 AND SWAP2 AND PUSH3 0x1EDE JUMP JUMPDEST PUSH1 0x9 DUP1 SLOAD PUSH1 0x1 PUSH1 0x1 PUSH1 0xA0 SHL SUB NOT AND PUSH1 0x1 PUSH1 0x1 PUSH1 0xA0 SHL SUB SWAP3 DUP4 AND OR SWAP1 SSTORE PUSH1 0x2 SLOAD PUSH1 0x3 SLOAD PUSH1 0x4 SLOAD PUSH3 0x6CD SWAP4 SWAP3 DUP4 AND SWAP3 SWAP2 DUP3 AND SWAP2 AND PUSH3 0x1C3F JUMP JUMPDEST PUSH1 0xA DUP1 SLOAD PUSH1 0x1 PUSH1 0x1 PUSH1 0xA0 SHL SUB NOT AND PUSH1 0x1 PUSH1 0x1 PUSH1 0xA0 SHL SUB SWAP3 SWAP1 SWAP3 AND SWAP2 SWAP1 SWAP2 OR SWAP1 SSTORE PUSH1 0xB DUP1 SLOAD PUSH1 0x1 SWAP2 SWAP1 PUSH1 0x14 SWAP1 PUSH3 0x70F SWAP1 DUP5 SWAP1 PUSH1 0x1 PUSH1 0xA0 SHL SWAP1 DIV PUSH1 0xFF AND PUSH3 0x23FD JUMP JUMPDEST SWAP3 POP PUSH2 0x100 EXP DUP2 SLOAD DUP2 PUSH1 0xFF MUL NOT AND SWAP1 DUP4 PUSH1 0xFF AND MUL OR SWAP1 SSTORE POP JUMP JUMPDEST PUSH0 PUSH3 0x741 CALLER PUSH0 CALLDATALOAD PUSH1 0x1 PUSH1 0x1 PUSH1 0xE0 SHL SUB NOT AND PUSH3 0x1F6A JUMP JUMPDEST PUSH3 0x760 JUMPI PUSH1 0x40 MLOAD PUSH3 0x461BCD PUSH1 0xE5 SHL DUP2 MSTORE PUSH1 0x4 ADD PUSH3 0x439 SWAP1 PUSH3 0x23CF JUMP JUMPDEST PUSH1 0x40 MLOAD PUSH3 0x76E SWAP1 PUSH3 0x214C JUMP JUMPDEST PUSH1 0x40 MLOAD DUP1 SWAP2 SUB SWAP1 PUSH0 CREATE DUP1 ISZERO DUP1 ISZERO PUSH3 0x788 JUMPI RETURNDATASIZE PUSH0 DUP1 RETURNDATACOPY RETURNDATASIZE PUSH0 REVERT JUMPDEST POP PUSH1 0x1 SLOAD PUSH1 0x40 MLOAD PUSH4 0x13AF4035 PUSH1 0xE0 SHL DUP2 MSTORE PUSH1 0x1 PUSH1 0x1 PUSH1 0xA0 SHL SUB SWAP2 DUP3 AND PUSH1 0x4 DUP3 ADD MSTORE SWAP2 SWAP3 POP DUP3 AND SWAP1 PUSH4 0x13AF4035 SWAP1 PUSH1 0x24 ADD PUSH0 PUSH1 0x40 MLOAD DUP1 DUP4 SUB DUP2 PUSH0 DUP8 DUP1 EXTCODESIZE ISZERO DUP1 ISZERO PUSH3 0x7D0 JUMPI PUSH0 DUP1 REVERT JUMPDEST POP GAS CALL ISZERO DUP1 ISZERO PUSH3 0x7E3 JUMPI RETURNDATASIZE PUSH0 DUP1 RETURNDATACOPY RETURNDATASIZE PUSH0 REVERT JUMPDEST POP POP POP POP SWAP1 JUMP JUMPDEST PUSH3 0x801 CALLER PUSH0 CALLDATALOAD PUSH1 0x1 PUSH1 0x1 PUSH1 0xE0 SHL SUB NOT AND PUSH3 0x1F6A JUMP JUMPDEST PUSH3 0x820 JUMPI PUSH1 0x40 MLOAD PUSH3 0x461BCD PUSH1 0xE5 SHL DUP2 MSTORE PUSH1 0x4 ADD PUSH3 0x439 SWAP1 PUSH3 0x23CF JUMP JUMPDEST PUSH1 0xB SLOAD PUSH1 0x1 PUSH1 0xA0 SHL SWAP1 DIV PUSH1 0xFF AND PUSH1 0x2 EQ PUSH3 0x839 JUMPI PUSH0 DUP1 REVERT JUMPDEST PUSH1 0x7 SLOAD PUSH1 0x8 SLOAD PUSH1 0x40 MLOAD PUSH4 0x432DA565 PUSH1 0xE0 SHL DUP2 MSTORE PUSH1 0x1 PUSH1 0x1 PUSH1 0xA0 SHL SUB SWAP2 DUP3 AND PUSH1 0x4 DUP3 ADD MSTORE SWAP2 AND SWAP1 PUSH4 0x432DA565 SWAP1 PUSH1 0x24 ADD PUSH0 PUSH1 0x40 MLOAD DUP1 DUP4 SUB DUP2 PUSH0 DUP8 DUP1 EXTCODESIZE ISZERO DUP1 ISZERO PUSH3 0x880 JUMPI PUSH0 DUP1 REVERT JUMPDEST POP GAS CALL ISZERO DUP1 ISZERO PUSH3 0x893 JUMPI RETURNDATASIZE PUSH0 DUP1 RETURNDATACOPY RETURNDATASIZE PUSH0 REVERT JUMPDEST POP POP PUSH1 0x7 SLOAD PUSH1 0x6 SLOAD PUSH1 0x40 MLOAD PUSH4 0x179F983 PUSH1 0xE6 SHL DUP2 MSTORE PUSH1 0x1 PUSH1 0x1 PUSH1 0xA0 SHL SUB SWAP2 DUP3 AND PUSH1 0x4 DUP3 ADD MSTORE SWAP2 AND SWAP3 POP PUSH4 0x5E7E60C0 SWAP2 POP PUSH1 0x24 ADD PUSH0 PUSH1 0x40 MLOAD DUP1 DUP4 SUB DUP2 PUSH0 DUP8 DUP1 EXTCODESIZE ISZERO DUP1 ISZERO PUSH3 0x8DE JUMPI PUSH0 DUP1 REVERT JUMPDEST POP GAS CALL ISZERO DUP1 ISZERO PUSH3 0x8F1 JUMPI RETURNDATASIZE PUSH0 DUP1 RETURNDATACOPY RETURNDATASIZE PUSH0 REVERT JUMPDEST POP POP PUSH1 0x7 SLOAD PUSH1 0x40 MLOAD PUSH4 0xA91BBC5 PUSH1 0xE3 SHL DUP2 MSTORE PUSH2 0x7D0 PUSH1 0x4 DUP3 ADD MSTORE PUSH1 0x14 PUSH1 0x24 DUP3 ADD MSTORE PUSH1 0x4B PUSH1 0x44 DUP3 ADD MSTORE PUSH1 0x1 PUSH1 0x1 PUSH1 0xA0 SHL SUB SWAP1 SWAP2 AND SWAP3 POP PUSH4 0x548DDE28 SWAP2 POP PUSH1 0x64 ADD PUSH0 PUSH1 0x40 MLOAD DUP1 DUP4 SUB DUP2 PUSH0 DUP8 DUP1 EXTCODESIZE ISZERO DUP1 ISZERO PUSH3 0x948 JUMPI PUSH0 DUP1 REVERT JUMPDEST POP GAS CALL ISZERO DUP1 ISZERO PUSH3 0x95B JUMPI RETURNDATASIZE PUSH0 DUP1 RETURNDATACOPY RETURNDATASIZE PUSH0 REVERT JUMPDEST POP POP PUSH1 0x8 SLOAD PUSH1 0x7 SLOAD PUSH1 0x40 MLOAD PUSH4 0xB4ED52D PUSH1 0xE0 SHL DUP2 MSTORE PUSH1 0x1 PUSH1 0x1 PUSH1 0xA0 SHL SUB SWAP2 DUP3 AND PUSH1 0x4 DUP3 ADD MSTORE SWAP2 AND SWAP3 POP PUSH4 0xB4ED52D SWAP2 POP PUSH1 0x24 ADD PUSH0 PUSH1 0x40 MLOAD DUP1 DUP4 SUB DUP2 PUSH0 DUP8 DUP1 EXTCODESIZE ISZERO DUP1 ISZERO PUSH3 0x9A6 JUMPI PUSH0 DUP1 REVERT JUMPDEST POP GAS CALL ISZERO DUP1 ISZERO PUSH3 0x9B9 JUMPI RETURNDATASIZE PUSH0 DUP1 RETURNDATACOPY RETURNDATASIZE PUSH0 REVERT JUMPDEST POP POP PUSH1 0x8 SLOAD PUSH1 0x40 MLOAD PUSH4 0x912D2183 PUSH1 0xE0 SHL DUP2 MSTORE PUSH9 0x56BC75E2D63100000 PUSH1 0x4 DUP3 ADD MSTORE PUSH1 0x1 PUSH1 0x1 PUSH1 0xA0 SHL SUB SWAP1 SWAP2 AND SWAP3 POP PUSH4 0x912D2183 SWAP2 POP PUSH1 0x24 ADD PUSH0 PUSH1 0x40 MLOAD DUP1 DUP4 SUB DUP2 PUSH0 DUP8 DUP1 EXTCODESIZE ISZERO DUP1 ISZERO PUSH3 0xA09 JUMPI PUSH0 DUP1 REVERT JUMPDEST POP GAS CALL ISZERO DUP1 ISZERO PUSH3 0xA1C JUMPI RETURNDATASIZE PUSH0 DUP1 RETURNDATACOPY RETURNDATASIZE PUSH0 REVERT JUMPDEST POP POP PUSH1 0x8 SLOAD PUSH1 0x6 SLOAD PUSH1 0x40 MLOAD PUSH4 0x13C6B7C1 PUSH1 0xE3 SHL DUP2 MSTORE PUSH1 0x1 PUSH1 0x1 PUSH1 0xA0 SHL SUB SWAP2 DUP3 AND PUSH1 0x4 DUP3 ADD MSTORE SWAP2 AND SWAP3 POP PUSH4 0x9E35BE08 SWAP2 POP PUSH1 0x24 ADD PUSH0 PUSH1 0x40 MLOAD DUP1 DUP4 SUB DUP2 PUSH0 DUP8 DUP1 EXTCODESIZE ISZERO DUP1 ISZERO PUSH3 0xA67 JUMPI PUSH0 DUP1 REVERT JUMPDEST POP GAS CALL ISZERO DUP1 ISZERO PUSH3 0xA7A JUMPI RETURNDATASIZE PUSH0 DUP1 RETURNDATACOPY RETURNDATASIZE PUSH0 REVERT JUMPDEST POP POP PUSH1 0x9 SLOAD PUSH1 0x40 MLOAD PUSH4 0x23401C91 PUSH1 0xE2 SHL DUP2 MSTORE PUSH1 0x32 PUSH1 0x4 DUP3 ADD MSTORE PUSH1 0x1 PUSH1 0x1 PUSH1 0xA0 SHL SUB SWAP1 SWAP2 AND SWAP3 POP PUSH4 0x8D007244 SWAP2 POP PUSH1 0x24 ADD JUMPDEST PUSH0 PUSH1 0x40 MLOAD DUP1 DUP4 SUB DUP2 PUSH0 DUP8 DUP1 EXTCODESIZE ISZERO DUP1 ISZERO PUSH3 0xAC3 JUMPI PUSH0 DUP1 REVERT JUMPDEST POP GAS CALL ISZERO DUP1 ISZERO PUSH3 0xAD6 JUMPI RETURNDATASIZE PUSH0 DUP1 RETURNDATACOPY RETURNDATASIZE PUSH0 REVERT JUMPDEST POP POP POP POP PUSH1 0x1 PUSH1 0xB PUSH1 0x14 DUP3 DUP3 DUP3 SWAP1 SLOAD SWAP1 PUSH2 0x100 EXP SWAP1 DIV PUSH1 0xFF AND PUSH3 0x70F SWAP2 SWAP1 PUSH3 0x23FD JUMP JUMPDEST PUSH3 0xB12 CALLER PUSH0 CALLDATALOAD PUSH1 0x1 PUSH1 0x1 PUSH1 0xE0 SHL SUB NOT AND PUSH3 0x1F6A JUMP JUMPDEST PUSH3 0xB31 JUMPI PUSH1 0x40 MLOAD PUSH3 0x461BCD PUSH1 0xE5 SHL DUP2 MSTORE PUSH1 0x4 ADD PUSH3 0x439 SWAP1 PUSH3 0x23CF JUMP JUMPDEST PUSH0 DUP1 SLOAD PUSH1 0x1 PUSH1 0x1 PUSH1 0xA0 SHL SUB NOT AND PUSH1 0x1 PUSH1 0x1 PUSH1 0xA0 SHL SUB DUP4 AND SWAP1 DUP2 OR DUP3 SSTORE PUSH1 0x40 MLOAD SWAP1 SWAP2 PUSH32 0x1ABEBEA81BFA2637F28358C371278FB15EDE7EA8DD28D2E03B112FF6D936ADA4 SWAP2 LOG2 POP JUMP JUMPDEST PUSH3 0xB8F CALLER PUSH0 CALLDATALOAD PUSH1 0x1 PUSH1 0x1 PUSH1 0xE0 SHL SUB NOT AND PUSH3 0x1F6A JUMP JUMPDEST PUSH3 0xBAE JUMPI PUSH1 0x40 MLOAD PUSH3 0x461BCD PUSH1 0xE5 SHL DUP2 MSTORE PUSH1 0x4 ADD PUSH3 0x439 SWAP1 PUSH3 0x23CF JUMP JUMPDEST PUSH1 0xB SLOAD PUSH1 0x1 PUSH1 0xA0 SHL SWAP1 DIV PUSH1 0xFF AND PUSH1 0x3 EQ PUSH3 0xBC7 JUMPI PUSH0 DUP1 REVERT JUMPDEST PUSH0 SLOAD PUSH1 0x1 PUSH1 0x1 PUSH1 0xA0 SHL SUB AND PUSH3 0xBDB JUMPI PUSH0 DUP1 REVERT JUMPDEST PUSH3 0xBE5 PUSH3 0x729 JUMP JUMPDEST PUSH1 0xB DUP1 SLOAD PUSH1 0x1 PUSH1 0x1 PUSH1 0xA0 SHL SUB NOT AND PUSH1 0x1 PUSH1 0x1 PUSH1 0xA0 SHL SUB SWAP3 DUP4 AND SWAP1 DUP2 OR SWAP1 SWAP2 SSTORE PUSH1 0x2 SLOAD PUSH1 0x40 MLOAD PUSH4 0x7A9E5E4B PUSH1 0xE0 SHL DUP2 MSTORE PUSH1 0x4 DUP2 ADD SWAP3 SWAP1 SWAP3 MSTORE SWAP1 SWAP2 AND SWAP1 PUSH4 0x7A9E5E4B SWAP1 PUSH1 0x24 ADD PUSH0 PUSH1 0x40 MLOAD DUP1 DUP4 SUB DUP2 PUSH0 DUP8 DUP1 EXTCODESIZE ISZERO DUP1 ISZERO PUSH3 0xC41 JUMPI PUSH0 DUP1 REVERT JUMPDEST POP GAS CALL ISZERO DUP1 ISZERO PUSH3 0xC54 JUMPI RETURNDATASIZE PUSH0 DUP1 RETURNDATACOPY RETURNDATASIZE PUSH0 REVERT JUMPDEST POP POP PUSH1 0x3 SLOAD PUSH1 0xB SLOAD PUSH1 0x40 MLOAD PUSH4 0x7A9E5E4B PUSH1 0xE0 SHL DUP2 MSTORE PUSH1 0x1 PUSH1 0x1 PUSH1 0xA0 SHL SUB SWAP2 DUP3 AND PUSH1 0x4 DUP3 ADD MSTORE SWAP2 AND SWAP3 POP PUSH4 0x7A9E5E4B SWAP2 POP PUSH1 0x24 ADD PUSH0 PUSH1 0x40 MLOAD DUP1 DUP4 SUB DUP2 PUSH0 DUP8 DUP1 EXTCODESIZE ISZERO DUP1 ISZERO PUSH3 0xC9F JUMPI PUSH0 DUP1 REVERT JUMPDEST POP GAS CALL ISZERO DUP1 ISZERO PUSH3 0xCB2 JUMPI RETURNDATASIZE PUSH0 DUP1 RETURNDATACOPY RETURNDATASIZE PUSH0 REVERT JUMPDEST POP POP PUSH1 0x4 DUP1 SLOAD PUSH1 0xB SLOAD PUSH1 0x40 MLOAD PUSH4 0x7A9E5E4B PUSH1 0xE0 SHL DUP2 MSTORE PUSH1 0x1 PUSH1 0x1 PUSH1 0xA0 SHL SUB SWAP2 DUP3 AND SWAP4 DUP2 ADD SWAP4 SWAP1 SWAP4 MSTORE AND SWAP3 POP PUSH4 0x7A9E5E4B SWAP2 POP PUSH1 0x24 ADD PUSH0 PUSH1 0x40 MLOAD DUP1 DUP4 SUB DUP2 PUSH0 DUP8 DUP1 EXTCODESIZE ISZERO DUP1 ISZERO PUSH3 0xCFF JUMPI PUSH0 DUP1 REVERT JUMPDEST POP GAS CALL ISZERO DUP1 ISZERO PUSH3 0xD12 JUMPI RETURNDATASIZE PUSH0 DUP1 RETURNDATACOPY RETURNDATASIZE PUSH0 REVERT JUMPDEST POP POP PUSH1 0x5 SLOAD PUSH1 0xB SLOAD PUSH1 0x40 MLOAD PUSH4 0x7A9E5E4B PUSH1 0xE0 SHL DUP2 MSTORE PUSH1 0x1 PUSH1 0x1 PUSH1 0xA0 SHL SUB SWAP2 DUP3 AND PUSH1 0x4 DUP3 ADD MSTORE SWAP2 AND SWAP3 POP PUSH4 0x7A9E5E4B SWAP2 POP PUSH1 0x24 ADD PUSH0 PUSH1 0x40 MLOAD DUP1 DUP4 SUB DUP2 PUSH0 DUP8 DUP1 EXTCODESIZE ISZERO DUP1 ISZERO PUSH3 0xD5D JUMPI PUSH0 DUP1 REVERT JUMPDEST POP GAS CALL ISZERO DUP1 ISZERO PUSH3 0xD70 JUMPI RETURNDATASIZE PUSH0 DUP1 RETURNDATACOPY RETURNDATASIZE PUSH0 REVERT JUMPDEST POP POP PUSH1 0x6 SLOAD PUSH1 0xB SLOAD PUSH1 0x40 MLOAD PUSH4 0x7A9E5E4B PUSH1 0xE0 SHL DUP2 MSTORE PUSH1 0x1 PUSH1 0x1 PUSH1 0xA0 SHL SUB SWAP2 DUP3 AND PUSH1 0x4 DUP3 ADD MSTORE SWAP2 AND SWAP3 POP PUSH4 0x7A9E5E4B SWAP2 POP PUSH1 0x24 ADD PUSH0 PUSH1 0x40 MLOAD DUP1 DUP4 SUB DUP2 PUSH0 DUP8 DUP1 EXTCODESIZE ISZERO DUP1 ISZERO PUSH3 0xDBB JUMPI PUSH0 DUP1 REVERT JUMPDEST POP GAS CALL ISZERO DUP1 ISZERO PUSH3 0xDCE JUMPI RETURNDATASIZE PUSH0 DUP1 RETURNDATACOPY RETURNDATASIZE PUSH0 REVERT JUMPDEST POP POP PUSH1 0x7 SLOAD PUSH1 0xB SLOAD PUSH1 0x40 MLOAD PUSH4 0x7A9E5E4B PUSH1 0xE0 SHL DUP2 MSTORE PUSH1 0x1 PUSH1 0x1 PUSH1 0xA0 SHL SUB SWAP2 DUP3 AND PUSH1 0x4 DUP3 ADD MSTORE SWAP2 AND SWAP3 POP PUSH4 0x7A9E5E4B SWAP2 POP PUSH1 0x24 ADD PUSH0 PUSH1 0x40 MLOAD DUP1 DUP4 SUB DUP2 PUSH0 DUP8 DUP1 EXTCODESIZE ISZERO DUP1 ISZERO PUSH3 0xE19 JUMPI PUSH0 DUP1 REVERT JUMPDEST POP GAS CALL ISZERO DUP1 ISZERO PUSH3 0xE2C JUMPI RETURNDATASIZE PUSH0 DUP1 RETURNDATACOPY RETURNDATASIZE PUSH0 REVERT JUMPDEST POP POP PUSH1 0x8 SLOAD PUSH1 0xB SLOAD PUSH1 0x40 MLOAD PUSH4 0x7A9E5E4B PUSH1 0xE0 SHL DUP2 MSTORE PUSH1 0x1 PUSH1 0x1 PUSH1 0xA0 SHL SUB SWAP2 DUP3 AND PUSH1 0x4 DUP3 ADD MSTORE SWAP2 AND SWAP3 POP PUSH4 0x7A9E5E4B SWAP2 POP PUSH1 0x24 ADD PUSH0 PUSH1 0x40 MLOAD DUP1 DUP4 SUB DUP2 PUSH0 DUP8 DUP1 EXTCODESIZE ISZERO DUP1 ISZERO PUSH3 0xE77 JUMPI PUSH0 DUP1 REVERT JUMPDEST POP GAS CALL ISZERO DUP1 ISZERO PUSH3 0xE8A JUMPI RETURNDATASIZE PUSH0 DUP1 RETURNDATACOPY RETURNDATASIZE PUSH0 REVERT JUMPDEST POP POP PUSH1 0x9 SLOAD PUSH1 0xB SLOAD PUSH1 0x40 MLOAD PUSH4 0x7A9E5E4B PUSH1 0xE0 SHL DUP2 MSTORE PUSH1 0x1 PUSH1 0x1 PUSH1 0xA0 SHL SUB SWAP2 DUP3 AND PUSH1 0x4 DUP3 ADD MSTORE SWAP2 AND SWAP3 POP PUSH4 0x7A9E5E4B SWAP2 POP PUSH1 0x24 ADD PUSH0 PUSH1 0x40 MLOAD DUP1 DUP4 SUB DUP2 PUSH0 DUP8 DUP1 EXTCODESIZE ISZERO DUP1 ISZERO PUSH3 0xED5 JUMPI PUSH0 DUP1 REVERT JUMPDEST POP GAS CALL ISZERO DUP1 ISZERO PUSH3 0xEE8 JUMPI RETURNDATASIZE PUSH0 DUP1 RETURNDATACOPY RETURNDATASIZE PUSH0 REVERT JUMPDEST POP POP PUSH1 0xA SLOAD PUSH1 0xB SLOAD PUSH1 0x40 MLOAD PUSH4 0x7A9E5E4B PUSH1 0xE0 SHL DUP2 MSTORE PUSH1 0x1 PUSH1 0x1 PUSH1 0xA0 SHL SUB SWAP2 DUP3 AND PUSH1 0x4 DUP3 ADD MSTORE SWAP2 AND SWAP3 POP PUSH4 0x7A9E5E4B SWAP2 POP PUSH1 0x24 ADD PUSH0 PUSH1 0x40 MLOAD DUP1 DUP4 SUB DUP2 PUSH0 DUP8 DUP1 EXTCODESIZE ISZERO DUP1 ISZERO PUSH3 0xF33 JUMPI PUSH0 DUP1 REVERT JUMPDEST POP GAS CALL ISZERO DUP1 ISZERO PUSH3 0xF46 JUMPI RETURNDATASIZE PUSH0 DUP1 RETURNDATACOPY RETURNDATASIZE PUSH0 REVERT JUMPDEST POP POP PUSH1 0xB SLOAD PUSH1 0x7 SLOAD PUSH1 0x2 SLOAD PUSH1 0x40 DUP1 MLOAD DUP1 DUP3 ADD SWAP1 SWAP2 MSTORE PUSH1 0x15 DUP2 MSTORE PUSH21 0x6D696E7428616464726573732C75696E7432353629 PUSH1 0x58 SHL PUSH1 0x20 DUP3 ADD MSTORE PUSH1 0x1 PUSH1 0x1 PUSH1 0xA0 SHL SUB SWAP4 DUP5 AND SWAP6 POP PUSH4 0xBFC019C6 SWAP5 POP SWAP2 DUP4 AND SWAP3 AND SWAP1 PUSH3 0xFA2 SWAP1 PUSH3 0x210D JUMP JUMPDEST PUSH1 0x40 MLOAD DUP5 PUSH4 0xFFFFFFFF AND PUSH1 0xE0 SHL DUP2 MSTORE PUSH1 0x4 ADD PUSH3 0xFC2 SWAP4 SWAP3 SWAP2 SWAP1 PUSH3 0x2423 JUMP JUMPDEST PUSH0 PUSH1 0x40 MLOAD DUP1 DUP4 SUB DUP2 PUSH0 DUP8 DUP1 EXTCODESIZE ISZERO DUP1 ISZERO PUSH3 0xFDA JUMPI PUSH0 DUP1 REVERT JUMPDEST POP GAS CALL ISZERO DUP1 ISZERO PUSH3 0xFED JUMPI RETURNDATASIZE PUSH0 DUP1 RETURNDATACOPY RETURNDATASIZE PUSH0 REVERT JUMPDEST POP POP PUSH1 0xB SLOAD PUSH1 0x7 SLOAD PUSH1 0x2 SLOAD PUSH1 0x40 DUP1 MLOAD DUP1 DUP3 ADD SWAP1 SWAP2 MSTORE PUSH1 0x15 DUP2 MSTORE PUSH21 0x6275726E28616464726573732C75696E7432353629 PUSH1 0x58 SHL PUSH1 0x20 DUP3 ADD MSTORE PUSH1 0x1 PUSH1 0x1 PUSH1 0xA0 SHL SUB SWAP4 DUP5 AND SWAP6 POP PUSH4 0xBFC019C6 SWAP5 POP SWAP2 DUP4 AND SWAP3 AND SWAP1 PUSH3 0x1049 SWAP1 PUSH3 0x210D JUMP JUMPDEST PUSH1 0x40 MLOAD DUP5 PUSH4 0xFFFFFFFF AND PUSH1 0xE0 SHL DUP2 MSTORE PUSH1 0x4 ADD PUSH3 0x1069 SWAP4 SWAP3 SWAP2 SWAP1 PUSH3 0x2423 JUMP JUMPDEST PUSH0 PUSH1 0x40 MLOAD DUP1 DUP4 SUB DUP2 PUSH0 DUP8 DUP1 EXTCODESIZE ISZERO DUP1 ISZERO PUSH3 0x1081 JUMPI PUSH0 DUP1 REVERT JUMPDEST POP GAS CALL ISZERO DUP1 ISZERO PUSH3 0x1094 JUMPI RETURNDATASIZE PUSH0 DUP1 RETURNDATACOPY RETURNDATASIZE PUSH0 REVERT JUMPDEST POP POP PUSH1 0xB SLOAD PUSH1 0x7 SLOAD PUSH1 0x8 SLOAD PUSH1 0x40 DUP1 MLOAD PUSH1 0x60 DUP2 ADD SWAP1 SWAP2 MSTORE PUSH1 0x2D DUP1 DUP3 MSTORE PUSH1 0x1 PUSH1 0x1 PUSH1 0xA0 SHL SUB SWAP5 DUP6 AND SWAP7 POP PUSH4 0xBFC019C6 SWAP6 POP SWAP3 DUP5 AND SWAP4 SWAP1 SWAP2 AND SWAP2 PUSH3 0x10E0 SWAP2 SWAP1 PUSH3 0x9DE7 PUSH1 0x20 DUP4 ADD CODECOPY PUSH3 0x210D JUMP JUMPDEST PUSH1 0x40 MLOAD DUP5 PUSH4 0xFFFFFFFF AND PUSH1 0xE0 SHL DUP2 MSTORE PUSH1 0x4 ADD PUSH3 0x1100 SWAP4 SWAP3 SWAP2 SWAP1 PUSH3 0x2423 JUMP JUMPDEST PUSH0 PUSH1 0x40 MLOAD DUP1 DUP4 SUB DUP2 PUSH0 DUP8 DUP1 EXTCODESIZE ISZERO DUP1 ISZERO PUSH3 0x1118 JUMPI PUSH0 DUP1 REVERT JUMPDEST POP GAS CALL ISZERO DUP1 ISZERO PUSH3 0x112B JUMPI RETURNDATASIZE PUSH0 DUP1 RETURNDATACOPY RETURNDATASIZE PUSH0 REVERT JUMPDEST POP POP PUSH1 0xB SLOAD PUSH1 0x7 SLOAD PUSH1 0x8 SLOAD PUSH1 0x40 DUP1 MLOAD PUSH1 0x60 DUP2 ADD SWAP1 SWAP2 MSTORE PUSH1 0x2C DUP1 DUP3 MSTORE PUSH1 0x1 PUSH1 0x1 PUSH1 0xA0 SHL SUB SWAP5 DUP6 AND SWAP7 POP PUSH4 0xBFC019C6 SWAP6 POP SWAP3 DUP5 AND SWAP4 SWAP1 SWAP2 AND SWAP2 PUSH3 0x1177 SWAP2 SWAP1 PUSH3 0x9DBB PUSH1 0x20 DUP4 ADD CODECOPY PUSH3 0x210D JUMP JUMPDEST PUSH1 0x40 MLOAD DUP5 PUSH4 0xFFFFFFFF AND PUSH1 0xE0 SHL DUP2 MSTORE PUSH1 0x4 ADD PUSH3 0x1197 SWAP4 SWAP3 SWAP2 SWAP1 PUSH3 0x2423 JUMP JUMPDEST PUSH0 PUSH1 0x40 MLOAD DUP1 DUP4 SUB DUP2 PUSH0 DUP8 DUP1 EXTCODESIZE ISZERO DUP1 ISZERO PUSH3 0x11AF JUMPI PUSH0 DUP1 REVERT JUMPDEST POP GAS CALL ISZERO DUP1 ISZERO PUSH3 0x11C2 JUMPI RETURNDATASIZE PUSH0 DUP1 RETURNDATACOPY RETURNDATASIZE PUSH0 REVERT JUMPDEST POP POP PUSH1 0xB SLOAD PUSH1 0x7 SLOAD PUSH1 0x8 SLOAD PUSH1 0x40 DUP1 MLOAD DUP1 DUP3 ADD SWAP1 SWAP2 MSTORE PUSH1 0x1D DUP2 MSTORE PUSH32 0x676C6F62616C73686172657361646428616464726573732C75696E7429000000 PUSH1 0x20 DUP3 ADD MSTORE PUSH1 0x1 PUSH1 0x1 PUSH1 0xA0 SHL SUB SWAP4 DUP5 AND SWAP6 POP PUSH4 0xBFC019C6 SWAP5 POP SWAP2 DUP4 AND SWAP3 AND SWAP1 PUSH3 0x1226 SWAP1 PUSH3 0x210D JUMP JUMPDEST PUSH1 0x40 MLOAD DUP5 PUSH4 0xFFFFFFFF AND PUSH1 0xE0 SHL DUP2 MSTORE PUSH1 0x4 ADD PUSH3 0x1246 SWAP4 SWAP3 SWAP2 SWAP1 PUSH3 0x2423 JUMP JUMPDEST PUSH0 PUSH1 0x40 MLOAD DUP1 DUP4 SUB DUP2 PUSH0 DUP8 DUP1 EXTCODESIZE ISZERO DUP1 ISZERO PUSH3 0x125E JUMPI PUSH0 DUP1 REVERT JUMPDEST POP GAS CALL ISZERO DUP1 ISZERO PUSH3 0x1271 JUMPI RETURNDATASIZE PUSH0 DUP1 RETURNDATACOPY RETURNDATASIZE PUSH0 REVERT JUMPDEST POP POP PUSH1 0xB SLOAD PUSH1 0x7 SLOAD PUSH1 0x8 SLOAD PUSH1 0x40 DUP1 MLOAD DUP1 DUP3 ADD SWAP1 SWAP2 MSTORE PUSH1 0x1D DUP2 MSTORE PUSH32 0x676C6F62616C73686172657373756228616464726573732C75696E7429000000 PUSH1 0x20 DUP3 ADD MSTORE PUSH1 0x1 PUSH1 0x1 PUSH1 0xA0 SHL SUB SWAP4 DUP5 AND SWAP6 POP PUSH4 0xBFC019C6 SWAP5 POP SWAP2 DUP4 AND SWAP3 AND SWAP1 PUSH3 0x12D5 SWAP1 PUSH3 0x210D JUMP JUMPDEST PUSH1 0x40 MLOAD DUP5 PUSH4 0xFFFFFFFF AND PUSH1 0xE0 SHL DUP2 MSTORE PUSH1 0x4 ADD PUSH3 0x12F5 SWAP4 SWAP3 SWAP2 SWAP1 PUSH3 0x2423 JUMP JUMPDEST PUSH0 PUSH1 0x40 MLOAD DUP1 DUP4 SUB DUP2 PUSH0 DUP8 DUP1 EXTCODESIZE ISZERO DUP1 ISZERO PUSH3 0x130D JUMPI PUSH0 DUP1 REVERT JUMPDEST POP GAS CALL ISZERO DUP1 ISZERO PUSH3 0x1320 JUMPI RETURNDATASIZE PUSH0 DUP1 RETURNDATACOPY RETURNDATASIZE PUSH0 REVERT JUMPDEST POP POP PUSH1 0xB SLOAD PUSH1 0x7 SLOAD PUSH1 0x8 SLOAD PUSH1 0x40 DUP1 MLOAD DUP1 DUP3 ADD SWAP1 SWAP2 MSTORE PUSH1 0x1E DUP2 MSTORE PUSH32 0x676C6F62616C62616C616E636561646428616464726573732C75696E74290000 PUSH1 0x20 DUP3 ADD MSTORE PUSH1 0x1 PUSH1 0x1 PUSH1 0xA0 SHL SUB SWAP4 DUP5 AND SWAP6 POP PUSH4 0xBFC019C6 SWAP5 POP SWAP2 DUP4 AND SWAP3 AND SWAP1 PUSH3 0x1384 SWAP1 PUSH3 0x210D JUMP JUMPDEST PUSH1 0x40 MLOAD DUP5 PUSH4 0xFFFFFFFF AND PUSH1 0xE0 SHL DUP2 MSTORE PUSH1 0x4 ADD PUSH3 0x13A4 SWAP4 SWAP3 SWAP2 SWAP1 PUSH3 0x2423 JUMP JUMPDEST PUSH0 PUSH1 0x40 MLOAD DUP1 DUP4 SUB DUP2 PUSH0 DUP8 DUP1 EXTCODESIZE ISZERO DUP1 ISZERO PUSH3 0x13BC JUMPI PUSH0 DUP1 REVERT JUMPDEST POP GAS CALL ISZERO DUP1 ISZERO PUSH3 0x13CF JUMPI RETURNDATASIZE PUSH0 DUP1 RETURNDATACOPY RETURNDATASIZE PUSH0 REVERT JUMPDEST POP POP PUSH1 0xB SLOAD PUSH1 0x7 SLOAD PUSH1 0x8 SLOAD PUSH1 0x40 DUP1 MLOAD DUP1 DUP3 ADD SWAP1 SWAP2 MSTORE PUSH1 0x1E DUP2 MSTORE PUSH32 0x676C6F62616C62616C616E636573756228616464726573732C75696E74290000 PUSH1 0x20 DUP3 ADD MSTORE PUSH1 0x1 PUSH1 0x1 PUSH1 0xA0 SHL SUB SWAP4 DUP5 AND SWAP6 POP PUSH4 0xBFC019C6 SWAP5 POP SWAP2 DUP4 AND SWAP3 AND SWAP1 PUSH3 0x1433 SWAP1 PUSH3 0x210D JUMP JUMPDEST PUSH1 0x40 MLOAD DUP5 PUSH4 0xFFFFFFFF AND PUSH1 0xE0 SHL DUP2 MSTORE PUSH1 0x4 ADD PUSH3 0x1453 SWAP4 SWAP3 SWAP2 SWAP1 PUSH3 0x2423 JUMP JUMPDEST PUSH0 PUSH1 0x40 MLOAD DUP1 DUP4 SUB DUP2 PUSH0 DUP8 DUP1 EXTCODESIZE ISZERO DUP1 ISZERO PUSH3 0x146B JUMPI PUSH0 DUP1 REVERT JUMPDEST POP GAS CALL ISZERO DUP1 ISZERO PUSH3 0x147E JUMPI RETURNDATASIZE PUSH0 DUP1 RETURNDATACOPY RETURNDATASIZE PUSH0 REVERT JUMPDEST POP POP PUSH1 0xB SLOAD PUSH1 0x7 SLOAD PUSH1 0x8 SLOAD PUSH1 0x40 DUP1 MLOAD DUP1 DUP3 ADD SWAP1 SWAP2 MSTORE PUSH1 0x1B DUP2 MSTORE PUSH32 0x676C6F62616C746F74616C6465706F7369746164642875696E74290000000000 PUSH1 0x20 DUP3 ADD MSTORE PUSH1 0x1 PUSH1 0x1 PUSH1 0xA0 SHL SUB SWAP4 DUP5 AND SWAP6 POP PUSH4 0xBFC019C6 SWAP5 POP SWAP2 DUP4 AND SWAP3 AND SWAP1 PUSH3 0x14E2 SWAP1 PUSH3 0x210D JUMP JUMPDEST PUSH1 0x40 MLOAD DUP5 PUSH4 0xFFFFFFFF AND PUSH1 0xE0 SHL DUP2 MSTORE PUSH1 0x4 ADD PUSH3 0x1502 SWAP4 SWAP3 SWAP2 SWAP1 PUSH3 0x2423 JUMP JUMPDEST PUSH0 PUSH1 0x40 MLOAD DUP1 DUP4 SUB DUP2 PUSH0 DUP8 DUP1 EXTCODESIZE ISZERO DUP1 ISZERO PUSH3 0x151A JUMPI PUSH0 DUP1 REVERT JUMPDEST POP GAS CALL ISZERO DUP1 ISZERO PUSH3 0x152D JUMPI RETURNDATASIZE PUSH0 DUP1 RETURNDATACOPY RETURNDATASIZE PUSH0 REVERT JUMPDEST POP POP PUSH1 0xB SLOAD PUSH1 0x7 SLOAD PUSH1 0x8 SLOAD PUSH1 0x40 DUP1 MLOAD DUP1 DUP3 ADD SWAP1 SWAP2 MSTORE PUSH1 0x1B DUP2 MSTORE PUSH32 0x676C6F62616C746F74616C6465706F7369747375622875696E74290000000000 PUSH1 0x20 DUP3 ADD MSTORE PUSH1 0x1 PUSH1 0x1 PUSH1 0xA0 SHL SUB SWAP4 DUP5 AND SWAP6 POP PUSH4 0xBFC019C6 SWAP5 POP SWAP2 DUP4 AND SWAP3 AND SWAP1 PUSH3 0x1591 SWAP1 PUSH3 0x210D JUMP JUMPDEST PUSH1 0x40 MLOAD DUP5 PUSH4 0xFFFFFFFF AND PUSH1 0xE0 SHL DUP2 MSTORE PUSH1 0x4 ADD PUSH3 0x15B1 SWAP4 SWAP3 SWAP2 SWAP1 PUSH3 0x2423 JUMP JUMPDEST PUSH0 PUSH1 0x40 MLOAD DUP1 DUP4 SUB DUP2 PUSH0 DUP8 DUP1 EXTCODESIZE ISZERO DUP1 ISZERO PUSH3 0x15C9 JUMPI PUSH0 DUP1 REVERT JUMPDEST POP GAS CALL ISZERO DUP1 ISZERO PUSH3 0x15DC JUMPI RETURNDATASIZE PUSH0 DUP1 RETURNDATACOPY RETURNDATASIZE PUSH0 REVERT JUMPDEST POP POP PUSH1 0xB SLOAD PUSH1 0x9 SLOAD PUSH1 0x5 SLOAD PUSH1 0x40 DUP1 MLOAD DUP1 DUP3 ADD SWAP1 SWAP2 MSTORE PUSH1 0x15 DUP2 MSTORE PUSH21 0x6D696E7428616464726573732C75696E7432353629 PUSH1 0x58 SHL PUSH1 0x20 DUP3 ADD MSTORE PUSH1 0x1 PUSH1 0x1 PUSH1 0xA0 SHL SUB SWAP4 DUP5 AND SWAP6 POP PUSH4 0xBFC019C6 SWAP5 POP SWAP2 DUP4 AND SWAP3 AND SWAP1 PUSH3 0x1638 SWAP1 PUSH3 0x210D JUMP JUMPDEST PUSH1 0x40 MLOAD DUP5 PUSH4 0xFFFFFFFF AND PUSH1 0xE0 SHL DUP2 MSTORE PUSH1 0x4 ADD PUSH3 0x1658 SWAP4 SWAP3 SWAP2 SWAP1 PUSH3 0x2423 JUMP JUMPDEST PUSH0 PUSH1 0x40 MLOAD DUP1 DUP4 SUB DUP2 PUSH0 DUP8 DUP1 EXTCODESIZE ISZERO DUP1 ISZERO PUSH3 0x1670 JUMPI PUSH0 DUP1 REVERT JUMPDEST POP GAS CALL ISZERO DUP1 ISZERO PUSH3 0x1683 JUMPI RETURNDATASIZE PUSH0 DUP1 RETURNDATACOPY RETURNDATASIZE PUSH0 REVERT JUMPDEST POP POP PUSH1 0xB SLOAD PUSH1 0x9 SLOAD PUSH1 0x5 SLOAD PUSH1 0x40 DUP1 MLOAD DUP1 DUP3 ADD SWAP1 SWAP2 MSTORE PUSH1 0x15 DUP2 MSTORE PUSH21 0x6275726E28616464726573732C75696E7432353629 PUSH1 0x58 SHL PUSH1 0x20 DUP3 ADD MSTORE PUSH1 0x1 PUSH1 0x1 PUSH1 0xA0 SHL SUB SWAP4 DUP5 AND SWAP6 POP PUSH4 0xBFC019C6 SWAP5 POP SWAP2 DUP4 AND SWAP3 AND SWAP1 PUSH3 0x16DF SWAP1 PUSH3 0x210D JUMP JUMPDEST PUSH1 0x40 MLOAD DUP5 PUSH4 0xFFFFFFFF AND PUSH1 0xE0 SHL DUP2 MSTORE PUSH1 0x4 ADD PUSH3 0x16FF SWAP4 SWAP3 SWAP2 SWAP1 PUSH3 0x2423 JUMP JUMPDEST PUSH0 PUSH1 0x40 MLOAD DUP1 DUP4 SUB DUP2 PUSH0 DUP8 DUP1 EXTCODESIZE ISZERO DUP1 ISZERO PUSH3 0x1717 JUMPI PUSH0 DUP1 REVERT JUMPDEST POP GAS CALL ISZERO DUP1 ISZERO PUSH3 0x172A JUMPI RETURNDATASIZE PUSH0 DUP1 RETURNDATACOPY RETURNDATASIZE PUSH0 REVERT JUMPDEST POP POP PUSH1 0xB SLOAD PUSH1 0x9 SLOAD PUSH1 0x4 SLOAD PUSH1 0x40 DUP1 MLOAD DUP1 DUP3 ADD SWAP1 SWAP2 MSTORE PUSH1 0x15 DUP2 MSTORE PUSH21 0x6D696E7428616464726573732C75696E7432353629 PUSH1 0x58 SHL PUSH1 0x20 DUP3 ADD MSTORE PUSH1 0x1 PUSH1 0x1 PUSH1 0xA0 SHL SUB SWAP4 DUP5 AND SWAP6 POP PUSH4 0xBFC019C6 SWAP5 POP SWAP2 DUP4 AND SWAP3 AND SWAP1 PUSH3 0x1786 SWAP1 PUSH3 0x210D JUMP JUMPDEST PUSH1 0x40 MLOAD DUP5 PUSH4 0xFFFFFFFF AND PUSH1 0xE0 SHL DUP2 MSTORE PUSH1 0x4 ADD PUSH3 0x17A6 SWAP4 SWAP3 SWAP2 SWAP1 PUSH3 0x2423 JUMP JUMPDEST PUSH0 PUSH1 0x40 MLOAD DUP1 DUP4 SUB DUP2 PUSH0 DUP8 DUP1 EXTCODESIZE ISZERO DUP1 ISZERO PUSH3 0x17BE JUMPI PUSH0 DUP1 REVERT JUMPDEST POP GAS CALL ISZERO DUP1 ISZERO PUSH3 0x17D1 JUMPI RETURNDATASIZE PUSH0 DUP1 RETURNDATACOPY RETURNDATASIZE PUSH0 REVERT JUMPDEST POP POP PUSH1 0xB SLOAD PUSH1 0x9 SLOAD PUSH1 0x4 SLOAD PUSH1 0x40 DUP1 MLOAD DUP1 DUP3 ADD SWAP1 SWAP2 MSTORE PUSH1 0x15 DUP2 MSTORE PUSH21 0x6275726E28616464726573732C75696E7432353629 PUSH1 0x58 SHL PUSH1 0x20 DUP3 ADD MSTORE PUSH1 0x1 PUSH1 0x1 PUSH1 0xA0 SHL SUB SWAP4 DUP5 AND SWAP6 POP PUSH4 0xBFC019C6 SWAP5 POP SWAP2 DUP4 AND SWAP3 AND SWAP1 PUSH3 0x182D SWAP1 PUSH3 0x210D JUMP JUMPDEST PUSH1 0x40 MLOAD DUP5 PUSH4 0xFFFFFFFF AND PUSH1 0xE0 SHL DUP2 MSTORE PUSH1 0x4 ADD PUSH3 0x184D SWAP4 SWAP3 SWAP2 SWAP1 PUSH3 0x2423 JUMP JUMPDEST PUSH0 PUSH1 0x40 MLOAD DUP1 DUP4 SUB DUP2 PUSH0 DUP8 DUP1 EXTCODESIZE ISZERO DUP1 ISZERO PUSH3 0x1865 JUMPI PUSH0 DUP1 REVERT JUMPDEST POP GAS CALL ISZERO DUP1 ISZERO PUSH3 0x1878 JUMPI RETURNDATASIZE PUSH0 DUP1 RETURNDATACOPY RETURNDATASIZE PUSH0 REVERT JUMPDEST POP POP PUSH1 0xB SLOAD PUSH1 0x8 SLOAD PUSH1 0x5 SLOAD PUSH1 0x40 DUP1 MLOAD DUP1 DUP3 ADD SWAP1 SWAP2 MSTORE PUSH1 0x15 DUP2 MSTORE PUSH21 0x6D696E7428616464726573732C75696E7432353629 PUSH1 0x58 SHL PUSH1 0x20 DUP3 ADD MSTORE PUSH1 0x1 PUSH1 0x1 PUSH1 0xA0 SHL SUB SWAP4 DUP5 AND SWAP6 POP PUSH4 0xBFC019C6 SWAP5 POP SWAP2 DUP4 AND SWAP3 AND SWAP1 PUSH3 0x18D4 SWAP1 PUSH3 0x210D JUMP JUMPDEST PUSH1 0x40 MLOAD DUP5 PUSH4 0xFFFFFFFF AND PUSH1 0xE0 SHL DUP2 MSTORE PUSH1 0x4 ADD PUSH3 0x18F4 SWAP4 SWAP3 SWAP2 SWAP1 PUSH3 0x2423 JUMP JUMPDEST PUSH0 PUSH1 0x40 MLOAD DUP1 DUP4 SUB DUP2 PUSH0 DUP8 DUP1 EXTCODESIZE ISZERO DUP1 ISZERO PUSH3 0x190C JUMPI PUSH0 DUP1 REVERT JUMPDEST POP GAS CALL ISZERO DUP1 ISZERO PUSH3 0x191F JUMPI RETURNDATASIZE PUSH0 DUP1 RETURNDATACOPY RETURNDATASIZE PUSH0 REVERT JUMPDEST POP POP PUSH1 0xB SLOAD PUSH1 0x8 SLOAD PUSH1 0x5 SLOAD PUSH1 0x40 DUP1 MLOAD DUP1 DUP3 ADD SWAP1 SWAP2 MSTORE PUSH1 0x15 DUP2 MSTORE PUSH21 0x6275726E28616464726573732C75696E7432353629 PUSH1 0x58 SHL PUSH1 0x20 DUP3 ADD MSTORE PUSH1 0x1 PUSH1 0x1 PUSH1 0xA0 SHL SUB SWAP4 DUP5 AND SWAP6 POP PUSH4 0xBFC019C6 SWAP5 POP SWAP2 DUP4 AND SWAP3 AND SWAP1 PUSH3 0x197B SWAP1 PUSH3 0x210D JUMP JUMPDEST PUSH1 0x40 MLOAD DUP5 PUSH4 0xFFFFFFFF AND PUSH1 0xE0 SHL DUP2 MSTORE PUSH1 0x4 ADD PUSH3 0x199B SWAP4 SWAP3 SWAP2 SWAP1 PUSH3 0x2423 JUMP JUMPDEST PUSH0 PUSH1 0x40 MLOAD DUP1 DUP4 SUB DUP2 PUSH0 DUP8 DUP1 EXTCODESIZE ISZERO DUP1 ISZERO PUSH3 0x19B3 JUMPI PUSH0 DUP1 REVERT JUMPDEST POP GAS CALL ISZERO DUP1 ISZERO PUSH3 0x19C6 JUMPI RETURNDATASIZE PUSH0 DUP1 RETURNDATACOPY RETURNDATASIZE PUSH0 REVERT JUMPDEST POP POP PUSH1 0xB SLOAD PUSH1 0x8 SLOAD PUSH1 0x4 SLOAD PUSH1 0x40 DUP1 MLOAD DUP1 DUP3 ADD SWAP1 SWAP2 MSTORE PUSH1 0x15 DUP2 MSTORE PUSH21 0x6D696E7428616464726573732C75696E7432353629 PUSH1 0x58 SHL PUSH1 0x20 DUP3 ADD MSTORE PUSH1 0x1 PUSH1 0x1 PUSH1 0xA0 SHL SUB SWAP4 DUP5 AND SWAP6 POP PUSH4 0xBFC019C6 SWAP5 POP SWAP2 DUP4 AND SWAP3 AND SWAP1 PUSH3 0x1A22 SWAP1 PUSH3 0x210D JUMP JUMPDEST PUSH1 0x40 MLOAD DUP5 PUSH4 0xFFFFFFFF AND PUSH1 0xE0 SHL DUP2 MSTORE PUSH1 0x4 ADD PUSH3 0x1A42 SWAP4 SWAP3 SWAP2 SWAP1 PUSH3 0x2423 JUMP JUMPDEST PUSH0 PUSH1 0x40 MLOAD DUP1 DUP4 SUB DUP2 PUSH0 DUP8 DUP1 EXTCODESIZE ISZERO DUP1 ISZERO PUSH3 0x1A5A JUMPI PUSH0 DUP1 REVERT JUMPDEST POP GAS CALL ISZERO DUP1 ISZERO PUSH3 0x1A6D JUMPI RETURNDATASIZE PUSH0 DUP1 RETURNDATACOPY RETURNDATASIZE PUSH0 REVERT JUMPDEST POP POP PUSH1 0xB SLOAD PUSH1 0x8 SLOAD PUSH1 0x4 SLOAD PUSH1 0x40 DUP1 MLOAD DUP1 DUP3 ADD SWAP1 SWAP2 MSTORE PUSH1 0x15 DUP2 MSTORE PUSH21 0x6275726E28616464726573732C75696E7432353629 PUSH1 0x58 SHL PUSH1 0x20 DUP3 ADD MSTORE PUSH1 0x1 PUSH1 0x1 PUSH1 0xA0 SHL SUB SWAP4 DUP5 AND SWAP6 POP PUSH4 0xBFC019C6 SWAP5 POP SWAP2 DUP4 AND SWAP3 AND SWAP1 PUSH3 0x1AC9 SWAP1 PUSH3 0x210D JUMP JUMPDEST PUSH1 0x40 MLOAD DUP5 PUSH4 0xFFFFFFFF AND PUSH1 0xE0 SHL DUP2 MSTORE PUSH1 0x4 ADD PUSH3 0x1AE9 SWAP4 SWAP3 SWAP2 SWAP1 PUSH3 0x2423 JUMP JUMPDEST PUSH0 PUSH1 0x40 MLOAD DUP1 DUP4 SUB DUP2 PUSH0 DUP8 DUP1 EXTCODESIZE ISZERO DUP1 ISZERO PUSH3 0x1B01 JUMPI PUSH0 DUP1 REVERT JUMPDEST POP GAS CALL ISZERO DUP1 ISZERO PUSH3 0x1B14 JUMPI RETURNDATASIZE PUSH0 DUP1 RETURNDATACOPY RETURNDATASIZE PUSH0 REVERT JUMPDEST POP POP PUSH1 0xB SLOAD PUSH1 0x1 SLOAD PUSH1 0x40 MLOAD PUSH4 0x13AF4035 PUSH1 0xE0 SHL DUP2 MSTORE PUSH1 0x1 PUSH1 0x1 PUSH1 0xA0 SHL SUB SWAP2 DUP3 AND PUSH1 0x4 DUP3 ADD MSTORE SWAP2 AND SWAP3 POP PUSH4 0x13AF4035 SWAP2 POP PUSH1 0x24 ADD PUSH3 0xAAB JUMP JUMPDEST PUSH0 PUSH3 0x1B65 CALLER PUSH0 CALLDATALOAD PUSH1 0x1 PUSH1 0x1 PUSH1 0xE0 SHL SUB NOT AND PUSH3 0x1F6A JUMP JUMPDEST PUSH3 0x1B84 JUMPI PUSH1 0x40 MLOAD PUSH3 0x461BCD PUSH1 0xE5 SHL DUP2 MSTORE PUSH1 0x4 ADD PUSH3 0x439 SWAP1 PUSH3 0x23CF JUMP JUMPDEST DUP5 DUP5 DUP5 DUP5 PUSH1 0x40 MLOAD PUSH3 0x1B96 SWAP1 PUSH3 0x215A JUMP JUMPDEST PUSH1 0x1 PUSH1 0x1 PUSH1 0xA0 SHL SUB SWAP5 DUP6 AND DUP2 MSTORE SWAP3 DUP5 AND PUSH1 0x20 DUP5 ADD MSTORE SWAP1 DUP4 AND PUSH1 0x40 DUP4 ADD MSTORE SWAP1 SWAP2 AND PUSH1 0x60 DUP3 ADD MSTORE PUSH1 0x80 ADD PUSH1 0x40 MLOAD DUP1 SWAP2 SUB SWAP1 PUSH0 CREATE DUP1 ISZERO DUP1 ISZERO PUSH3 0x1BD8 JUMPI RETURNDATASIZE PUSH0 DUP1 RETURNDATACOPY RETURNDATASIZE PUSH0 REVERT JUMPDEST POP PUSH1 0x1 SLOAD PUSH1 0x40 MLOAD PUSH4 0x13AF4035 PUSH1 0xE0 SHL DUP2 MSTORE PUSH1 0x1 PUSH1 0x1 PUSH1 0xA0 SHL SUB SWAP2 DUP3 AND PUSH1 0x4 DUP3 ADD MSTORE SWAP2 SWAP3 POP DUP3 AND SWAP1 PUSH4 0x13AF4035 SWAP1 PUSH1 0x24 ADD PUSH0 PUSH1 0x40 MLOAD DUP1 DUP4 SUB DUP2 PUSH0 DUP8 DUP1 EXTCODESIZE ISZERO DUP1 ISZERO PUSH3 0x1C20 JUMPI PUSH0 DUP1 REVERT JUMPDEST POP GAS CALL ISZERO DUP1 ISZERO PUSH3 0x1C33 JUMPI RETURNDATASIZE PUSH0 DUP1 RETURNDATACOPY RETURNDATASIZE PUSH0 REVERT JUMPDEST POP POP POP POP SWAP5 SWAP4 POP POP POP POP JUMP JUMPDEST PUSH0 PUSH3 0x1C57 CALLER PUSH0 CALLDATALOAD PUSH1 0x1 PUSH1 0x1 PUSH1 0xE0 SHL SUB NOT AND PUSH3 0x1F6A JUMP JUMPDEST PUSH3 0x1C76 JUMPI PUSH1 0x40 MLOAD PUSH3 0x461BCD PUSH1 0xE5 SHL DUP2 MSTORE PUSH1 0x4 ADD PUSH3 0x439 SWAP1 PUSH3 0x23CF JUMP JUMPDEST DUP4 DUP4 DUP4 PUSH1 0x40 MLOAD PUSH3 0x1C87 SWAP1 PUSH3 0x2168 JUMP JUMPDEST PUSH1 0x1 PUSH1 0x1 PUSH1 0xA0 SHL SUB SWAP4 DUP5 AND DUP2 MSTORE SWAP2 DUP4 AND PUSH1 0x20 DUP4 ADD MSTORE SWAP1 SWAP2 AND PUSH1 0x40 DUP3 ADD MSTORE PUSH1 0x60 ADD PUSH1 0x40 MLOAD DUP1 SWAP2 SUB SWAP1 PUSH0 CREATE DUP1 ISZERO DUP1 ISZERO PUSH3 0x1CC1 JUMPI RETURNDATASIZE PUSH0 DUP1 RETURNDATACOPY RETURNDATASIZE PUSH0 REVERT JUMPDEST POP PUSH1 0x1 SLOAD PUSH1 0x40 MLOAD PUSH4 0x13AF4035 PUSH1 0xE0 SHL DUP2 MSTORE PUSH1 0x1 PUSH1 0x1 PUSH1 0xA0 SHL SUB SWAP2 DUP3 AND PUSH1 0x4 DUP3 ADD MSTORE SWAP2 SWAP3 POP DUP3 AND SWAP1 PUSH4 0x13AF4035 SWAP1 PUSH1 0x24 ADD PUSH0 PUSH1 0x40 MLOAD DUP1 DUP4 SUB DUP2 PUSH0 DUP8 DUP1 EXTCODESIZE ISZERO DUP1 ISZERO PUSH3 0x1D09 JUMPI PUSH0 DUP1 REVERT JUMPDEST POP GAS CALL ISZERO DUP1 ISZERO PUSH3 0x1D1C JUMPI RETURNDATASIZE PUSH0 DUP1 RETURNDATACOPY RETURNDATASIZE PUSH0 REVERT JUMPDEST POP POP POP POP SWAP4 SWAP3 POP POP POP JUMP JUMPDEST PUSH3 0x1D3E CALLER PUSH0 CALLDATALOAD PUSH1 0x1 PUSH1 0x1 PUSH1 0xE0 SHL SUB NOT AND PUSH3 0x1F6A JUMP JUMPDEST PUSH3 0x1D5D JUMPI PUSH1 0x40 MLOAD PUSH3 0x461BCD PUSH1 0xE5 SHL DUP2 MSTORE PUSH1 0x4 ADD PUSH3 0x439 SWAP1 PUSH3 0x23CF JUMP JUMPDEST PUSH1 0xB SLOAD PUSH1 0x1 PUSH1 0xA0 SHL SWAP1 DIV PUSH1 0xFF AND ISZERO PUSH3 0x1D74 JUMPI PUSH0 DUP1 REVERT JUMPDEST PUSH3 0x1D9A PUSH1 0x40 MLOAD DUP1 PUSH1 0x40 ADD PUSH1 0x40 MSTORE DUP1 PUSH1 0x3 DUP2 MSTORE PUSH1 0x20 ADD PUSH3 0x42434B PUSH1 0xE8 SHL DUP2 MSTORE POP PUSH3 0x203D JUMP JUMPDEST PUSH1 0x2 DUP1 SLOAD PUSH1 0x1 PUSH1 0x1 PUSH1 0xA0 SHL SUB NOT AND PUSH1 0x1 PUSH1 0x1 PUSH1 0xA0 SHL SUB SWAP3 SWAP1 SWAP3 AND SWAP2 SWAP1 SWAP2 OR SWAP1 SSTORE PUSH1 0x40 DUP1 MLOAD DUP1 DUP3 ADD SWAP1 SWAP2 MSTORE PUSH1 0x4 DUP2 MSTORE PUSH4 0x195554D1 PUSH1 0xE2 SHL PUSH1 0x20 DUP3 ADD MSTORE PUSH3 0x1DE0 SWAP1 PUSH3 0x203D JUMP JUMPDEST PUSH1 0x3 DUP1 SLOAD PUSH1 0x1 PUSH1 0x1 PUSH1 0xA0 SHL SUB NOT AND PUSH1 0x1 PUSH1 0x1 PUSH1 0xA0 SHL SUB SWAP3 SWAP1 SWAP3 AND SWAP2 SWAP1 SWAP2 OR SWAP1 SSTORE PUSH1 0x40 DUP1 MLOAD DUP1 DUP3 ADD SWAP1 SWAP2 MSTORE PUSH1 0x8 DUP2 MSTORE PUSH8 0x32B9A121A5A3A7AB PUSH1 0xC1 SHL PUSH1 0x20 DUP3 ADD MSTORE PUSH3 0x1E2A SWAP1 PUSH3 0x203D JUMP JUMPDEST PUSH1 0x4 DUP1 SLOAD PUSH1 0x1 PUSH1 0x1 PUSH1 0xA0 SHL SUB NOT AND PUSH1 0x1 PUSH1 0x1 PUSH1 0xA0 SHL SUB SWAP3 SWAP1 SWAP3 AND SWAP2 SWAP1 SWAP2 OR SWAP1 SSTORE PUSH1 0x40 DUP1 MLOAD DUP1 DUP3 ADD SWAP1 SWAP2 MSTORE PUSH1 0x6 DUP2 MSTORE PUSH6 0x2121A5A3A7AB PUSH1 0xD1 SHL PUSH1 0x20 DUP3 ADD MSTORE PUSH3 0x1E72 SWAP1 PUSH3 0x203D JUMP JUMPDEST PUSH1 0x5 DUP1 SLOAD PUSH1 0x1 PUSH1 0x1 PUSH1 0xA0 SHL SUB NOT AND PUSH1 0x1 PUSH1 0x1 PUSH1 0xA0 SHL SUB SWAP3 SWAP1 SWAP3 AND SWAP2 SWAP1 SWAP2 OR SWAP1 SSTORE PUSH3 0x1E9C PUSH3 0x1F25 JUMP JUMPDEST PUSH1 0x6 DUP1 SLOAD PUSH1 0x1 PUSH1 0x1 PUSH1 0xA0 SHL SUB NOT AND PUSH1 0x1 PUSH1 0x1 PUSH1 0xA0 SHL SUB SWAP3 SWAP1 SWAP3 AND SWAP2 SWAP1 SWAP2 OR SWAP1 SSTORE PUSH1 0xB DUP1 SLOAD PUSH1 0x1 SWAP2 SWAP1 PUSH1 0x14 SWAP1 PUSH3 0x70F SWAP1 DUP5 SWAP1 PUSH1 0x1 PUSH1 0xA0 SHL SWAP1 DIV PUSH1 0xFF AND PUSH3 0x23FD JUMP JUMPDEST PUSH0 PUSH3 0x1EF6 CALLER PUSH0 CALLDATALOAD PUSH1 0x1 PUSH1 0x1 PUSH1 0xE0 SHL SUB NOT AND PUSH3 0x1F6A JUMP JUMPDEST PUSH3 0x1F15 JUMPI PUSH1 0x40 MLOAD PUSH3 0x461BCD PUSH1 0xE5 SHL DUP2 MSTORE PUSH1 0x4 ADD PUSH3 0x439 SWAP1 PUSH3 0x23CF JUMP JUMPDEST DUP3 DUP3 PUSH1 0x40 MLOAD PUSH3 0x4D2 SWAP1 PUSH3 0x2176 JUMP JUMPDEST PUSH0 PUSH3 0x1F3D CALLER PUSH0 CALLDATALOAD PUSH1 0x1 PUSH1 0x1 PUSH1 0xE0 SHL SUB NOT AND PUSH3 0x1F6A JUMP JUMPDEST PUSH3 0x1F5C JUMPI PUSH1 0x40 MLOAD PUSH3 0x461BCD PUSH1 0xE5 SHL DUP2 MSTORE PUSH1 0x4 ADD PUSH3 0x439 SWAP1 PUSH3 0x23CF JUMP JUMPDEST PUSH1 0x40 MLOAD PUSH3 0x76E SWAP1 PUSH3 0x2184 JUMP JUMPDEST PUSH0 ADDRESS PUSH1 0x1 PUSH1 0x1 PUSH1 0xA0 SHL SUB DUP5 AND SUB PUSH3 0x1F85 JUMPI POP PUSH1 0x1 PUSH3 0x2037 JUMP JUMPDEST PUSH1 0x1 SLOAD PUSH1 0x1 PUSH1 0x1 PUSH1 0xA0 SHL SUB SWAP1 DUP2 AND SWAP1 DUP5 AND SUB PUSH3 0x1FA5 JUMPI POP PUSH1 0x1 PUSH3 0x2037 JUMP JUMPDEST PUSH0 SLOAD PUSH1 0x1 PUSH1 0x1 PUSH1 0xA0 SHL SUB AND PUSH3 0x1FBD JUMPI POP PUSH0 PUSH3 0x2037 JUMP JUMPDEST PUSH0 SLOAD PUSH1 0x40 MLOAD PUSH4 0xB7009613 PUSH1 0xE0 SHL DUP2 MSTORE PUSH1 0x1 PUSH1 0x1 PUSH1 0xA0 SHL SUB SWAP1 SWAP2 AND SWAP1 PUSH4 0xB7009613 SWAP1 PUSH3 0x1FF2 SWAP1 DUP7 SWAP1 ADDRESS SWAP1 DUP8 SWAP1 PUSH1 0x4 ADD PUSH3 0x2423 JUMP JUMPDEST PUSH1 0x20 PUSH1 0x40 MLOAD DUP1 DUP4 SUB DUP2 DUP7 GAS STATICCALL ISZERO DUP1 ISZERO PUSH3 0x200E JUMPI RETURNDATASIZE PUSH0 DUP1 RETURNDATACOPY RETURNDATASIZE PUSH0 REVERT JUMPDEST POP POP POP POP PUSH1 0x40 MLOAD RETURNDATASIZE PUSH1 0x1F NOT PUSH1 0x1F DUP3 ADD AND DUP3 ADD DUP1 PUSH1 0x40 MSTORE POP DUP2 ADD SWAP1 PUSH3 0x2034 SWAP2 SWAP1 PUSH3 0x2450 JUMP JUMPDEST SWAP1 POP JUMPDEST SWAP3 SWAP2 POP POP JUMP JUMPDEST PUSH0 PUSH3 0x2055 CALLER PUSH0 CALLDATALOAD PUSH1 0x1 PUSH1 0x1 PUSH1 0xE0 SHL SUB NOT AND PUSH3 0x1F6A JUMP JUMPDEST PUSH3 0x2074 JUMPI PUSH1 0x40 MLOAD PUSH3 0x461BCD PUSH1 0xE5 SHL DUP2 MSTORE PUSH1 0x4 ADD PUSH3 0x439 SWAP1 PUSH3 0x23CF JUMP JUMPDEST DUP2 PUSH1 0x40 MLOAD PUSH3 0x2083 SWAP1 PUSH3 0x2192 JUMP JUMPDEST PUSH3 0x208F SWAP2 SWAP1 PUSH3 0x2495 JUMP JUMPDEST PUSH1 0x40 MLOAD DUP1 SWAP2 SUB SWAP1 PUSH0 CREATE DUP1 ISZERO DUP1 ISZERO PUSH3 0x20A9 JUMPI RETURNDATASIZE PUSH0 DUP1 RETURNDATACOPY RETURNDATASIZE PUSH0 REVERT JUMPDEST POP PUSH1 0x1 SLOAD PUSH1 0x40 MLOAD PUSH4 0x13AF4035 PUSH1 0xE0 SHL DUP2 MSTORE PUSH1 0x1 PUSH1 0x1 PUSH1 0xA0 SHL SUB SWAP2 DUP3 AND PUSH1 0x4 DUP3 ADD MSTORE SWAP2 SWAP3 POP DUP3 AND SWAP1 PUSH4 0x13AF4035 SWAP1 PUSH1 0x24 ADD PUSH0 PUSH1 0x40 MLOAD DUP1 DUP4 SUB DUP2 PUSH0 DUP8 DUP1 EXTCODESIZE ISZERO DUP1 ISZERO PUSH3 0x20F1 JUMPI PUSH0 DUP1 REVERT JUMPDEST POP GAS CALL ISZERO DUP1 ISZERO PUSH3 0x2104 JUMPI RETURNDATASIZE PUSH0 DUP1 RETURNDATACOPY RETURNDATASIZE PUSH0 REVERT JUMPDEST POP POP POP POP SWAP2 SWAP1 POP JUMP JUMPDEST PUSH0 DUP2 PUSH1 0x40 MLOAD PUSH1 0x20 ADD PUSH3 0x2121 SWAP2 SWAP1 PUSH3 0x24C9 JUMP JUMPDEST PUSH1 0x40 MLOAD PUSH1 0x20 DUP2 DUP4 SUB SUB DUP2 MSTORE SWAP1 PUSH1 0x40 MSTORE DUP1 MLOAD SWAP1 PUSH1 0x20 ADD KECCAK256 SWAP1 POP SWAP2 SWAP1 POP JUMP JUMPDEST PUSH2 0x16F4 DUP1 PUSH3 0x24E7 DUP4 CODECOPY ADD SWAP1 JUMP JUMPDEST PUSH2 0xB2C DUP1 PUSH3 0x3BDB DUP4 CODECOPY ADD SWAP1 JUMP JUMPDEST PUSH2 0x1B1A DUP1 PUSH3 0x4707 DUP4 CODECOPY ADD SWAP1 JUMP JUMPDEST PUSH2 0x10E9 DUP1 PUSH3 0x6221 DUP4 CODECOPY ADD SWAP1 JUMP JUMPDEST PUSH2 0xD5D DUP1 PUSH3 0x730A DUP4 CODECOPY ADD SWAP1 JUMP JUMPDEST PUSH2 0x8FF DUP1 PUSH3 0x8067 DUP4 CODECOPY ADD SWAP1 JUMP JUMPDEST PUSH2 0x1455 DUP1 PUSH3 0x8966 DUP4 CODECOPY ADD SWAP1 JUMP JUMPDEST PUSH1 0x1 PUSH1 0x1 PUSH1 0xA0 SHL SUB DUP2 AND DUP2 EQ PUSH3 0x21B5 JUMPI PUSH0 DUP1 REVERT JUMPDEST POP JUMP JUMPDEST PUSH0 PUSH1 0x20 DUP3 DUP5 SUB SLT ISZERO PUSH3 0x21C9 JUMPI PUSH0 DUP1 REVERT JUMPDEST DUP2 CALLDATALOAD PUSH3 0x21D6 DUP2 PUSH3 0x21A0 JUMP JUMPDEST SWAP4 SWAP3 POP POP POP JUMP JUMPDEST PUSH0 DUP1 PUSH1 0x40 DUP4 DUP6 SUB SLT ISZERO PUSH3 0x21EF JUMPI PUSH0 DUP1 REVERT JUMPDEST DUP3 CALLDATALOAD PUSH3 0x21FC DUP2 PUSH3 0x21A0 JUMP JUMPDEST SWAP2 POP PUSH1 0x20 DUP4 ADD CALLDATALOAD PUSH3 0x220E DUP2 PUSH3 0x21A0 JUMP JUMPDEST DUP1 SWAP2 POP POP SWAP3 POP SWAP3 SWAP1 POP JUMP JUMPDEST PUSH0 DUP1 PUSH0 DUP1 PUSH1 0x80 DUP6 DUP8 SUB SLT ISZERO PUSH3 0x222D JUMPI PUSH0 DUP1 REVERT JUMPDEST DUP5 CALLDATALOAD PUSH3 0x223A DUP2 PUSH3 0x21A0 JUMP JUMPDEST SWAP4 POP PUSH1 0x20 DUP6 ADD CALLDATALOAD PUSH3 0x224C DUP2 PUSH3 0x21A0 JUMP JUMPDEST SWAP3 POP PUSH1 0x40 DUP6 ADD CALLDATALOAD PUSH3 0x225E DUP2 PUSH3 0x21A0 JUMP JUMPDEST SWAP2 POP PUSH1 0x60 DUP6 ADD CALLDATALOAD PUSH3 0x2270 DUP2 PUSH3 0x21A0 JUMP JUMPDEST SWAP4 SWAP7 SWAP3 SWAP6 POP SWAP1 SWAP4 POP POP JUMP JUMPDEST PUSH0 DUP1 PUSH0 PUSH1 0x60 DUP5 DUP7 SUB SLT ISZERO PUSH3 0x228E JUMPI PUSH0 DUP1 REVERT JUMPDEST DUP4 CALLDATALOAD PUSH3 0x229B DUP2 PUSH3 0x21A0 JUMP JUMPDEST SWAP3 POP PUSH1 0x20 DUP5 ADD CALLDATALOAD PUSH3 0x22AD DUP2 PUSH3 0x21A0 JUMP JUMPDEST SWAP2 POP PUSH1 0x40 DUP5 ADD CALLDATALOAD PUSH3 0x22BF DUP2 PUSH3 0x21A0 JUMP JUMPDEST DUP1 SWAP2 POP POP SWAP3 POP SWAP3 POP SWAP3 JUMP JUMPDEST PUSH0 DUP1 PUSH1 0x40 DUP4 DUP6 SUB SLT ISZERO PUSH3 0x22DC JUMPI PUSH0 DUP1 REVERT JUMPDEST DUP3 CALLDATALOAD PUSH3 0x22E9 DUP2 PUSH3 0x21A0 JUMP JUMPDEST SWAP2 POP PUSH1 0x20 DUP4 ADD CALLDATALOAD PUSH1 0x1 PUSH1 0x1 PUSH1 0xE0 SHL SUB NOT DUP2 AND DUP2 EQ PUSH3 0x220E JUMPI PUSH0 DUP1 REVERT JUMPDEST PUSH4 0x4E487B71 PUSH1 0xE0 SHL PUSH0 MSTORE PUSH1 0x41 PUSH1 0x4 MSTORE PUSH1 0x24 PUSH0 REVERT JUMPDEST PUSH0 PUSH1 0x20 DUP3 DUP5 SUB SLT ISZERO PUSH3 0x232B JUMPI PUSH0 DUP1 REVERT JUMPDEST DUP2 CALLDATALOAD PUSH8 0xFFFFFFFFFFFFFFFF DUP1 DUP3 GT ISZERO PUSH3 0x2343 JUMPI PUSH0 DUP1 REVERT JUMPDEST DUP2 DUP5 ADD SWAP2 POP DUP5 PUSH1 0x1F DUP4 ADD SLT PUSH3 0x2357 JUMPI PUSH0 DUP1 REVERT JUMPDEST DUP2 CALLDATALOAD DUP2 DUP2 GT ISZERO PUSH3 0x236C JUMPI PUSH3 0x236C PUSH3 0x2306 JUMP JUMPDEST PUSH1 0x40 MLOAD PUSH1 0x1F DUP3 ADD PUSH1 0x1F NOT SWAP1 DUP2 AND PUSH1 0x3F ADD AND DUP2 ADD SWAP1 DUP4 DUP3 GT DUP2 DUP4 LT OR ISZERO PUSH3 0x2397 JUMPI PUSH3 0x2397 PUSH3 0x2306 JUMP JUMPDEST DUP2 PUSH1 0x40 MSTORE DUP3 DUP2 MSTORE DUP8 PUSH1 0x20 DUP5 DUP8 ADD ADD GT ISZERO PUSH3 0x23B0 JUMPI PUSH0 DUP1 REVERT JUMPDEST DUP3 PUSH1 0x20 DUP7 ADD PUSH1 0x20 DUP4 ADD CALLDATACOPY PUSH0 SWAP3 DUP2 ADD PUSH1 0x20 ADD SWAP3 SWAP1 SWAP3 MSTORE POP SWAP6 SWAP5 POP POP POP POP POP JUMP JUMPDEST PUSH1 0x20 DUP1 DUP3 MSTORE PUSH1 0x14 SWAP1 DUP3 ADD MSTORE PUSH20 0x191CCB585D5D1A0B5D5B985D5D1A1BDC9A5E9959 PUSH1 0x62 SHL PUSH1 0x40 DUP3 ADD MSTORE PUSH1 0x60 ADD SWAP1 JUMP JUMPDEST PUSH1 0xFF DUP2 DUP2 AND DUP4 DUP3 AND ADD SWAP1 DUP2 GT ISZERO PUSH3 0x2037 JUMPI PUSH4 0x4E487B71 PUSH1 0xE0 SHL PUSH0 MSTORE PUSH1 0x11 PUSH1 0x4 MSTORE PUSH1 0x24 PUSH0 REVERT JUMPDEST PUSH1 0x1 PUSH1 0x1 PUSH1 0xA0 SHL SUB SWAP4 DUP5 AND DUP2 MSTORE SWAP2 SWAP1 SWAP3 AND PUSH1 0x20 DUP3 ADD MSTORE PUSH1 0x1 PUSH1 0x1 PUSH1 0xE0 SHL SUB NOT SWAP1 SWAP2 AND PUSH1 0x40 DUP3 ADD MSTORE PUSH1 0x60 ADD SWAP1 JUMP JUMPDEST PUSH0 PUSH1 0x20 DUP3 DUP5 SUB SLT ISZERO PUSH3 0x2461 JUMPI PUSH0 DUP1 REVERT JUMPDEST DUP2 MLOAD DUP1 ISZERO ISZERO DUP2 EQ PUSH3 0x21D6 JUMPI PUSH0 DUP1 REVERT JUMPDEST PUSH0 JUMPDEST DUP4 DUP2 LT ISZERO PUSH3 0x248D JUMPI DUP2 DUP2 ADD MLOAD DUP4 DUP3 ADD MSTORE PUSH1 0x20 ADD PUSH3 0x2473 JUMP JUMPDEST POP POP PUSH0 SWAP2 ADD MSTORE JUMP JUMPDEST PUSH1 0x20 DUP2 MSTORE PUSH0 DUP3 MLOAD DUP1 PUSH1 0x20 DUP5 ADD MSTORE PUSH3 0x24B5 DUP2 PUSH1 0x40 DUP6 ADD PUSH1 0x20 DUP8 ADD PUSH3 0x2471 JUMP JUMPDEST PUSH1 0x1F ADD PUSH1 0x1F NOT AND SWAP2 SWAP1 SWAP2 ADD PUSH1 0x40 ADD SWAP3 SWAP2 POP POP JUMP JUMPDEST PUSH0 DUP3 MLOAD PUSH3 0x24DC DUP2 DUP5 PUSH1 0x20 DUP8 ADD PUSH3 0x2471 JUMP JUMPDEST SWAP2 SWAP1 SWAP2 ADD SWAP3 SWAP2 POP POP JUMP INVALID PUSH1 0x80 PUSH1 0x40 MSTORE CALLVALUE DUP1 ISZERO PUSH2 0xF JUMPI PUSH0 DUP1 REVERT JUMPDEST POP PUSH1 0x40 MLOAD PUSH3 0x16F4 CODESIZE SUB DUP1 PUSH3 0x16F4 DUP4 CODECOPY DUP2 ADD PUSH1 0x40 DUP2 SWAP1 MSTORE PUSH2 0x30 SWAP2 PUSH2 0xC9 JUMP JUMPDEST PUSH1 0x1 DUP1 SLOAD PUSH1 0x1 PUSH1 0x1 PUSH1 0xA0 SHL SUB NOT AND CALLER SWAP1 DUP2 OR SWAP1 SWAP2 SSTORE PUSH1 0x40 MLOAD PUSH32 0xCE241D7CA1F669FEE44B6FC00B8EBA2DF3BB514EED0F6F668F8F89096E81ED94 SWAP1 PUSH0 SWAP1 LOG2 PUSH1 0x3 DUP1 SLOAD PUSH1 0x1 PUSH1 0x1 PUSH1 0xA0 SHL SUB SWAP4 DUP5 AND PUSH1 0x1 PUSH1 0x1 PUSH1 0xA0 SHL SUB NOT SWAP2 DUP3 AND OR SWAP1 SWAP2 SSTORE PUSH1 0x4 DUP1 SLOAD SWAP3 SWAP1 SWAP4 AND SWAP2 DUP2 AND SWAP2 SWAP1 SWAP2 OR SWAP1 SWAP2 SSTORE PUSH1 0x1 DUP1 SLOAD SWAP1 SWAP2 AND CALLER OR SWAP1 SSTORE PUSH2 0xFA JUMP JUMPDEST DUP1 MLOAD PUSH1 0x1 PUSH1 0x1 PUSH1 0xA0 SHL SUB DUP2 AND DUP2 EQ PUSH2 0xC4 JUMPI PUSH0 DUP1 REVERT JUMPDEST SWAP2 SWAP1 POP JUMP JUMPDEST PUSH0 DUP1 PUSH1 0x40 DUP4 DUP6 SUB SLT ISZERO PUSH2 0xDA JUMPI PUSH0 DUP1 REVERT JUMPDEST PUSH2 0xE3 DUP4 PUSH2 0xAE JUMP JUMPDEST SWAP2 POP PUSH2 0xF1 PUSH1 0x20 DUP5 ADD PUSH2 0xAE JUMP JUMPDEST SWAP1 POP SWAP3 POP SWAP3 SWAP1 POP JUMP JUMPDEST PUSH2 0x15EC DUP1 PUSH3 0x108 PUSH0 CODECOPY PUSH0 RETURN INVALID PUSH1 0x80 PUSH1 0x40 MSTORE CALLVALUE DUP1 ISZERO PUSH2 0xF JUMPI PUSH0 DUP1 REVERT JUMPDEST POP PUSH1 0x4 CALLDATASIZE LT PUSH2 0x1D0 JUMPI PUSH0 CALLDATALOAD PUSH1 0xE0 SHR DUP1 PUSH4 0x7D882097 GT PUSH2 0xFE JUMPI DUP1 PUSH4 0xA05F9906 GT PUSH2 0x9E JUMPI DUP1 PUSH4 0xBF7E214F GT PUSH2 0x6E JUMPI DUP1 PUSH4 0xBF7E214F EQ PUSH2 0x417 JUMPI DUP1 PUSH4 0xC44EC8B5 EQ PUSH2 0x429 JUMPI DUP1 PUSH4 0xD9972B96 EQ PUSH2 0x43C JUMPI DUP1 PUSH4 0xEEA3FCB4 EQ PUSH2 0x44F JUMPI PUSH0 DUP1 REVERT JUMPDEST DUP1 PUSH4 0xA05F9906 EQ PUSH2 0x3D3 JUMPI DUP1 PUSH4 0xA1EF92EB EQ PUSH2 0x3E6 JUMPI DUP1 PUSH4 0xB28E6020 EQ PUSH2 0x405 JUMPI DUP1 PUSH4 0xB7C9C3C1 EQ PUSH2 0x40E JUMPI PUSH0 DUP1 REVERT JUMPDEST DUP1 PUSH4 0x912D2183 GT PUSH2 0xD9 JUMPI DUP1 PUSH4 0x912D2183 EQ PUSH2 0x387 JUMPI DUP1 PUSH4 0x9778DD2B EQ PUSH2 0x39A JUMPI DUP1 PUSH4 0x9DDF0293 EQ PUSH2 0x3AD JUMPI DUP1 PUSH4 0x9E35BE08 EQ PUSH2 0x3C0 JUMPI PUSH0 DUP1 REVERT JUMPDEST DUP1 PUSH4 0x7D882097 EQ PUSH2 0x358 JUMPI DUP1 PUSH4 0x8DA5CB5B EQ PUSH2 0x361 JUMPI DUP1 PUSH4 0x8E4D4F69 EQ PUSH2 0x374 JUMPI PUSH0 DUP1 REVERT JUMPDEST DUP1 PUSH4 0x27E235E3 GT PUSH2 0x174 JUMPI DUP1 PUSH4 0x69517310 GT PUSH2 0x144 JUMPI DUP1 PUSH4 0x69517310 EQ PUSH2 0x2EF JUMPI DUP1 PUSH4 0x6E8ABFB7 EQ PUSH2 0x31F JUMPI DUP1 PUSH4 0x7A9E5E4B EQ PUSH2 0x332 JUMPI DUP1 PUSH4 0x7B733726 EQ PUSH2 0x345 JUMPI PUSH0 DUP1 REVERT JUMPDEST DUP1 PUSH4 0x27E235E3 EQ PUSH2 0x27B JUMPI DUP1 PUSH4 0x284E4B96 EQ PUSH2 0x29A JUMPI DUP1 PUSH4 0x5B8C25CD EQ PUSH2 0x2BD JUMPI DUP1 PUSH4 0x65791B96 EQ PUSH2 0x2D0 JUMPI PUSH0 DUP1 REVERT JUMPDEST DUP1 PUSH4 0xF90C97B GT PUSH2 0x1AF JUMPI DUP1 PUSH4 0xF90C97B EQ PUSH2 0x221 JUMPI DUP1 PUSH4 0x136100F4 EQ PUSH2 0x242 JUMPI DUP1 PUSH4 0x13AF4035 EQ PUSH2 0x255 JUMPI DUP1 PUSH4 0x17A2ADA8 EQ PUSH2 0x268 JUMPI PUSH0 DUP1 REVERT JUMPDEST DUP1 PUSH3 0x63750C EQ PUSH2 0x1D4 JUMPI DUP1 PUSH4 0xB4ED52D EQ PUSH2 0x1DE JUMPI DUP1 PUSH4 0xCA94F70 EQ PUSH2 0x1F1 JUMPI JUMPDEST PUSH0 DUP1 REVERT JUMPDEST PUSH2 0x1DC PUSH2 0x458 JUMP JUMPDEST STOP JUMPDEST PUSH2 0x1DC PUSH2 0x1EC CALLDATASIZE PUSH1 0x4 PUSH2 0x13B4 JUMP JUMPDEST PUSH2 0x53E JUMP JUMPDEST PUSH1 0x2 SLOAD PUSH2 0x204 SWAP1 PUSH1 0x1 PUSH1 0x1 PUSH1 0xA0 SHL SUB AND DUP2 JUMP JUMPDEST PUSH1 0x40 MLOAD PUSH1 0x1 PUSH1 0x1 PUSH1 0xA0 SHL SUB SWAP1 SWAP2 AND DUP2 MSTORE PUSH1 0x20 ADD JUMPDEST PUSH1 0x40 MLOAD DUP1 SWAP2 SUB SWAP1 RETURN JUMPDEST PUSH2 0x234 PUSH2 0x22F CALLDATASIZE PUSH1 0x4 PUSH2 0x13B4 JUMP JUMPDEST PUSH2 0x591 JUMP JUMPDEST PUSH1 0x40 MLOAD SWAP1 DUP2 MSTORE PUSH1 0x20 ADD PUSH2 0x218 JUMP JUMPDEST PUSH2 0x1DC PUSH2 0x250 CALLDATASIZE PUSH1 0x4 PUSH2 0x13CF JUMP JUMPDEST PUSH2 0x5C2 JUMP JUMPDEST PUSH2 0x1DC PUSH2 0x263 CALLDATASIZE PUSH1 0x4 PUSH2 0x13B4 JUMP JUMPDEST PUSH2 0x6BB JUMP JUMPDEST PUSH1 0x3 SLOAD PUSH2 0x204 SWAP1 PUSH1 0x1 PUSH1 0x1 PUSH1 0xA0 SHL SUB AND DUP2 JUMP JUMPDEST PUSH2 0x234 PUSH2 0x289 CALLDATASIZE PUSH1 0x4 PUSH2 0x13B4 JUMP JUMPDEST PUSH1 0xA PUSH1 0x20 MSTORE PUSH0 SWAP1 DUP2 MSTORE PUSH1 0x40 SWAP1 KECCAK256 SLOAD DUP2 JUMP JUMPDEST PUSH2 0x2AD PUSH2 0x2A8 CALLDATASIZE PUSH1 0x4 PUSH2 0x13B4 JUMP JUMPDEST PUSH2 0x735 JUMP JUMPDEST PUSH1 0x40 MLOAD SWAP1 ISZERO ISZERO DUP2 MSTORE PUSH1 0x20 ADD PUSH2 0x218 JUMP JUMPDEST PUSH2 0x1DC PUSH2 0x2CB CALLDATASIZE PUSH1 0x4 PUSH2 0x13E6 JUMP JUMPDEST PUSH2 0x7FC JUMP JUMPDEST PUSH2 0x234 PUSH2 0x2DE CALLDATASIZE PUSH1 0x4 PUSH2 0x13B4 JUMP JUMPDEST PUSH1 0x7 PUSH1 0x20 MSTORE PUSH0 SWAP1 DUP2 MSTORE PUSH1 0x40 SWAP1 KECCAK256 SLOAD DUP2 JUMP JUMPDEST PUSH2 0x302 PUSH2 0x2FD CALLDATASIZE PUSH1 0x4 PUSH2 0x13B4 JUMP JUMPDEST PUSH2 0x890 JUMP JUMPDEST PUSH1 0x40 DUP1 MLOAD SWAP4 ISZERO ISZERO DUP5 MSTORE PUSH1 0x20 DUP5 ADD SWAP3 SWAP1 SWAP3 MSTORE SWAP1 DUP3 ADD MSTORE PUSH1 0x60 ADD PUSH2 0x218 JUMP JUMPDEST PUSH1 0x4 SLOAD PUSH2 0x204 SWAP1 PUSH1 0x1 PUSH1 0x1 PUSH1 0xA0 SHL SUB AND DUP2 JUMP JUMPDEST PUSH2 0x1DC PUSH2 0x340 CALLDATASIZE PUSH1 0x4 PUSH2 0x13B4 JUMP JUMPDEST PUSH2 0x8D8 JUMP JUMPDEST PUSH2 0x1DC PUSH2 0x353 CALLDATASIZE PUSH1 0x4 PUSH2 0x13E6 JUMP JUMPDEST PUSH2 0x950 JUMP JUMPDEST PUSH2 0x234 PUSH1 0xB SLOAD DUP2 JUMP JUMPDEST PUSH1 0x1 SLOAD PUSH2 0x204 SWAP1 PUSH1 0x1 PUSH1 0x1 PUSH1 0xA0 SHL SUB AND DUP2 JUMP JUMPDEST PUSH2 0x1DC PUSH2 0x382 CALLDATASIZE PUSH1 0x4 PUSH2 0x13B4 JUMP JUMPDEST PUSH2 0x9BF JUMP JUMPDEST PUSH2 0x1DC PUSH2 0x395 CALLDATASIZE PUSH1 0x4 PUSH2 0x13CF JUMP JUMPDEST PUSH2 0xCB1 JUMP JUMPDEST PUSH2 0x234 PUSH2 0x3A8 CALLDATASIZE PUSH1 0x4 PUSH2 0x13B4 JUMP JUMPDEST PUSH2 0xCE7 JUMP JUMPDEST PUSH2 0x1DC PUSH2 0x3BB CALLDATASIZE PUSH1 0x4 PUSH2 0x13CF JUMP JUMPDEST PUSH2 0xD9C JUMP JUMPDEST PUSH2 0x1DC PUSH2 0x3CE CALLDATASIZE PUSH1 0x4 PUSH2 0x13B4 JUMP JUMPDEST PUSH2 0xFDE JUMP JUMPDEST PUSH1 0xC SLOAD PUSH2 0x204 SWAP1 PUSH1 0x1 PUSH1 0x1 PUSH1 0xA0 SHL SUB AND DUP2 JUMP JUMPDEST PUSH2 0x234 PUSH2 0x3F4 CALLDATASIZE PUSH1 0x4 PUSH2 0x13B4 JUMP JUMPDEST PUSH1 0x8 PUSH1 0x20 MSTORE PUSH0 SWAP1 DUP2 MSTORE PUSH1 0x40 SWAP1 KECCAK256 SLOAD DUP2 JUMP JUMPDEST PUSH2 0x234 PUSH1 0x9 SLOAD DUP2 JUMP JUMPDEST PUSH2 0x234 PUSH1 0x5 SLOAD DUP2 JUMP JUMPDEST PUSH0 SLOAD PUSH2 0x204 SWAP1 PUSH1 0x1 PUSH1 0x1 PUSH1 0xA0 SHL SUB AND DUP2 JUMP JUMPDEST PUSH2 0x1DC PUSH2 0x437 CALLDATASIZE PUSH1 0x4 PUSH2 0x13CF JUMP JUMPDEST PUSH2 0x1031 JUMP JUMPDEST PUSH2 0x2AD PUSH2 0x44A CALLDATASIZE PUSH1 0x4 PUSH2 0x1410 JUMP JUMPDEST PUSH2 0x11B3 JUMP JUMPDEST PUSH2 0x234 PUSH1 0x6 SLOAD DUP2 JUMP JUMPDEST PUSH0 PUSH2 0x462 CALLER PUSH2 0x591 JUMP JUMPDEST SWAP1 POP DUP1 ISZERO PUSH2 0x53B JUMPI CALLER PUSH0 SWAP1 DUP2 MSTORE PUSH1 0x8 PUSH1 0x20 MSTORE PUSH1 0x40 SWAP1 KECCAK256 SLOAD PUSH2 0x483 SWAP1 DUP3 PUSH2 0x1288 JUMP JUMPDEST CALLER PUSH0 SWAP1 DUP2 MSTORE PUSH1 0x8 PUSH1 0x20 MSTORE PUSH1 0x40 SWAP1 KECCAK256 SSTORE PUSH1 0x6 SLOAD PUSH2 0x4A0 SWAP1 DUP3 SWAP1 PUSH2 0x1467 JUMP JUMPDEST PUSH1 0x6 SSTORE PUSH1 0x4 DUP1 SLOAD PUSH1 0x40 MLOAD PUSH4 0xA9059CBB PUSH1 0xE0 SHL DUP2 MSTORE CALLER SWAP3 DUP2 ADD SWAP3 SWAP1 SWAP3 MSTORE PUSH1 0x24 DUP3 ADD DUP4 SWAP1 MSTORE PUSH1 0x1 PUSH1 0x1 PUSH1 0xA0 SHL SUB AND SWAP1 PUSH4 0xA9059CBB SWAP1 PUSH1 0x44 ADD PUSH1 0x20 PUSH1 0x40 MLOAD DUP1 DUP4 SUB DUP2 PUSH0 DUP8 GAS CALL ISZERO DUP1 ISZERO PUSH2 0x4F2 JUMPI RETURNDATASIZE PUSH0 DUP1 RETURNDATACOPY RETURNDATASIZE PUSH0 REVERT JUMPDEST POP POP POP POP PUSH1 0x40 MLOAD RETURNDATASIZE PUSH1 0x1F NOT PUSH1 0x1F DUP3 ADD AND DUP3 ADD DUP1 PUSH1 0x40 MSTORE POP DUP2 ADD SWAP1 PUSH2 0x516 SWAP2 SWAP1 PUSH2 0x147A JUMP JUMPDEST PUSH2 0x53B JUMPI PUSH1 0x40 MLOAD PUSH3 0x461BCD PUSH1 0xE5 SHL DUP2 MSTORE PUSH1 0x4 ADD PUSH2 0x532 SWAP1 PUSH2 0x1499 JUMP JUMPDEST PUSH1 0x40 MLOAD DUP1 SWAP2 SUB SWAP1 REVERT JUMPDEST POP JUMP JUMPDEST PUSH2 0x553 CALLER PUSH0 CALLDATALOAD PUSH1 0x1 PUSH1 0x1 PUSH1 0xE0 SHL SUB NOT AND PUSH2 0x11B3 JUMP JUMPDEST PUSH2 0x56F JUMPI PUSH1 0x40 MLOAD PUSH3 0x461BCD PUSH1 0xE5 SHL DUP2 MSTORE PUSH1 0x4 ADD PUSH2 0x532 SWAP1 PUSH2 0x14C7 JUMP JUMPDEST PUSH1 0x2 DUP1 SLOAD PUSH1 0x1 PUSH1 0x1 PUSH1 0xA0 SHL SUB NOT AND PUSH1 0x1 PUSH1 0x1 PUSH1 0xA0 SHL SUB SWAP3 SWAP1 SWAP3 AND SWAP2 SWAP1 SWAP2 OR SWAP1 SSTORE JUMP JUMPDEST PUSH1 0x1 PUSH1 0x1 PUSH1 0xA0 SHL SUB DUP2 AND PUSH0 SWAP1 DUP2 MSTORE PUSH1 0x8 PUSH1 0x20 MSTORE PUSH1 0x40 DUP2 KECCAK256 SLOAD PUSH2 0x5BC SWAP1 PUSH2 0x5B6 DUP5 PUSH2 0xCE7 JUMP JUMPDEST SWAP1 PUSH2 0x12A5 JUMP JUMPDEST SWAP3 SWAP2 POP POP JUMP JUMPDEST CALLER PUSH0 SWAP1 DUP2 MSTORE PUSH1 0xA PUSH1 0x20 MSTORE PUSH1 0x40 SWAP1 KECCAK256 SLOAD DUP2 GT ISZERO PUSH2 0x620 JUMPI PUSH1 0x40 MLOAD PUSH3 0x461BCD PUSH1 0xE5 SHL DUP2 MSTORE PUSH1 0x20 PUSH1 0x4 DUP3 ADD MSTORE PUSH1 0x18 PUSH1 0x24 DUP3 ADD MSTORE PUSH32 0x496E73756666696369656E742042434B2062616C616E63650000000000000000 PUSH1 0x44 DUP3 ADD MSTORE PUSH1 0x64 ADD PUSH2 0x532 JUMP JUMPDEST CALLER PUSH0 SWAP1 DUP2 MSTORE PUSH1 0xA PUSH1 0x20 MSTORE PUSH1 0x40 SWAP1 KECCAK256 SLOAD PUSH2 0x639 SWAP1 DUP3 PUSH2 0x12A5 JUMP JUMPDEST CALLER PUSH0 SWAP1 DUP2 MSTORE PUSH1 0xA PUSH1 0x20 MSTORE PUSH1 0x40 SWAP1 KECCAK256 SSTORE PUSH1 0xB SLOAD PUSH2 0x655 SWAP1 DUP3 PUSH2 0x12A5 JUMP JUMPDEST PUSH1 0xB SSTORE PUSH1 0x4 DUP1 SLOAD PUSH1 0x40 MLOAD PUSH4 0x40C10F19 PUSH1 0xE0 SHL DUP2 MSTORE CALLER SWAP3 DUP2 ADD SWAP3 SWAP1 SWAP3 MSTORE PUSH1 0x24 DUP3 ADD DUP4 SWAP1 MSTORE PUSH1 0x1 PUSH1 0x1 PUSH1 0xA0 SHL SUB AND SWAP1 PUSH4 0x40C10F19 SWAP1 PUSH1 0x44 ADD PUSH0 PUSH1 0x40 MLOAD DUP1 DUP4 SUB DUP2 PUSH0 DUP8 DUP1 EXTCODESIZE ISZERO DUP1 ISZERO PUSH2 0x6A2 JUMPI PUSH0 DUP1 REVERT JUMPDEST POP GAS CALL ISZERO DUP1 ISZERO PUSH2 0x6B4 JUMPI RETURNDATASIZE PUSH0 DUP1 RETURNDATACOPY RETURNDATASIZE PUSH0 REVERT JUMPDEST POP POP POP POP POP JUMP JUMPDEST PUSH2 0x6D0 CALLER PUSH0 CALLDATALOAD PUSH1 0x1 PUSH1 0x1 PUSH1 0xE0 SHL SUB NOT AND PUSH2 0x11B3 JUMP JUMPDEST PUSH2 0x6EC JUMPI PUSH1 0x40 MLOAD PUSH3 0x461BCD PUSH1 0xE5 SHL DUP2 MSTORE PUSH1 0x4 ADD PUSH2 0x532 SWAP1 PUSH2 0x14C7 JUMP JUMPDEST PUSH1 0x1 DUP1 SLOAD PUSH1 0x1 PUSH1 0x1 PUSH1 0xA0 SHL SUB NOT AND PUSH1 0x1 PUSH1 0x1 PUSH1 0xA0 SHL SUB DUP4 AND SWAP1 DUP2 OR SWAP1 SWAP2 SSTORE PUSH1 0x40 MLOAD PUSH32 0xCE241D7CA1F669FEE44B6FC00B8EBA2DF3BB514EED0F6F668F8F89096E81ED94 SWAP1 PUSH0 SWAP1 LOG2 POP JUMP JUMPDEST PUSH1 0xC SLOAD PUSH1 0x40 MLOAD PUSH4 0x673E1561 PUSH1 0xE1 SHL DUP2 MSTORE PUSH1 0x1 PUSH1 0x1 PUSH1 0xA0 SHL SUB DUP4 DUP2 AND PUSH1 0x4 DUP4 ADD MSTORE PUSH0 SWAP3 DUP4 SWAP3 SWAP2 AND SWAP1 PUSH4 0xCE7C2AC2 SWAP1 PUSH1 0x24 ADD PUSH1 0x20 PUSH1 0x40 MLOAD DUP1 DUP4 SUB DUP2 DUP7 GAS STATICCALL ISZERO DUP1 ISZERO PUSH2 0x780 JUMPI RETURNDATASIZE PUSH0 DUP1 RETURNDATACOPY RETURNDATASIZE PUSH0 REVERT JUMPDEST POP POP POP POP PUSH1 0x40 MLOAD RETURNDATASIZE PUSH1 0x1F NOT PUSH1 0x1F DUP3 ADD AND DUP3 ADD DUP1 PUSH1 0x40 MSTORE POP DUP2 ADD SWAP1 PUSH2 0x7A4 SWAP2 SWAP1 PUSH2 0x14F5 JUMP JUMPDEST SWAP1 POP PUSH1 0x9 SLOAD DUP2 LT ISZERO PUSH2 0x7B8 JUMPI POP PUSH0 SWAP3 SWAP2 POP POP JUMP JUMPDEST PUSH0 PUSH2 0x7D0 PUSH2 0x3E8 PUSH2 0x7CA DUP5 PUSH1 0x19 PUSH2 0x12C0 JUMP JUMPDEST SWAP1 PUSH2 0x12F3 JUMP JUMPDEST CALLER PUSH0 SWAP1 DUP2 MSTORE PUSH1 0xA PUSH1 0x20 MSTORE PUSH1 0x40 SWAP1 KECCAK256 SLOAD SWAP1 SWAP2 POP PUSH2 0x5DC DUP3 PUSH2 0x7F0 DUP4 DUP4 PUSH2 0x12C0 JUMP JUMPDEST LT ISZERO SWAP7 SWAP6 POP POP POP POP POP POP JUMP JUMPDEST PUSH2 0x811 CALLER PUSH0 CALLDATALOAD PUSH1 0x1 PUSH1 0x1 PUSH1 0xE0 SHL SUB NOT AND PUSH2 0x11B3 JUMP JUMPDEST PUSH2 0x82D JUMPI PUSH1 0x40 MLOAD PUSH3 0x461BCD PUSH1 0xE5 SHL DUP2 MSTORE PUSH1 0x4 ADD PUSH2 0x532 SWAP1 PUSH2 0x14C7 JUMP JUMPDEST PUSH0 PUSH2 0x84B PUSH2 0x846 DUP4 PUSH1 0x5 SLOAD PUSH2 0x12C0 SWAP1 SWAP2 SWAP1 PUSH4 0xFFFFFFFF AND JUMP JUMPDEST PUSH2 0x12FE JUMP JUMPDEST PUSH1 0x1 PUSH1 0x1 PUSH1 0xA0 SHL SUB DUP5 AND PUSH0 SWAP1 DUP2 MSTORE PUSH1 0x7 PUSH1 0x20 MSTORE PUSH1 0x40 SWAP1 KECCAK256 SLOAD SWAP1 SWAP2 POP PUSH2 0x870 SWAP1 DUP3 PUSH2 0x130C JUMP JUMPDEST PUSH1 0x1 PUSH1 0x1 PUSH1 0xA0 SHL SUB SWAP1 SWAP4 AND PUSH0 SWAP1 DUP2 MSTORE PUSH1 0x7 PUSH1 0x20 MSTORE PUSH1 0x40 SWAP1 KECCAK256 SWAP3 SWAP1 SWAP3 SSTORE POP POP JUMP JUMPDEST PUSH0 DUP1 PUSH0 DUP1 PUSH2 0x89D DUP6 PUSH2 0x735 JUMP JUMPDEST SWAP1 POP PUSH0 PUSH2 0x8A9 DUP7 PUSH2 0x591 JUMP JUMPDEST SWAP1 POP PUSH0 PUSH2 0x8B7 DUP3 PUSH1 0x2 PUSH2 0x12F3 JUMP JUMPDEST SWAP1 POP DUP3 DUP3 DUP5 PUSH2 0x8C6 JUMPI DUP3 PUSH2 0x8C8 JUMP JUMPDEST PUSH0 JUMPDEST SWAP6 POP SWAP6 POP SWAP6 POP POP POP POP SWAP2 SWAP4 SWAP1 SWAP3 POP JUMP JUMPDEST PUSH2 0x8ED CALLER PUSH0 CALLDATALOAD PUSH1 0x1 PUSH1 0x1 PUSH1 0xE0 SHL SUB NOT AND PUSH2 0x11B3 JUMP JUMPDEST PUSH2 0x909 JUMPI PUSH1 0x40 MLOAD PUSH3 0x461BCD PUSH1 0xE5 SHL DUP2 MSTORE PUSH1 0x4 ADD PUSH2 0x532 SWAP1 PUSH2 0x14C7 JUMP JUMPDEST PUSH0 DUP1 SLOAD PUSH1 0x1 PUSH1 0x1 PUSH1 0xA0 SHL SUB NOT AND PUSH1 0x1 PUSH1 0x1 PUSH1 0xA0 SHL SUB DUP4 AND SWAP1 DUP2 OR DUP3 SSTORE PUSH1 0x40 MLOAD SWAP1 SWAP2 PUSH32 0x1ABEBEA81BFA2637F28358C371278FB15EDE7EA8DD28D2E03B112FF6D936ADA4 SWAP2 LOG2 POP JUMP JUMPDEST PUSH2 0x965 CALLER PUSH0 CALLDATALOAD PUSH1 0x1 PUSH1 0x1 PUSH1 0xE0 SHL SUB NOT AND PUSH2 0x11B3 JUMP JUMPDEST PUSH2 0x981 JUMPI PUSH1 0x40 MLOAD PUSH3 0x461BCD PUSH1 0xE5 SHL DUP2 MSTORE PUSH1 0x4 ADD PUSH2 0x532 SWAP1 PUSH2 0x14C7 JUMP JUMPDEST PUSH0 PUSH2 0x99A PUSH2 0x846 DUP4 PUSH1 0x5 SLOAD PUSH2 0x12C0 SWAP1 SWAP2 SWAP1 PUSH4 0xFFFFFFFF AND JUMP JUMPDEST PUSH1 0x1 PUSH1 0x1 PUSH1 0xA0 SHL SUB DUP5 AND PUSH0 SWAP1 DUP2 MSTORE PUSH1 0x7 PUSH1 0x20 MSTORE PUSH1 0x40 SWAP1 KECCAK256 SLOAD SWAP1 SWAP2 POP PUSH2 0x870 SWAP1 DUP3 PUSH2 0x1355 JUMP JUMPDEST PUSH2 0x9C8 DUP2 PUSH2 0x735 JUMP JUMPDEST ISZERO PUSH2 0xA15 JUMPI PUSH1 0x40 MLOAD PUSH3 0x461BCD PUSH1 0xE5 SHL DUP2 MSTORE PUSH1 0x20 PUSH1 0x4 DUP3 ADD MSTORE PUSH1 0x1E PUSH1 0x24 DUP3 ADD MSTORE PUSH32 0x55736572206D65657473207374616B696E6720726571756972656D656E740000 PUSH1 0x44 DUP3 ADD MSTORE PUSH1 0x64 ADD PUSH2 0x532 JUMP JUMPDEST PUSH0 PUSH2 0xA1F DUP3 PUSH2 0x591 JUMP JUMPDEST SWAP1 POP PUSH0 PUSH2 0xA2D PUSH1 0x2 DUP4 PUSH2 0x150C JUMP JUMPDEST PUSH1 0x3 SLOAD PUSH1 0x40 MLOAD PUSH4 0x23B872DD PUSH1 0xE0 SHL DUP2 MSTORE CALLER PUSH1 0x4 DUP3 ADD MSTORE ADDRESS PUSH1 0x24 DUP3 ADD MSTORE PUSH1 0x44 DUP2 ADD DUP4 SWAP1 MSTORE SWAP2 SWAP3 POP PUSH1 0x1 PUSH1 0x1 PUSH1 0xA0 SHL SUB AND SWAP1 PUSH4 0x23B872DD SWAP1 PUSH1 0x64 ADD PUSH1 0x20 PUSH1 0x40 MLOAD DUP1 DUP4 SUB DUP2 PUSH0 DUP8 GAS CALL ISZERO DUP1 ISZERO PUSH2 0xA82 JUMPI RETURNDATASIZE PUSH0 DUP1 RETURNDATACOPY RETURNDATASIZE PUSH0 REVERT JUMPDEST POP POP POP POP PUSH1 0x40 MLOAD RETURNDATASIZE PUSH1 0x1F NOT PUSH1 0x1F DUP3 ADD AND DUP3 ADD DUP1 PUSH1 0x40 MSTORE POP DUP2 ADD SWAP1 PUSH2 0xAA6 SWAP2 SWAP1 PUSH2 0x147A JUMP JUMPDEST PUSH2 0xAE8 JUMPI PUSH1 0x40 MLOAD PUSH3 0x461BCD PUSH1 0xE5 SHL DUP2 MSTORE PUSH1 0x20 PUSH1 0x4 DUP3 ADD MSTORE PUSH1 0x13 PUSH1 0x24 DUP3 ADD MSTORE PUSH19 0x1090D2C81D1C985B9CD9995C8819985A5B1959 PUSH1 0x6A SHL PUSH1 0x44 DUP3 ADD MSTORE PUSH1 0x64 ADD PUSH2 0x532 JUMP JUMPDEST PUSH0 PUSH2 0xAF4 DUP3 PUSH1 0x5 PUSH2 0x12F3 JUMP JUMPDEST SWAP1 POP PUSH0 PUSH2 0xB01 DUP3 DUP5 PUSH2 0x1467 JUMP JUMPDEST PUSH1 0x3 SLOAD PUSH1 0x40 MLOAD PUSH4 0x2770A7EB PUSH1 0xE2 SHL DUP2 MSTORE ADDRESS PUSH1 0x4 DUP3 ADD MSTORE PUSH1 0x24 DUP2 ADD DUP4 SWAP1 MSTORE SWAP2 SWAP3 POP PUSH1 0x1 PUSH1 0x1 PUSH1 0xA0 SHL SUB AND SWAP1 PUSH4 0x9DC29FAC SWAP1 PUSH1 0x44 ADD PUSH0 PUSH1 0x40 MLOAD DUP1 DUP4 SUB DUP2 PUSH0 DUP8 DUP1 EXTCODESIZE ISZERO DUP1 ISZERO PUSH2 0xB4B JUMPI PUSH0 DUP1 REVERT JUMPDEST POP GAS CALL ISZERO DUP1 ISZERO PUSH2 0xB5D JUMPI RETURNDATASIZE PUSH0 DUP1 RETURNDATACOPY RETURNDATASIZE PUSH0 REVERT JUMPDEST POP POP PUSH1 0x3 SLOAD PUSH1 0x1 SLOAD PUSH1 0x40 MLOAD PUSH4 0x23B872DD PUSH1 0xE0 SHL DUP2 MSTORE ADDRESS PUSH1 0x4 DUP3 ADD MSTORE PUSH1 0x1 PUSH1 0x1 PUSH1 0xA0 SHL SUB SWAP2 DUP3 AND PUSH1 0x24 DUP3 ADD MSTORE PUSH1 0x44 DUP2 ADD DUP8 SWAP1 MSTORE SWAP2 AND SWAP3 POP PUSH4 0x23B872DD SWAP2 POP PUSH1 0x64 ADD PUSH1 0x20 PUSH1 0x40 MLOAD DUP1 DUP4 SUB DUP2 PUSH0 DUP8 GAS CALL ISZERO DUP1 ISZERO PUSH2 0xBB9 JUMPI RETURNDATASIZE PUSH0 DUP1 RETURNDATACOPY RETURNDATASIZE PUSH0 REVERT JUMPDEST POP POP POP POP PUSH1 0x40 MLOAD RETURNDATASIZE PUSH1 0x1F NOT PUSH1 0x1F DUP3 ADD AND DUP3 ADD DUP1 PUSH1 0x40 MSTORE POP DUP2 ADD SWAP1 PUSH2 0xBDD SWAP2 SWAP1 PUSH2 0x147A JUMP JUMPDEST POP PUSH1 0x4 DUP1 SLOAD PUSH1 0x40 MLOAD PUSH4 0xA9059CBB PUSH1 0xE0 SHL DUP2 MSTORE CALLER SWAP3 DUP2 ADD SWAP3 SWAP1 SWAP3 MSTORE PUSH1 0x24 DUP3 ADD DUP7 SWAP1 MSTORE PUSH1 0x1 PUSH1 0x1 PUSH1 0xA0 SHL SUB AND SWAP1 PUSH4 0xA9059CBB SWAP1 PUSH1 0x44 ADD PUSH1 0x20 PUSH1 0x40 MLOAD DUP1 DUP4 SUB DUP2 PUSH0 DUP8 GAS CALL ISZERO DUP1 ISZERO PUSH2 0xC2D JUMPI RETURNDATASIZE PUSH0 DUP1 RETURNDATACOPY RETURNDATASIZE PUSH0 REVERT JUMPDEST POP POP POP POP PUSH1 0x40 MLOAD RETURNDATASIZE PUSH1 0x1F NOT PUSH1 0x1F DUP3 ADD AND DUP3 ADD DUP1 PUSH1 0x40 MSTORE POP DUP2 ADD SWAP1 PUSH2 0xC51 SWAP2 SWAP1 PUSH2 0x147A JUMP JUMPDEST PUSH2 0xC6D JUMPI PUSH1 0x40 MLOAD PUSH3 0x461BCD PUSH1 0xE5 SHL DUP2 MSTORE PUSH1 0x4 ADD PUSH2 0x532 SWAP1 PUSH2 0x1499 JUMP JUMPDEST PUSH1 0x1 PUSH1 0x1 PUSH1 0xA0 SHL SUB DUP6 AND PUSH0 SWAP1 DUP2 MSTORE PUSH1 0x8 PUSH1 0x20 MSTORE PUSH1 0x40 SWAP1 KECCAK256 SLOAD PUSH2 0xC8F SWAP1 DUP6 PUSH2 0x1288 JUMP JUMPDEST PUSH1 0x1 PUSH1 0x1 PUSH1 0xA0 SHL SUB SWAP1 SWAP6 AND PUSH0 SWAP1 DUP2 MSTORE PUSH1 0x8 PUSH1 0x20 MSTORE PUSH1 0x40 SWAP1 KECCAK256 SWAP5 SWAP1 SWAP5 SSTORE POP POP POP POP JUMP JUMPDEST PUSH2 0xCC6 CALLER PUSH0 CALLDATALOAD PUSH1 0x1 PUSH1 0x1 PUSH1 0xE0 SHL SUB NOT AND PUSH2 0x11B3 JUMP JUMPDEST PUSH2 0xCE2 JUMPI PUSH1 0x40 MLOAD PUSH3 0x461BCD PUSH1 0xE5 SHL DUP2 MSTORE PUSH1 0x4 ADD PUSH2 0x532 SWAP1 PUSH2 0x14C7 JUMP JUMPDEST PUSH1 0x9 SSTORE JUMP JUMPDEST PUSH1 0x1 PUSH1 0x1 PUSH1 0xA0 SHL SUB DUP2 DUP2 AND PUSH0 DUP2 DUP2 MSTORE PUSH1 0x7 PUSH1 0x20 MSTORE PUSH1 0x40 DUP1 DUP3 KECCAK256 SLOAD PUSH1 0xC SLOAD SWAP2 MLOAD PUSH4 0x673E1561 PUSH1 0xE1 SHL DUP2 MSTORE PUSH1 0x4 DUP2 ADD SWAP5 SWAP1 SWAP5 MSTORE SWAP2 SWAP4 PUSH1 0x1 PUSH1 0x80 SHL SWAP4 PUSH2 0xD92 SWAP4 PUSH2 0xD8D SWAP4 SWAP1 SWAP3 PUSH2 0xD87 SWAP3 PUSH2 0x846 SWAP3 SWAP1 SWAP2 AND SWAP1 PUSH4 0xCE7C2AC2 SWAP1 PUSH1 0x24 ADD PUSH1 0x20 PUSH1 0x40 MLOAD DUP1 DUP4 SUB DUP2 DUP7 GAS STATICCALL ISZERO DUP1 ISZERO PUSH2 0xD5A JUMPI RETURNDATASIZE PUSH0 DUP1 RETURNDATACOPY RETURNDATASIZE PUSH0 REVERT JUMPDEST POP POP POP POP PUSH1 0x40 MLOAD RETURNDATASIZE PUSH1 0x1F NOT PUSH1 0x1F DUP3 ADD AND DUP3 ADD DUP1 PUSH1 0x40 MSTORE POP DUP2 ADD SWAP1 PUSH2 0xD7E SWAP2 SWAP1 PUSH2 0x14F5 JUMP JUMPDEST PUSH1 0x5 SLOAD SWAP1 PUSH2 0x12C0 JUMP JUMPDEST SWAP1 PUSH2 0x1355 JUMP JUMPDEST PUSH2 0x138F JUMP JUMPDEST PUSH2 0x5BC SWAP2 SWAP1 PUSH2 0x150C JUMP JUMPDEST PUSH1 0x4 DUP1 SLOAD PUSH1 0x40 MLOAD PUSH4 0x70A08231 PUSH1 0xE0 SHL DUP2 MSTORE CALLER SWAP3 DUP2 ADD SWAP3 SWAP1 SWAP3 MSTORE PUSH0 SWAP2 PUSH1 0x1 PUSH1 0x1 PUSH1 0xA0 SHL SUB SWAP1 SWAP2 AND SWAP1 PUSH4 0x70A08231 SWAP1 PUSH1 0x24 ADD PUSH1 0x20 PUSH1 0x40 MLOAD DUP1 DUP4 SUB DUP2 DUP7 GAS STATICCALL ISZERO DUP1 ISZERO PUSH2 0xDE7 JUMPI RETURNDATASIZE PUSH0 DUP1 RETURNDATACOPY RETURNDATASIZE PUSH0 REVERT JUMPDEST POP POP POP POP PUSH1 0x40 MLOAD RETURNDATASIZE PUSH1 0x1F NOT PUSH1 0x1F DUP3 ADD AND DUP3 ADD DUP1 PUSH1 0x40 MSTORE POP DUP2 ADD SWAP1 PUSH2 0xE0B SWAP2 SWAP1 PUSH2 0x14F5 JUMP JUMPDEST SWAP1 POP DUP2 DUP2 LT ISZERO PUSH2 0xE69 JUMPI PUSH1 0x40 MLOAD PUSH3 0x461BCD PUSH1 0xE5 SHL DUP2 MSTORE PUSH1 0x20 PUSH1 0x4 DUP3 ADD MSTORE PUSH1 0x23 PUSH1 0x24 DUP3 ADD MSTORE PUSH32 0x4F776E65722068617320696E73756666696369656E7420555344432062616C61 PUSH1 0x44 DUP3 ADD MSTORE PUSH3 0x6E6365 PUSH1 0xE8 SHL PUSH1 0x64 DUP3 ADD MSTORE PUSH1 0x84 ADD PUSH2 0x532 JUMP JUMPDEST PUSH1 0xC SLOAD PUSH1 0x40 DUP1 MLOAD PUSH4 0x5E07B869 PUSH1 0xE0 SHL DUP2 MSTORE SWAP1 MLOAD PUSH0 SWAP3 PUSH1 0x1 PUSH1 0x1 PUSH1 0xA0 SHL SUB AND SWAP2 PUSH4 0x5E07B869 SWAP2 PUSH1 0x4 DUP1 DUP4 ADD SWAP3 PUSH1 0x20 SWAP3 SWAP2 SWAP1 DUP3 SWAP1 SUB ADD DUP2 DUP7 GAS STATICCALL ISZERO DUP1 ISZERO PUSH2 0xEB0 JUMPI RETURNDATASIZE PUSH0 DUP1 RETURNDATACOPY RETURNDATASIZE PUSH0 REVERT JUMPDEST POP POP POP POP PUSH1 0x40 MLOAD RETURNDATASIZE PUSH1 0x1F NOT PUSH1 0x1F DUP3 ADD AND DUP3 ADD DUP1 PUSH1 0x40 MSTORE POP DUP2 ADD SWAP1 PUSH2 0xED4 SWAP2 SWAP1 PUSH2 0x14F5 JUMP JUMPDEST SWAP1 POP DUP1 ISZERO PUSH2 0xEFE JUMPI PUSH2 0xEFA PUSH2 0xEF1 DUP3 PUSH2 0x7CA DUP7 PUSH1 0x1 PUSH1 0x80 SHL PUSH2 0x12C0 JUMP JUMPDEST PUSH1 0x5 SLOAD SWAP1 PUSH2 0x1288 JUMP JUMPDEST PUSH1 0x5 SSTORE JUMPDEST DUP3 PUSH1 0x6 SLOAD PUSH2 0xF0C SWAP2 SWAP1 PUSH2 0x152B JUMP JUMPDEST PUSH1 0x6 SSTORE PUSH1 0x40 MLOAD DUP4 DUP2 MSTORE CALLER SWAP1 PUSH32 0xEABEB68BC82E6816F4DD3B51F8E2524AE7E215F1E6DE273AF003A3E788B74303 SWAP1 PUSH1 0x20 ADD PUSH1 0x40 MLOAD DUP1 SWAP2 SUB SWAP1 LOG2 PUSH1 0x4 DUP1 SLOAD PUSH1 0x40 MLOAD PUSH4 0x23B872DD PUSH1 0xE0 SHL DUP2 MSTORE CALLER SWAP3 DUP2 ADD SWAP3 SWAP1 SWAP3 MSTORE ADDRESS PUSH1 0x24 DUP4 ADD MSTORE PUSH1 0x44 DUP3 ADD DUP6 SWAP1 MSTORE PUSH1 0x1 PUSH1 0x1 PUSH1 0xA0 SHL SUB AND SWAP1 PUSH4 0x23B872DD SWAP1 PUSH1 0x64 ADD PUSH1 0x20 PUSH1 0x40 MLOAD DUP1 DUP4 SUB DUP2 PUSH0 DUP8 GAS CALL ISZERO DUP1 ISZERO PUSH2 0xF99 JUMPI RETURNDATASIZE PUSH0 DUP1 RETURNDATACOPY RETURNDATASIZE PUSH0 REVERT JUMPDEST POP POP POP POP PUSH1 0x40 MLOAD RETURNDATASIZE PUSH1 0x1F NOT PUSH1 0x1F DUP3 ADD AND DUP3 ADD DUP1 PUSH1 0x40 MSTORE POP DUP2 ADD SWAP1 PUSH2 0xFBD SWAP2 SWAP1 PUSH2 0x147A JUMP JUMPDEST PUSH2 0xFD9 JUMPI PUSH1 0x40 MLOAD PUSH3 0x461BCD PUSH1 0xE5 SHL DUP2 MSTORE PUSH1 0x4 ADD PUSH2 0x532 SWAP1 PUSH2 0x1499 JUMP JUMPDEST POP POP POP JUMP JUMPDEST PUSH2 0xFF3 CALLER PUSH0 CALLDATALOAD PUSH1 0x1 PUSH1 0x1 PUSH1 0xE0 SHL SUB NOT AND PUSH2 0x11B3 JUMP JUMPDEST PUSH2 0x100F JUMPI PUSH1 0x40 MLOAD PUSH3 0x461BCD PUSH1 0xE5 SHL DUP2 MSTORE PUSH1 0x4 ADD PUSH2 0x532 SWAP1 PUSH2 0x14C7 JUMP JUMPDEST PUSH1 0xC DUP1 SLOAD PUSH1 0x1 PUSH1 0x1 PUSH1 0xA0 SHL SUB NOT AND PUSH1 0x1 PUSH1 0x1 PUSH1 0xA0 SHL SUB SWAP3 SWAP1 SWAP3 AND SWAP2 SWAP1 SWAP2 OR SWAP1 SSTORE JUMP JUMPDEST PUSH1 0xC SLOAD PUSH1 0x40 MLOAD PUSH4 0x673E1561 PUSH1 0xE1 SHL DUP2 MSTORE CALLER PUSH1 0x4 DUP3 ADD MSTORE PUSH0 SWAP2 PUSH1 0x1 PUSH1 0x1 PUSH1 0xA0 SHL SUB AND SWAP1 PUSH4 0xCE7C2AC2 SWAP1 PUSH1 0x24 ADD PUSH1 0x20 PUSH1 0x40 MLOAD DUP1 DUP4 SUB DUP2 DUP7 GAS STATICCALL ISZERO DUP1 ISZERO PUSH2 0x1077 JUMPI RETURNDATASIZE PUSH0 DUP1 RETURNDATACOPY RETURNDATASIZE PUSH0 REVERT JUMPDEST POP POP POP POP PUSH1 0x40 MLOAD RETURNDATASIZE PUSH1 0x1F NOT PUSH1 0x1F DUP3 ADD AND DUP3 ADD DUP1 PUSH1 0x40 MSTORE POP DUP2 ADD SWAP1 PUSH2 0x109B SWAP2 SWAP1 PUSH2 0x14F5 JUMP JUMPDEST GT PUSH2 0x1118 JUMPI PUSH1 0x40 MLOAD PUSH3 0x461BCD PUSH1 0xE5 SHL DUP2 MSTORE PUSH1 0x20 PUSH1 0x4 DUP3 ADD MSTORE PUSH1 0x41 PUSH1 0x24 DUP3 ADD MSTORE PUSH32 0x596F75206E65656420746F206D696E742042434B206669727374206265666F72 PUSH1 0x44 DUP3 ADD MSTORE PUSH32 0x65207375626D697474696E6720666F722042434B476F7620656D697373696F6E PUSH1 0x64 DUP3 ADD MSTORE PUSH1 0x73 PUSH1 0xF8 SHL PUSH1 0x84 DUP3 ADD MSTORE PUSH1 0xA4 ADD PUSH2 0x532 JUMP JUMPDEST PUSH1 0x3 SLOAD PUSH1 0x40 MLOAD PUSH4 0x2770A7EB PUSH1 0xE2 SHL DUP2 MSTORE CALLER PUSH1 0x4 DUP3 ADD MSTORE PUSH1 0x24 DUP2 ADD DUP4 SWAP1 MSTORE PUSH1 0x1 PUSH1 0x1 PUSH1 0xA0 SHL SUB SWAP1 SWAP2 AND SWAP1 PUSH4 0x9DC29FAC SWAP1 PUSH1 0x44 ADD PUSH0 PUSH1 0x40 MLOAD DUP1 DUP4 SUB DUP2 PUSH0 DUP8 DUP1 EXTCODESIZE ISZERO DUP1 ISZERO PUSH2 0x1161 JUMPI PUSH0 DUP1 REVERT JUMPDEST POP GAS CALL ISZERO DUP1 ISZERO PUSH2 0x1173 JUMPI RETURNDATASIZE PUSH0 DUP1 RETURNDATACOPY RETURNDATASIZE PUSH0 REVERT JUMPDEST POP POP CALLER PUSH0 SWAP1 DUP2 MSTORE PUSH1 0xA PUSH1 0x20 MSTORE PUSH1 0x40 SWAP1 KECCAK256 SLOAD PUSH2 0x1191 SWAP3 POP SWAP1 POP DUP3 PUSH2 0x1288 JUMP JUMPDEST CALLER PUSH0 SWAP1 DUP2 MSTORE PUSH1 0xA PUSH1 0x20 MSTORE PUSH1 0x40 SWAP1 KECCAK256 SSTORE PUSH1 0xB SLOAD PUSH2 0x11AD SWAP1 DUP3 PUSH2 0x1288 JUMP JUMPDEST PUSH1 0xB SSTORE POP JUMP JUMPDEST PUSH0 ADDRESS PUSH1 0x1 PUSH1 0x1 PUSH1 0xA0 SHL SUB DUP5 AND SUB PUSH2 0x11CC JUMPI POP PUSH1 0x1 PUSH2 0x5BC JUMP JUMPDEST PUSH1 0x1 SLOAD PUSH1 0x1 PUSH1 0x1 PUSH1 0xA0 SHL SUB SWAP1 DUP2 AND SWAP1 DUP5 AND SUB PUSH2 0x11EA JUMPI POP PUSH1 0x1 PUSH2 0x5BC JUMP JUMPDEST PUSH0 SLOAD PUSH1 0x1 PUSH1 0x1 PUSH1 0xA0 SHL SUB AND PUSH2 0x1200 JUMPI POP PUSH0 PUSH2 0x5BC JUMP JUMPDEST PUSH0 SLOAD PUSH1 0x40 MLOAD PUSH4 0xB7009613 PUSH1 0xE0 SHL DUP2 MSTORE PUSH1 0x1 PUSH1 0x1 PUSH1 0xA0 SHL SUB DUP6 DUP2 AND PUSH1 0x4 DUP4 ADD MSTORE ADDRESS PUSH1 0x24 DUP4 ADD MSTORE PUSH1 0x1 PUSH1 0x1 PUSH1 0xE0 SHL SUB NOT DUP6 AND PUSH1 0x44 DUP4 ADD MSTORE SWAP1 SWAP2 AND SWAP1 PUSH4 0xB7009613 SWAP1 PUSH1 0x64 ADD PUSH1 0x20 PUSH1 0x40 MLOAD DUP1 DUP4 SUB DUP2 DUP7 GAS STATICCALL ISZERO DUP1 ISZERO PUSH2 0x125D JUMPI RETURNDATASIZE PUSH0 DUP1 RETURNDATACOPY RETURNDATASIZE PUSH0 REVERT JUMPDEST POP POP POP POP PUSH1 0x40 MLOAD RETURNDATASIZE PUSH1 0x1F NOT PUSH1 0x1F DUP3 ADD AND DUP3 ADD DUP1 PUSH1 0x40 MSTORE POP DUP2 ADD SWAP1 PUSH2 0x1281 SWAP2 SWAP1 PUSH2 0x147A JUMP JUMPDEST SWAP4 SWAP3 POP POP POP JUMP JUMPDEST PUSH0 PUSH2 0x1293 DUP3 DUP5 PUSH2 0x152B JUMP JUMPDEST SWAP1 POP DUP3 DUP2 LT ISZERO PUSH2 0x5BC JUMPI PUSH2 0x5BC PUSH2 0x153E JUMP JUMPDEST PUSH0 DUP3 DUP3 GT ISZERO PUSH2 0x12B6 JUMPI PUSH2 0x12B6 PUSH2 0x153E JUMP JUMPDEST PUSH2 0x1281 DUP3 DUP5 PUSH2 0x1467 JUMP JUMPDEST PUSH0 DUP3 PUSH0 SUB PUSH2 0x12CF JUMPI POP PUSH0 PUSH2 0x5BC JUMP JUMPDEST PUSH2 0x12D9 DUP3 DUP5 PUSH2 0x1552 JUMP JUMPDEST SWAP1 POP DUP2 PUSH2 0x12E6 DUP5 DUP4 PUSH2 0x150C JUMP JUMPDEST EQ PUSH2 0x5BC JUMPI PUSH2 0x5BC PUSH2 0x153E JUMP JUMPDEST PUSH0 PUSH2 0x1281 DUP3 DUP5 PUSH2 0x150C JUMP JUMPDEST PUSH0 DUP2 DUP2 DUP2 SLT ISZERO PUSH2 0x5BC JUMPI PUSH0 DUP1 REVERT JUMPDEST PUSH0 DUP1 DUP3 SLT ISZERO DUP1 ISZERO PUSH2 0x1326 JUMPI POP DUP3 PUSH2 0x1323 DUP4 DUP3 PUSH2 0x1569 JUMP JUMPDEST SGT ISZERO JUMPDEST DUP1 PUSH2 0x1343 JUMPI POP PUSH0 DUP3 SLT DUP1 ISZERO PUSH2 0x1343 JUMPI POP DUP3 PUSH2 0x1341 DUP4 DUP3 PUSH2 0x1569 JUMP JUMPDEST SGT JUMPDEST PUSH2 0x134B JUMPI PUSH0 DUP1 REVERT JUMPDEST PUSH2 0x1281 DUP3 DUP5 PUSH2 0x1569 JUMP JUMPDEST PUSH0 DUP1 PUSH2 0x1361 DUP4 DUP6 PUSH2 0x158F JUMP JUMPDEST SWAP1 POP PUSH0 DUP4 SLT ISZERO DUP1 ISZERO PUSH2 0x1373 JUMPI POP DUP4 DUP2 SLT ISZERO JUMPDEST DUP1 PUSH2 0x1387 JUMPI POP PUSH0 DUP4 SLT DUP1 ISZERO PUSH2 0x1387 JUMPI POP DUP4 DUP2 SLT JUMPDEST PUSH2 0x1281 JUMPI PUSH0 DUP1 REVERT JUMPDEST PUSH0 DUP1 DUP3 SLT ISZERO PUSH2 0x139C JUMPI PUSH0 DUP1 REVERT JUMPDEST POP SWAP1 JUMP JUMPDEST PUSH1 0x1 PUSH1 0x1 PUSH1 0xA0 SHL SUB DUP2 AND DUP2 EQ PUSH2 0x53B JUMPI PUSH0 DUP1 REVERT JUMPDEST PUSH0 PUSH1 0x20 DUP3 DUP5 SUB SLT ISZERO PUSH2 0x13C4 JUMPI PUSH0 DUP1 REVERT JUMPDEST DUP2 CALLDATALOAD PUSH2 0x1281 DUP2 PUSH2 0x13A0 JUMP JUMPDEST PUSH0 PUSH1 0x20 DUP3 DUP5 SUB SLT ISZERO PUSH2 0x13DF JUMPI PUSH0 DUP1 REVERT JUMPDEST POP CALLDATALOAD SWAP2 SWAP1 POP JUMP JUMPDEST PUSH0 DUP1 PUSH1 0x40 DUP4 DUP6 SUB SLT ISZERO PUSH2 0x13F7 JUMPI PUSH0 DUP1 REVERT JUMPDEST DUP3 CALLDATALOAD PUSH2 0x1402 DUP2 PUSH2 0x13A0 JUMP JUMPDEST SWAP5 PUSH1 0x20 SWAP4 SWAP1 SWAP4 ADD CALLDATALOAD SWAP4 POP POP POP JUMP JUMPDEST PUSH0 DUP1 PUSH1 0x40 DUP4 DUP6 SUB SLT ISZERO PUSH2 0x1421 JUMPI PUSH0 DUP1 REVERT JUMPDEST DUP3 CALLDATALOAD PUSH2 0x142C DUP2 PUSH2 0x13A0 JUMP JUMPDEST SWAP2 POP PUSH1 0x20 DUP4 ADD CALLDATALOAD PUSH1 0x1 PUSH1 0x1 PUSH1 0xE0 SHL SUB NOT DUP2 AND DUP2 EQ PUSH2 0x1448 JUMPI PUSH0 DUP1 REVERT JUMPDEST DUP1 SWAP2 POP POP SWAP3 POP SWAP3 SWAP1 POP JUMP JUMPDEST PUSH4 0x4E487B71 PUSH1 0xE0 SHL PUSH0 MSTORE PUSH1 0x11 PUSH1 0x4 MSTORE PUSH1 0x24 PUSH0 REVERT JUMPDEST DUP2 DUP2 SUB DUP2 DUP2 GT ISZERO PUSH2 0x5BC JUMPI PUSH2 0x5BC PUSH2 0x1453 JUMP JUMPDEST PUSH0 PUSH1 0x20 DUP3 DUP5 SUB SLT ISZERO PUSH2 0x148A JUMPI PUSH0 DUP1 REVERT JUMPDEST DUP2 MLOAD DUP1 ISZERO ISZERO DUP2 EQ PUSH2 0x1281 JUMPI PUSH0 DUP1 REVERT JUMPDEST PUSH1 0x20 DUP1 DUP3 MSTORE PUSH1 0x14 SWAP1 DUP3 ADD MSTORE PUSH20 0x1554D110C81D1C985B9CD9995C8819985A5B1959 PUSH1 0x62 SHL PUSH1 0x40 DUP3 ADD MSTORE PUSH1 0x60 ADD SWAP1 JUMP JUMPDEST PUSH1 0x20 DUP1 DUP3 MSTORE PUSH1 0x14 SWAP1 DUP3 ADD MSTORE PUSH20 0x191CCB585D5D1A0B5D5B985D5D1A1BDC9A5E9959 PUSH1 0x62 SHL PUSH1 0x40 DUP3 ADD MSTORE PUSH1 0x60 ADD SWAP1 JUMP JUMPDEST PUSH0 PUSH1 0x20 DUP3 DUP5 SUB SLT ISZERO PUSH2 0x1505 JUMPI PUSH0 DUP1 REVERT JUMPDEST POP MLOAD SWAP2 SWAP1 POP JUMP JUMPDEST PUSH0 DUP3 PUSH2 0x1526 JUMPI PUSH4 0x4E487B71 PUSH1 0xE0 SHL PUSH0 MSTORE PUSH1 0x12 PUSH1 0x4 MSTORE PUSH1 0x24 PUSH0 REVERT JUMPDEST POP DIV SWAP1 JUMP JUMPDEST DUP1 DUP3 ADD DUP1 DUP3 GT ISZERO PUSH2 0x5BC JUMPI PUSH2 0x5BC PUSH2 0x1453 JUMP JUMPDEST PUSH4 0x4E487B71 PUSH1 0xE0 SHL PUSH0 MSTORE PUSH1 0x1 PUSH1 0x4 MSTORE PUSH1 0x24 PUSH0 REVERT JUMPDEST DUP1 DUP3 MUL DUP2 ISZERO DUP3 DUP3 DIV DUP5 EQ OR PUSH2 0x5BC JUMPI PUSH2 0x5BC PUSH2 0x1453 JUMP JUMPDEST DUP2 DUP2 SUB PUSH0 DUP4 SLT DUP1 ISZERO DUP4 DUP4 SGT AND DUP4 DUP4 SLT DUP3 AND OR ISZERO PUSH2 0x1588 JUMPI PUSH2 0x1588 PUSH2 0x1453 JUMP JUMPDEST POP SWAP3 SWAP2 POP POP JUMP JUMPDEST DUP1 DUP3 ADD DUP3 DUP2 SLT PUSH0 DUP4 SLT DUP1 ISZERO DUP3 AND DUP3 ISZERO DUP3 AND OR ISZERO PUSH2 0x15AE JUMPI PUSH2 0x15AE PUSH2 0x1453 JUMP JUMPDEST POP POP SWAP3 SWAP2 POP POP JUMP INVALID LOG2 PUSH5 0x6970667358 0x22 SLT KECCAK256 GAS DUP9 CREATE SWAP1 SWAP11 CALLDATACOPY PUSH11 0x8FA665CC731F0A24BA366F 0xA5 MSTORE8 0xC1 PUSH14 0x3637F262B0E905EE124D64736F6C PUSH4 0x43000817 STOP CALLER PUSH1 0x80 PUSH1 0x40 MSTORE CALLVALUE DUP1 ISZERO PUSH2 0xF JUMPI PUSH0 DUP1 REVERT JUMPDEST POP PUSH1 0x1 DUP1 SLOAD PUSH1 0x1 PUSH1 0x1 PUSH1 0xA0 SHL SUB NOT AND CALLER SWAP1 DUP2 OR SWAP1 SWAP2 SSTORE PUSH1 0x40 MLOAD PUSH32 0xCE241D7CA1F669FEE44B6FC00B8EBA2DF3BB514EED0F6F668F8F89096E81ED94 SWAP1 PUSH0 SWAP1 LOG2 PUSH2 0xAD2 DUP1 PUSH2 0x5A PUSH0 CODECOPY PUSH0 RETURN INVALID PUSH1 0x80 PUSH1 0x40 MSTORE CALLVALUE DUP1 ISZERO PUSH2 0xF JUMPI PUSH0 DUP1 REVERT JUMPDEST POP PUSH1 0x4 CALLDATASIZE LT PUSH2 0xE5 JUMPI PUSH0 CALLDATALOAD PUSH1 0xE0 SHR DUP1 PUSH4 0xB7009613 GT PUSH2 0x88 JUMPI DUP1 PUSH4 0xD9972B96 GT PUSH2 0x63 JUMPI DUP1 PUSH4 0xD9972B96 EQ PUSH2 0x1F1 JUMPI DUP1 PUSH4 0xEC7DED0F EQ PUSH2 0x204 JUMPI DUP1 PUSH4 0xF268FDFB EQ PUSH2 0x217 JUMPI DUP1 PUSH4 0xFE0D0A29 EQ PUSH2 0x22A JUMPI PUSH0 DUP1 REVERT JUMPDEST DUP1 PUSH4 0xB7009613 EQ PUSH2 0x1A9 JUMPI DUP1 PUSH4 0xBF7E214F EQ PUSH2 0x1CC JUMPI DUP1 PUSH4 0xBFC019C6 EQ PUSH2 0x1DE JUMPI PUSH0 DUP1 REVERT JUMPDEST DUP1 PUSH4 0x8DA5CB5B GT PUSH2 0xC3 JUMPI DUP1 PUSH4 0x8DA5CB5B EQ PUSH2 0x124 JUMPI DUP1 PUSH4 0x8F38D8CC EQ PUSH2 0x154 JUMPI DUP1 PUSH4 0x9C21E909 EQ PUSH2 0x180 JUMPI DUP1 PUSH4 0xA8542F66 EQ PUSH2 0x193 JUMPI PUSH0 DUP1 REVERT JUMPDEST DUP1 PUSH4 0x13AF4035 EQ PUSH2 0xE9 JUMPI DUP1 PUSH4 0x59EB527B EQ PUSH2 0xFE JUMPI DUP1 PUSH4 0x7A9E5E4B EQ PUSH2 0x111 JUMPI JUMPDEST PUSH0 DUP1 REVERT JUMPDEST PUSH2 0xFC PUSH2 0xF7 CALLDATASIZE PUSH1 0x4 PUSH2 0x84F JUMP JUMPDEST PUSH2 0x23D JUMP JUMPDEST STOP JUMPDEST PUSH2 0xFC PUSH2 0x10C CALLDATASIZE PUSH1 0x4 PUSH2 0x88D JUMP JUMPDEST PUSH2 0x2C0 JUMP JUMPDEST PUSH2 0xFC PUSH2 0x11F CALLDATASIZE PUSH1 0x4 PUSH2 0x84F JUMP JUMPDEST PUSH2 0x353 JUMP JUMPDEST PUSH1 0x1 SLOAD PUSH2 0x137 SWAP1 PUSH1 0x1 PUSH1 0x1 PUSH1 0xA0 SHL SUB AND DUP2 JUMP JUMPDEST PUSH1 0x40 MLOAD PUSH1 0x1 PUSH1 0x1 PUSH1 0xA0 SHL SUB SWAP1 SWAP2 AND DUP2 MSTORE PUSH1 0x20 ADD JUMPDEST PUSH1 0x40 MLOAD DUP1 SWAP2 SUB SWAP1 RETURN JUMPDEST PUSH2 0x167 PUSH2 0x162 CALLDATASIZE PUSH1 0x4 PUSH2 0x8D3 JUMP JUMPDEST PUSH2 0x3CB JUMP JUMPDEST PUSH1 0x40 MLOAD PUSH1 0x1 PUSH1 0x1 PUSH1 0xE0 SHL SUB NOT SWAP1 SWAP2 AND DUP2 MSTORE PUSH1 0x20 ADD PUSH2 0x14B JUMP JUMPDEST PUSH2 0xFC PUSH2 0x18E CALLDATASIZE PUSH1 0x4 PUSH2 0x97E JUMP JUMPDEST PUSH2 0x3FA JUMP JUMPDEST PUSH2 0x19B PUSH0 NOT DUP2 JUMP JUMPDEST PUSH1 0x40 MLOAD SWAP1 DUP2 MSTORE PUSH1 0x20 ADD PUSH2 0x14B JUMP JUMPDEST PUSH2 0x1BC PUSH2 0x1B7 CALLDATASIZE PUSH1 0x4 PUSH2 0x97E JUMP JUMPDEST PUSH2 0x424 JUMP JUMPDEST PUSH1 0x40 MLOAD SWAP1 ISZERO ISZERO DUP2 MSTORE PUSH1 0x20 ADD PUSH2 0x14B JUMP JUMPDEST PUSH0 SLOAD PUSH2 0x137 SWAP1 PUSH1 0x1 PUSH1 0x1 PUSH1 0xA0 SHL SUB AND DUP2 JUMP JUMPDEST PUSH2 0xFC PUSH2 0x1EC CALLDATASIZE PUSH1 0x4 PUSH2 0x97E JUMP JUMPDEST PUSH2 0x62C JUMP JUMPDEST PUSH2 0x1BC PUSH2 0x1FF CALLDATASIZE PUSH1 0x4 PUSH2 0x9B9 JUMP JUMPDEST PUSH2 0x651 JUMP JUMPDEST PUSH2 0xFC PUSH2 0x212 CALLDATASIZE PUSH1 0x4 PUSH2 0x9EC JUMP JUMPDEST PUSH2 0x728 JUMP JUMPDEST PUSH2 0xFC PUSH2 0x225 CALLDATASIZE PUSH1 0x4 PUSH2 0x9EC JUMP JUMPDEST PUSH2 0x767 JUMP JUMPDEST PUSH2 0xFC PUSH2 0x238 CALLDATASIZE PUSH1 0x4 PUSH2 0x88D JUMP JUMPDEST PUSH2 0x7A2 JUMP JUMPDEST PUSH2 0x252 CALLER PUSH0 CALLDATALOAD PUSH1 0x1 PUSH1 0x1 PUSH1 0xE0 SHL SUB NOT AND PUSH2 0x651 JUMP JUMPDEST PUSH2 0x277 JUMPI PUSH1 0x40 MLOAD PUSH3 0x461BCD PUSH1 0xE5 SHL DUP2 MSTORE PUSH1 0x4 ADD PUSH2 0x26E SWAP1 PUSH2 0xA23 JUMP JUMPDEST PUSH1 0x40 MLOAD DUP1 SWAP2 SUB SWAP1 REVERT JUMPDEST PUSH1 0x1 DUP1 SLOAD PUSH1 0x1 PUSH1 0x1 PUSH1 0xA0 SHL SUB NOT AND PUSH1 0x1 PUSH1 0x1 PUSH1 0xA0 SHL SUB DUP4 AND SWAP1 DUP2 OR SWAP1 SWAP2 SSTORE PUSH1 0x40 MLOAD PUSH32 0xCE241D7CA1F669FEE44B6FC00B8EBA2DF3BB514EED0F6F668F8F89096E81ED94 SWAP1 PUSH0 SWAP1 LOG2 POP JUMP JUMPDEST PUSH2 0x2D5 CALLER PUSH0 CALLDATALOAD PUSH1 0x1 PUSH1 0x1 PUSH1 0xE0 SHL SUB NOT AND PUSH2 0x651 JUMP JUMPDEST PUSH2 0x2F1 JUMPI PUSH1 0x40 MLOAD PUSH3 0x461BCD PUSH1 0xE5 SHL DUP2 MSTORE PUSH1 0x4 ADD PUSH2 0x26E SWAP1 PUSH2 0xA23 JUMP JUMPDEST PUSH0 DUP4 DUP2 MSTORE PUSH1 0x2 PUSH1 0x20 SWAP1 DUP2 MSTORE PUSH1 0x40 DUP1 DUP4 KECCAK256 DUP6 DUP5 MSTORE DUP3 MSTORE DUP1 DUP4 KECCAK256 PUSH1 0x1 PUSH1 0x1 PUSH1 0xE0 SHL SUB NOT DUP6 AND DUP1 DUP6 MSTORE SWAP3 MSTORE DUP1 DUP4 KECCAK256 DUP1 SLOAD PUSH1 0xFF NOT AND SWAP1 SSTORE MLOAD SWAP1 SWAP2 DUP5 SWAP2 DUP7 SWAP2 PUSH32 0x95BA64C95D85E67AC83A0476C4A62AC2CF8AB2D0407545B8C9D79C3EEFA62829 SWAP2 LOG4 POP POP POP JUMP JUMPDEST PUSH2 0x368 CALLER PUSH0 CALLDATALOAD PUSH1 0x1 PUSH1 0x1 PUSH1 0xE0 SHL SUB NOT AND PUSH2 0x651 JUMP JUMPDEST PUSH2 0x384 JUMPI PUSH1 0x40 MLOAD PUSH3 0x461BCD PUSH1 0xE5 SHL DUP2 MSTORE PUSH1 0x4 ADD PUSH2 0x26E SWAP1 PUSH2 0xA23 JUMP JUMPDEST PUSH0 DUP1 SLOAD PUSH1 0x1 PUSH1 0x1 PUSH1 0xA0 SHL SUB NOT AND PUSH1 0x1 PUSH1 0x1 PUSH1 0xA0 SHL SUB DUP4 AND SWAP1 DUP2 OR DUP3 SSTORE PUSH1 0x40 MLOAD SWAP1 SWAP2 PUSH32 0x1ABEBEA81BFA2637F28358C371278FB15EDE7EA8DD28D2E03B112FF6D936ADA4 SWAP2 LOG2 POP JUMP JUMPDEST PUSH0 DUP2 PUSH1 0x40 MLOAD PUSH1 0x20 ADD PUSH2 0x3DD SWAP2 SWAP1 PUSH2 0xA51 JUMP JUMPDEST PUSH1 0x40 MLOAD PUSH1 0x20 DUP2 DUP4 SUB SUB DUP2 MSTORE SWAP1 PUSH1 0x40 MSTORE DUP1 MLOAD SWAP1 PUSH1 0x20 ADD KECCAK256 SWAP1 POP SWAP2 SWAP1 POP JUMP JUMPDEST PUSH2 0x41F DUP4 PUSH1 0x60 SHL PUSH1 0x1 PUSH1 0x1 PUSH1 0x60 SHL SUB NOT AND DUP4 PUSH1 0x60 SHL PUSH1 0x1 PUSH1 0x1 PUSH1 0x60 SHL SUB NOT AND DUP4 PUSH2 0x2C0 JUMP JUMPDEST POP POP POP JUMP JUMPDEST PUSH12 0xFFFFFFFFFFFFFFFFFFFFFFFF NOT PUSH1 0x60 DUP5 DUP2 SHL DUP3 AND PUSH0 DUP2 DUP2 MSTORE PUSH1 0x2 PUSH1 0x20 SWAP1 DUP2 MSTORE PUSH1 0x40 DUP1 DUP4 KECCAK256 SWAP5 DUP9 SWAP1 SHL SWAP1 SWAP6 AND DUP1 DUP4 MSTORE SWAP4 DUP2 MSTORE DUP5 DUP3 KECCAK256 PUSH1 0x1 PUSH1 0x1 PUSH1 0xE0 SHL SUB NOT DUP8 AND DUP4 MSTORE SWAP1 MSTORE SWAP3 DUP4 KECCAK256 SLOAD SWAP1 SWAP2 SWAP1 PUSH1 0xFF AND DUP1 PUSH2 0x49E JUMPI POP PUSH0 DUP3 DUP2 MSTORE PUSH1 0x2 PUSH1 0x20 SWAP1 DUP2 MSTORE PUSH1 0x40 DUP1 DUP4 KECCAK256 DUP5 DUP5 MSTORE DUP3 MSTORE DUP1 DUP4 KECCAK256 PUSH0 NOT DUP5 MSTORE SWAP1 SWAP2 MSTORE SWAP1 KECCAK256 SLOAD PUSH1 0xFF AND JUMPDEST DUP1 PUSH2 0x4D4 JUMPI POP PUSH0 DUP3 DUP2 MSTORE PUSH1 0x2 PUSH1 0x20 SWAP1 DUP2 MSTORE PUSH1 0x40 DUP1 DUP4 KECCAK256 PUSH0 NOT DUP5 MSTORE DUP3 MSTORE DUP1 DUP4 KECCAK256 PUSH1 0x1 PUSH1 0x1 PUSH1 0xE0 SHL SUB NOT DUP9 AND DUP5 MSTORE SWAP1 SWAP2 MSTORE SWAP1 KECCAK256 SLOAD PUSH1 0xFF AND JUMPDEST DUP1 PUSH2 0x4FD JUMPI POP PUSH0 DUP3 DUP2 MSTORE PUSH1 0x2 PUSH1 0x20 SWAP1 DUP2 MSTORE PUSH1 0x40 DUP1 DUP4 KECCAK256 PUSH0 NOT DUP5 MSTORE DUP3 MSTORE DUP1 DUP4 KECCAK256 SWAP1 SWAP2 MSTORE SWAP1 KECCAK256 SLOAD PUSH1 0xFF AND JUMPDEST DUP1 PUSH2 0x549 JUMPI POP PUSH0 DUP2 DUP2 MSTORE PUSH32 0x38B5B2CEAC7637132D27514FFCF440B705287635075AF7B8BD5ADCAA6A4CC5BB PUSH1 0x20 SWAP1 DUP2 MSTORE PUSH1 0x40 DUP1 DUP4 KECCAK256 PUSH1 0x1 PUSH1 0x1 PUSH1 0xE0 SHL SUB NOT DUP9 AND DUP5 MSTORE SWAP1 SWAP2 MSTORE SWAP1 KECCAK256 SLOAD PUSH1 0xFF AND JUMPDEST DUP1 PUSH2 0x58C JUMPI POP PUSH0 DUP2 DUP2 MSTORE PUSH32 0x38B5B2CEAC7637132D27514FFCF440B705287635075AF7B8BD5ADCAA6A4CC5BB PUSH1 0x20 SWAP1 DUP2 MSTORE PUSH1 0x40 DUP1 DUP4 KECCAK256 PUSH0 NOT DUP5 MSTORE SWAP1 SWAP2 MSTORE SWAP1 KECCAK256 SLOAD PUSH1 0xFF AND JUMPDEST DUP1 PUSH2 0x5CE JUMPI POP PUSH1 0x1 PUSH1 0x1 PUSH1 0xE0 SHL SUB NOT DUP5 AND PUSH0 SWAP1 DUP2 MSTORE PUSH32 0x47FA60FBC027AC3984EA309688A33182F4193C478B40BA8D294EB2CD3DDC4D97 PUSH1 0x20 MSTORE PUSH1 0x40 SWAP1 KECCAK256 SLOAD PUSH1 0xFF AND JUMPDEST DUP1 PUSH2 0x622 JUMPI POP PUSH0 NOT PUSH0 MSTORE PUSH32 0x47FA60FBC027AC3984EA309688A33182F4193C478B40BA8D294EB2CD3DDC4D97 PUSH1 0x20 MSTORE PUSH32 0xF423D1317B37667CD26005728BFFA7C8B0499E133951FCF8E814D4FC5F4C98F6 SLOAD PUSH1 0xFF AND JUMPDEST SWAP7 SWAP6 POP POP POP POP POP POP JUMP JUMPDEST PUSH2 0x41F DUP4 PUSH1 0x60 SHL PUSH1 0x1 PUSH1 0x1 PUSH1 0x60 SHL SUB NOT AND DUP4 PUSH1 0x60 SHL PUSH1 0x1 PUSH1 0x1 PUSH1 0x60 SHL SUB NOT AND DUP4 PUSH2 0x7A2 JUMP JUMPDEST PUSH0 ADDRESS PUSH1 0x1 PUSH1 0x1 PUSH1 0xA0 SHL SUB DUP5 AND SUB PUSH2 0x66A JUMPI POP PUSH1 0x1 PUSH2 0x722 JUMP JUMPDEST PUSH1 0x1 SLOAD PUSH1 0x1 PUSH1 0x1 PUSH1 0xA0 SHL SUB SWAP1 DUP2 AND SWAP1 DUP5 AND SUB PUSH2 0x688 JUMPI POP PUSH1 0x1 PUSH2 0x722 JUMP JUMPDEST PUSH0 SLOAD PUSH1 0x1 PUSH1 0x1 PUSH1 0xA0 SHL SUB AND PUSH2 0x69E JUMPI POP PUSH0 PUSH2 0x722 JUMP JUMPDEST PUSH0 SLOAD PUSH1 0x40 MLOAD PUSH4 0xB7009613 PUSH1 0xE0 SHL DUP2 MSTORE PUSH1 0x1 PUSH1 0x1 PUSH1 0xA0 SHL SUB DUP6 DUP2 AND PUSH1 0x4 DUP4 ADD MSTORE ADDRESS PUSH1 0x24 DUP4 ADD MSTORE PUSH1 0x1 PUSH1 0x1 PUSH1 0xE0 SHL SUB NOT DUP6 AND PUSH1 0x44 DUP4 ADD MSTORE SWAP1 SWAP2 AND SWAP1 PUSH4 0xB7009613 SWAP1 PUSH1 0x64 ADD PUSH1 0x20 PUSH1 0x40 MLOAD DUP1 DUP4 SUB DUP2 DUP7 GAS STATICCALL ISZERO DUP1 ISZERO PUSH2 0x6FB JUMPI RETURNDATASIZE PUSH0 DUP1 RETURNDATACOPY RETURNDATASIZE PUSH0 REVERT JUMPDEST POP POP POP POP PUSH1 0x40 MLOAD RETURNDATASIZE PUSH1 0x1F NOT PUSH1 0x1F DUP3 ADD AND DUP3 ADD DUP1 PUSH1 0x40 MSTORE POP DUP2 ADD SWAP1 PUSH2 0x71F SWAP2 SWAP1 PUSH2 0xA7D JUMP JUMPDEST SWAP1 POP JUMPDEST SWAP3 SWAP2 POP POP JUMP JUMPDEST PUSH2 0x763 DUP3 DUP3 PUSH2 0x1EC PUSH1 0x40 MLOAD DUP1 PUSH1 0x40 ADD PUSH1 0x40 MSTORE DUP1 PUSH1 0x15 DUP2 MSTORE PUSH1 0x20 ADD PUSH21 0x6275726E28616464726573732C75696E7432353629 PUSH1 0x58 SHL DUP2 MSTORE POP PUSH2 0x3CB JUMP JUMPDEST POP POP JUMP JUMPDEST PUSH2 0x763 DUP3 DUP3 PUSH2 0x1EC PUSH1 0x40 MLOAD DUP1 PUSH1 0x40 ADD PUSH1 0x40 MSTORE DUP1 PUSH1 0x15 DUP2 MSTORE PUSH1 0x20 ADD PUSH21 0x6D696E7428616464726573732C75696E7432353629 PUSH1 0x58 SHL DUP2 MSTORE POP PUSH2 0x3CB JUMP JUMPDEST PUSH2 0x7B7 CALLER PUSH0 CALLDATALOAD PUSH1 0x1 PUSH1 0x1 PUSH1 0xE0 SHL SUB NOT AND PUSH2 0x651 JUMP JUMPDEST PUSH2 0x7D3 JUMPI PUSH1 0x40 MLOAD PUSH3 0x461BCD PUSH1 0xE5 SHL DUP2 MSTORE PUSH1 0x4 ADD PUSH2 0x26E SWAP1 PUSH2 0xA23 JUMP JUMPDEST PUSH0 DUP4 DUP2 MSTORE PUSH1 0x2 PUSH1 0x20 SWAP1 DUP2 MSTORE PUSH1 0x40 DUP1 DUP4 KECCAK256 DUP6 DUP5 MSTORE DUP3 MSTORE DUP1 DUP4 KECCAK256 PUSH1 0x1 PUSH1 0x1 PUSH1 0xE0 SHL SUB NOT DUP6 AND DUP1 DUP6 MSTORE SWAP3 MSTORE DUP1 DUP4 KECCAK256 DUP1 SLOAD PUSH1 0xFF NOT AND PUSH1 0x1 OR SWAP1 SSTORE MLOAD SWAP1 SWAP2 DUP5 SWAP2 DUP7 SWAP2 PUSH32 0x6F50375045128971C5469D343039BA7B8E30A5B190453737B28BDA6F7A306771 SWAP2 LOG4 POP POP POP JUMP JUMPDEST PUSH1 0x1 PUSH1 0x1 PUSH1 0xA0 SHL SUB DUP2 AND DUP2 EQ PUSH2 0x84C JUMPI PUSH0 DUP1 REVERT JUMPDEST POP JUMP JUMPDEST PUSH0 PUSH1 0x20 DUP3 DUP5 SUB SLT ISZERO PUSH2 0x85F JUMPI PUSH0 DUP1 REVERT JUMPDEST DUP2 CALLDATALOAD PUSH2 0x86A DUP2 PUSH2 0x838 JUMP JUMPDEST SWAP4 SWAP3 POP POP POP JUMP JUMPDEST DUP1 CALLDATALOAD PUSH1 0x1 PUSH1 0x1 PUSH1 0xE0 SHL SUB NOT DUP2 AND DUP2 EQ PUSH2 0x888 JUMPI PUSH0 DUP1 REVERT JUMPDEST SWAP2 SWAP1 POP JUMP JUMPDEST PUSH0 DUP1 PUSH0 PUSH1 0x60 DUP5 DUP7 SUB SLT ISZERO PUSH2 0x89F JUMPI PUSH0 DUP1 REVERT JUMPDEST DUP4 CALLDATALOAD SWAP3 POP PUSH1 0x20 DUP5 ADD CALLDATALOAD SWAP2 POP PUSH2 0x8B6 PUSH1 0x40 DUP6 ADD PUSH2 0x871 JUMP JUMPDEST SWAP1 POP SWAP3 POP SWAP3 POP SWAP3 JUMP JUMPDEST PUSH4 0x4E487B71 PUSH1 0xE0 SHL PUSH0 MSTORE PUSH1 0x41 PUSH1 0x4 MSTORE PUSH1 0x24 PUSH0 REVERT JUMPDEST PUSH0 PUSH1 0x20 DUP3 DUP5 SUB SLT ISZERO PUSH2 0x8E3 JUMPI PUSH0 DUP1 REVERT JUMPDEST DUP2 CALLDATALOAD PUSH8 0xFFFFFFFFFFFFFFFF DUP1 DUP3 GT ISZERO PUSH2 0x8FA JUMPI PUSH0 DUP1 REVERT JUMPDEST DUP2 DUP5 ADD SWAP2 POP DUP5 PUSH1 0x1F DUP4 ADD SLT PUSH2 0x90D JUMPI PUSH0 DUP1 REVERT JUMPDEST DUP2 CALLDATALOAD DUP2 DUP2 GT ISZERO PUSH2 0x91F JUMPI PUSH2 0x91F PUSH2 0x8BF JUMP JUMPDEST PUSH1 0x40 MLOAD PUSH1 0x1F DUP3 ADD PUSH1 0x1F NOT SWAP1 DUP2 AND PUSH1 0x3F ADD AND DUP2 ADD SWAP1 DUP4 DUP3 GT DUP2 DUP4 LT OR ISZERO PUSH2 0x947 JUMPI PUSH2 0x947 PUSH2 0x8BF JUMP JUMPDEST DUP2 PUSH1 0x40 MSTORE DUP3 DUP2 MSTORE DUP8 PUSH1 0x20 DUP5 DUP8 ADD ADD GT ISZERO PUSH2 0x95F JUMPI PUSH0 DUP1 REVERT JUMPDEST DUP3 PUSH1 0x20 DUP7 ADD PUSH1 0x20 DUP4 ADD CALLDATACOPY PUSH0 SWAP3 DUP2 ADD PUSH1 0x20 ADD SWAP3 SWAP1 SWAP3 MSTORE POP SWAP6 SWAP5 POP POP POP POP POP JUMP JUMPDEST PUSH0 DUP1 PUSH0 PUSH1 0x60 DUP5 DUP7 SUB SLT ISZERO PUSH2 0x990 JUMPI PUSH0 DUP1 REVERT JUMPDEST DUP4 CALLDATALOAD PUSH2 0x99B DUP2 PUSH2 0x838 JUMP JUMPDEST SWAP3 POP PUSH1 0x20 DUP5 ADD CALLDATALOAD PUSH2 0x9AB DUP2 PUSH2 0x838 JUMP JUMPDEST SWAP2 POP PUSH2 0x8B6 PUSH1 0x40 DUP6 ADD PUSH2 0x871 JUMP JUMPDEST PUSH0 DUP1 PUSH1 0x40 DUP4 DUP6 SUB SLT ISZERO PUSH2 0x9CA JUMPI PUSH0 DUP1 REVERT JUMPDEST DUP3 CALLDATALOAD PUSH2 0x9D5 DUP2 PUSH2 0x838 JUMP JUMPDEST SWAP2 POP PUSH2 0x9E3 PUSH1 0x20 DUP5 ADD PUSH2 0x871 JUMP JUMPDEST SWAP1 POP SWAP3 POP SWAP3 SWAP1 POP JUMP JUMPDEST PUSH0 DUP1 PUSH1 0x40 DUP4 DUP6 SUB SLT ISZERO PUSH2 0x9FD JUMPI PUSH0 DUP1 REVERT JUMPDEST DUP3 CALLDATALOAD PUSH2 0xA08 DUP2 PUSH2 0x838 JUMP JUMPDEST SWAP2 POP PUSH1 0x20 DUP4 ADD CALLDATALOAD PUSH2 0xA18 DUP2 PUSH2 0x838 JUMP JUMPDEST DUP1 SWAP2 POP POP SWAP3 POP SWAP3 SWAP1 POP JUMP JUMPDEST PUSH1 0x20 DUP1 DUP3 MSTORE PUSH1 0x14 SWAP1 DUP3 ADD MSTORE PUSH20 0x191CCB585D5D1A0B5D5B985D5D1A1BDC9A5E9959 PUSH1 0x62 SHL PUSH1 0x40 DUP3 ADD MSTORE PUSH1 0x60 ADD SWAP1 JUMP JUMPDEST PUSH0 DUP3 MLOAD PUSH0 JUMPDEST DUP2 DUP2 LT ISZERO PUSH2 0xA70 JUMPI PUSH1 0x20 DUP2 DUP7 ADD DUP2 ADD MLOAD DUP6 DUP4 ADD MSTORE ADD PUSH2 0xA56 JUMP JUMPDEST POP PUSH0 SWAP3 ADD SWAP2 DUP3 MSTORE POP SWAP2 SWAP1 POP JUMP JUMPDEST PUSH0 PUSH1 0x20 DUP3 DUP5 SUB SLT ISZERO PUSH2 0xA8D JUMPI PUSH0 DUP1 REVERT JUMPDEST DUP2 MLOAD DUP1 ISZERO ISZERO DUP2 EQ PUSH2 0x86A JUMPI PUSH0 DUP1 REVERT INVALID LOG2 PUSH5 0x6970667358 0x22 SLT KECCAK256 0xA8 0xE0 0x49 CALLDATALOAD JUMP PUSH25 0x54FF0ED8A792545C983704825C30C8F94591DF12192C645951 0xC2 PUSH5 0x736F6C6343 STOP ADDMOD OR STOP CALLER PUSH1 0x80 PUSH1 0x40 MSTORE CALLVALUE DUP1 ISZERO PUSH3 0x10 JUMPI PUSH0 DUP1 REVERT JUMPDEST POP PUSH1 0x40 MLOAD PUSH3 0x1B1A CODESIZE SUB DUP1 PUSH3 0x1B1A DUP4 CODECOPY DUP2 ADD PUSH1 0x40 DUP2 SWAP1 MSTORE PUSH3 0x33 SWAP2 PUSH3 0xE0 JUMP JUMPDEST PUSH1 0x1 DUP1 SLOAD PUSH1 0x1 PUSH1 0x1 PUSH1 0xA0 SHL SUB NOT AND CALLER SWAP1 DUP2 OR SWAP1 SWAP2 SSTORE PUSH1 0x40 MLOAD PUSH32 0xCE241D7CA1F669FEE44B6FC00B8EBA2DF3BB514EED0F6F668F8F89096E81ED94 SWAP1 PUSH0 SWAP1 LOG2 PUSH1 0x2 DUP1 SLOAD PUSH1 0x1 PUSH1 0x1 PUSH1 0xA0 SHL SUB SWAP6 DUP7 AND PUSH1 0x1 PUSH1 0x1 PUSH1 0xA0 SHL SUB NOT SWAP2 DUP3 AND OR SWAP1 SWAP2 SSTORE PUSH1 0x3 DUP1 SLOAD SWAP5 DUP7 AND SWAP5 DUP3 AND SWAP5 SWAP1 SWAP5 OR SWAP1 SWAP4 SSTORE PUSH1 0x5 DUP1 SLOAD SWAP3 DUP6 AND SWAP3 DUP5 AND SWAP3 SWAP1 SWAP3 OR SWAP1 SWAP2 SSTORE PUSH1 0x4 DUP1 SLOAD SWAP2 SWAP1 SWAP4 AND SWAP2 AND OR SWAP1 SSTORE PUSH3 0x13A JUMP JUMPDEST DUP1 MLOAD PUSH1 0x1 PUSH1 0x1 PUSH1 0xA0 SHL SUB DUP2 AND DUP2 EQ PUSH3 0xDB JUMPI PUSH0 DUP1 REVERT JUMPDEST SWAP2 SWAP1 POP JUMP JUMPDEST PUSH0 DUP1 PUSH0 DUP1 PUSH1 0x80 DUP6 DUP8 SUB SLT ISZERO PUSH3 0xF4 JUMPI PUSH0 DUP1 REVERT JUMPDEST PUSH3 0xFF DUP6 PUSH3 0xC4 JUMP JUMPDEST SWAP4 POP PUSH3 0x10F PUSH1 0x20 DUP7 ADD PUSH3 0xC4 JUMP JUMPDEST SWAP3 POP PUSH3 0x11F PUSH1 0x40 DUP7 ADD PUSH3 0xC4 JUMP JUMPDEST SWAP2 POP PUSH3 0x12F PUSH1 0x60 DUP7 ADD PUSH3 0xC4 JUMP JUMPDEST SWAP1 POP SWAP3 SWAP6 SWAP2 SWAP5 POP SWAP3 POP JUMP JUMPDEST PUSH2 0x19D2 DUP1 PUSH3 0x148 PUSH0 CODECOPY PUSH0 RETURN INVALID PUSH1 0x80 PUSH1 0x40 MSTORE PUSH1 0x4 CALLDATASIZE LT PUSH2 0x1FC JUMPI PUSH0 CALLDATALOAD PUSH1 0xE0 SHR DUP1 PUSH4 0x82E56CF8 GT PUSH2 0x113 JUMPI DUP1 PUSH4 0xC3124525 GT PUSH2 0x9D JUMPI DUP1 PUSH4 0xD99B54A6 GT PUSH2 0x6D JUMPI DUP1 PUSH4 0xD99B54A6 EQ PUSH2 0x597 JUMPI DUP1 PUSH4 0xE02B2D07 EQ PUSH2 0x5C2 JUMPI DUP1 PUSH4 0xE3D670D7 EQ PUSH2 0x5D7 JUMPI DUP1 PUSH4 0xF3DAC980 EQ PUSH2 0x602 JUMPI DUP1 PUSH4 0xFDD2937E EQ PUSH2 0x617 JUMPI PUSH0 DUP1 REVERT JUMPDEST DUP1 PUSH4 0xC3124525 EQ PUSH2 0x4FF JUMPI DUP1 PUSH4 0xCE7C2AC2 EQ PUSH2 0x51E JUMPI DUP1 PUSH4 0xCFBF661C EQ PUSH2 0x549 JUMPI DUP1 PUSH4 0xD9972B96 EQ PUSH2 0x568 JUMPI PUSH0 DUP1 REVERT JUMPDEST DUP1 PUSH4 0xA64C8D83 GT PUSH2 0xE3 JUMPI DUP1 PUSH4 0xA64C8D83 EQ PUSH2 0x47A JUMPI DUP1 PUSH4 0xA9D75B2B EQ PUSH2 0x499 JUMPI DUP1 PUSH4 0xAEDD5F22 EQ PUSH2 0x4B8 JUMPI DUP1 PUSH4 0xBF7E214F EQ PUSH2 0x4CD JUMPI DUP1 PUSH4 0xC264A063 EQ PUSH2 0x4EB JUMPI PUSH0 DUP1 REVERT JUMPDEST DUP1 PUSH4 0x82E56CF8 EQ PUSH2 0x412 JUMPI DUP1 PUSH4 0x89F4624C EQ PUSH2 0x427 JUMPI DUP1 PUSH4 0x8CE74426 EQ PUSH2 0x43C JUMPI DUP1 PUSH4 0x8DA5CB5B EQ PUSH2 0x45B JUMPI PUSH0 DUP1 REVERT JUMPDEST DUP1 PUSH4 0x450DD5D1 GT PUSH2 0x194 JUMPI DUP1 PUSH4 0x696666ED GT PUSH2 0x164 JUMPI DUP1 PUSH4 0x696666ED EQ PUSH2 0x38B JUMPI DUP1 PUSH4 0x6A6C91F9 EQ PUSH2 0x3A0 JUMPI DUP1 PUSH4 0x71C21934 EQ PUSH2 0x3BF JUMPI DUP1 PUSH4 0x7A9E5E4B EQ PUSH2 0x3DE JUMPI DUP1 PUSH4 0x7B480EFF EQ PUSH2 0x3FD JUMPI PUSH0 DUP1 REVERT JUMPDEST DUP1 PUSH4 0x450DD5D1 EQ PUSH2 0x324 JUMPI DUP1 PUSH4 0x548DDE28 EQ PUSH2 0x339 JUMPI DUP1 PUSH4 0x5E07B869 EQ PUSH2 0x358 JUMPI DUP1 PUSH4 0x5E7E60C0 EQ PUSH2 0x36C JUMPI PUSH0 DUP1 REVERT JUMPDEST DUP1 PUSH4 0x299657DA GT PUSH2 0x1CF JUMPI DUP1 PUSH4 0x299657DA EQ PUSH2 0x290 JUMPI DUP1 PUSH4 0x2C754A03 EQ PUSH2 0x2A3 JUMPI DUP1 PUSH4 0x3455C30B EQ PUSH2 0x2DA JUMPI DUP1 PUSH4 0x432DA565 EQ PUSH2 0x305 JUMPI PUSH0 DUP1 REVERT JUMPDEST DUP1 PUSH4 0x13AF4035 EQ PUSH2 0x200 JUMPI DUP1 PUSH4 0x17D145A2 EQ PUSH2 0x221 JUMPI DUP1 PUSH4 0x1877BB5C EQ PUSH2 0x249 JUMPI DUP1 PUSH4 0x28D122F8 EQ PUSH2 0x27D JUMPI JUMPDEST PUSH0 DUP1 REVERT JUMPDEST CALLVALUE DUP1 ISZERO PUSH2 0x20B JUMPI PUSH0 DUP1 REVERT JUMPDEST POP PUSH2 0x21F PUSH2 0x21A CALLDATASIZE PUSH1 0x4 PUSH2 0x1770 JUMP JUMPDEST PUSH2 0x62C JUMP JUMPDEST STOP JUMPDEST CALLVALUE DUP1 ISZERO PUSH2 0x22C JUMPI PUSH0 DUP1 REVERT JUMPDEST POP PUSH2 0x236 PUSH1 0x6 SLOAD DUP2 JUMP JUMPDEST PUSH1 0x40 MLOAD SWAP1 DUP2 MSTORE PUSH1 0x20 ADD JUMPDEST PUSH1 0x40 MLOAD DUP1 SWAP2 SUB SWAP1 RETURN JUMPDEST CALLVALUE DUP1 ISZERO PUSH2 0x254 JUMPI PUSH0 DUP1 REVERT JUMPDEST POP PUSH2 0x236 PUSH2 0x263 CALLDATASIZE PUSH1 0x4 PUSH2 0x1770 JUMP JUMPDEST PUSH1 0x1 PUSH1 0x1 PUSH1 0xA0 SHL SUB AND PUSH0 SWAP1 DUP2 MSTORE PUSH1 0xD PUSH1 0x20 MSTORE PUSH1 0x40 SWAP1 KECCAK256 SLOAD SWAP1 JUMP JUMPDEST PUSH2 0x21F PUSH2 0x28B CALLDATASIZE PUSH1 0x4 PUSH2 0x178B JUMP JUMPDEST PUSH2 0x6AF JUMP JUMPDEST PUSH2 0x21F PUSH2 0x29E CALLDATASIZE PUSH1 0x4 PUSH2 0x178B JUMP JUMPDEST PUSH2 0xBB2 JUMP JUMPDEST CALLVALUE DUP1 ISZERO PUSH2 0x2AE JUMPI PUSH0 DUP1 REVERT JUMPDEST POP PUSH1 0x14 SLOAD PUSH2 0x2C2 SWAP1 PUSH1 0x1 PUSH1 0x1 PUSH1 0xA0 SHL SUB AND DUP2 JUMP JUMPDEST PUSH1 0x40 MLOAD PUSH1 0x1 PUSH1 0x1 PUSH1 0xA0 SHL SUB SWAP1 SWAP2 AND DUP2 MSTORE PUSH1 0x20 ADD PUSH2 0x240 JUMP JUMPDEST CALLVALUE DUP1 ISZERO PUSH2 0x2E5 JUMPI PUSH0 DUP1 REVERT JUMPDEST POP PUSH2 0x236 PUSH2 0x2F4 CALLDATASIZE PUSH1 0x4 PUSH2 0x1770 JUMP JUMPDEST PUSH1 0xF PUSH1 0x20 MSTORE PUSH0 SWAP1 DUP2 MSTORE PUSH1 0x40 SWAP1 KECCAK256 SLOAD DUP2 JUMP JUMPDEST CALLVALUE DUP1 ISZERO PUSH2 0x310 JUMPI PUSH0 DUP1 REVERT JUMPDEST POP PUSH2 0x21F PUSH2 0x31F CALLDATASIZE PUSH1 0x4 PUSH2 0x1770 JUMP JUMPDEST PUSH2 0x1026 JUMP JUMPDEST CALLVALUE DUP1 ISZERO PUSH2 0x32F JUMPI PUSH0 DUP1 REVERT JUMPDEST POP PUSH2 0x236 PUSH1 0x12 SLOAD DUP2 JUMP JUMPDEST CALLVALUE DUP1 ISZERO PUSH2 0x344 JUMPI PUSH0 DUP1 REVERT JUMPDEST POP PUSH2 0x21F PUSH2 0x353 CALLDATASIZE PUSH1 0x4 PUSH2 0x17A2 JUMP JUMPDEST PUSH2 0x1079 JUMP JUMPDEST CALLVALUE DUP1 ISZERO PUSH2 0x363 JUMPI PUSH0 DUP1 REVERT JUMPDEST POP PUSH1 0x6 SLOAD PUSH2 0x236 JUMP JUMPDEST CALLVALUE DUP1 ISZERO PUSH2 0x377 JUMPI PUSH0 DUP1 REVERT JUMPDEST POP PUSH2 0x21F PUSH2 0x386 CALLDATASIZE PUSH1 0x4 PUSH2 0x1770 JUMP JUMPDEST PUSH2 0x10DD JUMP JUMPDEST CALLVALUE DUP1 ISZERO PUSH2 0x396 JUMPI PUSH0 DUP1 REVERT JUMPDEST POP PUSH2 0x236 PUSH1 0x13 SLOAD DUP2 JUMP JUMPDEST CALLVALUE DUP1 ISZERO PUSH2 0x3AB JUMPI PUSH0 DUP1 REVERT JUMPDEST POP PUSH1 0x5 SLOAD PUSH2 0x2C2 SWAP1 PUSH1 0x1 PUSH1 0x1 PUSH1 0xA0 SHL SUB AND DUP2 JUMP JUMPDEST CALLVALUE DUP1 ISZERO PUSH2 0x3CA JUMPI PUSH0 DUP1 REVERT JUMPDEST POP PUSH1 0x3 SLOAD PUSH2 0x2C2 SWAP1 PUSH1 0x1 PUSH1 0x1 PUSH1 0xA0 SHL SUB AND DUP2 JUMP JUMPDEST CALLVALUE DUP1 ISZERO PUSH2 0x3E9 JUMPI PUSH0 DUP1 REVERT JUMPDEST POP PUSH2 0x21F PUSH2 0x3F8 CALLDATASIZE PUSH1 0x4 PUSH2 0x1770 JUMP JUMPDEST PUSH2 0x1130 JUMP JUMPDEST CALLVALUE DUP1 ISZERO PUSH2 0x408 JUMPI PUSH0 DUP1 REVERT JUMPDEST POP PUSH2 0x236 PUSH1 0x11 SLOAD DUP2 JUMP JUMPDEST CALLVALUE DUP1 ISZERO PUSH2 0x41D JUMPI PUSH0 DUP1 REVERT JUMPDEST POP PUSH2 0x236 PUSH1 0xC SLOAD DUP2 JUMP JUMPDEST CALLVALUE DUP1 ISZERO PUSH2 0x432 JUMPI PUSH0 DUP1 REVERT JUMPDEST POP PUSH2 0x236 PUSH1 0xA SLOAD DUP2 JUMP JUMPDEST CALLVALUE DUP1 ISZERO PUSH2 0x447 JUMPI PUSH0 DUP1 REVERT JUMPDEST POP PUSH1 0x4 SLOAD PUSH2 0x2C2 SWAP1 PUSH1 0x1 PUSH1 0x1 PUSH1 0xA0 SHL SUB AND DUP2 JUMP JUMPDEST CALLVALUE DUP1 ISZERO PUSH2 0x466 JUMPI PUSH0 DUP1 REVERT JUMPDEST POP PUSH1 0x1 SLOAD PUSH2 0x2C2 SWAP1 PUSH1 0x1 PUSH1 0x1 PUSH1 0xA0 SHL SUB AND DUP2 JUMP JUMPDEST CALLVALUE DUP1 ISZERO PUSH2 0x485 JUMPI PUSH0 DUP1 REVERT JUMPDEST POP PUSH2 0x236 PUSH2 0x494 CALLDATASIZE PUSH1 0x4 PUSH2 0x1770 JUMP JUMPDEST PUSH2 0x11A8 JUMP JUMPDEST CALLVALUE DUP1 ISZERO PUSH2 0x4A4 JUMPI PUSH0 DUP1 REVERT JUMPDEST POP PUSH1 0x2 SLOAD PUSH2 0x2C2 SWAP1 PUSH1 0x1 PUSH1 0x1 PUSH1 0xA0 SHL SUB AND DUP2 JUMP JUMPDEST CALLVALUE DUP1 ISZERO PUSH2 0x4C3 JUMPI PUSH0 DUP1 REVERT JUMPDEST POP PUSH2 0x236 PUSH1 0x9 SLOAD DUP2 JUMP JUMPDEST CALLVALUE DUP1 ISZERO PUSH2 0x4D8 JUMPI PUSH0 DUP1 REVERT JUMPDEST POP PUSH0 SLOAD PUSH2 0x2C2 SWAP1 PUSH1 0x1 PUSH1 0x1 PUSH1 0xA0 SHL SUB AND DUP2 JUMP JUMPDEST CALLVALUE DUP1 ISZERO PUSH2 0x4F6 JUMPI PUSH0 DUP1 REVERT JUMPDEST POP PUSH2 0x21F PUSH2 0x11D0 JUMP JUMPDEST CALLVALUE DUP1 ISZERO PUSH2 0x50A JUMPI PUSH0 DUP1 REVERT JUMPDEST POP PUSH1 0x15 SLOAD PUSH2 0x2C2 SWAP1 PUSH1 0x1 PUSH1 0x1 PUSH1 0xA0 SHL SUB AND DUP2 JUMP JUMPDEST CALLVALUE DUP1 ISZERO PUSH2 0x529 JUMPI PUSH0 DUP1 REVERT JUMPDEST POP PUSH2 0x236 PUSH2 0x538 CALLDATASIZE PUSH1 0x4 PUSH2 0x1770 JUMP JUMPDEST PUSH1 0xD PUSH1 0x20 MSTORE PUSH0 SWAP1 DUP2 MSTORE PUSH1 0x40 SWAP1 KECCAK256 SLOAD DUP2 JUMP JUMPDEST CALLVALUE DUP1 ISZERO PUSH2 0x554 JUMPI PUSH0 DUP1 REVERT JUMPDEST POP PUSH2 0x236 PUSH2 0x563 CALLDATASIZE PUSH1 0x4 PUSH2 0x1770 JUMP JUMPDEST PUSH2 0x1296 JUMP JUMPDEST CALLVALUE DUP1 ISZERO PUSH2 0x573 JUMPI PUSH0 DUP1 REVERT JUMPDEST POP PUSH2 0x587 PUSH2 0x582 CALLDATASIZE PUSH1 0x4 PUSH2 0x17CB JUMP JUMPDEST PUSH2 0x12ED JUMP JUMPDEST PUSH1 0x40 MLOAD SWAP1 ISZERO ISZERO DUP2 MSTORE PUSH1 0x20 ADD PUSH2 0x240 JUMP JUMPDEST CALLVALUE DUP1 ISZERO PUSH2 0x5A2 JUMPI PUSH0 DUP1 REVERT JUMPDEST POP PUSH2 0x236 PUSH2 0x5B1 CALLDATASIZE PUSH1 0x4 PUSH2 0x1770 JUMP JUMPDEST PUSH1 0xB PUSH1 0x20 MSTORE PUSH0 SWAP1 DUP2 MSTORE PUSH1 0x40 SWAP1 KECCAK256 SLOAD DUP2 JUMP JUMPDEST CALLVALUE DUP1 ISZERO PUSH2 0x5CD JUMPI PUSH0 DUP1 REVERT JUMPDEST POP PUSH2 0x236 PUSH1 0x10 SLOAD DUP2 JUMP JUMPDEST CALLVALUE DUP1 ISZERO PUSH2 0x5E2 JUMPI PUSH0 DUP1 REVERT JUMPDEST POP PUSH2 0x236 PUSH2 0x5F1 CALLDATASIZE PUSH1 0x4 PUSH2 0x1770 JUMP JUMPDEST PUSH1 0xE PUSH1 0x20 MSTORE PUSH0 SWAP1 DUP2 MSTORE PUSH1 0x40 SWAP1 KECCAK256 SLOAD DUP2 JUMP JUMPDEST CALLVALUE DUP1 ISZERO PUSH2 0x60D JUMPI PUSH0 DUP1 REVERT JUMPDEST POP PUSH2 0x236 PUSH1 0x8 SLOAD DUP2 JUMP JUMPDEST CALLVALUE DUP1 ISZERO PUSH2 0x622 JUMPI PUSH0 DUP1 REVERT JUMPDEST POP PUSH2 0x236 PUSH1 0x7 SLOAD DUP2 JUMP JUMPDEST PUSH2 0x641 CALLER PUSH0 CALLDATALOAD PUSH1 0x1 PUSH1 0x1 PUSH1 0xE0 SHL SUB NOT AND PUSH2 0x12ED JUMP JUMPDEST PUSH2 0x666 JUMPI PUSH1 0x40 MLOAD PUSH3 0x461BCD PUSH1 0xE5 SHL DUP2 MSTORE PUSH1 0x4 ADD PUSH2 0x65D SWAP1 PUSH2 0x180E JUMP JUMPDEST PUSH1 0x40 MLOAD DUP1 SWAP2 SUB SWAP1 REVERT JUMPDEST PUSH1 0x1 DUP1 SLOAD PUSH1 0x1 PUSH1 0x1 PUSH1 0xA0 SHL SUB NOT AND PUSH1 0x1 PUSH1 0x1 PUSH1 0xA0 SHL SUB DUP4 AND SWAP1 DUP2 OR SWAP1 SWAP2 SSTORE PUSH1 0x40 MLOAD PUSH32 0xCE241D7CA1F669FEE44B6FC00B8EBA2DF3BB514EED0F6F668F8F89096E81ED94 SWAP1 PUSH0 SWAP1 LOG2 POP JUMP JUMPDEST PUSH1 0x40 MLOAD PUSH1 0x4 CALLDATALOAD SWAP1 PUSH1 0x24 CALLDATALOAD SWAP1 DUP2 SWAP1 DUP4 SWAP1 CALLER SWAP1 PUSH0 DUP1 CALLDATALOAD PUSH1 0x1 PUSH1 0x1 PUSH1 0xE0 SHL SUB NOT AND SWAP2 PUSH2 0x6DB SWAP2 CALLVALUE SWAP2 CALLDATASIZE SWAP1 PUSH2 0x183C JUMP JUMPDEST PUSH1 0x40 MLOAD DUP1 SWAP2 SUB SWAP1 LOG4 PUSH2 0x6EB PUSH2 0x13C2 JUMP JUMPDEST PUSH1 0x3 SLOAD PUSH1 0x40 MLOAD PUSH4 0x70A08231 PUSH1 0xE0 SHL DUP2 MSTORE CALLER PUSH1 0x4 DUP3 ADD MSTORE DUP5 SWAP2 PUSH1 0x1 PUSH1 0x1 PUSH1 0xA0 SHL SUB AND SWAP1 PUSH4 0x70A08231 SWAP1 PUSH1 0x24 ADD PUSH1 0x20 PUSH1 0x40 MLOAD DUP1 DUP4 SUB DUP2 DUP7 GAS STATICCALL ISZERO DUP1 ISZERO PUSH2 0x731 JUMPI RETURNDATASIZE PUSH0 DUP1 RETURNDATACOPY RETURNDATASIZE PUSH0 REVERT JUMPDEST POP POP POP POP PUSH1 0x40 MLOAD RETURNDATASIZE PUSH1 0x1F NOT PUSH1 0x1F DUP3 ADD AND DUP3 ADD DUP1 PUSH1 0x40 MSTORE POP DUP2 ADD SWAP1 PUSH2 0x755 SWAP2 SWAP1 PUSH2 0x1871 JUMP JUMPDEST LT ISZERO PUSH2 0x7A3 JUMPI PUSH1 0x40 MLOAD PUSH3 0x461BCD PUSH1 0xE5 SHL DUP2 MSTORE PUSH1 0x20 PUSH1 0x4 DUP3 ADD MSTORE PUSH1 0x1D PUSH1 0x24 DUP3 ADD MSTORE PUSH32 0x796F75206861766520696E73756666696369656E742062616C616E6365000000 PUSH1 0x44 DUP3 ADD MSTORE PUSH1 0x64 ADD PUSH2 0x65D JUMP JUMPDEST PUSH0 PUSH1 0x11 SLOAD DUP5 PUSH2 0x7B2 SWAP2 SWAP1 PUSH2 0x189C JUMP JUMPDEST PUSH1 0x2 SLOAD PUSH1 0x40 MLOAD PUSH4 0x70A08231 PUSH1 0xE0 SHL DUP2 MSTORE ADDRESS PUSH1 0x4 DUP3 ADD MSTORE SWAP2 SWAP3 POP DUP3 SWAP2 PUSH1 0x1 PUSH1 0x1 PUSH1 0xA0 SHL SUB SWAP1 SWAP2 AND SWAP1 PUSH4 0x70A08231 SWAP1 PUSH1 0x24 ADD PUSH1 0x20 PUSH1 0x40 MLOAD DUP1 DUP4 SUB DUP2 DUP7 GAS STATICCALL ISZERO DUP1 ISZERO PUSH2 0x7FD JUMPI RETURNDATASIZE PUSH0 DUP1 RETURNDATACOPY RETURNDATASIZE PUSH0 REVERT JUMPDEST POP POP POP POP PUSH1 0x40 MLOAD RETURNDATASIZE PUSH1 0x1F NOT PUSH1 0x1F DUP3 ADD AND DUP3 ADD DUP1 PUSH1 0x40 MSTORE POP DUP2 ADD SWAP1 PUSH2 0x821 SWAP2 SWAP1 PUSH2 0x1871 JUMP JUMPDEST LT ISZERO PUSH2 0x86F JUMPI PUSH1 0x40 MLOAD PUSH3 0x461BCD PUSH1 0xE5 SHL DUP2 MSTORE PUSH1 0x20 PUSH1 0x4 DUP3 ADD MSTORE PUSH1 0x1D PUSH1 0x24 DUP3 ADD MSTORE PUSH32 0x796F75206861766520696E73756666696369656E742062616C616E6365000000 PUSH1 0x44 DUP3 ADD MSTORE PUSH1 0x64 ADD PUSH2 0x65D JUMP JUMPDEST PUSH1 0x6 SLOAD PUSH2 0x87C SWAP1 DUP3 PUSH2 0x13CC JUMP JUMPDEST PUSH1 0x6 SSTORE PUSH1 0x7 SLOAD PUSH2 0x88C SWAP1 DUP6 PUSH2 0x13CC JUMP JUMPDEST PUSH1 0x7 SSTORE CALLER PUSH0 SWAP1 DUP2 MSTORE PUSH1 0xD PUSH1 0x20 MSTORE PUSH1 0x40 SWAP1 KECCAK256 SLOAD PUSH2 0x8A8 SWAP1 DUP3 PUSH2 0x13CC JUMP JUMPDEST CALLER PUSH0 SWAP1 DUP2 MSTORE PUSH1 0xD PUSH1 0x20 SWAP1 DUP2 MSTORE PUSH1 0x40 DUP1 DUP4 KECCAK256 SWAP4 SWAP1 SWAP4 SSTORE PUSH1 0xE SWAP1 MSTORE KECCAK256 SLOAD PUSH2 0x8CD SWAP1 DUP6 PUSH2 0x13CC JUMP JUMPDEST CALLER PUSH0 DUP2 DUP2 MSTORE PUSH1 0xE PUSH1 0x20 MSTORE PUSH1 0x40 SWAP1 DUP2 SWAP1 KECCAK256 SWAP3 SWAP1 SWAP3 SSTORE PUSH1 0x15 SLOAD SWAP2 MLOAD PUSH4 0xE6178107 PUSH1 0xE0 SHL DUP2 MSTORE PUSH1 0x4 DUP2 ADD SWAP2 SWAP1 SWAP2 MSTORE PUSH1 0x24 DUP2 ADD DUP4 SWAP1 MSTORE PUSH1 0x1 PUSH1 0x1 PUSH1 0xA0 SHL SUB SWAP1 SWAP2 AND SWAP1 PUSH4 0xE6178107 SWAP1 PUSH1 0x44 ADD PUSH0 PUSH1 0x40 MLOAD DUP1 DUP4 SUB DUP2 PUSH0 DUP8 DUP1 EXTCODESIZE ISZERO DUP1 ISZERO PUSH2 0x92B JUMPI PUSH0 DUP1 REVERT JUMPDEST POP GAS CALL ISZERO DUP1 ISZERO PUSH2 0x93D JUMPI RETURNDATASIZE PUSH0 DUP1 RETURNDATACOPY RETURNDATASIZE PUSH0 REVERT JUMPDEST POP POP PUSH1 0x15 SLOAD PUSH1 0x40 MLOAD PUSH4 0xD574B4C9 PUSH1 0xE0 SHL DUP2 MSTORE CALLER PUSH1 0x4 DUP3 ADD MSTORE PUSH1 0x24 DUP2 ADD DUP9 SWAP1 MSTORE PUSH1 0x1 PUSH1 0x1 PUSH1 0xA0 SHL SUB SWAP1 SWAP2 AND SWAP3 POP PUSH4 0xD574B4C9 SWAP2 POP PUSH1 0x44 ADD PUSH0 PUSH1 0x40 MLOAD DUP1 DUP4 SUB DUP2 PUSH0 DUP8 DUP1 EXTCODESIZE ISZERO DUP1 ISZERO PUSH2 0x98A JUMPI PUSH0 DUP1 REVERT JUMPDEST POP GAS CALL ISZERO DUP1 ISZERO PUSH2 0x99C JUMPI RETURNDATASIZE PUSH0 DUP1 RETURNDATACOPY RETURNDATASIZE PUSH0 REVERT JUMPDEST POP POP PUSH1 0x15 SLOAD PUSH1 0x40 MLOAD PUSH4 0xD59B759 PUSH1 0xE3 SHL DUP2 MSTORE PUSH1 0x4 DUP2 ADD DUP6 SWAP1 MSTORE PUSH1 0x1 PUSH1 0x1 PUSH1 0xA0 SHL SUB SWAP1 SWAP2 AND SWAP3 POP PUSH4 0x6ACDBAC8 SWAP2 POP PUSH1 0x24 ADD PUSH0 PUSH1 0x40 MLOAD DUP1 DUP4 SUB DUP2 PUSH0 DUP8 DUP1 EXTCODESIZE ISZERO DUP1 ISZERO PUSH2 0x9E3 JUMPI PUSH0 DUP1 REVERT JUMPDEST POP GAS CALL ISZERO DUP1 ISZERO PUSH2 0x9F5 JUMPI RETURNDATASIZE PUSH0 DUP1 RETURNDATACOPY RETURNDATASIZE PUSH0 REVERT JUMPDEST POP POP POP POP PUSH2 0xA2E PUSH2 0xA19 PUSH2 0xA14 DUP4 PUSH1 0xA SLOAD PUSH2 0x13E7 SWAP1 SWAP2 SWAP1 PUSH4 0xFFFFFFFF AND JUMP JUMPDEST PUSH2 0x141A JUMP JUMPDEST CALLER PUSH0 SWAP1 DUP2 MSTORE PUSH1 0xB PUSH1 0x20 MSTORE PUSH1 0x40 SWAP1 KECCAK256 SLOAD SWAP1 PUSH2 0x1428 JUMP JUMPDEST CALLER PUSH0 DUP2 DUP2 MSTORE PUSH1 0xB PUSH1 0x20 MSTORE PUSH1 0x40 SWAP1 DUP2 SWAP1 KECCAK256 SWAP3 SWAP1 SWAP3 SSTORE PUSH1 0x14 SLOAD SWAP2 MLOAD PUSH4 0x3DB99B93 PUSH1 0xE1 SHL DUP2 MSTORE PUSH1 0x4 DUP2 ADD SWAP2 SWAP1 SWAP2 MSTORE PUSH1 0x24 DUP2 ADD DUP4 SWAP1 MSTORE PUSH1 0x1 PUSH1 0x1 PUSH1 0xA0 SHL SUB SWAP1 SWAP2 AND SWAP1 PUSH4 0x7B733726 SWAP1 PUSH1 0x44 ADD PUSH0 PUSH1 0x40 MLOAD DUP1 DUP4 SUB DUP2 PUSH0 DUP8 DUP1 EXTCODESIZE ISZERO DUP1 ISZERO PUSH2 0xA8C JUMPI PUSH0 DUP1 REVERT JUMPDEST POP GAS CALL ISZERO DUP1 ISZERO PUSH2 0xA9E JUMPI RETURNDATASIZE PUSH0 DUP1 RETURNDATACOPY RETURNDATASIZE PUSH0 REVERT JUMPDEST POP POP PUSH1 0x3 SLOAD PUSH1 0x40 MLOAD PUSH4 0x2770A7EB PUSH1 0xE2 SHL DUP2 MSTORE CALLER PUSH1 0x4 DUP3 ADD MSTORE PUSH1 0x24 DUP2 ADD DUP9 SWAP1 MSTORE PUSH1 0x1 PUSH1 0x1 PUSH1 0xA0 SHL SUB SWAP1 SWAP2 AND SWAP3 POP PUSH4 0x9DC29FAC SWAP2 POP PUSH1 0x44 ADD PUSH0 PUSH1 0x40 MLOAD DUP1 DUP4 SUB DUP2 PUSH0 DUP8 DUP1 EXTCODESIZE ISZERO DUP1 ISZERO PUSH2 0xAEB JUMPI PUSH0 DUP1 REVERT JUMPDEST POP GAS CALL ISZERO DUP1 ISZERO PUSH2 0xAFD JUMPI RETURNDATASIZE PUSH0 DUP1 RETURNDATACOPY RETURNDATASIZE PUSH0 REVERT JUMPDEST POP POP PUSH1 0x2 SLOAD PUSH1 0x40 MLOAD PUSH4 0x23B872DD PUSH1 0xE0 SHL DUP2 MSTORE PUSH1 0x1 PUSH1 0x1 PUSH1 0xA0 SHL SUB SWAP1 SWAP2 AND SWAP3 POP PUSH4 0x23B872DD SWAP2 POP PUSH2 0xB35 SWAP1 ADDRESS SWAP1 CALLER SWAP1 DUP7 SWAP1 PUSH1 0x4 ADD PUSH2 0x18B3 JUMP JUMPDEST PUSH1 0x20 PUSH1 0x40 MLOAD DUP1 DUP4 SUB DUP2 PUSH0 DUP8 GAS CALL ISZERO DUP1 ISZERO PUSH2 0xB51 JUMPI RETURNDATASIZE PUSH0 DUP1 RETURNDATACOPY RETURNDATASIZE PUSH0 REVERT JUMPDEST POP POP POP POP PUSH1 0x40 MLOAD RETURNDATASIZE PUSH1 0x1F NOT PUSH1 0x1F DUP3 ADD AND DUP3 ADD DUP1 PUSH1 0x40 MSTORE POP DUP2 ADD SWAP1 PUSH2 0xB75 SWAP2 SWAP1 PUSH2 0x18D7 JUMP JUMPDEST POP PUSH1 0x40 MLOAD DUP5 DUP2 MSTORE CALLER SWAP1 PUSH32 0x920BB94EB3842A728DB98228C375FF6B00C5BC5A54FAC6736155517A0A20A61A SWAP1 PUSH1 0x20 ADD JUMPDEST PUSH1 0x40 MLOAD DUP1 SWAP2 SUB SWAP1 LOG2 POP POP POP POP JUMP JUMPDEST PUSH1 0x40 MLOAD PUSH1 0x4 CALLDATALOAD SWAP1 PUSH1 0x24 CALLDATALOAD SWAP1 DUP2 SWAP1 DUP4 SWAP1 CALLER SWAP1 PUSH0 DUP1 CALLDATALOAD PUSH1 0x1 PUSH1 0x1 PUSH1 0xE0 SHL SUB NOT AND SWAP2 PUSH2 0xBDE SWAP2 CALLVALUE SWAP2 CALLDATASIZE SWAP1 PUSH2 0x183C JUMP JUMPDEST PUSH1 0x40 MLOAD DUP1 SWAP2 SUB SWAP1 LOG4 PUSH2 0xBEE PUSH2 0x13C2 JUMP JUMPDEST PUSH1 0x2 SLOAD PUSH1 0x40 MLOAD PUSH4 0x70A08231 PUSH1 0xE0 SHL DUP2 MSTORE CALLER PUSH1 0x4 DUP3 ADD MSTORE DUP5 SWAP2 PUSH1 0x1 PUSH1 0x1 PUSH1 0xA0 SHL SUB AND SWAP1 PUSH4 0x70A08231 SWAP1 PUSH1 0x24 ADD PUSH1 0x20 PUSH1 0x40 MLOAD DUP1 DUP4 SUB DUP2 DUP7 GAS STATICCALL ISZERO DUP1 ISZERO PUSH2 0xC34 JUMPI RETURNDATASIZE PUSH0 DUP1 RETURNDATACOPY RETURNDATASIZE PUSH0 REVERT JUMPDEST POP POP POP POP PUSH1 0x40 MLOAD RETURNDATASIZE PUSH1 0x1F NOT PUSH1 0x1F DUP3 ADD AND DUP3 ADD DUP1 PUSH1 0x40 MSTORE POP DUP2 ADD SWAP1 PUSH2 0xC58 SWAP2 SWAP1 PUSH2 0x1871 JUMP JUMPDEST LT ISZERO PUSH2 0xC9D JUMPI PUSH1 0x40 MLOAD PUSH3 0x461BCD PUSH1 0xE5 SHL DUP2 MSTORE PUSH1 0x20 PUSH1 0x4 DUP3 ADD MSTORE PUSH1 0x14 PUSH1 0x24 DUP3 ADD MSTORE PUSH20 0x496E73756666696369656E742062616C616E6365 PUSH1 0x60 SHL PUSH1 0x44 DUP3 ADD MSTORE PUSH1 0x64 ADD PUSH2 0x65D JUMP JUMPDEST PUSH1 0x2 SLOAD PUSH1 0x40 MLOAD PUSH4 0x23B872DD PUSH1 0xE0 SHL DUP2 MSTORE PUSH1 0x1 PUSH1 0x1 PUSH1 0xA0 SHL SUB SWAP1 SWAP2 AND SWAP1 PUSH4 0x23B872DD SWAP1 PUSH2 0xCD1 SWAP1 CALLER SWAP1 ADDRESS SWAP1 DUP9 SWAP1 PUSH1 0x4 ADD PUSH2 0x18B3 JUMP JUMPDEST PUSH1 0x20 PUSH1 0x40 MLOAD DUP1 DUP4 SUB DUP2 PUSH0 DUP8 GAS CALL ISZERO DUP1 ISZERO PUSH2 0xCED JUMPI RETURNDATASIZE PUSH0 DUP1 RETURNDATACOPY RETURNDATASIZE PUSH0 REVERT JUMPDEST POP POP POP POP PUSH1 0x40 MLOAD RETURNDATASIZE PUSH1 0x1F NOT PUSH1 0x1F DUP3 ADD AND DUP3 ADD DUP1 PUSH1 0x40 MSTORE POP DUP2 ADD SWAP1 PUSH2 0xD11 SWAP2 SWAP1 PUSH2 0x18D7 JUMP JUMPDEST PUSH2 0xD4F JUMPI PUSH1 0x40 MLOAD PUSH3 0x461BCD PUSH1 0xE5 SHL DUP2 MSTORE PUSH1 0x20 PUSH1 0x4 DUP3 ADD MSTORE PUSH1 0xF PUSH1 0x24 DUP3 ADD MSTORE PUSH15 0x151C985B9CD9995C8819985A5B1959 PUSH1 0x8A SHL PUSH1 0x44 DUP3 ADD MSTORE PUSH1 0x64 ADD PUSH2 0x65D JUMP JUMPDEST PUSH0 PUSH1 0x10 SLOAD DUP5 PUSH2 0xD5E SWAP2 SWAP1 PUSH2 0x189C JUMP JUMPDEST PUSH1 0x6 SLOAD SWAP1 SWAP2 POP PUSH2 0xD6E SWAP1 DUP6 PUSH2 0x1462 JUMP JUMPDEST PUSH1 0x6 SSTORE PUSH1 0x7 SLOAD PUSH2 0xD7E SWAP1 DUP3 PUSH2 0x1462 JUMP JUMPDEST PUSH1 0x7 SSTORE CALLER PUSH0 SWAP1 DUP2 MSTORE PUSH1 0xD PUSH1 0x20 MSTORE PUSH1 0x40 SWAP1 KECCAK256 SLOAD PUSH2 0xD9A SWAP1 DUP6 PUSH2 0x1462 JUMP JUMPDEST CALLER PUSH0 SWAP1 DUP2 MSTORE PUSH1 0xD PUSH1 0x20 SWAP1 DUP2 MSTORE PUSH1 0x40 DUP1 DUP4 KECCAK256 SWAP4 SWAP1 SWAP4 SSTORE PUSH1 0xE SWAP1 MSTORE KECCAK256 SLOAD PUSH2 0xDBF SWAP1 DUP3 PUSH2 0x1462 JUMP JUMPDEST CALLER PUSH0 DUP2 DUP2 MSTORE PUSH1 0xE PUSH1 0x20 MSTORE PUSH1 0x40 SWAP1 DUP2 SWAP1 KECCAK256 SWAP3 SWAP1 SWAP3 SSTORE PUSH1 0x15 SLOAD SWAP2 MLOAD PUSH4 0x163CAFDF PUSH1 0xE1 SHL DUP2 MSTORE PUSH1 0x4 DUP2 ADD SWAP2 SWAP1 SWAP2 MSTORE PUSH1 0x24 DUP2 ADD DUP7 SWAP1 MSTORE PUSH1 0x1 PUSH1 0x1 PUSH1 0xA0 SHL SUB SWAP1 SWAP2 AND SWAP1 PUSH4 0x2C795FBE SWAP1 PUSH1 0x44 ADD PUSH0 PUSH1 0x40 MLOAD DUP1 DUP4 SUB DUP2 PUSH0 DUP8 DUP1 EXTCODESIZE ISZERO DUP1 ISZERO PUSH2 0xE1D JUMPI PUSH0 DUP1 REVERT JUMPDEST POP GAS CALL ISZERO DUP1 ISZERO PUSH2 0xE2F JUMPI RETURNDATASIZE PUSH0 DUP1 RETURNDATACOPY RETURNDATASIZE PUSH0 REVERT JUMPDEST POP POP PUSH1 0x15 SLOAD PUSH1 0x40 MLOAD PUSH4 0xF7E4F3A5 PUSH1 0xE0 SHL DUP2 MSTORE CALLER PUSH1 0x4 DUP3 ADD MSTORE PUSH1 0x24 DUP2 ADD DUP6 SWAP1 MSTORE PUSH1 0x1 PUSH1 0x1 PUSH1 0xA0 SHL SUB SWAP1 SWAP2 AND SWAP3 POP PUSH4 0xF7E4F3A5 SWAP2 POP PUSH1 0x44 ADD PUSH0 PUSH1 0x40 MLOAD DUP1 DUP4 SUB DUP2 PUSH0 DUP8 DUP1 EXTCODESIZE ISZERO DUP1 ISZERO PUSH2 0xE7C JUMPI PUSH0 DUP1 REVERT JUMPDEST POP GAS CALL ISZERO DUP1 ISZERO PUSH2 0xE8E JUMPI RETURNDATASIZE PUSH0 DUP1 RETURNDATACOPY RETURNDATASIZE PUSH0 REVERT JUMPDEST POP POP PUSH1 0x15 SLOAD PUSH1 0x40 MLOAD PUSH4 0x660B1A4D PUSH1 0xE0 SHL DUP2 MSTORE PUSH1 0x4 DUP2 ADD DUP9 SWAP1 MSTORE PUSH1 0x1 PUSH1 0x1 PUSH1 0xA0 SHL SUB SWAP1 SWAP2 AND SWAP3 POP PUSH4 0x660B1A4D SWAP2 POP PUSH1 0x24 ADD PUSH0 PUSH1 0x40 MLOAD DUP1 DUP4 SUB DUP2 PUSH0 DUP8 DUP1 EXTCODESIZE ISZERO DUP1 ISZERO PUSH2 0xED5 JUMPI PUSH0 DUP1 REVERT JUMPDEST POP GAS CALL ISZERO DUP1 ISZERO PUSH2 0xEE7 JUMPI RETURNDATASIZE PUSH0 DUP1 RETURNDATACOPY RETURNDATASIZE PUSH0 REVERT JUMPDEST POP POP POP POP PUSH2 0xF1B PUSH2 0xF06 PUSH2 0xA14 DUP7 PUSH1 0xA SLOAD PUSH2 0x13E7 SWAP1 SWAP2 SWAP1 PUSH4 0xFFFFFFFF AND JUMP JUMPDEST CALLER PUSH0 SWAP1 DUP2 MSTORE PUSH1 0xB PUSH1 0x20 MSTORE PUSH1 0x40 SWAP1 KECCAK256 SLOAD SWAP1 PUSH2 0x147F JUMP JUMPDEST CALLER PUSH0 DUP2 DUP2 MSTORE PUSH1 0xB PUSH1 0x20 MSTORE PUSH1 0x40 SWAP1 DUP2 SWAP1 KECCAK256 SWAP3 SWAP1 SWAP3 SSTORE PUSH1 0x14 SLOAD SWAP2 MLOAD PUSH4 0x5B8C25CD PUSH1 0xE0 SHL DUP2 MSTORE PUSH1 0x4 DUP2 ADD SWAP2 SWAP1 SWAP2 MSTORE PUSH1 0x24 DUP2 ADD DUP7 SWAP1 MSTORE PUSH1 0x1 PUSH1 0x1 PUSH1 0xA0 SHL SUB SWAP1 SWAP2 AND SWAP1 PUSH4 0x5B8C25CD SWAP1 PUSH1 0x44 ADD PUSH0 PUSH1 0x40 MLOAD DUP1 DUP4 SUB DUP2 PUSH0 DUP8 DUP1 EXTCODESIZE ISZERO DUP1 ISZERO PUSH2 0xF79 JUMPI PUSH0 DUP1 REVERT JUMPDEST POP GAS CALL ISZERO DUP1 ISZERO PUSH2 0xF8B JUMPI RETURNDATASIZE PUSH0 DUP1 RETURNDATACOPY RETURNDATASIZE PUSH0 REVERT JUMPDEST POP POP PUSH1 0x3 SLOAD PUSH1 0x40 MLOAD PUSH4 0x40C10F19 PUSH1 0xE0 SHL DUP2 MSTORE CALLER PUSH1 0x4 DUP3 ADD MSTORE PUSH1 0x24 DUP2 ADD DUP6 SWAP1 MSTORE PUSH1 0x1 PUSH1 0x1 PUSH1 0xA0 SHL SUB SWAP1 SWAP2 AND SWAP3 POP PUSH4 0x40C10F19 SWAP2 POP PUSH1 0x44 ADD PUSH0 PUSH1 0x40 MLOAD DUP1 DUP4 SUB DUP2 PUSH0 DUP8 DUP1 EXTCODESIZE ISZERO DUP1 ISZERO PUSH2 0xFD8 JUMPI PUSH0 DUP1 REVERT JUMPDEST POP GAS CALL ISZERO DUP1 ISZERO PUSH2 0xFEA JUMPI RETURNDATASIZE PUSH0 DUP1 RETURNDATACOPY RETURNDATASIZE PUSH0 REVERT JUMPDEST POP POP PUSH1 0x40 DUP1 MLOAD DUP8 DUP2 MSTORE PUSH1 0x20 DUP2 ADD DUP6 SWAP1 MSTORE CALLER SWAP4 POP PUSH32 0x73A19DD210F1A7F902193214C0EE91DD35EE5B4D920CBA8D519ECA65A7B488CA SWAP3 POP ADD PUSH2 0xBA4 JUMP JUMPDEST PUSH2 0x103B CALLER PUSH0 CALLDATALOAD PUSH1 0x1 PUSH1 0x1 PUSH1 0xE0 SHL SUB NOT AND PUSH2 0x12ED JUMP JUMPDEST PUSH2 0x1057 JUMPI PUSH1 0x40 MLOAD PUSH3 0x461BCD PUSH1 0xE5 SHL DUP2 MSTORE PUSH1 0x4 ADD PUSH2 0x65D SWAP1 PUSH2 0x180E JUMP JUMPDEST PUSH1 0x14 DUP1 SLOAD PUSH1 0x1 PUSH1 0x1 PUSH1 0xA0 SHL SUB NOT AND PUSH1 0x1 PUSH1 0x1 PUSH1 0xA0 SHL SUB SWAP3 SWAP1 SWAP3 AND SWAP2 SWAP1 SWAP2 OR SWAP1 SSTORE JUMP JUMPDEST PUSH2 0x108E CALLER PUSH0 CALLDATALOAD PUSH1 0x1 PUSH1 0x1 PUSH1 0xE0 SHL SUB NOT AND PUSH2 0x12ED JUMP JUMPDEST PUSH2 0x10AA JUMPI PUSH1 0x40 MLOAD PUSH3 0x461BCD PUSH1 0xE5 SHL DUP2 MSTORE PUSH1 0x4 ADD PUSH2 0x65D SWAP1 PUSH2 0x180E JUMP JUMPDEST PUSH2 0x10B6 PUSH2 0x3E8 DUP5 PUSH2 0x18F6 JUMP JUMPDEST PUSH1 0x10 SSTORE PUSH2 0x10C5 DUP4 PUSH2 0x3E8 PUSH2 0x18F6 JUMP JUMPDEST PUSH1 0x11 SSTORE PUSH2 0x10D3 PUSH1 0x64 DUP4 PUSH2 0x18F6 JUMP JUMPDEST PUSH1 0x12 SSTORE PUSH1 0x8 SSTORE POP POP JUMP JUMPDEST PUSH2 0x10F2 CALLER PUSH0 CALLDATALOAD PUSH1 0x1 PUSH1 0x1 PUSH1 0xE0 SHL SUB NOT AND PUSH2 0x12ED JUMP JUMPDEST PUSH2 0x110E JUMPI PUSH1 0x40 MLOAD PUSH3 0x461BCD PUSH1 0xE5 SHL DUP2 MSTORE PUSH1 0x4 ADD PUSH2 0x65D SWAP1 PUSH2 0x180E JUMP JUMPDEST PUSH1 0x15 DUP1 SLOAD PUSH1 0x1 PUSH1 0x1 PUSH1 0xA0 SHL SUB NOT AND PUSH1 0x1 PUSH1 0x1 PUSH1 0xA0 SHL SUB SWAP3 SWAP1 SWAP3 AND SWAP2 SWAP1 SWAP2 OR SWAP1 SSTORE JUMP JUMPDEST PUSH2 0x1145 CALLER PUSH0 CALLDATALOAD PUSH1 0x1 PUSH1 0x1 PUSH1 0xE0 SHL SUB NOT AND PUSH2 0x12ED JUMP JUMPDEST PUSH2 0x1161 JUMPI PUSH1 0x40 MLOAD PUSH3 0x461BCD PUSH1 0xE5 SHL DUP2 MSTORE PUSH1 0x4 ADD PUSH2 0x65D SWAP1 PUSH2 0x180E JUMP JUMPDEST PUSH0 DUP1 SLOAD PUSH1 0x1 PUSH1 0x1 PUSH1 0xA0 SHL SUB NOT AND PUSH1 0x1 PUSH1 0x1 PUSH1 0xA0 SHL SUB DUP4 AND SWAP1 DUP2 OR DUP3 SSTORE PUSH1 0x40 MLOAD SWAP1 SWAP2 PUSH32 0x1ABEBEA81BFA2637F28358C371278FB15EDE7EA8DD28D2E03B112FF6D936ADA4 SWAP2 LOG2 POP JUMP JUMPDEST CALLER PUSH0 SWAP1 DUP2 MSTORE PUSH1 0xF PUSH1 0x20 MSTORE PUSH1 0x40 DUP2 KECCAK256 SLOAD PUSH2 0x11CA SWAP1 PUSH2 0x11C4 DUP5 PUSH2 0x1296 JUMP JUMPDEST SWAP1 PUSH2 0x13CC JUMP JUMPDEST SWAP3 SWAP2 POP POP JUMP JUMPDEST PUSH2 0x11D8 PUSH2 0x13C2 JUMP JUMPDEST PUSH0 PUSH2 0x11E2 CALLER PUSH2 0x11A8 JUMP JUMPDEST SWAP1 POP DUP1 ISZERO PUSH2 0x1293 JUMPI CALLER PUSH0 SWAP1 DUP2 MSTORE PUSH1 0xF PUSH1 0x20 MSTORE PUSH1 0x40 DUP2 KECCAK256 DUP1 SLOAD DUP4 SWAP3 SWAP1 PUSH2 0x1208 SWAP1 DUP5 SWAP1 PUSH2 0x1915 JUMP JUMPDEST SWAP1 SWAP2 SSTORE POP POP PUSH1 0x9 SLOAD PUSH2 0x121A SWAP1 DUP3 PUSH2 0x13CC JUMP JUMPDEST PUSH1 0x9 SSTORE PUSH1 0x2 SLOAD PUSH1 0x40 MLOAD PUSH4 0x23B872DD PUSH1 0xE0 SHL DUP2 MSTORE PUSH1 0x1 PUSH1 0x1 PUSH1 0xA0 SHL SUB SWAP1 SWAP2 AND SWAP1 PUSH4 0x23B872DD SWAP1 PUSH2 0x1251 SWAP1 ADDRESS SWAP1 CALLER SWAP1 DUP7 SWAP1 PUSH1 0x4 ADD PUSH2 0x18B3 JUMP JUMPDEST PUSH1 0x20 PUSH1 0x40 MLOAD DUP1 DUP4 SUB DUP2 PUSH0 DUP8 GAS CALL ISZERO DUP1 ISZERO PUSH2 0x126D JUMPI RETURNDATASIZE PUSH0 DUP1 RETURNDATACOPY RETURNDATASIZE PUSH0 REVERT JUMPDEST POP POP POP POP PUSH1 0x40 MLOAD RETURNDATASIZE PUSH1 0x1F NOT PUSH1 0x1F DUP3 ADD AND DUP3 ADD DUP1 PUSH1 0x40 MSTORE POP DUP2 ADD SWAP1 PUSH2 0x1291 SWAP2 SWAP1 PUSH2 0x18D7 JUMP JUMPDEST POP JUMPDEST POP JUMP JUMPDEST PUSH1 0x1 PUSH1 0x1 PUSH1 0xA0 SHL SUB DUP2 AND PUSH0 SWAP1 DUP2 MSTORE PUSH1 0xB PUSH1 0x20 SWAP1 DUP2 MSTORE PUSH1 0x40 DUP1 DUP4 KECCAK256 SLOAD PUSH1 0xD SWAP1 SWAP3 MSTORE DUP3 KECCAK256 SLOAD PUSH1 0xA SLOAD PUSH2 0x11CA SWAP3 PUSH1 0x1 PUSH1 0x80 SHL SWAP3 PUSH2 0x12E7 SWAP3 PUSH2 0x12E2 SWAP3 SWAP2 PUSH2 0x12DC SWAP2 PUSH2 0xA14 SWAP2 PUSH2 0x13E7 JUMP JUMPDEST SWAP1 PUSH2 0x1428 JUMP JUMPDEST PUSH2 0x14C8 JUMP JUMPDEST SWAP1 PUSH2 0x14D9 JUMP JUMPDEST PUSH0 ADDRESS PUSH1 0x1 PUSH1 0x1 PUSH1 0xA0 SHL SUB DUP5 AND SUB PUSH2 0x1306 JUMPI POP PUSH1 0x1 PUSH2 0x11CA JUMP JUMPDEST PUSH1 0x1 SLOAD PUSH1 0x1 PUSH1 0x1 PUSH1 0xA0 SHL SUB SWAP1 DUP2 AND SWAP1 DUP5 AND SUB PUSH2 0x1324 JUMPI POP PUSH1 0x1 PUSH2 0x11CA JUMP JUMPDEST PUSH0 SLOAD PUSH1 0x1 PUSH1 0x1 PUSH1 0xA0 SHL SUB AND PUSH2 0x133A JUMPI POP PUSH0 PUSH2 0x11CA JUMP JUMPDEST PUSH0 SLOAD PUSH1 0x40 MLOAD PUSH4 0xB7009613 PUSH1 0xE0 SHL DUP2 MSTORE PUSH1 0x1 PUSH1 0x1 PUSH1 0xA0 SHL SUB DUP6 DUP2 AND PUSH1 0x4 DUP4 ADD MSTORE ADDRESS PUSH1 0x24 DUP4 ADD MSTORE PUSH1 0x1 PUSH1 0x1 PUSH1 0xE0 SHL SUB NOT DUP6 AND PUSH1 0x44 DUP4 ADD MSTORE SWAP1 SWAP2 AND SWAP1 PUSH4 0xB7009613 SWAP1 PUSH1 0x64 ADD PUSH1 0x20 PUSH1 0x40 MLOAD DUP1 DUP4 SUB DUP2 DUP7 GAS STATICCALL ISZERO DUP1 ISZERO PUSH2 0x1397 JUMPI RETURNDATASIZE PUSH0 DUP1 RETURNDATACOPY RETURNDATASIZE PUSH0 REVERT JUMPDEST POP POP POP POP PUSH1 0x40 MLOAD RETURNDATASIZE PUSH1 0x1F NOT PUSH1 0x1F DUP3 ADD AND DUP3 ADD DUP1 PUSH1 0x40 MSTORE POP DUP2 ADD SWAP1 PUSH2 0x13BB SWAP2 SWAP1 PUSH2 0x18D7 JUMP JUMPDEST SWAP4 SWAP3 POP POP POP JUMP JUMPDEST PUSH2 0x13CA PUSH2 0x14E4 JUMP JUMPDEST JUMP JUMPDEST PUSH0 DUP3 DUP3 GT ISZERO PUSH2 0x13DD JUMPI PUSH2 0x13DD PUSH2 0x1928 JUMP JUMPDEST PUSH2 0x13BB DUP3 DUP5 PUSH2 0x193C JUMP JUMPDEST PUSH0 DUP3 PUSH0 SUB PUSH2 0x13F6 JUMPI POP PUSH0 PUSH2 0x11CA JUMP JUMPDEST PUSH2 0x1400 DUP3 DUP5 PUSH2 0x189C JUMP JUMPDEST SWAP1 POP DUP2 PUSH2 0x140D DUP5 DUP4 PUSH2 0x18F6 JUMP JUMPDEST EQ PUSH2 0x11CA JUMPI PUSH2 0x11CA PUSH2 0x1928 JUMP JUMPDEST PUSH0 DUP2 DUP2 DUP2 SLT ISZERO PUSH2 0x11CA JUMPI PUSH0 DUP1 REVERT JUMPDEST PUSH0 DUP1 PUSH2 0x1434 DUP4 DUP6 PUSH2 0x194F JUMP JUMPDEST SWAP1 POP PUSH0 DUP4 SLT ISZERO DUP1 ISZERO PUSH2 0x1446 JUMPI POP DUP4 DUP2 SLT ISZERO JUMPDEST DUP1 PUSH2 0x145A JUMPI POP PUSH0 DUP4 SLT DUP1 ISZERO PUSH2 0x145A JUMPI POP DUP4 DUP2 SLT JUMPDEST PUSH2 0x13BB JUMPI PUSH0 DUP1 REVERT JUMPDEST PUSH0 PUSH2 0x146D DUP3 DUP5 PUSH2 0x1915 JUMP JUMPDEST SWAP1 POP DUP3 DUP2 LT ISZERO PUSH2 0x11CA JUMPI PUSH2 0x11CA PUSH2 0x1928 JUMP JUMPDEST PUSH0 DUP1 DUP3 SLT ISZERO DUP1 ISZERO PUSH2 0x1499 JUMPI POP DUP3 PUSH2 0x1496 DUP4 DUP3 PUSH2 0x1976 JUMP JUMPDEST SGT ISZERO JUMPDEST DUP1 PUSH2 0x14B6 JUMPI POP PUSH0 DUP3 SLT DUP1 ISZERO PUSH2 0x14B6 JUMPI POP DUP3 PUSH2 0x14B4 DUP4 DUP3 PUSH2 0x1976 JUMP JUMPDEST SGT JUMPDEST PUSH2 0x14BE JUMPI PUSH0 DUP1 REVERT JUMPDEST PUSH2 0x13BB DUP3 DUP5 PUSH2 0x1976 JUMP JUMPDEST PUSH0 DUP1 DUP3 SLT ISZERO PUSH2 0x14D5 JUMPI PUSH0 DUP1 REVERT JUMPDEST POP SWAP1 JUMP JUMPDEST PUSH0 PUSH2 0x13BB DUP3 DUP5 PUSH2 0x18F6 JUMP JUMPDEST PUSH1 0x6 SLOAD PUSH1 0x2 SLOAD PUSH1 0x40 MLOAD PUSH4 0x70A08231 PUSH1 0xE0 SHL DUP2 MSTORE ADDRESS PUSH1 0x4 DUP3 ADD MSTORE PUSH0 SWAP3 PUSH2 0x1559 SWAP3 SWAP1 SWAP2 PUSH1 0x1 PUSH1 0x1 PUSH1 0xA0 SHL SUB SWAP1 SWAP2 AND SWAP1 PUSH4 0x70A08231 SWAP1 PUSH1 0x24 ADD PUSH1 0x20 PUSH1 0x40 MLOAD DUP1 DUP4 SUB DUP2 DUP7 GAS STATICCALL ISZERO DUP1 ISZERO PUSH2 0x1535 JUMPI RETURNDATASIZE PUSH0 DUP1 RETURNDATACOPY RETURNDATASIZE PUSH0 REVERT JUMPDEST POP POP POP POP PUSH1 0x40 MLOAD RETURNDATASIZE PUSH1 0x1F NOT PUSH1 0x1F DUP3 ADD AND DUP3 ADD DUP1 PUSH1 0x40 MSTORE POP DUP2 ADD SWAP1 PUSH2 0x11C4 SWAP2 SWAP1 PUSH2 0x1871 JUMP JUMPDEST SWAP1 POP DUP1 PUSH0 SUB PUSH2 0x1565 JUMPI POP JUMP JUMPDEST PUSH0 PUSH1 0x9 SLOAD DUP3 PUSH2 0x1574 SWAP2 SWAP1 PUSH2 0x193C JUMP JUMPDEST SWAP1 POP DUP1 PUSH0 SUB PUSH2 0x1581 JUMPI POP POP JUMP JUMPDEST PUSH0 PUSH1 0x64 PUSH1 0x8 SLOAD DUP4 PUSH2 0x1592 SWAP2 SWAP1 PUSH2 0x189C JUMP JUMPDEST PUSH2 0x159C SWAP2 SWAP1 PUSH2 0x18F6 JUMP JUMPDEST SWAP1 POP DUP1 PUSH1 0x9 PUSH0 DUP3 DUP3 SLOAD PUSH2 0x15AF SWAP2 SWAP1 PUSH2 0x1915 JUMP JUMPDEST SWAP1 SWAP2 SSTORE POP POP PUSH1 0x6 SLOAD ISZERO PUSH2 0x15E2 JUMPI PUSH1 0x6 SLOAD PUSH2 0x15DE SWAP1 PUSH2 0x15D5 SWAP1 PUSH2 0x12E7 DUP5 PUSH1 0x1 PUSH1 0x80 SHL PUSH2 0x13E7 JUMP JUMPDEST PUSH1 0xA SLOAD SWAP1 PUSH2 0x1462 JUMP JUMPDEST PUSH1 0xA SSTORE JUMPDEST PUSH0 PUSH2 0x15ED DUP3 DUP5 PUSH2 0x193C JUMP JUMPDEST SWAP1 POP PUSH0 PUSH1 0x64 PUSH1 0x12 SLOAD PUSH2 0x15FF SWAP2 SWAP1 PUSH2 0x18F6 JUMP JUMPDEST PUSH2 0x1609 SWAP1 DUP4 PUSH2 0x189C JUMP JUMPDEST SWAP1 POP DUP1 PUSH1 0x13 PUSH0 DUP3 DUP3 SLOAD PUSH2 0x161C SWAP2 SWAP1 PUSH2 0x1915 JUMP JUMPDEST SWAP1 SWAP2 SSTORE POP PUSH0 SWAP1 POP PUSH2 0x162D DUP3 DUP5 PUSH2 0x193C JUMP JUMPDEST PUSH1 0x2 SLOAD PUSH1 0x5 SLOAD PUSH1 0x40 MLOAD PUSH4 0x23B872DD PUSH1 0xE0 SHL DUP2 MSTORE SWAP3 SWAP4 POP PUSH1 0x1 PUSH1 0x1 PUSH1 0xA0 SHL SUB SWAP2 DUP3 AND SWAP3 PUSH4 0x23B872DD SWAP3 PUSH2 0x1668 SWAP3 ADDRESS SWAP3 SWAP2 AND SWAP1 DUP8 SWAP1 PUSH1 0x4 ADD PUSH2 0x18B3 JUMP JUMPDEST PUSH1 0x20 PUSH1 0x40 MLOAD DUP1 DUP4 SUB DUP2 PUSH0 DUP8 GAS CALL ISZERO DUP1 ISZERO PUSH2 0x1684 JUMPI RETURNDATASIZE PUSH0 DUP1 RETURNDATACOPY RETURNDATASIZE PUSH0 REVERT JUMPDEST POP POP POP POP PUSH1 0x40 MLOAD RETURNDATASIZE PUSH1 0x1F NOT PUSH1 0x1F DUP3 ADD AND DUP3 ADD DUP1 PUSH1 0x40 MSTORE POP DUP2 ADD SWAP1 PUSH2 0x16A8 SWAP2 SWAP1 PUSH2 0x18D7 JUMP JUMPDEST POP PUSH1 0x2 SLOAD PUSH1 0x4 DUP1 SLOAD PUSH1 0x40 MLOAD PUSH4 0x23B872DD PUSH1 0xE0 SHL DUP2 MSTORE PUSH1 0x1 PUSH1 0x1 PUSH1 0xA0 SHL SUB SWAP4 DUP5 AND SWAP4 PUSH4 0x23B872DD SWAP4 PUSH2 0x16E0 SWAP4 ADDRESS SWAP4 SWAP3 AND SWAP2 DUP8 SWAP2 ADD PUSH2 0x18B3 JUMP JUMPDEST PUSH1 0x20 PUSH1 0x40 MLOAD DUP1 DUP4 SUB DUP2 PUSH0 DUP8 GAS CALL ISZERO DUP1 ISZERO PUSH2 0x16FC JUMPI RETURNDATASIZE PUSH0 DUP1 RETURNDATACOPY RETURNDATASIZE PUSH0 REVERT JUMPDEST POP POP POP POP PUSH1 0x40 MLOAD RETURNDATASIZE PUSH1 0x1F NOT PUSH1 0x1F DUP3 ADD AND DUP3 ADD DUP1 PUSH1 0x40 MSTORE POP DUP2 ADD SWAP1 PUSH2 0x1720 SWAP2 SWAP1 PUSH2 0x18D7 JUMP JUMPDEST POP PUSH1 0x40 MLOAD DUP3 DUP2 MSTORE PUSH32 0xDDC9C30275A04C48091F24199F9C405765DE34D979D6847F5B9798A57232D2E5 SWAP1 PUSH1 0x20 ADD PUSH1 0x40 MLOAD DUP1 SWAP2 SUB SWAP1 LOG1 POP POP POP POP POP POP JUMP JUMPDEST PUSH1 0x1 PUSH1 0x1 PUSH1 0xA0 SHL SUB DUP2 AND DUP2 EQ PUSH2 0x1293 JUMPI PUSH0 DUP1 REVERT JUMPDEST PUSH0 PUSH1 0x20 DUP3 DUP5 SUB SLT ISZERO PUSH2 0x1780 JUMPI PUSH0 DUP1 REVERT JUMPDEST DUP2 CALLDATALOAD PUSH2 0x13BB DUP2 PUSH2 0x175C JUMP JUMPDEST PUSH0 PUSH1 0x20 DUP3 DUP5 SUB SLT ISZERO PUSH2 0x179B JUMPI PUSH0 DUP1 REVERT JUMPDEST POP CALLDATALOAD SWAP2 SWAP1 POP JUMP JUMPDEST PUSH0 DUP1 PUSH0 PUSH1 0x60 DUP5 DUP7 SUB SLT ISZERO PUSH2 0x17B4 JUMPI PUSH0 DUP1 REVERT JUMPDEST POP POP DUP2 CALLDATALOAD SWAP4 PUSH1 0x20 DUP4 ADD CALLDATALOAD SWAP4 POP PUSH1 0x40 SWAP1 SWAP3 ADD CALLDATALOAD SWAP2 SWAP1 POP JUMP JUMPDEST PUSH0 DUP1 PUSH1 0x40 DUP4 DUP6 SUB SLT ISZERO PUSH2 0x17DC JUMPI PUSH0 DUP1 REVERT JUMPDEST DUP3 CALLDATALOAD PUSH2 0x17E7 DUP2 PUSH2 0x175C JUMP JUMPDEST SWAP2 POP PUSH1 0x20 DUP4 ADD CALLDATALOAD PUSH1 0x1 PUSH1 0x1 PUSH1 0xE0 SHL SUB NOT DUP2 AND DUP2 EQ PUSH2 0x1803 JUMPI PUSH0 DUP1 REVERT JUMPDEST DUP1 SWAP2 POP POP SWAP3 POP SWAP3 SWAP1 POP JUMP JUMPDEST PUSH1 0x20 DUP1 DUP3 MSTORE PUSH1 0x14 SWAP1 DUP3 ADD MSTORE PUSH20 0x191CCB585D5D1A0B5D5B985D5D1A1BDC9A5E9959 PUSH1 0x62 SHL PUSH1 0x40 DUP3 ADD MSTORE PUSH1 0x60 ADD SWAP1 JUMP JUMPDEST DUP4 DUP2 MSTORE PUSH1 0x40 PUSH1 0x20 DUP3 ADD MSTORE DUP2 PUSH1 0x40 DUP3 ADD MSTORE DUP2 DUP4 PUSH1 0x60 DUP4 ADD CALLDATACOPY PUSH0 DUP2 DUP4 ADD PUSH1 0x60 SWAP1 DUP2 ADD SWAP2 SWAP1 SWAP2 MSTORE PUSH1 0x1F SWAP1 SWAP3 ADD PUSH1 0x1F NOT AND ADD ADD SWAP3 SWAP2 POP POP JUMP JUMPDEST PUSH0 PUSH1 0x20 DUP3 DUP5 SUB SLT ISZERO PUSH2 0x1881 JUMPI PUSH0 DUP1 REVERT JUMPDEST POP MLOAD SWAP2 SWAP1 POP JUMP JUMPDEST PUSH4 0x4E487B71 PUSH1 0xE0 SHL PUSH0 MSTORE PUSH1 0x11 PUSH1 0x4 MSTORE PUSH1 0x24 PUSH0 REVERT JUMPDEST DUP1 DUP3 MUL DUP2 ISZERO DUP3 DUP3 DIV DUP5 EQ OR PUSH2 0x11CA JUMPI PUSH2 0x11CA PUSH2 0x1888 JUMP JUMPDEST PUSH1 0x1 PUSH1 0x1 PUSH1 0xA0 SHL SUB SWAP4 DUP5 AND DUP2 MSTORE SWAP2 SWAP1 SWAP3 AND PUSH1 0x20 DUP3 ADD MSTORE PUSH1 0x40 DUP2 ADD SWAP2 SWAP1 SWAP2 MSTORE PUSH1 0x60 ADD SWAP1 JUMP JUMPDEST PUSH0 PUSH1 0x20 DUP3 DUP5 SUB SLT ISZERO PUSH2 0x18E7 JUMPI PUSH0 DUP1 REVERT JUMPDEST DUP2 MLOAD DUP1 ISZERO ISZERO DUP2 EQ PUSH2 0x13BB JUMPI PUSH0 DUP1 REVERT JUMPDEST PUSH0 DUP3 PUSH2 0x1910 JUMPI PUSH4 0x4E487B71 PUSH1 0xE0 SHL PUSH0 MSTORE PUSH1 0x12 PUSH1 0x4 MSTORE PUSH1 0x24 PUSH0 REVERT JUMPDEST POP DIV SWAP1 JUMP JUMPDEST DUP1 DUP3 ADD DUP1 DUP3 GT ISZERO PUSH2 0x11CA JUMPI PUSH2 0x11CA PUSH2 0x1888 JUMP JUMPDEST PUSH4 0x4E487B71 PUSH1 0xE0 SHL PUSH0 MSTORE PUSH1 0x1 PUSH1 0x4 MSTORE PUSH1 0x24 PUSH0 REVERT JUMPDEST DUP2 DUP2 SUB DUP2 DUP2 GT ISZERO PUSH2 0x11CA JUMPI PUSH2 0x11CA PUSH2 0x1888 JUMP JUMPDEST DUP1 DUP3 ADD DUP3 DUP2 SLT PUSH0 DUP4 SLT DUP1 ISZERO DUP3 AND DUP3 ISZERO DUP3 AND OR ISZERO PUSH2 0x196E JUMPI PUSH2 0x196E PUSH2 0x1888 JUMP JUMPDEST POP POP SWAP3 SWAP2 POP POP JUMP JUMPDEST DUP2 DUP2 SUB PUSH0 DUP4 SLT DUP1 ISZERO DUP4 DUP4 SGT AND DUP4 DUP4 SLT DUP3 AND OR ISZERO PUSH2 0x1995 JUMPI PUSH2 0x1995 PUSH2 0x1888 JUMP JUMPDEST POP SWAP3 SWAP2 POP POP JUMP INVALID LOG2 PUSH5 0x6970667358 0x22 SLT KECCAK256 LOG0 0xBD BLOCKHASH 0xCD 0xAB INVALID 0x1E CALLDATALOAD 0x29 0xEA EXTCODECOPY PUSH2 0x2100 SHL REVERT SWAP5 SWAP11 REVERT 0xA9 STATICCALL 0xB0 0x27 0xB6 GAS DUP11 POP PUSH3 0xE97993 0x1E PUSH5 0x736F6C6343 STOP ADDMOD OR STOP CALLER PUSH1 0x80 PUSH1 0x40 MSTORE CALLVALUE DUP1 ISZERO PUSH2 0xF JUMPI PUSH0 DUP1 REVERT JUMPDEST POP PUSH1 0x40 MLOAD PUSH2 0x10E9 CODESIZE SUB DUP1 PUSH2 0x10E9 DUP4 CODECOPY DUP2 ADD PUSH1 0x40 DUP2 SWAP1 MSTORE PUSH2 0x2E SWAP2 PUSH2 0xD2 JUMP JUMPDEST PUSH1 0x1 DUP1 SLOAD PUSH1 0x1 PUSH1 0x1 PUSH1 0xA0 SHL SUB NOT AND CALLER SWAP1 DUP2 OR SWAP1 SWAP2 SSTORE PUSH1 0x40 MLOAD PUSH32 0xCE241D7CA1F669FEE44B6FC00B8EBA2DF3BB514EED0F6F668F8F89096E81ED94 SWAP1 PUSH0 SWAP1 LOG2 PUSH1 0x2 DUP1 SLOAD PUSH1 0x1 PUSH1 0x1 PUSH1 0xA0 SHL SUB SWAP5 DUP6 AND PUSH1 0x1 PUSH1 0x1 PUSH1 0xA0 SHL SUB NOT SWAP2 DUP3 AND OR SWAP1 SWAP2 SSTORE PUSH1 0x4 DUP1 SLOAD SWAP4 DUP6 AND SWAP4 DUP3 AND SWAP4 SWAP1 SWAP4 OR SWAP1 SWAP3 SSTORE PUSH1 0x1 DUP1 SLOAD DUP4 AND CALLER OR SWAP1 SSTORE PUSH1 0x3 DUP1 SLOAD SWAP2 SWAP1 SWAP4 AND SWAP2 AND OR SWAP1 SSTORE PUSH2 0x112 JUMP JUMPDEST DUP1 MLOAD PUSH1 0x1 PUSH1 0x1 PUSH1 0xA0 SHL SUB DUP2 AND DUP2 EQ PUSH2 0xCD JUMPI PUSH0 DUP1 REVERT JUMPDEST SWAP2 SWAP1 POP JUMP JUMPDEST PUSH0 DUP1 PUSH0 PUSH1 0x60 DUP5 DUP7 SUB SLT ISZERO PUSH2 0xE4 JUMPI PUSH0 DUP1 REVERT JUMPDEST PUSH2 0xED DUP5 PUSH2 0xB7 JUMP JUMPDEST SWAP3 POP PUSH2 0xFB PUSH1 0x20 DUP6 ADD PUSH2 0xB7 JUMP JUMPDEST SWAP2 POP PUSH2 0x109 PUSH1 0x40 DUP6 ADD PUSH2 0xB7 JUMP JUMPDEST SWAP1 POP SWAP3 POP SWAP3 POP SWAP3 JUMP JUMPDEST PUSH2 0xFCA DUP1 PUSH2 0x11F PUSH0 CODECOPY PUSH0 RETURN INVALID PUSH1 0x80 PUSH1 0x40 MSTORE CALLVALUE DUP1 ISZERO PUSH2 0xF JUMPI PUSH0 DUP1 REVERT JUMPDEST POP PUSH1 0x4 CALLDATASIZE LT PUSH2 0x11B JUMPI PUSH0 CALLDATALOAD PUSH1 0xE0 SHR DUP1 PUSH4 0x7D882097 GT PUSH2 0xA9 JUMPI DUP1 PUSH4 0xA1EF92EB GT PUSH2 0x6E JUMPI DUP1 PUSH4 0xA1EF92EB EQ PUSH2 0x243 JUMPI DUP1 PUSH4 0xB35874CB EQ PUSH2 0x262 JUMPI DUP1 PUSH4 0xBF7E214F EQ PUSH2 0x275 JUMPI DUP1 PUSH4 0xD9972B96 EQ PUSH2 0x287 JUMPI DUP1 PUSH4 0xF00F64EC EQ PUSH2 0x2AA JUMPI PUSH0 DUP1 REVERT JUMPDEST DUP1 PUSH4 0x7D882097 EQ PUSH2 0x1EE JUMPI DUP1 PUSH4 0x8DA5CB5B EQ PUSH2 0x1F7 JUMPI DUP1 PUSH4 0x9778DD2B EQ PUSH2 0x20A JUMPI DUP1 PUSH4 0x9DDF0293 EQ PUSH2 0x21D JUMPI DUP1 PUSH4 0x9E5BE1D0 EQ PUSH2 0x230 JUMPI PUSH0 DUP1 REVERT JUMPDEST DUP1 PUSH4 0x39BEB7A1 GT PUSH2 0xEF JUMPI DUP1 PUSH4 0x39BEB7A1 EQ PUSH2 0x181 JUMPI DUP1 PUSH4 0x3E413BEE EQ PUSH2 0x18A JUMPI DUP1 PUSH4 0x5246FB2D EQ PUSH2 0x1B5 JUMPI DUP1 PUSH4 0x71C21934 EQ PUSH2 0x1C8 JUMPI DUP1 PUSH4 0x7A9E5E4B EQ PUSH2 0x1DB JUMPI PUSH0 DUP1 REVERT JUMPDEST DUP1 PUSH3 0x63750C EQ PUSH2 0x11F JUMPI DUP1 PUSH4 0xF90C97B EQ PUSH2 0x129 JUMPI DUP1 PUSH4 0x13AF4035 EQ PUSH2 0x14F JUMPI DUP1 PUSH4 0x27E235E3 EQ PUSH2 0x162 JUMPI JUMPDEST PUSH0 DUP1 REVERT JUMPDEST PUSH2 0x127 PUSH2 0x2B2 JUMP JUMPDEST STOP JUMPDEST PUSH2 0x13C PUSH2 0x137 CALLDATASIZE PUSH1 0x4 PUSH2 0xE18 JUMP JUMPDEST PUSH2 0x50E JUMP JUMPDEST PUSH1 0x40 MLOAD SWAP1 DUP2 MSTORE PUSH1 0x20 ADD JUMPDEST PUSH1 0x40 MLOAD DUP1 SWAP2 SUB SWAP1 RETURN JUMPDEST PUSH2 0x127 PUSH2 0x15D CALLDATASIZE PUSH1 0x4 PUSH2 0xE18 JUMP JUMPDEST PUSH2 0x53F JUMP JUMPDEST PUSH2 0x13C PUSH2 0x170 CALLDATASIZE PUSH1 0x4 PUSH2 0xE18 JUMP JUMPDEST PUSH1 0x9 PUSH1 0x20 MSTORE PUSH0 SWAP1 DUP2 MSTORE PUSH1 0x40 SWAP1 KECCAK256 SLOAD DUP2 JUMP JUMPDEST PUSH2 0x13C PUSH1 0x6 SLOAD DUP2 JUMP JUMPDEST PUSH1 0x4 SLOAD PUSH2 0x19D SWAP1 PUSH1 0x1 PUSH1 0x1 PUSH1 0xA0 SHL SUB AND DUP2 JUMP JUMPDEST PUSH1 0x40 MLOAD PUSH1 0x1 PUSH1 0x1 PUSH1 0xA0 SHL SUB SWAP1 SWAP2 AND DUP2 MSTORE PUSH1 0x20 ADD PUSH2 0x146 JUMP JUMPDEST PUSH1 0x3 SLOAD PUSH2 0x19D SWAP1 PUSH1 0x1 PUSH1 0x1 PUSH1 0xA0 SHL SUB AND DUP2 JUMP JUMPDEST PUSH1 0x2 SLOAD PUSH2 0x19D SWAP1 PUSH1 0x1 PUSH1 0x1 PUSH1 0xA0 SHL SUB AND DUP2 JUMP JUMPDEST PUSH2 0x127 PUSH2 0x1E9 CALLDATASIZE PUSH1 0x4 PUSH2 0xE18 JUMP JUMPDEST PUSH2 0x5E0 JUMP JUMPDEST PUSH2 0x13C PUSH1 0xA SLOAD DUP2 JUMP JUMPDEST PUSH1 0x1 SLOAD PUSH2 0x19D SWAP1 PUSH1 0x1 PUSH1 0x1 PUSH1 0xA0 SHL SUB AND DUP2 JUMP JUMPDEST PUSH2 0x13C PUSH2 0x218 CALLDATASIZE PUSH1 0x4 PUSH2 0xE18 JUMP JUMPDEST PUSH2 0x67F JUMP JUMPDEST PUSH2 0x127 PUSH2 0x22B CALLDATASIZE PUSH1 0x4 PUSH2 0xE33 JUMP JUMPDEST PUSH2 0x6DB JUMP JUMPDEST PUSH2 0x127 PUSH2 0x23E CALLDATASIZE PUSH1 0x4 PUSH2 0xE33 JUMP JUMPDEST PUSH2 0x85A JUMP JUMPDEST PUSH2 0x13C PUSH2 0x251 CALLDATASIZE PUSH1 0x4 PUSH2 0xE18 JUMP JUMPDEST PUSH1 0x8 PUSH1 0x20 MSTORE PUSH0 SWAP1 DUP2 MSTORE PUSH1 0x40 SWAP1 KECCAK256 SLOAD DUP2 JUMP JUMPDEST PUSH2 0x127 PUSH2 0x270 CALLDATASIZE PUSH1 0x4 PUSH2 0xE33 JUMP JUMPDEST PUSH2 0x98B JUMP JUMPDEST PUSH0 SLOAD PUSH2 0x19D SWAP1 PUSH1 0x1 PUSH1 0x1 PUSH1 0xA0 SHL SUB AND DUP2 JUMP JUMPDEST PUSH2 0x29A PUSH2 0x295 CALLDATASIZE PUSH1 0x4 PUSH2 0xE4A JUMP JUMPDEST PUSH2 0xB11 JUMP JUMPDEST PUSH1 0x40 MLOAD SWAP1 ISZERO ISZERO DUP2 MSTORE PUSH1 0x20 ADD PUSH2 0x146 JUMP JUMPDEST PUSH2 0x13C PUSH2 0xBE6 JUMP JUMPDEST PUSH0 PUSH2 0x2BC CALLER PUSH2 0x50E JUMP JUMPDEST SWAP1 POP DUP1 ISZERO PUSH2 0x50B JUMPI CALLER PUSH0 SWAP1 DUP2 MSTORE PUSH1 0x8 PUSH1 0x20 MSTORE PUSH1 0x40 SWAP1 KECCAK256 SLOAD PUSH2 0x2DD SWAP1 DUP3 PUSH2 0xCEC JUMP JUMPDEST CALLER PUSH0 SWAP1 DUP2 MSTORE PUSH1 0x8 PUSH1 0x20 MSTORE PUSH1 0x40 DUP1 DUP3 KECCAK256 SWAP3 SWAP1 SWAP3 SSTORE PUSH1 0x4 DUP1 SLOAD SWAP3 MLOAD PUSH4 0x70A08231 PUSH1 0xE0 SHL DUP2 MSTORE ADDRESS SWAP2 DUP2 ADD SWAP2 SWAP1 SWAP2 MSTORE SWAP1 SWAP2 PUSH1 0x1 PUSH1 0x1 PUSH1 0xA0 SHL SUB AND SWAP1 PUSH4 0x70A08231 SWAP1 PUSH1 0x24 ADD PUSH1 0x20 PUSH1 0x40 MLOAD DUP1 DUP4 SUB DUP2 DUP7 GAS STATICCALL ISZERO DUP1 ISZERO PUSH2 0x338 JUMPI RETURNDATASIZE PUSH0 DUP1 RETURNDATACOPY RETURNDATASIZE PUSH0 REVERT JUMPDEST POP POP POP POP PUSH1 0x40 MLOAD RETURNDATASIZE PUSH1 0x1F NOT PUSH1 0x1F DUP3 ADD AND DUP3 ADD DUP1 PUSH1 0x40 MSTORE POP DUP2 ADD SWAP1 PUSH2 0x35C SWAP2 SWAP1 PUSH2 0xE8D JUMP JUMPDEST SWAP1 POP DUP1 ISZERO PUSH2 0x442 JUMPI PUSH0 PUSH1 0x6 SLOAD DUP4 PUSH2 0x373 SWAP2 SWAP1 PUSH2 0xEB8 JUMP JUMPDEST PUSH2 0x37D SWAP1 DUP4 PUSH2 0xED7 JUMP JUMPDEST PUSH1 0x4 DUP1 SLOAD PUSH1 0x40 MLOAD PUSH4 0xA9059CBB PUSH1 0xE0 SHL DUP2 MSTORE CALLER SWAP3 DUP2 ADD SWAP3 SWAP1 SWAP3 MSTORE PUSH1 0x24 DUP3 ADD DUP4 SWAP1 MSTORE SWAP2 SWAP3 POP PUSH1 0x1 PUSH1 0x1 PUSH1 0xA0 SHL SUB SWAP1 SWAP2 AND SWAP1 PUSH4 0xA9059CBB SWAP1 PUSH1 0x44 ADD PUSH1 0x20 PUSH1 0x40 MLOAD DUP1 DUP4 SUB DUP2 PUSH0 DUP8 GAS CALL ISZERO DUP1 ISZERO PUSH2 0x3D1 JUMPI RETURNDATASIZE PUSH0 DUP1 RETURNDATACOPY RETURNDATASIZE PUSH0 REVERT JUMPDEST POP POP POP POP PUSH1 0x40 MLOAD RETURNDATASIZE PUSH1 0x1F NOT PUSH1 0x1F DUP3 ADD AND DUP3 ADD DUP1 PUSH1 0x40 MSTORE POP DUP2 ADD SWAP1 PUSH2 0x3F5 SWAP2 SWAP1 PUSH2 0xEEE JUMP JUMPDEST PUSH2 0x43D JUMPI PUSH1 0x40 MLOAD PUSH3 0x461BCD PUSH1 0xE5 SHL DUP2 MSTORE PUSH1 0x20 PUSH1 0x4 DUP3 ADD MSTORE PUSH1 0x14 PUSH1 0x24 DUP3 ADD MSTORE PUSH20 0x1554D110C81D1C985B9CD9995C8819985A5B1959 PUSH1 0x62 SHL PUSH1 0x44 DUP3 ADD MSTORE PUSH1 0x64 ADD JUMPDEST PUSH1 0x40 MLOAD DUP1 SWAP2 SUB SWAP1 REVERT JUMPDEST POP POP POP JUMP JUMPDEST DUP2 PUSH1 0x6 SLOAD PUSH2 0x450 SWAP2 SWAP1 PUSH2 0xF0D JUMP JUMPDEST PUSH1 0x6 SSTORE PUSH1 0x3 SLOAD PUSH1 0x40 MLOAD PUSH4 0xA9059CBB PUSH1 0xE0 SHL DUP2 MSTORE CALLER PUSH1 0x4 DUP3 ADD MSTORE PUSH1 0x24 DUP2 ADD DUP5 SWAP1 MSTORE PUSH1 0x1 PUSH1 0x1 PUSH1 0xA0 SHL SUB SWAP1 SWAP2 AND SWAP1 PUSH4 0xA9059CBB SWAP1 PUSH1 0x44 ADD JUMPDEST PUSH1 0x20 PUSH1 0x40 MLOAD DUP1 DUP4 SUB DUP2 PUSH0 DUP8 GAS CALL ISZERO DUP1 ISZERO PUSH2 0x4A2 JUMPI RETURNDATASIZE PUSH0 DUP1 RETURNDATACOPY RETURNDATASIZE PUSH0 REVERT JUMPDEST POP POP POP POP PUSH1 0x40 MLOAD RETURNDATASIZE PUSH1 0x1F NOT PUSH1 0x1F DUP3 ADD AND DUP3 ADD DUP1 PUSH1 0x40 MSTORE POP DUP2 ADD SWAP1 PUSH2 0x4C6 SWAP2 SWAP1 PUSH2 0xEEE JUMP JUMPDEST PUSH2 0x509 JUMPI PUSH1 0x40 MLOAD PUSH3 0x461BCD PUSH1 0xE5 SHL DUP2 MSTORE PUSH1 0x20 PUSH1 0x4 DUP3 ADD MSTORE PUSH1 0x14 PUSH1 0x24 DUP3 ADD MSTORE PUSH20 0x1554D110C81D1C985B9CD9995C8819985A5B1959 PUSH1 0x62 SHL PUSH1 0x44 DUP3 ADD MSTORE PUSH1 0x64 ADD PUSH2 0x434 JUMP JUMPDEST POP JUMPDEST POP JUMP JUMPDEST PUSH1 0x1 PUSH1 0x1 PUSH1 0xA0 SHL SUB DUP2 AND PUSH0 SWAP1 DUP2 MSTORE PUSH1 0x8 PUSH1 0x20 MSTORE PUSH1 0x40 DUP2 KECCAK256 SLOAD PUSH2 0x539 SWAP1 PUSH2 0x533 DUP5 PUSH2 0x67F JUMP JUMPDEST SWAP1 PUSH2 0xD09 JUMP JUMPDEST SWAP3 SWAP2 POP POP JUMP JUMPDEST PUSH2 0x554 CALLER PUSH0 CALLDATALOAD PUSH1 0x1 PUSH1 0x1 PUSH1 0xE0 SHL SUB NOT AND PUSH2 0xB11 JUMP JUMPDEST PUSH2 0x597 JUMPI PUSH1 0x40 MLOAD PUSH3 0x461BCD PUSH1 0xE5 SHL DUP2 MSTORE PUSH1 0x20 PUSH1 0x4 DUP3 ADD MSTORE PUSH1 0x14 PUSH1 0x24 DUP3 ADD MSTORE PUSH20 0x191CCB585D5D1A0B5D5B985D5D1A1BDC9A5E9959 PUSH1 0x62 SHL PUSH1 0x44 DUP3 ADD MSTORE PUSH1 0x64 ADD PUSH2 0x434 JUMP JUMPDEST PUSH1 0x1 DUP1 SLOAD PUSH1 0x1 PUSH1 0x1 PUSH1 0xA0 SHL SUB NOT AND PUSH1 0x1 PUSH1 0x1 PUSH1 0xA0 SHL SUB DUP4 AND SWAP1 DUP2 OR SWAP1 SWAP2 SSTORE PUSH1 0x40 MLOAD PUSH32 0xCE241D7CA1F669FEE44B6FC00B8EBA2DF3BB514EED0F6F668F8F89096E81ED94 SWAP1 PUSH0 SWAP1 LOG2 POP JUMP JUMPDEST PUSH2 0x5F5 CALLER PUSH0 CALLDATALOAD PUSH1 0x1 PUSH1 0x1 PUSH1 0xE0 SHL SUB NOT AND PUSH2 0xB11 JUMP JUMPDEST PUSH2 0x638 JUMPI PUSH1 0x40 MLOAD PUSH3 0x461BCD PUSH1 0xE5 SHL DUP2 MSTORE PUSH1 0x20 PUSH1 0x4 DUP3 ADD MSTORE PUSH1 0x14 PUSH1 0x24 DUP3 ADD MSTORE PUSH20 0x191CCB585D5D1A0B5D5B985D5D1A1BDC9A5E9959 PUSH1 0x62 SHL PUSH1 0x44 DUP3 ADD MSTORE PUSH1 0x64 ADD PUSH2 0x434 JUMP JUMPDEST PUSH0 DUP1 SLOAD PUSH1 0x1 PUSH1 0x1 PUSH1 0xA0 SHL SUB NOT AND PUSH1 0x1 PUSH1 0x1 PUSH1 0xA0 SHL SUB DUP4 AND SWAP1 DUP2 OR DUP3 SSTORE PUSH1 0x40 MLOAD SWAP1 SWAP2 PUSH32 0x1ABEBEA81BFA2637F28358C371278FB15EDE7EA8DD28D2E03B112FF6D936ADA4 SWAP2 LOG2 POP JUMP JUMPDEST PUSH1 0x1 PUSH1 0x1 PUSH1 0xA0 SHL SUB DUP2 AND PUSH0 SWAP1 DUP2 MSTORE PUSH1 0x7 PUSH1 0x20 SWAP1 DUP2 MSTORE PUSH1 0x40 DUP1 DUP4 KECCAK256 SLOAD PUSH1 0x9 SWAP1 SWAP3 MSTORE DUP3 KECCAK256 SLOAD PUSH1 0x5 SLOAD PUSH1 0x1 PUSH1 0x80 SHL SWAP3 PUSH2 0x6D1 SWAP3 PUSH2 0x6CC SWAP3 PUSH2 0x6C6 SWAP2 PUSH2 0x6C1 SWAP2 SWAP1 PUSH2 0xD24 JUMP JUMPDEST PUSH2 0xD57 JUMP JUMPDEST SWAP1 PUSH2 0xD65 JUMP JUMPDEST PUSH2 0xD9F JUMP JUMPDEST PUSH2 0x539 SWAP2 SWAP1 PUSH2 0xEB8 JUMP JUMPDEST PUSH1 0x3 SLOAD PUSH1 0x40 MLOAD PUSH4 0x70A08231 PUSH1 0xE0 SHL DUP2 MSTORE CALLER PUSH1 0x4 DUP3 ADD MSTORE PUSH0 SWAP2 PUSH1 0x1 PUSH1 0x1 PUSH1 0xA0 SHL SUB AND SWAP1 PUSH4 0x70A08231 SWAP1 PUSH1 0x24 ADD PUSH1 0x20 PUSH1 0x40 MLOAD DUP1 DUP4 SUB DUP2 DUP7 GAS STATICCALL ISZERO DUP1 ISZERO PUSH2 0x721 JUMPI RETURNDATASIZE PUSH0 DUP1 RETURNDATACOPY RETURNDATASIZE PUSH0 REVERT JUMPDEST POP POP POP POP PUSH1 0x40 MLOAD RETURNDATASIZE PUSH1 0x1F NOT PUSH1 0x1F DUP3 ADD AND DUP3 ADD DUP1 PUSH1 0x40 MSTORE POP DUP2 ADD SWAP1 PUSH2 0x745 SWAP2 SWAP1 PUSH2 0xE8D JUMP JUMPDEST SWAP1 POP DUP2 DUP2 LT ISZERO PUSH2 0x7A3 JUMPI PUSH1 0x40 MLOAD PUSH3 0x461BCD PUSH1 0xE5 SHL DUP2 MSTORE PUSH1 0x20 PUSH1 0x4 DUP3 ADD MSTORE PUSH1 0x23 PUSH1 0x24 DUP3 ADD MSTORE PUSH32 0x4F776E65722068617320696E73756666696369656E7420555344432062616C61 PUSH1 0x44 DUP3 ADD MSTORE PUSH3 0x6E6365 PUSH1 0xE8 SHL PUSH1 0x64 DUP3 ADD MSTORE PUSH1 0x84 ADD PUSH2 0x434 JUMP JUMPDEST PUSH1 0xA SLOAD ISZERO PUSH2 0x7D7 JUMPI PUSH1 0xA SLOAD PUSH2 0x7D3 SWAP1 PUSH2 0x7CA SWAP1 PUSH2 0x7C4 DUP6 PUSH1 0x1 PUSH1 0x80 SHL PUSH2 0xD24 JUMP JUMPDEST SWAP1 PUSH2 0xDB0 JUMP JUMPDEST PUSH1 0x5 SLOAD SWAP1 PUSH2 0xCEC JUMP JUMPDEST PUSH1 0x5 SSTORE JUMPDEST DUP2 PUSH1 0x6 SLOAD PUSH2 0x7E5 SWAP2 SWAP1 PUSH2 0xF20 JUMP JUMPDEST PUSH1 0x6 SSTORE PUSH1 0x40 MLOAD DUP3 DUP2 MSTORE CALLER SWAP1 PUSH32 0x4C03FE3EA6A2027470AF10696E6E65A7EAE16DE0BD8ECF5F6D33B776DE097A3 SWAP1 PUSH1 0x20 ADD PUSH1 0x40 MLOAD DUP1 SWAP2 SUB SWAP1 LOG2 PUSH1 0x3 SLOAD PUSH1 0x40 MLOAD PUSH4 0x23B872DD PUSH1 0xE0 SHL DUP2 MSTORE CALLER PUSH1 0x4 DUP3 ADD MSTORE ADDRESS PUSH1 0x24 DUP3 ADD MSTORE PUSH1 0x44 DUP2 ADD DUP5 SWAP1 MSTORE PUSH1 0x1 PUSH1 0x1 PUSH1 0xA0 SHL SUB SWAP1 SWAP2 AND SWAP1 PUSH4 0x23B872DD SWAP1 PUSH1 0x64 ADD PUSH2 0x486 JUMP JUMPDEST PUSH1 0x2 SLOAD PUSH1 0x40 MLOAD PUSH4 0x23B872DD PUSH1 0xE0 SHL DUP2 MSTORE CALLER PUSH1 0x4 DUP3 ADD MSTORE ADDRESS PUSH1 0x24 DUP3 ADD MSTORE PUSH1 0x44 DUP2 ADD DUP4 SWAP1 MSTORE PUSH1 0x1 PUSH1 0x1 PUSH1 0xA0 SHL SUB SWAP1 SWAP2 AND SWAP1 PUSH4 0x23B872DD SWAP1 PUSH1 0x64 ADD PUSH1 0x20 PUSH1 0x40 MLOAD DUP1 DUP4 SUB DUP2 PUSH0 DUP8 GAS CALL ISZERO DUP1 ISZERO PUSH2 0x8AE JUMPI RETURNDATASIZE PUSH0 DUP1 RETURNDATACOPY RETURNDATASIZE PUSH0 REVERT JUMPDEST POP POP POP POP PUSH1 0x40 MLOAD RETURNDATASIZE PUSH1 0x1F NOT PUSH1 0x1F DUP3 ADD AND DUP3 ADD DUP1 PUSH1 0x40 MSTORE POP DUP2 ADD SWAP1 PUSH2 0x8D2 SWAP2 SWAP1 PUSH2 0xEEE JUMP JUMPDEST PUSH2 0x914 JUMPI PUSH1 0x40 MLOAD PUSH3 0x461BCD PUSH1 0xE5 SHL DUP2 MSTORE PUSH1 0x20 PUSH1 0x4 DUP3 ADD MSTORE PUSH1 0x13 PUSH1 0x24 DUP3 ADD MSTORE PUSH19 0x1090D2C81D1C985B9CD9995C8819985A5B1959 PUSH1 0x6A SHL PUSH1 0x44 DUP3 ADD MSTORE PUSH1 0x64 ADD PUSH2 0x434 JUMP JUMPDEST PUSH2 0x944 PUSH2 0x92F PUSH2 0x6C1 DUP4 PUSH1 0x5 SLOAD PUSH2 0xD24 SWAP1 SWAP2 SWAP1 PUSH4 0xFFFFFFFF AND JUMP JUMPDEST CALLER PUSH0 SWAP1 DUP2 MSTORE PUSH1 0x7 PUSH1 0x20 MSTORE PUSH1 0x40 SWAP1 KECCAK256 SLOAD SWAP1 PUSH2 0xDBB JUMP JUMPDEST CALLER PUSH0 SWAP1 DUP2 MSTORE PUSH1 0x7 PUSH1 0x20 SWAP1 DUP2 MSTORE PUSH1 0x40 DUP1 DUP4 KECCAK256 SWAP4 SWAP1 SWAP4 SSTORE PUSH1 0x9 SWAP1 MSTORE KECCAK256 SLOAD PUSH2 0x969 SWAP1 DUP3 PUSH2 0xCEC JUMP JUMPDEST CALLER PUSH0 SWAP1 DUP2 MSTORE PUSH1 0x9 PUSH1 0x20 MSTORE PUSH1 0x40 SWAP1 KECCAK256 SSTORE PUSH1 0xA SLOAD PUSH2 0x985 SWAP1 DUP3 PUSH2 0xCEC JUMP JUMPDEST PUSH1 0xA SSTORE POP JUMP JUMPDEST CALLER PUSH0 SWAP1 DUP2 MSTORE PUSH1 0x9 PUSH1 0x20 MSTORE PUSH1 0x40 SWAP1 KECCAK256 SLOAD DUP2 GT ISZERO PUSH2 0x9E9 JUMPI PUSH1 0x40 MLOAD PUSH3 0x461BCD PUSH1 0xE5 SHL DUP2 MSTORE PUSH1 0x20 PUSH1 0x4 DUP3 ADD MSTORE PUSH1 0x18 PUSH1 0x24 DUP3 ADD MSTORE PUSH32 0x496E73756666696369656E742042434B2062616C616E63650000000000000000 PUSH1 0x44 DUP3 ADD MSTORE PUSH1 0x64 ADD PUSH2 0x434 JUMP JUMPDEST PUSH2 0xA19 PUSH2 0xA04 PUSH2 0x6C1 DUP4 PUSH1 0x5 SLOAD PUSH2 0xD24 SWAP1 SWAP2 SWAP1 PUSH4 0xFFFFFFFF AND JUMP JUMPDEST CALLER PUSH0 SWAP1 DUP2 MSTORE PUSH1 0x7 PUSH1 0x20 MSTORE PUSH1 0x40 SWAP1 KECCAK256 SLOAD SWAP1 PUSH2 0xD65 JUMP JUMPDEST CALLER PUSH0 SWAP1 DUP2 MSTORE PUSH1 0x7 PUSH1 0x20 SWAP1 DUP2 MSTORE PUSH1 0x40 DUP1 DUP4 KECCAK256 SWAP4 SWAP1 SWAP4 SSTORE PUSH1 0x9 SWAP1 MSTORE KECCAK256 SLOAD PUSH2 0xA3E SWAP1 DUP3 PUSH2 0xD09 JUMP JUMPDEST CALLER PUSH0 SWAP1 DUP2 MSTORE PUSH1 0x9 PUSH1 0x20 MSTORE PUSH1 0x40 SWAP1 KECCAK256 SSTORE PUSH1 0xA SLOAD PUSH2 0xA5A SWAP1 DUP3 PUSH2 0xD09 JUMP JUMPDEST PUSH1 0xA SSTORE PUSH1 0x2 SLOAD PUSH1 0x40 MLOAD PUSH4 0xA9059CBB PUSH1 0xE0 SHL DUP2 MSTORE CALLER PUSH1 0x4 DUP3 ADD MSTORE PUSH1 0x24 DUP2 ADD DUP4 SWAP1 MSTORE PUSH1 0x1 PUSH1 0x1 PUSH1 0xA0 SHL SUB SWAP1 SWAP2 AND SWAP1 PUSH4 0xA9059CBB SWAP1 PUSH1 0x44 ADD PUSH1 0x20 PUSH1 0x40 MLOAD DUP1 DUP4 SUB DUP2 PUSH0 DUP8 GAS CALL ISZERO DUP1 ISZERO PUSH2 0xAAB JUMPI RETURNDATASIZE PUSH0 DUP1 RETURNDATACOPY RETURNDATASIZE PUSH0 REVERT JUMPDEST POP POP POP POP PUSH1 0x40 MLOAD RETURNDATASIZE PUSH1 0x1F NOT PUSH1 0x1F DUP3 ADD AND DUP3 ADD DUP1 PUSH1 0x40 MSTORE POP DUP2 ADD SWAP1 PUSH2 0xACF SWAP2 SWAP1 PUSH2 0xEEE JUMP JUMPDEST PUSH2 0x50B JUMPI PUSH1 0x40 MLOAD PUSH3 0x461BCD PUSH1 0xE5 SHL DUP2 MSTORE PUSH1 0x20 PUSH1 0x4 DUP3 ADD MSTORE PUSH1 0x13 PUSH1 0x24 DUP3 ADD MSTORE PUSH19 0x1090D2C81D1C985B9CD9995C8819985A5B1959 PUSH1 0x6A SHL PUSH1 0x44 DUP3 ADD MSTORE PUSH1 0x64 ADD PUSH2 0x434 JUMP JUMPDEST PUSH0 ADDRESS PUSH1 0x1 PUSH1 0x1 PUSH1 0xA0 SHL SUB DUP5 AND SUB PUSH2 0xB2A JUMPI POP PUSH1 0x1 PUSH2 0x539 JUMP JUMPDEST PUSH1 0x1 SLOAD PUSH1 0x1 PUSH1 0x1 PUSH1 0xA0 SHL SUB SWAP1 DUP2 AND SWAP1 DUP5 AND SUB PUSH2 0xB48 JUMPI POP PUSH1 0x1 PUSH2 0x539 JUMP JUMPDEST PUSH0 SLOAD PUSH1 0x1 PUSH1 0x1 PUSH1 0xA0 SHL SUB AND PUSH2 0xB5E JUMPI POP PUSH0 PUSH2 0x539 JUMP JUMPDEST PUSH0 SLOAD PUSH1 0x40 MLOAD PUSH4 0xB7009613 PUSH1 0xE0 SHL DUP2 MSTORE PUSH1 0x1 PUSH1 0x1 PUSH1 0xA0 SHL SUB DUP6 DUP2 AND PUSH1 0x4 DUP4 ADD MSTORE ADDRESS PUSH1 0x24 DUP4 ADD MSTORE PUSH1 0x1 PUSH1 0x1 PUSH1 0xE0 SHL SUB NOT DUP6 AND PUSH1 0x44 DUP4 ADD MSTORE SWAP1 SWAP2 AND SWAP1 PUSH4 0xB7009613 SWAP1 PUSH1 0x64 ADD PUSH1 0x20 PUSH1 0x40 MLOAD DUP1 DUP4 SUB DUP2 DUP7 GAS STATICCALL ISZERO DUP1 ISZERO PUSH2 0xBBB JUMPI RETURNDATASIZE PUSH0 DUP1 RETURNDATACOPY RETURNDATASIZE PUSH0 REVERT JUMPDEST POP POP POP POP PUSH1 0x40 MLOAD RETURNDATASIZE PUSH1 0x1F NOT PUSH1 0x1F DUP3 ADD AND DUP3 ADD DUP1 PUSH1 0x40 MSTORE POP DUP2 ADD SWAP1 PUSH2 0xBDF SWAP2 SWAP1 PUSH2 0xEEE JUMP JUMPDEST SWAP4 SWAP3 POP POP POP JUMP JUMPDEST PUSH0 DUP1 PUSH1 0x6 SLOAD GT PUSH2 0xC4F JUMPI PUSH1 0x40 MLOAD PUSH3 0x461BCD PUSH1 0xE5 SHL DUP2 MSTORE PUSH1 0x20 PUSH1 0x4 DUP3 ADD MSTORE PUSH1 0x2E PUSH1 0x24 DUP3 ADD MSTORE PUSH32 0x5448455245204953204E4F20657342434B474F5620494E544552455354204C45 PUSH1 0x44 DUP3 ADD MSTORE PUSH14 0x465420544F205749544844524157 PUSH1 0x90 SHL PUSH1 0x64 DUP3 ADD MSTORE PUSH1 0x84 ADD PUSH2 0x434 JUMP JUMPDEST PUSH0 PUSH2 0xC59 CALLER PUSH2 0x50E JUMP JUMPDEST PUSH1 0x4 DUP1 SLOAD PUSH1 0x40 MLOAD PUSH4 0x70A08231 PUSH1 0xE0 SHL DUP2 MSTORE ADDRESS SWAP3 DUP2 ADD SWAP3 SWAP1 SWAP3 MSTORE SWAP2 SWAP3 POP PUSH0 SWAP2 PUSH1 0x1 PUSH1 0x1 PUSH1 0xA0 SHL SUB AND SWAP1 PUSH4 0x70A08231 SWAP1 PUSH1 0x24 ADD PUSH1 0x20 PUSH1 0x40 MLOAD DUP1 DUP4 SUB DUP2 DUP7 GAS STATICCALL ISZERO DUP1 ISZERO PUSH2 0xCA5 JUMPI RETURNDATASIZE PUSH0 DUP1 RETURNDATACOPY RETURNDATASIZE PUSH0 REVERT JUMPDEST POP POP POP POP PUSH1 0x40 MLOAD RETURNDATASIZE PUSH1 0x1F NOT PUSH1 0x1F DUP3 ADD AND DUP3 ADD DUP1 PUSH1 0x40 MSTORE POP DUP2 ADD SWAP1 PUSH2 0xCC9 SWAP2 SWAP1 PUSH2 0xE8D JUMP JUMPDEST SWAP1 POP PUSH0 PUSH1 0x6 SLOAD DUP4 PUSH2 0xCDA SWAP2 SWAP1 PUSH2 0xEB8 JUMP JUMPDEST PUSH2 0xCE4 SWAP1 DUP4 PUSH2 0xED7 JUMP JUMPDEST SWAP5 SWAP4 POP POP POP POP JUMP JUMPDEST PUSH0 PUSH2 0xCF7 DUP3 DUP5 PUSH2 0xF20 JUMP JUMPDEST SWAP1 POP DUP3 DUP2 LT ISZERO PUSH2 0x539 JUMPI PUSH2 0x539 PUSH2 0xF33 JUMP JUMPDEST PUSH0 DUP3 DUP3 GT ISZERO PUSH2 0xD1A JUMPI PUSH2 0xD1A PUSH2 0xF33 JUMP JUMPDEST PUSH2 0xBDF DUP3 DUP5 PUSH2 0xF0D JUMP JUMPDEST PUSH0 DUP3 PUSH0 SUB PUSH2 0xD33 JUMPI POP PUSH0 PUSH2 0x539 JUMP JUMPDEST PUSH2 0xD3D DUP3 DUP5 PUSH2 0xED7 JUMP JUMPDEST SWAP1 POP DUP2 PUSH2 0xD4A DUP5 DUP4 PUSH2 0xEB8 JUMP JUMPDEST EQ PUSH2 0x539 JUMPI PUSH2 0x539 PUSH2 0xF33 JUMP JUMPDEST PUSH0 DUP2 DUP2 DUP2 SLT ISZERO PUSH2 0x539 JUMPI PUSH0 DUP1 REVERT JUMPDEST PUSH0 DUP1 PUSH2 0xD71 DUP4 DUP6 PUSH2 0xF47 JUMP JUMPDEST SWAP1 POP PUSH0 DUP4 SLT ISZERO DUP1 ISZERO PUSH2 0xD83 JUMPI POP DUP4 DUP2 SLT ISZERO JUMPDEST DUP1 PUSH2 0xD97 JUMPI POP PUSH0 DUP4 SLT DUP1 ISZERO PUSH2 0xD97 JUMPI POP DUP4 DUP2 SLT JUMPDEST PUSH2 0xBDF JUMPI PUSH0 DUP1 REVERT JUMPDEST PUSH0 DUP1 DUP3 SLT ISZERO PUSH2 0xDAC JUMPI PUSH0 DUP1 REVERT JUMPDEST POP SWAP1 JUMP JUMPDEST PUSH0 PUSH2 0xBDF DUP3 DUP5 PUSH2 0xEB8 JUMP JUMPDEST PUSH0 DUP1 DUP3 SLT ISZERO DUP1 ISZERO PUSH2 0xDD5 JUMPI POP DUP3 PUSH2 0xDD2 DUP4 DUP3 PUSH2 0xF6E JUMP JUMPDEST SGT ISZERO JUMPDEST DUP1 PUSH2 0xDF2 JUMPI POP PUSH0 DUP3 SLT DUP1 ISZERO PUSH2 0xDF2 JUMPI POP DUP3 PUSH2 0xDF0 DUP4 DUP3 PUSH2 0xF6E JUMP JUMPDEST SGT JUMPDEST PUSH2 0xDFA JUMPI PUSH0 DUP1 REVERT JUMPDEST PUSH2 0xBDF DUP3 DUP5 PUSH2 0xF6E JUMP JUMPDEST PUSH1 0x1 PUSH1 0x1 PUSH1 0xA0 SHL SUB DUP2 AND DUP2 EQ PUSH2 0x50B JUMPI PUSH0 DUP1 REVERT JUMPDEST PUSH0 PUSH1 0x20 DUP3 DUP5 SUB SLT ISZERO PUSH2 0xE28 JUMPI PUSH0 DUP1 REVERT JUMPDEST DUP2 CALLDATALOAD PUSH2 0xBDF DUP2 PUSH2 0xE04 JUMP JUMPDEST PUSH0 PUSH1 0x20 DUP3 DUP5 SUB SLT ISZERO PUSH2 0xE43 JUMPI PUSH0 DUP1 REVERT JUMPDEST POP CALLDATALOAD SWAP2 SWAP1 POP JUMP JUMPDEST PUSH0 DUP1 PUSH1 0x40 DUP4 DUP6 SUB SLT ISZERO PUSH2 0xE5B JUMPI PUSH0 DUP1 REVERT JUMPDEST DUP3 CALLDATALOAD PUSH2 0xE66 DUP2 PUSH2 0xE04 JUMP JUMPDEST SWAP2 POP PUSH1 0x20 DUP4 ADD CALLDATALOAD PUSH1 0x1 PUSH1 0x1 PUSH1 0xE0 SHL SUB NOT DUP2 AND DUP2 EQ PUSH2 0xE82 JUMPI PUSH0 DUP1 REVERT JUMPDEST DUP1 SWAP2 POP POP SWAP3 POP SWAP3 SWAP1 POP JUMP JUMPDEST PUSH0 PUSH1 0x20 DUP3 DUP5 SUB SLT ISZERO PUSH2 0xE9D JUMPI PUSH0 DUP1 REVERT JUMPDEST POP MLOAD SWAP2 SWAP1 POP JUMP JUMPDEST PUSH4 0x4E487B71 PUSH1 0xE0 SHL PUSH0 MSTORE PUSH1 0x11 PUSH1 0x4 MSTORE PUSH1 0x24 PUSH0 REVERT JUMPDEST PUSH0 DUP3 PUSH2 0xED2 JUMPI PUSH4 0x4E487B71 PUSH1 0xE0 SHL PUSH0 MSTORE PUSH1 0x12 PUSH1 0x4 MSTORE PUSH1 0x24 PUSH0 REVERT JUMPDEST POP DIV SWAP1 JUMP JUMPDEST DUP1 DUP3 MUL DUP2 ISZERO DUP3 DUP3 DIV DUP5 EQ OR PUSH2 0x539 JUMPI PUSH2 0x539 PUSH2 0xEA4 JUMP JUMPDEST PUSH0 PUSH1 0x20 DUP3 DUP5 SUB SLT ISZERO PUSH2 0xEFE JUMPI PUSH0 DUP1 REVERT JUMPDEST DUP2 MLOAD DUP1 ISZERO ISZERO DUP2 EQ PUSH2 0xBDF JUMPI PUSH0 DUP1 REVERT JUMPDEST DUP2 DUP2 SUB DUP2 DUP2 GT ISZERO PUSH2 0x539 JUMPI PUSH2 0x539 PUSH2 0xEA4 JUMP JUMPDEST DUP1 DUP3 ADD DUP1 DUP3 GT ISZERO PUSH2 0x539 JUMPI PUSH2 0x539 PUSH2 0xEA4 JUMP JUMPDEST PUSH4 0x4E487B71 PUSH1 0xE0 SHL PUSH0 MSTORE PUSH1 0x1 PUSH1 0x4 MSTORE PUSH1 0x24 PUSH0 REVERT JUMPDEST DUP1 DUP3 ADD DUP3 DUP2 SLT PUSH0 DUP4 SLT DUP1 ISZERO DUP3 AND DUP3 ISZERO DUP3 AND OR ISZERO PUSH2 0xF66 JUMPI PUSH2 0xF66 PUSH2 0xEA4 JUMP JUMPDEST POP POP SWAP3 SWAP2 POP POP JUMP JUMPDEST DUP2 DUP2 SUB PUSH0 DUP4 SLT DUP1 ISZERO DUP4 DUP4 SGT AND DUP4 DUP4 SLT DUP3 AND OR ISZERO PUSH2 0xF8D JUMPI PUSH2 0xF8D PUSH2 0xEA4 JUMP JUMPDEST POP SWAP3 SWAP2 POP POP JUMP INVALID LOG2 PUSH5 0x6970667358 0x22 SLT KECCAK256 SWAP13 0xD4 SMOD SMOD GASLIMIT CODECOPY DUP7 0xB3 GASPRICE 0x23 KECCAK256 0x26 RETURN 0xAE 0xB1 EQ PUSH12 0x4D511808E3921CEB1377FCA4 PUSH24 0x78FC64736F6C63430008170033608060405234801561000F JUMPI PUSH0 DUP1 REVERT JUMPDEST POP PUSH1 0x40 MLOAD PUSH2 0xD5D CODESIZE SUB DUP1 PUSH2 0xD5D DUP4 CODECOPY DUP2 ADD PUSH1 0x40 DUP2 SWAP1 MSTORE PUSH2 0x2E SWAP2 PUSH2 0xB7 JUMP JUMPDEST PUSH1 0x1 DUP1 SLOAD PUSH1 0x1 PUSH1 0x1 PUSH1 0xA0 SHL SUB NOT AND CALLER SWAP1 DUP2 OR SWAP1 SWAP2 SSTORE PUSH1 0x40 MLOAD PUSH32 0xCE241D7CA1F669FEE44B6FC00B8EBA2DF3BB514EED0F6F668F8F89096E81ED94 SWAP1 PUSH0 SWAP1 LOG2 PUSH1 0x2 DUP1 SLOAD PUSH1 0x1 PUSH1 0x1 PUSH1 0xA0 SHL SUB SWAP4 DUP5 AND PUSH1 0x1 PUSH1 0x1 PUSH1 0xA0 SHL SUB NOT SWAP2 DUP3 AND OR SWAP1 SWAP2 SSTORE PUSH1 0x3 DUP1 SLOAD SWAP3 SWAP1 SWAP4 AND SWAP2 AND OR SWAP1 SSTORE PUSH2 0xE8 JUMP JUMPDEST DUP1 MLOAD PUSH1 0x1 PUSH1 0x1 PUSH1 0xA0 SHL SUB DUP2 AND DUP2 EQ PUSH2 0xB2 JUMPI PUSH0 DUP1 REVERT JUMPDEST SWAP2 SWAP1 POP JUMP JUMPDEST PUSH0 DUP1 PUSH1 0x40 DUP4 DUP6 SUB SLT ISZERO PUSH2 0xC8 JUMPI PUSH0 DUP1 REVERT JUMPDEST PUSH2 0xD1 DUP4 PUSH2 0x9C JUMP JUMPDEST SWAP2 POP PUSH2 0xDF PUSH1 0x20 DUP5 ADD PUSH2 0x9C JUMP JUMPDEST SWAP1 POP SWAP3 POP SWAP3 SWAP1 POP JUMP JUMPDEST PUSH2 0xC68 DUP1 PUSH2 0xF5 PUSH0 CODECOPY PUSH0 RETURN INVALID PUSH1 0x80 PUSH1 0x40 MSTORE CALLVALUE DUP1 ISZERO PUSH2 0xF JUMPI PUSH0 DUP1 REVERT JUMPDEST POP PUSH1 0x4 CALLDATASIZE LT PUSH2 0x111 JUMPI PUSH0 CALLDATALOAD PUSH1 0xE0 SHR DUP1 PUSH4 0x8D007244 GT PUSH2 0x9E JUMPI DUP1 PUSH4 0xB77CF9C6 GT PUSH2 0x6E JUMPI DUP1 PUSH4 0xB77CF9C6 EQ PUSH2 0x233 JUMPI DUP1 PUSH4 0xBF7E214F EQ PUSH2 0x252 JUMPI DUP1 PUSH4 0xD9972B96 EQ PUSH2 0x264 JUMPI DUP1 PUSH4 0xE12F3A61 EQ PUSH2 0x287 JUMPI DUP1 PUSH4 0xE5FCD6CD EQ PUSH2 0x29A JUMPI PUSH0 DUP1 REVERT JUMPDEST DUP1 PUSH4 0x8D007244 EQ PUSH2 0x1E7 JUMPI DUP1 PUSH4 0x8DA5CB5B EQ PUSH2 0x1FA JUMPI DUP1 PUSH4 0x9117734D EQ PUSH2 0x20D JUMPI DUP1 PUSH4 0xB6B55F25 EQ PUSH2 0x220 JUMPI PUSH0 DUP1 REVERT JUMPDEST DUP1 PUSH4 0x1F76D9ED GT PUSH2 0xE4 JUMPI DUP1 PUSH4 0x1F76D9ED EQ PUSH2 0x191 JUMPI DUP1 PUSH4 0x20E49559 EQ PUSH2 0x1A4 JUMPI DUP1 PUSH4 0x28D1A98E EQ PUSH2 0x1C3 JUMPI DUP1 PUSH4 0x4E71D92D EQ PUSH2 0x1CC JUMPI DUP1 PUSH4 0x7A9E5E4B EQ PUSH2 0x1D4 JUMPI PUSH0 DUP1 REVERT JUMPDEST DUP1 PUSH4 0x13AF4035 EQ PUSH2 0x115 JUMPI DUP1 PUSH4 0x144D7941 EQ PUSH2 0x12A JUMPI DUP1 PUSH4 0x189CFFA6 EQ PUSH2 0x147 JUMPI DUP1 PUSH4 0x1E1F633E EQ PUSH2 0x166 JUMPI JUMPDEST PUSH0 DUP1 REVERT JUMPDEST PUSH2 0x128 PUSH2 0x123 CALLDATASIZE PUSH1 0x4 PUSH2 0xB00 JUMP JUMPDEST PUSH2 0x2A2 JUMP JUMPDEST STOP JUMPDEST PUSH2 0x134 PUSH3 0x1A5E00 DUP2 JUMP JUMPDEST PUSH1 0x40 MLOAD SWAP1 DUP2 MSTORE PUSH1 0x20 ADD JUMPDEST PUSH1 0x40 MLOAD DUP1 SWAP2 SUB SWAP1 RETURN JUMPDEST PUSH2 0x134 PUSH2 0x155 CALLDATASIZE PUSH1 0x4 PUSH2 0xB00 JUMP JUMPDEST PUSH1 0x5 PUSH1 0x20 MSTORE PUSH0 SWAP1 DUP2 MSTORE PUSH1 0x40 SWAP1 KECCAK256 SLOAD DUP2 JUMP JUMPDEST PUSH1 0x2 SLOAD PUSH2 0x179 SWAP1 PUSH1 0x1 PUSH1 0x1 PUSH1 0xA0 SHL SUB AND DUP2 JUMP JUMPDEST PUSH1 0x40 MLOAD PUSH1 0x1 PUSH1 0x1 PUSH1 0xA0 SHL SUB SWAP1 SWAP2 AND DUP2 MSTORE PUSH1 0x20 ADD PUSH2 0x13E JUMP JUMPDEST PUSH2 0x134 PUSH2 0x19F CALLDATASIZE PUSH1 0x4 PUSH2 0xB00 JUMP JUMPDEST PUSH2 0x325 JUMP JUMPDEST PUSH2 0x134 PUSH2 0x1B2 CALLDATASIZE PUSH1 0x4 PUSH2 0xB00 JUMP JUMPDEST PUSH1 0x6 PUSH1 0x20 MSTORE PUSH0 SWAP1 DUP2 MSTORE PUSH1 0x40 SWAP1 KECCAK256 SLOAD DUP2 JUMP JUMPDEST PUSH2 0x134 PUSH1 0x4 SLOAD DUP2 JUMP JUMPDEST PUSH2 0x128 PUSH2 0x396 JUMP JUMPDEST PUSH2 0x128 PUSH2 0x1E2 CALLDATASIZE PUSH1 0x4 PUSH2 0xB00 JUMP JUMPDEST PUSH2 0x4A0 JUMP JUMPDEST PUSH2 0x128 PUSH2 0x1F5 CALLDATASIZE PUSH1 0x4 PUSH2 0xB1B JUMP JUMPDEST PUSH2 0x518 JUMP JUMPDEST PUSH1 0x1 SLOAD PUSH2 0x179 SWAP1 PUSH1 0x1 PUSH1 0x1 PUSH1 0xA0 SHL SUB AND DUP2 JUMP JUMPDEST PUSH1 0x3 SLOAD PUSH2 0x179 SWAP1 PUSH1 0x1 PUSH1 0x1 PUSH1 0xA0 SHL SUB AND DUP2 JUMP JUMPDEST PUSH2 0x128 PUSH2 0x22E CALLDATASIZE PUSH1 0x4 PUSH2 0xB1B JUMP JUMPDEST PUSH2 0x55B JUMP JUMPDEST PUSH2 0x134 PUSH2 0x241 CALLDATASIZE PUSH1 0x4 PUSH2 0xB00 JUMP JUMPDEST PUSH1 0x7 PUSH1 0x20 MSTORE PUSH0 SWAP1 DUP2 MSTORE PUSH1 0x40 SWAP1 KECCAK256 SLOAD DUP2 JUMP JUMPDEST PUSH0 SLOAD PUSH2 0x179 SWAP1 PUSH1 0x1 PUSH1 0x1 PUSH1 0xA0 SHL SUB AND DUP2 JUMP JUMPDEST PUSH2 0x277 PUSH2 0x272 CALLDATASIZE PUSH1 0x4 PUSH2 0xB32 JUMP JUMPDEST PUSH2 0x645 JUMP JUMPDEST PUSH1 0x40 MLOAD SWAP1 ISZERO ISZERO DUP2 MSTORE PUSH1 0x20 ADD PUSH2 0x13E JUMP JUMPDEST PUSH2 0x134 PUSH2 0x295 CALLDATASIZE PUSH1 0x4 PUSH2 0xB00 JUMP JUMPDEST PUSH2 0x71A JUMP JUMPDEST PUSH2 0x128 PUSH2 0x7FA JUMP JUMPDEST PUSH2 0x2B7 CALLER PUSH0 CALLDATALOAD PUSH1 0x1 PUSH1 0x1 PUSH1 0xE0 SHL SUB NOT AND PUSH2 0x645 JUMP JUMPDEST PUSH2 0x2DC JUMPI PUSH1 0x40 MLOAD PUSH3 0x461BCD PUSH1 0xE5 SHL DUP2 MSTORE PUSH1 0x4 ADD PUSH2 0x2D3 SWAP1 PUSH2 0xB75 JUMP JUMPDEST PUSH1 0x40 MLOAD DUP1 SWAP2 SUB SWAP1 REVERT JUMPDEST PUSH1 0x1 DUP1 SLOAD PUSH1 0x1 PUSH1 0x1 PUSH1 0xA0 SHL SUB NOT AND PUSH1 0x1 PUSH1 0x1 PUSH1 0xA0 SHL SUB DUP4 AND SWAP1 DUP2 OR SWAP1 SWAP2 SSTORE PUSH1 0x40 MLOAD PUSH32 0xCE241D7CA1F669FEE44B6FC00B8EBA2DF3BB514EED0F6F668F8F89096E81ED94 SWAP1 PUSH0 SWAP1 LOG2 POP JUMP JUMPDEST PUSH1 0x1 PUSH1 0x1 PUSH1 0xA0 SHL SUB DUP2 AND PUSH0 SWAP1 DUP2 MSTORE PUSH1 0x5 PUSH1 0x20 MSTORE PUSH1 0x40 DUP2 KECCAK256 SLOAD TIMESTAMP LT ISZERO PUSH2 0x38F JUMPI PUSH1 0x1 PUSH1 0x1 PUSH1 0xA0 SHL SUB DUP3 AND PUSH0 SWAP1 DUP2 MSTORE PUSH1 0x5 PUSH1 0x20 MSTORE PUSH1 0x40 SWAP1 KECCAK256 SLOAD PUSH2 0x367 SWAP1 TIMESTAMP SWAP1 PUSH2 0xBB7 JUMP JUMPDEST PUSH1 0x1 PUSH1 0x1 PUSH1 0xA0 SHL SUB DUP4 AND PUSH0 SWAP1 DUP2 MSTORE PUSH1 0x6 PUSH1 0x20 MSTORE PUSH1 0x40 SWAP1 KECCAK256 SLOAD PUSH2 0x389 SWAP2 SWAP1 PUSH2 0xBCA JUMP JUMPDEST SWAP3 SWAP2 POP POP JUMP JUMPDEST POP PUSH0 SWAP2 SWAP1 POP JUMP JUMPDEST PUSH0 PUSH2 0x3A0 CALLER PUSH2 0x71A JUMP JUMPDEST SWAP1 POP PUSH0 DUP2 GT PUSH2 0x3F1 JUMPI PUSH1 0x40 MLOAD PUSH3 0x461BCD PUSH1 0xE5 SHL DUP2 MSTORE PUSH1 0x20 PUSH1 0x4 DUP3 ADD DUP2 SWAP1 MSTORE PUSH1 0x24 DUP3 ADD MSTORE PUSH32 0x4E6F20746F6B656E7320617661696C61626C6520666F7220636C61696D696E67 PUSH1 0x44 DUP3 ADD MSTORE PUSH1 0x64 ADD PUSH2 0x2D3 JUMP JUMPDEST PUSH1 0x3 SLOAD PUSH1 0x40 MLOAD PUSH4 0x40C10F19 PUSH1 0xE0 SHL DUP2 MSTORE CALLER PUSH1 0x4 DUP3 ADD MSTORE PUSH1 0x24 DUP2 ADD DUP4 SWAP1 MSTORE PUSH1 0x1 PUSH1 0x1 PUSH1 0xA0 SHL SUB SWAP1 SWAP2 AND SWAP1 PUSH4 0x40C10F19 SWAP1 PUSH1 0x44 ADD PUSH0 PUSH1 0x40 MLOAD DUP1 DUP4 SUB DUP2 PUSH0 DUP8 DUP1 EXTCODESIZE ISZERO DUP1 ISZERO PUSH2 0x43A JUMPI PUSH0 DUP1 REVERT JUMPDEST POP GAS CALL ISZERO DUP1 ISZERO PUSH2 0x44C JUMPI RETURNDATASIZE PUSH0 DUP1 RETURNDATACOPY RETURNDATASIZE PUSH0 REVERT JUMPDEST POP POP CALLER PUSH0 DUP2 DUP2 MSTORE PUSH1 0x7 PUSH1 0x20 MSTORE PUSH1 0x40 SWAP1 DUP2 SWAP1 KECCAK256 TIMESTAMP SWAP1 SSTORE MLOAD SWAP1 SWAP3 POP PUSH32 0xD8138F8A3F377C5259CA548E70E4C2DE94F129F5A11036A15B69513CBA2B426A SWAP2 POP PUSH2 0x495 SWAP1 DUP5 DUP2 MSTORE PUSH1 0x20 ADD SWAP1 JUMP JUMPDEST PUSH1 0x40 MLOAD DUP1 SWAP2 SUB SWAP1 LOG2 POP JUMP JUMPDEST PUSH2 0x4B5 CALLER PUSH0 CALLDATALOAD PUSH1 0x1 PUSH1 0x1 PUSH1 0xE0 SHL SUB NOT AND PUSH2 0x645 JUMP JUMPDEST PUSH2 0x4D1 JUMPI PUSH1 0x40 MLOAD PUSH3 0x461BCD PUSH1 0xE5 SHL DUP2 MSTORE PUSH1 0x4 ADD PUSH2 0x2D3 SWAP1 PUSH2 0xB75 JUMP JUMPDEST PUSH0 DUP1 SLOAD PUSH1 0x1 PUSH1 0x1 PUSH1 0xA0 SHL SUB NOT AND PUSH1 0x1 PUSH1 0x1 PUSH1 0xA0 SHL SUB DUP4 AND SWAP1 DUP2 OR DUP3 SSTORE PUSH1 0x40 MLOAD SWAP1 SWAP2 PUSH32 0x1ABEBEA81BFA2637F28358C371278FB15EDE7EA8DD28D2E03B112FF6D936ADA4 SWAP2 LOG2 POP JUMP JUMPDEST PUSH2 0x52D CALLER PUSH0 CALLDATALOAD PUSH1 0x1 PUSH1 0x1 PUSH1 0xE0 SHL SUB NOT AND PUSH2 0x645 JUMP JUMPDEST PUSH2 0x549 JUMPI PUSH1 0x40 MLOAD PUSH3 0x461BCD PUSH1 0xE5 SHL DUP2 MSTORE PUSH1 0x4 ADD PUSH2 0x2D3 SWAP1 PUSH2 0xB75 JUMP JUMPDEST PUSH1 0x64 DUP2 GT ISZERO PUSH2 0x556 JUMPI PUSH0 DUP1 REVERT JUMPDEST PUSH1 0x4 SSTORE JUMP JUMPDEST PUSH0 DUP2 GT PUSH2 0x5AA JUMPI PUSH1 0x40 MLOAD PUSH3 0x461BCD PUSH1 0xE5 SHL DUP2 MSTORE PUSH1 0x20 PUSH1 0x4 DUP3 ADD MSTORE PUSH1 0x1D PUSH1 0x24 DUP3 ADD MSTORE PUSH32 0x416D6F756E74206D7573742062652067726561746572207468616E2030000000 PUSH1 0x44 DUP3 ADD MSTORE PUSH1 0x64 ADD PUSH2 0x2D3 JUMP JUMPDEST PUSH1 0x2 SLOAD PUSH1 0x40 MLOAD PUSH4 0x2770A7EB PUSH1 0xE2 SHL DUP2 MSTORE CALLER PUSH1 0x4 DUP3 ADD MSTORE PUSH1 0x24 DUP2 ADD DUP4 SWAP1 MSTORE PUSH1 0x1 PUSH1 0x1 PUSH1 0xA0 SHL SUB SWAP1 SWAP2 AND SWAP1 PUSH4 0x9DC29FAC SWAP1 PUSH1 0x44 ADD PUSH0 PUSH1 0x40 MLOAD DUP1 DUP4 SUB DUP2 PUSH0 DUP8 DUP1 EXTCODESIZE ISZERO DUP1 ISZERO PUSH2 0x5F3 JUMPI PUSH0 DUP1 REVERT JUMPDEST POP GAS CALL ISZERO DUP1 ISZERO PUSH2 0x605 JUMPI RETURNDATASIZE PUSH0 DUP1 RETURNDATACOPY RETURNDATASIZE PUSH0 REVERT JUMPDEST POP POP POP POP PUSH2 0x613 CALLER DUP3 PUSH2 0x9DA JUMP JUMPDEST PUSH1 0x40 MLOAD DUP2 DUP2 MSTORE CALLER SWAP1 PUSH32 0x2DA466A7B24304F47E87FA2E1E5A81B9831CE54FEC19055CE277CA2F39BA42C4 SWAP1 PUSH1 0x20 ADD PUSH2 0x495 JUMP JUMPDEST PUSH0 ADDRESS PUSH1 0x1 PUSH1 0x1 PUSH1 0xA0 SHL SUB DUP5 AND SUB PUSH2 0x65E JUMPI POP PUSH1 0x1 PUSH2 0x389 JUMP JUMPDEST PUSH1 0x1 SLOAD PUSH1 0x1 PUSH1 0x1 PUSH1 0xA0 SHL SUB SWAP1 DUP2 AND SWAP1 DUP5 AND SUB PUSH2 0x67C JUMPI POP PUSH1 0x1 PUSH2 0x389 JUMP JUMPDEST PUSH0 SLOAD PUSH1 0x1 PUSH1 0x1 PUSH1 0xA0 SHL SUB AND PUSH2 0x692 JUMPI POP PUSH0 PUSH2 0x389 JUMP JUMPDEST PUSH0 SLOAD PUSH1 0x40 MLOAD PUSH4 0xB7009613 PUSH1 0xE0 SHL DUP2 MSTORE PUSH1 0x1 PUSH1 0x1 PUSH1 0xA0 SHL SUB DUP6 DUP2 AND PUSH1 0x4 DUP4 ADD MSTORE ADDRESS PUSH1 0x24 DUP4 ADD MSTORE PUSH1 0x1 PUSH1 0x1 PUSH1 0xE0 SHL SUB NOT DUP6 AND PUSH1 0x44 DUP4 ADD MSTORE SWAP1 SWAP2 AND SWAP1 PUSH4 0xB7009613 SWAP1 PUSH1 0x64 ADD PUSH1 0x20 PUSH1 0x40 MLOAD DUP1 DUP4 SUB DUP2 DUP7 GAS STATICCALL ISZERO DUP1 ISZERO PUSH2 0x6EF JUMPI RETURNDATASIZE PUSH0 DUP1 RETURNDATACOPY RETURNDATASIZE PUSH0 REVERT JUMPDEST POP POP POP POP PUSH1 0x40 MLOAD RETURNDATASIZE PUSH1 0x1F NOT PUSH1 0x1F DUP3 ADD AND DUP3 ADD DUP1 PUSH1 0x40 MSTORE POP DUP2 ADD SWAP1 PUSH2 0x713 SWAP2 SWAP1 PUSH2 0xBE1 JUMP JUMPDEST SWAP4 SWAP3 POP POP POP JUMP JUMPDEST PUSH1 0x1 PUSH1 0x1 PUSH1 0xA0 SHL SUB DUP2 AND PUSH0 SWAP1 DUP2 MSTORE PUSH1 0x7 PUSH1 0x20 SWAP1 DUP2 MSTORE PUSH1 0x40 DUP1 DUP4 KECCAK256 SLOAD PUSH1 0x5 SWAP1 SWAP3 MSTORE DUP3 KECCAK256 SLOAD GT ISZERO PUSH2 0x38F JUMPI PUSH1 0x1 PUSH1 0x1 PUSH1 0xA0 SHL SUB DUP3 AND PUSH0 SWAP1 DUP2 MSTORE PUSH1 0x5 PUSH1 0x20 MSTORE PUSH1 0x40 DUP2 KECCAK256 SLOAD TIMESTAMP GT PUSH2 0x7AA JUMPI PUSH1 0x1 PUSH1 0x1 PUSH1 0xA0 SHL SUB DUP4 AND PUSH0 SWAP1 DUP2 MSTORE PUSH1 0x7 PUSH1 0x20 MSTORE PUSH1 0x40 SWAP1 KECCAK256 SLOAD PUSH2 0x783 SWAP1 TIMESTAMP PUSH2 0xBB7 JUMP JUMPDEST PUSH1 0x1 PUSH1 0x1 PUSH1 0xA0 SHL SUB DUP5 AND PUSH0 SWAP1 DUP2 MSTORE PUSH1 0x6 PUSH1 0x20 MSTORE PUSH1 0x40 SWAP1 KECCAK256 SLOAD PUSH2 0x7A5 SWAP2 SWAP1 PUSH2 0xBCA JUMP JUMPDEST PUSH2 0x713 JUMP JUMPDEST PUSH1 0x1 PUSH1 0x1 PUSH1 0xA0 SHL SUB DUP4 AND PUSH0 SWAP1 DUP2 MSTORE PUSH1 0x7 PUSH1 0x20 SWAP1 DUP2 MSTORE PUSH1 0x40 DUP1 DUP4 KECCAK256 SLOAD PUSH1 0x5 SWAP1 SWAP3 MSTORE SWAP1 SWAP2 KECCAK256 SLOAD PUSH2 0x7D8 SWAP2 SWAP1 PUSH2 0xBB7 JUMP JUMPDEST PUSH1 0x1 PUSH1 0x1 PUSH1 0xA0 SHL SUB DUP5 AND PUSH0 SWAP1 DUP2 MSTORE PUSH1 0x6 PUSH1 0x20 MSTORE PUSH1 0x40 SWAP1 KECCAK256 SLOAD PUSH2 0x713 SWAP2 SWAP1 PUSH2 0xBCA JUMP JUMPDEST PUSH0 PUSH2 0x804 CALLER PUSH2 0x325 JUMP JUMPDEST SWAP1 POP PUSH0 PUSH2 0x810 CALLER PUSH2 0x71A JUMP JUMPDEST SWAP1 POP PUSH0 PUSH2 0x81D DUP3 DUP5 PUSH2 0xC00 JUMP JUMPDEST SWAP1 POP PUSH0 PUSH1 0x64 PUSH1 0x4 SLOAD DUP6 PUSH2 0x830 SWAP2 SWAP1 PUSH2 0xBCA JUMP JUMPDEST PUSH2 0x83A SWAP2 SWAP1 PUSH2 0xC13 JUMP JUMPDEST PUSH1 0x2 SLOAD PUSH1 0x1 SLOAD PUSH1 0x40 MLOAD PUSH4 0x40C10F19 PUSH1 0xE0 SHL DUP2 MSTORE PUSH1 0x1 PUSH1 0x1 PUSH1 0xA0 SHL SUB SWAP2 DUP3 AND PUSH1 0x4 DUP3 ADD MSTORE PUSH1 0x24 DUP2 ADD DUP5 SWAP1 MSTORE SWAP3 SWAP4 POP AND SWAP1 PUSH4 0x40C10F19 SWAP1 PUSH1 0x44 ADD PUSH0 PUSH1 0x40 MLOAD DUP1 DUP4 SUB DUP2 PUSH0 DUP8 DUP1 EXTCODESIZE ISZERO DUP1 ISZERO PUSH2 0x889 JUMPI PUSH0 DUP1 REVERT JUMPDEST POP GAS CALL ISZERO DUP1 ISZERO PUSH2 0x89B JUMPI RETURNDATASIZE PUSH0 DUP1 RETURNDATACOPY RETURNDATASIZE PUSH0 REVERT JUMPDEST POP POP CALLER PUSH0 DUP2 DUP2 MSTORE PUSH1 0x6 PUSH1 0x20 SWAP1 DUP2 MSTORE PUSH1 0x40 DUP1 DUP4 KECCAK256 DUP4 SWAP1 SSTORE PUSH1 0x5 SWAP1 SWAP2 MSTORE DUP1 DUP3 KECCAK256 SWAP2 SWAP1 SWAP2 SSTORE PUSH1 0x3 SLOAD SWAP1 MLOAD PUSH4 0x40C10F19 PUSH1 0xE0 SHL DUP2 MSTORE PUSH1 0x4 DUP2 ADD SWAP3 SWAP1 SWAP3 MSTORE PUSH1 0x24 DUP3 ADD DUP8 SWAP1 MSTORE PUSH1 0x1 PUSH1 0x1 PUSH1 0xA0 SHL SUB AND SWAP3 POP PUSH4 0x40C10F19 SWAP2 POP PUSH1 0x44 ADD PUSH0 PUSH1 0x40 MLOAD DUP1 DUP4 SUB DUP2 PUSH0 DUP8 DUP1 EXTCODESIZE ISZERO DUP1 ISZERO PUSH2 0x907 JUMPI PUSH0 DUP1 REVERT JUMPDEST POP GAS CALL ISZERO DUP1 ISZERO PUSH2 0x919 JUMPI RETURNDATASIZE PUSH0 DUP1 RETURNDATACOPY RETURNDATASIZE PUSH0 REVERT JUMPDEST POP POP PUSH1 0x3 SLOAD PUSH1 0x1 PUSH1 0x1 PUSH1 0xA0 SHL SUB AND SWAP2 POP PUSH4 0x40C10F19 SWAP1 POP CALLER PUSH2 0x93B DUP5 DUP9 PUSH2 0xBB7 JUMP JUMPDEST PUSH1 0x40 MLOAD PUSH1 0x1 PUSH1 0x1 PUSH1 0xE0 SHL SUB NOT PUSH1 0xE0 DUP6 SWAP1 SHL AND DUP2 MSTORE PUSH1 0x1 PUSH1 0x1 PUSH1 0xA0 SHL SUB SWAP1 SWAP3 AND PUSH1 0x4 DUP4 ADD MSTORE PUSH1 0x24 DUP3 ADD MSTORE PUSH1 0x44 ADD PUSH0 PUSH1 0x40 MLOAD DUP1 DUP4 SUB DUP2 PUSH0 DUP8 DUP1 EXTCODESIZE ISZERO DUP1 ISZERO PUSH2 0x97E JUMPI PUSH0 DUP1 REVERT JUMPDEST POP GAS CALL ISZERO DUP1 ISZERO PUSH2 0x990 JUMPI RETURNDATASIZE PUSH0 DUP1 RETURNDATACOPY RETURNDATASIZE PUSH0 REVERT JUMPDEST POP CALLER SWAP3 POP PUSH32 0xFC4D02BB581C359A34845DE6FE225E6D1AE5ABCE6C7E6AE741880554E6F7D995 SWAP2 POP PUSH2 0x9C3 SWAP1 POP DUP4 DUP6 PUSH2 0xBB7 JUMP JUMPDEST PUSH1 0x40 MLOAD SWAP1 DUP2 MSTORE PUSH1 0x20 ADD PUSH1 0x40 MLOAD DUP1 SWAP2 SUB SWAP1 LOG2 POP POP POP POP JUMP JUMPDEST PUSH1 0x1 PUSH1 0x1 PUSH1 0xA0 SHL SUB DUP3 AND PUSH0 SWAP1 DUP2 MSTORE PUSH1 0x5 PUSH1 0x20 MSTORE PUSH1 0x40 SWAP1 KECCAK256 SLOAD TIMESTAMP LT ISZERO PUSH2 0xA9B JUMPI PUSH1 0x1 PUSH1 0x1 PUSH1 0xA0 SHL SUB DUP3 AND PUSH0 SWAP1 DUP2 MSTORE PUSH1 0x5 PUSH1 0x20 MSTORE PUSH1 0x40 DUP2 KECCAK256 SLOAD DUP3 SWAP1 PUSH2 0xA1E SWAP1 TIMESTAMP SWAP1 PUSH2 0xBB7 JUMP JUMPDEST PUSH1 0x1 PUSH1 0x1 PUSH1 0xA0 SHL SUB DUP6 AND PUSH0 SWAP1 DUP2 MSTORE PUSH1 0x6 PUSH1 0x20 MSTORE PUSH1 0x40 SWAP1 KECCAK256 SLOAD PUSH2 0xA40 SWAP2 SWAP1 PUSH2 0xBCA JUMP JUMPDEST PUSH2 0xA4A SWAP2 SWAP1 PUSH2 0xC00 JUMP JUMPDEST SWAP1 POP PUSH2 0xA59 PUSH3 0x1A5E00 DUP3 PUSH2 0xC13 JUMP JUMPDEST PUSH1 0x1 PUSH1 0x1 PUSH1 0xA0 SHL SUB DUP5 AND PUSH0 SWAP1 DUP2 MSTORE PUSH1 0x6 PUSH1 0x20 MSTORE PUSH1 0x40 SWAP1 KECCAK256 SSTORE PUSH2 0xA7E PUSH3 0x1A5E00 TIMESTAMP PUSH2 0xC00 JUMP JUMPDEST PUSH1 0x1 PUSH1 0x1 PUSH1 0xA0 SHL SUB DUP5 AND PUSH0 SWAP1 DUP2 MSTORE PUSH1 0x5 PUSH1 0x20 MSTORE PUSH1 0x40 SWAP1 KECCAK256 SSTORE POP POP POP JUMP JUMPDEST PUSH2 0xAA8 PUSH3 0x1A5E00 DUP3 PUSH2 0xC13 JUMP JUMPDEST PUSH1 0x1 PUSH1 0x1 PUSH1 0xA0 SHL SUB DUP4 AND PUSH0 SWAP1 DUP2 MSTORE PUSH1 0x6 PUSH1 0x20 MSTORE PUSH1 0x40 SWAP1 KECCAK256 SSTORE PUSH2 0xACD PUSH3 0x1A5E00 TIMESTAMP PUSH2 0xC00 JUMP JUMPDEST PUSH1 0x1 PUSH1 0x1 PUSH1 0xA0 SHL SUB DUP4 AND PUSH0 SWAP1 DUP2 MSTORE PUSH1 0x5 PUSH1 0x20 MSTORE PUSH1 0x40 SWAP1 KECCAK256 SSTORE POP POP JUMP JUMPDEST PUSH1 0x1 PUSH1 0x1 PUSH1 0xA0 SHL SUB DUP2 AND DUP2 EQ PUSH2 0xAFD JUMPI PUSH0 DUP1 REVERT JUMPDEST POP JUMP JUMPDEST PUSH0 PUSH1 0x20 DUP3 DUP5 SUB SLT ISZERO PUSH2 0xB10 JUMPI PUSH0 DUP1 REVERT JUMPDEST DUP2 CALLDATALOAD PUSH2 0x713 DUP2 PUSH2 0xAE9 JUMP JUMPDEST PUSH0 PUSH1 0x20 DUP3 DUP5 SUB SLT ISZERO PUSH2 0xB2B JUMPI PUSH0 DUP1 REVERT JUMPDEST POP CALLDATALOAD SWAP2 SWAP1 POP JUMP JUMPDEST PUSH0 DUP1 PUSH1 0x40 DUP4 DUP6 SUB SLT ISZERO PUSH2 0xB43 JUMPI PUSH0 DUP1 REVERT JUMPDEST DUP3 CALLDATALOAD PUSH2 0xB4E DUP2 PUSH2 0xAE9 JUMP JUMPDEST SWAP2 POP PUSH1 0x20 DUP4 ADD CALLDATALOAD PUSH1 0x1 PUSH1 0x1 PUSH1 0xE0 SHL SUB NOT DUP2 AND DUP2 EQ PUSH2 0xB6A JUMPI PUSH0 DUP1 REVERT JUMPDEST DUP1 SWAP2 POP POP SWAP3 POP SWAP3 SWAP1 POP JUMP JUMPDEST PUSH1 0x20 DUP1 DUP3 MSTORE PUSH1 0x14 SWAP1 DUP3 ADD MSTORE PUSH20 0x191CCB585D5D1A0B5D5B985D5D1A1BDC9A5E9959 PUSH1 0x62 SHL PUSH1 0x40 DUP3 ADD MSTORE PUSH1 0x60 ADD SWAP1 JUMP JUMPDEST PUSH4 0x4E487B71 PUSH1 0xE0 SHL PUSH0 MSTORE PUSH1 0x11 PUSH1 0x4 MSTORE PUSH1 0x24 PUSH0 REVERT JUMPDEST DUP2 DUP2 SUB DUP2 DUP2 GT ISZERO PUSH2 0x389 JUMPI PUSH2 0x389 PUSH2 0xBA3 JUMP JUMPDEST DUP1 DUP3 MUL DUP2 ISZERO DUP3 DUP3 DIV DUP5 EQ OR PUSH2 0x389 JUMPI PUSH2 0x389 PUSH2 0xBA3 JUMP JUMPDEST PUSH0 PUSH1 0x20 DUP3 DUP5 SUB SLT ISZERO PUSH2 0xBF1 JUMPI PUSH0 DUP1 REVERT JUMPDEST DUP2 MLOAD DUP1 ISZERO ISZERO DUP2 EQ PUSH2 0x713 JUMPI PUSH0 DUP1 REVERT JUMPDEST DUP1 DUP3 ADD DUP1 DUP3 GT ISZERO PUSH2 0x389 JUMPI PUSH2 0x389 PUSH2 0xBA3 JUMP JUMPDEST PUSH0 DUP3 PUSH2 0xC2D JUMPI PUSH4 0x4E487B71 PUSH1 0xE0 SHL PUSH0 MSTORE PUSH1 0x12 PUSH1 0x4 MSTORE PUSH1 0x24 PUSH0 REVERT JUMPDEST POP DIV SWAP1 JUMP INVALID LOG2 PUSH5 0x6970667358 0x22 SLT KECCAK256 PUSH7 0xBE6EC630E4EB90 PUSH19 0x3225CD400DC16DE943F028762F07F63C6F6402 0xD9 DUP4 0x23 0xE7 PUSH5 0x736F6C6343 STOP ADDMOD OR STOP CALLER PUSH1 0x80 PUSH1 0x40 MSTORE CALLVALUE DUP1 ISZERO PUSH2 0xF JUMPI PUSH0 DUP1 REVERT JUMPDEST POP PUSH1 0x1 DUP1 SLOAD PUSH1 0x1 PUSH1 0x1 PUSH1 0xA0 SHL SUB NOT AND CALLER SWAP1 DUP2 OR SWAP1 SWAP2 SSTORE PUSH1 0x40 MLOAD PUSH32 0xCE241D7CA1F669FEE44B6FC00B8EBA2DF3BB514EED0F6F668F8F89096E81ED94 SWAP1 PUSH0 SWAP1 LOG2 PUSH2 0x8A5 DUP1 PUSH2 0x5A PUSH0 CODECOPY PUSH0 RETURN INVALID PUSH1 0x80 PUSH1 0x40 MSTORE CALLVALUE DUP1 ISZERO PUSH2 0xF JUMPI PUSH0 DUP1 REVERT JUMPDEST POP PUSH1 0x4 CALLDATASIZE LT PUSH2 0x106 JUMPI PUSH0 CALLDATALOAD PUSH1 0xE0 SHR DUP1 PUSH4 0xAE3EB304 GT PUSH2 0x9E JUMPI DUP1 PUSH4 0xD574B4C9 GT PUSH2 0x6E JUMPI DUP1 PUSH4 0xD574B4C9 EQ PUSH2 0x22E JUMPI DUP1 PUSH4 0xD9972B96 EQ PUSH2 0x241 JUMPI DUP1 PUSH4 0xE3D670D7 EQ PUSH2 0x264 JUMPI DUP1 PUSH4 0xE6178107 EQ PUSH2 0x28C JUMPI DUP1 PUSH4 0xF7E4F3A5 EQ PUSH2 0x29F JUMPI PUSH0 DUP1 REVERT JUMPDEST DUP1 PUSH4 0xAE3EB304 EQ PUSH2 0x1CC JUMPI DUP1 PUSH4 0xB34C8CAF EQ PUSH2 0x1D5 JUMPI DUP1 PUSH4 0xBF7E214F EQ PUSH2 0x1F4 JUMPI DUP1 PUSH4 0xCE7C2AC2 EQ PUSH2 0x206 JUMPI PUSH0 DUP1 REVERT JUMPDEST DUP1 PUSH4 0x6ACDBAC8 GT PUSH2 0xD9 JUMPI DUP1 PUSH4 0x6ACDBAC8 EQ PUSH2 0x15C JUMPI DUP1 PUSH4 0x6EBCF607 EQ PUSH2 0x16F JUMPI DUP1 PUSH4 0x7A9E5E4B EQ PUSH2 0x18E JUMPI DUP1 PUSH4 0x8DA5CB5B EQ PUSH2 0x1A1 JUMPI PUSH0 DUP1 REVERT JUMPDEST DUP1 PUSH4 0x13AF4035 EQ PUSH2 0x10A JUMPI DUP1 PUSH4 0x2C795FBE EQ PUSH2 0x11F JUMPI DUP1 PUSH4 0x5E07B869 EQ PUSH2 0x132 JUMPI DUP1 PUSH4 0x660B1A4D EQ PUSH2 0x149 JUMPI JUMPDEST PUSH0 DUP1 REVERT JUMPDEST PUSH2 0x11D PUSH2 0x118 CALLDATASIZE PUSH1 0x4 PUSH2 0x742 JUMP JUMPDEST PUSH2 0x2B2 JUMP JUMPDEST STOP JUMPDEST PUSH2 0x11D PUSH2 0x12D CALLDATASIZE PUSH1 0x4 PUSH2 0x764 JUMP JUMPDEST PUSH2 0x335 JUMP JUMPDEST PUSH1 0x4 SLOAD JUMPDEST PUSH1 0x40 MLOAD SWAP1 DUP2 MSTORE PUSH1 0x20 ADD JUMPDEST PUSH1 0x40 MLOAD DUP1 SWAP2 SUB SWAP1 RETURN JUMPDEST PUSH2 0x11D PUSH2 0x157 CALLDATASIZE PUSH1 0x4 PUSH2 0x78E JUMP JUMPDEST PUSH2 0x3D5 JUMP JUMPDEST PUSH2 0x11D PUSH2 0x16A CALLDATASIZE PUSH1 0x4 PUSH2 0x78E JUMP JUMPDEST PUSH2 0x452 JUMP JUMPDEST PUSH2 0x136 PUSH2 0x17D CALLDATASIZE PUSH1 0x4 PUSH2 0x742 JUMP JUMPDEST PUSH1 0x3 PUSH1 0x20 MSTORE PUSH0 SWAP1 DUP2 MSTORE PUSH1 0x40 SWAP1 KECCAK256 SLOAD DUP2 JUMP JUMPDEST PUSH2 0x11D PUSH2 0x19C CALLDATASIZE PUSH1 0x4 PUSH2 0x742 JUMP JUMPDEST PUSH2 0x494 JUMP JUMPDEST PUSH1 0x1 SLOAD PUSH2 0x1B4 SWAP1 PUSH1 0x1 PUSH1 0x1 PUSH1 0xA0 SHL SUB AND DUP2 JUMP JUMPDEST PUSH1 0x40 MLOAD PUSH1 0x1 PUSH1 0x1 PUSH1 0xA0 SHL SUB SWAP1 SWAP2 AND DUP2 MSTORE PUSH1 0x20 ADD PUSH2 0x140 JUMP JUMPDEST PUSH2 0x136 PUSH1 0x4 SLOAD DUP2 JUMP JUMPDEST PUSH2 0x136 PUSH2 0x1E3 CALLDATASIZE PUSH1 0x4 PUSH2 0x742 JUMP JUMPDEST PUSH1 0x2 PUSH1 0x20 MSTORE PUSH0 SWAP1 DUP2 MSTORE PUSH1 0x40 SWAP1 KECCAK256 SLOAD DUP2 JUMP JUMPDEST PUSH0 SLOAD PUSH2 0x1B4 SWAP1 PUSH1 0x1 PUSH1 0x1 PUSH1 0xA0 SHL SUB AND DUP2 JUMP JUMPDEST PUSH2 0x136 PUSH2 0x214 CALLDATASIZE PUSH1 0x4 PUSH2 0x742 JUMP JUMPDEST PUSH1 0x1 PUSH1 0x1 PUSH1 0xA0 SHL SUB AND PUSH0 SWAP1 DUP2 MSTORE PUSH1 0x2 PUSH1 0x20 MSTORE PUSH1 0x40 SWAP1 KECCAK256 SLOAD SWAP1 JUMP JUMPDEST PUSH2 0x11D PUSH2 0x23C CALLDATASIZE PUSH1 0x4 PUSH2 0x764 JUMP JUMPDEST PUSH2 0x50C JUMP JUMPDEST PUSH2 0x254 PUSH2 0x24F CALLDATASIZE PUSH1 0x4 PUSH2 0x7A5 JUMP JUMPDEST PUSH2 0x5A4 JUMP JUMPDEST PUSH1 0x40 MLOAD SWAP1 ISZERO ISZERO DUP2 MSTORE PUSH1 0x20 ADD PUSH2 0x140 JUMP JUMPDEST PUSH2 0x136 PUSH2 0x272 CALLDATASIZE PUSH1 0x4 PUSH2 0x742 JUMP JUMPDEST PUSH1 0x1 PUSH1 0x1 PUSH1 0xA0 SHL SUB AND PUSH0 SWAP1 DUP2 MSTORE PUSH1 0x3 PUSH1 0x20 MSTORE PUSH1 0x40 SWAP1 KECCAK256 SLOAD SWAP1 JUMP JUMPDEST PUSH2 0x11D PUSH2 0x29A CALLDATASIZE PUSH1 0x4 PUSH2 0x764 JUMP JUMPDEST PUSH2 0x67B JUMP JUMPDEST PUSH2 0x11D PUSH2 0x2AD CALLDATASIZE PUSH1 0x4 PUSH2 0x764 JUMP JUMPDEST PUSH2 0x6D3 JUMP JUMPDEST PUSH2 0x2C7 CALLER PUSH0 CALLDATALOAD PUSH1 0x1 PUSH1 0x1 PUSH1 0xE0 SHL SUB NOT AND PUSH2 0x5A4 JUMP JUMPDEST PUSH2 0x2EC JUMPI PUSH1 0x40 MLOAD PUSH3 0x461BCD PUSH1 0xE5 SHL DUP2 MSTORE PUSH1 0x4 ADD PUSH2 0x2E3 SWAP1 PUSH2 0x7E8 JUMP JUMPDEST PUSH1 0x40 MLOAD DUP1 SWAP2 SUB SWAP1 REVERT JUMPDEST PUSH1 0x1 DUP1 SLOAD PUSH1 0x1 PUSH1 0x1 PUSH1 0xA0 SHL SUB NOT AND PUSH1 0x1 PUSH1 0x1 PUSH1 0xA0 SHL SUB DUP4 AND SWAP1 DUP2 OR SWAP1 SWAP2 SSTORE PUSH1 0x40 MLOAD PUSH32 0xCE241D7CA1F669FEE44B6FC00B8EBA2DF3BB514EED0F6F668F8F89096E81ED94 SWAP1 PUSH0 SWAP1 LOG2 POP JUMP JUMPDEST PUSH2 0x34A CALLER PUSH0 CALLDATALOAD PUSH1 0x1 PUSH1 0x1 PUSH1 0xE0 SHL SUB NOT AND PUSH2 0x5A4 JUMP JUMPDEST PUSH2 0x366 JUMPI PUSH1 0x40 MLOAD PUSH3 0x461BCD PUSH1 0xE5 SHL DUP2 MSTORE PUSH1 0x4 ADD PUSH2 0x2E3 SWAP1 PUSH2 0x7E8 JUMP JUMPDEST PUSH1 0x1 PUSH1 0x1 PUSH1 0xA0 SHL SUB DUP3 AND PUSH0 SWAP1 DUP2 MSTORE PUSH1 0x2 PUSH1 0x20 MSTORE PUSH1 0x40 DUP2 KECCAK256 DUP1 SLOAD DUP4 SWAP3 SWAP1 PUSH2 0x38D SWAP1 DUP5 SWAP1 PUSH2 0x82A JUMP JUMPDEST SWAP1 SWAP2 SSTORE POP POP PUSH1 0x40 MLOAD DUP2 DUP2 MSTORE PUSH1 0x1 PUSH1 0x1 PUSH1 0xA0 SHL SUB DUP4 AND SWAP1 PUSH32 0xE6382C9ED5C0C33BB05042F73CF6CBE9CB25639F9A711E094EE563BC9CB80E2C SWAP1 PUSH1 0x20 ADD JUMPDEST PUSH1 0x40 MLOAD DUP1 SWAP2 SUB SWAP1 LOG2 POP POP JUMP JUMPDEST PUSH2 0x3EA CALLER PUSH0 CALLDATALOAD PUSH1 0x1 PUSH1 0x1 PUSH1 0xE0 SHL SUB NOT AND PUSH2 0x5A4 JUMP JUMPDEST PUSH2 0x406 JUMPI PUSH1 0x40 MLOAD PUSH3 0x461BCD PUSH1 0xE5 SHL DUP2 MSTORE PUSH1 0x4 ADD PUSH2 0x2E3 SWAP1 PUSH2 0x7E8 JUMP JUMPDEST DUP1 PUSH1 0x4 PUSH0 DUP3 DUP3 SLOAD PUSH2 0x417 SWAP2 SWAP1 PUSH2 0x82A JUMP JUMPDEST SWAP1 SWAP2 SSTORE POP POP PUSH1 0x40 MLOAD DUP2 DUP2 MSTORE PUSH32 0x8F8BEEC7C09513A4066B76964FF338179905FF1A3CC184DBABE9620B02440B98 SWAP1 PUSH1 0x20 ADD PUSH1 0x40 MLOAD DUP1 SWAP2 SUB SWAP1 LOG1 POP JUMP JUMPDEST PUSH2 0x467 CALLER PUSH0 CALLDATALOAD PUSH1 0x1 PUSH1 0x1 PUSH1 0xE0 SHL SUB NOT AND PUSH2 0x5A4 JUMP JUMPDEST PUSH2 0x483 JUMPI PUSH1 0x40 MLOAD PUSH3 0x461BCD PUSH1 0xE5 SHL DUP2 MSTORE PUSH1 0x4 ADD PUSH2 0x2E3 SWAP1 PUSH2 0x7E8 JUMP JUMPDEST DUP1 PUSH1 0x4 PUSH0 DUP3 DUP3 SLOAD PUSH2 0x417 SWAP2 SWAP1 PUSH2 0x83D JUMP JUMPDEST PUSH2 0x4A9 CALLER PUSH0 CALLDATALOAD PUSH1 0x1 PUSH1 0x1 PUSH1 0xE0 SHL SUB NOT AND PUSH2 0x5A4 JUMP JUMPDEST PUSH2 0x4C5 JUMPI PUSH1 0x40 MLOAD PUSH3 0x461BCD PUSH1 0xE5 SHL DUP2 MSTORE PUSH1 0x4 ADD PUSH2 0x2E3 SWAP1 PUSH2 0x7E8 JUMP JUMPDEST PUSH0 DUP1 SLOAD PUSH1 0x1 PUSH1 0x1 PUSH1 0xA0 SHL SUB NOT AND PUSH1 0x1 PUSH1 0x1 PUSH1 0xA0 SHL SUB DUP4 AND SWAP1 DUP2 OR DUP3 SSTORE PUSH1 0x40 MLOAD SWAP1 SWAP2 PUSH32 0x1ABEBEA81BFA2637F28358C371278FB15EDE7EA8DD28D2E03B112FF6D936ADA4 SWAP2 LOG2 POP JUMP JUMPDEST PUSH2 0x521 CALLER PUSH0 CALLDATALOAD PUSH1 0x1 PUSH1 0x1 PUSH1 0xE0 SHL SUB NOT AND PUSH2 0x5A4 JUMP JUMPDEST PUSH2 0x53D JUMPI PUSH1 0x40 MLOAD PUSH3 0x461BCD PUSH1 0xE5 SHL DUP2 MSTORE PUSH1 0x4 ADD PUSH2 0x2E3 SWAP1 PUSH2 0x7E8 JUMP JUMPDEST PUSH1 0x1 PUSH1 0x1 PUSH1 0xA0 SHL SUB DUP3 AND PUSH0 SWAP1 DUP2 MSTORE PUSH1 0x3 PUSH1 0x20 MSTORE PUSH1 0x40 DUP2 KECCAK256 DUP1 SLOAD DUP4 SWAP3 SWAP1 PUSH2 0x564 SWAP1 DUP5 SWAP1 PUSH2 0x83D JUMP JUMPDEST SWAP1 SWAP2 SSTORE POP POP PUSH1 0x40 MLOAD DUP2 DUP2 MSTORE PUSH1 0x1 PUSH1 0x1 PUSH1 0xA0 SHL SUB DUP4 AND SWAP1 PUSH32 0xE895B14DADFF94AE19D7BF2C3B60AE7CB147933B709F768B9D76AE16B545E835 SWAP1 PUSH1 0x20 ADD PUSH2 0x3C9 JUMP JUMPDEST PUSH0 ADDRESS PUSH1 0x1 PUSH1 0x1 PUSH1 0xA0 SHL SUB DUP5 AND SUB PUSH2 0x5BD JUMPI POP PUSH1 0x1 PUSH2 0x675 JUMP JUMPDEST PUSH1 0x1 SLOAD PUSH1 0x1 PUSH1 0x1 PUSH1 0xA0 SHL SUB SWAP1 DUP2 AND SWAP1 DUP5 AND SUB PUSH2 0x5DB JUMPI POP PUSH1 0x1 PUSH2 0x675 JUMP JUMPDEST PUSH0 SLOAD PUSH1 0x1 PUSH1 0x1 PUSH1 0xA0 SHL SUB AND PUSH2 0x5F1 JUMPI POP PUSH0 PUSH2 0x675 JUMP JUMPDEST PUSH0 SLOAD PUSH1 0x40 MLOAD PUSH4 0xB7009613 PUSH1 0xE0 SHL DUP2 MSTORE PUSH1 0x1 PUSH1 0x1 PUSH1 0xA0 SHL SUB DUP6 DUP2 AND PUSH1 0x4 DUP4 ADD MSTORE ADDRESS PUSH1 0x24 DUP4 ADD MSTORE PUSH1 0x1 PUSH1 0x1 PUSH1 0xE0 SHL SUB NOT DUP6 AND PUSH1 0x44 DUP4 ADD MSTORE SWAP1 SWAP2 AND SWAP1 PUSH4 0xB7009613 SWAP1 PUSH1 0x64 ADD PUSH1 0x20 PUSH1 0x40 MLOAD DUP1 DUP4 SUB DUP2 DUP7 GAS STATICCALL ISZERO DUP1 ISZERO PUSH2 0x64E JUMPI RETURNDATASIZE PUSH0 DUP1 RETURNDATACOPY RETURNDATASIZE PUSH0 REVERT JUMPDEST POP POP POP POP PUSH1 0x40 MLOAD RETURNDATASIZE PUSH1 0x1F NOT PUSH1 0x1F DUP3 ADD AND DUP3 ADD DUP1 PUSH1 0x40 MSTORE POP DUP2 ADD SWAP1 PUSH2 0x672 SWAP2 SWAP1 PUSH2 0x850 JUMP JUMPDEST SWAP1 POP JUMPDEST SWAP3 SWAP2 POP POP JUMP JUMPDEST PUSH2 0x690 CALLER PUSH0 CALLDATALOAD PUSH1 0x1 PUSH1 0x1 PUSH1 0xE0 SHL SUB NOT AND PUSH2 0x5A4 JUMP JUMPDEST PUSH2 0x6AC JUMPI PUSH1 0x40 MLOAD PUSH3 0x461BCD PUSH1 0xE5 SHL DUP2 MSTORE PUSH1 0x4 ADD PUSH2 0x2E3 SWAP1 PUSH2 0x7E8 JUMP JUMPDEST PUSH1 0x1 PUSH1 0x1 PUSH1 0xA0 SHL SUB DUP3 AND PUSH0 SWAP1 DUP2 MSTORE PUSH1 0x2 PUSH1 0x20 MSTORE PUSH1 0x40 DUP2 KECCAK256 DUP1 SLOAD DUP4 SWAP3 SWAP1 PUSH2 0x38D SWAP1 DUP5 SWAP1 PUSH2 0x83D JUMP JUMPDEST PUSH2 0x6E8 CALLER PUSH0 CALLDATALOAD PUSH1 0x1 PUSH1 0x1 PUSH1 0xE0 SHL SUB NOT AND PUSH2 0x5A4 JUMP JUMPDEST PUSH2 0x704 JUMPI PUSH1 0x40 MLOAD PUSH3 0x461BCD PUSH1 0xE5 SHL DUP2 MSTORE PUSH1 0x4 ADD PUSH2 0x2E3 SWAP1 PUSH2 0x7E8 JUMP JUMPDEST PUSH1 0x1 PUSH1 0x1 PUSH1 0xA0 SHL SUB DUP3 AND PUSH0 SWAP1 DUP2 MSTORE PUSH1 0x3 PUSH1 0x20 MSTORE PUSH1 0x40 DUP2 KECCAK256 DUP1 SLOAD DUP4 SWAP3 SWAP1 PUSH2 0x564 SWAP1 DUP5 SWAP1 PUSH2 0x82A JUMP JUMPDEST PUSH1 0x1 PUSH1 0x1 PUSH1 0xA0 SHL SUB DUP2 AND DUP2 EQ PUSH2 0x73F JUMPI PUSH0 DUP1 REVERT JUMPDEST POP JUMP JUMPDEST PUSH0 PUSH1 0x20 DUP3 DUP5 SUB SLT ISZERO PUSH2 0x752 JUMPI PUSH0 DUP1 REVERT JUMPDEST DUP2 CALLDATALOAD PUSH2 0x75D DUP2 PUSH2 0x72B JUMP JUMPDEST SWAP4 SWAP3 POP POP POP JUMP JUMPDEST PUSH0 DUP1 PUSH1 0x40 DUP4 DUP6 SUB SLT ISZERO PUSH2 0x775 JUMPI PUSH0 DUP1 REVERT JUMPDEST DUP3 CALLDATALOAD PUSH2 0x780 DUP2 PUSH2 0x72B JUMP JUMPDEST SWAP5 PUSH1 0x20 SWAP4 SWAP1 SWAP4 ADD CALLDATALOAD SWAP4 POP POP POP JUMP JUMPDEST PUSH0 PUSH1 0x20 DUP3 DUP5 SUB SLT ISZERO PUSH2 0x79E JUMPI PUSH0 DUP1 REVERT JUMPDEST POP CALLDATALOAD SWAP2 SWAP1 POP JUMP JUMPDEST PUSH0 DUP1 PUSH1 0x40 DUP4 DUP6 SUB SLT ISZERO PUSH2 0x7B6 JUMPI PUSH0 DUP1 REVERT JUMPDEST DUP3 CALLDATALOAD PUSH2 0x7C1 DUP2 PUSH2 0x72B JUMP JUMPDEST SWAP2 POP PUSH1 0x20 DUP4 ADD CALLDATALOAD PUSH1 0x1 PUSH1 0x1 PUSH1 0xE0 SHL SUB NOT DUP2 AND DUP2 EQ PUSH2 0x7DD JUMPI PUSH0 DUP1 REVERT JUMPDEST DUP1 SWAP2 POP POP SWAP3 POP SWAP3 SWAP1 POP JUMP JUMPDEST PUSH1 0x20 DUP1 DUP3 MSTORE PUSH1 0x14 SWAP1 DUP3 ADD MSTORE PUSH20 0x191CCB585D5D1A0B5D5B985D5D1A1BDC9A5E9959 PUSH1 0x62 SHL PUSH1 0x40 DUP3 ADD MSTORE PUSH1 0x60 ADD SWAP1 JUMP JUMPDEST PUSH4 0x4E487B71 PUSH1 0xE0 SHL PUSH0 MSTORE PUSH1 0x11 PUSH1 0x4 MSTORE PUSH1 0x24 PUSH0 REVERT JUMPDEST DUP1 DUP3 ADD DUP1 DUP3 GT ISZERO PUSH2 0x675 JUMPI PUSH2 0x675 PUSH2 0x816 JUMP JUMPDEST DUP2 DUP2 SUB DUP2 DUP2 GT ISZERO PUSH2 0x675 JUMPI PUSH2 0x675 PUSH2 0x816 JUMP JUMPDEST PUSH0 PUSH1 0x20 DUP3 DUP5 SUB SLT ISZERO PUSH2 0x860 JUMPI PUSH0 DUP1 REVERT JUMPDEST DUP2 MLOAD DUP1 ISZERO ISZERO DUP2 EQ PUSH2 0x75D JUMPI PUSH0 DUP1 REVERT INVALID LOG2 PUSH5 0x6970667358 0x22 SLT KECCAK256 PUSH20 0x9386DA1A07447E109645FD8C4F4C9C5F3722AF6B PUSH24 0x96910EE2D1168836C5CB64736F6C63430008170033608060 BLOCKHASH MSTORE PUSH1 0x12 PUSH1 0x6 SSTORE CALLVALUE DUP1 ISZERO PUSH3 0x15 JUMPI PUSH0 DUP1 REVERT JUMPDEST POP PUSH1 0x40 MLOAD PUSH3 0x1455 CODESIZE SUB DUP1 PUSH3 0x1455 DUP4 CODECOPY DUP2 ADD PUSH1 0x40 DUP2 SWAP1 MSTORE PUSH3 0x38 SWAP2 PUSH3 0xAE JUMP JUMPDEST CALLER PUSH0 DUP2 DUP2 MSTORE PUSH1 0x1 PUSH1 0x20 MSTORE PUSH1 0x40 DUP1 DUP3 KECCAK256 DUP3 SWAP1 SSTORE DUP2 DUP1 SSTORE PUSH1 0x4 DUP1 SLOAD PUSH1 0x1 PUSH1 0x1 PUSH1 0xA0 SHL SUB NOT AND DUP5 OR SWAP1 SSTORE MLOAD PUSH32 0xCE241D7CA1F669FEE44B6FC00B8EBA2DF3BB514EED0F6F668F8F89096E81ED94 SWAP2 SWAP1 LOG2 PUSH1 0x5 PUSH3 0x92 DUP3 DUP3 PUSH3 0x206 JUMP JUMPDEST POP POP PUSH3 0x2D2 JUMP JUMPDEST PUSH4 0x4E487B71 PUSH1 0xE0 SHL PUSH0 MSTORE PUSH1 0x41 PUSH1 0x4 MSTORE PUSH1 0x24 PUSH0 REVERT JUMPDEST PUSH0 PUSH1 0x20 DUP1 DUP4 DUP6 SUB SLT ISZERO PUSH3 0xC0 JUMPI PUSH0 DUP1 REVERT JUMPDEST DUP3 MLOAD PUSH1 0x1 PUSH1 0x1 PUSH1 0x40 SHL SUB DUP1 DUP3 GT ISZERO PUSH3 0xD7 JUMPI PUSH0 DUP1 REVERT JUMPDEST DUP2 DUP6 ADD SWAP2 POP DUP6 PUSH1 0x1F DUP4 ADD SLT PUSH3 0xEB JUMPI PUSH0 DUP1 REVERT JUMPDEST DUP2 MLOAD DUP2 DUP2 GT ISZERO PUSH3 0x100 JUMPI PUSH3 0x100 PUSH3 0x9A JUMP JUMPDEST PUSH1 0x40 MLOAD PUSH1 0x1F DUP3 ADD PUSH1 0x1F NOT SWAP1 DUP2 AND PUSH1 0x3F ADD AND DUP2 ADD SWAP1 DUP4 DUP3 GT DUP2 DUP4 LT OR ISZERO PUSH3 0x12B JUMPI PUSH3 0x12B PUSH3 0x9A JUMP JUMPDEST DUP2 PUSH1 0x40 MSTORE DUP3 DUP2 MSTORE DUP9 DUP7 DUP5 DUP8 ADD ADD GT ISZERO PUSH3 0x143 JUMPI PUSH0 DUP1 REVERT JUMPDEST PUSH0 SWAP4 POP JUMPDEST DUP3 DUP5 LT ISZERO PUSH3 0x166 JUMPI DUP5 DUP5 ADD DUP7 ADD MLOAD DUP2 DUP6 ADD DUP8 ADD MSTORE SWAP3 DUP6 ADD SWAP3 PUSH3 0x147 JUMP JUMPDEST PUSH0 DUP7 DUP5 DUP4 ADD ADD MSTORE DUP1 SWAP7 POP POP POP POP POP POP POP SWAP3 SWAP2 POP POP JUMP JUMPDEST PUSH1 0x1 DUP2 DUP2 SHR SWAP1 DUP3 AND DUP1 PUSH3 0x191 JUMPI PUSH1 0x7F DUP3 AND SWAP2 POP JUMPDEST PUSH1 0x20 DUP3 LT DUP2 SUB PUSH3 0x1B0 JUMPI PUSH4 0x4E487B71 PUSH1 0xE0 SHL PUSH0 MSTORE PUSH1 0x22 PUSH1 0x4 MSTORE PUSH1 0x24 PUSH0 REVERT JUMPDEST POP SWAP2 SWAP1 POP JUMP JUMPDEST PUSH1 0x1F DUP3 GT ISZERO PUSH3 0x201 JUMPI DUP1 PUSH0 MSTORE PUSH1 0x20 PUSH0 KECCAK256 PUSH1 0x1F DUP5 ADD PUSH1 0x5 SHR DUP2 ADD PUSH1 0x20 DUP6 LT ISZERO PUSH3 0x1DD JUMPI POP DUP1 JUMPDEST PUSH1 0x1F DUP5 ADD PUSH1 0x5 SHR DUP3 ADD SWAP2 POP JUMPDEST DUP2 DUP2 LT ISZERO PUSH3 0x1FE JUMPI PUSH0 DUP2 SSTORE PUSH1 0x1 ADD PUSH3 0x1E9 JUMP JUMPDEST POP POP JUMPDEST POP POP POP JUMP JUMPDEST DUP2 MLOAD PUSH1 0x1 PUSH1 0x1 PUSH1 0x40 SHL SUB DUP2 GT ISZERO PUSH3 0x222 JUMPI PUSH3 0x222 PUSH3 0x9A JUMP JUMPDEST PUSH3 0x23A DUP2 PUSH3 0x233 DUP5 SLOAD PUSH3 0x17C JUMP JUMPDEST DUP5 PUSH3 0x1B6 JUMP JUMPDEST PUSH1 0x20 DUP1 PUSH1 0x1F DUP4 GT PUSH1 0x1 DUP2 EQ PUSH3 0x270 JUMPI PUSH0 DUP5 ISZERO PUSH3 0x258 JUMPI POP DUP6 DUP4 ADD MLOAD JUMPDEST PUSH0 NOT PUSH1 0x3 DUP7 SWAP1 SHL SHR NOT AND PUSH1 0x1 DUP6 SWAP1 SHL OR DUP6 SSTORE PUSH3 0x2CA JUMP JUMPDEST PUSH0 DUP6 DUP2 MSTORE PUSH1 0x20 DUP2 KECCAK256 PUSH1 0x1F NOT DUP7 AND SWAP2 JUMPDEST DUP3 DUP2 LT ISZERO PUSH3 0x2A0 JUMPI DUP9 DUP7 ADD MLOAD DUP3 SSTORE SWAP5 DUP5 ADD SWAP5 PUSH1 0x1 SWAP1 SWAP2 ADD SWAP1 DUP5 ADD PUSH3 0x27F JUMP JUMPDEST POP DUP6 DUP3 LT ISZERO PUSH3 0x2BE JUMPI DUP8 DUP6 ADD MLOAD PUSH0 NOT PUSH1 0x3 DUP9 SWAP1 SHL PUSH1 0xF8 AND SHR NOT AND DUP2 SSTORE JUMPDEST POP POP PUSH1 0x1 DUP5 PUSH1 0x1 SHL ADD DUP6 SSTORE JUMPDEST POP POP POP POP POP POP JUMP JUMPDEST PUSH2 0x1175 DUP1 PUSH3 0x2E0 PUSH0 CODECOPY PUSH0 RETURN INVALID PUSH1 0x80 PUSH1 0x40 MSTORE PUSH1 0x4 CALLDATASIZE LT PUSH2 0x17B JUMPI PUSH0 CALLDATALOAD PUSH1 0xE0 SHR DUP1 PUSH4 0x95D89B41 GT PUSH2 0xCD JUMPI DUP1 PUSH4 0xBE9A6555 GT PUSH2 0x87 JUMPI DUP1 PUSH4 0xD9972B96 GT PUSH2 0x62 JUMPI DUP1 PUSH4 0xD9972B96 EQ PUSH2 0x42F JUMPI DUP1 PUSH4 0xDAEA85C5 EQ PUSH2 0x44E JUMPI DUP1 PUSH4 0xDD62ED3E EQ PUSH2 0x46D JUMPI DUP1 PUSH4 0xF2D5D56B EQ PUSH2 0x4B1 JUMPI PUSH0 DUP1 REVERT JUMPDEST DUP1 PUSH4 0xBE9A6555 EQ PUSH2 0x3E9 JUMPI DUP1 PUSH4 0xBF7E214F EQ PUSH2 0x3F1 JUMPI DUP1 PUSH4 0xC47F0027 EQ PUSH2 0x410 JUMPI PUSH0 DUP1 REVERT JUMPDEST DUP1 PUSH4 0x95D89B41 EQ PUSH2 0x33A JUMPI DUP1 PUSH4 0x9DC29FAC EQ PUSH2 0x34E JUMPI DUP1 PUSH4 0xA0712D68 EQ PUSH2 0x36D JUMPI DUP1 PUSH4 0xA9059CBB EQ PUSH2 0x38C JUMPI DUP1 PUSH4 0xB753A98C EQ PUSH2 0x3AB JUMPI DUP1 PUSH4 0xBB35783B EQ PUSH2 0x3CA JUMPI PUSH0 DUP1 REVERT JUMPDEST DUP1 PUSH4 0x313CE567 GT PUSH2 0x138 JUMPI DUP1 PUSH4 0x70A08231 GT PUSH2 0x113 JUMPI DUP1 PUSH4 0x70A08231 EQ PUSH2 0x290 JUMPI DUP1 PUSH4 0x75F12B21 EQ PUSH2 0x2C4 JUMPI DUP1 PUSH4 0x7A9E5E4B EQ PUSH2 0x2E4 JUMPI DUP1 PUSH4 0x8DA5CB5B EQ PUSH2 0x303 JUMPI PUSH0 DUP1 REVERT JUMPDEST DUP1 PUSH4 0x313CE567 EQ PUSH2 0x23D JUMPI DUP1 PUSH4 0x40C10F19 EQ PUSH2 0x252 JUMPI DUP1 PUSH4 0x42966C68 EQ PUSH2 0x271 JUMPI PUSH0 DUP1 REVERT JUMPDEST DUP1 PUSH4 0x6FDDE03 EQ PUSH2 0x17F JUMPI DUP1 PUSH4 0x7DA68F5 EQ PUSH2 0x1A9 JUMPI DUP1 PUSH4 0x95EA7B3 EQ PUSH2 0x1B3 JUMPI DUP1 PUSH4 0x13AF4035 EQ PUSH2 0x1E2 JUMPI DUP1 PUSH4 0x18160DDD EQ PUSH2 0x201 JUMPI DUP1 PUSH4 0x23B872DD EQ PUSH2 0x21E JUMPI JUMPDEST PUSH0 DUP1 REVERT JUMPDEST CALLVALUE DUP1 ISZERO PUSH2 0x18A JUMPI PUSH0 DUP1 REVERT JUMPDEST POP PUSH2 0x193 PUSH2 0x4D0 JUMP JUMPDEST PUSH1 0x40 MLOAD PUSH2 0x1A0 SWAP2 SWAP1 PUSH2 0xD11 JUMP JUMPDEST PUSH1 0x40 MLOAD DUP1 SWAP2 SUB SWAP1 RETURN JUMPDEST PUSH2 0x1B1 PUSH2 0x55C JUMP JUMPDEST STOP JUMPDEST CALLVALUE DUP1 ISZERO PUSH2 0x1BE JUMPI PUSH0 DUP1 REVERT JUMPDEST POP PUSH2 0x1D2 PUSH2 0x1CD CALLDATASIZE PUSH1 0x4 PUSH2 0xD71 JUMP JUMPDEST PUSH2 0x5E1 JUMP JUMPDEST PUSH1 0x40 MLOAD SWAP1 ISZERO ISZERO DUP2 MSTORE PUSH1 0x20 ADD PUSH2 0x1A0 JUMP JUMPDEST CALLVALUE DUP1 ISZERO PUSH2 0x1ED JUMPI PUSH0 DUP1 REVERT JUMPDEST POP PUSH2 0x1B1 PUSH2 0x1FC CALLDATASIZE PUSH1 0x4 PUSH2 0xD9B JUMP JUMPDEST PUSH2 0x60C JUMP JUMPDEST CALLVALUE DUP1 ISZERO PUSH2 0x20C JUMPI PUSH0 DUP1 REVERT JUMPDEST POP PUSH0 SLOAD JUMPDEST PUSH1 0x40 MLOAD SWAP1 DUP2 MSTORE PUSH1 0x20 ADD PUSH2 0x1A0 JUMP JUMPDEST CALLVALUE DUP1 ISZERO PUSH2 0x229 JUMPI PUSH0 DUP1 REVERT JUMPDEST POP PUSH2 0x1D2 PUSH2 0x238 CALLDATASIZE PUSH1 0x4 PUSH2 0xDBD JUMP JUMPDEST PUSH2 0x686 JUMP JUMPDEST CALLVALUE DUP1 ISZERO PUSH2 0x248 JUMPI PUSH0 DUP1 REVERT JUMPDEST POP PUSH2 0x210 PUSH1 0x6 SLOAD DUP2 JUMP JUMPDEST CALLVALUE DUP1 ISZERO PUSH2 0x25D JUMPI PUSH0 DUP1 REVERT JUMPDEST POP PUSH2 0x1B1 PUSH2 0x26C CALLDATASIZE PUSH1 0x4 PUSH2 0xD71 JUMP JUMPDEST PUSH2 0x7E8 JUMP JUMPDEST CALLVALUE DUP1 ISZERO PUSH2 0x27C JUMPI PUSH0 DUP1 REVERT JUMPDEST POP PUSH2 0x1B1 PUSH2 0x28B CALLDATASIZE PUSH1 0x4 PUSH2 0xDFB JUMP JUMPDEST PUSH2 0x8BE JUMP JUMPDEST CALLVALUE DUP1 ISZERO PUSH2 0x29B JUMPI PUSH0 DUP1 REVERT JUMPDEST POP PUSH2 0x210 PUSH2 0x2AA CALLDATASIZE PUSH1 0x4 PUSH2 0xD9B JUMP JUMPDEST PUSH1 0x1 PUSH1 0x1 PUSH1 0xA0 SHL SUB AND PUSH0 SWAP1 DUP2 MSTORE PUSH1 0x1 PUSH1 0x20 MSTORE PUSH1 0x40 SWAP1 KECCAK256 SLOAD SWAP1 JUMP JUMPDEST CALLVALUE DUP1 ISZERO PUSH2 0x2CF JUMPI PUSH0 DUP1 REVERT JUMPDEST POP PUSH1 0x4 SLOAD PUSH2 0x1D2 SWAP1 PUSH1 0x1 PUSH1 0xA0 SHL SWAP1 DIV PUSH1 0xFF AND DUP2 JUMP JUMPDEST CALLVALUE DUP1 ISZERO PUSH2 0x2EF JUMPI PUSH0 DUP1 REVERT JUMPDEST POP PUSH2 0x1B1 PUSH2 0x2FE CALLDATASIZE PUSH1 0x4 PUSH2 0xD9B JUMP JUMPDEST PUSH2 0x8CB JUMP JUMPDEST CALLVALUE DUP1 ISZERO PUSH2 0x30E JUMPI PUSH0 DUP1 REVERT JUMPDEST POP PUSH1 0x4 SLOAD PUSH2 0x322 SWAP1 PUSH1 0x1 PUSH1 0x1 PUSH1 0xA0 SHL SUB AND DUP2 JUMP JUMPDEST PUSH1 0x40 MLOAD PUSH1 0x1 PUSH1 0x1 PUSH1 0xA0 SHL SUB SWAP1 SWAP2 AND DUP2 MSTORE PUSH1 0x20 ADD PUSH2 0x1A0 JUMP JUMPDEST CALLVALUE DUP1 ISZERO PUSH2 0x345 JUMPI PUSH0 DUP1 REVERT JUMPDEST POP PUSH2 0x193 PUSH2 0x945 JUMP JUMPDEST CALLVALUE DUP1 ISZERO PUSH2 0x359 JUMPI PUSH0 DUP1 REVERT JUMPDEST POP PUSH2 0x1B1 PUSH2 0x368 CALLDATASIZE PUSH1 0x4 PUSH2 0xD71 JUMP JUMPDEST PUSH2 0x952 JUMP JUMPDEST CALLVALUE DUP1 ISZERO PUSH2 0x378 JUMPI PUSH0 DUP1 REVERT JUMPDEST POP PUSH2 0x1B1 PUSH2 0x387 CALLDATASIZE PUSH1 0x4 PUSH2 0xDFB JUMP JUMPDEST PUSH2 0xAB3 JUMP JUMPDEST CALLVALUE DUP1 ISZERO PUSH2 0x397 JUMPI PUSH0 DUP1 REVERT JUMPDEST POP PUSH2 0x1D2 PUSH2 0x3A6 CALLDATASIZE PUSH1 0x4 PUSH2 0xD71 JUMP JUMPDEST PUSH2 0xABD JUMP JUMPDEST CALLVALUE DUP1 ISZERO PUSH2 0x3B6 JUMPI PUSH0 DUP1 REVERT JUMPDEST POP PUSH2 0x1B1 PUSH2 0x3C5 CALLDATASIZE PUSH1 0x4 PUSH2 0xD71 JUMP JUMPDEST PUSH2 0xAC9 JUMP JUMPDEST CALLVALUE DUP1 ISZERO PUSH2 0x3D5 JUMPI PUSH0 DUP1 REVERT JUMPDEST POP PUSH2 0x1B1 PUSH2 0x3E4 CALLDATASIZE PUSH1 0x4 PUSH2 0xDBD JUMP JUMPDEST PUSH2 0xAD9 JUMP JUMPDEST PUSH2 0x1B1 PUSH2 0xAEA JUMP JUMPDEST CALLVALUE DUP1 ISZERO PUSH2 0x3FC JUMPI PUSH0 DUP1 REVERT JUMPDEST POP PUSH1 0x3 SLOAD PUSH2 0x322 SWAP1 PUSH1 0x1 PUSH1 0x1 PUSH1 0xA0 SHL SUB AND DUP2 JUMP JUMPDEST CALLVALUE DUP1 ISZERO PUSH2 0x41B JUMPI PUSH0 DUP1 REVERT JUMPDEST POP PUSH2 0x1B1 PUSH2 0x42A CALLDATASIZE PUSH1 0x4 PUSH2 0xE26 JUMP JUMPDEST PUSH2 0xB60 JUMP JUMPDEST CALLVALUE DUP1 ISZERO PUSH2 0x43A JUMPI PUSH0 DUP1 REVERT JUMPDEST POP PUSH2 0x1D2 PUSH2 0x449 CALLDATASIZE PUSH1 0x4 PUSH2 0xED1 JUMP JUMPDEST PUSH2 0xBA1 JUMP JUMPDEST CALLVALUE DUP1 ISZERO PUSH2 0x459 JUMPI PUSH0 DUP1 REVERT JUMPDEST POP PUSH2 0x1D2 PUSH2 0x468 CALLDATASIZE PUSH1 0x4 PUSH2 0xD9B JUMP JUMPDEST PUSH2 0xC78 JUMP JUMPDEST CALLVALUE DUP1 ISZERO PUSH2 0x478 JUMPI PUSH0 DUP1 REVERT JUMPDEST POP PUSH2 0x210 PUSH2 0x487 CALLDATASIZE PUSH1 0x4 PUSH2 0xF14 JUMP JUMPDEST PUSH1 0x1 PUSH1 0x1 PUSH1 0xA0 SHL SUB SWAP2 DUP3 AND PUSH0 SWAP1 DUP2 MSTORE PUSH1 0x2 PUSH1 0x20 SWAP1 DUP2 MSTORE PUSH1 0x40 DUP1 DUP4 KECCAK256 SWAP4 SWAP1 SWAP5 AND DUP3 MSTORE SWAP2 SWAP1 SWAP2 MSTORE KECCAK256 SLOAD SWAP1 JUMP JUMPDEST CALLVALUE DUP1 ISZERO PUSH2 0x4BC JUMPI PUSH0 DUP1 REVERT JUMPDEST POP PUSH2 0x1B1 PUSH2 0x4CB CALLDATASIZE PUSH1 0x4 PUSH2 0xD71 JUMP JUMPDEST PUSH2 0xC9B JUMP JUMPDEST PUSH1 0x7 DUP1 SLOAD PUSH2 0x4DD SWAP1 PUSH2 0xF40 JUMP JUMPDEST DUP1 PUSH1 0x1F ADD PUSH1 0x20 DUP1 SWAP2 DIV MUL PUSH1 0x20 ADD PUSH1 0x40 MLOAD SWAP1 DUP2 ADD PUSH1 0x40 MSTORE DUP1 SWAP3 SWAP2 SWAP1 DUP2 DUP2 MSTORE PUSH1 0x20 ADD DUP3 DUP1 SLOAD PUSH2 0x509 SWAP1 PUSH2 0xF40 JUMP JUMPDEST DUP1 ISZERO PUSH2 0x554 JUMPI DUP1 PUSH1 0x1F LT PUSH2 0x52B JUMPI PUSH2 0x100 DUP1 DUP4 SLOAD DIV MUL DUP4 MSTORE SWAP2 PUSH1 0x20 ADD SWAP2 PUSH2 0x554 JUMP JUMPDEST DUP3 ADD SWAP2 SWAP1 PUSH0 MSTORE PUSH1 0x20 PUSH0 KECCAK256 SWAP1 JUMPDEST DUP2 SLOAD DUP2 MSTORE SWAP1 PUSH1 0x1 ADD SWAP1 PUSH1 0x20 ADD DUP1 DUP4 GT PUSH2 0x537 JUMPI DUP3 SWAP1 SUB PUSH1 0x1F AND DUP3 ADD SWAP2 JUMPDEST POP POP POP POP POP DUP2 JUMP JUMPDEST PUSH2 0x571 CALLER PUSH0 CALLDATALOAD PUSH1 0x1 PUSH1 0x1 PUSH1 0xE0 SHL SUB NOT AND PUSH2 0xBA1 JUMP JUMPDEST PUSH2 0x596 JUMPI PUSH1 0x40 MLOAD PUSH3 0x461BCD PUSH1 0xE5 SHL DUP2 MSTORE PUSH1 0x4 ADD PUSH2 0x58D SWAP1 PUSH2 0xF78 JUMP JUMPDEST PUSH1 0x40 MLOAD DUP1 SWAP2 SUB SWAP1 REVERT JUMPDEST PUSH1 0x40 MLOAD PUSH1 0x4 CALLDATALOAD SWAP1 PUSH1 0x24 CALLDATALOAD SWAP1 DUP2 SWAP1 DUP4 SWAP1 CALLER SWAP1 PUSH0 DUP1 CALLDATALOAD PUSH1 0x1 PUSH1 0x1 PUSH1 0xE0 SHL SUB NOT AND SWAP2 PUSH2 0x5C2 SWAP2 CALLVALUE SWAP2 CALLDATASIZE SWAP1 PUSH2 0xFA6 JUMP JUMPDEST PUSH1 0x40 MLOAD DUP1 SWAP2 SUB SWAP1 LOG4 POP POP PUSH1 0x4 DUP1 SLOAD PUSH1 0xFF PUSH1 0xA0 SHL NOT AND PUSH1 0x1 PUSH1 0xA0 SHL OR SWAP1 SSTORE JUMP JUMPDEST PUSH1 0x4 SLOAD PUSH0 SWAP1 PUSH1 0x1 PUSH1 0xA0 SHL SWAP1 DIV PUSH1 0xFF AND ISZERO PUSH2 0x5F9 JUMPI PUSH0 DUP1 REVERT JUMPDEST PUSH2 0x603 DUP4 DUP4 PUSH2 0xCA6 JUMP JUMPDEST SWAP1 POP JUMPDEST SWAP3 SWAP2 POP POP JUMP JUMPDEST PUSH2 0x621 CALLER PUSH0 CALLDATALOAD PUSH1 0x1 PUSH1 0x1 PUSH1 0xE0 SHL SUB NOT AND PUSH2 0xBA1 JUMP JUMPDEST PUSH2 0x63D JUMPI PUSH1 0x40 MLOAD PUSH3 0x461BCD PUSH1 0xE5 SHL DUP2 MSTORE PUSH1 0x4 ADD PUSH2 0x58D SWAP1 PUSH2 0xF78 JUMP JUMPDEST PUSH1 0x4 DUP1 SLOAD PUSH1 0x1 PUSH1 0x1 PUSH1 0xA0 SHL SUB NOT AND PUSH1 0x1 PUSH1 0x1 PUSH1 0xA0 SHL SUB DUP4 AND SWAP1 DUP2 OR SWAP1 SWAP2 SSTORE PUSH1 0x40 MLOAD PUSH32 0xCE241D7CA1F669FEE44B6FC00B8EBA2DF3BB514EED0F6F668F8F89096E81ED94 SWAP1 PUSH0 SWAP1 LOG2 POP JUMP JUMPDEST PUSH1 0x4 SLOAD PUSH0 SWAP1 PUSH1 0x1 PUSH1 0xA0 SHL SWAP1 DIV PUSH1 0xFF AND ISZERO PUSH2 0x69E JUMPI PUSH0 DUP1 REVERT JUMPDEST PUSH1 0x1 PUSH1 0x1 PUSH1 0xA0 SHL SUB DUP5 AND CALLER EQ DUP1 ISZERO SWAP1 PUSH2 0x6DA JUMPI POP PUSH1 0x1 PUSH1 0x1 PUSH1 0xA0 SHL SUB DUP5 AND PUSH0 SWAP1 DUP2 MSTORE PUSH1 0x2 PUSH1 0x20 SWAP1 DUP2 MSTORE PUSH1 0x40 DUP1 DUP4 KECCAK256 CALLER DUP5 MSTORE SWAP1 SWAP2 MSTORE SWAP1 KECCAK256 SLOAD PUSH0 NOT EQ ISZERO JUMPDEST ISZERO PUSH2 0x731 JUMPI PUSH1 0x1 PUSH1 0x1 PUSH1 0xA0 SHL SUB DUP5 AND PUSH0 SWAP1 DUP2 MSTORE PUSH1 0x2 PUSH1 0x20 SWAP1 DUP2 MSTORE PUSH1 0x40 DUP1 DUP4 KECCAK256 CALLER DUP5 MSTORE SWAP1 SWAP2 MSTORE SWAP1 KECCAK256 SLOAD PUSH2 0x70D SWAP1 DUP4 SWAP1 PUSH2 0xFEF JUMP JUMPDEST PUSH1 0x1 PUSH1 0x1 PUSH1 0xA0 SHL SUB DUP6 AND PUSH0 SWAP1 DUP2 MSTORE PUSH1 0x2 PUSH1 0x20 SWAP1 DUP2 MSTORE PUSH1 0x40 DUP1 DUP4 KECCAK256 CALLER DUP5 MSTORE SWAP1 SWAP2 MSTORE SWAP1 KECCAK256 SSTORE JUMPDEST PUSH1 0x1 PUSH1 0x1 PUSH1 0xA0 SHL SUB DUP5 AND PUSH0 SWAP1 DUP2 MSTORE PUSH1 0x1 PUSH1 0x20 MSTORE PUSH1 0x40 SWAP1 KECCAK256 SLOAD PUSH2 0x754 SWAP1 DUP4 SWAP1 PUSH2 0xFEF JUMP JUMPDEST PUSH1 0x1 PUSH1 0x1 PUSH1 0xA0 SHL SUB DUP1 DUP7 AND PUSH0 SWAP1 DUP2 MSTORE PUSH1 0x1 PUSH1 0x20 MSTORE PUSH1 0x40 DUP1 DUP3 KECCAK256 SWAP4 SWAP1 SWAP4 SSTORE SWAP1 DUP6 AND DUP2 MSTORE KECCAK256 SLOAD PUSH2 0x783 SWAP1 DUP4 SWAP1 PUSH2 0x1002 JUMP JUMPDEST PUSH1 0x1 PUSH1 0x1 PUSH1 0xA0 SHL SUB DUP1 DUP6 AND PUSH0 DUP2 DUP2 MSTORE PUSH1 0x1 PUSH1 0x20 MSTORE PUSH1 0x40 SWAP1 DUP2 SWAP1 KECCAK256 SWAP4 SWAP1 SWAP4 SSTORE SWAP2 MLOAD SWAP1 DUP7 AND SWAP1 PUSH32 0xDDF252AD1BE2C89B69C2B068FC378DAA952BA7F163C4A11628F55A4DF523B3EF SWAP1 PUSH2 0x7D6 SWAP1 DUP7 DUP2 MSTORE PUSH1 0x20 ADD SWAP1 JUMP JUMPDEST PUSH1 0x40 MLOAD DUP1 SWAP2 SUB SWAP1 LOG3 POP PUSH1 0x1 SWAP4 SWAP3 POP POP POP JUMP JUMPDEST PUSH2 0x7FD CALLER PUSH0 CALLDATALOAD PUSH1 0x1 PUSH1 0x1 PUSH1 0xE0 SHL SUB NOT AND PUSH2 0xBA1 JUMP JUMPDEST PUSH2 0x819 JUMPI PUSH1 0x40 MLOAD PUSH3 0x461BCD PUSH1 0xE5 SHL DUP2 MSTORE PUSH1 0x4 ADD PUSH2 0x58D SWAP1 PUSH2 0xF78 JUMP JUMPDEST PUSH1 0x4 SLOAD PUSH1 0x1 PUSH1 0xA0 SHL SWAP1 DIV PUSH1 0xFF AND ISZERO PUSH2 0x82F JUMPI PUSH0 DUP1 REVERT JUMPDEST PUSH1 0x1 PUSH1 0x1 PUSH1 0xA0 SHL SUB DUP3 AND PUSH0 SWAP1 DUP2 MSTORE PUSH1 0x1 PUSH1 0x20 MSTORE PUSH1 0x40 SWAP1 KECCAK256 SLOAD PUSH2 0x852 SWAP1 DUP3 SWAP1 PUSH2 0x1002 JUMP JUMPDEST PUSH1 0x1 PUSH1 0x1 PUSH1 0xA0 SHL SUB DUP4 AND PUSH0 SWAP1 DUP2 MSTORE PUSH1 0x1 PUSH1 0x20 MSTORE PUSH1 0x40 DUP2 KECCAK256 SWAP2 SWAP1 SWAP2 SSTORE SLOAD PUSH2 0x879 SWAP1 DUP3 SWAP1 PUSH2 0x1002 JUMP JUMPDEST PUSH0 SSTORE PUSH1 0x40 MLOAD DUP2 DUP2 MSTORE PUSH1 0x1 PUSH1 0x1 PUSH1 0xA0 SHL SUB DUP4 AND SWAP1 PUSH32 0xF6798A560793A54C3BCFE86A93CDE1E73087D944C0EA20544137D4121396885 SWAP1 PUSH1 0x20 ADD JUMPDEST PUSH1 0x40 MLOAD DUP1 SWAP2 SUB SWAP1 LOG2 POP POP JUMP JUMPDEST PUSH2 0x8C8 CALLER DUP3 PUSH2 0x952 JUMP JUMPDEST POP JUMP JUMPDEST PUSH2 0x8E0 CALLER PUSH0 CALLDATALOAD PUSH1 0x1 PUSH1 0x1 PUSH1 0xE0 SHL SUB NOT AND PUSH2 0xBA1 JUMP JUMPDEST PUSH2 0x8FC JUMPI PUSH1 0x40 MLOAD PUSH3 0x461BCD PUSH1 0xE5 SHL DUP2 MSTORE PUSH1 0x4 ADD PUSH2 0x58D SWAP1 PUSH2 0xF78 JUMP JUMPDEST PUSH1 0x3 DUP1 SLOAD PUSH1 0x1 PUSH1 0x1 PUSH1 0xA0 SHL SUB NOT AND PUSH1 0x1 PUSH1 0x1 PUSH1 0xA0 SHL SUB DUP4 AND SWAP1 DUP2 OR SWAP1 SWAP2 SSTORE PUSH1 0x40 MLOAD PUSH32 0x1ABEBEA81BFA2637F28358C371278FB15EDE7EA8DD28D2E03B112FF6D936ADA4 SWAP1 PUSH0 SWAP1 LOG2 POP JUMP JUMPDEST PUSH1 0x5 DUP1 SLOAD PUSH2 0x4DD SWAP1 PUSH2 0xF40 JUMP JUMPDEST PUSH2 0x967 CALLER PUSH0 CALLDATALOAD PUSH1 0x1 PUSH1 0x1 PUSH1 0xE0 SHL SUB NOT AND PUSH2 0xBA1 JUMP JUMPDEST PUSH2 0x983 JUMPI PUSH1 0x40 MLOAD PUSH3 0x461BCD PUSH1 0xE5 SHL DUP2 MSTORE PUSH1 0x4 ADD PUSH2 0x58D SWAP1 PUSH2 0xF78 JUMP JUMPDEST PUSH1 0x4 SLOAD PUSH1 0x1 PUSH1 0xA0 SHL SWAP1 DIV PUSH1 0xFF AND ISZERO PUSH2 0x999 JUMPI PUSH0 DUP1 REVERT JUMPDEST PUSH1 0x1 PUSH1 0x1 PUSH1 0xA0 SHL SUB DUP3 AND CALLER EQ DUP1 ISZERO SWAP1 PUSH2 0x9D5 JUMPI POP PUSH1 0x1 PUSH1 0x1 PUSH1 0xA0 SHL SUB DUP3 AND PUSH0 SWAP1 DUP2 MSTORE PUSH1 0x2 PUSH1 0x20 SWAP1 DUP2 MSTORE PUSH1 0x40 DUP1 DUP4 KECCAK256 CALLER DUP5 MSTORE SWAP1 SWAP2 MSTORE SWAP1 KECCAK256 SLOAD PUSH0 NOT EQ ISZERO JUMPDEST ISZERO PUSH2 0xA2C JUMPI PUSH1 0x1 PUSH1 0x1 PUSH1 0xA0 SHL SUB DUP3 AND PUSH0 SWAP1 DUP2 MSTORE PUSH1 0x2 PUSH1 0x20 SWAP1 DUP2 MSTORE PUSH1 0x40 DUP1 DUP4 KECCAK256 CALLER DUP5 MSTORE SWAP1 SWAP2 MSTORE SWAP1 KECCAK256 SLOAD PUSH2 0xA08 SWAP1 DUP3 SWAP1 PUSH2 0xFEF JUMP JUMPDEST PUSH1 0x1 PUSH1 0x1 PUSH1 0xA0 SHL SUB DUP4 AND PUSH0 SWAP1 DUP2 MSTORE PUSH1 0x2 PUSH1 0x20 SWAP1 DUP2 MSTORE PUSH1 0x40 DUP1 DUP4 KECCAK256 CALLER DUP5 MSTORE SWAP1 SWAP2 MSTORE SWAP1 KECCAK256 SSTORE JUMPDEST PUSH1 0x1 PUSH1 0x1 PUSH1 0xA0 SHL SUB DUP3 AND PUSH0 SWAP1 DUP2 MSTORE PUSH1 0x1 PUSH1 0x20 MSTORE PUSH1 0x40 SWAP1 KECCAK256 SLOAD PUSH2 0xA4F SWAP1 DUP3 SWAP1 PUSH2 0xFEF JUMP JUMPDEST PUSH1 0x1 PUSH1 0x1 PUSH1 0xA0 SHL SUB DUP4 AND PUSH0 SWAP1 DUP2 MSTORE PUSH1 0x1 PUSH1 0x20 MSTORE PUSH1 0x40 DUP2 KECCAK256 SWAP2 SWAP1 SWAP2 SSTORE SLOAD PUSH2 0xA76 SWAP1 DUP3 SWAP1 PUSH2 0xFEF JUMP JUMPDEST PUSH0 SSTORE PUSH1 0x40 MLOAD DUP2 DUP2 MSTORE PUSH1 0x1 PUSH1 0x1 PUSH1 0xA0 SHL SUB DUP4 AND SWAP1 PUSH32 0xCC16F5DBB4873280815C1EE09DBD06736CFFCC184412CF7A71A0FDB75D397CA5 SWAP1 PUSH1 0x20 ADD PUSH2 0x8B2 JUMP JUMPDEST PUSH2 0x8C8 CALLER DUP3 PUSH2 0x7E8 JUMP JUMPDEST PUSH0 PUSH2 0x603 CALLER DUP5 DUP5 PUSH2 0x686 JUMP JUMPDEST PUSH2 0xAD4 CALLER DUP4 DUP4 PUSH2 0x686 JUMP JUMPDEST POP POP POP JUMP JUMPDEST PUSH2 0xAE4 DUP4 DUP4 DUP4 PUSH2 0x686 JUMP JUMPDEST POP POP POP POP JUMP JUMPDEST PUSH2 0xAFF CALLER PUSH0 CALLDATALOAD PUSH1 0x1 PUSH1 0x1 PUSH1 0xE0 SHL SUB NOT AND PUSH2 0xBA1 JUMP JUMPDEST PUSH2 0xB1B JUMPI PUSH1 0x40 MLOAD PUSH3 0x461BCD PUSH1 0xE5 SHL DUP2 MSTORE PUSH1 0x4 ADD PUSH2 0x58D SWAP1 PUSH2 0xF78 JUMP JUMPDEST PUSH1 0x40 MLOAD PUSH1 0x4 CALLDATALOAD SWAP1 PUSH1 0x24 CALLDATALOAD SWAP1 DUP2 SWAP1 DUP4 SWAP1 CALLER SWAP1 PUSH0 DUP1 CALLDATALOAD PUSH1 0x1 PUSH1 0x1 PUSH1 0xE0 SHL SUB NOT AND SWAP2 PUSH2 0xB47 SWAP2 CALLVALUE SWAP2 CALLDATASIZE SWAP1 PUSH2 0xFA6 JUMP JUMPDEST PUSH1 0x40 MLOAD DUP1 SWAP2 SUB SWAP1 LOG4 POP POP PUSH1 0x4 DUP1 SLOAD PUSH1 0xFF PUSH1 0xA0 SHL NOT AND SWAP1 SSTORE JUMP JUMPDEST PUSH2 0xB75 CALLER PUSH0 CALLDATALOAD PUSH1 0x1 PUSH1 0x1 PUSH1 0xE0 SHL SUB NOT AND PUSH2 0xBA1 JUMP JUMPDEST PUSH2 0xB91 JUMPI PUSH1 0x40 MLOAD PUSH3 0x461BCD PUSH1 0xE5 SHL DUP2 MSTORE PUSH1 0x4 ADD PUSH2 0x58D SWAP1 PUSH2 0xF78 JUMP JUMPDEST PUSH1 0x7 PUSH2 0xB9D DUP3 DUP3 PUSH2 0x1060 JUMP JUMPDEST POP POP JUMP JUMPDEST PUSH0 ADDRESS PUSH1 0x1 PUSH1 0x1 PUSH1 0xA0 SHL SUB DUP5 AND SUB PUSH2 0xBBA JUMPI POP PUSH1 0x1 PUSH2 0x606 JUMP JUMPDEST PUSH1 0x4 SLOAD PUSH1 0x1 PUSH1 0x1 PUSH1 0xA0 SHL SUB SWAP1 DUP2 AND SWAP1 DUP5 AND SUB PUSH2 0xBD8 JUMPI POP PUSH1 0x1 PUSH2 0x606 JUMP JUMPDEST PUSH1 0x3 SLOAD PUSH1 0x1 PUSH1 0x1 PUSH1 0xA0 SHL SUB AND PUSH2 0xBEF JUMPI POP PUSH0 PUSH2 0x606 JUMP JUMPDEST PUSH1 0x3 SLOAD PUSH1 0x40 MLOAD PUSH4 0xB7009613 PUSH1 0xE0 SHL DUP2 MSTORE PUSH1 0x1 PUSH1 0x1 PUSH1 0xA0 SHL SUB DUP6 DUP2 AND PUSH1 0x4 DUP4 ADD MSTORE ADDRESS PUSH1 0x24 DUP4 ADD MSTORE PUSH1 0x1 PUSH1 0x1 PUSH1 0xE0 SHL SUB NOT DUP6 AND PUSH1 0x44 DUP4 ADD MSTORE SWAP1 SWAP2 AND SWAP1 PUSH4 0xB7009613 SWAP1 PUSH1 0x64 ADD PUSH1 0x20 PUSH1 0x40 MLOAD DUP1 DUP4 SUB DUP2 DUP7 GAS STATICCALL ISZERO DUP1 ISZERO PUSH2 0xC4D JUMPI RETURNDATASIZE PUSH0 DUP1 RETURNDATACOPY RETURNDATASIZE PUSH0 REVERT JUMPDEST POP POP POP POP PUSH1 0x40 MLOAD RETURNDATASIZE PUSH1 0x1F NOT PUSH1 0x1F DUP3 ADD AND DUP3 ADD DUP1 PUSH1 0x40 MSTORE POP DUP2 ADD SWAP1 PUSH2 0xC71 SWAP2 SWAP1 PUSH2 0x1120 JUMP JUMPDEST SWAP1 POP PUSH2 0x606 JUMP JUMPDEST PUSH1 0x4 SLOAD PUSH0 SWAP1 PUSH1 0x1 PUSH1 0xA0 SHL SWAP1 DIV PUSH1 0xFF AND ISZERO PUSH2 0xC90 JUMPI PUSH0 DUP1 REVERT JUMPDEST PUSH2 0x606 DUP3 PUSH0 NOT PUSH2 0xCA6 JUMP JUMPDEST PUSH2 0xAD4 DUP3 CALLER DUP4 PUSH2 0x686 JUMP JUMPDEST CALLER PUSH0 DUP2 DUP2 MSTORE PUSH1 0x2 PUSH1 0x20 SWAP1 DUP2 MSTORE PUSH1 0x40 DUP1 DUP4 KECCAK256 PUSH1 0x1 PUSH1 0x1 PUSH1 0xA0 SHL SUB DUP8 AND DUP1 DUP6 MSTORE SWAP3 MSTORE DUP1 DUP4 KECCAK256 DUP6 SWAP1 SSTORE MLOAD SWAP2 SWAP3 SWAP1 SWAP2 PUSH32 0x8C5BE1E5EBEC7D5BD14F71427D1E84F3DD0314C0F7B2291E5B200AC8C7C3B925 SWAP1 PUSH2 0xD00 SWAP1 DUP7 DUP2 MSTORE PUSH1 0x20 ADD SWAP1 JUMP JUMPDEST PUSH1 0x40 MLOAD DUP1 SWAP2 SUB SWAP1 LOG3 POP PUSH1 0x1 SWAP3 SWAP2 POP POP JUMP JUMPDEST PUSH0 PUSH1 0x20 DUP1 DUP4 MSTORE DUP4 MLOAD DUP1 PUSH1 0x20 DUP6 ADD MSTORE PUSH0 JUMPDEST DUP2 DUP2 LT ISZERO PUSH2 0xD3D JUMPI DUP6 DUP2 ADD DUP4 ADD MLOAD DUP6 DUP3 ADD PUSH1 0x40 ADD MSTORE DUP3 ADD PUSH2 0xD21 JUMP JUMPDEST POP PUSH0 PUSH1 0x40 DUP3 DUP7 ADD ADD MSTORE PUSH1 0x40 PUSH1 0x1F NOT PUSH1 0x1F DUP4 ADD AND DUP6 ADD ADD SWAP3 POP POP POP SWAP3 SWAP2 POP POP JUMP JUMPDEST PUSH1 0x1 PUSH1 0x1 PUSH1 0xA0 SHL SUB DUP2 AND DUP2 EQ PUSH2 0x8C8 JUMPI PUSH0 DUP1 REVERT JUMPDEST PUSH0 DUP1 PUSH1 0x40 DUP4 DUP6 SUB SLT ISZERO PUSH2 0xD82 JUMPI PUSH0 DUP1 REVERT JUMPDEST DUP3 CALLDATALOAD PUSH2 0xD8D DUP2 PUSH2 0xD5D JUMP JUMPDEST SWAP5 PUSH1 0x20 SWAP4 SWAP1 SWAP4 ADD CALLDATALOAD SWAP4 POP POP POP JUMP JUMPDEST PUSH0 PUSH1 0x20 DUP3 DUP5 SUB SLT ISZERO PUSH2 0xDAB JUMPI PUSH0 DUP1 REVERT JUMPDEST DUP2 CALLDATALOAD PUSH2 0xDB6 DUP2 PUSH2 0xD5D JUMP JUMPDEST SWAP4 SWAP3 POP POP POP JUMP JUMPDEST PUSH0 DUP1 PUSH0 PUSH1 0x60 DUP5 DUP7 SUB SLT ISZERO PUSH2 0xDCF JUMPI PUSH0 DUP1 REVERT JUMPDEST DUP4 CALLDATALOAD PUSH2 0xDDA DUP2 PUSH2 0xD5D JUMP JUMPDEST SWAP3 POP PUSH1 0x20 DUP5 ADD CALLDATALOAD PUSH2 0xDEA DUP2 PUSH2 0xD5D JUMP JUMPDEST SWAP3 SWAP6 SWAP3 SWAP5 POP POP POP PUSH1 0x40 SWAP2 SWAP1 SWAP2 ADD CALLDATALOAD SWAP1 JUMP JUMPDEST PUSH0 PUSH1 0x20 DUP3 DUP5 SUB SLT ISZERO PUSH2 0xE0B JUMPI PUSH0 DUP1 REVERT JUMPDEST POP CALLDATALOAD SWAP2 SWAP1 POP JUMP JUMPDEST PUSH4 0x4E487B71 PUSH1 0xE0 SHL PUSH0 MSTORE PUSH1 0x41 PUSH1 0x4 MSTORE PUSH1 0x24 PUSH0 REVERT JUMPDEST PUSH0 PUSH1 0x20 DUP3 DUP5 SUB SLT ISZERO PUSH2 0xE36 JUMPI PUSH0 DUP1 REVERT JUMPDEST DUP2 CALLDATALOAD PUSH8 0xFFFFFFFFFFFFFFFF DUP1 DUP3 GT ISZERO PUSH2 0xE4D JUMPI PUSH0 DUP1 REVERT JUMPDEST DUP2 DUP5 ADD SWAP2 POP DUP5 PUSH1 0x1F DUP4 ADD SLT PUSH2 0xE60 JUMPI PUSH0 DUP1 REVERT JUMPDEST DUP2 CALLDATALOAD DUP2 DUP2 GT ISZERO PUSH2 0xE72 JUMPI PUSH2 0xE72 PUSH2 0xE12 JUMP JUMPDEST PUSH1 0x40 MLOAD PUSH1 0x1F DUP3 ADD PUSH1 0x1F NOT SWAP1 DUP2 AND PUSH1 0x3F ADD AND DUP2 ADD SWAP1 DUP4 DUP3 GT DUP2 DUP4 LT OR ISZERO PUSH2 0xE9A JUMPI PUSH2 0xE9A PUSH2 0xE12 JUMP JUMPDEST DUP2 PUSH1 0x40 MSTORE DUP3 DUP2 MSTORE DUP8 PUSH1 0x20 DUP5 DUP8 ADD ADD GT ISZERO PUSH2 0xEB2 JUMPI PUSH0 DUP1 REVERT JUMPDEST DUP3 PUSH1 0x20 DUP7 ADD PUSH1 0x20 DUP4 ADD CALLDATACOPY PUSH0 SWAP3 DUP2 ADD PUSH1 0x20 ADD SWAP3 SWAP1 SWAP3 MSTORE POP SWAP6 SWAP5 POP POP POP POP POP JUMP JUMPDEST PUSH0 DUP1 PUSH1 0x40 DUP4 DUP6 SUB SLT ISZERO PUSH2 0xEE2 JUMPI PUSH0 DUP1 REVERT JUMPDEST DUP3 CALLDATALOAD PUSH2 0xEED DUP2 PUSH2 0xD5D JUMP JUMPDEST SWAP2 POP PUSH1 0x20 DUP4 ADD CALLDATALOAD PUSH1 0x1 PUSH1 0x1 PUSH1 0xE0 SHL SUB NOT DUP2 AND DUP2 EQ PUSH2 0xF09 JUMPI PUSH0 DUP1 REVERT JUMPDEST DUP1 SWAP2 POP POP SWAP3 POP SWAP3 SWAP1 POP JUMP JUMPDEST PUSH0 DUP1 PUSH1 0x40 DUP4 DUP6 SUB SLT ISZERO PUSH2 0xF25 JUMPI PUSH0 DUP1 REVERT JUMPDEST DUP3 CALLDATALOAD PUSH2 0xF30 DUP2 PUSH2 0xD5D JUMP JUMPDEST SWAP2 POP PUSH1 0x20 DUP4 ADD CALLDATALOAD PUSH2 0xF09 DUP2 PUSH2 0xD5D JUMP JUMPDEST PUSH1 0x1 DUP2 DUP2 SHR SWAP1 DUP3 AND DUP1 PUSH2 0xF54 JUMPI PUSH1 0x7F DUP3 AND SWAP2 POP JUMPDEST PUSH1 0x20 DUP3 LT DUP2 SUB PUSH2 0xF72 JUMPI PUSH4 0x4E487B71 PUSH1 0xE0 SHL PUSH0 MSTORE PUSH1 0x22 PUSH1 0x4 MSTORE PUSH1 0x24 PUSH0 REVERT JUMPDEST POP SWAP2 SWAP1 POP JUMP JUMPDEST PUSH1 0x20 DUP1 DUP3 MSTORE PUSH1 0x14 SWAP1 DUP3 ADD MSTORE PUSH20 0x191CCB585D5D1A0B5D5B985D5D1A1BDC9A5E9959 PUSH1 0x62 SHL PUSH1 0x40 DUP3 ADD MSTORE PUSH1 0x60 ADD SWAP1 JUMP JUMPDEST DUP4 DUP2 MSTORE PUSH1 0x40 PUSH1 0x20 DUP3 ADD MSTORE DUP2 PUSH1 0x40 DUP3 ADD MSTORE DUP2 DUP4 PUSH1 0x60 DUP4 ADD CALLDATACOPY PUSH0 DUP2 DUP4 ADD PUSH1 0x60 SWAP1 DUP2 ADD SWAP2 SWAP1 SWAP2 MSTORE PUSH1 0x1F SWAP1 SWAP3 ADD PUSH1 0x1F NOT AND ADD ADD SWAP3 SWAP2 POP POP JUMP JUMPDEST PUSH4 0x4E487B71 PUSH1 0xE0 SHL PUSH0 MSTORE PUSH1 0x11 PUSH1 0x4 MSTORE PUSH1 0x24 PUSH0 REVERT JUMPDEST DUP2 DUP2 SUB DUP2 DUP2 GT ISZERO PUSH2 0x606 JUMPI PUSH2 0x606 PUSH2 0xFDB JUMP JUMPDEST DUP1 DUP3 ADD DUP1 DUP3 GT ISZERO PUSH2 0x606 JUMPI PUSH2 0x606 PUSH2 0xFDB JUMP JUMPDEST PUSH1 0x1F DUP3 GT ISZERO PUSH2 0xAD4 JUMPI DUP1 PUSH0 MSTORE PUSH1 0x20 PUSH0 KECCAK256 PUSH1 0x1F DUP5 ADD PUSH1 0x5 SHR DUP2 ADD PUSH1 0x20 DUP6 LT ISZERO PUSH2 0x103A JUMPI POP DUP1 JUMPDEST PUSH1 0x1F DUP5 ADD PUSH1 0x5 SHR DUP3 ADD SWAP2 POP JUMPDEST DUP2 DUP2 LT ISZERO PUSH2 0x1059 JUMPI PUSH0 DUP2 SSTORE PUSH1 0x1 ADD PUSH2 0x1046 JUMP JUMPDEST POP POP POP POP POP JUMP JUMPDEST DUP2 MLOAD PUSH8 0xFFFFFFFFFFFFFFFF DUP2 GT ISZERO PUSH2 0x107A JUMPI PUSH2 0x107A PUSH2 0xE12 JUMP JUMPDEST PUSH2 0x108E DUP2 PUSH2 0x1088 DUP5 SLOAD PUSH2 0xF40 JUMP JUMPDEST DUP5 PUSH2 0x1015 JUMP JUMPDEST PUSH1 0x20 DUP1 PUSH1 0x1F DUP4 GT PUSH1 0x1 DUP2 EQ PUSH2 0x10C1 JUMPI PUSH0 DUP5 ISZERO PUSH2 0x10AA JUMPI POP DUP6 DUP4 ADD MLOAD JUMPDEST PUSH0 NOT PUSH1 0x3 DUP7 SWAP1 SHL SHR NOT AND PUSH1 0x1 DUP6 SWAP1 SHL OR DUP6 SSTORE PUSH2 0x1118 JUMP JUMPDEST PUSH0 DUP6 DUP2 MSTORE PUSH1 0x20 DUP2 KECCAK256 PUSH1 0x1F NOT DUP7 AND SWAP2 JUMPDEST DUP3 DUP2 LT ISZERO PUSH2 0x10EF JUMPI DUP9 DUP7 ADD MLOAD DUP3 SSTORE SWAP5 DUP5 ADD SWAP5 PUSH1 0x1 SWAP1 SWAP2 ADD SWAP1 DUP5 ADD PUSH2 0x10D0 JUMP JUMPDEST POP DUP6 DUP3 LT ISZERO PUSH2 0x110C JUMPI DUP8 DUP6 ADD MLOAD PUSH0 NOT PUSH1 0x3 DUP9 SWAP1 SHL PUSH1 0xF8 AND SHR NOT AND DUP2 SSTORE JUMPDEST POP POP PUSH1 0x1 DUP5 PUSH1 0x1 SHL ADD DUP6 SSTORE JUMPDEST POP POP POP POP POP POP JUMP JUMPDEST PUSH0 PUSH1 0x20 DUP3 DUP5 SUB SLT ISZERO PUSH2 0x1130 JUMPI PUSH0 DUP1 REVERT JUMPDEST DUP2 MLOAD DUP1 ISZERO ISZERO DUP2 EQ PUSH2 0xDB6 JUMPI PUSH0 DUP1 REVERT INVALID LOG2 PUSH5 0x6970667358 0x22 SLT KECCAK256 0xF ADDRESS LOG3 DUP15 SSTORE STOP 0xD4 ORIGIN DUP2 0x4E MULMOD DUP13 0x25 DUP11 PUSH14 0xC472BAF2161C0C5DEBB49ADF79E6 0xB8 0xAF NUMBER PUSH5 0x736F6C6343 STOP ADDMOD OR STOP CALLER PUSH22 0x7064617465496E746572657374436F7272656374696F PUSH15 0x7361646428616464726573732C7569 PUSH15 0x74323536757064617465496E746572 PUSH6 0x7374436F7272 PUSH6 0x6374696F6E73 PUSH20 0x756228616464726573732C75696E7432353629A2 PUSH5 0x6970667358 0x22 SLT KECCAK256 PUSH20 0xD0AF57F287C81687A647725B8EF172248C16B06C NOT PUSH14 0x175F7CF8173B7A17B164736F6C63 NUMBER STOP ADDMOD OR STOP CALLER "
		},
		"gasEstimates": {
			"creation": {
				"codeDepositCost": "8104200",
				"executionCost": "84631",
				"totalCost": "8188831"
			},
			"external": {
				"BCKGOV()": "2371",
				"Governanceemissions()": "2393",
				"authority()": "2369",
				"bck()": "2436",
				"bcksavin()": "2349",
				"config()": "infinite",
				"configAuth()": "infinite",
				"dad()": "2414",
				"esBCKGOV()": "2370",
				"esBCKGOVtoBCKGOV(address,address)": "infinite",
				"eusdtoBCK()": "2437",
				"globalparam()": "2392",
				"globalparams()": "infinite",
				"isAuthorized(address,bytes4)": "infinite",
				"makeTokens()": "infinite",
				"makeVoxTub()": "infinite",
				"newDad()": "infinite",
				"newEmissions(address,address)": "infinite",
				"newTok(string)": "infinite",
				"newYieldtoBCK(address,address,address,address)": "infinite",
				"owner()": "2415",
				"setAuthority(address)": "infinite",
				"setOwner(address)": "infinite",
				"stabletoken()": "2413",
				"stake(address,address,address)": "infinite",
				"step()": "2395",
				"vest()": "2371"
			},
			"internal": {
				"S(string memory)": "infinite"
			}
		},
		"methodIdentifiers": {
			"BCKGOV()": "0a79a03e",
			"Governanceemissions()": "47c6f442",
			"authority()": "bf7e214f",
			"bck()": "71c21934",
			"bcksavin()": "0725bc75",
			"config()": "79502c55",
			"configAuth()": "90a067f1",
			"dad()": "689da08e",
			"esBCKGOV()": "5246fb2d",
			"esBCKGOVtoBCKGOV(address,address)": "ce6b4aa9",
			"eusdtoBCK()": "18ee85d4",
			"globalparam()": "57f2bc78",
			"globalparams()": "d4abc9f7",
			"isAuthorized(address,bytes4)": "d9972b96",
			"makeTokens()": "be28f5db",
			"makeVoxTub()": "4011fec1",
			"newDad()": "50a7755e",
			"newEmissions(address,address)": "17520e47",
			"newTok(string)": "fe3f85fd",
			"newYieldtoBCK(address,address,address,address)": "931f5534",
			"owner()": "8da5cb5b",
			"setAuthority(address)": "7a9e5e4b",
			"setOwner(address)": "13af4035",
			"stabletoken()": "e4517537",
			"stake(address,address,address)": "b1cb7218",
			"step()": "e25fe175",
			"vest()": "458efde3"
		}
	},
	"abi": [
		{
			"inputs": [],
			"stateMutability": "nonpayable",
			"type": "constructor"
		},
		{
			"anonymous": false,
			"inputs": [
				{
					"indexed": true,
					"internalType": "address",
					"name": "authority",
					"type": "address"
				}
			],
			"name": "LogSetAuthority",
			"type": "event"
		},
		{
			"anonymous": false,
			"inputs": [
				{
					"indexed": true,
					"internalType": "address",
					"name": "owner",
					"type": "address"
				}
			],
			"name": "LogSetOwner",
			"type": "event"
		},
		{
			"inputs": [],
			"name": "BCKGOV",
			"outputs": [
				{
					"internalType": "contract DSToken",
					"name": "",
					"type": "address"
				}
			],
			"stateMutability": "view",
			"type": "function"
		},
		{
			"inputs": [],
			"name": "Governanceemissions",
			"outputs": [
				{
					"internalType": "contract esBCKGOVEmissions",
					"name": "",
					"type": "address"
				}
			],
			"stateMutability": "view",
			"type": "function"
		},
		{
			"inputs": [],
			"name": "authority",
			"outputs": [
				{
					"internalType": "contract DSAuthority",
					"name": "",
					"type": "address"
				}
			],
			"stateMutability": "view",
			"type": "function"
		},
		{
			"inputs": [],
			"name": "bck",
			"outputs": [
				{
					"internalType": "contract DSToken",
					"name": "",
					"type": "address"
				}
			],
			"stateMutability": "view",
			"type": "function"
		},
		{
			"inputs": [],
			"name": "bcksavin",
			"outputs": [
				{
					"internalType": "contract BCKSavingsAccount",
					"name": "",
					"type": "address"
				}
			],
			"stateMutability": "view",
			"type": "function"
		},
		{
			"inputs": [],
			"name": "config",
			"outputs": [],
			"stateMutability": "nonpayable",
			"type": "function"
		},
		{
			"inputs": [],
			"name": "configAuth",
			"outputs": [],
			"stateMutability": "nonpayable",
			"type": "function"
		},
		{
			"inputs": [],
			"name": "dad",
			"outputs": [
				{
					"internalType": "contract DSGuard",
					"name": "",
					"type": "address"
				}
			],
			"stateMutability": "view",
			"type": "function"
		},
		{
			"inputs": [],
			"name": "esBCKGOV",
			"outputs": [
				{
					"internalType": "contract DSToken",
					"name": "",
					"type": "address"
				}
			],
			"stateMutability": "view",
			"type": "function"
		},
		{
			"inputs": [
				{
					"internalType": "address",
					"name": "_BCKGov",
					"type": "address"
				},
				{
					"internalType": "address",
					"name": "_esBCKGOV",
					"type": "address"
				}
			],
			"name": "esBCKGOVtoBCKGOV",
			"outputs": [
				{
					"internalType": "contract VestingContract",
					"name": "esBCKGOVconverter",
					"type": "address"
				}
			],
			"stateMutability": "nonpayable",
			"type": "function"
		},
		{
			"inputs": [],
			"name": "eusdtoBCK",
			"outputs": [
				{
					"internalType": "contract StablecointoBCK",
					"name": "",
					"type": "address"
				}
			],
			"stateMutability": "view",
			"type": "function"
		},
		{
			"inputs": [],
			"name": "globalparam",
			"outputs": [
				{
					"internalType": "contract Globals",
					"name": "",
					"type": "address"
				}
			],
			"stateMutability": "view",
			"type": "function"
		},
		{
			"inputs": [],
			"name": "globalparams",
			"outputs": [
				{
					"internalType": "contract Globals",
					"name": "globalparam",
					"type": "address"
				}
			],
			"stateMutability": "nonpayable",
			"type": "function"
		},
		{
			"inputs": [
				{
					"internalType": "address",
					"name": "src",
					"type": "address"
				},
				{
					"internalType": "bytes4",
					"name": "sig",
					"type": "bytes4"
				}
			],
			"name": "isAuthorized",
			"outputs": [
				{
					"internalType": "bool",
					"name": "",
					"type": "bool"
				}
			],
			"stateMutability": "view",
			"type": "function"
		},
		{
			"inputs": [],
			"name": "makeTokens",
			"outputs": [],
			"stateMutability": "nonpayable",
			"type": "function"
		},
		{
			"inputs": [],
			"name": "makeVoxTub",
			"outputs": [],
			"stateMutability": "nonpayable",
			"type": "function"
		},
		{
			"inputs": [],
			"name": "newDad",
			"outputs": [
				{
					"internalType": "contract DSGuard",
					"name": "dad",
					"type": "address"
				}
			],
			"stateMutability": "nonpayable",
			"type": "function"
		},
		{
			"inputs": [
				{
					"internalType": "address",
					"name": "_BCKGov",
					"type": "address"
				},
				{
					"internalType": "address",
					"name": "_esBCKGov",
					"type": "address"
				}
			],
			"name": "newEmissions",
			"outputs": [
				{
					"internalType": "contract esBCKGOVEmissions",
					"name": "esBCKGOV",
					"type": "address"
				}
			],
			"stateMutability": "nonpayable",
			"type": "function"
		},
		{
			"inputs": [
				{
					"internalType": "string",
					"name": "name",
					"type": "string"
				}
			],
			"name": "newTok",
			"outputs": [
				{
					"internalType": "contract DSToken",
					"name": "token",
					"type": "address"
				}
			],
			"stateMutability": "nonpayable",
			"type": "function"
		},
		{
			"inputs": [
				{
					"internalType": "address",
					"name": "_yieldBearingstable",
					"type": "address"
				},
				{
					"internalType": "address",
					"name": "_bck",
					"type": "address"
				},
				{
					"internalType": "address",
					"name": "_cashbackapp",
					"type": "address"
				},
				{
					"internalType": "address",
					"name": "_protocol",
					"type": "address"
				}
			],
			"name": "newYieldtoBCK",
			"outputs": [
				{
					"internalType": "contract StablecointoBCK",
					"name": "yieldtoBCK",
					"type": "address"
				}
			],
			"stateMutability": "nonpayable",
			"type": "function"
		},
		{
			"inputs": [],
			"name": "owner",
			"outputs": [
				{
					"internalType": "address",
					"name": "",
					"type": "address"
				}
			],
			"stateMutability": "view",
			"type": "function"
		},
		{
			"inputs": [
				{
					"internalType": "contract DSAuthority",
					"name": "authority_",
					"type": "address"
				}
			],
			"name": "setAuthority",
			"outputs": [],
			"stateMutability": "nonpayable",
			"type": "function"
		},
		{
			"inputs": [
				{
					"internalType": "address",
					"name": "owner_",
					"type": "address"
				}
			],
			"name": "setOwner",
			"outputs": [],
			"stateMutability": "nonpayable",
			"type": "function"
		},
		{
			"inputs": [],
			"name": "stabletoken",
			"outputs": [
				{
					"internalType": "contract DSToken",
					"name": "",
					"type": "address"
				}
			],
			"stateMutability": "view",
			"type": "function"
		},
		{
			"inputs": [
				{
					"internalType": "address",
					"name": "_bck",
					"type": "address"
				},
				{
					"internalType": "address",
					"name": "_usdc",
					"type": "address"
				},
				{
					"internalType": "address",
					"name": "_esBCKGOV",
					"type": "address"
				}
			],
			"name": "stake",
			"outputs": [
				{
					"internalType": "contract BCKSavingsAccount",
					"name": "savingsaccount",
					"type": "address"
				}
			],
			"stateMutability": "nonpayable",
			"type": "function"
		},
		{
			"inputs": [],
			"name": "step",
			"outputs": [
				{
					"internalType": "uint8",
					"name": "",
					"type": "uint8"
				}
			],
			"stateMutability": "view",
			"type": "function"
		},
		{
			"inputs": [],
			"name": "vest",
			"outputs": [
				{
					"internalType": "contract VestingContract",
					"name": "",
					"type": "address"
				}
			],
			"stateMutability": "view",
			"type": "function"
		}
	]
}