{
	"Crypto-side-main/global.sol": {
		"Globals": {
			"abi": [
				{
					"anonymous": false,
					"inputs": [
						{
							"indexed": true,
							"internalType": "address",
							"name": "user",
							"type": "address"
						},
						{
							"indexed": false,
							"internalType": "uint256",
							"name": "amount",
							"type": "uint256"
						}
					],
					"name": "BalancesUpdated",
					"type": "event"
				},
				{
					"anonymous": false,
					"inputs": [
						{
							"indexed": true,
							"internalType": "address",
							"name": "authority",
							"type": "address"
						}
					],
					"name": "LogSetAuthority",
					"type": "event"
				},
				{
					"anonymous": false,
					"inputs": [
						{
							"indexed": true,
							"internalType": "address",
							"name": "owner",
							"type": "address"
						}
					],
					"name": "LogSetOwner",
					"type": "event"
				},
				{
					"anonymous": false,
					"inputs": [
						{
							"indexed": true,
							"internalType": "address",
							"name": "user",
							"type": "address"
						},
						{
							"indexed": false,
							"internalType": "uint256",
							"name": "amount",
							"type": "uint256"
						}
					],
					"name": "SharesUpdated",
					"type": "event"
				},
				{
					"anonymous": false,
					"inputs": [
						{
							"indexed": false,
							"internalType": "uint256",
							"name": "amount",
							"type": "uint256"
						}
					],
					"name": "TotalDepositsUpdated",
					"type": "event"
				},
				{
					"inputs": [
						{
							"internalType": "address",
							"name": "",
							"type": "address"
						}
					],
					"name": "_balances",
					"outputs": [
						{
							"internalType": "uint256",
							"name": "",
							"type": "uint256"
						}
					],
					"stateMutability": "view",
					"type": "function"
				},
				{
					"inputs": [
						{
							"internalType": "address",
							"name": "",
							"type": "address"
						}
					],
					"name": "_shares",
					"outputs": [
						{
							"internalType": "uint256",
							"name": "",
							"type": "uint256"
						}
					],
					"stateMutability": "view",
					"type": "function"
				},
				{
					"inputs": [],
					"name": "_totalDeposits",
					"outputs": [
						{
							"internalType": "uint256",
							"name": "",
							"type": "uint256"
						}
					],
					"stateMutability": "view",
					"type": "function"
				},
				{
					"inputs": [],
					"name": "authority",
					"outputs": [
						{
							"internalType": "contract DSAuthority",
							"name": "",
							"type": "address"
						}
					],
					"stateMutability": "view",
					"type": "function"
				},
				{
					"inputs": [
						{
							"internalType": "address",
							"name": "user",
							"type": "address"
						}
					],
					"name": "balance",
					"outputs": [
						{
							"internalType": "uint256",
							"name": "",
							"type": "uint256"
						}
					],
					"stateMutability": "view",
					"type": "function"
				},
				{
					"inputs": [
						{
							"internalType": "address",
							"name": "user",
							"type": "address"
						},
						{
							"internalType": "uint256",
							"name": "amount",
							"type": "uint256"
						}
					],
					"name": "globalbalanceadd",
					"outputs": [],
					"stateMutability": "nonpayable",
					"type": "function"
				},
				{
					"inputs": [
						{
							"internalType": "address",
							"name": "user",
							"type": "address"
						},
						{
							"internalType": "uint256",
							"name": "amount",
							"type": "uint256"
						}
					],
					"name": "globalbalancesub",
					"outputs": [],
					"stateMutability": "nonpayable",
					"type": "function"
				},
				{
					"inputs": [
						{
							"internalType": "address",
							"name": "user",
							"type": "address"
						},
						{
							"internalType": "uint256",
							"name": "amount",
							"type": "uint256"
						}
					],
					"name": "globalsharesadd",
					"outputs": [],
					"stateMutability": "nonpayable",
					"type": "function"
				},
				{
					"inputs": [
						{
							"internalType": "address",
							"name": "user",
							"type": "address"
						},
						{
							"internalType": "uint256",
							"name": "amount",
							"type": "uint256"
						}
					],
					"name": "globalsharessub",
					"outputs": [],
					"stateMutability": "nonpayable",
					"type": "function"
				},
				{
					"inputs": [
						{
							"internalType": "uint256",
							"name": "amount",
							"type": "uint256"
						}
					],
					"name": "globaltotaldepositadd",
					"outputs": [],
					"stateMutability": "nonpayable",
					"type": "function"
				},
				{
					"inputs": [
						{
							"internalType": "uint256",
							"name": "amount",
							"type": "uint256"
						}
					],
					"name": "globaltotaldepositsub",
					"outputs": [],
					"stateMutability": "nonpayable",
					"type": "function"
				},
				{
					"inputs": [
						{
							"internalType": "address",
							"name": "src",
							"type": "address"
						},
						{
							"internalType": "bytes4",
							"name": "sig",
							"type": "bytes4"
						}
					],
					"name": "isAuthorized",
					"outputs": [
						{
							"internalType": "bool",
							"name": "",
							"type": "bool"
						}
					],
					"stateMutability": "view",
					"type": "function"
				},
				{
					"inputs": [],
					"name": "owner",
					"outputs": [
						{
							"internalType": "address",
							"name": "",
							"type": "address"
						}
					],
					"stateMutability": "view",
					"type": "function"
				},
				{
					"inputs": [
						{
							"internalType": "contract DSAuthority",
							"name": "authority_",
							"type": "address"
						}
					],
					"name": "setAuthority",
					"outputs": [],
					"stateMutability": "nonpayable",
					"type": "function"
				},
				{
					"inputs": [
						{
							"internalType": "address",
							"name": "owner_",
							"type": "address"
						}
					],
					"name": "setOwner",
					"outputs": [],
					"stateMutability": "nonpayable",
					"type": "function"
				},
				{
					"inputs": [
						{
							"internalType": "address",
							"name": "user",
							"type": "address"
						}
					],
					"name": "shares",
					"outputs": [
						{
							"internalType": "uint256",
							"name": "",
							"type": "uint256"
						}
					],
					"stateMutability": "view",
					"type": "function"
				},
				{
					"inputs": [],
					"name": "totaldeposits",
					"outputs": [
						{
							"internalType": "uint256",
							"name": "",
							"type": "uint256"
						}
					],
					"stateMutability": "view",
					"type": "function"
				}
			],
			"devdoc": {
				"kind": "dev",
				"methods": {},
				"version": 1
			},
			"evm": {
				"assembly": "    /* \"Crypto-side-main/global.sol\":143:1958  contract Globals is DSAuth {... */\n  mstore(0x40, 0x80)\n  callvalue\n  dup1\n  iszero\n  tag_1\n  jumpi\n  0x00\n  dup1\n  revert\ntag_1:\n  pop\n    /* \"Crypto-side-main/ds-auth.sol\":1104:1109  owner */\n  0x01\n    /* \"Crypto-side-main/ds-auth.sol\":1104:1122  owner = msg.sender */\n  dup1\n  sload\n  not(sub(shl(0xa0, 0x01), 0x01))\n  and\n    /* \"Crypto-side-main/ds-auth.sol\":1112:1122  msg.sender */\n  caller\n    /* \"Crypto-side-main/ds-auth.sol\":1104:1122  owner = msg.sender */\n  swap1\n  dup2\n  or\n  swap1\n  swap2\n  sstore\n    /* \"Crypto-side-main/ds-auth.sol\":1137:1160  LogSetOwner(msg.sender) */\n  mload(0x40)\n  0xce241d7ca1f669fee44b6fc00b8eba2df3bb514eed0f6f668f8f89096e81ed94\n  swap1\n    /* \"Crypto-side-main/ds-auth.sol\":1104:1109  owner */\n  0x00\n  swap1\n    /* \"Crypto-side-main/ds-auth.sol\":1137:1160  LogSetOwner(msg.sender) */\n  log2\n    /* \"Crypto-side-main/global.sol\":143:1958  contract Globals is DSAuth {... */\n  dataSize(sub_0)\n  dup1\n  dataOffset(sub_0)\n  0x00\n  codecopy\n  0x00\n  return\nstop\n\nsub_0: assembly {\n        /* \"Crypto-side-main/global.sol\":143:1958  contract Globals is DSAuth {... */\n      mstore(0x40, 0x80)\n      callvalue\n      dup1\n      iszero\n      tag_1\n      jumpi\n      0x00\n      dup1\n      revert\n    tag_1:\n      pop\n      jumpi(tag_2, lt(calldatasize, 0x04))\n      shr(0xe0, calldataload(0x00))\n      dup1\n      0xae3eb304\n      gt\n      tag_20\n      jumpi\n      dup1\n      0xd574b4c9\n      gt\n      tag_21\n      jumpi\n      dup1\n      0xd574b4c9\n      eq\n      tag_15\n      jumpi\n      dup1\n      0xd9972b96\n      eq\n      tag_16\n      jumpi\n      dup1\n      0xe3d670d7\n      eq\n      tag_17\n      jumpi\n      dup1\n      0xe6178107\n      eq\n      tag_18\n      jumpi\n      dup1\n      0xf7e4f3a5\n      eq\n      tag_19\n      jumpi\n      0x00\n      dup1\n      revert\n    tag_21:\n      dup1\n      0xae3eb304\n      eq\n      tag_11\n      jumpi\n      dup1\n      0xb34c8caf\n      eq\n      tag_12\n      jumpi\n      dup1\n      0xbf7e214f\n      eq\n      tag_13\n      jumpi\n      dup1\n      0xce7c2ac2\n      eq\n      tag_14\n      jumpi\n      0x00\n      dup1\n      revert\n    tag_20:\n      dup1\n      0x6acdbac8\n      gt\n      tag_22\n      jumpi\n      dup1\n      0x6acdbac8\n      eq\n      tag_7\n      jumpi\n      dup1\n      0x6ebcf607\n      eq\n      tag_8\n      jumpi\n      dup1\n      0x7a9e5e4b\n      eq\n      tag_9\n      jumpi\n      dup1\n      0x8da5cb5b\n      eq\n      tag_10\n      jumpi\n      0x00\n      dup1\n      revert\n    tag_22:\n      dup1\n      0x13af4035\n      eq\n      tag_3\n      jumpi\n      dup1\n      0x2c795fbe\n      eq\n      tag_4\n      jumpi\n      dup1\n      0x5e07b869\n      eq\n      tag_5\n      jumpi\n      dup1\n      0x660b1a4d\n      eq\n      tag_6\n      jumpi\n    tag_2:\n      0x00\n      dup1\n      revert\n        /* \"Crypto-side-main/ds-auth.sol\":1173:1303  function setOwner(address owner_)... */\n    tag_3:\n      tag_23\n      tag_24\n      calldatasize\n      0x04\n      tag_25\n      jump\t// in\n    tag_24:\n      tag_26\n      jump\t// in\n    tag_23:\n      stop\n        /* \"Crypto-side-main/global.sol\":603:754  function globalsharesadd(address user, uint256 amount) external auth {... */\n    tag_4:\n      tag_23\n      tag_28\n      calldatasize\n      0x04\n      tag_29\n      jump\t// in\n    tag_28:\n      tag_30\n      jump\t// in\n        /* \"Crypto-side-main/global.sol\":1854:1949  function totaldeposits() external view returns (uint256) {... */\n    tag_5:\n        /* \"Crypto-side-main/global.sol\":1928:1942  _totalDeposits */\n      sload(0x04)\n        /* \"Crypto-side-main/global.sol\":1854:1949  function totaldeposits() external view returns (uint256) {... */\n    tag_31:\n      mload(0x40)\n        /* \"#utility.yul\":868:893   */\n      swap1\n      dup2\n      mstore\n        /* \"#utility.yul\":856:858   */\n      0x20\n        /* \"#utility.yul\":841:859   */\n      add\n        /* \"Crypto-side-main/global.sol\":1854:1949  function totaldeposits() external view returns (uint256) {... */\n    tag_33:\n      mload(0x40)\n      dup1\n      swap2\n      sub\n      swap1\n      return\n        /* \"Crypto-side-main/global.sol\":1549:1694  function globaltotaldepositadd(uint256 amount) external auth {... */\n    tag_6:\n      tag_23\n      tag_36\n      calldatasize\n      0x04\n      tag_37\n      jump\t// in\n    tag_36:\n      tag_38\n      jump\t// in\n        /* \"Crypto-side-main/global.sol\":1703:1848  function globaltotaldepositsub(uint256 amount) external auth {... */\n    tag_7:\n      tag_23\n      tag_40\n      calldatasize\n      0x04\n      tag_37\n      jump\t// in\n    tag_40:\n      tag_41\n      jump\t// in\n        /* \"Crypto-side-main/global.sol\":284:328  mapping(address => uint256) public _balances */\n    tag_8:\n      tag_31\n      tag_43\n      calldatasize\n      0x04\n      tag_25\n      jump\t// in\n    tag_43:\n      mstore(0x20, 0x03)\n      0x00\n      swap1\n      dup2\n      mstore\n      0x40\n      swap1\n      keccak256\n      sload\n      dup2\n      jump\n        /* \"Crypto-side-main/ds-auth.sol\":1309:1476  function setAuthority(DSAuthority authority_)... */\n    tag_9:\n      tag_23\n      tag_47\n      calldatasize\n      0x04\n      tag_25\n      jump\t// in\n    tag_47:\n      tag_49\n      jump\t// in\n        /* \"Crypto-side-main/ds-auth.sol\":1040:1066  address      public  owner */\n    tag_10:\n      sload(0x01)\n      tag_50\n      swap1\n      sub(shl(0xa0, 0x01), 0x01)\n      and\n      dup2\n      jump\n    tag_50:\n      mload(0x40)\n      sub(shl(0xa0, 0x01), 0x01)\n        /* \"#utility.yul\":1524:1556   */\n      swap1\n      swap2\n      and\n        /* \"#utility.yul\":1506:1557   */\n      dup2\n      mstore\n        /* \"#utility.yul\":1494:1496   */\n      0x20\n        /* \"#utility.yul\":1479:1497   */\n      add\n        /* \"Crypto-side-main/ds-auth.sol\":1040:1066  address      public  owner */\n      tag_33\n        /* \"#utility.yul\":1360:1563   */\n      jump\n        /* \"Crypto-side-main/global.sol\":334:363  uint256 public _totalDeposits */\n    tag_11:\n      tag_31\n      sload(0x04)\n      dup2\n      jump\n        /* \"Crypto-side-main/global.sol\":236:278  mapping(address => uint256) public _shares */\n    tag_12:\n      tag_31\n      tag_58\n      calldatasize\n      0x04\n      tag_25\n      jump\t// in\n    tag_58:\n      mstore(0x20, 0x02)\n      0x00\n      swap1\n      dup2\n      mstore\n      0x40\n      swap1\n      keccak256\n      sload\n      dup2\n      jump\n        /* \"Crypto-side-main/ds-auth.sol\":1004:1034  DSAuthority  public  authority */\n    tag_13:\n      sload(0x00)\n      tag_50\n      swap1\n      sub(shl(0xa0, 0x01), 0x01)\n      and\n      dup2\n      jump\n        /* \"Crypto-side-main/global.sol\":918:1017  function shares(address user) external view returns (uint256) {... */\n    tag_14:\n      tag_31\n      tag_66\n      calldatasize\n      0x04\n      tag_25\n      jump\t// in\n    tag_66:\n      sub(shl(0xa0, 0x01), 0x01)\n        /* \"Crypto-side-main/global.sol\":997:1010  _shares[user] */\n      and\n        /* \"Crypto-side-main/global.sol\":971:978  uint256 */\n      0x00\n        /* \"Crypto-side-main/global.sol\":997:1010  _shares[user] */\n      swap1\n      dup2\n      mstore\n        /* \"Crypto-side-main/global.sol\":997:1004  _shares */\n      0x02\n        /* \"Crypto-side-main/global.sol\":997:1010  _shares[user] */\n      0x20\n      mstore\n      0x40\n      swap1\n      keccak256\n      sload\n      swap1\n        /* \"Crypto-side-main/global.sol\":918:1017  function shares(address user) external view returns (uint256) {... */\n      jump\n        /* \"Crypto-side-main/global.sol\":1229:1385  function globalbalancesub(address user, uint256 amount) external auth {... */\n    tag_15:\n      tag_23\n      tag_70\n      calldatasize\n      0x04\n      tag_29\n      jump\t// in\n    tag_70:\n      tag_71\n      jump\t// in\n        /* \"Crypto-side-main/ds-auth.sol\":1596:1973  function isAuthorized(address src, bytes4 sig) public view returns (bool) {... */\n    tag_16:\n      tag_72\n      tag_73\n      calldatasize\n      0x04\n      tag_74\n      jump\t// in\n    tag_73:\n      tag_75\n      jump\t// in\n    tag_72:\n      mload(0x40)\n        /* \"#utility.yul\":2394:2408   */\n      swap1\n      iszero\n        /* \"#utility.yul\":2387:2409   */\n      iszero\n        /* \"#utility.yul\":2369:2410   */\n      dup2\n      mstore\n        /* \"#utility.yul\":2357:2359   */\n      0x20\n        /* \"#utility.yul\":2342:2360   */\n      add\n        /* \"Crypto-side-main/ds-auth.sol\":1596:1973  function isAuthorized(address src, bytes4 sig) public view returns (bool) {... */\n      tag_33\n        /* \"#utility.yul\":2229:2416   */\n      jump\n        /* \"Crypto-side-main/global.sol\":1391:1493  function balance(address user) external view returns (uint256) {... */\n    tag_17:\n      tag_31\n      tag_79\n      calldatasize\n      0x04\n      tag_25\n      jump\t// in\n    tag_79:\n      sub(shl(0xa0, 0x01), 0x01)\n        /* \"Crypto-side-main/global.sol\":1471:1486  _balances[user] */\n      and\n        /* \"Crypto-side-main/global.sol\":1445:1452  uint256 */\n      0x00\n        /* \"Crypto-side-main/global.sol\":1471:1486  _balances[user] */\n      swap1\n      dup2\n      mstore\n        /* \"Crypto-side-main/global.sol\":1471:1480  _balances */\n      0x03\n        /* \"Crypto-side-main/global.sol\":1471:1486  _balances[user] */\n      0x20\n      mstore\n      0x40\n      swap1\n      keccak256\n      sload\n      swap1\n        /* \"Crypto-side-main/global.sol\":1391:1493  function balance(address user) external view returns (uint256) {... */\n      jump\n        /* \"Crypto-side-main/global.sol\":761:912  function globalsharessub(address user, uint256 amount) external auth {... */\n    tag_18:\n      tag_23\n      tag_83\n      calldatasize\n      0x04\n      tag_29\n      jump\t// in\n    tag_83:\n      tag_84\n      jump\t// in\n        /* \"Crypto-side-main/global.sol\":1067:1223  function globalbalanceadd(address user, uint256 amount) external auth {... */\n    tag_19:\n      tag_23\n      tag_86\n      calldatasize\n      0x04\n      tag_29\n      jump\t// in\n    tag_86:\n      tag_87\n      jump\t// in\n        /* \"Crypto-side-main/ds-auth.sol\":1173:1303  function setOwner(address owner_)... */\n    tag_26:\n        /* \"Crypto-side-main/ds-auth.sol\":1514:1547  isAuthorized(msg.sender, msg.sig) */\n      tag_89\n        /* \"Crypto-side-main/ds-auth.sol\":1527:1537  msg.sender */\n      caller\n        /* \"Crypto-side-main/ds-auth.sol\":1539:1546  msg.sig */\n      and(not(sub(shl(0xe0, 0x01), 0x01)), calldataload(0x00))\n        /* \"Crypto-side-main/ds-auth.sol\":1514:1526  isAuthorized */\n      tag_75\n        /* \"Crypto-side-main/ds-auth.sol\":1514:1547  isAuthorized(msg.sender, msg.sig) */\n      jump\t// in\n    tag_89:\n        /* \"Crypto-side-main/ds-auth.sol\":1506:1572  require(isAuthorized(msg.sender, msg.sig), \"ds-auth-unauthorized\") */\n      tag_90\n      jumpi\n      mload(0x40)\n      shl(0xe5, 0x461bcd)\n      dup2\n      mstore\n      0x04\n      add\n      tag_91\n      swap1\n      tag_92\n      jump\t// in\n    tag_91:\n      mload(0x40)\n      dup1\n      swap2\n      sub\n      swap1\n      revert\n    tag_90:\n        /* \"Crypto-side-main/ds-auth.sol\":1249:1254  owner */\n      0x01\n        /* \"Crypto-side-main/ds-auth.sol\":1249:1263  owner = owner_ */\n      dup1\n      sload\n      not(sub(shl(0xa0, 0x01), 0x01))\n      and\n      sub(shl(0xa0, 0x01), 0x01)\n      dup4\n      and\n      swap1\n      dup2\n      or\n      swap1\n      swap2\n      sstore\n        /* \"Crypto-side-main/ds-auth.sol\":1278:1296  LogSetOwner(owner) */\n      mload(0x40)\n      0xce241d7ca1f669fee44b6fc00b8eba2df3bb514eed0f6f668f8f89096e81ed94\n      swap1\n      0x00\n      swap1\n      log2\n        /* \"Crypto-side-main/ds-auth.sol\":1173:1303  function setOwner(address owner_)... */\n      pop\n      jump\t// out\n        /* \"Crypto-side-main/global.sol\":603:754  function globalsharesadd(address user, uint256 amount) external auth {... */\n    tag_30:\n        /* \"Crypto-side-main/ds-auth.sol\":1514:1547  isAuthorized(msg.sender, msg.sig) */\n      tag_95\n        /* \"Crypto-side-main/ds-auth.sol\":1527:1537  msg.sender */\n      caller\n        /* \"Crypto-side-main/ds-auth.sol\":1539:1546  msg.sig */\n      and(not(sub(shl(0xe0, 0x01), 0x01)), calldataload(0x00))\n        /* \"Crypto-side-main/ds-auth.sol\":1514:1526  isAuthorized */\n      tag_75\n        /* \"Crypto-side-main/ds-auth.sol\":1514:1547  isAuthorized(msg.sender, msg.sig) */\n      jump\t// in\n    tag_95:\n        /* \"Crypto-side-main/ds-auth.sol\":1506:1572  require(isAuthorized(msg.sender, msg.sig), \"ds-auth-unauthorized\") */\n      tag_96\n      jumpi\n      mload(0x40)\n      shl(0xe5, 0x461bcd)\n      dup2\n      mstore\n      0x04\n      add\n      tag_91\n      swap1\n      tag_92\n      jump\t// in\n    tag_96:\n      sub(shl(0xa0, 0x01), 0x01)\n        /* \"Crypto-side-main/global.sol\":682:695  _shares[user] */\n      dup3\n      and\n      0x00\n      swap1\n      dup2\n      mstore\n        /* \"Crypto-side-main/global.sol\":682:689  _shares */\n      0x02\n        /* \"Crypto-side-main/global.sol\":682:695  _shares[user] */\n      0x20\n      mstore\n      0x40\n      dup2\n      keccak256\n        /* \"Crypto-side-main/global.sol\":682:705  _shares[user] += amount */\n      dup1\n      sload\n        /* \"Crypto-side-main/global.sol\":699:705  amount */\n      dup4\n      swap3\n        /* \"Crypto-side-main/global.sol\":682:695  _shares[user] */\n      swap1\n        /* \"Crypto-side-main/global.sol\":682:705  _shares[user] += amount */\n      tag_99\n      swap1\n        /* \"Crypto-side-main/global.sol\":699:705  amount */\n      dup5\n      swap1\n        /* \"Crypto-side-main/global.sol\":682:705  _shares[user] += amount */\n      tag_100\n      jump\t// in\n    tag_99:\n      swap1\n      swap2\n      sstore\n      pop\n      pop\n        /* \"Crypto-side-main/global.sol\":720:747  SharesUpdated(user, amount) */\n      mload(0x40)\n        /* \"#utility.yul\":868:893   */\n      dup2\n      dup2\n      mstore\n      sub(shl(0xa0, 0x01), 0x01)\n        /* \"Crypto-side-main/global.sol\":720:747  SharesUpdated(user, amount) */\n      dup4\n      and\n      swap1\n      0xe6382c9ed5c0c33bb05042f73cf6cbe9cb25639f9a711e094ee563bc9cb80e2c\n      swap1\n        /* \"#utility.yul\":856:858   */\n      0x20\n        /* \"#utility.yul\":841:859   */\n      add\n        /* \"Crypto-side-main/global.sol\":720:747  SharesUpdated(user, amount) */\n    tag_101:\n      mload(0x40)\n      dup1\n      swap2\n      sub\n      swap1\n      log2\n        /* \"Crypto-side-main/global.sol\":603:754  function globalsharesadd(address user, uint256 amount) external auth {... */\n      pop\n      pop\n      jump\t// out\n        /* \"Crypto-side-main/global.sol\":1549:1694  function globaltotaldepositadd(uint256 amount) external auth {... */\n    tag_38:\n        /* \"Crypto-side-main/ds-auth.sol\":1514:1547  isAuthorized(msg.sender, msg.sig) */\n      tag_104\n        /* \"Crypto-side-main/ds-auth.sol\":1527:1537  msg.sender */\n      caller\n        /* \"Crypto-side-main/ds-auth.sol\":1539:1546  msg.sig */\n      and(not(sub(shl(0xe0, 0x01), 0x01)), calldataload(0x00))\n        /* \"Crypto-side-main/ds-auth.sol\":1514:1526  isAuthorized */\n      tag_75\n        /* \"Crypto-side-main/ds-auth.sol\":1514:1547  isAuthorized(msg.sender, msg.sig) */\n      jump\t// in\n    tag_104:\n        /* \"Crypto-side-main/ds-auth.sol\":1506:1572  require(isAuthorized(msg.sender, msg.sig), \"ds-auth-unauthorized\") */\n      tag_105\n      jumpi\n      mload(0x40)\n      shl(0xe5, 0x461bcd)\n      dup2\n      mstore\n      0x04\n      add\n      tag_91\n      swap1\n      tag_92\n      jump\t// in\n    tag_105:\n        /* \"Crypto-side-main/global.sol\":1638:1644  amount */\n      dup1\n        /* \"Crypto-side-main/global.sol\":1620:1634  _totalDeposits */\n      0x04\n      0x00\n        /* \"Crypto-side-main/global.sol\":1620:1644  _totalDeposits += amount */\n      dup3\n      dup3\n      sload\n      tag_108\n      swap2\n      swap1\n      tag_100\n      jump\t// in\n    tag_108:\n      swap1\n      swap2\n      sstore\n      pop\n      pop\n        /* \"Crypto-side-main/global.sol\":1659:1687  TotalDepositsUpdated(amount) */\n      mload(0x40)\n        /* \"#utility.yul\":868:893   */\n      dup2\n      dup2\n      mstore\n        /* \"Crypto-side-main/global.sol\":1659:1687  TotalDepositsUpdated(amount) */\n      0x8f8beec7c09513a4066b76964ff338179905ff1a3cc184dbabe9620b02440b98\n      swap1\n        /* \"#utility.yul\":856:858   */\n      0x20\n        /* \"#utility.yul\":841:859   */\n      add\n        /* \"Crypto-side-main/global.sol\":1659:1687  TotalDepositsUpdated(amount) */\n      mload(0x40)\n      dup1\n      swap2\n      sub\n      swap1\n      log1\n        /* \"Crypto-side-main/global.sol\":1549:1694  function globaltotaldepositadd(uint256 amount) external auth {... */\n      pop\n      jump\t// out\n        /* \"Crypto-side-main/global.sol\":1703:1848  function globaltotaldepositsub(uint256 amount) external auth {... */\n    tag_41:\n        /* \"Crypto-side-main/ds-auth.sol\":1514:1547  isAuthorized(msg.sender, msg.sig) */\n      tag_111\n        /* \"Crypto-side-main/ds-auth.sol\":1527:1537  msg.sender */\n      caller\n        /* \"Crypto-side-main/ds-auth.sol\":1539:1546  msg.sig */\n      and(not(sub(shl(0xe0, 0x01), 0x01)), calldataload(0x00))\n        /* \"Crypto-side-main/ds-auth.sol\":1514:1526  isAuthorized */\n      tag_75\n        /* \"Crypto-side-main/ds-auth.sol\":1514:1547  isAuthorized(msg.sender, msg.sig) */\n      jump\t// in\n    tag_111:\n        /* \"Crypto-side-main/ds-auth.sol\":1506:1572  require(isAuthorized(msg.sender, msg.sig), \"ds-auth-unauthorized\") */\n      tag_112\n      jumpi\n      mload(0x40)\n      shl(0xe5, 0x461bcd)\n      dup2\n      mstore\n      0x04\n      add\n      tag_91\n      swap1\n      tag_92\n      jump\t// in\n    tag_112:\n        /* \"Crypto-side-main/global.sol\":1792:1798  amount */\n      dup1\n        /* \"Crypto-side-main/global.sol\":1774:1788  _totalDeposits */\n      0x04\n      0x00\n        /* \"Crypto-side-main/global.sol\":1774:1798  _totalDeposits -= amount */\n      dup3\n      dup3\n      sload\n      tag_108\n      swap2\n      swap1\n      tag_116\n      jump\t// in\n        /* \"Crypto-side-main/ds-auth.sol\":1309:1476  function setAuthority(DSAuthority authority_)... */\n    tag_49:\n        /* \"Crypto-side-main/ds-auth.sol\":1514:1547  isAuthorized(msg.sender, msg.sig) */\n      tag_119\n        /* \"Crypto-side-main/ds-auth.sol\":1527:1537  msg.sender */\n      caller\n        /* \"Crypto-side-main/ds-auth.sol\":1539:1546  msg.sig */\n      and(not(sub(shl(0xe0, 0x01), 0x01)), calldataload(0x00))\n        /* \"Crypto-side-main/ds-auth.sol\":1514:1526  isAuthorized */\n      tag_75\n        /* \"Crypto-side-main/ds-auth.sol\":1514:1547  isAuthorized(msg.sender, msg.sig) */\n      jump\t// in\n    tag_119:\n        /* \"Crypto-side-main/ds-auth.sol\":1506:1572  require(isAuthorized(msg.sender, msg.sig), \"ds-auth-unauthorized\") */\n      tag_120\n      jumpi\n      mload(0x40)\n      shl(0xe5, 0x461bcd)\n      dup2\n      mstore\n      0x04\n      add\n      tag_91\n      swap1\n      tag_92\n      jump\t// in\n    tag_120:\n        /* \"Crypto-side-main/ds-auth.sol\":1397:1406  authority */\n      0x00\n        /* \"Crypto-side-main/ds-auth.sol\":1397:1419  authority = authority_ */\n      dup1\n      sload\n      not(sub(shl(0xa0, 0x01), 0x01))\n      and\n      sub(shl(0xa0, 0x01), 0x01)\n      dup4\n      and\n      swap1\n      dup2\n      or\n      dup3\n      sstore\n        /* \"Crypto-side-main/ds-auth.sol\":1434:1469  LogSetAuthority(address(authority)) */\n      mload(0x40)\n        /* \"Crypto-side-main/ds-auth.sol\":1397:1419  authority = authority_ */\n      swap1\n      swap2\n        /* \"Crypto-side-main/ds-auth.sol\":1434:1469  LogSetAuthority(address(authority)) */\n      0x1abebea81bfa2637f28358c371278fb15ede7ea8dd28d2e03b112ff6d936ada4\n      swap2\n      log2\n        /* \"Crypto-side-main/ds-auth.sol\":1309:1476  function setAuthority(DSAuthority authority_)... */\n      pop\n      jump\t// out\n        /* \"Crypto-side-main/global.sol\":1229:1385  function globalbalancesub(address user, uint256 amount) external auth {... */\n    tag_71:\n        /* \"Crypto-side-main/ds-auth.sol\":1514:1547  isAuthorized(msg.sender, msg.sig) */\n      tag_125\n        /* \"Crypto-side-main/ds-auth.sol\":1527:1537  msg.sender */\n      caller\n        /* \"Crypto-side-main/ds-auth.sol\":1539:1546  msg.sig */\n      and(not(sub(shl(0xe0, 0x01), 0x01)), calldataload(0x00))\n        /* \"Crypto-side-main/ds-auth.sol\":1514:1526  isAuthorized */\n      tag_75\n        /* \"Crypto-side-main/ds-auth.sol\":1514:1547  isAuthorized(msg.sender, msg.sig) */\n      jump\t// in\n    tag_125:\n        /* \"Crypto-side-main/ds-auth.sol\":1506:1572  require(isAuthorized(msg.sender, msg.sig), \"ds-auth-unauthorized\") */\n      tag_126\n      jumpi\n      mload(0x40)\n      shl(0xe5, 0x461bcd)\n      dup2\n      mstore\n      0x04\n      add\n      tag_91\n      swap1\n      tag_92\n      jump\t// in\n    tag_126:\n      sub(shl(0xa0, 0x01), 0x01)\n        /* \"Crypto-side-main/global.sol\":1309:1324  _balances[user] */\n      dup3\n      and\n      0x00\n      swap1\n      dup2\n      mstore\n        /* \"Crypto-side-main/global.sol\":1309:1318  _balances */\n      0x03\n        /* \"Crypto-side-main/global.sol\":1309:1324  _balances[user] */\n      0x20\n      mstore\n      0x40\n      dup2\n      keccak256\n        /* \"Crypto-side-main/global.sol\":1309:1334  _balances[user] -= amount */\n      dup1\n      sload\n        /* \"Crypto-side-main/global.sol\":1328:1334  amount */\n      dup4\n      swap3\n        /* \"Crypto-side-main/global.sol\":1309:1324  _balances[user] */\n      swap1\n        /* \"Crypto-side-main/global.sol\":1309:1334  _balances[user] -= amount */\n      tag_129\n      swap1\n        /* \"Crypto-side-main/global.sol\":1328:1334  amount */\n      dup5\n      swap1\n        /* \"Crypto-side-main/global.sol\":1309:1334  _balances[user] -= amount */\n      tag_116\n      jump\t// in\n    tag_129:\n      swap1\n      swap2\n      sstore\n      pop\n      pop\n        /* \"Crypto-side-main/global.sol\":1349:1378  BalancesUpdated(user, amount) */\n      mload(0x40)\n        /* \"#utility.yul\":868:893   */\n      dup2\n      dup2\n      mstore\n      sub(shl(0xa0, 0x01), 0x01)\n        /* \"Crypto-side-main/global.sol\":1349:1378  BalancesUpdated(user, amount) */\n      dup4\n      and\n      swap1\n      0xe895b14dadff94ae19d7bf2c3b60ae7cb147933b709f768b9d76ae16b545e835\n      swap1\n        /* \"#utility.yul\":856:858   */\n      0x20\n        /* \"#utility.yul\":841:859   */\n      add\n        /* \"Crypto-side-main/global.sol\":1349:1378  BalancesUpdated(user, amount) */\n      tag_101\n        /* \"#utility.yul\":722:899   */\n      jump\n        /* \"Crypto-side-main/ds-auth.sol\":1596:1973  function isAuthorized(address src, bytes4 sig) public view returns (bool) {... */\n    tag_75:\n        /* \"Crypto-side-main/ds-auth.sol\":1664:1668  bool */\n      0x00\n        /* \"Crypto-side-main/ds-auth.sol\":1699:1703  this */\n      address\n      sub(shl(0xa0, 0x01), 0x01)\n        /* \"Crypto-side-main/ds-auth.sol\":1684:1704  src == address(this) */\n      dup5\n      and\n      sub\n        /* \"Crypto-side-main/ds-auth.sol\":1680:1967  if (src == address(this)) {... */\n      tag_132\n      jumpi\n      pop\n        /* \"Crypto-side-main/ds-auth.sol\":1727:1731  true */\n      0x01\n        /* \"Crypto-side-main/ds-auth.sol\":1720:1731  return true */\n      jump(tag_137)\n        /* \"Crypto-side-main/ds-auth.sol\":1680:1967  if (src == address(this)) {... */\n    tag_132:\n        /* \"Crypto-side-main/ds-auth.sol\":1759:1764  owner */\n      sload(0x01)\n      sub(shl(0xa0, 0x01), 0x01)\n      swap1\n      dup2\n      and\n        /* \"Crypto-side-main/ds-auth.sol\":1752:1764  src == owner */\n      swap1\n      dup5\n      and\n      sub\n        /* \"Crypto-side-main/ds-auth.sol\":1748:1967  if (src == owner) {... */\n      tag_134\n      jumpi\n      pop\n        /* \"Crypto-side-main/ds-auth.sol\":1787:1791  true */\n      0x01\n        /* \"Crypto-side-main/ds-auth.sol\":1780:1791  return true */\n      jump(tag_137)\n        /* \"Crypto-side-main/ds-auth.sol\":1748:1967  if (src == owner) {... */\n    tag_134:\n        /* \"Crypto-side-main/ds-auth.sol\":1845:1846  0 */\n      0x00\n        /* \"Crypto-side-main/ds-auth.sol\":1812:1821  authority */\n      sload\n      sub(shl(0xa0, 0x01), 0x01)\n      and\n        /* \"Crypto-side-main/ds-auth.sol\":1808:1967  if (authority == DSAuthority(address(0))) {... */\n      tag_136\n      jumpi\n      pop\n        /* \"Crypto-side-main/ds-auth.sol\":1871:1876  false */\n      0x00\n        /* \"Crypto-side-main/ds-auth.sol\":1864:1876  return false */\n      jump(tag_137)\n        /* \"Crypto-side-main/ds-auth.sol\":1808:1967  if (authority == DSAuthority(address(0))) {... */\n    tag_136:\n        /* \"Crypto-side-main/ds-auth.sol\":1914:1923  authority */\n      sload(0x00)\n        /* \"Crypto-side-main/ds-auth.sol\":1914:1956  authority.canCall(src, address(this), sig) */\n      mload(0x40)\n      shl(0xe0, 0xb7009613)\n      dup2\n      mstore\n      sub(shl(0xa0, 0x01), 0x01)\n        /* \"#utility.yul\":3421:3436   */\n      dup6\n      dup2\n      and\n        /* \"Crypto-side-main/ds-auth.sol\":1914:1956  authority.canCall(src, address(this), sig) */\n      0x04\n      dup4\n      add\n        /* \"#utility.yul\":3403:3437   */\n      mstore\n        /* \"Crypto-side-main/ds-auth.sol\":1945:1949  this */\n      address\n        /* \"#utility.yul\":3453:3471   */\n      0x24\n      dup4\n      add\n        /* \"#utility.yul\":3446:3489   */\n      mstore\n      not(sub(shl(0xe0, 0x01), 0x01))\n        /* \"#utility.yul\":3525:3558   */\n      dup6\n      and\n        /* \"#utility.yul\":3505:3523   */\n      0x44\n      dup4\n      add\n        /* \"#utility.yul\":3498:3559   */\n      mstore\n        /* \"Crypto-side-main/ds-auth.sol\":1914:1923  authority */\n      swap1\n      swap2\n      and\n      swap1\n        /* \"Crypto-side-main/ds-auth.sol\":1914:1931  authority.canCall */\n      0xb7009613\n      swap1\n        /* \"#utility.yul\":3338:3356   */\n      0x64\n      add\n        /* \"Crypto-side-main/ds-auth.sol\":1914:1956  authority.canCall(src, address(this), sig) */\n      0x20\n      mload(0x40)\n      dup1\n      dup4\n      sub\n      dup2\n      dup7\n      gas\n      staticcall\n      iszero\n      dup1\n      iszero\n      tag_141\n      jumpi\n      returndatasize\n      0x00\n      dup1\n      returndatacopy\n      revert(0x00, returndatasize)\n    tag_141:\n      pop\n      pop\n      pop\n      pop\n      mload(0x40)\n      returndatasize\n      not(0x1f)\n      0x1f\n      dup3\n      add\n      and\n      dup3\n      add\n      dup1\n      0x40\n      mstore\n      pop\n      dup2\n      add\n      swap1\n      tag_142\n      swap2\n      swap1\n      tag_143\n      jump\t// in\n    tag_142:\n        /* \"Crypto-side-main/ds-auth.sol\":1907:1956  return authority.canCall(src, address(this), sig) */\n      swap1\n      pop\n        /* \"Crypto-side-main/ds-auth.sol\":1808:1967  if (authority == DSAuthority(address(0))) {... */\n    tag_137:\n        /* \"Crypto-side-main/ds-auth.sol\":1596:1973  function isAuthorized(address src, bytes4 sig) public view returns (bool) {... */\n      swap3\n      swap2\n      pop\n      pop\n      jump\t// out\n        /* \"Crypto-side-main/global.sol\":761:912  function globalsharessub(address user, uint256 amount) external auth {... */\n    tag_84:\n        /* \"Crypto-side-main/ds-auth.sol\":1514:1547  isAuthorized(msg.sender, msg.sig) */\n      tag_146\n        /* \"Crypto-side-main/ds-auth.sol\":1527:1537  msg.sender */\n      caller\n        /* \"Crypto-side-main/ds-auth.sol\":1539:1546  msg.sig */\n      and(not(sub(shl(0xe0, 0x01), 0x01)), calldataload(0x00))\n        /* \"Crypto-side-main/ds-auth.sol\":1514:1526  isAuthorized */\n      tag_75\n        /* \"Crypto-side-main/ds-auth.sol\":1514:1547  isAuthorized(msg.sender, msg.sig) */\n      jump\t// in\n    tag_146:\n        /* \"Crypto-side-main/ds-auth.sol\":1506:1572  require(isAuthorized(msg.sender, msg.sig), \"ds-auth-unauthorized\") */\n      tag_147\n      jumpi\n      mload(0x40)\n      shl(0xe5, 0x461bcd)\n      dup2\n      mstore\n      0x04\n      add\n      tag_91\n      swap1\n      tag_92\n      jump\t// in\n    tag_147:\n      sub(shl(0xa0, 0x01), 0x01)\n        /* \"Crypto-side-main/global.sol\":840:853  _shares[user] */\n      dup3\n      and\n      0x00\n      swap1\n      dup2\n      mstore\n        /* \"Crypto-side-main/global.sol\":840:847  _shares */\n      0x02\n        /* \"Crypto-side-main/global.sol\":840:853  _shares[user] */\n      0x20\n      mstore\n      0x40\n      dup2\n      keccak256\n        /* \"Crypto-side-main/global.sol\":840:863  _shares[user] -= amount */\n      dup1\n      sload\n        /* \"Crypto-side-main/global.sol\":857:863  amount */\n      dup4\n      swap3\n        /* \"Crypto-side-main/global.sol\":840:853  _shares[user] */\n      swap1\n        /* \"Crypto-side-main/global.sol\":840:863  _shares[user] -= amount */\n      tag_99\n      swap1\n        /* \"Crypto-side-main/global.sol\":857:863  amount */\n      dup5\n      swap1\n        /* \"Crypto-side-main/global.sol\":840:863  _shares[user] -= amount */\n      tag_116\n      jump\t// in\n        /* \"Crypto-side-main/global.sol\":1067:1223  function globalbalanceadd(address user, uint256 amount) external auth {... */\n    tag_87:\n        /* \"Crypto-side-main/ds-auth.sol\":1514:1547  isAuthorized(msg.sender, msg.sig) */\n      tag_153\n        /* \"Crypto-side-main/ds-auth.sol\":1527:1537  msg.sender */\n      caller\n        /* \"Crypto-side-main/ds-auth.sol\":1539:1546  msg.sig */\n      and(not(sub(shl(0xe0, 0x01), 0x01)), calldataload(0x00))\n        /* \"Crypto-side-main/ds-auth.sol\":1514:1526  isAuthorized */\n      tag_75\n        /* \"Crypto-side-main/ds-auth.sol\":1514:1547  isAuthorized(msg.sender, msg.sig) */\n      jump\t// in\n    tag_153:\n        /* \"Crypto-side-main/ds-auth.sol\":1506:1572  require(isAuthorized(msg.sender, msg.sig), \"ds-auth-unauthorized\") */\n      tag_154\n      jumpi\n      mload(0x40)\n      shl(0xe5, 0x461bcd)\n      dup2\n      mstore\n      0x04\n      add\n      tag_91\n      swap1\n      tag_92\n      jump\t// in\n    tag_154:\n      sub(shl(0xa0, 0x01), 0x01)\n        /* \"Crypto-side-main/global.sol\":1147:1162  _balances[user] */\n      dup3\n      and\n      0x00\n      swap1\n      dup2\n      mstore\n        /* \"Crypto-side-main/global.sol\":1147:1156  _balances */\n      0x03\n        /* \"Crypto-side-main/global.sol\":1147:1162  _balances[user] */\n      0x20\n      mstore\n      0x40\n      dup2\n      keccak256\n        /* \"Crypto-side-main/global.sol\":1147:1172  _balances[user] += amount */\n      dup1\n      sload\n        /* \"Crypto-side-main/global.sol\":1166:1172  amount */\n      dup4\n      swap3\n        /* \"Crypto-side-main/global.sol\":1147:1162  _balances[user] */\n      swap1\n        /* \"Crypto-side-main/global.sol\":1147:1172  _balances[user] += amount */\n      tag_129\n      swap1\n        /* \"Crypto-side-main/global.sol\":1166:1172  amount */\n      dup5\n      swap1\n        /* \"Crypto-side-main/global.sol\":1147:1172  _balances[user] += amount */\n      tag_100\n      jump\t// in\n        /* \"#utility.yul\":14:145   */\n    tag_159:\n      sub(shl(0xa0, 0x01), 0x01)\n        /* \"#utility.yul\":89:120   */\n      dup2\n      and\n        /* \"#utility.yul\":79:121   */\n      dup2\n      eq\n        /* \"#utility.yul\":69:139   */\n      tag_163\n      jumpi\n        /* \"#utility.yul\":135:136   */\n      0x00\n        /* \"#utility.yul\":132:133   */\n      dup1\n        /* \"#utility.yul\":125:137   */\n      revert\n        /* \"#utility.yul\":69:139   */\n    tag_163:\n        /* \"#utility.yul\":14:145   */\n      pop\n      jump\t// out\n        /* \"#utility.yul\":150:397   */\n    tag_25:\n        /* \"#utility.yul\":209:215   */\n      0x00\n        /* \"#utility.yul\":262:264   */\n      0x20\n        /* \"#utility.yul\":250:259   */\n      dup3\n        /* \"#utility.yul\":241:248   */\n      dup5\n        /* \"#utility.yul\":237:260   */\n      sub\n        /* \"#utility.yul\":233:265   */\n      slt\n        /* \"#utility.yul\":230:282   */\n      iszero\n      tag_165\n      jumpi\n        /* \"#utility.yul\":278:279   */\n      0x00\n        /* \"#utility.yul\":275:276   */\n      dup1\n        /* \"#utility.yul\":268:280   */\n      revert\n        /* \"#utility.yul\":230:282   */\n    tag_165:\n        /* \"#utility.yul\":317:326   */\n      dup2\n        /* \"#utility.yul\":304:327   */\n      calldataload\n        /* \"#utility.yul\":336:367   */\n      tag_166\n        /* \"#utility.yul\":361:366   */\n      dup2\n        /* \"#utility.yul\":336:367   */\n      tag_159\n      jump\t// in\n    tag_166:\n        /* \"#utility.yul\":386:391   */\n      swap4\n        /* \"#utility.yul\":150:397   */\n      swap3\n      pop\n      pop\n      pop\n      jump\t// out\n        /* \"#utility.yul\":402:717   */\n    tag_29:\n        /* \"#utility.yul\":470:476   */\n      0x00\n        /* \"#utility.yul\":478:484   */\n      dup1\n        /* \"#utility.yul\":531:533   */\n      0x40\n        /* \"#utility.yul\":519:528   */\n      dup4\n        /* \"#utility.yul\":510:517   */\n      dup6\n        /* \"#utility.yul\":506:529   */\n      sub\n        /* \"#utility.yul\":502:534   */\n      slt\n        /* \"#utility.yul\":499:551   */\n      iszero\n      tag_168\n      jumpi\n        /* \"#utility.yul\":547:548   */\n      0x00\n        /* \"#utility.yul\":544:545   */\n      dup1\n        /* \"#utility.yul\":537:549   */\n      revert\n        /* \"#utility.yul\":499:551   */\n    tag_168:\n        /* \"#utility.yul\":586:595   */\n      dup3\n        /* \"#utility.yul\":573:596   */\n      calldataload\n        /* \"#utility.yul\":605:636   */\n      tag_169\n        /* \"#utility.yul\":630:635   */\n      dup2\n        /* \"#utility.yul\":605:636   */\n      tag_159\n      jump\t// in\n    tag_169:\n        /* \"#utility.yul\":655:660   */\n      swap5\n        /* \"#utility.yul\":707:709   */\n      0x20\n        /* \"#utility.yul\":692:710   */\n      swap4\n      swap1\n      swap4\n      add\n        /* \"#utility.yul\":679:711   */\n      calldataload\n      swap4\n      pop\n      pop\n      pop\n        /* \"#utility.yul\":402:717   */\n      jump\t// out\n        /* \"#utility.yul\":904:1084   */\n    tag_37:\n        /* \"#utility.yul\":963:969   */\n      0x00\n        /* \"#utility.yul\":1016:1018   */\n      0x20\n        /* \"#utility.yul\":1004:1013   */\n      dup3\n        /* \"#utility.yul\":995:1002   */\n      dup5\n        /* \"#utility.yul\":991:1014   */\n      sub\n        /* \"#utility.yul\":987:1019   */\n      slt\n        /* \"#utility.yul\":984:1036   */\n      iszero\n      tag_172\n      jumpi\n        /* \"#utility.yul\":1032:1033   */\n      0x00\n        /* \"#utility.yul\":1029:1030   */\n      dup1\n        /* \"#utility.yul\":1022:1034   */\n      revert\n        /* \"#utility.yul\":984:1036   */\n    tag_172:\n      pop\n        /* \"#utility.yul\":1055:1078   */\n      calldataload\n      swap2\n        /* \"#utility.yul\":904:1084   */\n      swap1\n      pop\n      jump\t// out\n        /* \"#utility.yul\":1795:2224   */\n    tag_74:\n        /* \"#utility.yul\":1862:1868   */\n      0x00\n        /* \"#utility.yul\":1870:1876   */\n      dup1\n        /* \"#utility.yul\":1923:1925   */\n      0x40\n        /* \"#utility.yul\":1911:1920   */\n      dup4\n        /* \"#utility.yul\":1902:1909   */\n      dup6\n        /* \"#utility.yul\":1898:1921   */\n      sub\n        /* \"#utility.yul\":1894:1926   */\n      slt\n        /* \"#utility.yul\":1891:1943   */\n      iszero\n      tag_179\n      jumpi\n        /* \"#utility.yul\":1939:1940   */\n      0x00\n        /* \"#utility.yul\":1936:1937   */\n      dup1\n        /* \"#utility.yul\":1929:1941   */\n      revert\n        /* \"#utility.yul\":1891:1943   */\n    tag_179:\n        /* \"#utility.yul\":1978:1987   */\n      dup3\n        /* \"#utility.yul\":1965:1988   */\n      calldataload\n        /* \"#utility.yul\":1997:2028   */\n      tag_180\n        /* \"#utility.yul\":2022:2027   */\n      dup2\n        /* \"#utility.yul\":1997:2028   */\n      tag_159\n      jump\t// in\n    tag_180:\n        /* \"#utility.yul\":2047:2052   */\n      swap2\n      pop\n        /* \"#utility.yul\":2104:2106   */\n      0x20\n        /* \"#utility.yul\":2089:2107   */\n      dup4\n      add\n        /* \"#utility.yul\":2076:2108   */\n      calldataload\n      not(sub(shl(0xe0, 0x01), 0x01))\n        /* \"#utility.yul\":2139:2173   */\n      dup2\n      and\n        /* \"#utility.yul\":2127:2174   */\n      dup2\n      eq\n        /* \"#utility.yul\":2117:2192   */\n      tag_181\n      jumpi\n        /* \"#utility.yul\":2188:2189   */\n      0x00\n        /* \"#utility.yul\":2185:2186   */\n      dup1\n        /* \"#utility.yul\":2178:2190   */\n      revert\n        /* \"#utility.yul\":2117:2192   */\n    tag_181:\n        /* \"#utility.yul\":2211:2218   */\n      dup1\n        /* \"#utility.yul\":2201:2218   */\n      swap2\n      pop\n      pop\n        /* \"#utility.yul\":1795:2224   */\n      swap3\n      pop\n      swap3\n      swap1\n      pop\n      jump\t// out\n        /* \"#utility.yul\":2421:2765   */\n    tag_92:\n        /* \"#utility.yul\":2623:2625   */\n      0x20\n        /* \"#utility.yul\":2605:2626   */\n      dup1\n      dup3\n      mstore\n        /* \"#utility.yul\":2662:2664   */\n      0x14\n        /* \"#utility.yul\":2642:2660   */\n      swap1\n      dup3\n      add\n        /* \"#utility.yul\":2635:2665   */\n      mstore\n      shl(0x62, 0x191ccb585d5d1a0b5d5b985d5d1a1bdc9a5e9959)\n        /* \"#utility.yul\":2696:2698   */\n      0x40\n        /* \"#utility.yul\":2681:2699   */\n      dup3\n      add\n        /* \"#utility.yul\":2674:2724   */\n      mstore\n        /* \"#utility.yul\":2756:2758   */\n      0x60\n        /* \"#utility.yul\":2741:2759   */\n      add\n      swap1\n        /* \"#utility.yul\":2421:2765   */\n      jump\t// out\n        /* \"#utility.yul\":2770:2897   */\n    tag_160:\n        /* \"#utility.yul\":2831:2841   */\n      0x4e487b71\n        /* \"#utility.yul\":2826:2829   */\n      0xe0\n        /* \"#utility.yul\":2822:2842   */\n      shl\n        /* \"#utility.yul\":2819:2820   */\n      0x00\n        /* \"#utility.yul\":2812:2843   */\n      mstore\n        /* \"#utility.yul\":2862:2866   */\n      0x11\n        /* \"#utility.yul\":2859:2860   */\n      0x04\n        /* \"#utility.yul\":2852:2867   */\n      mstore\n        /* \"#utility.yul\":2886:2890   */\n      0x24\n        /* \"#utility.yul\":2883:2884   */\n      0x00\n        /* \"#utility.yul\":2876:2891   */\n      revert\n        /* \"#utility.yul\":2902:3027   */\n    tag_100:\n        /* \"#utility.yul\":2967:2976   */\n      dup1\n      dup3\n      add\n        /* \"#utility.yul\":2988:2998   */\n      dup1\n      dup3\n      gt\n        /* \"#utility.yul\":2985:3021   */\n      iszero\n      tag_137\n      jumpi\n        /* \"#utility.yul\":3001:3019   */\n      tag_137\n      tag_160\n      jump\t// in\n        /* \"#utility.yul\":3032:3160   */\n    tag_116:\n        /* \"#utility.yul\":3099:3108   */\n      dup2\n      dup2\n      sub\n        /* \"#utility.yul\":3120:3131   */\n      dup2\n      dup2\n      gt\n        /* \"#utility.yul\":3117:3154   */\n      iszero\n      tag_137\n      jumpi\n        /* \"#utility.yul\":3134:3152   */\n      tag_137\n      tag_160\n      jump\t// in\n        /* \"#utility.yul\":3570:3847   */\n    tag_143:\n        /* \"#utility.yul\":3637:3643   */\n      0x00\n        /* \"#utility.yul\":3690:3692   */\n      0x20\n        /* \"#utility.yul\":3678:3687   */\n      dup3\n        /* \"#utility.yul\":3669:3676   */\n      dup5\n        /* \"#utility.yul\":3665:3688   */\n      sub\n        /* \"#utility.yul\":3661:3693   */\n      slt\n        /* \"#utility.yul\":3658:3710   */\n      iszero\n      tag_193\n      jumpi\n        /* \"#utility.yul\":3706:3707   */\n      0x00\n        /* \"#utility.yul\":3703:3704   */\n      dup1\n        /* \"#utility.yul\":3696:3708   */\n      revert\n        /* \"#utility.yul\":3658:3710   */\n    tag_193:\n        /* \"#utility.yul\":3738:3747   */\n      dup2\n        /* \"#utility.yul\":3732:3748   */\n      mload\n        /* \"#utility.yul\":3791:3796   */\n      dup1\n        /* \"#utility.yul\":3784:3797   */\n      iszero\n        /* \"#utility.yul\":3777:3798   */\n      iszero\n        /* \"#utility.yul\":3770:3775   */\n      dup2\n        /* \"#utility.yul\":3767:3799   */\n      eq\n        /* \"#utility.yul\":3757:3817   */\n      tag_166\n      jumpi\n        /* \"#utility.yul\":3813:3814   */\n      0x00\n        /* \"#utility.yul\":3810:3811   */\n      dup1\n        /* \"#utility.yul\":3803:3815   */\n      revert\n\n    auxdata: 0xa26469706673582212209f873a06d5628d06caf584d72358aee68a07af77a2763b2b6ab9c0b9b99a07d864736f6c63430008170033\n}\n",
				"bytecode": {
					"linkReferences": {},
					"object": "608060405234801561000f575f80fd5b50600180546001600160a01b031916339081179091556040517fce241d7ca1f669fee44b6fc00b8eba2df3bb514eed0f6f668f8f89096e81ed94905f90a26108a58061005a5f395ff3fe608060405234801561000f575f80fd5b5060043610610106575f3560e01c8063ae3eb3041161009e578063d574b4c91161006e578063d574b4c91461022e578063d9972b9614610241578063e3d670d714610264578063e61781071461028c578063f7e4f3a51461029f575f80fd5b8063ae3eb304146101cc578063b34c8caf146101d5578063bf7e214f146101f4578063ce7c2ac214610206575f80fd5b80636acdbac8116100d95780636acdbac81461015c5780636ebcf6071461016f5780637a9e5e4b1461018e5780638da5cb5b146101a1575f80fd5b806313af40351461010a5780632c795fbe1461011f5780635e07b86914610132578063660b1a4d14610149575b5f80fd5b61011d610118366004610742565b6102b2565b005b61011d61012d366004610764565b610335565b6004545b6040519081526020015b60405180910390f35b61011d61015736600461078e565b6103d5565b61011d61016a36600461078e565b610452565b61013661017d366004610742565b60036020525f908152604090205481565b61011d61019c366004610742565b610494565b6001546101b4906001600160a01b031681565b6040516001600160a01b039091168152602001610140565b61013660045481565b6101366101e3366004610742565b60026020525f908152604090205481565b5f546101b4906001600160a01b031681565b610136610214366004610742565b6001600160a01b03165f9081526002602052604090205490565b61011d61023c366004610764565b61050c565b61025461024f3660046107a5565b6105a4565b6040519015158152602001610140565b610136610272366004610742565b6001600160a01b03165f9081526003602052604090205490565b61011d61029a366004610764565b61067b565b61011d6102ad366004610764565b6106d3565b6102c7335f356001600160e01b0319166105a4565b6102ec5760405162461bcd60e51b81526004016102e3906107e8565b60405180910390fd5b600180546001600160a01b0319166001600160a01b0383169081179091556040517fce241d7ca1f669fee44b6fc00b8eba2df3bb514eed0f6f668f8f89096e81ed94905f90a250565b61034a335f356001600160e01b0319166105a4565b6103665760405162461bcd60e51b81526004016102e3906107e8565b6001600160a01b0382165f908152600260205260408120805483929061038d90849061082a565b90915550506040518181526001600160a01b038316907fe6382c9ed5c0c33bb05042f73cf6cbe9cb25639f9a711e094ee563bc9cb80e2c906020015b60405180910390a25050565b6103ea335f356001600160e01b0319166105a4565b6104065760405162461bcd60e51b81526004016102e3906107e8565b8060045f828254610417919061082a565b90915550506040518181527f8f8beec7c09513a4066b76964ff338179905ff1a3cc184dbabe9620b02440b989060200160405180910390a150565b610467335f356001600160e01b0319166105a4565b6104835760405162461bcd60e51b81526004016102e3906107e8565b8060045f828254610417919061083d565b6104a9335f356001600160e01b0319166105a4565b6104c55760405162461bcd60e51b81526004016102e3906107e8565b5f80546001600160a01b0319166001600160a01b038316908117825560405190917f1abebea81bfa2637f28358c371278fb15ede7ea8dd28d2e03b112ff6d936ada491a250565b610521335f356001600160e01b0319166105a4565b61053d5760405162461bcd60e51b81526004016102e3906107e8565b6001600160a01b0382165f908152600360205260408120805483929061056490849061083d565b90915550506040518181526001600160a01b038316907fe895b14dadff94ae19d7bf2c3b60ae7cb147933b709f768b9d76ae16b545e835906020016103c9565b5f306001600160a01b038416036105bd57506001610675565b6001546001600160a01b03908116908416036105db57506001610675565b5f546001600160a01b03166105f157505f610675565b5f5460405163b700961360e01b81526001600160a01b0385811660048301523060248301526001600160e01b0319851660448301529091169063b700961390606401602060405180830381865afa15801561064e573d5f803e3d5ffd5b505050506040513d601f19601f820116820180604052508101906106729190610850565b90505b92915050565b610690335f356001600160e01b0319166105a4565b6106ac5760405162461bcd60e51b81526004016102e3906107e8565b6001600160a01b0382165f908152600260205260408120805483929061038d90849061083d565b6106e8335f356001600160e01b0319166105a4565b6107045760405162461bcd60e51b81526004016102e3906107e8565b6001600160a01b0382165f908152600360205260408120805483929061056490849061082a565b6001600160a01b038116811461073f575f80fd5b50565b5f60208284031215610752575f80fd5b813561075d8161072b565b9392505050565b5f8060408385031215610775575f80fd5b82356107808161072b565b946020939093013593505050565b5f6020828403121561079e575f80fd5b5035919050565b5f80604083850312156107b6575f80fd5b82356107c18161072b565b915060208301356001600160e01b0319811681146107dd575f80fd5b809150509250929050565b602080825260149082015273191ccb585d5d1a0b5d5b985d5d1a1bdc9a5e995960621b604082015260600190565b634e487b7160e01b5f52601160045260245ffd5b8082018082111561067557610675610816565b8181038181111561067557610675610816565b5f60208284031215610860575f80fd5b8151801515811461075d575f80fdfea26469706673582212209f873a06d5628d06caf584d72358aee68a07af77a2763b2b6ab9c0b9b99a07d864736f6c63430008170033",
					"opcodes": "PUSH1 0x80 PUSH1 0x40 MSTORE CALLVALUE DUP1 ISZERO PUSH2 0xF JUMPI PUSH0 DUP1 REVERT JUMPDEST POP PUSH1 0x1 DUP1 SLOAD PUSH1 0x1 PUSH1 0x1 PUSH1 0xA0 SHL SUB NOT AND CALLER SWAP1 DUP2 OR SWAP1 SWAP2 SSTORE PUSH1 0x40 MLOAD PUSH32 0xCE241D7CA1F669FEE44B6FC00B8EBA2DF3BB514EED0F6F668F8F89096E81ED94 SWAP1 PUSH0 SWAP1 LOG2 PUSH2 0x8A5 DUP1 PUSH2 0x5A PUSH0 CODECOPY PUSH0 RETURN INVALID PUSH1 0x80 PUSH1 0x40 MSTORE CALLVALUE DUP1 ISZERO PUSH2 0xF JUMPI PUSH0 DUP1 REVERT JUMPDEST POP PUSH1 0x4 CALLDATASIZE LT PUSH2 0x106 JUMPI PUSH0 CALLDATALOAD PUSH1 0xE0 SHR DUP1 PUSH4 0xAE3EB304 GT PUSH2 0x9E JUMPI DUP1 PUSH4 0xD574B4C9 GT PUSH2 0x6E JUMPI DUP1 PUSH4 0xD574B4C9 EQ PUSH2 0x22E JUMPI DUP1 PUSH4 0xD9972B96 EQ PUSH2 0x241 JUMPI DUP1 PUSH4 0xE3D670D7 EQ PUSH2 0x264 JUMPI DUP1 PUSH4 0xE6178107 EQ PUSH2 0x28C JUMPI DUP1 PUSH4 0xF7E4F3A5 EQ PUSH2 0x29F JUMPI PUSH0 DUP1 REVERT JUMPDEST DUP1 PUSH4 0xAE3EB304 EQ PUSH2 0x1CC JUMPI DUP1 PUSH4 0xB34C8CAF EQ PUSH2 0x1D5 JUMPI DUP1 PUSH4 0xBF7E214F EQ PUSH2 0x1F4 JUMPI DUP1 PUSH4 0xCE7C2AC2 EQ PUSH2 0x206 JUMPI PUSH0 DUP1 REVERT JUMPDEST DUP1 PUSH4 0x6ACDBAC8 GT PUSH2 0xD9 JUMPI DUP1 PUSH4 0x6ACDBAC8 EQ PUSH2 0x15C JUMPI DUP1 PUSH4 0x6EBCF607 EQ PUSH2 0x16F JUMPI DUP1 PUSH4 0x7A9E5E4B EQ PUSH2 0x18E JUMPI DUP1 PUSH4 0x8DA5CB5B EQ PUSH2 0x1A1 JUMPI PUSH0 DUP1 REVERT JUMPDEST DUP1 PUSH4 0x13AF4035 EQ PUSH2 0x10A JUMPI DUP1 PUSH4 0x2C795FBE EQ PUSH2 0x11F JUMPI DUP1 PUSH4 0x5E07B869 EQ PUSH2 0x132 JUMPI DUP1 PUSH4 0x660B1A4D EQ PUSH2 0x149 JUMPI JUMPDEST PUSH0 DUP1 REVERT JUMPDEST PUSH2 0x11D PUSH2 0x118 CALLDATASIZE PUSH1 0x4 PUSH2 0x742 JUMP JUMPDEST PUSH2 0x2B2 JUMP JUMPDEST STOP JUMPDEST PUSH2 0x11D PUSH2 0x12D CALLDATASIZE PUSH1 0x4 PUSH2 0x764 JUMP JUMPDEST PUSH2 0x335 JUMP JUMPDEST PUSH1 0x4 SLOAD JUMPDEST PUSH1 0x40 MLOAD SWAP1 DUP2 MSTORE PUSH1 0x20 ADD JUMPDEST PUSH1 0x40 MLOAD DUP1 SWAP2 SUB SWAP1 RETURN JUMPDEST PUSH2 0x11D PUSH2 0x157 CALLDATASIZE PUSH1 0x4 PUSH2 0x78E JUMP JUMPDEST PUSH2 0x3D5 JUMP JUMPDEST PUSH2 0x11D PUSH2 0x16A CALLDATASIZE PUSH1 0x4 PUSH2 0x78E JUMP JUMPDEST PUSH2 0x452 JUMP JUMPDEST PUSH2 0x136 PUSH2 0x17D CALLDATASIZE PUSH1 0x4 PUSH2 0x742 JUMP JUMPDEST PUSH1 0x3 PUSH1 0x20 MSTORE PUSH0 SWAP1 DUP2 MSTORE PUSH1 0x40 SWAP1 KECCAK256 SLOAD DUP2 JUMP JUMPDEST PUSH2 0x11D PUSH2 0x19C CALLDATASIZE PUSH1 0x4 PUSH2 0x742 JUMP JUMPDEST PUSH2 0x494 JUMP JUMPDEST PUSH1 0x1 SLOAD PUSH2 0x1B4 SWAP1 PUSH1 0x1 PUSH1 0x1 PUSH1 0xA0 SHL SUB AND DUP2 JUMP JUMPDEST PUSH1 0x40 MLOAD PUSH1 0x1 PUSH1 0x1 PUSH1 0xA0 SHL SUB SWAP1 SWAP2 AND DUP2 MSTORE PUSH1 0x20 ADD PUSH2 0x140 JUMP JUMPDEST PUSH2 0x136 PUSH1 0x4 SLOAD DUP2 JUMP JUMPDEST PUSH2 0x136 PUSH2 0x1E3 CALLDATASIZE PUSH1 0x4 PUSH2 0x742 JUMP JUMPDEST PUSH1 0x2 PUSH1 0x20 MSTORE PUSH0 SWAP1 DUP2 MSTORE PUSH1 0x40 SWAP1 KECCAK256 SLOAD DUP2 JUMP JUMPDEST PUSH0 SLOAD PUSH2 0x1B4 SWAP1 PUSH1 0x1 PUSH1 0x1 PUSH1 0xA0 SHL SUB AND DUP2 JUMP JUMPDEST PUSH2 0x136 PUSH2 0x214 CALLDATASIZE PUSH1 0x4 PUSH2 0x742 JUMP JUMPDEST PUSH1 0x1 PUSH1 0x1 PUSH1 0xA0 SHL SUB AND PUSH0 SWAP1 DUP2 MSTORE PUSH1 0x2 PUSH1 0x20 MSTORE PUSH1 0x40 SWAP1 KECCAK256 SLOAD SWAP1 JUMP JUMPDEST PUSH2 0x11D PUSH2 0x23C CALLDATASIZE PUSH1 0x4 PUSH2 0x764 JUMP JUMPDEST PUSH2 0x50C JUMP JUMPDEST PUSH2 0x254 PUSH2 0x24F CALLDATASIZE PUSH1 0x4 PUSH2 0x7A5 JUMP JUMPDEST PUSH2 0x5A4 JUMP JUMPDEST PUSH1 0x40 MLOAD SWAP1 ISZERO ISZERO DUP2 MSTORE PUSH1 0x20 ADD PUSH2 0x140 JUMP JUMPDEST PUSH2 0x136 PUSH2 0x272 CALLDATASIZE PUSH1 0x4 PUSH2 0x742 JUMP JUMPDEST PUSH1 0x1 PUSH1 0x1 PUSH1 0xA0 SHL SUB AND PUSH0 SWAP1 DUP2 MSTORE PUSH1 0x3 PUSH1 0x20 MSTORE PUSH1 0x40 SWAP1 KECCAK256 SLOAD SWAP1 JUMP JUMPDEST PUSH2 0x11D PUSH2 0x29A CALLDATASIZE PUSH1 0x4 PUSH2 0x764 JUMP JUMPDEST PUSH2 0x67B JUMP JUMPDEST PUSH2 0x11D PUSH2 0x2AD CALLDATASIZE PUSH1 0x4 PUSH2 0x764 JUMP JUMPDEST PUSH2 0x6D3 JUMP JUMPDEST PUSH2 0x2C7 CALLER PUSH0 CALLDATALOAD PUSH1 0x1 PUSH1 0x1 PUSH1 0xE0 SHL SUB NOT AND PUSH2 0x5A4 JUMP JUMPDEST PUSH2 0x2EC JUMPI PUSH1 0x40 MLOAD PUSH3 0x461BCD PUSH1 0xE5 SHL DUP2 MSTORE PUSH1 0x4 ADD PUSH2 0x2E3 SWAP1 PUSH2 0x7E8 JUMP JUMPDEST PUSH1 0x40 MLOAD DUP1 SWAP2 SUB SWAP1 REVERT JUMPDEST PUSH1 0x1 DUP1 SLOAD PUSH1 0x1 PUSH1 0x1 PUSH1 0xA0 SHL SUB NOT AND PUSH1 0x1 PUSH1 0x1 PUSH1 0xA0 SHL SUB DUP4 AND SWAP1 DUP2 OR SWAP1 SWAP2 SSTORE PUSH1 0x40 MLOAD PUSH32 0xCE241D7CA1F669FEE44B6FC00B8EBA2DF3BB514EED0F6F668F8F89096E81ED94 SWAP1 PUSH0 SWAP1 LOG2 POP JUMP JUMPDEST PUSH2 0x34A CALLER PUSH0 CALLDATALOAD PUSH1 0x1 PUSH1 0x1 PUSH1 0xE0 SHL SUB NOT AND PUSH2 0x5A4 JUMP JUMPDEST PUSH2 0x366 JUMPI PUSH1 0x40 MLOAD PUSH3 0x461BCD PUSH1 0xE5 SHL DUP2 MSTORE PUSH1 0x4 ADD PUSH2 0x2E3 SWAP1 PUSH2 0x7E8 JUMP JUMPDEST PUSH1 0x1 PUSH1 0x1 PUSH1 0xA0 SHL SUB DUP3 AND PUSH0 SWAP1 DUP2 MSTORE PUSH1 0x2 PUSH1 0x20 MSTORE PUSH1 0x40 DUP2 KECCAK256 DUP1 SLOAD DUP4 SWAP3 SWAP1 PUSH2 0x38D SWAP1 DUP5 SWAP1 PUSH2 0x82A JUMP JUMPDEST SWAP1 SWAP2 SSTORE POP POP PUSH1 0x40 MLOAD DUP2 DUP2 MSTORE PUSH1 0x1 PUSH1 0x1 PUSH1 0xA0 SHL SUB DUP4 AND SWAP1 PUSH32 0xE6382C9ED5C0C33BB05042F73CF6CBE9CB25639F9A711E094EE563BC9CB80E2C SWAP1 PUSH1 0x20 ADD JUMPDEST PUSH1 0x40 MLOAD DUP1 SWAP2 SUB SWAP1 LOG2 POP POP JUMP JUMPDEST PUSH2 0x3EA CALLER PUSH0 CALLDATALOAD PUSH1 0x1 PUSH1 0x1 PUSH1 0xE0 SHL SUB NOT AND PUSH2 0x5A4 JUMP JUMPDEST PUSH2 0x406 JUMPI PUSH1 0x40 MLOAD PUSH3 0x461BCD PUSH1 0xE5 SHL DUP2 MSTORE PUSH1 0x4 ADD PUSH2 0x2E3 SWAP1 PUSH2 0x7E8 JUMP JUMPDEST DUP1 PUSH1 0x4 PUSH0 DUP3 DUP3 SLOAD PUSH2 0x417 SWAP2 SWAP1 PUSH2 0x82A JUMP JUMPDEST SWAP1 SWAP2 SSTORE POP POP PUSH1 0x40 MLOAD DUP2 DUP2 MSTORE PUSH32 0x8F8BEEC7C09513A4066B76964FF338179905FF1A3CC184DBABE9620B02440B98 SWAP1 PUSH1 0x20 ADD PUSH1 0x40 MLOAD DUP1 SWAP2 SUB SWAP1 LOG1 POP JUMP JUMPDEST PUSH2 0x467 CALLER PUSH0 CALLDATALOAD PUSH1 0x1 PUSH1 0x1 PUSH1 0xE0 SHL SUB NOT AND PUSH2 0x5A4 JUMP JUMPDEST PUSH2 0x483 JUMPI PUSH1 0x40 MLOAD PUSH3 0x461BCD PUSH1 0xE5 SHL DUP2 MSTORE PUSH1 0x4 ADD PUSH2 0x2E3 SWAP1 PUSH2 0x7E8 JUMP JUMPDEST DUP1 PUSH1 0x4 PUSH0 DUP3 DUP3 SLOAD PUSH2 0x417 SWAP2 SWAP1 PUSH2 0x83D JUMP JUMPDEST PUSH2 0x4A9 CALLER PUSH0 CALLDATALOAD PUSH1 0x1 PUSH1 0x1 PUSH1 0xE0 SHL SUB NOT AND PUSH2 0x5A4 JUMP JUMPDEST PUSH2 0x4C5 JUMPI PUSH1 0x40 MLOAD PUSH3 0x461BCD PUSH1 0xE5 SHL DUP2 MSTORE PUSH1 0x4 ADD PUSH2 0x2E3 SWAP1 PUSH2 0x7E8 JUMP JUMPDEST PUSH0 DUP1 SLOAD PUSH1 0x1 PUSH1 0x1 PUSH1 0xA0 SHL SUB NOT AND PUSH1 0x1 PUSH1 0x1 PUSH1 0xA0 SHL SUB DUP4 AND SWAP1 DUP2 OR DUP3 SSTORE PUSH1 0x40 MLOAD SWAP1 SWAP2 PUSH32 0x1ABEBEA81BFA2637F28358C371278FB15EDE7EA8DD28D2E03B112FF6D936ADA4 SWAP2 LOG2 POP JUMP JUMPDEST PUSH2 0x521 CALLER PUSH0 CALLDATALOAD PUSH1 0x1 PUSH1 0x1 PUSH1 0xE0 SHL SUB NOT AND PUSH2 0x5A4 JUMP JUMPDEST PUSH2 0x53D JUMPI PUSH1 0x40 MLOAD PUSH3 0x461BCD PUSH1 0xE5 SHL DUP2 MSTORE PUSH1 0x4 ADD PUSH2 0x2E3 SWAP1 PUSH2 0x7E8 JUMP JUMPDEST PUSH1 0x1 PUSH1 0x1 PUSH1 0xA0 SHL SUB DUP3 AND PUSH0 SWAP1 DUP2 MSTORE PUSH1 0x3 PUSH1 0x20 MSTORE PUSH1 0x40 DUP2 KECCAK256 DUP1 SLOAD DUP4 SWAP3 SWAP1 PUSH2 0x564 SWAP1 DUP5 SWAP1 PUSH2 0x83D JUMP JUMPDEST SWAP1 SWAP2 SSTORE POP POP PUSH1 0x40 MLOAD DUP2 DUP2 MSTORE PUSH1 0x1 PUSH1 0x1 PUSH1 0xA0 SHL SUB DUP4 AND SWAP1 PUSH32 0xE895B14DADFF94AE19D7BF2C3B60AE7CB147933B709F768B9D76AE16B545E835 SWAP1 PUSH1 0x20 ADD PUSH2 0x3C9 JUMP JUMPDEST PUSH0 ADDRESS PUSH1 0x1 PUSH1 0x1 PUSH1 0xA0 SHL SUB DUP5 AND SUB PUSH2 0x5BD JUMPI POP PUSH1 0x1 PUSH2 0x675 JUMP JUMPDEST PUSH1 0x1 SLOAD PUSH1 0x1 PUSH1 0x1 PUSH1 0xA0 SHL SUB SWAP1 DUP2 AND SWAP1 DUP5 AND SUB PUSH2 0x5DB JUMPI POP PUSH1 0x1 PUSH2 0x675 JUMP JUMPDEST PUSH0 SLOAD PUSH1 0x1 PUSH1 0x1 PUSH1 0xA0 SHL SUB AND PUSH2 0x5F1 JUMPI POP PUSH0 PUSH2 0x675 JUMP JUMPDEST PUSH0 SLOAD PUSH1 0x40 MLOAD PUSH4 0xB7009613 PUSH1 0xE0 SHL DUP2 MSTORE PUSH1 0x1 PUSH1 0x1 PUSH1 0xA0 SHL SUB DUP6 DUP2 AND PUSH1 0x4 DUP4 ADD MSTORE ADDRESS PUSH1 0x24 DUP4 ADD MSTORE PUSH1 0x1 PUSH1 0x1 PUSH1 0xE0 SHL SUB NOT DUP6 AND PUSH1 0x44 DUP4 ADD MSTORE SWAP1 SWAP2 AND SWAP1 PUSH4 0xB7009613 SWAP1 PUSH1 0x64 ADD PUSH1 0x20 PUSH1 0x40 MLOAD DUP1 DUP4 SUB DUP2 DUP7 GAS STATICCALL ISZERO DUP1 ISZERO PUSH2 0x64E JUMPI RETURNDATASIZE PUSH0 DUP1 RETURNDATACOPY RETURNDATASIZE PUSH0 REVERT JUMPDEST POP POP POP POP PUSH1 0x40 MLOAD RETURNDATASIZE PUSH1 0x1F NOT PUSH1 0x1F DUP3 ADD AND DUP3 ADD DUP1 PUSH1 0x40 MSTORE POP DUP2 ADD SWAP1 PUSH2 0x672 SWAP2 SWAP1 PUSH2 0x850 JUMP JUMPDEST SWAP1 POP JUMPDEST SWAP3 SWAP2 POP POP JUMP JUMPDEST PUSH2 0x690 CALLER PUSH0 CALLDATALOAD PUSH1 0x1 PUSH1 0x1 PUSH1 0xE0 SHL SUB NOT AND PUSH2 0x5A4 JUMP JUMPDEST PUSH2 0x6AC JUMPI PUSH1 0x40 MLOAD PUSH3 0x461BCD PUSH1 0xE5 SHL DUP2 MSTORE PUSH1 0x4 ADD PUSH2 0x2E3 SWAP1 PUSH2 0x7E8 JUMP JUMPDEST PUSH1 0x1 PUSH1 0x1 PUSH1 0xA0 SHL SUB DUP3 AND PUSH0 SWAP1 DUP2 MSTORE PUSH1 0x2 PUSH1 0x20 MSTORE PUSH1 0x40 DUP2 KECCAK256 DUP1 SLOAD DUP4 SWAP3 SWAP1 PUSH2 0x38D SWAP1 DUP5 SWAP1 PUSH2 0x83D JUMP JUMPDEST PUSH2 0x6E8 CALLER PUSH0 CALLDATALOAD PUSH1 0x1 PUSH1 0x1 PUSH1 0xE0 SHL SUB NOT AND PUSH2 0x5A4 JUMP JUMPDEST PUSH2 0x704 JUMPI PUSH1 0x40 MLOAD PUSH3 0x461BCD PUSH1 0xE5 SHL DUP2 MSTORE PUSH1 0x4 ADD PUSH2 0x2E3 SWAP1 PUSH2 0x7E8 JUMP JUMPDEST PUSH1 0x1 PUSH1 0x1 PUSH1 0xA0 SHL SUB DUP3 AND PUSH0 SWAP1 DUP2 MSTORE PUSH1 0x3 PUSH1 0x20 MSTORE PUSH1 0x40 DUP2 KECCAK256 DUP1 SLOAD DUP4 SWAP3 SWAP1 PUSH2 0x564 SWAP1 DUP5 SWAP1 PUSH2 0x82A JUMP JUMPDEST PUSH1 0x1 PUSH1 0x1 PUSH1 0xA0 SHL SUB DUP2 AND DUP2 EQ PUSH2 0x73F JUMPI PUSH0 DUP1 REVERT JUMPDEST POP JUMP JUMPDEST PUSH0 PUSH1 0x20 DUP3 DUP5 SUB SLT ISZERO PUSH2 0x752 JUMPI PUSH0 DUP1 REVERT JUMPDEST DUP2 CALLDATALOAD PUSH2 0x75D DUP2 PUSH2 0x72B JUMP JUMPDEST SWAP4 SWAP3 POP POP POP JUMP JUMPDEST PUSH0 DUP1 PUSH1 0x40 DUP4 DUP6 SUB SLT ISZERO PUSH2 0x775 JUMPI PUSH0 DUP1 REVERT JUMPDEST DUP3 CALLDATALOAD PUSH2 0x780 DUP2 PUSH2 0x72B JUMP JUMPDEST SWAP5 PUSH1 0x20 SWAP4 SWAP1 SWAP4 ADD CALLDATALOAD SWAP4 POP POP POP JUMP JUMPDEST PUSH0 PUSH1 0x20 DUP3 DUP5 SUB SLT ISZERO PUSH2 0x79E JUMPI PUSH0 DUP1 REVERT JUMPDEST POP CALLDATALOAD SWAP2 SWAP1 POP JUMP JUMPDEST PUSH0 DUP1 PUSH1 0x40 DUP4 DUP6 SUB SLT ISZERO PUSH2 0x7B6 JUMPI PUSH0 DUP1 REVERT JUMPDEST DUP3 CALLDATALOAD PUSH2 0x7C1 DUP2 PUSH2 0x72B JUMP JUMPDEST SWAP2 POP PUSH1 0x20 DUP4 ADD CALLDATALOAD PUSH1 0x1 PUSH1 0x1 PUSH1 0xE0 SHL SUB NOT DUP2 AND DUP2 EQ PUSH2 0x7DD JUMPI PUSH0 DUP1 REVERT JUMPDEST DUP1 SWAP2 POP POP SWAP3 POP SWAP3 SWAP1 POP JUMP JUMPDEST PUSH1 0x20 DUP1 DUP3 MSTORE PUSH1 0x14 SWAP1 DUP3 ADD MSTORE PUSH20 0x191CCB585D5D1A0B5D5B985D5D1A1BDC9A5E9959 PUSH1 0x62 SHL PUSH1 0x40 DUP3 ADD MSTORE PUSH1 0x60 ADD SWAP1 JUMP JUMPDEST PUSH4 0x4E487B71 PUSH1 0xE0 SHL PUSH0 MSTORE PUSH1 0x11 PUSH1 0x4 MSTORE PUSH1 0x24 PUSH0 REVERT JUMPDEST DUP1 DUP3 ADD DUP1 DUP3 GT ISZERO PUSH2 0x675 JUMPI PUSH2 0x675 PUSH2 0x816 JUMP JUMPDEST DUP2 DUP2 SUB DUP2 DUP2 GT ISZERO PUSH2 0x675 JUMPI PUSH2 0x675 PUSH2 0x816 JUMP JUMPDEST PUSH0 PUSH1 0x20 DUP3 DUP5 SUB SLT ISZERO PUSH2 0x860 JUMPI PUSH0 DUP1 REVERT JUMPDEST DUP2 MLOAD DUP1 ISZERO ISZERO DUP2 EQ PUSH2 0x75D JUMPI PUSH0 DUP1 REVERT INVALID LOG2 PUSH5 0x6970667358 0x22 SLT KECCAK256 SWAP16 DUP8 GASPRICE MOD 0xD5 PUSH3 0x8D06CA CREATE2 DUP5 0xD7 0x23 PC 0xAE 0xE6 DUP11 SMOD 0xAF PUSH24 0xA2763B2B6AB9C0B9B99A07D864736F6C6343000817003300 "
				},
				"gasEstimates": {
					"creation": {
						"codeDepositCost": "442600",
						"executionCost": "25864",
						"totalCost": "468464"
					},
					"external": {
						"_balances(address)": "2544",
						"_shares(address)": "2544",
						"_totalDeposits()": "2306",
						"authority()": "2402",
						"balance(address)": "2583",
						"globalbalanceadd(address,uint256)": "infinite",
						"globalbalancesub(address,uint256)": "infinite",
						"globalsharesadd(address,uint256)": "infinite",
						"globalsharessub(address,uint256)": "infinite",
						"globaltotaldepositadd(uint256)": "infinite",
						"globaltotaldepositsub(uint256)": "infinite",
						"isAuthorized(address,bytes4)": "infinite",
						"owner()": "2425",
						"setAuthority(address)": "infinite",
						"setOwner(address)": "infinite",
						"shares(address)": "2606",
						"totaldeposits()": "2337"
					}
				},
				"methodIdentifiers": {
					"_balances(address)": "6ebcf607",
					"_shares(address)": "b34c8caf",
					"_totalDeposits()": "ae3eb304",
					"authority()": "bf7e214f",
					"balance(address)": "e3d670d7",
					"globalbalanceadd(address,uint256)": "f7e4f3a5",
					"globalbalancesub(address,uint256)": "d574b4c9",
					"globalsharesadd(address,uint256)": "2c795fbe",
					"globalsharessub(address,uint256)": "e6178107",
					"globaltotaldepositadd(uint256)": "660b1a4d",
					"globaltotaldepositsub(uint256)": "6acdbac8",
					"isAuthorized(address,bytes4)": "d9972b96",
					"owner()": "8da5cb5b",
					"setAuthority(address)": "7a9e5e4b",
					"setOwner(address)": "13af4035",
					"shares(address)": "ce7c2ac2",
					"totaldeposits()": "5e07b869"
				}
			},
			"storageLayout": {
				"storage": [
					{
						"astId": 148,
						"contract": "Crypto-side-main/global.sol:Globals",
						"label": "authority",
						"offset": 0,
						"slot": "0",
						"type": "t_contract(DSAuthority)134"
					},
					{
						"astId": 150,
						"contract": "Crypto-side-main/global.sol:Globals",
						"label": "owner",
						"offset": 0,
						"slot": "1",
						"type": "t_address"
					},
					{
						"astId": 278,
						"contract": "Crypto-side-main/global.sol:Globals",
						"label": "_shares",
						"offset": 0,
						"slot": "2",
						"type": "t_mapping(t_address,t_uint256)"
					},
					{
						"astId": 282,
						"contract": "Crypto-side-main/global.sol:Globals",
						"label": "_balances",
						"offset": 0,
						"slot": "3",
						"type": "t_mapping(t_address,t_uint256)"
					},
					{
						"astId": 284,
						"contract": "Crypto-side-main/global.sol:Globals",
						"label": "_totalDeposits",
						"offset": 0,
						"slot": "4",
						"type": "t_uint256"
					}
				],
				"types": {
					"t_address": {
						"encoding": "inplace",
						"label": "address",
						"numberOfBytes": "20"
					},
					"t_contract(DSAuthority)134": {
						"encoding": "inplace",
						"label": "contract DSAuthority",
						"numberOfBytes": "20"
					},
					"t_mapping(t_address,t_uint256)": {
						"encoding": "mapping",
						"key": "t_address",
						"label": "mapping(address => uint256)",
						"numberOfBytes": "32",
						"value": "t_uint256"
					},
					"t_uint256": {
						"encoding": "inplace",
						"label": "uint256",
						"numberOfBytes": "32"
					}
				}
			},
			"userdoc": {
				"kind": "user",
				"methods": {},
				"version": 1
			}
		}
	}
}