{
	"Crypto-side-main/stake.sol": {
		"BCKSavingsAccount": {
			"abi": [
				{
					"inputs": [
						{
							"internalType": "address",
							"name": "_bck",
							"type": "address"
						},
						{
							"internalType": "address",
							"name": "_usdc",
							"type": "address"
						},
						{
							"internalType": "address",
							"name": "_esBCKGOV",
							"type": "address"
						}
					],
					"stateMutability": "nonpayable",
					"type": "constructor"
				},
				{
					"anonymous": false,
					"inputs": [
						{
							"indexed": true,
							"internalType": "address",
							"name": "from",
							"type": "address"
						},
						{
							"indexed": false,
							"internalType": "uint256",
							"name": "value",
							"type": "uint256"
						}
					],
					"name": "BCKGOVDistributed",
					"type": "event"
				},
				{
					"inputs": [
						{
							"internalType": "address",
							"name": "_owner",
							"type": "address"
						}
					],
					"name": "accumulativeInterestOf",
					"outputs": [
						{
							"internalType": "uint256",
							"name": "",
							"type": "uint256"
						}
					],
					"stateMutability": "view",
					"type": "function"
				},
				{
					"inputs": [
						{
							"internalType": "address",
							"name": "",
							"type": "address"
						}
					],
					"name": "balances",
					"outputs": [
						{
							"internalType": "uint256",
							"name": "",
							"type": "uint256"
						}
					],
					"stateMutability": "view",
					"type": "function"
				},
				{
					"inputs": [],
					"name": "bck",
					"outputs": [
						{
							"internalType": "contract ERC20",
							"name": "",
							"type": "address"
						}
					],
					"stateMutability": "view",
					"type": "function"
				},
				{
					"inputs": [],
					"name": "currentdistrbutedBCKGOV",
					"outputs": [
						{
							"internalType": "uint256",
							"name": "",
							"type": "uint256"
						}
					],
					"stateMutability": "view",
					"type": "function"
				},
				{
					"inputs": [
						{
							"internalType": "uint256",
							"name": "_amount",
							"type": "uint256"
						}
					],
					"name": "depositBCK",
					"outputs": [],
					"stateMutability": "nonpayable",
					"type": "function"
				},
				{
					"inputs": [
						{
							"internalType": "uint256",
							"name": "_amount",
							"type": "uint256"
						}
					],
					"name": "distributeBCKGOV",
					"outputs": [],
					"stateMutability": "nonpayable",
					"type": "function"
				},
				{
					"inputs": [],
					"name": "esBCKGOV",
					"outputs": [
						{
							"internalType": "contract ERC20",
							"name": "",
							"type": "address"
						}
					],
					"stateMutability": "view",
					"type": "function"
				},
				{
					"inputs": [],
					"name": "excessBCKGOVTest",
					"outputs": [
						{
							"internalType": "uint256",
							"name": "",
							"type": "uint256"
						}
					],
					"stateMutability": "view",
					"type": "function"
				},
				{
					"inputs": [],
					"name": "owner",
					"outputs": [
						{
							"internalType": "address",
							"name": "",
							"type": "address"
						}
					],
					"stateMutability": "view",
					"type": "function"
				},
				{
					"inputs": [],
					"name": "totalDeposits",
					"outputs": [
						{
							"internalType": "uint256",
							"name": "",
							"type": "uint256"
						}
					],
					"stateMutability": "view",
					"type": "function"
				},
				{
					"inputs": [],
					"name": "usdc",
					"outputs": [
						{
							"internalType": "contract ERC20",
							"name": "",
							"type": "address"
						}
					],
					"stateMutability": "view",
					"type": "function"
				},
				{
					"inputs": [
						{
							"internalType": "uint256",
							"name": "_amount",
							"type": "uint256"
						}
					],
					"name": "withdrawBCK",
					"outputs": [],
					"stateMutability": "nonpayable",
					"type": "function"
				},
				{
					"inputs": [],
					"name": "withdrawInterest",
					"outputs": [],
					"stateMutability": "nonpayable",
					"type": "function"
				},
				{
					"inputs": [
						{
							"internalType": "address",
							"name": "_owner",
							"type": "address"
						}
					],
					"name": "withdrawableInterestOf",
					"outputs": [
						{
							"internalType": "uint256",
							"name": "",
							"type": "uint256"
						}
					],
					"stateMutability": "view",
					"type": "function"
				},
				{
					"inputs": [
						{
							"internalType": "address",
							"name": "",
							"type": "address"
						}
					],
					"name": "withdrawnInterest",
					"outputs": [
						{
							"internalType": "uint256",
							"name": "",
							"type": "uint256"
						}
					],
					"stateMutability": "view",
					"type": "function"
				}
			],
			"devdoc": {
				"kind": "dev",
				"methods": {},
				"version": 1
			},
			"evm": {
				"assembly": "    /* \"Crypto-side-main/stake.sol\":153:4712  contract BCKSavingsAccount {... */\n  mstore(0x40, 0x80)\n    /* \"Crypto-side-main/stake.sol\":748:925  constructor(address _bck, address _usdc, address _esBCKGOV) public {... */\n  callvalue\n  dup1\n  iszero\n  tag_1\n  jumpi\n  0x00\n  dup1\n  revert\ntag_1:\n  pop\n  mload(0x40)\n  sub(codesize, bytecodeSize)\n  dup1\n  bytecodeSize\n  dup4\n  codecopy\n  dup2\n  dup2\n  add\n  0x40\n  mstore\n  dup2\n  add\n  swap1\n  tag_2\n  swap2\n  swap1\n  tag_3\n  jump\t// in\ntag_2:\n    /* \"Crypto-side-main/stake.sol\":833:837  _bck */\n  dup3\n    /* \"Crypto-side-main/stake.sol\":821:824  bck */\n  0x00\n  dup1\n    /* \"Crypto-side-main/stake.sol\":821:838  bck = ERC20(_bck) */\n  0x0100\n  exp\n  dup2\n  sload\n  dup2\n  0xffffffffffffffffffffffffffffffffffffffff\n  mul\n  not\n  and\n  swap1\n  dup4\n  0xffffffffffffffffffffffffffffffffffffffff\n  and\n  mul\n  or\n  swap1\n  sstore\n  pop\n    /* \"Crypto-side-main/stake.sol\":857:862  _usdc */\n  dup2\n    /* \"Crypto-side-main/stake.sol\":844:848  usdc */\n  0x02\n  0x00\n    /* \"Crypto-side-main/stake.sol\":844:863  usdc = ERC20(_usdc) */\n  0x0100\n  exp\n  dup2\n  sload\n  dup2\n  0xffffffffffffffffffffffffffffffffffffffff\n  mul\n  not\n  and\n  swap1\n  dup4\n  0xffffffffffffffffffffffffffffffffffffffff\n  and\n  mul\n  or\n  swap1\n  sstore\n  pop\n    /* \"Crypto-side-main/stake.sol\":877:887  msg.sender */\n  caller\n    /* \"Crypto-side-main/stake.sol\":869:874  owner */\n  0x03\n  0x00\n    /* \"Crypto-side-main/stake.sol\":869:887  owner = msg.sender */\n  0x0100\n  exp\n  dup2\n  sload\n  dup2\n  0xffffffffffffffffffffffffffffffffffffffff\n  mul\n  not\n  and\n  swap1\n  dup4\n  0xffffffffffffffffffffffffffffffffffffffff\n  and\n  mul\n  or\n  swap1\n  sstore\n  pop\n    /* \"Crypto-side-main/stake.sol\":910:919  _esBCKGOV */\n  dup1\n    /* \"Crypto-side-main/stake.sol\":893:901  esBCKGOV */\n  0x01\n  0x00\n    /* \"Crypto-side-main/stake.sol\":893:920  esBCKGOV = ERC20(_esBCKGOV) */\n  0x0100\n  exp\n  dup2\n  sload\n  dup2\n  0xffffffffffffffffffffffffffffffffffffffff\n  mul\n  not\n  and\n  swap1\n  dup4\n  0xffffffffffffffffffffffffffffffffffffffff\n  and\n  mul\n  or\n  swap1\n  sstore\n  pop\n    /* \"Crypto-side-main/stake.sol\":748:925  constructor(address _bck, address _usdc, address _esBCKGOV) public {... */\n  pop\n  pop\n  pop\n    /* \"Crypto-side-main/stake.sol\":153:4712  contract BCKSavingsAccount {... */\n  jump(tag_6)\n    /* \"#utility.yul\":88:205   */\ntag_8:\n    /* \"#utility.yul\":197:198   */\n  0x00\n    /* \"#utility.yul\":194:195   */\n  dup1\n    /* \"#utility.yul\":187:199   */\n  revert\n    /* \"#utility.yul\":334:460   */\ntag_10:\n    /* \"#utility.yul\":371:378   */\n  0x00\n    /* \"#utility.yul\":411:453   */\n  0xffffffffffffffffffffffffffffffffffffffff\n    /* \"#utility.yul\":404:409   */\n  dup3\n    /* \"#utility.yul\":400:454   */\n  and\n    /* \"#utility.yul\":389:454   */\n  swap1\n  pop\n    /* \"#utility.yul\":334:460   */\n  swap2\n  swap1\n  pop\n  jump\t// out\n    /* \"#utility.yul\":466:562   */\ntag_11:\n    /* \"#utility.yul\":503:510   */\n  0x00\n    /* \"#utility.yul\":532:556   */\n  tag_20\n    /* \"#utility.yul\":550:555   */\n  dup3\n    /* \"#utility.yul\":532:556   */\n  tag_10\n  jump\t// in\ntag_20:\n    /* \"#utility.yul\":521:556   */\n  swap1\n  pop\n    /* \"#utility.yul\":466:562   */\n  swap2\n  swap1\n  pop\n  jump\t// out\n    /* \"#utility.yul\":568:690   */\ntag_12:\n    /* \"#utility.yul\":641:665   */\n  tag_22\n    /* \"#utility.yul\":659:664   */\n  dup2\n    /* \"#utility.yul\":641:665   */\n  tag_11\n  jump\t// in\ntag_22:\n    /* \"#utility.yul\":634:639   */\n  dup2\n    /* \"#utility.yul\":631:666   */\n  eq\n    /* \"#utility.yul\":621:684   */\n  tag_23\n  jumpi\n    /* \"#utility.yul\":680:681   */\n  0x00\n    /* \"#utility.yul\":677:678   */\n  dup1\n    /* \"#utility.yul\":670:682   */\n  revert\n    /* \"#utility.yul\":621:684   */\ntag_23:\n    /* \"#utility.yul\":568:690   */\n  pop\n  jump\t// out\n    /* \"#utility.yul\":696:839   */\ntag_13:\n    /* \"#utility.yul\":753:758   */\n  0x00\n    /* \"#utility.yul\":784:790   */\n  dup2\n    /* \"#utility.yul\":778:791   */\n  mload\n    /* \"#utility.yul\":769:791   */\n  swap1\n  pop\n    /* \"#utility.yul\":800:833   */\n  tag_25\n    /* \"#utility.yul\":827:832   */\n  dup2\n    /* \"#utility.yul\":800:833   */\n  tag_12\n  jump\t// in\ntag_25:\n    /* \"#utility.yul\":696:839   */\n  swap3\n  swap2\n  pop\n  pop\n  jump\t// out\n    /* \"#utility.yul\":845:1508   */\ntag_3:\n    /* \"#utility.yul\":933:939   */\n  0x00\n    /* \"#utility.yul\":941:947   */\n  dup1\n    /* \"#utility.yul\":949:955   */\n  0x00\n    /* \"#utility.yul\":998:1000   */\n  0x60\n    /* \"#utility.yul\":986:995   */\n  dup5\n    /* \"#utility.yul\":977:984   */\n  dup7\n    /* \"#utility.yul\":973:996   */\n  sub\n    /* \"#utility.yul\":969:1001   */\n  slt\n    /* \"#utility.yul\":966:1085   */\n  iszero\n  tag_27\n  jumpi\n    /* \"#utility.yul\":1004:1083   */\n  tag_28\n  tag_8\n  jump\t// in\ntag_28:\n    /* \"#utility.yul\":966:1085   */\ntag_27:\n    /* \"#utility.yul\":1124:1125   */\n  0x00\n    /* \"#utility.yul\":1149:1213   */\n  tag_29\n    /* \"#utility.yul\":1205:1212   */\n  dup7\n    /* \"#utility.yul\":1196:1202   */\n  dup3\n    /* \"#utility.yul\":1185:1194   */\n  dup8\n    /* \"#utility.yul\":1181:1203   */\n  add\n    /* \"#utility.yul\":1149:1213   */\n  tag_13\n  jump\t// in\ntag_29:\n    /* \"#utility.yul\":1139:1213   */\n  swap4\n  pop\n    /* \"#utility.yul\":1095:1223   */\n  pop\n    /* \"#utility.yul\":1262:1264   */\n  0x20\n    /* \"#utility.yul\":1288:1352   */\n  tag_30\n    /* \"#utility.yul\":1344:1351   */\n  dup7\n    /* \"#utility.yul\":1335:1341   */\n  dup3\n    /* \"#utility.yul\":1324:1333   */\n  dup8\n    /* \"#utility.yul\":1320:1342   */\n  add\n    /* \"#utility.yul\":1288:1352   */\n  tag_13\n  jump\t// in\ntag_30:\n    /* \"#utility.yul\":1278:1352   */\n  swap3\n  pop\n    /* \"#utility.yul\":1233:1362   */\n  pop\n    /* \"#utility.yul\":1401:1403   */\n  0x40\n    /* \"#utility.yul\":1427:1491   */\n  tag_31\n    /* \"#utility.yul\":1483:1490   */\n  dup7\n    /* \"#utility.yul\":1474:1480   */\n  dup3\n    /* \"#utility.yul\":1463:1472   */\n  dup8\n    /* \"#utility.yul\":1459:1481   */\n  add\n    /* \"#utility.yul\":1427:1491   */\n  tag_13\n  jump\t// in\ntag_31:\n    /* \"#utility.yul\":1417:1491   */\n  swap2\n  pop\n    /* \"#utility.yul\":1372:1501   */\n  pop\n    /* \"#utility.yul\":845:1508   */\n  swap3\n  pop\n  swap3\n  pop\n  swap3\n  jump\t// out\n    /* \"Crypto-side-main/stake.sol\":153:4712  contract BCKSavingsAccount {... */\ntag_6:\n  dataSize(sub_0)\n  dup1\n  dataOffset(sub_0)\n  0x00\n  codecopy\n  0x00\n  return\nstop\n\nsub_0: assembly {\n        /* \"Crypto-side-main/stake.sol\":153:4712  contract BCKSavingsAccount {... */\n      mstore(0x40, 0x80)\n      callvalue\n      dup1\n      iszero\n      tag_1\n      jumpi\n      0x00\n      dup1\n      revert\n    tag_1:\n      pop\n      jumpi(tag_2, lt(calldatasize, 0x04))\n      shr(0xe0, calldataload(0x00))\n      dup1\n      0x7d882097\n      gt\n      tag_18\n      jumpi\n      dup1\n      0x9e5be1d0\n      gt\n      tag_19\n      jumpi\n      dup1\n      0x9e5be1d0\n      eq\n      tag_14\n      jumpi\n      dup1\n      0xa1ef92eb\n      eq\n      tag_15\n      jumpi\n      dup1\n      0xb35874cb\n      eq\n      tag_16\n      jumpi\n      dup1\n      0xf00f64ec\n      eq\n      tag_17\n      jumpi\n      jump(tag_2)\n    tag_19:\n      dup1\n      0x7d882097\n      eq\n      tag_10\n      jumpi\n      dup1\n      0x8da5cb5b\n      eq\n      tag_11\n      jumpi\n      dup1\n      0x9778dd2b\n      eq\n      tag_12\n      jumpi\n      dup1\n      0x9ddf0293\n      eq\n      tag_13\n      jumpi\n      jump(tag_2)\n    tag_18:\n      dup1\n      0x39beb7a1\n      gt\n      tag_20\n      jumpi\n      dup1\n      0x39beb7a1\n      eq\n      tag_6\n      jumpi\n      dup1\n      0x3e413bee\n      eq\n      tag_7\n      jumpi\n      dup1\n      0x5246fb2d\n      eq\n      tag_8\n      jumpi\n      dup1\n      0x71c21934\n      eq\n      tag_9\n      jumpi\n      jump(tag_2)\n    tag_20:\n      dup1\n      0x63750c\n      eq\n      tag_3\n      jumpi\n      dup1\n      0x0f90c97b\n      eq\n      tag_4\n      jumpi\n      dup1\n      0x27e235e3\n      eq\n      tag_5\n      jumpi\n    tag_2:\n      0x00\n      dup1\n      revert\n        /* \"Crypto-side-main/stake.sol\":3018:3738  function withdrawInterest() public {... */\n    tag_3:\n      tag_21\n      tag_22\n      jump\t// in\n    tag_21:\n      stop\n        /* \"Crypto-side-main/stake.sol\":3742:3904  function withdrawableInterestOf(address _owner) public view returns(uint256) {... */\n    tag_4:\n      tag_23\n      0x04\n      dup1\n      calldatasize\n      sub\n      dup2\n      add\n      swap1\n      tag_24\n      swap2\n      swap1\n      tag_25\n      jump\t// in\n    tag_24:\n      tag_26\n      jump\t// in\n    tag_23:\n      mload(0x40)\n      tag_27\n      swap2\n      swap1\n      tag_28\n      jump\t// in\n    tag_27:\n      mload(0x40)\n      dup1\n      swap2\n      sub\n      swap1\n      return\n        /* \"Crypto-side-main/stake.sol\":603:646  mapping(address => uint256) public balances */\n    tag_5:\n      tag_29\n      0x04\n      dup1\n      calldatasize\n      sub\n      dup2\n      add\n      swap1\n      tag_30\n      swap2\n      swap1\n      tag_25\n      jump\t// in\n    tag_30:\n      tag_31\n      jump\t// in\n    tag_29:\n      mload(0x40)\n      tag_32\n      swap2\n      swap1\n      tag_28\n      jump\t// in\n    tag_32:\n      mload(0x40)\n      dup1\n      swap2\n      sub\n      swap1\n      return\n        /* \"Crypto-side-main/stake.sol\":436:474  uint256 public currentdistrbutedBCKGOV */\n    tag_6:\n      tag_33\n      tag_34\n      jump\t// in\n    tag_33:\n      mload(0x40)\n      tag_35\n      swap2\n      swap1\n      tag_28\n      jump\t// in\n    tag_35:\n      mload(0x40)\n      dup1\n      swap2\n      sub\n      swap1\n      return\n        /* \"Crypto-side-main/stake.sol\":296:313  ERC20 public usdc */\n    tag_7:\n      tag_36\n      tag_37\n      jump\t// in\n    tag_36:\n      mload(0x40)\n      tag_38\n      swap2\n      swap1\n      tag_39\n      jump\t// in\n    tag_38:\n      mload(0x40)\n      dup1\n      swap2\n      sub\n      swap1\n      return\n        /* \"Crypto-side-main/stake.sol\":271:292  ERC20 public esBCKGOV */\n    tag_8:\n      tag_40\n      tag_41\n      jump\t// in\n    tag_40:\n      mload(0x40)\n      tag_42\n      swap2\n      swap1\n      tag_39\n      jump\t// in\n    tag_42:\n      mload(0x40)\n      dup1\n      swap2\n      sub\n      swap1\n      return\n        /* \"Crypto-side-main/stake.sol\":251:267  ERC20 public bck */\n    tag_9:\n      tag_43\n      tag_44\n      jump\t// in\n    tag_43:\n      mload(0x40)\n      tag_45\n      swap2\n      swap1\n      tag_39\n      jump\t// in\n    tag_45:\n      mload(0x40)\n      dup1\n      swap2\n      sub\n      swap1\n      return\n        /* \"Crypto-side-main/stake.sol\":650:678  uint256 public totalDeposits */\n    tag_10:\n      tag_46\n      tag_47\n      jump\t// in\n    tag_46:\n      mload(0x40)\n      tag_48\n      swap2\n      swap1\n      tag_28\n      jump\t// in\n    tag_48:\n      mload(0x40)\n      dup1\n      swap2\n      sub\n      swap1\n      return\n        /* \"Crypto-side-main/stake.sol\":317:337  address public owner */\n    tag_11:\n      tag_49\n      tag_50\n      jump\t// in\n    tag_49:\n      mload(0x40)\n      tag_51\n      swap2\n      swap1\n      tag_52\n      jump\t// in\n    tag_51:\n      mload(0x40)\n      dup1\n      swap2\n      sub\n      swap1\n      return\n        /* \"Crypto-side-main/stake.sol\":4476:4710  function accumulativeInterestOf(address _owner) public view returns(uint256) {... */\n    tag_12:\n      tag_53\n      0x04\n      dup1\n      calldatasize\n      sub\n      dup2\n      add\n      swap1\n      tag_54\n      swap2\n      swap1\n      tag_25\n      jump\t// in\n    tag_54:\n      tag_55\n      jump\t// in\n    tag_53:\n      mload(0x40)\n      tag_56\n      swap2\n      swap1\n      tag_28\n      jump\t// in\n    tag_56:\n      mload(0x40)\n      dup1\n      swap2\n      sub\n      swap1\n      return\n        /* \"Crypto-side-main/stake.sol\":2205:3014  function distributeBCKGOV(uint256 _amount) public {... */\n    tag_13:\n      tag_57\n      0x04\n      dup1\n      calldatasize\n      sub\n      dup2\n      add\n      swap1\n      tag_58\n      swap2\n      swap1\n      tag_59\n      jump\t// in\n    tag_58:\n      tag_60\n      jump\t// in\n    tag_57:\n      stop\n        /* \"Crypto-side-main/stake.sol\":1021:1582  function depositBCK(uint256 _amount) public {... */\n    tag_14:\n      tag_61\n      0x04\n      dup1\n      calldatasize\n      sub\n      dup2\n      add\n      swap1\n      tag_62\n      swap2\n      swap1\n      tag_59\n      jump\t// in\n    tag_62:\n      tag_63\n      jump\t// in\n    tag_61:\n      stop\n        /* \"Crypto-side-main/stake.sol\":546:598  mapping(address => uint256) public withdrawnInterest */\n    tag_15:\n      tag_64\n      0x04\n      dup1\n      calldatasize\n      sub\n      dup2\n      add\n      swap1\n      tag_65\n      swap2\n      swap1\n      tag_25\n      jump\t// in\n    tag_65:\n      tag_66\n      jump\t// in\n    tag_64:\n      mload(0x40)\n      tag_67\n      swap2\n      swap1\n      tag_28\n      jump\t// in\n    tag_67:\n      mload(0x40)\n      dup1\n      swap2\n      sub\n      swap1\n      return\n        /* \"Crypto-side-main/stake.sol\":1585:2203  function withdrawBCK(uint256 _amount) public {... */\n    tag_16:\n      tag_68\n      0x04\n      dup1\n      calldatasize\n      sub\n      dup2\n      add\n      swap1\n      tag_69\n      swap2\n      swap1\n      tag_59\n      jump\t// in\n    tag_69:\n      tag_70\n      jump\t// in\n    tag_68:\n      stop\n        /* \"Crypto-side-main/stake.sol\":3991:4470  function excessBCKGOVTest () public view returns(uint) {... */\n    tag_17:\n      tag_71\n      tag_72\n      jump\t// in\n    tag_71:\n      mload(0x40)\n      tag_73\n      swap2\n      swap1\n      tag_28\n      jump\t// in\n    tag_73:\n      mload(0x40)\n      dup1\n      swap2\n      sub\n      swap1\n      return\n        /* \"Crypto-side-main/stake.sol\":3018:3738  function withdrawInterest() public {... */\n    tag_22:\n        /* \"Crypto-side-main/stake.sol\":3064:3093  uint256 _withdrawableInterest */\n      0x00\n        /* \"Crypto-side-main/stake.sol\":3096:3130  withdrawableInterestOf(msg.sender) */\n      tag_75\n        /* \"Crypto-side-main/stake.sol\":3119:3129  msg.sender */\n      caller\n        /* \"Crypto-side-main/stake.sol\":3096:3118  withdrawableInterestOf */\n      tag_26\n        /* \"Crypto-side-main/stake.sol\":3096:3130  withdrawableInterestOf(msg.sender) */\n      jump\t// in\n    tag_75:\n        /* \"Crypto-side-main/stake.sol\":3064:3130  uint256 _withdrawableInterest = withdrawableInterestOf(msg.sender) */\n      swap1\n      pop\n        /* \"Crypto-side-main/stake.sol\":3169:3170  0 */\n      0x00\n        /* \"Crypto-side-main/stake.sol\":3145:3166  _withdrawableInterest */\n      dup2\n        /* \"Crypto-side-main/stake.sol\":3145:3170  _withdrawableInterest > 0 */\n      gt\n        /* \"Crypto-side-main/stake.sol\":3141:3734  if (_withdrawableInterest > 0) {... */\n      iszero\n      tag_76\n      jumpi\n        /* \"Crypto-side-main/stake.sol\":3212:3268  withdrawnInterest[msg.sender].add(_withdrawableInterest) */\n      tag_77\n        /* \"Crypto-side-main/stake.sol\":3246:3267  _withdrawableInterest */\n      dup2\n        /* \"Crypto-side-main/stake.sol\":3212:3229  withdrawnInterest */\n      0x07\n        /* \"Crypto-side-main/stake.sol\":3212:3241  withdrawnInterest[msg.sender] */\n      0x00\n        /* \"Crypto-side-main/stake.sol\":3230:3240  msg.sender */\n      caller\n        /* \"Crypto-side-main/stake.sol\":3212:3241  withdrawnInterest[msg.sender] */\n      0xffffffffffffffffffffffffffffffffffffffff\n      and\n      0xffffffffffffffffffffffffffffffffffffffff\n      and\n      dup2\n      mstore\n      0x20\n      add\n      swap1\n      dup2\n      mstore\n      0x20\n      add\n      0x00\n      keccak256\n      sload\n        /* \"Crypto-side-main/stake.sol\":3212:3245  withdrawnInterest[msg.sender].add */\n      tag_78\n      swap1\n        /* \"Crypto-side-main/stake.sol\":3212:3268  withdrawnInterest[msg.sender].add(_withdrawableInterest) */\n      swap2\n      swap1\n      0xffffffff\n      and\n      jump\t// in\n    tag_77:\n        /* \"Crypto-side-main/stake.sol\":3180:3197  withdrawnInterest */\n      0x07\n        /* \"Crypto-side-main/stake.sol\":3180:3209  withdrawnInterest[msg.sender] */\n      0x00\n        /* \"Crypto-side-main/stake.sol\":3198:3208  msg.sender */\n      caller\n        /* \"Crypto-side-main/stake.sol\":3180:3209  withdrawnInterest[msg.sender] */\n      0xffffffffffffffffffffffffffffffffffffffff\n      and\n      0xffffffffffffffffffffffffffffffffffffffff\n      and\n      dup2\n      mstore\n      0x20\n      add\n      swap1\n      dup2\n      mstore\n      0x20\n      add\n      0x00\n      keccak256\n        /* \"Crypto-side-main/stake.sol\":3180:3268  withdrawnInterest[msg.sender] = withdrawnInterest[msg.sender].add(_withdrawableInterest) */\n      dup2\n      swap1\n      sstore\n      pop\n        /* \"Crypto-side-main/stake.sol\":3276:3292  uint usdcbalance */\n      0x00\n        /* \"Crypto-side-main/stake.sol\":3295:3299  usdc */\n      0x02\n      0x00\n      swap1\n      sload\n      swap1\n      0x0100\n      exp\n      swap1\n      div\n      0xffffffffffffffffffffffffffffffffffffffff\n      and\n        /* \"Crypto-side-main/stake.sol\":3295:3309  usdc.balanceOf */\n      0xffffffffffffffffffffffffffffffffffffffff\n      and\n      0x70a08231\n        /* \"Crypto-side-main/stake.sol\":3318:3322  this */\n      address\n        /* \"Crypto-side-main/stake.sol\":3295:3324  usdc.balanceOf(address(this)) */\n      mload(0x40)\n      dup3\n      0xffffffff\n      and\n      0xe0\n      shl\n      dup2\n      mstore\n      0x04\n      add\n      tag_79\n      swap2\n      swap1\n      tag_52\n      jump\t// in\n    tag_79:\n      0x20\n      mload(0x40)\n      dup1\n      dup4\n      sub\n      dup2\n      dup7\n      gas\n      staticcall\n      iszero\n      dup1\n      iszero\n      tag_81\n      jumpi\n      returndatasize\n      0x00\n      dup1\n      returndatacopy\n      revert(0x00, returndatasize)\n    tag_81:\n      pop\n      pop\n      pop\n      pop\n      mload(0x40)\n      returndatasize\n      not(0x1f)\n      0x1f\n      dup3\n      add\n      and\n      dup3\n      add\n      dup1\n      0x40\n      mstore\n      pop\n      dup2\n      add\n      swap1\n      tag_82\n      swap2\n      swap1\n      tag_83\n      jump\t// in\n    tag_82:\n        /* \"Crypto-side-main/stake.sol\":3276:3324  uint usdcbalance = usdc.balanceOf(address(this)) */\n      swap1\n      pop\n        /* \"Crypto-side-main/stake.sol\":3350:3351  0 */\n      0x00\n        /* \"Crypto-side-main/stake.sol\":3336:3347  usdcbalance */\n      dup2\n        /* \"Crypto-side-main/stake.sol\":3336:3351  usdcbalance > 0 */\n      gt\n        /* \"Crypto-side-main/stake.sol\":3332:3551  if (usdcbalance > 0) {... */\n      iszero\n      tag_84\n      jumpi\n        /* \"Crypto-side-main/stake.sol\":3363:3380  uint rebaseAmount */\n      0x00\n        /* \"Crypto-side-main/stake.sol\":3422:3445  currentdistrbutedBCKGOV */\n      sload(0x05)\n        /* \"Crypto-side-main/stake.sol\":3398:3419  _withdrawableInterest */\n      dup4\n        /* \"Crypto-side-main/stake.sol\":3398:3445  _withdrawableInterest / currentdistrbutedBCKGOV */\n      tag_85\n      swap2\n      swap1\n      tag_86\n      jump\t// in\n    tag_85:\n        /* \"Crypto-side-main/stake.sol\":3383:3394  usdcbalance */\n      dup3\n        /* \"Crypto-side-main/stake.sol\":3383:3446  usdcbalance * (_withdrawableInterest / currentdistrbutedBCKGOV) */\n      tag_87\n      swap2\n      swap1\n      tag_88\n      jump\t// in\n    tag_87:\n        /* \"Crypto-side-main/stake.sol\":3363:3446  uint rebaseAmount = usdcbalance * (_withdrawableInterest / currentdistrbutedBCKGOV) */\n      swap1\n      pop\n        /* \"Crypto-side-main/stake.sol\":3464:3468  usdc */\n      0x02\n      0x00\n      swap1\n      sload\n      swap1\n      0x0100\n      exp\n      swap1\n      div\n      0xffffffffffffffffffffffffffffffffffffffff\n      and\n        /* \"Crypto-side-main/stake.sol\":3464:3477  usdc.transfer */\n      0xffffffffffffffffffffffffffffffffffffffff\n      and\n      0xa9059cbb\n        /* \"Crypto-side-main/stake.sol\":3478:3488  msg.sender */\n      caller\n        /* \"Crypto-side-main/stake.sol\":3490:3502  rebaseAmount */\n      dup4\n        /* \"Crypto-side-main/stake.sol\":3464:3503  usdc.transfer(msg.sender, rebaseAmount) */\n      mload(0x40)\n      dup4\n      0xffffffff\n      and\n      0xe0\n      shl\n      dup2\n      mstore\n      0x04\n      add\n      tag_89\n      swap3\n      swap2\n      swap1\n      tag_90\n      jump\t// in\n    tag_89:\n      0x20\n      mload(0x40)\n      dup1\n      dup4\n      sub\n      dup2\n      0x00\n      dup8\n      gas\n      call\n      iszero\n      dup1\n      iszero\n      tag_92\n      jumpi\n      returndatasize\n      0x00\n      dup1\n      returndatacopy\n      revert(0x00, returndatasize)\n    tag_92:\n      pop\n      pop\n      pop\n      pop\n      mload(0x40)\n      returndatasize\n      not(0x1f)\n      0x1f\n      dup3\n      add\n      and\n      dup3\n      add\n      dup1\n      0x40\n      mstore\n      pop\n      dup2\n      add\n      swap1\n      tag_93\n      swap2\n      swap1\n      tag_94\n      jump\t// in\n    tag_93:\n        /* \"Crypto-side-main/stake.sol\":3456:3528  require(usdc.transfer(msg.sender, rebaseAmount), \"USDC transfer failed\") */\n      tag_95\n      jumpi\n      mload(0x40)\n      0x08c379a000000000000000000000000000000000000000000000000000000000\n      dup2\n      mstore\n      0x04\n      add\n      tag_96\n      swap1\n      tag_97\n      jump\t// in\n    tag_96:\n      mload(0x40)\n      dup1\n      swap2\n      sub\n      swap1\n      revert\n    tag_95:\n        /* \"Crypto-side-main/stake.sol\":3537:3544  return; */\n      pop\n      pop\n      pop\n      jump(tag_74)\n        /* \"Crypto-side-main/stake.sol\":3332:3551  if (usdcbalance > 0) {... */\n    tag_84:\n        /* \"Crypto-side-main/stake.sol\":3612:3633  _withdrawableInterest */\n      dup2\n        /* \"Crypto-side-main/stake.sol\":3585:3608  currentdistrbutedBCKGOV */\n      sload(0x05)\n        /* \"Crypto-side-main/stake.sol\":3585:3634  currentdistrbutedBCKGOV - (_withdrawableInterest) */\n      tag_98\n      swap2\n      swap1\n      tag_99\n      jump\t// in\n    tag_98:\n        /* \"Crypto-side-main/stake.sol\":3559:3582  currentdistrbutedBCKGOV */\n      0x05\n        /* \"Crypto-side-main/stake.sol\":3559:3634  currentdistrbutedBCKGOV = currentdistrbutedBCKGOV - (_withdrawableInterest) */\n      dup2\n      swap1\n      sstore\n      pop\n        /* \"Crypto-side-main/stake.sol\":3650:3658  esBCKGOV */\n      0x01\n      0x00\n      swap1\n      sload\n      swap1\n      0x0100\n      exp\n      swap1\n      div\n      0xffffffffffffffffffffffffffffffffffffffff\n      and\n        /* \"Crypto-side-main/stake.sol\":3650:3667  esBCKGOV.transfer */\n      0xffffffffffffffffffffffffffffffffffffffff\n      and\n      0xa9059cbb\n        /* \"Crypto-side-main/stake.sol\":3668:3678  msg.sender */\n      caller\n        /* \"Crypto-side-main/stake.sol\":3680:3701  _withdrawableInterest */\n      dup5\n        /* \"Crypto-side-main/stake.sol\":3650:3702  esBCKGOV.transfer(msg.sender, _withdrawableInterest) */\n      mload(0x40)\n      dup4\n      0xffffffff\n      and\n      0xe0\n      shl\n      dup2\n      mstore\n      0x04\n      add\n      tag_100\n      swap3\n      swap2\n      swap1\n      tag_90\n      jump\t// in\n    tag_100:\n      0x20\n      mload(0x40)\n      dup1\n      dup4\n      sub\n      dup2\n      0x00\n      dup8\n      gas\n      call\n      iszero\n      dup1\n      iszero\n      tag_102\n      jumpi\n      returndatasize\n      0x00\n      dup1\n      returndatacopy\n      revert(0x00, returndatasize)\n    tag_102:\n      pop\n      pop\n      pop\n      pop\n      mload(0x40)\n      returndatasize\n      not(0x1f)\n      0x1f\n      dup3\n      add\n      and\n      dup3\n      add\n      dup1\n      0x40\n      mstore\n      pop\n      dup2\n      add\n      swap1\n      tag_103\n      swap2\n      swap1\n      tag_94\n      jump\t// in\n    tag_103:\n        /* \"Crypto-side-main/stake.sol\":3642:3727  require(esBCKGOV.transfer(msg.sender, _withdrawableInterest), \"USDC transfer failed\") */\n      tag_104\n      jumpi\n      mload(0x40)\n      0x08c379a000000000000000000000000000000000000000000000000000000000\n      dup2\n      mstore\n      0x04\n      add\n      tag_105\n      swap1\n      tag_97\n      jump\t// in\n    tag_105:\n      mload(0x40)\n      dup1\n      swap2\n      sub\n      swap1\n      revert\n    tag_104:\n        /* \"Crypto-side-main/stake.sol\":3172:3734  {... */\n      pop\n        /* \"Crypto-side-main/stake.sol\":3141:3734  if (_withdrawableInterest > 0) {... */\n    tag_76:\n        /* \"Crypto-side-main/stake.sol\":3053:3738  {... */\n      pop\n        /* \"Crypto-side-main/stake.sol\":3018:3738  function withdrawInterest() public {... */\n    tag_74:\n      jump\t// out\n        /* \"Crypto-side-main/stake.sol\":3742:3904  function withdrawableInterestOf(address _owner) public view returns(uint256) {... */\n    tag_26:\n        /* \"Crypto-side-main/stake.sol\":3810:3817  uint256 */\n      0x00\n        /* \"Crypto-side-main/stake.sol\":3836:3897  accumulativeInterestOf(_owner).sub(withdrawnInterest[_owner]) */\n      tag_107\n        /* \"Crypto-side-main/stake.sol\":3871:3888  withdrawnInterest */\n      0x07\n        /* \"Crypto-side-main/stake.sol\":3871:3896  withdrawnInterest[_owner] */\n      0x00\n        /* \"Crypto-side-main/stake.sol\":3889:3895  _owner */\n      dup5\n        /* \"Crypto-side-main/stake.sol\":3871:3896  withdrawnInterest[_owner] */\n      0xffffffffffffffffffffffffffffffffffffffff\n      and\n      0xffffffffffffffffffffffffffffffffffffffff\n      and\n      dup2\n      mstore\n      0x20\n      add\n      swap1\n      dup2\n      mstore\n      0x20\n      add\n      0x00\n      keccak256\n      sload\n        /* \"Crypto-side-main/stake.sol\":3836:3866  accumulativeInterestOf(_owner) */\n      tag_108\n        /* \"Crypto-side-main/stake.sol\":3859:3865  _owner */\n      dup5\n        /* \"Crypto-side-main/stake.sol\":3836:3858  accumulativeInterestOf */\n      tag_55\n        /* \"Crypto-side-main/stake.sol\":3836:3866  accumulativeInterestOf(_owner) */\n      jump\t// in\n    tag_108:\n        /* \"Crypto-side-main/stake.sol\":3836:3870  accumulativeInterestOf(_owner).sub */\n      tag_109\n      swap1\n        /* \"Crypto-side-main/stake.sol\":3836:3897  accumulativeInterestOf(_owner).sub(withdrawnInterest[_owner]) */\n      swap2\n      swap1\n      0xffffffff\n      and\n      jump\t// in\n    tag_107:\n        /* \"Crypto-side-main/stake.sol\":3829:3897  return accumulativeInterestOf(_owner).sub(withdrawnInterest[_owner]) */\n      swap1\n      pop\n        /* \"Crypto-side-main/stake.sol\":3742:3904  function withdrawableInterestOf(address _owner) public view returns(uint256) {... */\n      swap2\n      swap1\n      pop\n      jump\t// out\n        /* \"Crypto-side-main/stake.sol\":603:646  mapping(address => uint256) public balances */\n    tag_31:\n      mstore(0x20, 0x08)\n      dup1\n      0x00\n      mstore\n      keccak256(0x00, 0x40)\n      0x00\n      swap2\n      pop\n      swap1\n      pop\n      sload\n      dup2\n      jump\t// out\n        /* \"Crypto-side-main/stake.sol\":436:474  uint256 public currentdistrbutedBCKGOV */\n    tag_34:\n      sload(0x05)\n      dup2\n      jump\t// out\n        /* \"Crypto-side-main/stake.sol\":296:313  ERC20 public usdc */\n    tag_37:\n      0x02\n      0x00\n      swap1\n      sload\n      swap1\n      0x0100\n      exp\n      swap1\n      div\n      0xffffffffffffffffffffffffffffffffffffffff\n      and\n      dup2\n      jump\t// out\n        /* \"Crypto-side-main/stake.sol\":271:292  ERC20 public esBCKGOV */\n    tag_41:\n      0x01\n      0x00\n      swap1\n      sload\n      swap1\n      0x0100\n      exp\n      swap1\n      div\n      0xffffffffffffffffffffffffffffffffffffffff\n      and\n      dup2\n      jump\t// out\n        /* \"Crypto-side-main/stake.sol\":251:267  ERC20 public bck */\n    tag_44:\n      0x00\n      dup1\n      sload\n      swap1\n      0x0100\n      exp\n      swap1\n      div\n      0xffffffffffffffffffffffffffffffffffffffff\n      and\n      dup2\n      jump\t// out\n        /* \"Crypto-side-main/stake.sol\":650:678  uint256 public totalDeposits */\n    tag_47:\n      sload(0x09)\n      dup2\n      jump\t// out\n        /* \"Crypto-side-main/stake.sol\":317:337  address public owner */\n    tag_50:\n      0x03\n      0x00\n      swap1\n      sload\n      swap1\n      0x0100\n      exp\n      swap1\n      div\n      0xffffffffffffffffffffffffffffffffffffffff\n      and\n      dup2\n      jump\t// out\n        /* \"Crypto-side-main/stake.sol\":4476:4710  function accumulativeInterestOf(address _owner) public view returns(uint256) {... */\n    tag_55:\n        /* \"Crypto-side-main/stake.sol\":4544:4551  uint256 */\n      0x00\n        /* \"Crypto-side-main/stake.sol\":380:386  2**128 */\n      0x0100000000000000000000000000000000\n        /* \"Crypto-side-main/stake.sol\":4566:4693  magnifiedInterestPerShare.mul(balances[_owner]).toInt256Safe()... */\n      tag_111\n        /* \"Crypto-side-main/stake.sol\":4566:4677  magnifiedInterestPerShare.mul(balances[_owner]).toInt256Safe()... */\n      tag_112\n        /* \"Crypto-side-main/stake.sol\":4640:4668  magnifiedInterestCorrections */\n      0x06\n        /* \"Crypto-side-main/stake.sol\":4640:4676  magnifiedInterestCorrections[_owner] */\n      0x00\n        /* \"Crypto-side-main/stake.sol\":4669:4675  _owner */\n      dup7\n        /* \"Crypto-side-main/stake.sol\":4640:4676  magnifiedInterestCorrections[_owner] */\n      0xffffffffffffffffffffffffffffffffffffffff\n      and\n      0xffffffffffffffffffffffffffffffffffffffff\n      and\n      dup2\n      mstore\n      0x20\n      add\n      swap1\n      dup2\n      mstore\n      0x20\n      add\n      0x00\n      keccak256\n      sload\n        /* \"Crypto-side-main/stake.sol\":4566:4628  magnifiedInterestPerShare.mul(balances[_owner]).toInt256Safe() */\n      tag_113\n        /* \"Crypto-side-main/stake.sol\":4566:4613  magnifiedInterestPerShare.mul(balances[_owner]) */\n      tag_114\n        /* \"Crypto-side-main/stake.sol\":4596:4604  balances */\n      0x08\n        /* \"Crypto-side-main/stake.sol\":4596:4612  balances[_owner] */\n      0x00\n        /* \"Crypto-side-main/stake.sol\":4605:4611  _owner */\n      dup10\n        /* \"Crypto-side-main/stake.sol\":4596:4612  balances[_owner] */\n      0xffffffffffffffffffffffffffffffffffffffff\n      and\n      0xffffffffffffffffffffffffffffffffffffffff\n      and\n      dup2\n      mstore\n      0x20\n      add\n      swap1\n      dup2\n      mstore\n      0x20\n      add\n      0x00\n      keccak256\n      sload\n        /* \"Crypto-side-main/stake.sol\":4566:4591  magnifiedInterestPerShare */\n      sload(0x04)\n        /* \"Crypto-side-main/stake.sol\":4566:4595  magnifiedInterestPerShare.mul */\n      tag_115\n      swap1\n        /* \"Crypto-side-main/stake.sol\":4566:4613  magnifiedInterestPerShare.mul(balances[_owner]) */\n      swap2\n      swap1\n      0xffffffff\n      and\n      jump\t// in\n    tag_114:\n        /* \"Crypto-side-main/stake.sol\":4566:4626  magnifiedInterestPerShare.mul(balances[_owner]).toInt256Safe */\n      tag_116\n        /* \"Crypto-side-main/stake.sol\":4566:4628  magnifiedInterestPerShare.mul(balances[_owner]).toInt256Safe() */\n      jump\t// in\n    tag_113:\n        /* \"Crypto-side-main/stake.sol\":4566:4639  magnifiedInterestPerShare.mul(balances[_owner]).toInt256Safe()... */\n      tag_117\n      swap1\n        /* \"Crypto-side-main/stake.sol\":4566:4677  magnifiedInterestPerShare.mul(balances[_owner]).toInt256Safe()... */\n      swap2\n      swap1\n      0xffffffff\n      and\n      jump\t// in\n    tag_112:\n        /* \"Crypto-side-main/stake.sol\":4566:4691  magnifiedInterestPerShare.mul(balances[_owner]).toInt256Safe()... */\n      tag_118\n        /* \"Crypto-side-main/stake.sol\":4566:4693  magnifiedInterestPerShare.mul(balances[_owner]).toInt256Safe()... */\n      jump\t// in\n    tag_111:\n        /* \"Crypto-side-main/stake.sol\":4566:4705  magnifiedInterestPerShare.mul(balances[_owner]).toInt256Safe()... */\n      tag_119\n      swap2\n      swap1\n      tag_86\n      jump\t// in\n    tag_119:\n        /* \"Crypto-side-main/stake.sol\":4559:4705  return magnifiedInterestPerShare.mul(balances[_owner]).toInt256Safe()... */\n      swap1\n      pop\n        /* \"Crypto-side-main/stake.sol\":4476:4710  function accumulativeInterestOf(address _owner) public view returns(uint256) {... */\n      swap2\n      swap1\n      pop\n      jump\t// out\n        /* \"Crypto-side-main/stake.sol\":2205:3014  function distributeBCKGOV(uint256 _amount) public {... */\n    tag_60:\n        /* \"Crypto-side-main/stake.sol\":2303:2329  uint256 ownerBCKGOVBalance */\n      0x00\n        /* \"Crypto-side-main/stake.sol\":2332:2340  esBCKGOV */\n      0x01\n      0x00\n      swap1\n      sload\n      swap1\n      0x0100\n      exp\n      swap1\n      div\n      0xffffffffffffffffffffffffffffffffffffffff\n      and\n        /* \"Crypto-side-main/stake.sol\":2332:2350  esBCKGOV.balanceOf */\n      0xffffffffffffffffffffffffffffffffffffffff\n      and\n      0x70a08231\n        /* \"Crypto-side-main/stake.sol\":2351:2361  msg.sender */\n      caller\n        /* \"Crypto-side-main/stake.sol\":2332:2362  esBCKGOV.balanceOf(msg.sender) */\n      mload(0x40)\n      dup3\n      0xffffffff\n      and\n      0xe0\n      shl\n      dup2\n      mstore\n      0x04\n      add\n      tag_121\n      swap2\n      swap1\n      tag_52\n      jump\t// in\n    tag_121:\n      0x20\n      mload(0x40)\n      dup1\n      dup4\n      sub\n      dup2\n      dup7\n      gas\n      staticcall\n      iszero\n      dup1\n      iszero\n      tag_123\n      jumpi\n      returndatasize\n      0x00\n      dup1\n      returndatacopy\n      revert(0x00, returndatasize)\n    tag_123:\n      pop\n      pop\n      pop\n      pop\n      mload(0x40)\n      returndatasize\n      not(0x1f)\n      0x1f\n      dup3\n      add\n      and\n      dup3\n      add\n      dup1\n      0x40\n      mstore\n      pop\n      dup2\n      add\n      swap1\n      tag_124\n      swap2\n      swap1\n      tag_83\n      jump\t// in\n    tag_124:\n        /* \"Crypto-side-main/stake.sol\":2303:2362  uint256 ownerBCKGOVBalance = esBCKGOV.balanceOf(msg.sender) */\n      swap1\n      pop\n        /* \"Crypto-side-main/stake.sol\":2398:2405  _amount */\n      dup2\n        /* \"Crypto-side-main/stake.sol\":2376:2394  ownerBCKGOVBalance */\n      dup2\n        /* \"Crypto-side-main/stake.sol\":2376:2405  ownerBCKGOVBalance >= _amount */\n      lt\n      iszero\n        /* \"Crypto-side-main/stake.sol\":2368:2445  require(ownerBCKGOVBalance >= _amount, \"Owner has insufficient USDC balance\") */\n      tag_125\n      jumpi\n      mload(0x40)\n      0x08c379a000000000000000000000000000000000000000000000000000000000\n      dup2\n      mstore\n      0x04\n      add\n      tag_126\n      swap1\n      tag_127\n      jump\t// in\n    tag_126:\n      mload(0x40)\n      dup1\n      swap2\n      sub\n      swap1\n      revert\n    tag_125:\n        /* \"Crypto-side-main/stake.sol\":2522:2523  0 */\n      0x00\n        /* \"Crypto-side-main/stake.sol\":2506:2519  totalDeposits */\n      sload(0x09)\n        /* \"Crypto-side-main/stake.sol\":2506:2523  totalDeposits > 0 */\n      gt\n        /* \"Crypto-side-main/stake.sol\":2502:2666  if (totalDeposits > 0) {... */\n      iszero\n      tag_128\n      jumpi\n        /* \"Crypto-side-main/stake.sol\":2563:2659  magnifiedInterestPerShare.add(... */\n      tag_129\n        /* \"Crypto-side-main/stake.sol\":2606:2649  (_amount).mul(magnitude).div(totalDeposits) */\n      tag_130\n        /* \"Crypto-side-main/stake.sol\":2635:2648  totalDeposits */\n      sload(0x09)\n        /* \"Crypto-side-main/stake.sol\":2606:2630  (_amount).mul(magnitude) */\n      tag_131\n        /* \"Crypto-side-main/stake.sol\":380:386  2**128 */\n      0x0100000000000000000000000000000000\n        /* \"Crypto-side-main/stake.sol\":2607:2614  _amount */\n      dup7\n        /* \"Crypto-side-main/stake.sol\":2606:2619  (_amount).mul */\n      tag_115\n      swap1\n        /* \"Crypto-side-main/stake.sol\":2606:2630  (_amount).mul(magnitude) */\n      swap2\n      swap1\n      0xffffffff\n      and\n      jump\t// in\n    tag_131:\n        /* \"Crypto-side-main/stake.sol\":2606:2634  (_amount).mul(magnitude).div */\n      tag_132\n      swap1\n        /* \"Crypto-side-main/stake.sol\":2606:2649  (_amount).mul(magnitude).div(totalDeposits) */\n      swap2\n      swap1\n      0xffffffff\n      and\n      jump\t// in\n    tag_130:\n        /* \"Crypto-side-main/stake.sol\":2563:2588  magnifiedInterestPerShare */\n      sload(0x04)\n        /* \"Crypto-side-main/stake.sol\":2563:2592  magnifiedInterestPerShare.add */\n      tag_78\n      swap1\n        /* \"Crypto-side-main/stake.sol\":2563:2659  magnifiedInterestPerShare.add(... */\n      swap2\n      swap1\n      0xffffffff\n      and\n      jump\t// in\n    tag_129:\n        /* \"Crypto-side-main/stake.sol\":2535:2560  magnifiedInterestPerShare */\n      0x04\n        /* \"Crypto-side-main/stake.sol\":2535:2659  magnifiedInterestPerShare = magnifiedInterestPerShare.add(... */\n      dup2\n      swap1\n      sstore\n      pop\n        /* \"Crypto-side-main/stake.sol\":2502:2666  if (totalDeposits > 0) {... */\n    tag_128:\n        /* \"Crypto-side-main/stake.sol\":2724:2731  _amount */\n      dup2\n        /* \"Crypto-side-main/stake.sol\":2698:2721  currentdistrbutedBCKGOV */\n      sload(0x05)\n        /* \"Crypto-side-main/stake.sol\":2698:2731  currentdistrbutedBCKGOV + _amount */\n      tag_133\n      swap2\n      swap1\n      tag_134\n      jump\t// in\n    tag_133:\n        /* \"Crypto-side-main/stake.sol\":2672:2695  currentdistrbutedBCKGOV */\n      0x05\n        /* \"Crypto-side-main/stake.sol\":2672:2731  currentdistrbutedBCKGOV = currentdistrbutedBCKGOV + _amount */\n      dup2\n      swap1\n      sstore\n      pop\n        /* \"Crypto-side-main/stake.sol\":2833:2843  msg.sender */\n      caller\n        /* \"Crypto-side-main/stake.sol\":2815:2853  BCKGOVDistributed(msg.sender, _amount) */\n      0xffffffffffffffffffffffffffffffffffffffff\n      and\n      0x04c03fe3ea6a2027470af10696e6e65a7eae16de0bd8ecf5f6d33b776de097a3\n        /* \"Crypto-side-main/stake.sol\":2845:2852  _amount */\n      dup4\n        /* \"Crypto-side-main/stake.sol\":2815:2853  BCKGOVDistributed(msg.sender, _amount) */\n      mload(0x40)\n      tag_135\n      swap2\n      swap1\n      tag_28\n      jump\t// in\n    tag_135:\n      mload(0x40)\n      dup1\n      swap2\n      sub\n      swap1\n      log2\n        /* \"Crypto-side-main/stake.sol\":2929:2937  esBCKGOV */\n      0x01\n      0x00\n      swap1\n      sload\n      swap1\n      0x0100\n      exp\n      swap1\n      div\n      0xffffffffffffffffffffffffffffffffffffffff\n      and\n        /* \"Crypto-side-main/stake.sol\":2929:2950  esBCKGOV.transferFrom */\n      0xffffffffffffffffffffffffffffffffffffffff\n      and\n      0x23b872dd\n        /* \"Crypto-side-main/stake.sol\":2951:2961  msg.sender */\n      caller\n        /* \"Crypto-side-main/stake.sol\":2971:2975  this */\n      address\n        /* \"Crypto-side-main/stake.sol\":2978:2985  _amount */\n      dup6\n        /* \"Crypto-side-main/stake.sol\":2929:2986  esBCKGOV.transferFrom(msg.sender, address(this), _amount) */\n      mload(0x40)\n      dup5\n      0xffffffff\n      and\n      0xe0\n      shl\n      dup2\n      mstore\n      0x04\n      add\n      tag_136\n      swap4\n      swap3\n      swap2\n      swap1\n      tag_137\n      jump\t// in\n    tag_136:\n      0x20\n      mload(0x40)\n      dup1\n      dup4\n      sub\n      dup2\n      0x00\n      dup8\n      gas\n      call\n      iszero\n      dup1\n      iszero\n      tag_139\n      jumpi\n      returndatasize\n      0x00\n      dup1\n      returndatacopy\n      revert(0x00, returndatasize)\n    tag_139:\n      pop\n      pop\n      pop\n      pop\n      mload(0x40)\n      returndatasize\n      not(0x1f)\n      0x1f\n      dup3\n      add\n      and\n      dup3\n      add\n      dup1\n      0x40\n      mstore\n      pop\n      dup2\n      add\n      swap1\n      tag_140\n      swap2\n      swap1\n      tag_94\n      jump\t// in\n    tag_140:\n        /* \"Crypto-side-main/stake.sol\":2921:3011  require(esBCKGOV.transferFrom(msg.sender, address(this), _amount), \"USDC transfer failed\") */\n      tag_141\n      jumpi\n      mload(0x40)\n      0x08c379a000000000000000000000000000000000000000000000000000000000\n      dup2\n      mstore\n      0x04\n      add\n      tag_142\n      swap1\n      tag_97\n      jump\t// in\n    tag_142:\n      mload(0x40)\n      dup1\n      swap2\n      sub\n      swap1\n      revert\n    tag_141:\n        /* \"Crypto-side-main/stake.sol\":2255:3014  {... */\n      pop\n        /* \"Crypto-side-main/stake.sol\":2205:3014  function distributeBCKGOV(uint256 _amount) public {... */\n      pop\n      jump\t// out\n        /* \"Crypto-side-main/stake.sol\":1021:1582  function depositBCK(uint256 _amount) public {... */\n    tag_63:\n        /* \"Crypto-side-main/stake.sol\":1079:1082  bck */\n      0x00\n      dup1\n      sload\n      swap1\n      0x0100\n      exp\n      swap1\n      div\n      0xffffffffffffffffffffffffffffffffffffffff\n      and\n        /* \"Crypto-side-main/stake.sol\":1079:1095  bck.transferFrom */\n      0xffffffffffffffffffffffffffffffffffffffff\n      and\n      0x23b872dd\n        /* \"Crypto-side-main/stake.sol\":1096:1106  msg.sender */\n      caller\n        /* \"Crypto-side-main/stake.sol\":1116:1120  this */\n      address\n        /* \"Crypto-side-main/stake.sol\":1123:1130  _amount */\n      dup5\n        /* \"Crypto-side-main/stake.sol\":1079:1131  bck.transferFrom(msg.sender, address(this), _amount) */\n      mload(0x40)\n      dup5\n      0xffffffff\n      and\n      0xe0\n      shl\n      dup2\n      mstore\n      0x04\n      add\n      tag_144\n      swap4\n      swap3\n      swap2\n      swap1\n      tag_137\n      jump\t// in\n    tag_144:\n      0x20\n      mload(0x40)\n      dup1\n      dup4\n      sub\n      dup2\n      0x00\n      dup8\n      gas\n      call\n      iszero\n      dup1\n      iszero\n      tag_146\n      jumpi\n      returndatasize\n      0x00\n      dup1\n      returndatacopy\n      revert(0x00, returndatasize)\n    tag_146:\n      pop\n      pop\n      pop\n      pop\n      mload(0x40)\n      returndatasize\n      not(0x1f)\n      0x1f\n      dup3\n      add\n      and\n      dup3\n      add\n      dup1\n      0x40\n      mstore\n      pop\n      dup2\n      add\n      swap1\n      tag_147\n      swap2\n      swap1\n      tag_94\n      jump\t// in\n    tag_147:\n        /* \"Crypto-side-main/stake.sol\":1071:1155  require(bck.transferFrom(msg.sender, address(this), _amount), \"BCK transfer failed\") */\n      tag_148\n      jumpi\n      mload(0x40)\n      0x08c379a000000000000000000000000000000000000000000000000000000000\n      dup2\n      mstore\n      0x04\n      add\n      tag_149\n      swap1\n      tag_150\n      jump\t// in\n    tag_149:\n      mload(0x40)\n      dup1\n      swap2\n      sub\n      swap1\n      revert\n    tag_148:\n        /* \"Crypto-side-main/stake.sol\":1356:1468  magnifiedInterestCorrections[msg.sender]... */\n      tag_151\n        /* \"Crypto-side-main/stake.sol\":1411:1466  (magnifiedInterestPerShare.mul(_amount)).toInt256Safe() */\n      tag_152\n        /* \"Crypto-side-main/stake.sol\":1412:1450  magnifiedInterestPerShare.mul(_amount) */\n      tag_153\n        /* \"Crypto-side-main/stake.sol\":1442:1449  _amount */\n      dup4\n        /* \"Crypto-side-main/stake.sol\":1412:1437  magnifiedInterestPerShare */\n      sload(0x04)\n        /* \"Crypto-side-main/stake.sol\":1412:1441  magnifiedInterestPerShare.mul */\n      tag_115\n      swap1\n        /* \"Crypto-side-main/stake.sol\":1412:1450  magnifiedInterestPerShare.mul(_amount) */\n      swap2\n      swap1\n      0xffffffff\n      and\n      jump\t// in\n    tag_153:\n        /* \"Crypto-side-main/stake.sol\":1411:1464  (magnifiedInterestPerShare.mul(_amount)).toInt256Safe */\n      tag_116\n        /* \"Crypto-side-main/stake.sol\":1411:1466  (magnifiedInterestPerShare.mul(_amount)).toInt256Safe() */\n      jump\t// in\n    tag_152:\n        /* \"Crypto-side-main/stake.sol\":1356:1384  magnifiedInterestCorrections */\n      0x06\n        /* \"Crypto-side-main/stake.sol\":1356:1396  magnifiedInterestCorrections[msg.sender] */\n      0x00\n        /* \"Crypto-side-main/stake.sol\":1385:1395  msg.sender */\n      caller\n        /* \"Crypto-side-main/stake.sol\":1356:1396  magnifiedInterestCorrections[msg.sender] */\n      0xffffffffffffffffffffffffffffffffffffffff\n      and\n      0xffffffffffffffffffffffffffffffffffffffff\n      and\n      dup2\n      mstore\n      0x20\n      add\n      swap1\n      dup2\n      mstore\n      0x20\n      add\n      0x00\n      keccak256\n      sload\n        /* \"Crypto-side-main/stake.sol\":1356:1409  magnifiedInterestCorrections[msg.sender]... */\n      tag_154\n      swap1\n        /* \"Crypto-side-main/stake.sol\":1356:1468  magnifiedInterestCorrections[msg.sender]... */\n      swap2\n      swap1\n      0xffffffff\n      and\n      jump\t// in\n    tag_151:\n        /* \"Crypto-side-main/stake.sol\":1313:1341  magnifiedInterestCorrections */\n      0x06\n        /* \"Crypto-side-main/stake.sol\":1313:1353  magnifiedInterestCorrections[msg.sender] */\n      0x00\n        /* \"Crypto-side-main/stake.sol\":1342:1352  msg.sender */\n      caller\n        /* \"Crypto-side-main/stake.sol\":1313:1353  magnifiedInterestCorrections[msg.sender] */\n      0xffffffffffffffffffffffffffffffffffffffff\n      and\n      0xffffffffffffffffffffffffffffffffffffffff\n      and\n      dup2\n      mstore\n      0x20\n      add\n      swap1\n      dup2\n      mstore\n      0x20\n      add\n      0x00\n      keccak256\n        /* \"Crypto-side-main/stake.sol\":1313:1468  magnifiedInterestCorrections[msg.sender] = magnifiedInterestCorrections[msg.sender]... */\n      dup2\n      swap1\n      sstore\n      pop\n        /* \"Crypto-side-main/stake.sol\":1498:1531  balances[msg.sender].add(_amount) */\n      tag_155\n        /* \"Crypto-side-main/stake.sol\":1523:1530  _amount */\n      dup2\n        /* \"Crypto-side-main/stake.sol\":1498:1506  balances */\n      0x08\n        /* \"Crypto-side-main/stake.sol\":1498:1518  balances[msg.sender] */\n      0x00\n        /* \"Crypto-side-main/stake.sol\":1507:1517  msg.sender */\n      caller\n        /* \"Crypto-side-main/stake.sol\":1498:1518  balances[msg.sender] */\n      0xffffffffffffffffffffffffffffffffffffffff\n      and\n      0xffffffffffffffffffffffffffffffffffffffff\n      and\n      dup2\n      mstore\n      0x20\n      add\n      swap1\n      dup2\n      mstore\n      0x20\n      add\n      0x00\n      keccak256\n      sload\n        /* \"Crypto-side-main/stake.sol\":1498:1522  balances[msg.sender].add */\n      tag_78\n      swap1\n        /* \"Crypto-side-main/stake.sol\":1498:1531  balances[msg.sender].add(_amount) */\n      swap2\n      swap1\n      0xffffffff\n      and\n      jump\t// in\n    tag_155:\n        /* \"Crypto-side-main/stake.sol\":1475:1483  balances */\n      0x08\n        /* \"Crypto-side-main/stake.sol\":1475:1495  balances[msg.sender] */\n      0x00\n        /* \"Crypto-side-main/stake.sol\":1484:1494  msg.sender */\n      caller\n        /* \"Crypto-side-main/stake.sol\":1475:1495  balances[msg.sender] */\n      0xffffffffffffffffffffffffffffffffffffffff\n      and\n      0xffffffffffffffffffffffffffffffffffffffff\n      and\n      dup2\n      mstore\n      0x20\n      add\n      swap1\n      dup2\n      mstore\n      0x20\n      add\n      0x00\n      keccak256\n        /* \"Crypto-side-main/stake.sol\":1475:1531  balances[msg.sender] = balances[msg.sender].add(_amount) */\n      dup2\n      swap1\n      sstore\n      pop\n        /* \"Crypto-side-main/stake.sol\":1553:1579  totalDeposits.add(_amount) */\n      tag_156\n        /* \"Crypto-side-main/stake.sol\":1571:1578  _amount */\n      dup2\n        /* \"Crypto-side-main/stake.sol\":1553:1566  totalDeposits */\n      sload(0x09)\n        /* \"Crypto-side-main/stake.sol\":1553:1570  totalDeposits.add */\n      tag_78\n      swap1\n        /* \"Crypto-side-main/stake.sol\":1553:1579  totalDeposits.add(_amount) */\n      swap2\n      swap1\n      0xffffffff\n      and\n      jump\t// in\n    tag_156:\n        /* \"Crypto-side-main/stake.sol\":1537:1550  totalDeposits */\n      0x09\n        /* \"Crypto-side-main/stake.sol\":1537:1579  totalDeposits = totalDeposits.add(_amount) */\n      dup2\n      swap1\n      sstore\n      pop\n        /* \"Crypto-side-main/stake.sol\":1021:1582  function depositBCK(uint256 _amount) public {... */\n      pop\n      jump\t// out\n        /* \"Crypto-side-main/stake.sol\":546:598  mapping(address => uint256) public withdrawnInterest */\n    tag_66:\n      mstore(0x20, 0x07)\n      dup1\n      0x00\n      mstore\n      keccak256(0x00, 0x40)\n      0x00\n      swap2\n      pop\n      swap1\n      pop\n      sload\n      dup2\n      jump\t// out\n        /* \"Crypto-side-main/stake.sol\":1585:2203  function withdrawBCK(uint256 _amount) public {... */\n    tag_70:\n        /* \"Crypto-side-main/stake.sol\":1668:1675  _amount */\n      dup1\n        /* \"Crypto-side-main/stake.sol\":1644:1652  balances */\n      0x08\n        /* \"Crypto-side-main/stake.sol\":1644:1664  balances[msg.sender] */\n      0x00\n        /* \"Crypto-side-main/stake.sol\":1653:1663  msg.sender */\n      caller\n        /* \"Crypto-side-main/stake.sol\":1644:1664  balances[msg.sender] */\n      0xffffffffffffffffffffffffffffffffffffffff\n      and\n      0xffffffffffffffffffffffffffffffffffffffff\n      and\n      dup2\n      mstore\n      0x20\n      add\n      swap1\n      dup2\n      mstore\n      0x20\n      add\n      0x00\n      keccak256\n      sload\n        /* \"Crypto-side-main/stake.sol\":1644:1675  balances[msg.sender] >= _amount */\n      lt\n      iszero\n        /* \"Crypto-side-main/stake.sol\":1636:1704  require(balances[msg.sender] >= _amount, \"Insufficient BCK balance\") */\n      tag_158\n      jumpi\n      mload(0x40)\n      0x08c379a000000000000000000000000000000000000000000000000000000000\n      dup2\n      mstore\n      0x04\n      add\n      tag_159\n      swap1\n      tag_160\n      jump\t// in\n    tag_159:\n      mload(0x40)\n      dup1\n      swap2\n      sub\n      swap1\n      revert\n    tag_158:\n        /* \"Crypto-side-main/stake.sol\":1906:2018  magnifiedInterestCorrections[msg.sender]... */\n      tag_161\n        /* \"Crypto-side-main/stake.sol\":1961:2016  (magnifiedInterestPerShare.mul(_amount)).toInt256Safe() */\n      tag_162\n        /* \"Crypto-side-main/stake.sol\":1962:2000  magnifiedInterestPerShare.mul(_amount) */\n      tag_163\n        /* \"Crypto-side-main/stake.sol\":1992:1999  _amount */\n      dup4\n        /* \"Crypto-side-main/stake.sol\":1962:1987  magnifiedInterestPerShare */\n      sload(0x04)\n        /* \"Crypto-side-main/stake.sol\":1962:1991  magnifiedInterestPerShare.mul */\n      tag_115\n      swap1\n        /* \"Crypto-side-main/stake.sol\":1962:2000  magnifiedInterestPerShare.mul(_amount) */\n      swap2\n      swap1\n      0xffffffff\n      and\n      jump\t// in\n    tag_163:\n        /* \"Crypto-side-main/stake.sol\":1961:2014  (magnifiedInterestPerShare.mul(_amount)).toInt256Safe */\n      tag_116\n        /* \"Crypto-side-main/stake.sol\":1961:2016  (magnifiedInterestPerShare.mul(_amount)).toInt256Safe() */\n      jump\t// in\n    tag_162:\n        /* \"Crypto-side-main/stake.sol\":1906:1934  magnifiedInterestCorrections */\n      0x06\n        /* \"Crypto-side-main/stake.sol\":1906:1946  magnifiedInterestCorrections[msg.sender] */\n      0x00\n        /* \"Crypto-side-main/stake.sol\":1935:1945  msg.sender */\n      caller\n        /* \"Crypto-side-main/stake.sol\":1906:1946  magnifiedInterestCorrections[msg.sender] */\n      0xffffffffffffffffffffffffffffffffffffffff\n      and\n      0xffffffffffffffffffffffffffffffffffffffff\n      and\n      dup2\n      mstore\n      0x20\n      add\n      swap1\n      dup2\n      mstore\n      0x20\n      add\n      0x00\n      keccak256\n      sload\n        /* \"Crypto-side-main/stake.sol\":1906:1959  magnifiedInterestCorrections[msg.sender]... */\n      tag_117\n      swap1\n        /* \"Crypto-side-main/stake.sol\":1906:2018  magnifiedInterestCorrections[msg.sender]... */\n      swap2\n      swap1\n      0xffffffff\n      and\n      jump\t// in\n    tag_161:\n        /* \"Crypto-side-main/stake.sol\":1863:1891  magnifiedInterestCorrections */\n      0x06\n        /* \"Crypto-side-main/stake.sol\":1863:1903  magnifiedInterestCorrections[msg.sender] */\n      0x00\n        /* \"Crypto-side-main/stake.sol\":1892:1902  msg.sender */\n      caller\n        /* \"Crypto-side-main/stake.sol\":1863:1903  magnifiedInterestCorrections[msg.sender] */\n      0xffffffffffffffffffffffffffffffffffffffff\n      and\n      0xffffffffffffffffffffffffffffffffffffffff\n      and\n      dup2\n      mstore\n      0x20\n      add\n      swap1\n      dup2\n      mstore\n      0x20\n      add\n      0x00\n      keccak256\n        /* \"Crypto-side-main/stake.sol\":1863:2018  magnifiedInterestCorrections[msg.sender] = magnifiedInterestCorrections[msg.sender]... */\n      dup2\n      swap1\n      sstore\n      pop\n        /* \"Crypto-side-main/stake.sol\":2048:2081  balances[msg.sender].sub(_amount) */\n      tag_164\n        /* \"Crypto-side-main/stake.sol\":2073:2080  _amount */\n      dup2\n        /* \"Crypto-side-main/stake.sol\":2048:2056  balances */\n      0x08\n        /* \"Crypto-side-main/stake.sol\":2048:2068  balances[msg.sender] */\n      0x00\n        /* \"Crypto-side-main/stake.sol\":2057:2067  msg.sender */\n      caller\n        /* \"Crypto-side-main/stake.sol\":2048:2068  balances[msg.sender] */\n      0xffffffffffffffffffffffffffffffffffffffff\n      and\n      0xffffffffffffffffffffffffffffffffffffffff\n      and\n      dup2\n      mstore\n      0x20\n      add\n      swap1\n      dup2\n      mstore\n      0x20\n      add\n      0x00\n      keccak256\n      sload\n        /* \"Crypto-side-main/stake.sol\":2048:2072  balances[msg.sender].sub */\n      tag_109\n      swap1\n        /* \"Crypto-side-main/stake.sol\":2048:2081  balances[msg.sender].sub(_amount) */\n      swap2\n      swap1\n      0xffffffff\n      and\n      jump\t// in\n    tag_164:\n        /* \"Crypto-side-main/stake.sol\":2025:2033  balances */\n      0x08\n        /* \"Crypto-side-main/stake.sol\":2025:2045  balances[msg.sender] */\n      0x00\n        /* \"Crypto-side-main/stake.sol\":2034:2044  msg.sender */\n      caller\n        /* \"Crypto-side-main/stake.sol\":2025:2045  balances[msg.sender] */\n      0xffffffffffffffffffffffffffffffffffffffff\n      and\n      0xffffffffffffffffffffffffffffffffffffffff\n      and\n      dup2\n      mstore\n      0x20\n      add\n      swap1\n      dup2\n      mstore\n      0x20\n      add\n      0x00\n      keccak256\n        /* \"Crypto-side-main/stake.sol\":2025:2081  balances[msg.sender] = balances[msg.sender].sub(_amount) */\n      dup2\n      swap1\n      sstore\n      pop\n        /* \"Crypto-side-main/stake.sol\":2103:2129  totalDeposits.sub(_amount) */\n      tag_165\n        /* \"Crypto-side-main/stake.sol\":2121:2128  _amount */\n      dup2\n        /* \"Crypto-side-main/stake.sol\":2103:2116  totalDeposits */\n      sload(0x09)\n        /* \"Crypto-side-main/stake.sol\":2103:2120  totalDeposits.sub */\n      tag_109\n      swap1\n        /* \"Crypto-side-main/stake.sol\":2103:2129  totalDeposits.sub(_amount) */\n      swap2\n      swap1\n      0xffffffff\n      and\n      jump\t// in\n    tag_165:\n        /* \"Crypto-side-main/stake.sol\":2087:2100  totalDeposits */\n      0x09\n        /* \"Crypto-side-main/stake.sol\":2087:2129  totalDeposits = totalDeposits.sub(_amount) */\n      dup2\n      swap1\n      sstore\n      pop\n        /* \"Crypto-side-main/stake.sol\":2143:2146  bck */\n      0x00\n      dup1\n      sload\n      swap1\n      0x0100\n      exp\n      swap1\n      div\n      0xffffffffffffffffffffffffffffffffffffffff\n      and\n        /* \"Crypto-side-main/stake.sol\":2143:2155  bck.transfer */\n      0xffffffffffffffffffffffffffffffffffffffff\n      and\n      0xa9059cbb\n        /* \"Crypto-side-main/stake.sol\":2156:2166  msg.sender */\n      caller\n        /* \"Crypto-side-main/stake.sol\":2168:2175  _amount */\n      dup4\n        /* \"Crypto-side-main/stake.sol\":2143:2176  bck.transfer(msg.sender, _amount) */\n      mload(0x40)\n      dup4\n      0xffffffff\n      and\n      0xe0\n      shl\n      dup2\n      mstore\n      0x04\n      add\n      tag_166\n      swap3\n      swap2\n      swap1\n      tag_90\n      jump\t// in\n    tag_166:\n      0x20\n      mload(0x40)\n      dup1\n      dup4\n      sub\n      dup2\n      0x00\n      dup8\n      gas\n      call\n      iszero\n      dup1\n      iszero\n      tag_168\n      jumpi\n      returndatasize\n      0x00\n      dup1\n      returndatacopy\n      revert(0x00, returndatasize)\n    tag_168:\n      pop\n      pop\n      pop\n      pop\n      mload(0x40)\n      returndatasize\n      not(0x1f)\n      0x1f\n      dup3\n      add\n      and\n      dup3\n      add\n      dup1\n      0x40\n      mstore\n      pop\n      dup2\n      add\n      swap1\n      tag_169\n      swap2\n      swap1\n      tag_94\n      jump\t// in\n    tag_169:\n        /* \"Crypto-side-main/stake.sol\":2135:2200  require(bck.transfer(msg.sender, _amount), \"BCK transfer failed\") */\n      tag_170\n      jumpi\n      mload(0x40)\n      0x08c379a000000000000000000000000000000000000000000000000000000000\n      dup2\n      mstore\n      0x04\n      add\n      tag_171\n      swap1\n      tag_150\n      jump\t// in\n    tag_171:\n      mload(0x40)\n      dup1\n      swap2\n      sub\n      swap1\n      revert\n    tag_170:\n        /* \"Crypto-side-main/stake.sol\":1585:2203  function withdrawBCK(uint256 _amount) public {... */\n      pop\n      jump\t// out\n        /* \"Crypto-side-main/stake.sol\":3991:4470  function excessBCKGOVTest () public view returns(uint) {... */\n    tag_72:\n        /* \"Crypto-side-main/stake.sol\":4040:4044  uint */\n      0x00\n        /* \"Crypto-side-main/stake.sol\":4088:4089  0 */\n      dup1\n        /* \"Crypto-side-main/stake.sol\":4062:4085  currentdistrbutedBCKGOV */\n      sload(0x05)\n        /* \"Crypto-side-main/stake.sol\":4062:4089  currentdistrbutedBCKGOV > 0 */\n      gt\n        /* \"Crypto-side-main/stake.sol\":4054:4140  require(currentdistrbutedBCKGOV > 0, \"THERE IS NO esBCKGOV INTEREST LEFT TO WITHDRAW\") */\n      tag_173\n      jumpi\n      mload(0x40)\n      0x08c379a000000000000000000000000000000000000000000000000000000000\n      dup2\n      mstore\n      0x04\n      add\n      tag_174\n      swap1\n      tag_175\n      jump\t// in\n    tag_174:\n      mload(0x40)\n      dup1\n      swap2\n      sub\n      swap1\n      revert\n    tag_173:\n        /* \"Crypto-side-main/stake.sol\":4150:4179  uint256 _withdrawableInterest */\n      0x00\n        /* \"Crypto-side-main/stake.sol\":4182:4216  withdrawableInterestOf(msg.sender) */\n      tag_176\n        /* \"Crypto-side-main/stake.sol\":4205:4215  msg.sender */\n      caller\n        /* \"Crypto-side-main/stake.sol\":4182:4204  withdrawableInterestOf */\n      tag_26\n        /* \"Crypto-side-main/stake.sol\":4182:4216  withdrawableInterestOf(msg.sender) */\n      jump\t// in\n    tag_176:\n        /* \"Crypto-side-main/stake.sol\":4150:4216  uint256 _withdrawableInterest = withdrawableInterestOf(msg.sender) */\n      swap1\n      pop\n        /* \"Crypto-side-main/stake.sol\":4226:4241  uint excessUSDC */\n      0x00\n        /* \"Crypto-side-main/stake.sol\":4244:4248  usdc */\n      0x02\n      0x00\n      swap1\n      sload\n      swap1\n      0x0100\n      exp\n      swap1\n      div\n      0xffffffffffffffffffffffffffffffffffffffff\n      and\n        /* \"Crypto-side-main/stake.sol\":4244:4258  usdc.balanceOf */\n      0xffffffffffffffffffffffffffffffffffffffff\n      and\n      0x70a08231\n        /* \"Crypto-side-main/stake.sol\":4267:4271  this */\n      address\n        /* \"Crypto-side-main/stake.sol\":4244:4273  usdc.balanceOf(address(this)) */\n      mload(0x40)\n      dup3\n      0xffffffff\n      and\n      0xe0\n      shl\n      dup2\n      mstore\n      0x04\n      add\n      tag_177\n      swap2\n      swap1\n      tag_52\n      jump\t// in\n    tag_177:\n      0x20\n      mload(0x40)\n      dup1\n      dup4\n      sub\n      dup2\n      dup7\n      gas\n      staticcall\n      iszero\n      dup1\n      iszero\n      tag_179\n      jumpi\n      returndatasize\n      0x00\n      dup1\n      returndatacopy\n      revert(0x00, returndatasize)\n    tag_179:\n      pop\n      pop\n      pop\n      pop\n      mload(0x40)\n      returndatasize\n      not(0x1f)\n      0x1f\n      dup3\n      add\n      and\n      dup3\n      add\n      dup1\n      0x40\n      mstore\n      pop\n      dup2\n      add\n      swap1\n      tag_180\n      swap2\n      swap1\n      tag_83\n      jump\t// in\n    tag_180:\n        /* \"Crypto-side-main/stake.sol\":4226:4273  uint excessUSDC = usdc.balanceOf(address(this)) */\n      swap1\n      pop\n        /* \"Crypto-side-main/stake.sol\":4283:4300  uint rebaseAmount */\n      0x00\n        /* \"Crypto-side-main/stake.sol\":4341:4364  currentdistrbutedBCKGOV */\n      sload(0x05)\n        /* \"Crypto-side-main/stake.sol\":4317:4338  _withdrawableInterest */\n      dup4\n        /* \"Crypto-side-main/stake.sol\":4317:4364  _withdrawableInterest / currentdistrbutedBCKGOV */\n      tag_181\n      swap2\n      swap1\n      tag_86\n      jump\t// in\n    tag_181:\n        /* \"Crypto-side-main/stake.sol\":4303:4313  excessUSDC */\n      dup3\n        /* \"Crypto-side-main/stake.sol\":4303:4365  excessUSDC * (_withdrawableInterest / currentdistrbutedBCKGOV) */\n      tag_182\n      swap2\n      swap1\n      tag_88\n      jump\t// in\n    tag_182:\n        /* \"Crypto-side-main/stake.sol\":4283:4365  uint rebaseAmount = excessUSDC * (_withdrawableInterest / currentdistrbutedBCKGOV) */\n      swap1\n      pop\n        /* \"Crypto-side-main/stake.sol\":4375:4405  uint _withdrawableInterestprem */\n      0x00\n        /* \"Crypto-side-main/stake.sol\":4409:4421  rebaseAmount */\n      dup2\n        /* \"Crypto-side-main/stake.sol\":4375:4421  uint _withdrawableInterestprem =  rebaseAmount */\n      swap1\n      pop\n        /* \"Crypto-side-main/stake.sol\":4438:4463  _withdrawableInterestprem */\n      dup1\n        /* \"Crypto-side-main/stake.sol\":4431:4463  return _withdrawableInterestprem */\n      swap5\n      pop\n      pop\n      pop\n      pop\n      pop\n        /* \"Crypto-side-main/stake.sol\":3991:4470  function excessBCKGOVTest () public view returns(uint) {... */\n      swap1\n      jump\t// out\n        /* \"Crypto-side-main/Safemathuint2.sol\":1086:1209  function add(uint256 a, uint256 b) internal pure returns (uint256 c) {... */\n    tag_78:\n        /* \"Crypto-side-main/Safemathuint2.sol\":1144:1153  uint256 c */\n      0x00\n        /* \"Crypto-side-main/Safemathuint2.sol\":1169:1170  b */\n      dup2\n        /* \"Crypto-side-main/Safemathuint2.sol\":1165:1166  a */\n      dup4\n        /* \"Crypto-side-main/Safemathuint2.sol\":1165:1170  a + b */\n      tag_184\n      swap2\n      swap1\n      tag_134\n      jump\t// in\n    tag_184:\n        /* \"Crypto-side-main/Safemathuint2.sol\":1161:1170  c = a + b */\n      swap1\n      pop\n        /* \"Crypto-side-main/Safemathuint2.sol\":1188:1189  a */\n      dup3\n        /* \"Crypto-side-main/Safemathuint2.sol\":1183:1184  c */\n      dup2\n        /* \"Crypto-side-main/Safemathuint2.sol\":1183:1189  c >= a */\n      lt\n      iszero\n        /* \"Crypto-side-main/Safemathuint2.sol\":1176:1190  assert(c >= a) */\n      tag_185\n      jumpi\n      tag_186\n      tag_187\n      jump\t// in\n    tag_186:\n    tag_185:\n        /* \"Crypto-side-main/Safemathuint2.sol\":1086:1209  function add(uint256 a, uint256 b) internal pure returns (uint256 c) {... */\n      swap3\n      swap2\n      pop\n      pop\n      jump\t// out\n        /* \"Crypto-side-main/Safemathuint2.sol\":914:1024  function sub(uint256 a, uint256 b) internal pure returns (uint256) {... */\n    tag_109:\n        /* \"Crypto-side-main/Safemathuint2.sol\":972:979  uint256 */\n      0x00\n        /* \"Crypto-side-main/Safemathuint2.sol\":999:1000  a */\n      dup3\n        /* \"Crypto-side-main/Safemathuint2.sol\":994:995  b */\n      dup3\n        /* \"Crypto-side-main/Safemathuint2.sol\":994:1000  b <= a */\n      gt\n      iszero\n        /* \"Crypto-side-main/Safemathuint2.sol\":987:1001  assert(b <= a) */\n      tag_189\n      jumpi\n      tag_190\n      tag_187\n      jump\t// in\n    tag_190:\n    tag_189:\n        /* \"Crypto-side-main/Safemathuint2.sol\":1018:1019  b */\n      dup2\n        /* \"Crypto-side-main/Safemathuint2.sol\":1014:1015  a */\n      dup4\n        /* \"Crypto-side-main/Safemathuint2.sol\":1014:1019  a - b */\n      tag_191\n      swap2\n      swap1\n      tag_99\n      jump\t// in\n    tag_191:\n        /* \"Crypto-side-main/Safemathuint2.sol\":1007:1019  return a - b */\n      swap1\n      pop\n        /* \"Crypto-side-main/Safemathuint2.sol\":914:1024  function sub(uint256 a, uint256 b) internal pure returns (uint256) {... */\n      swap3\n      swap2\n      pop\n      pop\n      jump\t// out\n        /* \"Crypto-side-main/Safemathuint2.sol\":281:448  function mul(uint256 a, uint256 b) internal pure returns (uint256 c) {... */\n    tag_115:\n        /* \"Crypto-side-main/Safemathuint2.sol\":339:348  uint256 c */\n      0x00\n        /* \"Crypto-side-main/Safemathuint2.sol\":365:366  0 */\n      dup1\n        /* \"Crypto-side-main/Safemathuint2.sol\":360:361  a */\n      dup4\n        /* \"Crypto-side-main/Safemathuint2.sol\":360:366  a == 0 */\n      sub\n        /* \"Crypto-side-main/Safemathuint2.sol\":356:391  if (a == 0) {... */\n      tag_193\n      jumpi\n        /* \"Crypto-side-main/Safemathuint2.sol\":383:384  0 */\n      0x00\n        /* \"Crypto-side-main/Safemathuint2.sol\":376:384  return 0 */\n      swap1\n      pop\n      jump(tag_192)\n        /* \"Crypto-side-main/Safemathuint2.sol\":356:391  if (a == 0) {... */\n    tag_193:\n        /* \"Crypto-side-main/Safemathuint2.sol\":404:405  b */\n      dup2\n        /* \"Crypto-side-main/Safemathuint2.sol\":400:401  a */\n      dup4\n        /* \"Crypto-side-main/Safemathuint2.sol\":400:405  a * b */\n      tag_194\n      swap2\n      swap1\n      tag_88\n      jump\t// in\n    tag_194:\n        /* \"Crypto-side-main/Safemathuint2.sol\":396:405  c = a * b */\n      swap1\n      pop\n        /* \"Crypto-side-main/Safemathuint2.sol\":427:428  b */\n      dup2\n        /* \"Crypto-side-main/Safemathuint2.sol\":422:423  a */\n      dup4\n        /* \"Crypto-side-main/Safemathuint2.sol\":418:419  c */\n      dup3\n        /* \"Crypto-side-main/Safemathuint2.sol\":418:423  c / a */\n      tag_195\n      swap2\n      swap1\n      tag_86\n      jump\t// in\n    tag_195:\n        /* \"Crypto-side-main/Safemathuint2.sol\":418:428  c / a == b */\n      eq\n        /* \"Crypto-side-main/Safemathuint2.sol\":411:429  assert(c / a == b) */\n      tag_196\n      jumpi\n      tag_197\n      tag_187\n      jump\t// in\n    tag_197:\n    tag_196:\n        /* \"Crypto-side-main/Safemathuint2.sol\":281:448  function mul(uint256 a, uint256 b) internal pure returns (uint256 c) {... */\n    tag_192:\n      swap3\n      swap2\n      pop\n      pop\n      jump\t// out\n        /* \"Crypto-side-main/Safemathuint2.sol\":146:276  function toInt256Safe(uint256 a) internal pure returns (int256) {... */\n    tag_116:\n        /* \"Crypto-side-main/Safemathuint2.sol\":202:208  int256 */\n      0x00\n        /* \"Crypto-side-main/Safemathuint2.sol\":216:224  int256 b */\n      dup1\n        /* \"Crypto-side-main/Safemathuint2.sol\":234:235  a */\n      dup3\n        /* \"Crypto-side-main/Safemathuint2.sol\":216:236  int256 b = int256(a) */\n      swap1\n      pop\n        /* \"Crypto-side-main/Safemathuint2.sol\":255:256  0 */\n      0x00\n        /* \"Crypto-side-main/Safemathuint2.sol\":250:251  b */\n      dup2\n        /* \"Crypto-side-main/Safemathuint2.sol\":250:256  b >= 0 */\n      slt\n      iszero\n        /* \"Crypto-side-main/Safemathuint2.sol\":242:257  require(b >= 0) */\n      tag_199\n      jumpi\n      0x00\n      dup1\n      revert\n    tag_199:\n        /* \"Crypto-side-main/Safemathuint2.sol\":270:271  b */\n      dup1\n        /* \"Crypto-side-main/Safemathuint2.sol\":263:271  return b */\n      swap2\n      pop\n      pop\n        /* \"Crypto-side-main/Safemathuint2.sol\":146:276  function toInt256Safe(uint256 a) internal pure returns (int256) {... */\n      swap2\n      swap1\n      pop\n      jump\t// out\n        /* \"Crypto-side-main/SafemathInt2.sol\":1103:1261  function add(int256 a, int256 b) internal pure returns (int256) {... */\n    tag_117:\n        /* \"Crypto-side-main/SafemathInt2.sol\":1159:1165  int256 */\n      0x00\n        /* \"Crypto-side-main/SafemathInt2.sol\":1173:1181  int256 c */\n      dup1\n        /* \"Crypto-side-main/SafemathInt2.sol\":1188:1189  b */\n      dup3\n        /* \"Crypto-side-main/SafemathInt2.sol\":1184:1185  a */\n      dup5\n        /* \"Crypto-side-main/SafemathInt2.sol\":1184:1189  a + b */\n      tag_201\n      swap2\n      swap1\n      tag_202\n      jump\t// in\n    tag_201:\n        /* \"Crypto-side-main/SafemathInt2.sol\":1173:1189  int256 c = a + b */\n      swap1\n      pop\n        /* \"Crypto-side-main/SafemathInt2.sol\":1209:1210  0 */\n      0x00\n        /* \"Crypto-side-main/SafemathInt2.sol\":1204:1205  b */\n      dup4\n        /* \"Crypto-side-main/SafemathInt2.sol\":1204:1210  b >= 0 */\n      slt\n      iszero\n        /* \"Crypto-side-main/SafemathInt2.sol\":1204:1220  b >= 0 && c >= a */\n      dup1\n      iszero\n      tag_203\n      jumpi\n      pop\n        /* \"Crypto-side-main/SafemathInt2.sol\":1219:1220  a */\n      dup4\n        /* \"Crypto-side-main/SafemathInt2.sol\":1214:1215  c */\n      dup2\n        /* \"Crypto-side-main/SafemathInt2.sol\":1214:1220  c >= a */\n      slt\n      iszero\n        /* \"Crypto-side-main/SafemathInt2.sol\":1204:1220  b >= 0 && c >= a */\n    tag_203:\n        /* \"Crypto-side-main/SafemathInt2.sol\":1203:1241  (b >= 0 && c >= a) || (b < 0 && c < a) */\n      dup1\n      tag_204\n      jumpi\n      pop\n        /* \"Crypto-side-main/SafemathInt2.sol\":1230:1231  0 */\n      0x00\n        /* \"Crypto-side-main/SafemathInt2.sol\":1226:1227  b */\n      dup4\n        /* \"Crypto-side-main/SafemathInt2.sol\":1226:1231  b < 0 */\n      slt\n        /* \"Crypto-side-main/SafemathInt2.sol\":1226:1240  b < 0 && c < a */\n      dup1\n      iszero\n      tag_205\n      jumpi\n      pop\n        /* \"Crypto-side-main/SafemathInt2.sol\":1239:1240  a */\n      dup4\n        /* \"Crypto-side-main/SafemathInt2.sol\":1235:1236  c */\n      dup2\n        /* \"Crypto-side-main/SafemathInt2.sol\":1235:1240  c < a */\n      slt\n        /* \"Crypto-side-main/SafemathInt2.sol\":1226:1240  b < 0 && c < a */\n    tag_205:\n        /* \"Crypto-side-main/SafemathInt2.sol\":1203:1241  (b >= 0 && c >= a) || (b < 0 && c < a) */\n    tag_204:\n        /* \"Crypto-side-main/SafemathInt2.sol\":1195:1242  require((b >= 0 && c >= a) || (b < 0 && c < a)) */\n      tag_206\n      jumpi\n      0x00\n      dup1\n      revert\n    tag_206:\n        /* \"Crypto-side-main/SafemathInt2.sol\":1255:1256  c */\n      dup1\n        /* \"Crypto-side-main/SafemathInt2.sol\":1248:1256  return c */\n      swap2\n      pop\n      pop\n        /* \"Crypto-side-main/SafemathInt2.sol\":1103:1261  function add(int256 a, int256 b) internal pure returns (int256) {... */\n      swap3\n      swap2\n      pop\n      pop\n      jump\t// out\n        /* \"Crypto-side-main/SafemathInt2.sol\":1265:1379  function toUint256Safe(int256 a) internal pure returns (uint256) {... */\n    tag_118:\n        /* \"Crypto-side-main/SafemathInt2.sol\":1321:1328  uint256 */\n      0x00\n        /* \"Crypto-side-main/SafemathInt2.sol\":1349:1350  0 */\n      dup1\n        /* \"Crypto-side-main/SafemathInt2.sol\":1344:1345  a */\n      dup3\n        /* \"Crypto-side-main/SafemathInt2.sol\":1344:1350  a >= 0 */\n      slt\n      iszero\n        /* \"Crypto-side-main/SafemathInt2.sol\":1336:1351  require(a >= 0) */\n      tag_208\n      jumpi\n      0x00\n      dup1\n      revert\n    tag_208:\n        /* \"Crypto-side-main/SafemathInt2.sol\":1372:1373  a */\n      dup2\n        /* \"Crypto-side-main/SafemathInt2.sol\":1357:1374  return uint256(a) */\n      swap1\n      pop\n        /* \"Crypto-side-main/SafemathInt2.sol\":1265:1379  function toUint256Safe(int256 a) internal pure returns (uint256) {... */\n      swap2\n      swap1\n      pop\n      jump\t// out\n        /* \"Crypto-side-main/Safemathuint2.sol\":530:802  function div(uint256 a, uint256 b) internal pure returns (uint256) {... */\n    tag_132:\n        /* \"Crypto-side-main/Safemathuint2.sol\":588:595  uint256 */\n      0x00\n        /* \"Crypto-side-main/Safemathuint2.sol\":796:797  b */\n      dup2\n        /* \"Crypto-side-main/Safemathuint2.sol\":792:793  a */\n      dup4\n        /* \"Crypto-side-main/Safemathuint2.sol\":792:797  a / b */\n      tag_210\n      swap2\n      swap1\n      tag_86\n      jump\t// in\n    tag_210:\n        /* \"Crypto-side-main/Safemathuint2.sol\":785:797  return a / b */\n      swap1\n      pop\n        /* \"Crypto-side-main/Safemathuint2.sol\":530:802  function div(uint256 a, uint256 b) internal pure returns (uint256) {... */\n      swap3\n      swap2\n      pop\n      pop\n      jump\t// out\n        /* \"Crypto-side-main/SafemathInt2.sol\":950:1099  function sub(int256 a, int256 b) internal pure returns (int256) {... */\n    tag_154:\n        /* \"Crypto-side-main/SafemathInt2.sol\":1006:1012  int256 */\n      0x00\n        /* \"Crypto-side-main/SafemathInt2.sol\":1034:1035  0 */\n      dup1\n        /* \"Crypto-side-main/SafemathInt2.sol\":1029:1030  b */\n      dup3\n        /* \"Crypto-side-main/SafemathInt2.sol\":1029:1035  b >= 0 */\n      slt\n      iszero\n        /* \"Crypto-side-main/SafemathInt2.sol\":1029:1049  b >= 0 && a - b <= a */\n      dup1\n      iszero\n      tag_212\n      jumpi\n      pop\n        /* \"Crypto-side-main/SafemathInt2.sol\":1048:1049  a */\n      dup3\n        /* \"Crypto-side-main/SafemathInt2.sol\":1043:1044  b */\n      dup3\n        /* \"Crypto-side-main/SafemathInt2.sol\":1039:1040  a */\n      dup5\n        /* \"Crypto-side-main/SafemathInt2.sol\":1039:1044  a - b */\n      tag_213\n      swap2\n      swap1\n      tag_214\n      jump\t// in\n    tag_213:\n        /* \"Crypto-side-main/SafemathInt2.sol\":1039:1049  a - b <= a */\n      sgt\n      iszero\n        /* \"Crypto-side-main/SafemathInt2.sol\":1029:1049  b >= 0 && a - b <= a */\n    tag_212:\n        /* \"Crypto-side-main/SafemathInt2.sol\":1028:1074  (b >= 0 && a - b <= a) || (b < 0 && a - b > a) */\n      dup1\n      tag_215\n      jumpi\n      pop\n        /* \"Crypto-side-main/SafemathInt2.sol\":1059:1060  0 */\n      0x00\n        /* \"Crypto-side-main/SafemathInt2.sol\":1055:1056  b */\n      dup3\n        /* \"Crypto-side-main/SafemathInt2.sol\":1055:1060  b < 0 */\n      slt\n        /* \"Crypto-side-main/SafemathInt2.sol\":1055:1073  b < 0 && a - b > a */\n      dup1\n      iszero\n      tag_216\n      jumpi\n      pop\n        /* \"Crypto-side-main/SafemathInt2.sol\":1072:1073  a */\n      dup3\n        /* \"Crypto-side-main/SafemathInt2.sol\":1068:1069  b */\n      dup3\n        /* \"Crypto-side-main/SafemathInt2.sol\":1064:1065  a */\n      dup5\n        /* \"Crypto-side-main/SafemathInt2.sol\":1064:1069  a - b */\n      tag_217\n      swap2\n      swap1\n      tag_214\n      jump\t// in\n    tag_217:\n        /* \"Crypto-side-main/SafemathInt2.sol\":1064:1073  a - b > a */\n      sgt\n        /* \"Crypto-side-main/SafemathInt2.sol\":1055:1073  b < 0 && a - b > a */\n    tag_216:\n        /* \"Crypto-side-main/SafemathInt2.sol\":1028:1074  (b >= 0 && a - b <= a) || (b < 0 && a - b > a) */\n    tag_215:\n        /* \"Crypto-side-main/SafemathInt2.sol\":1020:1075  require((b >= 0 && a - b <= a) || (b < 0 && a - b > a)) */\n      tag_218\n      jumpi\n      0x00\n      dup1\n      revert\n    tag_218:\n        /* \"Crypto-side-main/SafemathInt2.sol\":1093:1094  b */\n      dup2\n        /* \"Crypto-side-main/SafemathInt2.sol\":1089:1090  a */\n      dup4\n        /* \"Crypto-side-main/SafemathInt2.sol\":1089:1094  a - b */\n      tag_219\n      swap2\n      swap1\n      tag_214\n      jump\t// in\n    tag_219:\n        /* \"Crypto-side-main/SafemathInt2.sol\":1082:1094  return a - b */\n      swap1\n      pop\n        /* \"Crypto-side-main/SafemathInt2.sol\":950:1099  function sub(int256 a, int256 b) internal pure returns (int256) {... */\n      swap3\n      swap2\n      pop\n      pop\n      jump\t// out\n        /* \"#utility.yul\":88:205   */\n    tag_221:\n        /* \"#utility.yul\":197:198   */\n      0x00\n        /* \"#utility.yul\":194:195   */\n      dup1\n        /* \"#utility.yul\":187:199   */\n      revert\n        /* \"#utility.yul\":334:460   */\n    tag_223:\n        /* \"#utility.yul\":371:378   */\n      0x00\n        /* \"#utility.yul\":411:453   */\n      0xffffffffffffffffffffffffffffffffffffffff\n        /* \"#utility.yul\":404:409   */\n      dup3\n        /* \"#utility.yul\":400:454   */\n      and\n        /* \"#utility.yul\":389:454   */\n      swap1\n      pop\n        /* \"#utility.yul\":334:460   */\n      swap2\n      swap1\n      pop\n      jump\t// out\n        /* \"#utility.yul\":466:562   */\n    tag_224:\n        /* \"#utility.yul\":503:510   */\n      0x00\n        /* \"#utility.yul\":532:556   */\n      tag_261\n        /* \"#utility.yul\":550:555   */\n      dup3\n        /* \"#utility.yul\":532:556   */\n      tag_223\n      jump\t// in\n    tag_261:\n        /* \"#utility.yul\":521:556   */\n      swap1\n      pop\n        /* \"#utility.yul\":466:562   */\n      swap2\n      swap1\n      pop\n      jump\t// out\n        /* \"#utility.yul\":568:690   */\n    tag_225:\n        /* \"#utility.yul\":641:665   */\n      tag_263\n        /* \"#utility.yul\":659:664   */\n      dup2\n        /* \"#utility.yul\":641:665   */\n      tag_224\n      jump\t// in\n    tag_263:\n        /* \"#utility.yul\":634:639   */\n      dup2\n        /* \"#utility.yul\":631:666   */\n      eq\n        /* \"#utility.yul\":621:684   */\n      tag_264\n      jumpi\n        /* \"#utility.yul\":680:681   */\n      0x00\n        /* \"#utility.yul\":677:678   */\n      dup1\n        /* \"#utility.yul\":670:682   */\n      revert\n        /* \"#utility.yul\":621:684   */\n    tag_264:\n        /* \"#utility.yul\":568:690   */\n      pop\n      jump\t// out\n        /* \"#utility.yul\":696:835   */\n    tag_226:\n        /* \"#utility.yul\":742:747   */\n      0x00\n        /* \"#utility.yul\":780:786   */\n      dup2\n        /* \"#utility.yul\":767:787   */\n      calldataload\n        /* \"#utility.yul\":758:787   */\n      swap1\n      pop\n        /* \"#utility.yul\":796:829   */\n      tag_266\n        /* \"#utility.yul\":823:828   */\n      dup2\n        /* \"#utility.yul\":796:829   */\n      tag_225\n      jump\t// in\n    tag_266:\n        /* \"#utility.yul\":696:835   */\n      swap3\n      swap2\n      pop\n      pop\n      jump\t// out\n        /* \"#utility.yul\":841:1170   */\n    tag_25:\n        /* \"#utility.yul\":900:906   */\n      0x00\n        /* \"#utility.yul\":949:951   */\n      0x20\n        /* \"#utility.yul\":937:946   */\n      dup3\n        /* \"#utility.yul\":928:935   */\n      dup5\n        /* \"#utility.yul\":924:947   */\n      sub\n        /* \"#utility.yul\":920:952   */\n      slt\n        /* \"#utility.yul\":917:1036   */\n      iszero\n      tag_268\n      jumpi\n        /* \"#utility.yul\":955:1034   */\n      tag_269\n      tag_221\n      jump\t// in\n    tag_269:\n        /* \"#utility.yul\":917:1036   */\n    tag_268:\n        /* \"#utility.yul\":1075:1076   */\n      0x00\n        /* \"#utility.yul\":1100:1153   */\n      tag_270\n        /* \"#utility.yul\":1145:1152   */\n      dup5\n        /* \"#utility.yul\":1136:1142   */\n      dup3\n        /* \"#utility.yul\":1125:1134   */\n      dup6\n        /* \"#utility.yul\":1121:1143   */\n      add\n        /* \"#utility.yul\":1100:1153   */\n      tag_226\n      jump\t// in\n    tag_270:\n        /* \"#utility.yul\":1090:1153   */\n      swap2\n      pop\n        /* \"#utility.yul\":1046:1163   */\n      pop\n        /* \"#utility.yul\":841:1170   */\n      swap3\n      swap2\n      pop\n      pop\n      jump\t// out\n        /* \"#utility.yul\":1176:1253   */\n    tag_227:\n        /* \"#utility.yul\":1213:1220   */\n      0x00\n        /* \"#utility.yul\":1242:1247   */\n      dup2\n        /* \"#utility.yul\":1231:1247   */\n      swap1\n      pop\n        /* \"#utility.yul\":1176:1253   */\n      swap2\n      swap1\n      pop\n      jump\t// out\n        /* \"#utility.yul\":1259:1377   */\n    tag_228:\n        /* \"#utility.yul\":1346:1370   */\n      tag_273\n        /* \"#utility.yul\":1364:1369   */\n      dup2\n        /* \"#utility.yul\":1346:1370   */\n      tag_227\n      jump\t// in\n    tag_273:\n        /* \"#utility.yul\":1341:1344   */\n      dup3\n        /* \"#utility.yul\":1334:1371   */\n      mstore\n        /* \"#utility.yul\":1259:1377   */\n      pop\n      pop\n      jump\t// out\n        /* \"#utility.yul\":1383:1605   */\n    tag_28:\n        /* \"#utility.yul\":1476:1480   */\n      0x00\n        /* \"#utility.yul\":1514:1516   */\n      0x20\n        /* \"#utility.yul\":1503:1512   */\n      dup3\n        /* \"#utility.yul\":1499:1517   */\n      add\n        /* \"#utility.yul\":1491:1517   */\n      swap1\n      pop\n        /* \"#utility.yul\":1527:1598   */\n      tag_275\n        /* \"#utility.yul\":1595:1596   */\n      0x00\n        /* \"#utility.yul\":1584:1593   */\n      dup4\n        /* \"#utility.yul\":1580:1597   */\n      add\n        /* \"#utility.yul\":1571:1577   */\n      dup5\n        /* \"#utility.yul\":1527:1598   */\n      tag_228\n      jump\t// in\n    tag_275:\n        /* \"#utility.yul\":1383:1605   */\n      swap3\n      swap2\n      pop\n      pop\n      jump\t// out\n        /* \"#utility.yul\":1611:1671   */\n    tag_229:\n        /* \"#utility.yul\":1639:1642   */\n      0x00\n        /* \"#utility.yul\":1660:1665   */\n      dup2\n        /* \"#utility.yul\":1653:1665   */\n      swap1\n      pop\n        /* \"#utility.yul\":1611:1671   */\n      swap2\n      swap1\n      pop\n      jump\t// out\n        /* \"#utility.yul\":1677:1819   */\n    tag_230:\n        /* \"#utility.yul\":1727:1736   */\n      0x00\n        /* \"#utility.yul\":1760:1813   */\n      tag_278\n        /* \"#utility.yul\":1778:1812   */\n      tag_279\n        /* \"#utility.yul\":1787:1811   */\n      tag_280\n        /* \"#utility.yul\":1805:1810   */\n      dup5\n        /* \"#utility.yul\":1787:1811   */\n      tag_223\n      jump\t// in\n    tag_280:\n        /* \"#utility.yul\":1778:1812   */\n      tag_229\n      jump\t// in\n    tag_279:\n        /* \"#utility.yul\":1760:1813   */\n      tag_223\n      jump\t// in\n    tag_278:\n        /* \"#utility.yul\":1747:1813   */\n      swap1\n      pop\n        /* \"#utility.yul\":1677:1819   */\n      swap2\n      swap1\n      pop\n      jump\t// out\n        /* \"#utility.yul\":1825:1951   */\n    tag_231:\n        /* \"#utility.yul\":1875:1884   */\n      0x00\n        /* \"#utility.yul\":1908:1945   */\n      tag_282\n        /* \"#utility.yul\":1939:1944   */\n      dup3\n        /* \"#utility.yul\":1908:1945   */\n      tag_230\n      jump\t// in\n    tag_282:\n        /* \"#utility.yul\":1895:1945   */\n      swap1\n      pop\n        /* \"#utility.yul\":1825:1951   */\n      swap2\n      swap1\n      pop\n      jump\t// out\n        /* \"#utility.yul\":1957:2096   */\n    tag_232:\n        /* \"#utility.yul\":2020:2029   */\n      0x00\n        /* \"#utility.yul\":2053:2090   */\n      tag_284\n        /* \"#utility.yul\":2084:2089   */\n      dup3\n        /* \"#utility.yul\":2053:2090   */\n      tag_231\n      jump\t// in\n    tag_284:\n        /* \"#utility.yul\":2040:2090   */\n      swap1\n      pop\n        /* \"#utility.yul\":1957:2096   */\n      swap2\n      swap1\n      pop\n      jump\t// out\n        /* \"#utility.yul\":2102:2259   */\n    tag_233:\n        /* \"#utility.yul\":2202:2252   */\n      tag_286\n        /* \"#utility.yul\":2246:2251   */\n      dup2\n        /* \"#utility.yul\":2202:2252   */\n      tag_232\n      jump\t// in\n    tag_286:\n        /* \"#utility.yul\":2197:2200   */\n      dup3\n        /* \"#utility.yul\":2190:2253   */\n      mstore\n        /* \"#utility.yul\":2102:2259   */\n      pop\n      pop\n      jump\t// out\n        /* \"#utility.yul\":2265:2513   */\n    tag_39:\n        /* \"#utility.yul\":2371:2375   */\n      0x00\n        /* \"#utility.yul\":2409:2411   */\n      0x20\n        /* \"#utility.yul\":2398:2407   */\n      dup3\n        /* \"#utility.yul\":2394:2412   */\n      add\n        /* \"#utility.yul\":2386:2412   */\n      swap1\n      pop\n        /* \"#utility.yul\":2422:2506   */\n      tag_288\n        /* \"#utility.yul\":2503:2504   */\n      0x00\n        /* \"#utility.yul\":2492:2501   */\n      dup4\n        /* \"#utility.yul\":2488:2505   */\n      add\n        /* \"#utility.yul\":2479:2485   */\n      dup5\n        /* \"#utility.yul\":2422:2506   */\n      tag_233\n      jump\t// in\n    tag_288:\n        /* \"#utility.yul\":2265:2513   */\n      swap3\n      swap2\n      pop\n      pop\n      jump\t// out\n        /* \"#utility.yul\":2519:2637   */\n    tag_234:\n        /* \"#utility.yul\":2606:2630   */\n      tag_290\n        /* \"#utility.yul\":2624:2629   */\n      dup2\n        /* \"#utility.yul\":2606:2630   */\n      tag_224\n      jump\t// in\n    tag_290:\n        /* \"#utility.yul\":2601:2604   */\n      dup3\n        /* \"#utility.yul\":2594:2631   */\n      mstore\n        /* \"#utility.yul\":2519:2637   */\n      pop\n      pop\n      jump\t// out\n        /* \"#utility.yul\":2643:2865   */\n    tag_52:\n        /* \"#utility.yul\":2736:2740   */\n      0x00\n        /* \"#utility.yul\":2774:2776   */\n      0x20\n        /* \"#utility.yul\":2763:2772   */\n      dup3\n        /* \"#utility.yul\":2759:2777   */\n      add\n        /* \"#utility.yul\":2751:2777   */\n      swap1\n      pop\n        /* \"#utility.yul\":2787:2858   */\n      tag_292\n        /* \"#utility.yul\":2855:2856   */\n      0x00\n        /* \"#utility.yul\":2844:2853   */\n      dup4\n        /* \"#utility.yul\":2840:2857   */\n      add\n        /* \"#utility.yul\":2831:2837   */\n      dup5\n        /* \"#utility.yul\":2787:2858   */\n      tag_234\n      jump\t// in\n    tag_292:\n        /* \"#utility.yul\":2643:2865   */\n      swap3\n      swap2\n      pop\n      pop\n      jump\t// out\n        /* \"#utility.yul\":2871:2993   */\n    tag_235:\n        /* \"#utility.yul\":2944:2968   */\n      tag_294\n        /* \"#utility.yul\":2962:2967   */\n      dup2\n        /* \"#utility.yul\":2944:2968   */\n      tag_227\n      jump\t// in\n    tag_294:\n        /* \"#utility.yul\":2937:2942   */\n      dup2\n        /* \"#utility.yul\":2934:2969   */\n      eq\n        /* \"#utility.yul\":2924:2987   */\n      tag_295\n      jumpi\n        /* \"#utility.yul\":2983:2984   */\n      0x00\n        /* \"#utility.yul\":2980:2981   */\n      dup1\n        /* \"#utility.yul\":2973:2985   */\n      revert\n        /* \"#utility.yul\":2924:2987   */\n    tag_295:\n        /* \"#utility.yul\":2871:2993   */\n      pop\n      jump\t// out\n        /* \"#utility.yul\":2999:3138   */\n    tag_236:\n        /* \"#utility.yul\":3045:3050   */\n      0x00\n        /* \"#utility.yul\":3083:3089   */\n      dup2\n        /* \"#utility.yul\":3070:3090   */\n      calldataload\n        /* \"#utility.yul\":3061:3090   */\n      swap1\n      pop\n        /* \"#utility.yul\":3099:3132   */\n      tag_297\n        /* \"#utility.yul\":3126:3131   */\n      dup2\n        /* \"#utility.yul\":3099:3132   */\n      tag_235\n      jump\t// in\n    tag_297:\n        /* \"#utility.yul\":2999:3138   */\n      swap3\n      swap2\n      pop\n      pop\n      jump\t// out\n        /* \"#utility.yul\":3144:3473   */\n    tag_59:\n        /* \"#utility.yul\":3203:3209   */\n      0x00\n        /* \"#utility.yul\":3252:3254   */\n      0x20\n        /* \"#utility.yul\":3240:3249   */\n      dup3\n        /* \"#utility.yul\":3231:3238   */\n      dup5\n        /* \"#utility.yul\":3227:3250   */\n      sub\n        /* \"#utility.yul\":3223:3255   */\n      slt\n        /* \"#utility.yul\":3220:3339   */\n      iszero\n      tag_299\n      jumpi\n        /* \"#utility.yul\":3258:3337   */\n      tag_300\n      tag_221\n      jump\t// in\n    tag_300:\n        /* \"#utility.yul\":3220:3339   */\n    tag_299:\n        /* \"#utility.yul\":3378:3379   */\n      0x00\n        /* \"#utility.yul\":3403:3456   */\n      tag_301\n        /* \"#utility.yul\":3448:3455   */\n      dup5\n        /* \"#utility.yul\":3439:3445   */\n      dup3\n        /* \"#utility.yul\":3428:3437   */\n      dup6\n        /* \"#utility.yul\":3424:3446   */\n      add\n        /* \"#utility.yul\":3403:3456   */\n      tag_236\n      jump\t// in\n    tag_301:\n        /* \"#utility.yul\":3393:3456   */\n      swap2\n      pop\n        /* \"#utility.yul\":3349:3466   */\n      pop\n        /* \"#utility.yul\":3144:3473   */\n      swap3\n      swap2\n      pop\n      pop\n      jump\t// out\n        /* \"#utility.yul\":3479:3622   */\n    tag_237:\n        /* \"#utility.yul\":3536:3541   */\n      0x00\n        /* \"#utility.yul\":3567:3573   */\n      dup2\n        /* \"#utility.yul\":3561:3574   */\n      mload\n        /* \"#utility.yul\":3552:3574   */\n      swap1\n      pop\n        /* \"#utility.yul\":3583:3616   */\n      tag_303\n        /* \"#utility.yul\":3610:3615   */\n      dup2\n        /* \"#utility.yul\":3583:3616   */\n      tag_235\n      jump\t// in\n    tag_303:\n        /* \"#utility.yul\":3479:3622   */\n      swap3\n      swap2\n      pop\n      pop\n      jump\t// out\n        /* \"#utility.yul\":3628:3979   */\n    tag_83:\n        /* \"#utility.yul\":3698:3704   */\n      0x00\n        /* \"#utility.yul\":3747:3749   */\n      0x20\n        /* \"#utility.yul\":3735:3744   */\n      dup3\n        /* \"#utility.yul\":3726:3733   */\n      dup5\n        /* \"#utility.yul\":3722:3745   */\n      sub\n        /* \"#utility.yul\":3718:3750   */\n      slt\n        /* \"#utility.yul\":3715:3834   */\n      iszero\n      tag_305\n      jumpi\n        /* \"#utility.yul\":3753:3832   */\n      tag_306\n      tag_221\n      jump\t// in\n    tag_306:\n        /* \"#utility.yul\":3715:3834   */\n    tag_305:\n        /* \"#utility.yul\":3873:3874   */\n      0x00\n        /* \"#utility.yul\":3898:3962   */\n      tag_307\n        /* \"#utility.yul\":3954:3961   */\n      dup5\n        /* \"#utility.yul\":3945:3951   */\n      dup3\n        /* \"#utility.yul\":3934:3943   */\n      dup6\n        /* \"#utility.yul\":3930:3952   */\n      add\n        /* \"#utility.yul\":3898:3962   */\n      tag_237\n      jump\t// in\n    tag_307:\n        /* \"#utility.yul\":3888:3962   */\n      swap2\n      pop\n        /* \"#utility.yul\":3844:3972   */\n      pop\n        /* \"#utility.yul\":3628:3979   */\n      swap3\n      swap2\n      pop\n      pop\n      jump\t// out\n        /* \"#utility.yul\":3985:4165   */\n    tag_238:\n        /* \"#utility.yul\":4033:4110   */\n      0x4e487b7100000000000000000000000000000000000000000000000000000000\n        /* \"#utility.yul\":4030:4031   */\n      0x00\n        /* \"#utility.yul\":4023:4111   */\n      mstore\n        /* \"#utility.yul\":4130:4134   */\n      0x12\n        /* \"#utility.yul\":4127:4128   */\n      0x04\n        /* \"#utility.yul\":4120:4135   */\n      mstore\n        /* \"#utility.yul\":4154:4158   */\n      0x24\n        /* \"#utility.yul\":4151:4152   */\n      0x00\n        /* \"#utility.yul\":4144:4159   */\n      revert\n        /* \"#utility.yul\":4171:4351   */\n    tag_239:\n        /* \"#utility.yul\":4219:4296   */\n      0x4e487b7100000000000000000000000000000000000000000000000000000000\n        /* \"#utility.yul\":4216:4217   */\n      0x00\n        /* \"#utility.yul\":4209:4297   */\n      mstore\n        /* \"#utility.yul\":4316:4320   */\n      0x11\n        /* \"#utility.yul\":4313:4314   */\n      0x04\n        /* \"#utility.yul\":4306:4321   */\n      mstore\n        /* \"#utility.yul\":4340:4344   */\n      0x24\n        /* \"#utility.yul\":4337:4338   */\n      0x00\n        /* \"#utility.yul\":4330:4345   */\n      revert\n        /* \"#utility.yul\":4357:4542   */\n    tag_86:\n        /* \"#utility.yul\":4397:4398   */\n      0x00\n        /* \"#utility.yul\":4414:4434   */\n      tag_311\n        /* \"#utility.yul\":4432:4433   */\n      dup3\n        /* \"#utility.yul\":4414:4434   */\n      tag_227\n      jump\t// in\n    tag_311:\n        /* \"#utility.yul\":4409:4434   */\n      swap2\n      pop\n        /* \"#utility.yul\":4448:4468   */\n      tag_312\n        /* \"#utility.yul\":4466:4467   */\n      dup4\n        /* \"#utility.yul\":4448:4468   */\n      tag_227\n      jump\t// in\n    tag_312:\n        /* \"#utility.yul\":4443:4468   */\n      swap3\n      pop\n        /* \"#utility.yul\":4487:4488   */\n      dup3\n        /* \"#utility.yul\":4477:4512   */\n      tag_313\n      jumpi\n        /* \"#utility.yul\":4492:4510   */\n      tag_314\n      tag_238\n      jump\t// in\n    tag_314:\n        /* \"#utility.yul\":4477:4512   */\n    tag_313:\n        /* \"#utility.yul\":4534:4535   */\n      dup3\n        /* \"#utility.yul\":4531:4532   */\n      dup3\n        /* \"#utility.yul\":4527:4536   */\n      div\n        /* \"#utility.yul\":4522:4536   */\n      swap1\n      pop\n        /* \"#utility.yul\":4357:4542   */\n      swap3\n      swap2\n      pop\n      pop\n      jump\t// out\n        /* \"#utility.yul\":4548:4958   */\n    tag_88:\n        /* \"#utility.yul\":4588:4595   */\n      0x00\n        /* \"#utility.yul\":4611:4631   */\n      tag_316\n        /* \"#utility.yul\":4629:4630   */\n      dup3\n        /* \"#utility.yul\":4611:4631   */\n      tag_227\n      jump\t// in\n    tag_316:\n        /* \"#utility.yul\":4606:4631   */\n      swap2\n      pop\n        /* \"#utility.yul\":4645:4665   */\n      tag_317\n        /* \"#utility.yul\":4663:4664   */\n      dup4\n        /* \"#utility.yul\":4645:4665   */\n      tag_227\n      jump\t// in\n    tag_317:\n        /* \"#utility.yul\":4640:4665   */\n      swap3\n      pop\n        /* \"#utility.yul\":4700:4701   */\n      dup3\n        /* \"#utility.yul\":4697:4698   */\n      dup3\n        /* \"#utility.yul\":4693:4702   */\n      mul\n        /* \"#utility.yul\":4722:4752   */\n      tag_318\n        /* \"#utility.yul\":4740:4751   */\n      dup2\n        /* \"#utility.yul\":4722:4752   */\n      tag_227\n      jump\t// in\n    tag_318:\n        /* \"#utility.yul\":4711:4752   */\n      swap2\n      pop\n        /* \"#utility.yul\":4901:4902   */\n      dup3\n        /* \"#utility.yul\":4892:4899   */\n      dup3\n        /* \"#utility.yul\":4888:4903   */\n      div\n        /* \"#utility.yul\":4885:4886   */\n      dup5\n        /* \"#utility.yul\":4882:4904   */\n      eq\n        /* \"#utility.yul\":4862:4863   */\n      dup4\n        /* \"#utility.yul\":4855:4864   */\n      iszero\n        /* \"#utility.yul\":4835:4918   */\n      or\n        /* \"#utility.yul\":4812:4951   */\n      tag_319\n      jumpi\n        /* \"#utility.yul\":4931:4949   */\n      tag_320\n      tag_239\n      jump\t// in\n    tag_320:\n        /* \"#utility.yul\":4812:4951   */\n    tag_319:\n        /* \"#utility.yul\":4596:4958   */\n      pop\n        /* \"#utility.yul\":4548:4958   */\n      swap3\n      swap2\n      pop\n      pop\n      jump\t// out\n        /* \"#utility.yul\":4964:5296   */\n    tag_90:\n        /* \"#utility.yul\":5085:5089   */\n      0x00\n        /* \"#utility.yul\":5123:5125   */\n      0x40\n        /* \"#utility.yul\":5112:5121   */\n      dup3\n        /* \"#utility.yul\":5108:5126   */\n      add\n        /* \"#utility.yul\":5100:5126   */\n      swap1\n      pop\n        /* \"#utility.yul\":5136:5207   */\n      tag_322\n        /* \"#utility.yul\":5204:5205   */\n      0x00\n        /* \"#utility.yul\":5193:5202   */\n      dup4\n        /* \"#utility.yul\":5189:5206   */\n      add\n        /* \"#utility.yul\":5180:5186   */\n      dup6\n        /* \"#utility.yul\":5136:5207   */\n      tag_234\n      jump\t// in\n    tag_322:\n        /* \"#utility.yul\":5217:5289   */\n      tag_323\n        /* \"#utility.yul\":5285:5287   */\n      0x20\n        /* \"#utility.yul\":5274:5283   */\n      dup4\n        /* \"#utility.yul\":5270:5288   */\n      add\n        /* \"#utility.yul\":5261:5267   */\n      dup5\n        /* \"#utility.yul\":5217:5289   */\n      tag_228\n      jump\t// in\n    tag_323:\n        /* \"#utility.yul\":4964:5296   */\n      swap4\n      swap3\n      pop\n      pop\n      pop\n      jump\t// out\n        /* \"#utility.yul\":5302:5392   */\n    tag_240:\n        /* \"#utility.yul\":5336:5343   */\n      0x00\n        /* \"#utility.yul\":5379:5384   */\n      dup2\n        /* \"#utility.yul\":5372:5385   */\n      iszero\n        /* \"#utility.yul\":5365:5386   */\n      iszero\n        /* \"#utility.yul\":5354:5386   */\n      swap1\n      pop\n        /* \"#utility.yul\":5302:5392   */\n      swap2\n      swap1\n      pop\n      jump\t// out\n        /* \"#utility.yul\":5398:5514   */\n    tag_241:\n        /* \"#utility.yul\":5468:5489   */\n      tag_326\n        /* \"#utility.yul\":5483:5488   */\n      dup2\n        /* \"#utility.yul\":5468:5489   */\n      tag_240\n      jump\t// in\n    tag_326:\n        /* \"#utility.yul\":5461:5466   */\n      dup2\n        /* \"#utility.yul\":5458:5490   */\n      eq\n        /* \"#utility.yul\":5448:5508   */\n      tag_327\n      jumpi\n        /* \"#utility.yul\":5504:5505   */\n      0x00\n        /* \"#utility.yul\":5501:5502   */\n      dup1\n        /* \"#utility.yul\":5494:5506   */\n      revert\n        /* \"#utility.yul\":5448:5508   */\n    tag_327:\n        /* \"#utility.yul\":5398:5514   */\n      pop\n      jump\t// out\n        /* \"#utility.yul\":5520:5657   */\n    tag_242:\n        /* \"#utility.yul\":5574:5579   */\n      0x00\n        /* \"#utility.yul\":5605:5611   */\n      dup2\n        /* \"#utility.yul\":5599:5612   */\n      mload\n        /* \"#utility.yul\":5590:5612   */\n      swap1\n      pop\n        /* \"#utility.yul\":5621:5651   */\n      tag_329\n        /* \"#utility.yul\":5645:5650   */\n      dup2\n        /* \"#utility.yul\":5621:5651   */\n      tag_241\n      jump\t// in\n    tag_329:\n        /* \"#utility.yul\":5520:5657   */\n      swap3\n      swap2\n      pop\n      pop\n      jump\t// out\n        /* \"#utility.yul\":5663:6008   */\n    tag_94:\n        /* \"#utility.yul\":5730:5736   */\n      0x00\n        /* \"#utility.yul\":5779:5781   */\n      0x20\n        /* \"#utility.yul\":5767:5776   */\n      dup3\n        /* \"#utility.yul\":5758:5765   */\n      dup5\n        /* \"#utility.yul\":5754:5777   */\n      sub\n        /* \"#utility.yul\":5750:5782   */\n      slt\n        /* \"#utility.yul\":5747:5866   */\n      iszero\n      tag_331\n      jumpi\n        /* \"#utility.yul\":5785:5864   */\n      tag_332\n      tag_221\n      jump\t// in\n    tag_332:\n        /* \"#utility.yul\":5747:5866   */\n    tag_331:\n        /* \"#utility.yul\":5905:5906   */\n      0x00\n        /* \"#utility.yul\":5930:5991   */\n      tag_333\n        /* \"#utility.yul\":5983:5990   */\n      dup5\n        /* \"#utility.yul\":5974:5980   */\n      dup3\n        /* \"#utility.yul\":5963:5972   */\n      dup6\n        /* \"#utility.yul\":5959:5981   */\n      add\n        /* \"#utility.yul\":5930:5991   */\n      tag_242\n      jump\t// in\n    tag_333:\n        /* \"#utility.yul\":5920:5991   */\n      swap2\n      pop\n        /* \"#utility.yul\":5876:6001   */\n      pop\n        /* \"#utility.yul\":5663:6008   */\n      swap3\n      swap2\n      pop\n      pop\n      jump\t// out\n        /* \"#utility.yul\":6014:6183   */\n    tag_243:\n        /* \"#utility.yul\":6098:6109   */\n      0x00\n        /* \"#utility.yul\":6132:6138   */\n      dup3\n        /* \"#utility.yul\":6127:6130   */\n      dup3\n        /* \"#utility.yul\":6120:6139   */\n      mstore\n        /* \"#utility.yul\":6172:6176   */\n      0x20\n        /* \"#utility.yul\":6167:6170   */\n      dup3\n        /* \"#utility.yul\":6163:6177   */\n      add\n        /* \"#utility.yul\":6148:6177   */\n      swap1\n      pop\n        /* \"#utility.yul\":6014:6183   */\n      swap3\n      swap2\n      pop\n      pop\n      jump\t// out\n        /* \"#utility.yul\":6189:6359   */\n    tag_244:\n        /* \"#utility.yul\":6329:6351   */\n      0x55534443207472616e73666572206661696c6564000000000000000000000000\n        /* \"#utility.yul\":6325:6326   */\n      0x00\n        /* \"#utility.yul\":6317:6323   */\n      dup3\n        /* \"#utility.yul\":6313:6327   */\n      add\n        /* \"#utility.yul\":6306:6352   */\n      mstore\n        /* \"#utility.yul\":6189:6359   */\n      pop\n      jump\t// out\n        /* \"#utility.yul\":6365:6731   */\n    tag_245:\n        /* \"#utility.yul\":6507:6510   */\n      0x00\n        /* \"#utility.yul\":6528:6595   */\n      tag_337\n        /* \"#utility.yul\":6592:6594   */\n      0x14\n        /* \"#utility.yul\":6587:6590   */\n      dup4\n        /* \"#utility.yul\":6528:6595   */\n      tag_243\n      jump\t// in\n    tag_337:\n        /* \"#utility.yul\":6521:6595   */\n      swap2\n      pop\n        /* \"#utility.yul\":6604:6697   */\n      tag_338\n        /* \"#utility.yul\":6693:6696   */\n      dup3\n        /* \"#utility.yul\":6604:6697   */\n      tag_244\n      jump\t// in\n    tag_338:\n        /* \"#utility.yul\":6722:6724   */\n      0x20\n        /* \"#utility.yul\":6717:6720   */\n      dup3\n        /* \"#utility.yul\":6713:6725   */\n      add\n        /* \"#utility.yul\":6706:6725   */\n      swap1\n      pop\n        /* \"#utility.yul\":6365:6731   */\n      swap2\n      swap1\n      pop\n      jump\t// out\n        /* \"#utility.yul\":6737:7156   */\n    tag_97:\n        /* \"#utility.yul\":6903:6907   */\n      0x00\n        /* \"#utility.yul\":6941:6943   */\n      0x20\n        /* \"#utility.yul\":6930:6939   */\n      dup3\n        /* \"#utility.yul\":6926:6944   */\n      add\n        /* \"#utility.yul\":6918:6944   */\n      swap1\n      pop\n        /* \"#utility.yul\":6990:6999   */\n      dup2\n        /* \"#utility.yul\":6984:6988   */\n      dup2\n        /* \"#utility.yul\":6980:7000   */\n      sub\n        /* \"#utility.yul\":6976:6977   */\n      0x00\n        /* \"#utility.yul\":6965:6974   */\n      dup4\n        /* \"#utility.yul\":6961:6978   */\n      add\n        /* \"#utility.yul\":6954:7001   */\n      mstore\n        /* \"#utility.yul\":7018:7149   */\n      tag_340\n        /* \"#utility.yul\":7144:7148   */\n      dup2\n        /* \"#utility.yul\":7018:7149   */\n      tag_245\n      jump\t// in\n    tag_340:\n        /* \"#utility.yul\":7010:7149   */\n      swap1\n      pop\n        /* \"#utility.yul\":6737:7156   */\n      swap2\n      swap1\n      pop\n      jump\t// out\n        /* \"#utility.yul\":7162:7356   */\n    tag_99:\n        /* \"#utility.yul\":7202:7206   */\n      0x00\n        /* \"#utility.yul\":7222:7242   */\n      tag_342\n        /* \"#utility.yul\":7240:7241   */\n      dup3\n        /* \"#utility.yul\":7222:7242   */\n      tag_227\n      jump\t// in\n    tag_342:\n        /* \"#utility.yul\":7217:7242   */\n      swap2\n      pop\n        /* \"#utility.yul\":7256:7276   */\n      tag_343\n        /* \"#utility.yul\":7274:7275   */\n      dup4\n        /* \"#utility.yul\":7256:7276   */\n      tag_227\n      jump\t// in\n    tag_343:\n        /* \"#utility.yul\":7251:7276   */\n      swap3\n      pop\n        /* \"#utility.yul\":7300:7301   */\n      dup3\n        /* \"#utility.yul\":7297:7298   */\n      dup3\n        /* \"#utility.yul\":7293:7302   */\n      sub\n        /* \"#utility.yul\":7285:7302   */\n      swap1\n      pop\n        /* \"#utility.yul\":7324:7325   */\n      dup2\n        /* \"#utility.yul\":7318:7322   */\n      dup2\n        /* \"#utility.yul\":7315:7326   */\n      gt\n        /* \"#utility.yul\":7312:7349   */\n      iszero\n      tag_344\n      jumpi\n        /* \"#utility.yul\":7329:7347   */\n      tag_345\n      tag_239\n      jump\t// in\n    tag_345:\n        /* \"#utility.yul\":7312:7349   */\n    tag_344:\n        /* \"#utility.yul\":7162:7356   */\n      swap3\n      swap2\n      pop\n      pop\n      jump\t// out\n        /* \"#utility.yul\":7362:7584   */\n    tag_246:\n        /* \"#utility.yul\":7502:7536   */\n      0x4f776e65722068617320696e73756666696369656e7420555344432062616c61\n        /* \"#utility.yul\":7498:7499   */\n      0x00\n        /* \"#utility.yul\":7490:7496   */\n      dup3\n        /* \"#utility.yul\":7486:7500   */\n      add\n        /* \"#utility.yul\":7479:7537   */\n      mstore\n        /* \"#utility.yul\":7571:7576   */\n      0x6e63650000000000000000000000000000000000000000000000000000000000\n        /* \"#utility.yul\":7566:7568   */\n      0x20\n        /* \"#utility.yul\":7558:7564   */\n      dup3\n        /* \"#utility.yul\":7554:7569   */\n      add\n        /* \"#utility.yul\":7547:7577   */\n      mstore\n        /* \"#utility.yul\":7362:7584   */\n      pop\n      jump\t// out\n        /* \"#utility.yul\":7590:7956   */\n    tag_247:\n        /* \"#utility.yul\":7732:7735   */\n      0x00\n        /* \"#utility.yul\":7753:7820   */\n      tag_348\n        /* \"#utility.yul\":7817:7819   */\n      0x23\n        /* \"#utility.yul\":7812:7815   */\n      dup4\n        /* \"#utility.yul\":7753:7820   */\n      tag_243\n      jump\t// in\n    tag_348:\n        /* \"#utility.yul\":7746:7820   */\n      swap2\n      pop\n        /* \"#utility.yul\":7829:7922   */\n      tag_349\n        /* \"#utility.yul\":7918:7921   */\n      dup3\n        /* \"#utility.yul\":7829:7922   */\n      tag_246\n      jump\t// in\n    tag_349:\n        /* \"#utility.yul\":7947:7949   */\n      0x40\n        /* \"#utility.yul\":7942:7945   */\n      dup3\n        /* \"#utility.yul\":7938:7950   */\n      add\n        /* \"#utility.yul\":7931:7950   */\n      swap1\n      pop\n        /* \"#utility.yul\":7590:7956   */\n      swap2\n      swap1\n      pop\n      jump\t// out\n        /* \"#utility.yul\":7962:8381   */\n    tag_127:\n        /* \"#utility.yul\":8128:8132   */\n      0x00\n        /* \"#utility.yul\":8166:8168   */\n      0x20\n        /* \"#utility.yul\":8155:8164   */\n      dup3\n        /* \"#utility.yul\":8151:8169   */\n      add\n        /* \"#utility.yul\":8143:8169   */\n      swap1\n      pop\n        /* \"#utility.yul\":8215:8224   */\n      dup2\n        /* \"#utility.yul\":8209:8213   */\n      dup2\n        /* \"#utility.yul\":8205:8225   */\n      sub\n        /* \"#utility.yul\":8201:8202   */\n      0x00\n        /* \"#utility.yul\":8190:8199   */\n      dup4\n        /* \"#utility.yul\":8186:8203   */\n      add\n        /* \"#utility.yul\":8179:8226   */\n      mstore\n        /* \"#utility.yul\":8243:8374   */\n      tag_351\n        /* \"#utility.yul\":8369:8373   */\n      dup2\n        /* \"#utility.yul\":8243:8374   */\n      tag_247\n      jump\t// in\n    tag_351:\n        /* \"#utility.yul\":8235:8374   */\n      swap1\n      pop\n        /* \"#utility.yul\":7962:8381   */\n      swap2\n      swap1\n      pop\n      jump\t// out\n        /* \"#utility.yul\":8387:8578   */\n    tag_134:\n        /* \"#utility.yul\":8427:8430   */\n      0x00\n        /* \"#utility.yul\":8446:8466   */\n      tag_353\n        /* \"#utility.yul\":8464:8465   */\n      dup3\n        /* \"#utility.yul\":8446:8466   */\n      tag_227\n      jump\t// in\n    tag_353:\n        /* \"#utility.yul\":8441:8466   */\n      swap2\n      pop\n        /* \"#utility.yul\":8480:8500   */\n      tag_354\n        /* \"#utility.yul\":8498:8499   */\n      dup4\n        /* \"#utility.yul\":8480:8500   */\n      tag_227\n      jump\t// in\n    tag_354:\n        /* \"#utility.yul\":8475:8500   */\n      swap3\n      pop\n        /* \"#utility.yul\":8523:8524   */\n      dup3\n        /* \"#utility.yul\":8520:8521   */\n      dup3\n        /* \"#utility.yul\":8516:8525   */\n      add\n        /* \"#utility.yul\":8509:8525   */\n      swap1\n      pop\n        /* \"#utility.yul\":8544:8547   */\n      dup1\n        /* \"#utility.yul\":8541:8542   */\n      dup3\n        /* \"#utility.yul\":8538:8548   */\n      gt\n        /* \"#utility.yul\":8535:8571   */\n      iszero\n      tag_355\n      jumpi\n        /* \"#utility.yul\":8551:8569   */\n      tag_356\n      tag_239\n      jump\t// in\n    tag_356:\n        /* \"#utility.yul\":8535:8571   */\n    tag_355:\n        /* \"#utility.yul\":8387:8578   */\n      swap3\n      swap2\n      pop\n      pop\n      jump\t// out\n        /* \"#utility.yul\":8584:9026   */\n    tag_137:\n        /* \"#utility.yul\":8733:8737   */\n      0x00\n        /* \"#utility.yul\":8771:8773   */\n      0x60\n        /* \"#utility.yul\":8760:8769   */\n      dup3\n        /* \"#utility.yul\":8756:8774   */\n      add\n        /* \"#utility.yul\":8748:8774   */\n      swap1\n      pop\n        /* \"#utility.yul\":8784:8855   */\n      tag_358\n        /* \"#utility.yul\":8852:8853   */\n      0x00\n        /* \"#utility.yul\":8841:8850   */\n      dup4\n        /* \"#utility.yul\":8837:8854   */\n      add\n        /* \"#utility.yul\":8828:8834   */\n      dup7\n        /* \"#utility.yul\":8784:8855   */\n      tag_234\n      jump\t// in\n    tag_358:\n        /* \"#utility.yul\":8865:8937   */\n      tag_359\n        /* \"#utility.yul\":8933:8935   */\n      0x20\n        /* \"#utility.yul\":8922:8931   */\n      dup4\n        /* \"#utility.yul\":8918:8936   */\n      add\n        /* \"#utility.yul\":8909:8915   */\n      dup6\n        /* \"#utility.yul\":8865:8937   */\n      tag_234\n      jump\t// in\n    tag_359:\n        /* \"#utility.yul\":8947:9019   */\n      tag_360\n        /* \"#utility.yul\":9015:9017   */\n      0x40\n        /* \"#utility.yul\":9004:9013   */\n      dup4\n        /* \"#utility.yul\":9000:9018   */\n      add\n        /* \"#utility.yul\":8991:8997   */\n      dup5\n        /* \"#utility.yul\":8947:9019   */\n      tag_228\n      jump\t// in\n    tag_360:\n        /* \"#utility.yul\":8584:9026   */\n      swap5\n      swap4\n      pop\n      pop\n      pop\n      pop\n      jump\t// out\n        /* \"#utility.yul\":9032:9201   */\n    tag_248:\n        /* \"#utility.yul\":9172:9193   */\n      0x42434b207472616e73666572206661696c656400000000000000000000000000\n        /* \"#utility.yul\":9168:9169   */\n      0x00\n        /* \"#utility.yul\":9160:9166   */\n      dup3\n        /* \"#utility.yul\":9156:9170   */\n      add\n        /* \"#utility.yul\":9149:9194   */\n      mstore\n        /* \"#utility.yul\":9032:9201   */\n      pop\n      jump\t// out\n        /* \"#utility.yul\":9207:9573   */\n    tag_249:\n        /* \"#utility.yul\":9349:9352   */\n      0x00\n        /* \"#utility.yul\":9370:9437   */\n      tag_363\n        /* \"#utility.yul\":9434:9436   */\n      0x13\n        /* \"#utility.yul\":9429:9432   */\n      dup4\n        /* \"#utility.yul\":9370:9437   */\n      tag_243\n      jump\t// in\n    tag_363:\n        /* \"#utility.yul\":9363:9437   */\n      swap2\n      pop\n        /* \"#utility.yul\":9446:9539   */\n      tag_364\n        /* \"#utility.yul\":9535:9538   */\n      dup3\n        /* \"#utility.yul\":9446:9539   */\n      tag_248\n      jump\t// in\n    tag_364:\n        /* \"#utility.yul\":9564:9566   */\n      0x20\n        /* \"#utility.yul\":9559:9562   */\n      dup3\n        /* \"#utility.yul\":9555:9567   */\n      add\n        /* \"#utility.yul\":9548:9567   */\n      swap1\n      pop\n        /* \"#utility.yul\":9207:9573   */\n      swap2\n      swap1\n      pop\n      jump\t// out\n        /* \"#utility.yul\":9579:9998   */\n    tag_150:\n        /* \"#utility.yul\":9745:9749   */\n      0x00\n        /* \"#utility.yul\":9783:9785   */\n      0x20\n        /* \"#utility.yul\":9772:9781   */\n      dup3\n        /* \"#utility.yul\":9768:9786   */\n      add\n        /* \"#utility.yul\":9760:9786   */\n      swap1\n      pop\n        /* \"#utility.yul\":9832:9841   */\n      dup2\n        /* \"#utility.yul\":9826:9830   */\n      dup2\n        /* \"#utility.yul\":9822:9842   */\n      sub\n        /* \"#utility.yul\":9818:9819   */\n      0x00\n        /* \"#utility.yul\":9807:9816   */\n      dup4\n        /* \"#utility.yul\":9803:9820   */\n      add\n        /* \"#utility.yul\":9796:9843   */\n      mstore\n        /* \"#utility.yul\":9860:9991   */\n      tag_366\n        /* \"#utility.yul\":9986:9990   */\n      dup2\n        /* \"#utility.yul\":9860:9991   */\n      tag_249\n      jump\t// in\n    tag_366:\n        /* \"#utility.yul\":9852:9991   */\n      swap1\n      pop\n        /* \"#utility.yul\":9579:9998   */\n      swap2\n      swap1\n      pop\n      jump\t// out\n        /* \"#utility.yul\":10004:10178   */\n    tag_250:\n        /* \"#utility.yul\":10144:10170   */\n      0x496e73756666696369656e742042434b2062616c616e63650000000000000000\n        /* \"#utility.yul\":10140:10141   */\n      0x00\n        /* \"#utility.yul\":10132:10138   */\n      dup3\n        /* \"#utility.yul\":10128:10142   */\n      add\n        /* \"#utility.yul\":10121:10171   */\n      mstore\n        /* \"#utility.yul\":10004:10178   */\n      pop\n      jump\t// out\n        /* \"#utility.yul\":10184:10550   */\n    tag_251:\n        /* \"#utility.yul\":10326:10329   */\n      0x00\n        /* \"#utility.yul\":10347:10414   */\n      tag_369\n        /* \"#utility.yul\":10411:10413   */\n      0x18\n        /* \"#utility.yul\":10406:10409   */\n      dup4\n        /* \"#utility.yul\":10347:10414   */\n      tag_243\n      jump\t// in\n    tag_369:\n        /* \"#utility.yul\":10340:10414   */\n      swap2\n      pop\n        /* \"#utility.yul\":10423:10516   */\n      tag_370\n        /* \"#utility.yul\":10512:10515   */\n      dup3\n        /* \"#utility.yul\":10423:10516   */\n      tag_250\n      jump\t// in\n    tag_370:\n        /* \"#utility.yul\":10541:10543   */\n      0x20\n        /* \"#utility.yul\":10536:10539   */\n      dup3\n        /* \"#utility.yul\":10532:10544   */\n      add\n        /* \"#utility.yul\":10525:10544   */\n      swap1\n      pop\n        /* \"#utility.yul\":10184:10550   */\n      swap2\n      swap1\n      pop\n      jump\t// out\n        /* \"#utility.yul\":10556:10975   */\n    tag_160:\n        /* \"#utility.yul\":10722:10726   */\n      0x00\n        /* \"#utility.yul\":10760:10762   */\n      0x20\n        /* \"#utility.yul\":10749:10758   */\n      dup3\n        /* \"#utility.yul\":10745:10763   */\n      add\n        /* \"#utility.yul\":10737:10763   */\n      swap1\n      pop\n        /* \"#utility.yul\":10809:10818   */\n      dup2\n        /* \"#utility.yul\":10803:10807   */\n      dup2\n        /* \"#utility.yul\":10799:10819   */\n      sub\n        /* \"#utility.yul\":10795:10796   */\n      0x00\n        /* \"#utility.yul\":10784:10793   */\n      dup4\n        /* \"#utility.yul\":10780:10797   */\n      add\n        /* \"#utility.yul\":10773:10820   */\n      mstore\n        /* \"#utility.yul\":10837:10968   */\n      tag_372\n        /* \"#utility.yul\":10963:10967   */\n      dup2\n        /* \"#utility.yul\":10837:10968   */\n      tag_251\n      jump\t// in\n    tag_372:\n        /* \"#utility.yul\":10829:10968   */\n      swap1\n      pop\n        /* \"#utility.yul\":10556:10975   */\n      swap2\n      swap1\n      pop\n      jump\t// out\n        /* \"#utility.yul\":10981:11214   */\n    tag_252:\n        /* \"#utility.yul\":11121:11155   */\n      0x5448455245204953204e4f20657342434b474f5620494e544552455354204c45\n        /* \"#utility.yul\":11117:11118   */\n      0x00\n        /* \"#utility.yul\":11109:11115   */\n      dup3\n        /* \"#utility.yul\":11105:11119   */\n      add\n        /* \"#utility.yul\":11098:11156   */\n      mstore\n        /* \"#utility.yul\":11190:11206   */\n      0x465420544f205749544844524157000000000000000000000000000000000000\n        /* \"#utility.yul\":11185:11187   */\n      0x20\n        /* \"#utility.yul\":11177:11183   */\n      dup3\n        /* \"#utility.yul\":11173:11188   */\n      add\n        /* \"#utility.yul\":11166:11207   */\n      mstore\n        /* \"#utility.yul\":10981:11214   */\n      pop\n      jump\t// out\n        /* \"#utility.yul\":11220:11586   */\n    tag_253:\n        /* \"#utility.yul\":11362:11365   */\n      0x00\n        /* \"#utility.yul\":11383:11450   */\n      tag_375\n        /* \"#utility.yul\":11447:11449   */\n      0x2e\n        /* \"#utility.yul\":11442:11445   */\n      dup4\n        /* \"#utility.yul\":11383:11450   */\n      tag_243\n      jump\t// in\n    tag_375:\n        /* \"#utility.yul\":11376:11450   */\n      swap2\n      pop\n        /* \"#utility.yul\":11459:11552   */\n      tag_376\n        /* \"#utility.yul\":11548:11551   */\n      dup3\n        /* \"#utility.yul\":11459:11552   */\n      tag_252\n      jump\t// in\n    tag_376:\n        /* \"#utility.yul\":11577:11579   */\n      0x40\n        /* \"#utility.yul\":11572:11575   */\n      dup3\n        /* \"#utility.yul\":11568:11580   */\n      add\n        /* \"#utility.yul\":11561:11580   */\n      swap1\n      pop\n        /* \"#utility.yul\":11220:11586   */\n      swap2\n      swap1\n      pop\n      jump\t// out\n        /* \"#utility.yul\":11592:12011   */\n    tag_175:\n        /* \"#utility.yul\":11758:11762   */\n      0x00\n        /* \"#utility.yul\":11796:11798   */\n      0x20\n        /* \"#utility.yul\":11785:11794   */\n      dup3\n        /* \"#utility.yul\":11781:11799   */\n      add\n        /* \"#utility.yul\":11773:11799   */\n      swap1\n      pop\n        /* \"#utility.yul\":11845:11854   */\n      dup2\n        /* \"#utility.yul\":11839:11843   */\n      dup2\n        /* \"#utility.yul\":11835:11855   */\n      sub\n        /* \"#utility.yul\":11831:11832   */\n      0x00\n        /* \"#utility.yul\":11820:11829   */\n      dup4\n        /* \"#utility.yul\":11816:11833   */\n      add\n        /* \"#utility.yul\":11809:11856   */\n      mstore\n        /* \"#utility.yul\":11873:12004   */\n      tag_378\n        /* \"#utility.yul\":11999:12003   */\n      dup2\n        /* \"#utility.yul\":11873:12004   */\n      tag_253\n      jump\t// in\n    tag_378:\n        /* \"#utility.yul\":11865:12004   */\n      swap1\n      pop\n        /* \"#utility.yul\":11592:12011   */\n      swap2\n      swap1\n      pop\n      jump\t// out\n        /* \"#utility.yul\":12017:12197   */\n    tag_187:\n        /* \"#utility.yul\":12065:12142   */\n      0x4e487b7100000000000000000000000000000000000000000000000000000000\n        /* \"#utility.yul\":12062:12063   */\n      0x00\n        /* \"#utility.yul\":12055:12143   */\n      mstore\n        /* \"#utility.yul\":12162:12166   */\n      0x01\n        /* \"#utility.yul\":12159:12160   */\n      0x04\n        /* \"#utility.yul\":12152:12167   */\n      mstore\n        /* \"#utility.yul\":12186:12190   */\n      0x24\n        /* \"#utility.yul\":12183:12184   */\n      0x00\n        /* \"#utility.yul\":12176:12191   */\n      revert\n        /* \"#utility.yul\":12203:12279   */\n    tag_254:\n        /* \"#utility.yul\":12239:12246   */\n      0x00\n        /* \"#utility.yul\":12268:12273   */\n      dup2\n        /* \"#utility.yul\":12257:12273   */\n      swap1\n      pop\n        /* \"#utility.yul\":12203:12279   */\n      swap2\n      swap1\n      pop\n      jump\t// out\n        /* \"#utility.yul\":12285:12660   */\n    tag_202:\n        /* \"#utility.yul\":12324:12327   */\n      0x00\n        /* \"#utility.yul\":12343:12362   */\n      tag_382\n        /* \"#utility.yul\":12360:12361   */\n      dup3\n        /* \"#utility.yul\":12343:12362   */\n      tag_254\n      jump\t// in\n    tag_382:\n        /* \"#utility.yul\":12338:12362   */\n      swap2\n      pop\n        /* \"#utility.yul\":12376:12395   */\n      tag_383\n        /* \"#utility.yul\":12393:12394   */\n      dup4\n        /* \"#utility.yul\":12376:12395   */\n      tag_254\n      jump\t// in\n    tag_383:\n        /* \"#utility.yul\":12371:12395   */\n      swap3\n      pop\n        /* \"#utility.yul\":12418:12419   */\n      dup3\n        /* \"#utility.yul\":12415:12416   */\n      dup3\n        /* \"#utility.yul\":12411:12420   */\n      add\n        /* \"#utility.yul\":12404:12420   */\n      swap1\n      pop\n        /* \"#utility.yul\":12616:12617   */\n      dup3\n        /* \"#utility.yul\":12611:12614   */\n      dup2\n        /* \"#utility.yul\":12607:12618   */\n      slt\n        /* \"#utility.yul\":12600:12619   */\n      iszero\n        /* \"#utility.yul\":12596:12597   */\n      0x00\n        /* \"#utility.yul\":12593:12594   */\n      dup4\n        /* \"#utility.yul\":12589:12598   */\n      slt\n        /* \"#utility.yul\":12585:12620   */\n      and\n        /* \"#utility.yul\":12568:12569   */\n      dup4\n        /* \"#utility.yul\":12563:12566   */\n      dup3\n        /* \"#utility.yul\":12559:12570   */\n      slt\n        /* \"#utility.yul\":12554:12555   */\n      0x00\n        /* \"#utility.yul\":12551:12552   */\n      dup5\n        /* \"#utility.yul\":12547:12556   */\n      slt\n        /* \"#utility.yul\":12540:12557   */\n      iszero\n        /* \"#utility.yul\":12536:12571   */\n      and\n        /* \"#utility.yul\":12520:12630   */\n      or\n        /* \"#utility.yul\":12517:12653   */\n      iszero\n      tag_384\n      jumpi\n        /* \"#utility.yul\":12633:12651   */\n      tag_385\n      tag_239\n      jump\t// in\n    tag_385:\n        /* \"#utility.yul\":12517:12653   */\n    tag_384:\n        /* \"#utility.yul\":12285:12660   */\n      swap3\n      swap2\n      pop\n      pop\n      jump\t// out\n        /* \"#utility.yul\":12666:13038   */\n    tag_214:\n        /* \"#utility.yul\":12705:12709   */\n      0x00\n        /* \"#utility.yul\":12725:12744   */\n      tag_387\n        /* \"#utility.yul\":12742:12743   */\n      dup3\n        /* \"#utility.yul\":12725:12744   */\n      tag_254\n      jump\t// in\n    tag_387:\n        /* \"#utility.yul\":12720:12744   */\n      swap2\n      pop\n        /* \"#utility.yul\":12758:12777   */\n      tag_388\n        /* \"#utility.yul\":12775:12776   */\n      dup4\n        /* \"#utility.yul\":12758:12777   */\n      tag_254\n      jump\t// in\n    tag_388:\n        /* \"#utility.yul\":12753:12777   */\n      swap3\n      pop\n        /* \"#utility.yul\":12801:12802   */\n      dup3\n        /* \"#utility.yul\":12798:12799   */\n      dup3\n        /* \"#utility.yul\":12794:12803   */\n      sub\n        /* \"#utility.yul\":12786:12803   */\n      swap1\n      pop\n        /* \"#utility.yul\":12995:12996   */\n      dup2\n        /* \"#utility.yul\":12989:12993   */\n      dup2\n        /* \"#utility.yul\":12985:12997   */\n      slt\n        /* \"#utility.yul\":12981:12982   */\n      0x00\n        /* \"#utility.yul\":12978:12979   */\n      dup5\n        /* \"#utility.yul\":12974:12983   */\n      slt\n        /* \"#utility.yul\":12970:12998   */\n      and\n        /* \"#utility.yul\":12953:12954   */\n      dup3\n        /* \"#utility.yul\":12947:12951   */\n      dup3\n        /* \"#utility.yul\":12943:12955   */\n      sgt\n        /* \"#utility.yul\":12938:12939   */\n      0x00\n        /* \"#utility.yul\":12935:12936   */\n      dup6\n        /* \"#utility.yul\":12931:12940   */\n      slt\n        /* \"#utility.yul\":12924:12941   */\n      iszero\n        /* \"#utility.yul\":12920:12956   */\n      and\n        /* \"#utility.yul\":12904:13008   */\n      or\n        /* \"#utility.yul\":12901:13031   */\n      iszero\n      tag_389\n      jumpi\n        /* \"#utility.yul\":13011:13029   */\n      tag_390\n      tag_239\n      jump\t// in\n    tag_390:\n        /* \"#utility.yul\":12901:13031   */\n    tag_389:\n        /* \"#utility.yul\":12666:13038   */\n      swap3\n      swap2\n      pop\n      pop\n      jump\t// out\n\n    auxdata: 0xa26469706673582212202f395625cd3070fdc974f2c816774c998eaab36605aa667517b3d5e40cceaf1c64736f6c63430008170033\n}\n",
				"bytecode": {
					"linkReferences": {},
					"object": "608060405234801562000010575f80fd5b5060405162001b4338038062001b438339818101604052810190620000369190620001a3565b825f806101000a81548173ffffffffffffffffffffffffffffffffffffffff021916908373ffffffffffffffffffffffffffffffffffffffff1602179055508160025f6101000a81548173ffffffffffffffffffffffffffffffffffffffff021916908373ffffffffffffffffffffffffffffffffffffffff1602179055503360035f6101000a81548173ffffffffffffffffffffffffffffffffffffffff021916908373ffffffffffffffffffffffffffffffffffffffff1602179055508060015f6101000a81548173ffffffffffffffffffffffffffffffffffffffff021916908373ffffffffffffffffffffffffffffffffffffffff160217905550505050620001fc565b5f80fd5b5f73ffffffffffffffffffffffffffffffffffffffff82169050919050565b5f6200016d8262000142565b9050919050565b6200017f8162000161565b81146200018a575f80fd5b50565b5f815190506200019d8162000174565b92915050565b5f805f60608486031215620001bd57620001bc6200013e565b5b5f620001cc868287016200018d565b9350506020620001df868287016200018d565b9250506040620001f2868287016200018d565b9150509250925092565b611939806200020a5f395ff3fe608060405234801561000f575f80fd5b50600436106100f2575f3560e01c80637d882097116100955780639e5be1d0116100645780639e5be1d014610260578063a1ef92eb1461027c578063b35874cb146102ac578063f00f64ec146102c8576100f2565b80637d882097146101d85780638da5cb5b146101f65780639778dd2b146102145780639ddf029314610244576100f2565b806339beb7a1116100d157806339beb7a1146101605780633e413bee1461017e5780635246fb2d1461019c57806371c21934146101ba576100f2565b806263750c146100f65780630f90c97b1461010057806327e235e314610130575b5f80fd5b6100fe6102e6565b005b61011a6004803603810190610115919061126f565b610623565b60405161012791906112b2565b60405180910390f35b61014a6004803603810190610145919061126f565b610683565b60405161015791906112b2565b60405180910390f35b610168610698565b60405161017591906112b2565b60405180910390f35b61018661069e565b6040516101939190611326565b60405180910390f35b6101a46106c3565b6040516101b19190611326565b60405180910390f35b6101c26106e8565b6040516101cf9190611326565b60405180910390f35b6101e061070b565b6040516101ed91906112b2565b60405180910390f35b6101fe610711565b60405161020b919061134e565b60405180910390f35b61022e6004803603810190610229919061126f565b610736565b60405161023b91906112b2565b60405180910390f35b61025e60048036038101906102599190611391565b61080b565b005b61027a60048036038101906102759190611391565b610a8a565b005b6102966004803603810190610291919061126f565b610cc1565b6040516102a391906112b2565b60405180910390f35b6102c660048036038101906102c19190611391565b610cd6565b005b6102d0610f8b565b6040516102dd91906112b2565b60405180910390f35b5f6102f033610623565b90505f81111561061f5761034a8160075f3373ffffffffffffffffffffffffffffffffffffffff1673ffffffffffffffffffffffffffffffffffffffff1681526020019081526020015f20546110a290919063ffffffff16565b60075f3373ffffffffffffffffffffffffffffffffffffffff1673ffffffffffffffffffffffffffffffffffffffff1681526020019081526020015f20819055505f60025f9054906101000a900473ffffffffffffffffffffffffffffffffffffffff1673ffffffffffffffffffffffffffffffffffffffff166370a08231306040518263ffffffff1660e01b81526004016103e6919061134e565b602060405180830381865afa158015610401573d5f803e3d5ffd5b505050506040513d601f19601f8201168201806040525081019061042591906113d0565b90505f81111561052e575f6005548361043e9190611455565b826104499190611485565b905060025f9054906101000a900473ffffffffffffffffffffffffffffffffffffffff1673ffffffffffffffffffffffffffffffffffffffff1663a9059cbb33836040518363ffffffff1660e01b81526004016104a79291906114c6565b6020604051808303815f875af11580156104c3573d5f803e3d5ffd5b505050506040513d601f19601f820116820180604052508101906104e79190611522565b610526576040517f08c379a000000000000000000000000000000000000000000000000000000000815260040161051d906115a7565b60405180910390fd5b505050610621565b8160055461053c91906115c5565b60058190555060015f9054906101000a900473ffffffffffffffffffffffffffffffffffffffff1673ffffffffffffffffffffffffffffffffffffffff1663a9059cbb33846040518363ffffffff1660e01b815260040161059e9291906114c6565b6020604051808303815f875af11580156105ba573d5f803e3d5ffd5b505050506040513d601f19601f820116820180604052508101906105de9190611522565b61061d576040517f08c379a0000000000000000000000000000000000000000000000000000000008152600401610614906115a7565b60405180910390fd5b505b505b565b5f61067c60075f8473ffffffffffffffffffffffffffffffffffffffff1673ffffffffffffffffffffffffffffffffffffffff1681526020019081526020015f205461066e84610736565b6110c890919063ffffffff16565b9050919050565b6008602052805f5260405f205f915090505481565b60055481565b60025f9054906101000a900473ffffffffffffffffffffffffffffffffffffffff1681565b60015f9054906101000a900473ffffffffffffffffffffffffffffffffffffffff1681565b5f8054906101000a900473ffffffffffffffffffffffffffffffffffffffff1681565b60095481565b60035f9054906101000a900473ffffffffffffffffffffffffffffffffffffffff1681565b5f7001000000000000000000000000000000006107fa6107f560065f8673ffffffffffffffffffffffffffffffffffffffff1673ffffffffffffffffffffffffffffffffffffffff1681526020019081526020015f20546107e76107e260085f8973ffffffffffffffffffffffffffffffffffffffff1673ffffffffffffffffffffffffffffffffffffffff1681526020019081526020015f20546004546110ee90919063ffffffff16565b61112e565b61114890919063ffffffff16565b61118f565b6108049190611455565b9050919050565b5f60015f9054906101000a900473ffffffffffffffffffffffffffffffffffffffff1673ffffffffffffffffffffffffffffffffffffffff166370a08231336040518263ffffffff1660e01b8152600401610866919061134e565b602060405180830381865afa158015610881573d5f803e3d5ffd5b505050506040513d601f19601f820116820180604052508101906108a591906113d0565b9050818110156108ea576040517f08c379a00000000000000000000000000000000000000000000000000000000081526004016108e190611668565b60405180910390fd5b5f60095411156109475761094061092f600954610921700100000000000000000000000000000000866110ee90919063ffffffff16565b6111a490919063ffffffff16565b6004546110a290919063ffffffff16565b6004819055505b816005546109559190611686565b6005819055503373ffffffffffffffffffffffffffffffffffffffff167f04c03fe3ea6a2027470af10696e6e65a7eae16de0bd8ecf5f6d33b776de097a3836040516109a191906112b2565b60405180910390a260015f9054906101000a900473ffffffffffffffffffffffffffffffffffffffff1673ffffffffffffffffffffffffffffffffffffffff166323b872dd3330856040518463ffffffff1660e01b8152600401610a07939291906116b9565b6020604051808303815f875af1158015610a23573d5f803e3d5ffd5b505050506040513d601f19601f82011682018060405250810190610a479190611522565b610a86576040517f08c379a0000000000000000000000000000000000000000000000000000000008152600401610a7d906115a7565b60405180910390fd5b5050565b5f8054906101000a900473ffffffffffffffffffffffffffffffffffffffff1673ffffffffffffffffffffffffffffffffffffffff166323b872dd3330846040518463ffffffff1660e01b8152600401610ae6939291906116b9565b6020604051808303815f875af1158015610b02573d5f803e3d5ffd5b505050506040513d601f19601f82011682018060405250810190610b269190611522565b610b65576040517f08c379a0000000000000000000000000000000000000000000000000000000008152600401610b5c90611738565b60405180910390fd5b610bd1610b85610b80836004546110ee90919063ffffffff16565b61112e565b60065f3373ffffffffffffffffffffffffffffffffffffffff1673ffffffffffffffffffffffffffffffffffffffff1681526020019081526020015f20546111b990919063ffffffff16565b60065f3373ffffffffffffffffffffffffffffffffffffffff1673ffffffffffffffffffffffffffffffffffffffff1681526020019081526020015f2081905550610c628160085f3373ffffffffffffffffffffffffffffffffffffffff1673ffffffffffffffffffffffffffffffffffffffff1681526020019081526020015f20546110a290919063ffffffff16565b60085f3373ffffffffffffffffffffffffffffffffffffffff1673ffffffffffffffffffffffffffffffffffffffff1681526020019081526020015f2081905550610cb8816009546110a290919063ffffffff16565b60098190555050565b6007602052805f5260405f205f915090505481565b8060085f3373ffffffffffffffffffffffffffffffffffffffff1673ffffffffffffffffffffffffffffffffffffffff1681526020019081526020015f20541015610d56576040517f08c379a0000000000000000000000000000000000000000000000000000000008152600401610d4d906117a0565b60405180910390fd5b610dc2610d76610d71836004546110ee90919063ffffffff16565b61112e565b60065f3373ffffffffffffffffffffffffffffffffffffffff1673ffffffffffffffffffffffffffffffffffffffff1681526020019081526020015f205461114890919063ffffffff16565b60065f3373ffffffffffffffffffffffffffffffffffffffff1673ffffffffffffffffffffffffffffffffffffffff1681526020019081526020015f2081905550610e538160085f3373ffffffffffffffffffffffffffffffffffffffff1673ffffffffffffffffffffffffffffffffffffffff1681526020019081526020015f20546110c890919063ffffffff16565b60085f3373ffffffffffffffffffffffffffffffffffffffff1673ffffffffffffffffffffffffffffffffffffffff1681526020019081526020015f2081905550610ea9816009546110c890919063ffffffff16565b6009819055505f8054906101000a900473ffffffffffffffffffffffffffffffffffffffff1673ffffffffffffffffffffffffffffffffffffffff1663a9059cbb33836040518363ffffffff1660e01b8152600401610f099291906114c6565b6020604051808303815f875af1158015610f25573d5f803e3d5ffd5b505050506040513d601f19601f82011682018060405250810190610f499190611522565b610f88576040517f08c379a0000000000000000000000000000000000000000000000000000000008152600401610f7f90611738565b60405180910390fd5b50565b5f8060055411610fd0576040517f08c379a0000000000000000000000000000000000000000000000000000000008152600401610fc79061182e565b60405180910390fd5b5f610fda33610623565b90505f60025f9054906101000a900473ffffffffffffffffffffffffffffffffffffffff1673ffffffffffffffffffffffffffffffffffffffff166370a08231306040518263ffffffff1660e01b8152600401611037919061134e565b602060405180830381865afa158015611052573d5f803e3d5ffd5b505050506040513d601f19601f8201168201806040525081019061107691906113d0565b90505f600554836110879190611455565b826110929190611485565b90505f8190508094505050505090565b5f81836110af9190611686565b9050828110156110c2576110c161184c565b5b92915050565b5f828211156110da576110d961184c565b5b81836110e691906115c5565b905092915050565b5f8083036110fe575f9050611128565b818361110a9190611485565b90508183826111199190611455565b146111275761112661184c565b5b5b92915050565b5f808290505f81121561113f575f80fd5b80915050919050565b5f8082846111569190611882565b90505f83121580156111685750838112155b8061117d57505f8312801561117c57508381125b5b611185575f80fd5b8091505092915050565b5f8082121561119c575f80fd5b819050919050565b5f81836111b19190611455565b905092915050565b5f8082121580156111d557508282846111d291906118c3565b13155b806111f557505f821280156111f457508282846111f291906118c3565b135b5b6111fd575f80fd5b818361120991906118c3565b905092915050565b5f80fd5b5f73ffffffffffffffffffffffffffffffffffffffff82169050919050565b5f61123e82611215565b9050919050565b61124e81611234565b8114611258575f80fd5b50565b5f8135905061126981611245565b92915050565b5f6020828403121561128457611283611211565b5b5f6112918482850161125b565b91505092915050565b5f819050919050565b6112ac8161129a565b82525050565b5f6020820190506112c55f8301846112a3565b92915050565b5f819050919050565b5f6112ee6112e96112e484611215565b6112cb565b611215565b9050919050565b5f6112ff826112d4565b9050919050565b5f611310826112f5565b9050919050565b61132081611306565b82525050565b5f6020820190506113395f830184611317565b92915050565b61134881611234565b82525050565b5f6020820190506113615f83018461133f565b92915050565b6113708161129a565b811461137a575f80fd5b50565b5f8135905061138b81611367565b92915050565b5f602082840312156113a6576113a5611211565b5b5f6113b38482850161137d565b91505092915050565b5f815190506113ca81611367565b92915050565b5f602082840312156113e5576113e4611211565b5b5f6113f2848285016113bc565b91505092915050565b7f4e487b71000000000000000000000000000000000000000000000000000000005f52601260045260245ffd5b7f4e487b71000000000000000000000000000000000000000000000000000000005f52601160045260245ffd5b5f61145f8261129a565b915061146a8361129a565b92508261147a576114796113fb565b5b828204905092915050565b5f61148f8261129a565b915061149a8361129a565b92508282026114a88161129a565b915082820484148315176114bf576114be611428565b5b5092915050565b5f6040820190506114d95f83018561133f565b6114e660208301846112a3565b9392505050565b5f8115159050919050565b611501816114ed565b811461150b575f80fd5b50565b5f8151905061151c816114f8565b92915050565b5f6020828403121561153757611536611211565b5b5f6115448482850161150e565b91505092915050565b5f82825260208201905092915050565b7f55534443207472616e73666572206661696c65640000000000000000000000005f82015250565b5f61159160148361154d565b915061159c8261155d565b602082019050919050565b5f6020820190508181035f8301526115be81611585565b9050919050565b5f6115cf8261129a565b91506115da8361129a565b92508282039050818111156115f2576115f1611428565b5b92915050565b7f4f776e65722068617320696e73756666696369656e7420555344432062616c615f8201527f6e63650000000000000000000000000000000000000000000000000000000000602082015250565b5f61165260238361154d565b915061165d826115f8565b604082019050919050565b5f6020820190508181035f83015261167f81611646565b9050919050565b5f6116908261129a565b915061169b8361129a565b92508282019050808211156116b3576116b2611428565b5b92915050565b5f6060820190506116cc5f83018661133f565b6116d9602083018561133f565b6116e660408301846112a3565b949350505050565b7f42434b207472616e73666572206661696c6564000000000000000000000000005f82015250565b5f61172260138361154d565b915061172d826116ee565b602082019050919050565b5f6020820190508181035f83015261174f81611716565b9050919050565b7f496e73756666696369656e742042434b2062616c616e636500000000000000005f82015250565b5f61178a60188361154d565b915061179582611756565b602082019050919050565b5f6020820190508181035f8301526117b78161177e565b9050919050565b7f5448455245204953204e4f20657342434b474f5620494e544552455354204c455f8201527f465420544f205749544844524157000000000000000000000000000000000000602082015250565b5f611818602e8361154d565b9150611823826117be565b604082019050919050565b5f6020820190508181035f8301526118458161180c565b9050919050565b7f4e487b71000000000000000000000000000000000000000000000000000000005f52600160045260245ffd5b5f819050919050565b5f61188c82611879565b915061189783611879565b92508282019050828112155f8312168382125f8412151617156118bd576118bc611428565b5b92915050565b5f6118cd82611879565b91506118d883611879565b925082820390508181125f8412168282135f8512151617156118fd576118fc611428565b5b9291505056fea26469706673582212202f395625cd3070fdc974f2c816774c998eaab36605aa667517b3d5e40cceaf1c64736f6c63430008170033",
					"opcodes": "PUSH1 0x80 PUSH1 0x40 MSTORE CALLVALUE DUP1 ISZERO PUSH3 0x10 JUMPI PUSH0 DUP1 REVERT JUMPDEST POP PUSH1 0x40 MLOAD PUSH3 0x1B43 CODESIZE SUB DUP1 PUSH3 0x1B43 DUP4 CODECOPY DUP2 DUP2 ADD PUSH1 0x40 MSTORE DUP2 ADD SWAP1 PUSH3 0x36 SWAP2 SWAP1 PUSH3 0x1A3 JUMP JUMPDEST DUP3 PUSH0 DUP1 PUSH2 0x100 EXP DUP2 SLOAD DUP2 PUSH20 0xFFFFFFFFFFFFFFFFFFFFFFFFFFFFFFFFFFFFFFFF MUL NOT AND SWAP1 DUP4 PUSH20 0xFFFFFFFFFFFFFFFFFFFFFFFFFFFFFFFFFFFFFFFF AND MUL OR SWAP1 SSTORE POP DUP2 PUSH1 0x2 PUSH0 PUSH2 0x100 EXP DUP2 SLOAD DUP2 PUSH20 0xFFFFFFFFFFFFFFFFFFFFFFFFFFFFFFFFFFFFFFFF MUL NOT AND SWAP1 DUP4 PUSH20 0xFFFFFFFFFFFFFFFFFFFFFFFFFFFFFFFFFFFFFFFF AND MUL OR SWAP1 SSTORE POP CALLER PUSH1 0x3 PUSH0 PUSH2 0x100 EXP DUP2 SLOAD DUP2 PUSH20 0xFFFFFFFFFFFFFFFFFFFFFFFFFFFFFFFFFFFFFFFF MUL NOT AND SWAP1 DUP4 PUSH20 0xFFFFFFFFFFFFFFFFFFFFFFFFFFFFFFFFFFFFFFFF AND MUL OR SWAP1 SSTORE POP DUP1 PUSH1 0x1 PUSH0 PUSH2 0x100 EXP DUP2 SLOAD DUP2 PUSH20 0xFFFFFFFFFFFFFFFFFFFFFFFFFFFFFFFFFFFFFFFF MUL NOT AND SWAP1 DUP4 PUSH20 0xFFFFFFFFFFFFFFFFFFFFFFFFFFFFFFFFFFFFFFFF AND MUL OR SWAP1 SSTORE POP POP POP POP PUSH3 0x1FC JUMP JUMPDEST PUSH0 DUP1 REVERT JUMPDEST PUSH0 PUSH20 0xFFFFFFFFFFFFFFFFFFFFFFFFFFFFFFFFFFFFFFFF DUP3 AND SWAP1 POP SWAP2 SWAP1 POP JUMP JUMPDEST PUSH0 PUSH3 0x16D DUP3 PUSH3 0x142 JUMP JUMPDEST SWAP1 POP SWAP2 SWAP1 POP JUMP JUMPDEST PUSH3 0x17F DUP2 PUSH3 0x161 JUMP JUMPDEST DUP2 EQ PUSH3 0x18A JUMPI PUSH0 DUP1 REVERT JUMPDEST POP JUMP JUMPDEST PUSH0 DUP2 MLOAD SWAP1 POP PUSH3 0x19D DUP2 PUSH3 0x174 JUMP JUMPDEST SWAP3 SWAP2 POP POP JUMP JUMPDEST PUSH0 DUP1 PUSH0 PUSH1 0x60 DUP5 DUP7 SUB SLT ISZERO PUSH3 0x1BD JUMPI PUSH3 0x1BC PUSH3 0x13E JUMP JUMPDEST JUMPDEST PUSH0 PUSH3 0x1CC DUP7 DUP3 DUP8 ADD PUSH3 0x18D JUMP JUMPDEST SWAP4 POP POP PUSH1 0x20 PUSH3 0x1DF DUP7 DUP3 DUP8 ADD PUSH3 0x18D JUMP JUMPDEST SWAP3 POP POP PUSH1 0x40 PUSH3 0x1F2 DUP7 DUP3 DUP8 ADD PUSH3 0x18D JUMP JUMPDEST SWAP2 POP POP SWAP3 POP SWAP3 POP SWAP3 JUMP JUMPDEST PUSH2 0x1939 DUP1 PUSH3 0x20A PUSH0 CODECOPY PUSH0 RETURN INVALID PUSH1 0x80 PUSH1 0x40 MSTORE CALLVALUE DUP1 ISZERO PUSH2 0xF JUMPI PUSH0 DUP1 REVERT JUMPDEST POP PUSH1 0x4 CALLDATASIZE LT PUSH2 0xF2 JUMPI PUSH0 CALLDATALOAD PUSH1 0xE0 SHR DUP1 PUSH4 0x7D882097 GT PUSH2 0x95 JUMPI DUP1 PUSH4 0x9E5BE1D0 GT PUSH2 0x64 JUMPI DUP1 PUSH4 0x9E5BE1D0 EQ PUSH2 0x260 JUMPI DUP1 PUSH4 0xA1EF92EB EQ PUSH2 0x27C JUMPI DUP1 PUSH4 0xB35874CB EQ PUSH2 0x2AC JUMPI DUP1 PUSH4 0xF00F64EC EQ PUSH2 0x2C8 JUMPI PUSH2 0xF2 JUMP JUMPDEST DUP1 PUSH4 0x7D882097 EQ PUSH2 0x1D8 JUMPI DUP1 PUSH4 0x8DA5CB5B EQ PUSH2 0x1F6 JUMPI DUP1 PUSH4 0x9778DD2B EQ PUSH2 0x214 JUMPI DUP1 PUSH4 0x9DDF0293 EQ PUSH2 0x244 JUMPI PUSH2 0xF2 JUMP JUMPDEST DUP1 PUSH4 0x39BEB7A1 GT PUSH2 0xD1 JUMPI DUP1 PUSH4 0x39BEB7A1 EQ PUSH2 0x160 JUMPI DUP1 PUSH4 0x3E413BEE EQ PUSH2 0x17E JUMPI DUP1 PUSH4 0x5246FB2D EQ PUSH2 0x19C JUMPI DUP1 PUSH4 0x71C21934 EQ PUSH2 0x1BA JUMPI PUSH2 0xF2 JUMP JUMPDEST DUP1 PUSH3 0x63750C EQ PUSH2 0xF6 JUMPI DUP1 PUSH4 0xF90C97B EQ PUSH2 0x100 JUMPI DUP1 PUSH4 0x27E235E3 EQ PUSH2 0x130 JUMPI JUMPDEST PUSH0 DUP1 REVERT JUMPDEST PUSH2 0xFE PUSH2 0x2E6 JUMP JUMPDEST STOP JUMPDEST PUSH2 0x11A PUSH1 0x4 DUP1 CALLDATASIZE SUB DUP2 ADD SWAP1 PUSH2 0x115 SWAP2 SWAP1 PUSH2 0x126F JUMP JUMPDEST PUSH2 0x623 JUMP JUMPDEST PUSH1 0x40 MLOAD PUSH2 0x127 SWAP2 SWAP1 PUSH2 0x12B2 JUMP JUMPDEST PUSH1 0x40 MLOAD DUP1 SWAP2 SUB SWAP1 RETURN JUMPDEST PUSH2 0x14A PUSH1 0x4 DUP1 CALLDATASIZE SUB DUP2 ADD SWAP1 PUSH2 0x145 SWAP2 SWAP1 PUSH2 0x126F JUMP JUMPDEST PUSH2 0x683 JUMP JUMPDEST PUSH1 0x40 MLOAD PUSH2 0x157 SWAP2 SWAP1 PUSH2 0x12B2 JUMP JUMPDEST PUSH1 0x40 MLOAD DUP1 SWAP2 SUB SWAP1 RETURN JUMPDEST PUSH2 0x168 PUSH2 0x698 JUMP JUMPDEST PUSH1 0x40 MLOAD PUSH2 0x175 SWAP2 SWAP1 PUSH2 0x12B2 JUMP JUMPDEST PUSH1 0x40 MLOAD DUP1 SWAP2 SUB SWAP1 RETURN JUMPDEST PUSH2 0x186 PUSH2 0x69E JUMP JUMPDEST PUSH1 0x40 MLOAD PUSH2 0x193 SWAP2 SWAP1 PUSH2 0x1326 JUMP JUMPDEST PUSH1 0x40 MLOAD DUP1 SWAP2 SUB SWAP1 RETURN JUMPDEST PUSH2 0x1A4 PUSH2 0x6C3 JUMP JUMPDEST PUSH1 0x40 MLOAD PUSH2 0x1B1 SWAP2 SWAP1 PUSH2 0x1326 JUMP JUMPDEST PUSH1 0x40 MLOAD DUP1 SWAP2 SUB SWAP1 RETURN JUMPDEST PUSH2 0x1C2 PUSH2 0x6E8 JUMP JUMPDEST PUSH1 0x40 MLOAD PUSH2 0x1CF SWAP2 SWAP1 PUSH2 0x1326 JUMP JUMPDEST PUSH1 0x40 MLOAD DUP1 SWAP2 SUB SWAP1 RETURN JUMPDEST PUSH2 0x1E0 PUSH2 0x70B JUMP JUMPDEST PUSH1 0x40 MLOAD PUSH2 0x1ED SWAP2 SWAP1 PUSH2 0x12B2 JUMP JUMPDEST PUSH1 0x40 MLOAD DUP1 SWAP2 SUB SWAP1 RETURN JUMPDEST PUSH2 0x1FE PUSH2 0x711 JUMP JUMPDEST PUSH1 0x40 MLOAD PUSH2 0x20B SWAP2 SWAP1 PUSH2 0x134E JUMP JUMPDEST PUSH1 0x40 MLOAD DUP1 SWAP2 SUB SWAP1 RETURN JUMPDEST PUSH2 0x22E PUSH1 0x4 DUP1 CALLDATASIZE SUB DUP2 ADD SWAP1 PUSH2 0x229 SWAP2 SWAP1 PUSH2 0x126F JUMP JUMPDEST PUSH2 0x736 JUMP JUMPDEST PUSH1 0x40 MLOAD PUSH2 0x23B SWAP2 SWAP1 PUSH2 0x12B2 JUMP JUMPDEST PUSH1 0x40 MLOAD DUP1 SWAP2 SUB SWAP1 RETURN JUMPDEST PUSH2 0x25E PUSH1 0x4 DUP1 CALLDATASIZE SUB DUP2 ADD SWAP1 PUSH2 0x259 SWAP2 SWAP1 PUSH2 0x1391 JUMP JUMPDEST PUSH2 0x80B JUMP JUMPDEST STOP JUMPDEST PUSH2 0x27A PUSH1 0x4 DUP1 CALLDATASIZE SUB DUP2 ADD SWAP1 PUSH2 0x275 SWAP2 SWAP1 PUSH2 0x1391 JUMP JUMPDEST PUSH2 0xA8A JUMP JUMPDEST STOP JUMPDEST PUSH2 0x296 PUSH1 0x4 DUP1 CALLDATASIZE SUB DUP2 ADD SWAP1 PUSH2 0x291 SWAP2 SWAP1 PUSH2 0x126F JUMP JUMPDEST PUSH2 0xCC1 JUMP JUMPDEST PUSH1 0x40 MLOAD PUSH2 0x2A3 SWAP2 SWAP1 PUSH2 0x12B2 JUMP JUMPDEST PUSH1 0x40 MLOAD DUP1 SWAP2 SUB SWAP1 RETURN JUMPDEST PUSH2 0x2C6 PUSH1 0x4 DUP1 CALLDATASIZE SUB DUP2 ADD SWAP1 PUSH2 0x2C1 SWAP2 SWAP1 PUSH2 0x1391 JUMP JUMPDEST PUSH2 0xCD6 JUMP JUMPDEST STOP JUMPDEST PUSH2 0x2D0 PUSH2 0xF8B JUMP JUMPDEST PUSH1 0x40 MLOAD PUSH2 0x2DD SWAP2 SWAP1 PUSH2 0x12B2 JUMP JUMPDEST PUSH1 0x40 MLOAD DUP1 SWAP2 SUB SWAP1 RETURN JUMPDEST PUSH0 PUSH2 0x2F0 CALLER PUSH2 0x623 JUMP JUMPDEST SWAP1 POP PUSH0 DUP2 GT ISZERO PUSH2 0x61F JUMPI PUSH2 0x34A DUP2 PUSH1 0x7 PUSH0 CALLER PUSH20 0xFFFFFFFFFFFFFFFFFFFFFFFFFFFFFFFFFFFFFFFF AND PUSH20 0xFFFFFFFFFFFFFFFFFFFFFFFFFFFFFFFFFFFFFFFF AND DUP2 MSTORE PUSH1 0x20 ADD SWAP1 DUP2 MSTORE PUSH1 0x20 ADD PUSH0 KECCAK256 SLOAD PUSH2 0x10A2 SWAP1 SWAP2 SWAP1 PUSH4 0xFFFFFFFF AND JUMP JUMPDEST PUSH1 0x7 PUSH0 CALLER PUSH20 0xFFFFFFFFFFFFFFFFFFFFFFFFFFFFFFFFFFFFFFFF AND PUSH20 0xFFFFFFFFFFFFFFFFFFFFFFFFFFFFFFFFFFFFFFFF AND DUP2 MSTORE PUSH1 0x20 ADD SWAP1 DUP2 MSTORE PUSH1 0x20 ADD PUSH0 KECCAK256 DUP2 SWAP1 SSTORE POP PUSH0 PUSH1 0x2 PUSH0 SWAP1 SLOAD SWAP1 PUSH2 0x100 EXP SWAP1 DIV PUSH20 0xFFFFFFFFFFFFFFFFFFFFFFFFFFFFFFFFFFFFFFFF AND PUSH20 0xFFFFFFFFFFFFFFFFFFFFFFFFFFFFFFFFFFFFFFFF AND PUSH4 0x70A08231 ADDRESS PUSH1 0x40 MLOAD DUP3 PUSH4 0xFFFFFFFF AND PUSH1 0xE0 SHL DUP2 MSTORE PUSH1 0x4 ADD PUSH2 0x3E6 SWAP2 SWAP1 PUSH2 0x134E JUMP JUMPDEST PUSH1 0x20 PUSH1 0x40 MLOAD DUP1 DUP4 SUB DUP2 DUP7 GAS STATICCALL ISZERO DUP1 ISZERO PUSH2 0x401 JUMPI RETURNDATASIZE PUSH0 DUP1 RETURNDATACOPY RETURNDATASIZE PUSH0 REVERT JUMPDEST POP POP POP POP PUSH1 0x40 MLOAD RETURNDATASIZE PUSH1 0x1F NOT PUSH1 0x1F DUP3 ADD AND DUP3 ADD DUP1 PUSH1 0x40 MSTORE POP DUP2 ADD SWAP1 PUSH2 0x425 SWAP2 SWAP1 PUSH2 0x13D0 JUMP JUMPDEST SWAP1 POP PUSH0 DUP2 GT ISZERO PUSH2 0x52E JUMPI PUSH0 PUSH1 0x5 SLOAD DUP4 PUSH2 0x43E SWAP2 SWAP1 PUSH2 0x1455 JUMP JUMPDEST DUP3 PUSH2 0x449 SWAP2 SWAP1 PUSH2 0x1485 JUMP JUMPDEST SWAP1 POP PUSH1 0x2 PUSH0 SWAP1 SLOAD SWAP1 PUSH2 0x100 EXP SWAP1 DIV PUSH20 0xFFFFFFFFFFFFFFFFFFFFFFFFFFFFFFFFFFFFFFFF AND PUSH20 0xFFFFFFFFFFFFFFFFFFFFFFFFFFFFFFFFFFFFFFFF AND PUSH4 0xA9059CBB CALLER DUP4 PUSH1 0x40 MLOAD DUP4 PUSH4 0xFFFFFFFF AND PUSH1 0xE0 SHL DUP2 MSTORE PUSH1 0x4 ADD PUSH2 0x4A7 SWAP3 SWAP2 SWAP1 PUSH2 0x14C6 JUMP JUMPDEST PUSH1 0x20 PUSH1 0x40 MLOAD DUP1 DUP4 SUB DUP2 PUSH0 DUP8 GAS CALL ISZERO DUP1 ISZERO PUSH2 0x4C3 JUMPI RETURNDATASIZE PUSH0 DUP1 RETURNDATACOPY RETURNDATASIZE PUSH0 REVERT JUMPDEST POP POP POP POP PUSH1 0x40 MLOAD RETURNDATASIZE PUSH1 0x1F NOT PUSH1 0x1F DUP3 ADD AND DUP3 ADD DUP1 PUSH1 0x40 MSTORE POP DUP2 ADD SWAP1 PUSH2 0x4E7 SWAP2 SWAP1 PUSH2 0x1522 JUMP JUMPDEST PUSH2 0x526 JUMPI PUSH1 0x40 MLOAD PUSH32 0x8C379A000000000000000000000000000000000000000000000000000000000 DUP2 MSTORE PUSH1 0x4 ADD PUSH2 0x51D SWAP1 PUSH2 0x15A7 JUMP JUMPDEST PUSH1 0x40 MLOAD DUP1 SWAP2 SUB SWAP1 REVERT JUMPDEST POP POP POP PUSH2 0x621 JUMP JUMPDEST DUP2 PUSH1 0x5 SLOAD PUSH2 0x53C SWAP2 SWAP1 PUSH2 0x15C5 JUMP JUMPDEST PUSH1 0x5 DUP2 SWAP1 SSTORE POP PUSH1 0x1 PUSH0 SWAP1 SLOAD SWAP1 PUSH2 0x100 EXP SWAP1 DIV PUSH20 0xFFFFFFFFFFFFFFFFFFFFFFFFFFFFFFFFFFFFFFFF AND PUSH20 0xFFFFFFFFFFFFFFFFFFFFFFFFFFFFFFFFFFFFFFFF AND PUSH4 0xA9059CBB CALLER DUP5 PUSH1 0x40 MLOAD DUP4 PUSH4 0xFFFFFFFF AND PUSH1 0xE0 SHL DUP2 MSTORE PUSH1 0x4 ADD PUSH2 0x59E SWAP3 SWAP2 SWAP1 PUSH2 0x14C6 JUMP JUMPDEST PUSH1 0x20 PUSH1 0x40 MLOAD DUP1 DUP4 SUB DUP2 PUSH0 DUP8 GAS CALL ISZERO DUP1 ISZERO PUSH2 0x5BA JUMPI RETURNDATASIZE PUSH0 DUP1 RETURNDATACOPY RETURNDATASIZE PUSH0 REVERT JUMPDEST POP POP POP POP PUSH1 0x40 MLOAD RETURNDATASIZE PUSH1 0x1F NOT PUSH1 0x1F DUP3 ADD AND DUP3 ADD DUP1 PUSH1 0x40 MSTORE POP DUP2 ADD SWAP1 PUSH2 0x5DE SWAP2 SWAP1 PUSH2 0x1522 JUMP JUMPDEST PUSH2 0x61D JUMPI PUSH1 0x40 MLOAD PUSH32 0x8C379A000000000000000000000000000000000000000000000000000000000 DUP2 MSTORE PUSH1 0x4 ADD PUSH2 0x614 SWAP1 PUSH2 0x15A7 JUMP JUMPDEST PUSH1 0x40 MLOAD DUP1 SWAP2 SUB SWAP1 REVERT JUMPDEST POP JUMPDEST POP JUMPDEST JUMP JUMPDEST PUSH0 PUSH2 0x67C PUSH1 0x7 PUSH0 DUP5 PUSH20 0xFFFFFFFFFFFFFFFFFFFFFFFFFFFFFFFFFFFFFFFF AND PUSH20 0xFFFFFFFFFFFFFFFFFFFFFFFFFFFFFFFFFFFFFFFF AND DUP2 MSTORE PUSH1 0x20 ADD SWAP1 DUP2 MSTORE PUSH1 0x20 ADD PUSH0 KECCAK256 SLOAD PUSH2 0x66E DUP5 PUSH2 0x736 JUMP JUMPDEST PUSH2 0x10C8 SWAP1 SWAP2 SWAP1 PUSH4 0xFFFFFFFF AND JUMP JUMPDEST SWAP1 POP SWAP2 SWAP1 POP JUMP JUMPDEST PUSH1 0x8 PUSH1 0x20 MSTORE DUP1 PUSH0 MSTORE PUSH1 0x40 PUSH0 KECCAK256 PUSH0 SWAP2 POP SWAP1 POP SLOAD DUP2 JUMP JUMPDEST PUSH1 0x5 SLOAD DUP2 JUMP JUMPDEST PUSH1 0x2 PUSH0 SWAP1 SLOAD SWAP1 PUSH2 0x100 EXP SWAP1 DIV PUSH20 0xFFFFFFFFFFFFFFFFFFFFFFFFFFFFFFFFFFFFFFFF AND DUP2 JUMP JUMPDEST PUSH1 0x1 PUSH0 SWAP1 SLOAD SWAP1 PUSH2 0x100 EXP SWAP1 DIV PUSH20 0xFFFFFFFFFFFFFFFFFFFFFFFFFFFFFFFFFFFFFFFF AND DUP2 JUMP JUMPDEST PUSH0 DUP1 SLOAD SWAP1 PUSH2 0x100 EXP SWAP1 DIV PUSH20 0xFFFFFFFFFFFFFFFFFFFFFFFFFFFFFFFFFFFFFFFF AND DUP2 JUMP JUMPDEST PUSH1 0x9 SLOAD DUP2 JUMP JUMPDEST PUSH1 0x3 PUSH0 SWAP1 SLOAD SWAP1 PUSH2 0x100 EXP SWAP1 DIV PUSH20 0xFFFFFFFFFFFFFFFFFFFFFFFFFFFFFFFFFFFFFFFF AND DUP2 JUMP JUMPDEST PUSH0 PUSH17 0x100000000000000000000000000000000 PUSH2 0x7FA PUSH2 0x7F5 PUSH1 0x6 PUSH0 DUP7 PUSH20 0xFFFFFFFFFFFFFFFFFFFFFFFFFFFFFFFFFFFFFFFF AND PUSH20 0xFFFFFFFFFFFFFFFFFFFFFFFFFFFFFFFFFFFFFFFF AND DUP2 MSTORE PUSH1 0x20 ADD SWAP1 DUP2 MSTORE PUSH1 0x20 ADD PUSH0 KECCAK256 SLOAD PUSH2 0x7E7 PUSH2 0x7E2 PUSH1 0x8 PUSH0 DUP10 PUSH20 0xFFFFFFFFFFFFFFFFFFFFFFFFFFFFFFFFFFFFFFFF AND PUSH20 0xFFFFFFFFFFFFFFFFFFFFFFFFFFFFFFFFFFFFFFFF AND DUP2 MSTORE PUSH1 0x20 ADD SWAP1 DUP2 MSTORE PUSH1 0x20 ADD PUSH0 KECCAK256 SLOAD PUSH1 0x4 SLOAD PUSH2 0x10EE SWAP1 SWAP2 SWAP1 PUSH4 0xFFFFFFFF AND JUMP JUMPDEST PUSH2 0x112E JUMP JUMPDEST PUSH2 0x1148 SWAP1 SWAP2 SWAP1 PUSH4 0xFFFFFFFF AND JUMP JUMPDEST PUSH2 0x118F JUMP JUMPDEST PUSH2 0x804 SWAP2 SWAP1 PUSH2 0x1455 JUMP JUMPDEST SWAP1 POP SWAP2 SWAP1 POP JUMP JUMPDEST PUSH0 PUSH1 0x1 PUSH0 SWAP1 SLOAD SWAP1 PUSH2 0x100 EXP SWAP1 DIV PUSH20 0xFFFFFFFFFFFFFFFFFFFFFFFFFFFFFFFFFFFFFFFF AND PUSH20 0xFFFFFFFFFFFFFFFFFFFFFFFFFFFFFFFFFFFFFFFF AND PUSH4 0x70A08231 CALLER PUSH1 0x40 MLOAD DUP3 PUSH4 0xFFFFFFFF AND PUSH1 0xE0 SHL DUP2 MSTORE PUSH1 0x4 ADD PUSH2 0x866 SWAP2 SWAP1 PUSH2 0x134E JUMP JUMPDEST PUSH1 0x20 PUSH1 0x40 MLOAD DUP1 DUP4 SUB DUP2 DUP7 GAS STATICCALL ISZERO DUP1 ISZERO PUSH2 0x881 JUMPI RETURNDATASIZE PUSH0 DUP1 RETURNDATACOPY RETURNDATASIZE PUSH0 REVERT JUMPDEST POP POP POP POP PUSH1 0x40 MLOAD RETURNDATASIZE PUSH1 0x1F NOT PUSH1 0x1F DUP3 ADD AND DUP3 ADD DUP1 PUSH1 0x40 MSTORE POP DUP2 ADD SWAP1 PUSH2 0x8A5 SWAP2 SWAP1 PUSH2 0x13D0 JUMP JUMPDEST SWAP1 POP DUP2 DUP2 LT ISZERO PUSH2 0x8EA JUMPI PUSH1 0x40 MLOAD PUSH32 0x8C379A000000000000000000000000000000000000000000000000000000000 DUP2 MSTORE PUSH1 0x4 ADD PUSH2 0x8E1 SWAP1 PUSH2 0x1668 JUMP JUMPDEST PUSH1 0x40 MLOAD DUP1 SWAP2 SUB SWAP1 REVERT JUMPDEST PUSH0 PUSH1 0x9 SLOAD GT ISZERO PUSH2 0x947 JUMPI PUSH2 0x940 PUSH2 0x92F PUSH1 0x9 SLOAD PUSH2 0x921 PUSH17 0x100000000000000000000000000000000 DUP7 PUSH2 0x10EE SWAP1 SWAP2 SWAP1 PUSH4 0xFFFFFFFF AND JUMP JUMPDEST PUSH2 0x11A4 SWAP1 SWAP2 SWAP1 PUSH4 0xFFFFFFFF AND JUMP JUMPDEST PUSH1 0x4 SLOAD PUSH2 0x10A2 SWAP1 SWAP2 SWAP1 PUSH4 0xFFFFFFFF AND JUMP JUMPDEST PUSH1 0x4 DUP2 SWAP1 SSTORE POP JUMPDEST DUP2 PUSH1 0x5 SLOAD PUSH2 0x955 SWAP2 SWAP1 PUSH2 0x1686 JUMP JUMPDEST PUSH1 0x5 DUP2 SWAP1 SSTORE POP CALLER PUSH20 0xFFFFFFFFFFFFFFFFFFFFFFFFFFFFFFFFFFFFFFFF AND PUSH32 0x4C03FE3EA6A2027470AF10696E6E65A7EAE16DE0BD8ECF5F6D33B776DE097A3 DUP4 PUSH1 0x40 MLOAD PUSH2 0x9A1 SWAP2 SWAP1 PUSH2 0x12B2 JUMP JUMPDEST PUSH1 0x40 MLOAD DUP1 SWAP2 SUB SWAP1 LOG2 PUSH1 0x1 PUSH0 SWAP1 SLOAD SWAP1 PUSH2 0x100 EXP SWAP1 DIV PUSH20 0xFFFFFFFFFFFFFFFFFFFFFFFFFFFFFFFFFFFFFFFF AND PUSH20 0xFFFFFFFFFFFFFFFFFFFFFFFFFFFFFFFFFFFFFFFF AND PUSH4 0x23B872DD CALLER ADDRESS DUP6 PUSH1 0x40 MLOAD DUP5 PUSH4 0xFFFFFFFF AND PUSH1 0xE0 SHL DUP2 MSTORE PUSH1 0x4 ADD PUSH2 0xA07 SWAP4 SWAP3 SWAP2 SWAP1 PUSH2 0x16B9 JUMP JUMPDEST PUSH1 0x20 PUSH1 0x40 MLOAD DUP1 DUP4 SUB DUP2 PUSH0 DUP8 GAS CALL ISZERO DUP1 ISZERO PUSH2 0xA23 JUMPI RETURNDATASIZE PUSH0 DUP1 RETURNDATACOPY RETURNDATASIZE PUSH0 REVERT JUMPDEST POP POP POP POP PUSH1 0x40 MLOAD RETURNDATASIZE PUSH1 0x1F NOT PUSH1 0x1F DUP3 ADD AND DUP3 ADD DUP1 PUSH1 0x40 MSTORE POP DUP2 ADD SWAP1 PUSH2 0xA47 SWAP2 SWAP1 PUSH2 0x1522 JUMP JUMPDEST PUSH2 0xA86 JUMPI PUSH1 0x40 MLOAD PUSH32 0x8C379A000000000000000000000000000000000000000000000000000000000 DUP2 MSTORE PUSH1 0x4 ADD PUSH2 0xA7D SWAP1 PUSH2 0x15A7 JUMP JUMPDEST PUSH1 0x40 MLOAD DUP1 SWAP2 SUB SWAP1 REVERT JUMPDEST POP POP JUMP JUMPDEST PUSH0 DUP1 SLOAD SWAP1 PUSH2 0x100 EXP SWAP1 DIV PUSH20 0xFFFFFFFFFFFFFFFFFFFFFFFFFFFFFFFFFFFFFFFF AND PUSH20 0xFFFFFFFFFFFFFFFFFFFFFFFFFFFFFFFFFFFFFFFF AND PUSH4 0x23B872DD CALLER ADDRESS DUP5 PUSH1 0x40 MLOAD DUP5 PUSH4 0xFFFFFFFF AND PUSH1 0xE0 SHL DUP2 MSTORE PUSH1 0x4 ADD PUSH2 0xAE6 SWAP4 SWAP3 SWAP2 SWAP1 PUSH2 0x16B9 JUMP JUMPDEST PUSH1 0x20 PUSH1 0x40 MLOAD DUP1 DUP4 SUB DUP2 PUSH0 DUP8 GAS CALL ISZERO DUP1 ISZERO PUSH2 0xB02 JUMPI RETURNDATASIZE PUSH0 DUP1 RETURNDATACOPY RETURNDATASIZE PUSH0 REVERT JUMPDEST POP POP POP POP PUSH1 0x40 MLOAD RETURNDATASIZE PUSH1 0x1F NOT PUSH1 0x1F DUP3 ADD AND DUP3 ADD DUP1 PUSH1 0x40 MSTORE POP DUP2 ADD SWAP1 PUSH2 0xB26 SWAP2 SWAP1 PUSH2 0x1522 JUMP JUMPDEST PUSH2 0xB65 JUMPI PUSH1 0x40 MLOAD PUSH32 0x8C379A000000000000000000000000000000000000000000000000000000000 DUP2 MSTORE PUSH1 0x4 ADD PUSH2 0xB5C SWAP1 PUSH2 0x1738 JUMP JUMPDEST PUSH1 0x40 MLOAD DUP1 SWAP2 SUB SWAP1 REVERT JUMPDEST PUSH2 0xBD1 PUSH2 0xB85 PUSH2 0xB80 DUP4 PUSH1 0x4 SLOAD PUSH2 0x10EE SWAP1 SWAP2 SWAP1 PUSH4 0xFFFFFFFF AND JUMP JUMPDEST PUSH2 0x112E JUMP JUMPDEST PUSH1 0x6 PUSH0 CALLER PUSH20 0xFFFFFFFFFFFFFFFFFFFFFFFFFFFFFFFFFFFFFFFF AND PUSH20 0xFFFFFFFFFFFFFFFFFFFFFFFFFFFFFFFFFFFFFFFF AND DUP2 MSTORE PUSH1 0x20 ADD SWAP1 DUP2 MSTORE PUSH1 0x20 ADD PUSH0 KECCAK256 SLOAD PUSH2 0x11B9 SWAP1 SWAP2 SWAP1 PUSH4 0xFFFFFFFF AND JUMP JUMPDEST PUSH1 0x6 PUSH0 CALLER PUSH20 0xFFFFFFFFFFFFFFFFFFFFFFFFFFFFFFFFFFFFFFFF AND PUSH20 0xFFFFFFFFFFFFFFFFFFFFFFFFFFFFFFFFFFFFFFFF AND DUP2 MSTORE PUSH1 0x20 ADD SWAP1 DUP2 MSTORE PUSH1 0x20 ADD PUSH0 KECCAK256 DUP2 SWAP1 SSTORE POP PUSH2 0xC62 DUP2 PUSH1 0x8 PUSH0 CALLER PUSH20 0xFFFFFFFFFFFFFFFFFFFFFFFFFFFFFFFFFFFFFFFF AND PUSH20 0xFFFFFFFFFFFFFFFFFFFFFFFFFFFFFFFFFFFFFFFF AND DUP2 MSTORE PUSH1 0x20 ADD SWAP1 DUP2 MSTORE PUSH1 0x20 ADD PUSH0 KECCAK256 SLOAD PUSH2 0x10A2 SWAP1 SWAP2 SWAP1 PUSH4 0xFFFFFFFF AND JUMP JUMPDEST PUSH1 0x8 PUSH0 CALLER PUSH20 0xFFFFFFFFFFFFFFFFFFFFFFFFFFFFFFFFFFFFFFFF AND PUSH20 0xFFFFFFFFFFFFFFFFFFFFFFFFFFFFFFFFFFFFFFFF AND DUP2 MSTORE PUSH1 0x20 ADD SWAP1 DUP2 MSTORE PUSH1 0x20 ADD PUSH0 KECCAK256 DUP2 SWAP1 SSTORE POP PUSH2 0xCB8 DUP2 PUSH1 0x9 SLOAD PUSH2 0x10A2 SWAP1 SWAP2 SWAP1 PUSH4 0xFFFFFFFF AND JUMP JUMPDEST PUSH1 0x9 DUP2 SWAP1 SSTORE POP POP JUMP JUMPDEST PUSH1 0x7 PUSH1 0x20 MSTORE DUP1 PUSH0 MSTORE PUSH1 0x40 PUSH0 KECCAK256 PUSH0 SWAP2 POP SWAP1 POP SLOAD DUP2 JUMP JUMPDEST DUP1 PUSH1 0x8 PUSH0 CALLER PUSH20 0xFFFFFFFFFFFFFFFFFFFFFFFFFFFFFFFFFFFFFFFF AND PUSH20 0xFFFFFFFFFFFFFFFFFFFFFFFFFFFFFFFFFFFFFFFF AND DUP2 MSTORE PUSH1 0x20 ADD SWAP1 DUP2 MSTORE PUSH1 0x20 ADD PUSH0 KECCAK256 SLOAD LT ISZERO PUSH2 0xD56 JUMPI PUSH1 0x40 MLOAD PUSH32 0x8C379A000000000000000000000000000000000000000000000000000000000 DUP2 MSTORE PUSH1 0x4 ADD PUSH2 0xD4D SWAP1 PUSH2 0x17A0 JUMP JUMPDEST PUSH1 0x40 MLOAD DUP1 SWAP2 SUB SWAP1 REVERT JUMPDEST PUSH2 0xDC2 PUSH2 0xD76 PUSH2 0xD71 DUP4 PUSH1 0x4 SLOAD PUSH2 0x10EE SWAP1 SWAP2 SWAP1 PUSH4 0xFFFFFFFF AND JUMP JUMPDEST PUSH2 0x112E JUMP JUMPDEST PUSH1 0x6 PUSH0 CALLER PUSH20 0xFFFFFFFFFFFFFFFFFFFFFFFFFFFFFFFFFFFFFFFF AND PUSH20 0xFFFFFFFFFFFFFFFFFFFFFFFFFFFFFFFFFFFFFFFF AND DUP2 MSTORE PUSH1 0x20 ADD SWAP1 DUP2 MSTORE PUSH1 0x20 ADD PUSH0 KECCAK256 SLOAD PUSH2 0x1148 SWAP1 SWAP2 SWAP1 PUSH4 0xFFFFFFFF AND JUMP JUMPDEST PUSH1 0x6 PUSH0 CALLER PUSH20 0xFFFFFFFFFFFFFFFFFFFFFFFFFFFFFFFFFFFFFFFF AND PUSH20 0xFFFFFFFFFFFFFFFFFFFFFFFFFFFFFFFFFFFFFFFF AND DUP2 MSTORE PUSH1 0x20 ADD SWAP1 DUP2 MSTORE PUSH1 0x20 ADD PUSH0 KECCAK256 DUP2 SWAP1 SSTORE POP PUSH2 0xE53 DUP2 PUSH1 0x8 PUSH0 CALLER PUSH20 0xFFFFFFFFFFFFFFFFFFFFFFFFFFFFFFFFFFFFFFFF AND PUSH20 0xFFFFFFFFFFFFFFFFFFFFFFFFFFFFFFFFFFFFFFFF AND DUP2 MSTORE PUSH1 0x20 ADD SWAP1 DUP2 MSTORE PUSH1 0x20 ADD PUSH0 KECCAK256 SLOAD PUSH2 0x10C8 SWAP1 SWAP2 SWAP1 PUSH4 0xFFFFFFFF AND JUMP JUMPDEST PUSH1 0x8 PUSH0 CALLER PUSH20 0xFFFFFFFFFFFFFFFFFFFFFFFFFFFFFFFFFFFFFFFF AND PUSH20 0xFFFFFFFFFFFFFFFFFFFFFFFFFFFFFFFFFFFFFFFF AND DUP2 MSTORE PUSH1 0x20 ADD SWAP1 DUP2 MSTORE PUSH1 0x20 ADD PUSH0 KECCAK256 DUP2 SWAP1 SSTORE POP PUSH2 0xEA9 DUP2 PUSH1 0x9 SLOAD PUSH2 0x10C8 SWAP1 SWAP2 SWAP1 PUSH4 0xFFFFFFFF AND JUMP JUMPDEST PUSH1 0x9 DUP2 SWAP1 SSTORE POP PUSH0 DUP1 SLOAD SWAP1 PUSH2 0x100 EXP SWAP1 DIV PUSH20 0xFFFFFFFFFFFFFFFFFFFFFFFFFFFFFFFFFFFFFFFF AND PUSH20 0xFFFFFFFFFFFFFFFFFFFFFFFFFFFFFFFFFFFFFFFF AND PUSH4 0xA9059CBB CALLER DUP4 PUSH1 0x40 MLOAD DUP4 PUSH4 0xFFFFFFFF AND PUSH1 0xE0 SHL DUP2 MSTORE PUSH1 0x4 ADD PUSH2 0xF09 SWAP3 SWAP2 SWAP1 PUSH2 0x14C6 JUMP JUMPDEST PUSH1 0x20 PUSH1 0x40 MLOAD DUP1 DUP4 SUB DUP2 PUSH0 DUP8 GAS CALL ISZERO DUP1 ISZERO PUSH2 0xF25 JUMPI RETURNDATASIZE PUSH0 DUP1 RETURNDATACOPY RETURNDATASIZE PUSH0 REVERT JUMPDEST POP POP POP POP PUSH1 0x40 MLOAD RETURNDATASIZE PUSH1 0x1F NOT PUSH1 0x1F DUP3 ADD AND DUP3 ADD DUP1 PUSH1 0x40 MSTORE POP DUP2 ADD SWAP1 PUSH2 0xF49 SWAP2 SWAP1 PUSH2 0x1522 JUMP JUMPDEST PUSH2 0xF88 JUMPI PUSH1 0x40 MLOAD PUSH32 0x8C379A000000000000000000000000000000000000000000000000000000000 DUP2 MSTORE PUSH1 0x4 ADD PUSH2 0xF7F SWAP1 PUSH2 0x1738 JUMP JUMPDEST PUSH1 0x40 MLOAD DUP1 SWAP2 SUB SWAP1 REVERT JUMPDEST POP JUMP JUMPDEST PUSH0 DUP1 PUSH1 0x5 SLOAD GT PUSH2 0xFD0 JUMPI PUSH1 0x40 MLOAD PUSH32 0x8C379A000000000000000000000000000000000000000000000000000000000 DUP2 MSTORE PUSH1 0x4 ADD PUSH2 0xFC7 SWAP1 PUSH2 0x182E JUMP JUMPDEST PUSH1 0x40 MLOAD DUP1 SWAP2 SUB SWAP1 REVERT JUMPDEST PUSH0 PUSH2 0xFDA CALLER PUSH2 0x623 JUMP JUMPDEST SWAP1 POP PUSH0 PUSH1 0x2 PUSH0 SWAP1 SLOAD SWAP1 PUSH2 0x100 EXP SWAP1 DIV PUSH20 0xFFFFFFFFFFFFFFFFFFFFFFFFFFFFFFFFFFFFFFFF AND PUSH20 0xFFFFFFFFFFFFFFFFFFFFFFFFFFFFFFFFFFFFFFFF AND PUSH4 0x70A08231 ADDRESS PUSH1 0x40 MLOAD DUP3 PUSH4 0xFFFFFFFF AND PUSH1 0xE0 SHL DUP2 MSTORE PUSH1 0x4 ADD PUSH2 0x1037 SWAP2 SWAP1 PUSH2 0x134E JUMP JUMPDEST PUSH1 0x20 PUSH1 0x40 MLOAD DUP1 DUP4 SUB DUP2 DUP7 GAS STATICCALL ISZERO DUP1 ISZERO PUSH2 0x1052 JUMPI RETURNDATASIZE PUSH0 DUP1 RETURNDATACOPY RETURNDATASIZE PUSH0 REVERT JUMPDEST POP POP POP POP PUSH1 0x40 MLOAD RETURNDATASIZE PUSH1 0x1F NOT PUSH1 0x1F DUP3 ADD AND DUP3 ADD DUP1 PUSH1 0x40 MSTORE POP DUP2 ADD SWAP1 PUSH2 0x1076 SWAP2 SWAP1 PUSH2 0x13D0 JUMP JUMPDEST SWAP1 POP PUSH0 PUSH1 0x5 SLOAD DUP4 PUSH2 0x1087 SWAP2 SWAP1 PUSH2 0x1455 JUMP JUMPDEST DUP3 PUSH2 0x1092 SWAP2 SWAP1 PUSH2 0x1485 JUMP JUMPDEST SWAP1 POP PUSH0 DUP2 SWAP1 POP DUP1 SWAP5 POP POP POP POP POP SWAP1 JUMP JUMPDEST PUSH0 DUP2 DUP4 PUSH2 0x10AF SWAP2 SWAP1 PUSH2 0x1686 JUMP JUMPDEST SWAP1 POP DUP3 DUP2 LT ISZERO PUSH2 0x10C2 JUMPI PUSH2 0x10C1 PUSH2 0x184C JUMP JUMPDEST JUMPDEST SWAP3 SWAP2 POP POP JUMP JUMPDEST PUSH0 DUP3 DUP3 GT ISZERO PUSH2 0x10DA JUMPI PUSH2 0x10D9 PUSH2 0x184C JUMP JUMPDEST JUMPDEST DUP2 DUP4 PUSH2 0x10E6 SWAP2 SWAP1 PUSH2 0x15C5 JUMP JUMPDEST SWAP1 POP SWAP3 SWAP2 POP POP JUMP JUMPDEST PUSH0 DUP1 DUP4 SUB PUSH2 0x10FE JUMPI PUSH0 SWAP1 POP PUSH2 0x1128 JUMP JUMPDEST DUP2 DUP4 PUSH2 0x110A SWAP2 SWAP1 PUSH2 0x1485 JUMP JUMPDEST SWAP1 POP DUP2 DUP4 DUP3 PUSH2 0x1119 SWAP2 SWAP1 PUSH2 0x1455 JUMP JUMPDEST EQ PUSH2 0x1127 JUMPI PUSH2 0x1126 PUSH2 0x184C JUMP JUMPDEST JUMPDEST JUMPDEST SWAP3 SWAP2 POP POP JUMP JUMPDEST PUSH0 DUP1 DUP3 SWAP1 POP PUSH0 DUP2 SLT ISZERO PUSH2 0x113F JUMPI PUSH0 DUP1 REVERT JUMPDEST DUP1 SWAP2 POP POP SWAP2 SWAP1 POP JUMP JUMPDEST PUSH0 DUP1 DUP3 DUP5 PUSH2 0x1156 SWAP2 SWAP1 PUSH2 0x1882 JUMP JUMPDEST SWAP1 POP PUSH0 DUP4 SLT ISZERO DUP1 ISZERO PUSH2 0x1168 JUMPI POP DUP4 DUP2 SLT ISZERO JUMPDEST DUP1 PUSH2 0x117D JUMPI POP PUSH0 DUP4 SLT DUP1 ISZERO PUSH2 0x117C JUMPI POP DUP4 DUP2 SLT JUMPDEST JUMPDEST PUSH2 0x1185 JUMPI PUSH0 DUP1 REVERT JUMPDEST DUP1 SWAP2 POP POP SWAP3 SWAP2 POP POP JUMP JUMPDEST PUSH0 DUP1 DUP3 SLT ISZERO PUSH2 0x119C JUMPI PUSH0 DUP1 REVERT JUMPDEST DUP2 SWAP1 POP SWAP2 SWAP1 POP JUMP JUMPDEST PUSH0 DUP2 DUP4 PUSH2 0x11B1 SWAP2 SWAP1 PUSH2 0x1455 JUMP JUMPDEST SWAP1 POP SWAP3 SWAP2 POP POP JUMP JUMPDEST PUSH0 DUP1 DUP3 SLT ISZERO DUP1 ISZERO PUSH2 0x11D5 JUMPI POP DUP3 DUP3 DUP5 PUSH2 0x11D2 SWAP2 SWAP1 PUSH2 0x18C3 JUMP JUMPDEST SGT ISZERO JUMPDEST DUP1 PUSH2 0x11F5 JUMPI POP PUSH0 DUP3 SLT DUP1 ISZERO PUSH2 0x11F4 JUMPI POP DUP3 DUP3 DUP5 PUSH2 0x11F2 SWAP2 SWAP1 PUSH2 0x18C3 JUMP JUMPDEST SGT JUMPDEST JUMPDEST PUSH2 0x11FD JUMPI PUSH0 DUP1 REVERT JUMPDEST DUP2 DUP4 PUSH2 0x1209 SWAP2 SWAP1 PUSH2 0x18C3 JUMP JUMPDEST SWAP1 POP SWAP3 SWAP2 POP POP JUMP JUMPDEST PUSH0 DUP1 REVERT JUMPDEST PUSH0 PUSH20 0xFFFFFFFFFFFFFFFFFFFFFFFFFFFFFFFFFFFFFFFF DUP3 AND SWAP1 POP SWAP2 SWAP1 POP JUMP JUMPDEST PUSH0 PUSH2 0x123E DUP3 PUSH2 0x1215 JUMP JUMPDEST SWAP1 POP SWAP2 SWAP1 POP JUMP JUMPDEST PUSH2 0x124E DUP2 PUSH2 0x1234 JUMP JUMPDEST DUP2 EQ PUSH2 0x1258 JUMPI PUSH0 DUP1 REVERT JUMPDEST POP JUMP JUMPDEST PUSH0 DUP2 CALLDATALOAD SWAP1 POP PUSH2 0x1269 DUP2 PUSH2 0x1245 JUMP JUMPDEST SWAP3 SWAP2 POP POP JUMP JUMPDEST PUSH0 PUSH1 0x20 DUP3 DUP5 SUB SLT ISZERO PUSH2 0x1284 JUMPI PUSH2 0x1283 PUSH2 0x1211 JUMP JUMPDEST JUMPDEST PUSH0 PUSH2 0x1291 DUP5 DUP3 DUP6 ADD PUSH2 0x125B JUMP JUMPDEST SWAP2 POP POP SWAP3 SWAP2 POP POP JUMP JUMPDEST PUSH0 DUP2 SWAP1 POP SWAP2 SWAP1 POP JUMP JUMPDEST PUSH2 0x12AC DUP2 PUSH2 0x129A JUMP JUMPDEST DUP3 MSTORE POP POP JUMP JUMPDEST PUSH0 PUSH1 0x20 DUP3 ADD SWAP1 POP PUSH2 0x12C5 PUSH0 DUP4 ADD DUP5 PUSH2 0x12A3 JUMP JUMPDEST SWAP3 SWAP2 POP POP JUMP JUMPDEST PUSH0 DUP2 SWAP1 POP SWAP2 SWAP1 POP JUMP JUMPDEST PUSH0 PUSH2 0x12EE PUSH2 0x12E9 PUSH2 0x12E4 DUP5 PUSH2 0x1215 JUMP JUMPDEST PUSH2 0x12CB JUMP JUMPDEST PUSH2 0x1215 JUMP JUMPDEST SWAP1 POP SWAP2 SWAP1 POP JUMP JUMPDEST PUSH0 PUSH2 0x12FF DUP3 PUSH2 0x12D4 JUMP JUMPDEST SWAP1 POP SWAP2 SWAP1 POP JUMP JUMPDEST PUSH0 PUSH2 0x1310 DUP3 PUSH2 0x12F5 JUMP JUMPDEST SWAP1 POP SWAP2 SWAP1 POP JUMP JUMPDEST PUSH2 0x1320 DUP2 PUSH2 0x1306 JUMP JUMPDEST DUP3 MSTORE POP POP JUMP JUMPDEST PUSH0 PUSH1 0x20 DUP3 ADD SWAP1 POP PUSH2 0x1339 PUSH0 DUP4 ADD DUP5 PUSH2 0x1317 JUMP JUMPDEST SWAP3 SWAP2 POP POP JUMP JUMPDEST PUSH2 0x1348 DUP2 PUSH2 0x1234 JUMP JUMPDEST DUP3 MSTORE POP POP JUMP JUMPDEST PUSH0 PUSH1 0x20 DUP3 ADD SWAP1 POP PUSH2 0x1361 PUSH0 DUP4 ADD DUP5 PUSH2 0x133F JUMP JUMPDEST SWAP3 SWAP2 POP POP JUMP JUMPDEST PUSH2 0x1370 DUP2 PUSH2 0x129A JUMP JUMPDEST DUP2 EQ PUSH2 0x137A JUMPI PUSH0 DUP1 REVERT JUMPDEST POP JUMP JUMPDEST PUSH0 DUP2 CALLDATALOAD SWAP1 POP PUSH2 0x138B DUP2 PUSH2 0x1367 JUMP JUMPDEST SWAP3 SWAP2 POP POP JUMP JUMPDEST PUSH0 PUSH1 0x20 DUP3 DUP5 SUB SLT ISZERO PUSH2 0x13A6 JUMPI PUSH2 0x13A5 PUSH2 0x1211 JUMP JUMPDEST JUMPDEST PUSH0 PUSH2 0x13B3 DUP5 DUP3 DUP6 ADD PUSH2 0x137D JUMP JUMPDEST SWAP2 POP POP SWAP3 SWAP2 POP POP JUMP JUMPDEST PUSH0 DUP2 MLOAD SWAP1 POP PUSH2 0x13CA DUP2 PUSH2 0x1367 JUMP JUMPDEST SWAP3 SWAP2 POP POP JUMP JUMPDEST PUSH0 PUSH1 0x20 DUP3 DUP5 SUB SLT ISZERO PUSH2 0x13E5 JUMPI PUSH2 0x13E4 PUSH2 0x1211 JUMP JUMPDEST JUMPDEST PUSH0 PUSH2 0x13F2 DUP5 DUP3 DUP6 ADD PUSH2 0x13BC JUMP JUMPDEST SWAP2 POP POP SWAP3 SWAP2 POP POP JUMP JUMPDEST PUSH32 0x4E487B7100000000000000000000000000000000000000000000000000000000 PUSH0 MSTORE PUSH1 0x12 PUSH1 0x4 MSTORE PUSH1 0x24 PUSH0 REVERT JUMPDEST PUSH32 0x4E487B7100000000000000000000000000000000000000000000000000000000 PUSH0 MSTORE PUSH1 0x11 PUSH1 0x4 MSTORE PUSH1 0x24 PUSH0 REVERT JUMPDEST PUSH0 PUSH2 0x145F DUP3 PUSH2 0x129A JUMP JUMPDEST SWAP2 POP PUSH2 0x146A DUP4 PUSH2 0x129A JUMP JUMPDEST SWAP3 POP DUP3 PUSH2 0x147A JUMPI PUSH2 0x1479 PUSH2 0x13FB JUMP JUMPDEST JUMPDEST DUP3 DUP3 DIV SWAP1 POP SWAP3 SWAP2 POP POP JUMP JUMPDEST PUSH0 PUSH2 0x148F DUP3 PUSH2 0x129A JUMP JUMPDEST SWAP2 POP PUSH2 0x149A DUP4 PUSH2 0x129A JUMP JUMPDEST SWAP3 POP DUP3 DUP3 MUL PUSH2 0x14A8 DUP2 PUSH2 0x129A JUMP JUMPDEST SWAP2 POP DUP3 DUP3 DIV DUP5 EQ DUP4 ISZERO OR PUSH2 0x14BF JUMPI PUSH2 0x14BE PUSH2 0x1428 JUMP JUMPDEST JUMPDEST POP SWAP3 SWAP2 POP POP JUMP JUMPDEST PUSH0 PUSH1 0x40 DUP3 ADD SWAP1 POP PUSH2 0x14D9 PUSH0 DUP4 ADD DUP6 PUSH2 0x133F JUMP JUMPDEST PUSH2 0x14E6 PUSH1 0x20 DUP4 ADD DUP5 PUSH2 0x12A3 JUMP JUMPDEST SWAP4 SWAP3 POP POP POP JUMP JUMPDEST PUSH0 DUP2 ISZERO ISZERO SWAP1 POP SWAP2 SWAP1 POP JUMP JUMPDEST PUSH2 0x1501 DUP2 PUSH2 0x14ED JUMP JUMPDEST DUP2 EQ PUSH2 0x150B JUMPI PUSH0 DUP1 REVERT JUMPDEST POP JUMP JUMPDEST PUSH0 DUP2 MLOAD SWAP1 POP PUSH2 0x151C DUP2 PUSH2 0x14F8 JUMP JUMPDEST SWAP3 SWAP2 POP POP JUMP JUMPDEST PUSH0 PUSH1 0x20 DUP3 DUP5 SUB SLT ISZERO PUSH2 0x1537 JUMPI PUSH2 0x1536 PUSH2 0x1211 JUMP JUMPDEST JUMPDEST PUSH0 PUSH2 0x1544 DUP5 DUP3 DUP6 ADD PUSH2 0x150E JUMP JUMPDEST SWAP2 POP POP SWAP3 SWAP2 POP POP JUMP JUMPDEST PUSH0 DUP3 DUP3 MSTORE PUSH1 0x20 DUP3 ADD SWAP1 POP SWAP3 SWAP2 POP POP JUMP JUMPDEST PUSH32 0x55534443207472616E73666572206661696C6564000000000000000000000000 PUSH0 DUP3 ADD MSTORE POP JUMP JUMPDEST PUSH0 PUSH2 0x1591 PUSH1 0x14 DUP4 PUSH2 0x154D JUMP JUMPDEST SWAP2 POP PUSH2 0x159C DUP3 PUSH2 0x155D JUMP JUMPDEST PUSH1 0x20 DUP3 ADD SWAP1 POP SWAP2 SWAP1 POP JUMP JUMPDEST PUSH0 PUSH1 0x20 DUP3 ADD SWAP1 POP DUP2 DUP2 SUB PUSH0 DUP4 ADD MSTORE PUSH2 0x15BE DUP2 PUSH2 0x1585 JUMP JUMPDEST SWAP1 POP SWAP2 SWAP1 POP JUMP JUMPDEST PUSH0 PUSH2 0x15CF DUP3 PUSH2 0x129A JUMP JUMPDEST SWAP2 POP PUSH2 0x15DA DUP4 PUSH2 0x129A JUMP JUMPDEST SWAP3 POP DUP3 DUP3 SUB SWAP1 POP DUP2 DUP2 GT ISZERO PUSH2 0x15F2 JUMPI PUSH2 0x15F1 PUSH2 0x1428 JUMP JUMPDEST JUMPDEST SWAP3 SWAP2 POP POP JUMP JUMPDEST PUSH32 0x4F776E65722068617320696E73756666696369656E7420555344432062616C61 PUSH0 DUP3 ADD MSTORE PUSH32 0x6E63650000000000000000000000000000000000000000000000000000000000 PUSH1 0x20 DUP3 ADD MSTORE POP JUMP JUMPDEST PUSH0 PUSH2 0x1652 PUSH1 0x23 DUP4 PUSH2 0x154D JUMP JUMPDEST SWAP2 POP PUSH2 0x165D DUP3 PUSH2 0x15F8 JUMP JUMPDEST PUSH1 0x40 DUP3 ADD SWAP1 POP SWAP2 SWAP1 POP JUMP JUMPDEST PUSH0 PUSH1 0x20 DUP3 ADD SWAP1 POP DUP2 DUP2 SUB PUSH0 DUP4 ADD MSTORE PUSH2 0x167F DUP2 PUSH2 0x1646 JUMP JUMPDEST SWAP1 POP SWAP2 SWAP1 POP JUMP JUMPDEST PUSH0 PUSH2 0x1690 DUP3 PUSH2 0x129A JUMP JUMPDEST SWAP2 POP PUSH2 0x169B DUP4 PUSH2 0x129A JUMP JUMPDEST SWAP3 POP DUP3 DUP3 ADD SWAP1 POP DUP1 DUP3 GT ISZERO PUSH2 0x16B3 JUMPI PUSH2 0x16B2 PUSH2 0x1428 JUMP JUMPDEST JUMPDEST SWAP3 SWAP2 POP POP JUMP JUMPDEST PUSH0 PUSH1 0x60 DUP3 ADD SWAP1 POP PUSH2 0x16CC PUSH0 DUP4 ADD DUP7 PUSH2 0x133F JUMP JUMPDEST PUSH2 0x16D9 PUSH1 0x20 DUP4 ADD DUP6 PUSH2 0x133F JUMP JUMPDEST PUSH2 0x16E6 PUSH1 0x40 DUP4 ADD DUP5 PUSH2 0x12A3 JUMP JUMPDEST SWAP5 SWAP4 POP POP POP POP JUMP JUMPDEST PUSH32 0x42434B207472616E73666572206661696C656400000000000000000000000000 PUSH0 DUP3 ADD MSTORE POP JUMP JUMPDEST PUSH0 PUSH2 0x1722 PUSH1 0x13 DUP4 PUSH2 0x154D JUMP JUMPDEST SWAP2 POP PUSH2 0x172D DUP3 PUSH2 0x16EE JUMP JUMPDEST PUSH1 0x20 DUP3 ADD SWAP1 POP SWAP2 SWAP1 POP JUMP JUMPDEST PUSH0 PUSH1 0x20 DUP3 ADD SWAP1 POP DUP2 DUP2 SUB PUSH0 DUP4 ADD MSTORE PUSH2 0x174F DUP2 PUSH2 0x1716 JUMP JUMPDEST SWAP1 POP SWAP2 SWAP1 POP JUMP JUMPDEST PUSH32 0x496E73756666696369656E742042434B2062616C616E63650000000000000000 PUSH0 DUP3 ADD MSTORE POP JUMP JUMPDEST PUSH0 PUSH2 0x178A PUSH1 0x18 DUP4 PUSH2 0x154D JUMP JUMPDEST SWAP2 POP PUSH2 0x1795 DUP3 PUSH2 0x1756 JUMP JUMPDEST PUSH1 0x20 DUP3 ADD SWAP1 POP SWAP2 SWAP1 POP JUMP JUMPDEST PUSH0 PUSH1 0x20 DUP3 ADD SWAP1 POP DUP2 DUP2 SUB PUSH0 DUP4 ADD MSTORE PUSH2 0x17B7 DUP2 PUSH2 0x177E JUMP JUMPDEST SWAP1 POP SWAP2 SWAP1 POP JUMP JUMPDEST PUSH32 0x5448455245204953204E4F20657342434B474F5620494E544552455354204C45 PUSH0 DUP3 ADD MSTORE PUSH32 0x465420544F205749544844524157000000000000000000000000000000000000 PUSH1 0x20 DUP3 ADD MSTORE POP JUMP JUMPDEST PUSH0 PUSH2 0x1818 PUSH1 0x2E DUP4 PUSH2 0x154D JUMP JUMPDEST SWAP2 POP PUSH2 0x1823 DUP3 PUSH2 0x17BE JUMP JUMPDEST PUSH1 0x40 DUP3 ADD SWAP1 POP SWAP2 SWAP1 POP JUMP JUMPDEST PUSH0 PUSH1 0x20 DUP3 ADD SWAP1 POP DUP2 DUP2 SUB PUSH0 DUP4 ADD MSTORE PUSH2 0x1845 DUP2 PUSH2 0x180C JUMP JUMPDEST SWAP1 POP SWAP2 SWAP1 POP JUMP JUMPDEST PUSH32 0x4E487B7100000000000000000000000000000000000000000000000000000000 PUSH0 MSTORE PUSH1 0x1 PUSH1 0x4 MSTORE PUSH1 0x24 PUSH0 REVERT JUMPDEST PUSH0 DUP2 SWAP1 POP SWAP2 SWAP1 POP JUMP JUMPDEST PUSH0 PUSH2 0x188C DUP3 PUSH2 0x1879 JUMP JUMPDEST SWAP2 POP PUSH2 0x1897 DUP4 PUSH2 0x1879 JUMP JUMPDEST SWAP3 POP DUP3 DUP3 ADD SWAP1 POP DUP3 DUP2 SLT ISZERO PUSH0 DUP4 SLT AND DUP4 DUP3 SLT PUSH0 DUP5 SLT ISZERO AND OR ISZERO PUSH2 0x18BD JUMPI PUSH2 0x18BC PUSH2 0x1428 JUMP JUMPDEST JUMPDEST SWAP3 SWAP2 POP POP JUMP JUMPDEST PUSH0 PUSH2 0x18CD DUP3 PUSH2 0x1879 JUMP JUMPDEST SWAP2 POP PUSH2 0x18D8 DUP4 PUSH2 0x1879 JUMP JUMPDEST SWAP3 POP DUP3 DUP3 SUB SWAP1 POP DUP2 DUP2 SLT PUSH0 DUP5 SLT AND DUP3 DUP3 SGT PUSH0 DUP6 SLT ISZERO AND OR ISZERO PUSH2 0x18FD JUMPI PUSH2 0x18FC PUSH2 0x1428 JUMP JUMPDEST JUMPDEST SWAP3 SWAP2 POP POP JUMP INVALID LOG2 PUSH5 0x6970667358 0x22 SLT KECCAK256 0x2F CODECOPY JUMP 0x25 0xCD ADDRESS PUSH17 0xFDC974F2C816774C998EAAB36605AA6675 OR 0xB3 0xD5 0xE4 0xC 0xCE 0xAF SHR PUSH5 0x736F6C6343 STOP ADDMOD OR STOP CALLER "
				},
				"gasEstimates": {
					"creation": {
						"codeDepositCost": "1291400",
						"executionCost": "infinite",
						"totalCost": "infinite"
					},
					"external": {
						"accumulativeInterestOf(address)": "infinite",
						"balances(address)": "2870",
						"bck()": "infinite",
						"currentdistrbutedBCKGOV()": "2448",
						"depositBCK(uint256)": "infinite",
						"distributeBCKGOV(uint256)": "infinite",
						"esBCKGOV()": "infinite",
						"excessBCKGOVTest()": "infinite",
						"owner()": "2553",
						"totalDeposits()": "2448",
						"usdc()": "infinite",
						"withdrawBCK(uint256)": "infinite",
						"withdrawInterest()": "infinite",
						"withdrawableInterestOf(address)": "infinite",
						"withdrawnInterest(address)": "2846"
					}
				},
				"methodIdentifiers": {
					"accumulativeInterestOf(address)": "9778dd2b",
					"balances(address)": "27e235e3",
					"bck()": "71c21934",
					"currentdistrbutedBCKGOV()": "39beb7a1",
					"depositBCK(uint256)": "9e5be1d0",
					"distributeBCKGOV(uint256)": "9ddf0293",
					"esBCKGOV()": "5246fb2d",
					"excessBCKGOVTest()": "f00f64ec",
					"owner()": "8da5cb5b",
					"totalDeposits()": "7d882097",
					"usdc()": "3e413bee",
					"withdrawBCK(uint256)": "b35874cb",
					"withdrawInterest()": "0063750c",
					"withdrawableInterestOf(address)": "0f90c97b",
					"withdrawnInterest(address)": "a1ef92eb"
				}
			},
			"storageLayout": {
				"storage": [
					{
						"astId": 425,
						"contract": "Crypto-side-main/stake.sol:BCKSavingsAccount",
						"label": "bck",
						"offset": 0,
						"slot": "0",
						"type": "t_contract(ERC20)411"
					},
					{
						"astId": 428,
						"contract": "Crypto-side-main/stake.sol:BCKSavingsAccount",
						"label": "esBCKGOV",
						"offset": 0,
						"slot": "1",
						"type": "t_contract(ERC20)411"
					},
					{
						"astId": 431,
						"contract": "Crypto-side-main/stake.sol:BCKSavingsAccount",
						"label": "usdc",
						"offset": 0,
						"slot": "2",
						"type": "t_contract(ERC20)411"
					},
					{
						"astId": 433,
						"contract": "Crypto-side-main/stake.sol:BCKSavingsAccount",
						"label": "owner",
						"offset": 0,
						"slot": "3",
						"type": "t_address"
					},
					{
						"astId": 440,
						"contract": "Crypto-side-main/stake.sol:BCKSavingsAccount",
						"label": "magnifiedInterestPerShare",
						"offset": 0,
						"slot": "4",
						"type": "t_uint256"
					},
					{
						"astId": 442,
						"contract": "Crypto-side-main/stake.sol:BCKSavingsAccount",
						"label": "currentdistrbutedBCKGOV",
						"offset": 0,
						"slot": "5",
						"type": "t_uint256"
					},
					{
						"astId": 446,
						"contract": "Crypto-side-main/stake.sol:BCKSavingsAccount",
						"label": "magnifiedInterestCorrections",
						"offset": 0,
						"slot": "6",
						"type": "t_mapping(t_address,t_int256)"
					},
					{
						"astId": 450,
						"contract": "Crypto-side-main/stake.sol:BCKSavingsAccount",
						"label": "withdrawnInterest",
						"offset": 0,
						"slot": "7",
						"type": "t_mapping(t_address,t_uint256)"
					},
					{
						"astId": 454,
						"contract": "Crypto-side-main/stake.sol:BCKSavingsAccount",
						"label": "balances",
						"offset": 0,
						"slot": "8",
						"type": "t_mapping(t_address,t_uint256)"
					},
					{
						"astId": 456,
						"contract": "Crypto-side-main/stake.sol:BCKSavingsAccount",
						"label": "totalDeposits",
						"offset": 0,
						"slot": "9",
						"type": "t_uint256"
					}
				],
				"types": {
					"t_address": {
						"encoding": "inplace",
						"label": "address",
						"numberOfBytes": "20"
					},
					"t_contract(ERC20)411": {
						"encoding": "inplace",
						"label": "contract ERC20",
						"numberOfBytes": "20"
					},
					"t_int256": {
						"encoding": "inplace",
						"label": "int256",
						"numberOfBytes": "32"
					},
					"t_mapping(t_address,t_int256)": {
						"encoding": "mapping",
						"key": "t_address",
						"label": "mapping(address => int256)",
						"numberOfBytes": "32",
						"value": "t_int256"
					},
					"t_mapping(t_address,t_uint256)": {
						"encoding": "mapping",
						"key": "t_address",
						"label": "mapping(address => uint256)",
						"numberOfBytes": "32",
						"value": "t_uint256"
					},
					"t_uint256": {
						"encoding": "inplace",
						"label": "uint256",
						"numberOfBytes": "32"
					}
				}
			},
			"userdoc": {
				"kind": "user",
				"methods": {},
				"version": 1
			}
		}
	}
}